{
  "address": "0xC0c89911C20453B1d897355Ee7208e8270Fc3248",
  "abi": [
    {
      "inputs": [
        {
          "internalType": "address",
          "name": "_initialOwner",
          "type": "address"
        },
        {
          "internalType": "contract ERC20Burnable",
          "name": "_siloV1",
          "type": "address"
        }
      ],
      "stateMutability": "nonpayable",
      "type": "constructor"
    },
    {
      "inputs": [],
      "name": "DOMAIN_SEPARATOR",
      "outputs": [
        {
          "internalType": "bytes32",
          "name": "",
          "type": "bytes32"
        }
      ],
      "stateMutability": "view",
      "type": "function"
    },
    {
      "inputs": [],
      "name": "SILO_V1",
      "outputs": [
        {
          "internalType": "contract ERC20Burnable",
          "name": "",
          "type": "address"
        }
      ],
      "stateMutability": "view",
      "type": "function"
    },
    {
      "inputs": [],
      "name": "acceptOwnership",
      "outputs": [],
      "stateMutability": "nonpayable",
      "type": "function"
    },
    {
      "inputs": [
        {
          "internalType": "address",
          "name": "owner",
          "type": "address"
        },
        {
          "internalType": "address",
          "name": "spender",
          "type": "address"
        }
      ],
      "name": "allowance",
      "outputs": [
        {
          "internalType": "uint256",
          "name": "",
          "type": "uint256"
        }
      ],
      "stateMutability": "view",
      "type": "function"
    },
    {
      "inputs": [
        {
          "internalType": "address",
          "name": "spender",
          "type": "address"
        },
        {
          "internalType": "uint256",
          "name": "value",
          "type": "uint256"
        }
      ],
      "name": "approve",
      "outputs": [
        {
          "internalType": "bool",
          "name": "",
          "type": "bool"
        }
      ],
      "stateMutability": "nonpayable",
      "type": "function"
    },
    {
      "inputs": [
        {
          "internalType": "address",
          "name": "account",
          "type": "address"
        }
      ],
      "name": "balanceOf",
      "outputs": [
        {
          "internalType": "uint256",
          "name": "",
          "type": "uint256"
        }
      ],
      "stateMutability": "view",
      "type": "function"
    },
    {
      "inputs": [
        {
          "internalType": "uint256",
          "name": "value",
          "type": "uint256"
        }
      ],
      "name": "burn",
      "outputs": [],
      "stateMutability": "nonpayable",
      "type": "function"
    },
    {
      "inputs": [
        {
          "internalType": "address",
          "name": "account",
          "type": "address"
        },
        {
          "internalType": "uint256",
          "name": "value",
          "type": "uint256"
        }
      ],
      "name": "burnFrom",
      "outputs": [],
      "stateMutability": "nonpayable",
      "type": "function"
    },
    {
      "inputs": [],
      "name": "cap",
      "outputs": [
        {
          "internalType": "uint256",
          "name": "",
          "type": "uint256"
        }
      ],
      "stateMutability": "view",
      "type": "function"
    },
    {
      "inputs": [],
      "name": "decimals",
      "outputs": [
        {
          "internalType": "uint8",
          "name": "",
          "type": "uint8"
        }
      ],
      "stateMutability": "view",
      "type": "function"
    },
    {
      "inputs": [],
      "name": "eip712Domain",
      "outputs": [
        {
          "internalType": "bytes1",
          "name": "fields",
          "type": "bytes1"
        },
        {
          "internalType": "string",
          "name": "name",
          "type": "string"
        },
        {
          "internalType": "string",
          "name": "version",
          "type": "string"
        },
        {
          "internalType": "uint256",
          "name": "chainId",
          "type": "uint256"
        },
        {
          "internalType": "address",
          "name": "verifyingContract",
          "type": "address"
        },
        {
          "internalType": "bytes32",
          "name": "salt",
          "type": "bytes32"
        },
        {
          "internalType": "uint256[]",
          "name": "extensions",
          "type": "uint256[]"
        }
      ],
      "stateMutability": "view",
      "type": "function"
    },
    {
      "inputs": [
        {
          "internalType": "address",
          "name": "to",
          "type": "address"
        },
        {
          "internalType": "uint256",
          "name": "amount",
          "type": "uint256"
        }
      ],
      "name": "mint",
      "outputs": [],
      "stateMutability": "nonpayable",
      "type": "function"
    },
    {
      "inputs": [],
      "name": "name",
      "outputs": [
        {
          "internalType": "string",
          "name": "",
          "type": "string"
        }
      ],
      "stateMutability": "view",
      "type": "function"
    },
    {
      "inputs": [
        {
          "internalType": "address",
          "name": "owner",
          "type": "address"
        }
      ],
      "name": "nonces",
      "outputs": [
        {
          "internalType": "uint256",
          "name": "",
          "type": "uint256"
        }
      ],
      "stateMutability": "view",
      "type": "function"
    },
    {
      "inputs": [],
      "name": "owner",
      "outputs": [
        {
          "internalType": "address",
          "name": "",
          "type": "address"
        }
      ],
      "stateMutability": "view",
      "type": "function"
    },
    {
      "inputs": [],
      "name": "pause",
      "outputs": [],
      "stateMutability": "nonpayable",
      "type": "function"
    },
    {
      "inputs": [],
      "name": "paused",
      "outputs": [
        {
          "internalType": "bool",
          "name": "",
          "type": "bool"
        }
      ],
      "stateMutability": "view",
      "type": "function"
    },
    {
      "inputs": [],
      "name": "pendingOwner",
      "outputs": [
        {
          "internalType": "address",
          "name": "",
          "type": "address"
        }
      ],
      "stateMutability": "view",
      "type": "function"
    },
    {
      "inputs": [
        {
          "internalType": "address",
          "name": "owner",
          "type": "address"
        },
        {
          "internalType": "address",
          "name": "spender",
          "type": "address"
        },
        {
          "internalType": "uint256",
          "name": "value",
          "type": "uint256"
        },
        {
          "internalType": "uint256",
          "name": "deadline",
          "type": "uint256"
        },
        {
          "internalType": "uint8",
          "name": "v",
          "type": "uint8"
        },
        {
          "internalType": "bytes32",
          "name": "r",
          "type": "bytes32"
        },
        {
          "internalType": "bytes32",
          "name": "s",
          "type": "bytes32"
        }
      ],
      "name": "permit",
      "outputs": [],
      "stateMutability": "nonpayable",
      "type": "function"
    },
    {
      "inputs": [],
      "name": "renounceOwnership",
      "outputs": [],
      "stateMutability": "nonpayable",
      "type": "function"
    },
    {
      "inputs": [],
      "name": "symbol",
      "outputs": [
        {
          "internalType": "string",
          "name": "",
          "type": "string"
        }
      ],
      "stateMutability": "view",
      "type": "function"
    },
    {
      "inputs": [],
      "name": "totalSupply",
      "outputs": [
        {
          "internalType": "uint256",
          "name": "",
          "type": "uint256"
        }
      ],
      "stateMutability": "view",
      "type": "function"
    },
    {
      "inputs": [
        {
          "internalType": "address",
          "name": "to",
          "type": "address"
        },
        {
          "internalType": "uint256",
          "name": "value",
          "type": "uint256"
        }
      ],
      "name": "transfer",
      "outputs": [
        {
          "internalType": "bool",
          "name": "",
          "type": "bool"
        }
      ],
      "stateMutability": "nonpayable",
      "type": "function"
    },
    {
      "inputs": [
        {
          "internalType": "address",
          "name": "from",
          "type": "address"
        },
        {
          "internalType": "address",
          "name": "to",
          "type": "address"
        },
        {
          "internalType": "uint256",
          "name": "value",
          "type": "uint256"
        }
      ],
      "name": "transferFrom",
      "outputs": [
        {
          "internalType": "bool",
          "name": "",
          "type": "bool"
        }
      ],
      "stateMutability": "nonpayable",
      "type": "function"
    },
    {
      "inputs": [
        {
          "internalType": "address",
          "name": "newOwner",
          "type": "address"
        }
      ],
      "name": "transferOwnership",
      "outputs": [],
      "stateMutability": "nonpayable",
      "type": "function"
    },
    {
      "inputs": [],
      "name": "unpause",
      "outputs": [],
      "stateMutability": "nonpayable",
      "type": "function"
    },
    {
      "anonymous": false,
      "inputs": [
        {
          "indexed": true,
          "internalType": "address",
          "name": "owner",
          "type": "address"
        },
        {
          "indexed": true,
          "internalType": "address",
          "name": "spender",
          "type": "address"
        },
        {
          "indexed": false,
          "internalType": "uint256",
          "name": "value",
          "type": "uint256"
        }
      ],
      "name": "Approval",
      "type": "event"
    },
    {
      "anonymous": false,
      "inputs": [],
      "name": "EIP712DomainChanged",
      "type": "event"
    },
    {
      "anonymous": false,
      "inputs": [
        {
          "indexed": true,
          "internalType": "address",
          "name": "previousOwner",
          "type": "address"
        },
        {
          "indexed": true,
          "internalType": "address",
          "name": "newOwner",
          "type": "address"
        }
      ],
      "name": "OwnershipTransferStarted",
      "type": "event"
    },
    {
      "anonymous": false,
      "inputs": [
        {
          "indexed": true,
          "internalType": "address",
          "name": "previousOwner",
          "type": "address"
        },
        {
          "indexed": true,
          "internalType": "address",
          "name": "newOwner",
          "type": "address"
        }
      ],
      "name": "OwnershipTransferred",
      "type": "event"
    },
    {
      "anonymous": false,
      "inputs": [
        {
          "indexed": false,
          "internalType": "address",
          "name": "account",
          "type": "address"
        }
      ],
      "name": "Paused",
      "type": "event"
    },
    {
      "anonymous": false,
      "inputs": [
        {
          "indexed": true,
          "internalType": "address",
          "name": "from",
          "type": "address"
        },
        {
          "indexed": true,
          "internalType": "address",
          "name": "to",
          "type": "address"
        },
        {
          "indexed": false,
          "internalType": "uint256",
          "name": "value",
          "type": "uint256"
        }
      ],
      "name": "Transfer",
      "type": "event"
    },
    {
      "anonymous": false,
      "inputs": [
        {
          "indexed": false,
          "internalType": "address",
          "name": "account",
          "type": "address"
        }
      ],
      "name": "Unpaused",
      "type": "event"
    },
    {
      "inputs": [],
      "name": "ECDSAInvalidSignature",
      "type": "error"
    },
    {
      "inputs": [
        {
          "internalType": "uint256",
          "name": "length",
          "type": "uint256"
        }
      ],
      "name": "ECDSAInvalidSignatureLength",
      "type": "error"
    },
    {
      "inputs": [
        {
          "internalType": "bytes32",
          "name": "s",
          "type": "bytes32"
        }
      ],
      "name": "ECDSAInvalidSignatureS",
      "type": "error"
    },
    {
      "inputs": [
        {
          "internalType": "uint256",
          "name": "increasedSupply",
          "type": "uint256"
        },
        {
          "internalType": "uint256",
          "name": "cap",
          "type": "uint256"
        }
      ],
      "name": "ERC20ExceededCap",
      "type": "error"
    },
    {
      "inputs": [
        {
          "internalType": "address",
          "name": "spender",
          "type": "address"
        },
        {
          "internalType": "uint256",
          "name": "allowance",
          "type": "uint256"
        },
        {
          "internalType": "uint256",
          "name": "needed",
          "type": "uint256"
        }
      ],
      "name": "ERC20InsufficientAllowance",
      "type": "error"
    },
    {
      "inputs": [
        {
          "internalType": "address",
          "name": "sender",
          "type": "address"
        },
        {
          "internalType": "uint256",
          "name": "balance",
          "type": "uint256"
        },
        {
          "internalType": "uint256",
          "name": "needed",
          "type": "uint256"
        }
      ],
      "name": "ERC20InsufficientBalance",
      "type": "error"
    },
    {
      "inputs": [
        {
          "internalType": "address",
          "name": "approver",
          "type": "address"
        }
      ],
      "name": "ERC20InvalidApprover",
      "type": "error"
    },
    {
      "inputs": [
        {
          "internalType": "uint256",
          "name": "cap",
          "type": "uint256"
        }
      ],
      "name": "ERC20InvalidCap",
      "type": "error"
    },
    {
      "inputs": [
        {
          "internalType": "address",
          "name": "receiver",
          "type": "address"
        }
      ],
      "name": "ERC20InvalidReceiver",
      "type": "error"
    },
    {
      "inputs": [
        {
          "internalType": "address",
          "name": "sender",
          "type": "address"
        }
      ],
      "name": "ERC20InvalidSender",
      "type": "error"
    },
    {
      "inputs": [
        {
          "internalType": "address",
          "name": "spender",
          "type": "address"
        }
      ],
      "name": "ERC20InvalidSpender",
      "type": "error"
    },
    {
      "inputs": [
        {
          "internalType": "uint256",
          "name": "deadline",
          "type": "uint256"
        }
      ],
      "name": "ERC2612ExpiredSignature",
      "type": "error"
    },
    {
      "inputs": [
        {
          "internalType": "address",
          "name": "signer",
          "type": "address"
        },
        {
          "internalType": "address",
          "name": "owner",
          "type": "address"
        }
      ],
      "name": "ERC2612InvalidSigner",
      "type": "error"
    },
    {
      "inputs": [],
      "name": "EnforcedPause",
      "type": "error"
    },
    {
      "inputs": [],
      "name": "ExpectedPause",
      "type": "error"
    },
    {
      "inputs": [
        {
          "internalType": "address",
          "name": "account",
          "type": "address"
        },
        {
          "internalType": "uint256",
          "name": "currentNonce",
          "type": "uint256"
        }
      ],
      "name": "InvalidAccountNonce",
      "type": "error"
    },
    {
      "inputs": [],
      "name": "InvalidShortString",
      "type": "error"
    },
    {
      "inputs": [
        {
          "internalType": "address",
          "name": "owner",
          "type": "address"
        }
      ],
      "name": "OwnableInvalidOwner",
      "type": "error"
    },
    {
      "inputs": [
        {
          "internalType": "address",
          "name": "account",
          "type": "address"
        }
      ],
      "name": "OwnableUnauthorizedAccount",
      "type": "error"
    },
    {
      "inputs": [
        {
          "internalType": "string",
          "name": "str",
          "type": "string"
        }
      ],
      "name": "StringTooLong",
      "type": "error"
    },
    {
      "inputs": [],
      "name": "ZeroAddress",
      "type": "error"
    }
  ],
  "bytecode": "0x6101a0604052348015610010575f5ffd5b50604051611a01380380611a0183398101604081905261002f91610334565b816b033b2e3c9fd0803ce80000006040518060400160405280600481526020016353494c4f60e01b81525080604051806040016040528060018152602001603160f81b8152506040518060400160405280600481526020016353494c4f60e01b8152506040518060400160405280601581526020017f53696c6f20476f7665726e616e636520546f6b656e000000000000000000000081525081600390816100d79190610404565b5060046100e48282610404565b506100f49150839050600561023c565b6101205261010381600661023c565b61014052815160208084019190912060e052815190820120610100524660a05261018f60e05161010051604080517f8b73c3c69bb8fe3d512ecc4cf759cc79239f7b179b0ffacaa9a75d522b39400f60208201529081019290925260608201524660808201523060a08201525f9060c00160405160208183030381529060405280519060200120905090565b60805250503060c052505f8190036101c15760405163392e1e2760e01b81525f60048201526024015b60405180910390fd5b610160526008805460ff191690556001600160a01b0381166101f857604051631e4fbdf760e01b81525f60048201526024016101b8565b6102018161026e565b506001600160a01b0381166102295760405163d92e233d60e01b815260040160405180910390fd5b6001600160a01b03166101805250610516565b5f602083511015610257576102508361028a565b9050610268565b816102628482610404565b5060ff90505b92915050565b600980546001600160a01b0319169055610287816102c7565b50565b5f5f829050601f815111156102b4578260405163305a27a960e01b81526004016101b891906104be565b80516102bf826104f3565b179392505050565b600880546001600160a01b03838116610100818102610100600160a81b031985161790945560405193909204169182907f8be0079c531659141344cd1fd0a4f28419497f9722a3daafe3b4186f6b6457e0905f90a35050565b6001600160a01b0381168114610287575f5ffd5b5f5f60408385031215610345575f5ffd5b825161035081610320565b602084015190925061036181610320565b809150509250929050565b634e487b7160e01b5f52604160045260245ffd5b600181811c9082168061039457607f821691505b6020821081036103b257634e487b7160e01b5f52602260045260245ffd5b50919050565b601f8211156103ff57805f5260205f20601f840160051c810160208510156103dd5750805b601f840160051c820191505b818110156103fc575f81556001016103e9565b50505b505050565b81516001600160401b0381111561041d5761041d61036c565b6104318161042b8454610380565b846103b8565b6020601f821160018114610463575f831561044c5750848201515b5f19600385901b1c1916600184901b1784556103fc565b5f84815260208120601f198516915b828110156104925787850151825560209485019460019092019101610472565b50848210156104af57868401515f19600387901b60f8161c191681555b50505050600190811b01905550565b602081525f82518060208401528060208501604085015e5f604082850101526040601f19601f83011684010191505092915050565b805160208083015191908110156103b2575f1960209190910360031b1b16919050565b60805160a05160c05160e05161010051610120516101405161016051610180516114786105895f395f81816101e301526104c701525f81816102410152610fd301525f610bb501525f610b8801525f6109ca01525f6109a201525f6108fd01525f61092701525f61095101526114785ff3fe608060405234801561000f575f5ffd5b5060043610610187575f3560e01c8063715018a6116100d95780638da5cb5b11610093578063d505accf1161006e578063d505accf1461035a578063dd62ed3e1461036d578063e30c3978146103a5578063f2fde38b146103b6575f5ffd5b80638da5cb5b1461032957806395d89b411461033f578063a9059cbb14610347575f5ffd5b8063715018a6146102d057806379ba5097146102d857806379cc6790146102e05780637ecebe00146102f35780638456cb591461030657806384b0196e1461030e575f5ffd5b8063355274ea1161014457806340c10f191161011f57806340c10f191461027757806342966c681461028a5780635c975abb1461029d57806370a08231146102a8575f5ffd5b8063355274ea1461023f5780633644e515146102655780633f4ba83a1461026d575f5ffd5b806306fdde031461018b578063095ea7b3146101a957806318160ddd146101cc57806318f271b0146101de57806323b872dd1461021d578063313ce56714610230575b5f5ffd5b6101936103c9565b6040516101a091906111dd565b60405180910390f35b6101bc6101b7366004611211565b610459565b60405190151581526020016101a0565b6002545b6040519081526020016101a0565b6102057f000000000000000000000000000000000000000000000000000000000000000081565b6040516001600160a01b0390911681526020016101a0565b6101bc61022b366004611239565b610472565b604051601281526020016101a0565b7f00000000000000000000000000000000000000000000000000000000000000006101d0565b6101d0610495565b6102756104a3565b005b610275610285366004611211565b6104b5565b610275610298366004611273565b610556565b60085460ff166101bc565b6101d06102b636600461128a565b6001600160a01b03165f9081526020819052604090205490565b610275610563565b610275610574565b6102756102ee366004611211565b6105ba565b6101d061030136600461128a565b6105cf565b6102756105ec565b6103166105fc565b6040516101a097969594939291906112a3565b60085461010090046001600160a01b0316610205565b61019361063e565b6101bc610355366004611211565b61064d565b610275610368366004611339565b61065a565b6101d061037b3660046113a6565b6001600160a01b039182165f90815260016020908152604080832093909416825291909152205490565b6009546001600160a01b0316610205565b6102756103c436600461128a565b610790565b6060600380546103d8906113d7565b80601f0160208091040260200160405190810160405280929190818152602001828054610404906113d7565b801561044f5780601f106104265761010080835404028352916020019161044f565b820191905f5260205f20905b81548152906001019060200180831161043257829003601f168201915b5050505050905090565b5f33610466818585610807565b60019150505b92915050565b5f3361047f858285610819565b61048a858585610894565b506001949350505050565b5f61049e6108f1565b905090565b6104ab610a1a565b6104b3610a4d565b565b6104bd610a9f565b6001600160a01b037f0000000000000000000000000000000000000000000000000000000000000000166379cc6790336040516001600160e01b031960e084901b1681526001600160a01b039091166004820152602481018490526044015f604051808303815f87803b158015610532575f5ffd5b505af1158015610544573d5f5f3e3d5ffd5b505050506105528282610ac3565b5050565b6105603382610af7565b50565b61056b610a1a565b6104b35f610b2b565b60095433906001600160a01b031681146105b15760405163118cdaa760e01b81526001600160a01b03821660048201526024015b60405180910390fd5b61056081610b2b565b6105c5823383610819565b6105528282610af7565b6001600160a01b0381165f9081526007602052604081205461046c565b6105f4610a1a565b6104b3610b44565b5f6060805f5f5f606061060d610b81565b610615610bae565b604080515f80825260208201909252600f60f81b9b939a50919850469750309650945092509050565b6060600480546103d8906113d7565b5f33610466818585610894565b8342111561067e5760405163313c898160e11b8152600481018590526024016105a8565b5f7f6e71edae12b1b97f4d1f60370fef10105fa2faae0126114a169c64845d6126c98888886106c98c6001600160a01b03165f90815260076020526040902080546001810190915590565b6040805160208101969096526001600160a01b0394851690860152929091166060840152608083015260a082015260c0810186905260e0016040516020818303038152906040528051906020012090505f61072382610bdb565b90505f61073282878787610c07565b9050896001600160a01b0316816001600160a01b031614610779576040516325c0072360e11b81526001600160a01b0380831660048301528b1660248201526044016105a8565b6107848a8a8a610807565b50505050505050505050565b610798610a1a565b600980546001600160a01b0383166001600160a01b031990911681179091556107cf6008546001600160a01b036101009091041690565b6001600160a01b03167f38d16b8cac22d99fc7c124b9cd0de2d3fa1faef420bfe791d8c362d765e2270060405160405180910390a350565b6108148383836001610c33565b505050565b6001600160a01b038381165f908152600160209081526040808320938616835292905220545f19811461088e578181101561088057604051637dc7a0d960e11b81526001600160a01b038416600482015260248101829052604481018390526064016105a8565b61088e84848484035f610c33565b50505050565b6001600160a01b0383166108bd57604051634b637e8f60e11b81525f60048201526024016105a8565b6001600160a01b0382166108e65760405163ec442f0560e01b81525f60048201526024016105a8565b610814838383610d05565b5f306001600160a01b037f00000000000000000000000000000000000000000000000000000000000000001614801561094957507f000000000000000000000000000000000000000000000000000000000000000046145b1561097357507f000000000000000000000000000000000000000000000000000000000000000090565b61049e604080517f8b73c3c69bb8fe3d512ecc4cf759cc79239f7b179b0ffacaa9a75d522b39400f60208201527f0000000000000000000000000000000000000000000000000000000000000000918101919091527f000000000000000000000000000000000000000000000000000000000000000060608201524660808201523060a08201525f9060c00160405160208183030381529060405280519060200120905090565b6008546001600160a01b036101009091041633146104b35760405163118cdaa760e01b81523360048201526024016105a8565b610a55610d10565b6008805460ff191690557f5db9ee0a495bf2e6ff9c91a7834c1ba4fdd244a5e8aa4e537bd38aeae4b073aa335b6040516001600160a01b03909116815260200160405180910390a1565b60085460ff16156104b35760405163d93c066560e01b815260040160405180910390fd5b6001600160a01b038216610aec5760405163ec442f0560e01b81525f60048201526024016105a8565b6105525f8383610d05565b6001600160a01b038216610b2057604051634b637e8f60e11b81525f60048201526024016105a8565b610552825f83610d05565b600980546001600160a01b031916905561056081610d33565b610b4c610a9f565b6008805460ff191660011790557f62e78cea01bee320cd4e420270b5ea74000d11b0c9f74754ebdbfc544b05a258610a823390565b606061049e7f00000000000000000000000000000000000000000000000000000000000000006005610d8c565b606061049e7f00000000000000000000000000000000000000000000000000000000000000006006610d8c565b5f61046c610be76108f1565b8360405161190160f01b8152600281019290925260228201526042902090565b5f5f5f5f610c1788888888610e35565b925092509250610c278282610efd565b50909695505050505050565b6001600160a01b038416610c5c5760405163e602df0560e01b81525f60048201526024016105a8565b6001600160a01b038316610c8557604051634a1406b160e11b81525f60048201526024016105a8565b6001600160a01b038085165f908152600160209081526040808320938716835292905220829055801561088e57826001600160a01b0316846001600160a01b03167f8c5be1e5ebec7d5bd14f71427d1e84f3dd0314c0f7b2291e5b200ac8c7c3b92584604051610cf791815260200190565b60405180910390a350505050565b610814838383610fb5565b60085460ff166104b357604051638dfc202b60e01b815260040160405180910390fd5b600880546001600160a01b03838116610100818102610100600160a81b031985161790945560405193909204169182907f8be0079c531659141344cd1fd0a4f28419497f9722a3daafe3b4186f6b6457e0905f90a35050565b606060ff8314610da657610d9f83611025565b905061046c565b818054610db2906113d7565b80601f0160208091040260200160405190810160405280929190818152602001828054610dde906113d7565b8015610e295780601f10610e0057610100808354040283529160200191610e29565b820191905f5260205f20905b815481529060010190602001808311610e0c57829003601f168201915b5050505050905061046c565b5f80807f7fffffffffffffffffffffffffffffff5d576e7357a4501ddfe92f46681b20a0841115610e6e57505f91506003905082610ef3565b604080515f808252602082018084528a905260ff891692820192909252606081018790526080810186905260019060a0016020604051602081039080840390855afa158015610ebf573d5f5f3e3d5ffd5b5050604051601f1901519150506001600160a01b038116610eea57505f925060019150829050610ef3565b92505f91508190505b9450945094915050565b5f826003811115610f1057610f1061140f565b03610f19575050565b6001826003811115610f2d57610f2d61140f565b03610f4b5760405163f645eedf60e01b815260040160405180910390fd5b6002826003811115610f5f57610f5f61140f565b03610f805760405163fce698f760e01b8152600481018290526024016105a8565b6003826003811115610f9457610f9461140f565b03610552576040516335e2f38360e21b8152600481018290526024016105a8565b610fc0838383611062565b6001600160a01b038316610814576002547f0000000000000000000000000000000000000000000000000000000000000000908181111561101e5760405163279e7e1560e21b815260048101829052602481018390526044016105a8565b5050505050565b60605f61103183611188565b6040805160208082528183019092529192505f91906020820181803683375050509182525060208101929092525090565b6001600160a01b03831661108c578060025f8282546110819190611423565b909155506110fc9050565b6001600160a01b0383165f90815260208190526040902054818110156110de5760405163391434e360e21b81526001600160a01b038516600482015260248101829052604481018390526064016105a8565b6001600160a01b0384165f9081526020819052604090209082900390555b6001600160a01b03821661111857600280548290039055611136565b6001600160a01b0382165f9081526020819052604090208054820190555b816001600160a01b0316836001600160a01b03167fddf252ad1be2c89b69c2b068fc378daa952ba7f163c4a11628f55a4df523b3ef8360405161117b91815260200190565b60405180910390a3505050565b5f60ff8216601f81111561046c57604051632cd44ac360e21b815260040160405180910390fd5b5f81518084528060208401602086015e5f602082860101526020601f19601f83011685010191505092915050565b602081525f6111ef60208301846111af565b9392505050565b80356001600160a01b038116811461120c575f5ffd5b919050565b5f5f60408385031215611222575f5ffd5b61122b836111f6565b946020939093013593505050565b5f5f5f6060848603121561124b575f5ffd5b611254846111f6565b9250611262602085016111f6565b929592945050506040919091013590565b5f60208284031215611283575f5ffd5b5035919050565b5f6020828403121561129a575f5ffd5b6111ef826111f6565b60ff60f81b8816815260e060208201525f6112c160e08301896111af565b82810360408401526112d381896111af565b606084018890526001600160a01b038716608085015260a0840186905283810360c0850152845180825260208087019350909101905f5b8181101561132857835183526020938401939092019160010161130a565b50909b9a5050505050505050505050565b5f5f5f5f5f5f5f60e0888a03121561134f575f5ffd5b611358886111f6565b9650611366602089016111f6565b95506040880135945060608801359350608088013560ff81168114611389575f5ffd5b9699959850939692959460a0840135945060c09093013592915050565b5f5f604083850312156113b7575f5ffd5b6113c0836111f6565b91506113ce602084016111f6565b90509250929050565b600181811c908216806113eb57607f821691505b60208210810361140957634e487b7160e01b5f52602260045260245ffd5b50919050565b634e487b7160e01b5f52602160045260245ffd5b8082018082111561046c57634e487b7160e01b5f52601160045260245ffdfea26469706673582212207097ae752ece293de2c10810645b5bf102203fca1a0d1550ecb971d6f58a3a3664736f6c634300081c0033",
  "language": "Solidity",
  "compiler": "0.8.28+commit.7893614a"
}