{
  "address": "0x315a8319e94eFF8aa5FB11923c32E73Fca00E479",
  "abi": [
    {
      "type": "function",
      "name": "WAVAX_RECEIVER",
      "inputs": [],
      "outputs": [
        {
          "name": "",
          "type": "address",
          "internalType": "address"
        }
      ],
      "stateMutability": "view"
    },
    {
      "type": "function",
      "name": "claimRewardsAndDistribute",
      "inputs": [],
      "outputs": [],
      "stateMutability": "nonpayable"
    },
    {
      "type": "error",
      "name": "SiloIncentivesControllerZeroAddress",
      "inputs": []
    },
    {
      "type": "error",
      "name": "VaultAssetCanNotBeRescued",
      "inputs": []
    },
    {
      "type": "error",
      "name": "VaultIncentivesControllerZeroAddress",
      "inputs": []
    }
  ],
  "bytecode": "0x6080604052348015600e575f5ffd5b506102c08061001c5f395ff3fe608060405234801561000f575f5ffd5b5060043610610034575f3560e01c8063626575ca14610038578063f57a64ae1461006f575b5f5ffd5b61005373e8e8041cb5e3158a0829a19e014ca1cf9109855481565b6040516001600160a01b03909116815260200160405180910390f35b610077610079565b005b5f30905073b31f66aa3c1e785363f0875a1b74e27b85fd66c76001600160a01b0316816001600160a01b03166338d52e0f6040518163ffffffff1660e01b8152600401602060405180830381865afa1580156100d7573d5f5f3e3d5ffd5b505050506040513d601f19601f820116820180604052508101906100fb9190610227565b6001600160a01b03160361010c5750565b6040516370a0823160e01b81526001600160a01b03821660048201525f9073b31f66aa3c1e785363f0875a1b74e27b85fd66c7906370a0823190602401602060405180830381865afa158015610164573d5f5f3e3d5ffd5b505050506040513d601f19601f820116820180604052508101906101889190610254565b9050805f03610195575050565b60405163a9059cbb60e01b815273e8e8041cb5e3158a0829a19e014ca1cf9109855460048201526024810182905273b31f66aa3c1e785363f0875a1b74e27b85fd66c79063a9059cbb906044016020604051808303815f875af192505050801561021c575060408051601f3d908101601f191682019092526102199181019061026b565b60015b1561022357505b5050565b5f60208284031215610237575f5ffd5b81516001600160a01b038116811461024d575f5ffd5b9392505050565b5f60208284031215610264575f5ffd5b5051919050565b5f6020828403121561027b575f5ffd5b8151801515811461024d575f5ffdfea264697066735822122043f6a29fb49221ea4e51cdcb214ebec65c39c32b6eb3468c5f8994635e8e393c64736f6c634300081c0033",
  "language": "Solidity",
  "compiler": "0.8.28+commit.7893614a"
}