{
  "address": "0x29752e1bbD2d67992a4A28900B4122FF99Ad4FCa",
  "abi": [
    {
      "inputs": [
        {
          "internalType": "contract ISilo",
          "name": "_silo",
          "type": "address"
        },
        {
          "internalType": "address",
          "name": "_borrower",
          "type": "address"
        }
      ],
      "name": "borrowShare",
      "outputs": [
        {
          "internalType": "uint256",
          "name": "",
          "type": "uint256"
        }
      ],
      "stateMutability": "view",
      "type": "function"
    },
    {
      "inputs": [
        {
          "internalType": "contract ISiloConfig",
          "name": "_siloConfig",
          "type": "address"
        },
        {
          "internalType": "address",
          "name": "_borrower",
          "type": "address"
        }
      ],
      "name": "calculateBorrowValue",
      "outputs": [
        {
          "internalType": "uint256",
          "name": "borrowValue",
          "type": "uint256"
        }
      ],
      "stateMutability": "view",
      "type": "function"
    },
    {
      "inputs": [
        {
          "internalType": "contract ISiloConfig",
          "name": "_siloConfig",
          "type": "address"
        },
        {
          "internalType": "address",
          "name": "_borrower",
          "type": "address"
        }
      ],
      "name": "calculateCollateralValue",
      "outputs": [
        {
          "internalType": "uint256",
          "name": "collateralValue",
          "type": "uint256"
        }
      ],
      "stateMutability": "view",
      "type": "function"
    },
    {
      "inputs": [
        {
          "internalType": "contract ISilo",
          "name": "_silo",
          "type": "address"
        },
        {
          "internalType": "address",
          "name": "_borrower",
          "type": "address"
        }
      ],
      "name": "collateralBalanceOfUnderlying",
      "outputs": [
        {
          "internalType": "uint256",
          "name": "borrowerCollateral",
          "type": "uint256"
        }
      ],
      "stateMutability": "view",
      "type": "function"
    },
    {
      "inputs": [
        {
          "internalType": "contract ISilo",
          "name": "_silo",
          "type": "address"
        }
      ],
      "name": "collateralOnlyDeposits",
      "outputs": [
        {
          "internalType": "uint256",
          "name": "",
          "type": "uint256"
        }
      ],
      "stateMutability": "view",
      "type": "function"
    },
    {
      "inputs": [
        {
          "internalType": "contract ISilo",
          "name": "_silo",
          "type": "address"
        },
        {
          "internalType": "address",
          "name": "_borrower",
          "type": "address"
        }
      ],
      "name": "debtBalanceOfUnderlying",
      "outputs": [
        {
          "internalType": "uint256",
          "name": "",
          "type": "uint256"
        }
      ],
      "stateMutability": "view",
      "type": "function"
    },
    {
      "inputs": [
        {
          "internalType": "contract ISilo[]",
          "name": "_silos",
          "type": "address[]"
        }
      ],
      "name": "getAPRs",
      "outputs": [
        {
          "components": [
            {
              "internalType": "uint256",
              "name": "depositAPR",
              "type": "uint256"
            },
            {
              "internalType": "uint256",
              "name": "borrowAPR",
              "type": "uint256"
            }
          ],
          "internalType": "struct ISiloLens.APR[]",
          "name": "aprs",
          "type": "tuple[]"
        }
      ],
      "stateMutability": "view",
      "type": "function"
    },
    {
      "inputs": [
        {
          "internalType": "contract ISilo",
          "name": "_silo",
          "type": "address"
        }
      ],
      "name": "getBorrowAPR",
      "outputs": [
        {
          "internalType": "uint256",
          "name": "borrowAPR",
          "type": "uint256"
        }
      ],
      "stateMutability": "view",
      "type": "function"
    },
    {
      "inputs": [
        {
          "internalType": "contract ISilo",
          "name": "_silo",
          "type": "address"
        },
        {
          "internalType": "address",
          "name": "_borrower",
          "type": "address"
        }
      ],
      "name": "getBorrowAmount",
      "outputs": [
        {
          "internalType": "uint256",
          "name": "maxRepay",
          "type": "uint256"
        }
      ],
      "stateMutability": "view",
      "type": "function"
    },
    {
      "inputs": [
        {
          "internalType": "contract ISilo",
          "name": "_silo",
          "type": "address"
        }
      ],
      "name": "getDepositAPR",
      "outputs": [
        {
          "internalType": "uint256",
          "name": "depositAPR",
          "type": "uint256"
        }
      ],
      "stateMutability": "view",
      "type": "function"
    },
    {
      "inputs": [
        {
          "internalType": "contract ISilo",
          "name": "_silo",
          "type": "address"
        },
        {
          "internalType": "address",
          "name": "_borrower",
          "type": "address"
        }
      ],
      "name": "getDepositAmount",
      "outputs": [
        {
          "internalType": "uint256",
          "name": "borrowerDeposits",
          "type": "uint256"
        }
      ],
      "stateMutability": "view",
      "type": "function"
    },
    {
      "inputs": [
        {
          "internalType": "contract ISilo",
          "name": "_silo",
          "type": "address"
        }
      ],
      "name": "getFeesAndFeeReceivers",
      "outputs": [
        {
          "internalType": "address",
          "name": "daoFeeReceiver",
          "type": "address"
        },
        {
          "internalType": "address",
          "name": "deployerFeeReceiver",
          "type": "address"
        },
        {
          "internalType": "uint256",
          "name": "daoFee",
          "type": "uint256"
        },
        {
          "internalType": "uint256",
          "name": "deployerFee",
          "type": "uint256"
        }
      ],
      "stateMutability": "view",
      "type": "function"
    },
    {
      "inputs": [
        {
          "internalType": "contract ISilo",
          "name": "_silo",
          "type": "address"
        }
      ],
      "name": "getInterestRateModel",
      "outputs": [
        {
          "internalType": "address",
          "name": "irm",
          "type": "address"
        }
      ],
      "stateMutability": "view",
      "type": "function"
    },
    {
      "inputs": [
        {
          "internalType": "contract ISilo",
          "name": "_silo",
          "type": "address"
        }
      ],
      "name": "getLt",
      "outputs": [
        {
          "internalType": "uint256",
          "name": "lt",
          "type": "uint256"
        }
      ],
      "stateMutability": "view",
      "type": "function"
    },
    {
      "inputs": [
        {
          "internalType": "contract ISilo",
          "name": "_silo",
          "type": "address"
        },
        {
          "internalType": "address",
          "name": "_borrower",
          "type": "address"
        }
      ],
      "name": "getLtv",
      "outputs": [
        {
          "internalType": "uint256",
          "name": "ltv",
          "type": "uint256"
        }
      ],
      "stateMutability": "view",
      "type": "function"
    },
    {
      "inputs": [
        {
          "internalType": "contract ISilo",
          "name": "_silo",
          "type": "address"
        }
      ],
      "name": "getMaxLtv",
      "outputs": [
        {
          "internalType": "uint256",
          "name": "maxLtv",
          "type": "uint256"
        }
      ],
      "stateMutability": "view",
      "type": "function"
    },
    {
      "inputs": [
        {
          "internalType": "contract ISilo",
          "name": "_silo",
          "type": "address"
        }
      ],
      "name": "getModel",
      "outputs": [
        {
          "internalType": "contract IInterestRateModel",
          "name": "irm",
          "type": "address"
        }
      ],
      "stateMutability": "view",
      "type": "function"
    },
    {
      "inputs": [
        {
          "internalType": "contract ISilo",
          "name": "_silo",
          "type": "address"
        }
      ],
      "name": "getRawLiquidity",
      "outputs": [
        {
          "internalType": "uint256",
          "name": "liquidity",
          "type": "uint256"
        }
      ],
      "stateMutability": "view",
      "type": "function"
    },
    {
      "inputs": [
        {
          "internalType": "address",
          "name": "_siloIncentivesController",
          "type": "address"
        }
      ],
      "name": "getSiloIncentivesControllerProgramsNames",
      "outputs": [
        {
          "internalType": "string[]",
          "name": "programsNames",
          "type": "string[]"
        }
      ],
      "stateMutability": "view",
      "type": "function"
    },
    {
      "inputs": [
        {
          "internalType": "contract ISilo",
          "name": "_silo",
          "type": "address"
        },
        {
          "internalType": "address",
          "name": "_borrower",
          "type": "address"
        }
      ],
      "name": "getUserLT",
      "outputs": [
        {
          "internalType": "uint256",
          "name": "userLT",
          "type": "uint256"
        }
      ],
      "stateMutability": "view",
      "type": "function"
    },
    {
      "inputs": [
        {
          "internalType": "contract ISilo",
          "name": "_silo",
          "type": "address"
        },
        {
          "internalType": "address",
          "name": "_borrower",
          "type": "address"
        }
      ],
      "name": "getUserLTV",
      "outputs": [
        {
          "internalType": "uint256",
          "name": "userLTV",
          "type": "uint256"
        }
      ],
      "stateMutability": "view",
      "type": "function"
    },
    {
      "inputs": [
        {
          "components": [
            {
              "internalType": "contract ISilo",
              "name": "silo",
              "type": "address"
            },
            {
              "internalType": "address",
              "name": "wallet",
              "type": "address"
            }
          ],
          "internalType": "struct ISiloLens.Borrower[]",
          "name": "_borrowers",
          "type": "tuple[]"
        }
      ],
      "name": "getUsersHealth",
      "outputs": [
        {
          "components": [
            {
              "internalType": "uint256",
              "name": "lt",
              "type": "uint256"
            },
            {
              "internalType": "uint256",
              "name": "ltv",
              "type": "uint256"
            }
          ],
          "internalType": "struct ISiloLens.BorrowerHealth[]",
          "name": "healths",
          "type": "tuple[]"
        }
      ],
      "stateMutability": "view",
      "type": "function"
    },
    {
      "inputs": [
        {
          "components": [
            {
              "internalType": "contract ISilo",
              "name": "silo",
              "type": "address"
            },
            {
              "internalType": "address",
              "name": "wallet",
              "type": "address"
            }
          ],
          "internalType": "struct ISiloLens.Borrower[]",
          "name": "_borrowers",
          "type": "tuple[]"
        }
      ],
      "name": "getUsersLT",
      "outputs": [
        {
          "internalType": "uint256[]",
          "name": "usersLTs",
          "type": "uint256[]"
        }
      ],
      "stateMutability": "view",
      "type": "function"
    },
    {
      "inputs": [
        {
          "internalType": "contract ISilo",
          "name": "_silo",
          "type": "address"
        }
      ],
      "name": "getUtilization",
      "outputs": [
        {
          "internalType": "uint256",
          "name": "",
          "type": "uint256"
        }
      ],
      "stateMutability": "view",
      "type": "function"
    },
    {
      "inputs": [
        {
          "internalType": "contract ISiloConfig",
          "name": "_siloConfig",
          "type": "address"
        },
        {
          "internalType": "address",
          "name": "_borrower",
          "type": "address"
        }
      ],
      "name": "hasPosition",
      "outputs": [
        {
          "internalType": "bool",
          "name": "has",
          "type": "bool"
        }
      ],
      "stateMutability": "view",
      "type": "function"
    },
    {
      "inputs": [
        {
          "internalType": "contract ISiloConfig",
          "name": "_siloConfig",
          "type": "address"
        },
        {
          "internalType": "address",
          "name": "_borrower",
          "type": "address"
        }
      ],
      "name": "inDebt",
      "outputs": [
        {
          "internalType": "bool",
          "name": "hasDebt",
          "type": "bool"
        }
      ],
      "stateMutability": "view",
      "type": "function"
    },
    {
      "inputs": [
        {
          "internalType": "contract ISilo",
          "name": "_silo",
          "type": "address"
        },
        {
          "internalType": "address",
          "name": "_borrower",
          "type": "address"
        }
      ],
      "name": "isSolvent",
      "outputs": [
        {
          "internalType": "bool",
          "name": "",
          "type": "bool"
        }
      ],
      "stateMutability": "view",
      "type": "function"
    },
    {
      "inputs": [
        {
          "internalType": "contract ISilo",
          "name": "_silo",
          "type": "address"
        }
      ],
      "name": "liquidity",
      "outputs": [
        {
          "internalType": "uint256",
          "name": "",
          "type": "uint256"
        }
      ],
      "stateMutability": "view",
      "type": "function"
    },
    {
      "inputs": [
        {
          "internalType": "contract ISilo",
          "name": "_silo",
          "type": "address"
        },
        {
          "internalType": "contract IPartialLiquidation",
          "name": "_hook",
          "type": "address"
        },
        {
          "internalType": "address",
          "name": "_borrower",
          "type": "address"
        }
      ],
      "name": "maxLiquidation",
      "outputs": [
        {
          "internalType": "uint256",
          "name": "collateralToLiquidate",
          "type": "uint256"
        },
        {
          "internalType": "uint256",
          "name": "debtToRepay",
          "type": "uint256"
        },
        {
          "internalType": "bool",
          "name": "sTokenRequired",
          "type": "bool"
        },
        {
          "internalType": "bool",
          "name": "fullLiquidation",
          "type": "bool"
        }
      ],
      "stateMutability": "view",
      "type": "function"
    },
    {
      "inputs": [
        {
          "internalType": "contract ISilo",
          "name": "_silo",
          "type": "address"
        }
      ],
      "name": "protocolFees",
      "outputs": [
        {
          "internalType": "uint256",
          "name": "daoAndDeployerRevenue",
          "type": "uint256"
        }
      ],
      "stateMutability": "view",
      "type": "function"
    },
    {
      "inputs": [
        {
          "internalType": "contract ISilo",
          "name": "_silo",
          "type": "address"
        }
      ],
      "name": "totalBorrowAmount",
      "outputs": [
        {
          "internalType": "uint256",
          "name": "",
          "type": "uint256"
        }
      ],
      "stateMutability": "view",
      "type": "function"
    },
    {
      "inputs": [
        {
          "internalType": "contract ISilo",
          "name": "_silo",
          "type": "address"
        }
      ],
      "name": "totalBorrowAmountWithInterest",
      "outputs": [
        {
          "internalType": "uint256",
          "name": "amount",
          "type": "uint256"
        }
      ],
      "stateMutability": "view",
      "type": "function"
    },
    {
      "inputs": [
        {
          "internalType": "contract ISilo",
          "name": "_silo",
          "type": "address"
        }
      ],
      "name": "totalBorrowShare",
      "outputs": [
        {
          "internalType": "uint256",
          "name": "",
          "type": "uint256"
        }
      ],
      "stateMutability": "view",
      "type": "function"
    },
    {
      "inputs": [
        {
          "internalType": "contract ISilo",
          "name": "_silo",
          "type": "address"
        }
      ],
      "name": "totalDeposits",
      "outputs": [
        {
          "internalType": "uint256",
          "name": "totalDeposits",
          "type": "uint256"
        }
      ],
      "stateMutability": "view",
      "type": "function"
    },
    {
      "inputs": [
        {
          "internalType": "contract ISilo",
          "name": "_silo",
          "type": "address"
        }
      ],
      "name": "totalDepositsWithInterest",
      "outputs": [
        {
          "internalType": "uint256",
          "name": "amount",
          "type": "uint256"
        }
      ],
      "stateMutability": "view",
      "type": "function"
    },
    {
      "inputs": [],
      "name": "InvalidAsset",
      "type": "error"
    },
    {
      "inputs": [
        {
          "internalType": "uint256",
          "name": "value",
          "type": "uint256"
        },
        {
          "internalType": "uint256",
          "name": "length",
          "type": "uint256"
        }
      ],
      "name": "StringsInsufficientHexLength",
      "type": "error"
    }
  ],
  "bytecode": "0x6080604052348015600e575f5ffd5b50613ca48061001c5f395ff3fe608060405234801561000f575f5ffd5b5060043610610207575f3560e01c8063868682cb1161011f578063d9bd0ea2116100a9578063e940325611610079578063e9403256146104f4578063f2a07bc914610507578063f45b1b3a1461051a578063f5125d3f146102f1578063fdce86431461052d575f5ffd5b8063d9bd0ea2146102de578063dcf844a7146104bb578063dd718ab4146104ce578063e2187218146104e1575f5ffd5b80639bbafd53116100ef5780639bbafd5314610427578063aab2353a1461043a578063b1696c6e14610475578063b1ff4d6c14610495578063b8c876b1146104a8575f5ffd5b8063868682cb146103ce5780638705c359146103e15780638ec109da146103f45780639848b19c14610407575f5ffd5b806343afdad2116101a0578063590630f011610170578063590630f0146103625780635d1e7c2f14610375578063647e0c20146103955780636c15c9ba146103a857806374cd15f3146103bb575f5ffd5b806343afdad2146102f1578063480defa9146103045780634f6a57b61461032457806354a0577114610337575f5ffd5b806324bc00b0116101db57806324bc00b01461029557806336e49658146102b857806337febff4146102cb57806338bad5e5146102de575f5ffd5b8062e0f7a01461020b57806306b39a77146102315780631fe0226914610244578063249a649614610257575b5f5ffd5b61021e6102193660046131ce565b610540565b6040519081526020015b60405180910390f35b61021e61023f3660046131ce565b610550565b61021e6102523660046131e9565b6105b1565b61026a6102653660046131ce565b6105c3565b604080516001600160a01b039586168152949093166020850152918301526060820152608001610228565b6102a86102a33660046131e9565b6105e0565b6040519015158152602001610228565b61021e6102c63660046131ce565b6105eb565b61021e6102d93660046131ce565b610635565b61021e6102ec3660046131e9565b61063f565b61021e6102ff3660046131e9565b6106ab565b610317610312366004613220565b6106b6565b604051610228919061328f565b61021e6103323660046131ce565b610792565b61034a6103453660046131ce565b61079c565b6040516001600160a01b039091168152602001610228565b6102a86103703660046131e9565b6107a6565b6103886103833660046132e6565b610811565b6040516102289190613345565b61021e6103a33660046131ce565b6108f1565b61021e6103b63660046131e9565b6108fb565b61021e6103c93660046131ce565b610906565b61021e6103dc3660046131e9565b610943565b6102a86103ef3660046131e9565b6109a3565b61021e6104023660046131e9565b6109ae565b61041a610415366004613220565b6109c1565b6040516102289190613391565b61021e6104353660046131ce565b610a73565b61044d6104483660046133c8565b610aa1565b6040805194855260208501939093529015159183019190915215156060820152608001610228565b6104886104833660046131ce565b610b94565b6040516102289190613410565b61021e6104a33660046131ce565b610d08565b61021e6104b63660046131ce565b610d12565b61021e6104c93660046131ce565b610d4f565b61021e6104dc3660046131e9565b610dc5565b61034a6104ef3660046131ce565b610dd8565b61021e6105023660046131ce565b610eaf565b61021e6105153660046131ce565b610ede565b61021e6105283660046131e9565b610ee8565b61021e61053b3660046131ce565b610f79565b5f61054a8261100f565b92915050565b5f816001600160a01b03166301e1d1146040518163ffffffff1660e01b8152600401602060405180830381865afa15801561058d573d5f5f3e3d5ffd5b505050506040513d601f19601f8201168201806040525081019061054a9190613494565b5f6105bc838361112f565b9392505050565b5f5f5f5f6105d085611226565b5092989197509550909350915050565b5f6105bc83836113da565b60405163b6d821c760e01b81525f906001600160a01b0383169063b6d821c79061061a906002906004016134bf565b602060405180830381865afa15801561058d573d5f5f3e3d5ffd5b5f61054a82611829565b604051635f30114960e01b81526001600160a01b0382811660048301525f9190841690635f301149906024015b602060405180830381865afa158015610687573d5f5f3e3d5ffd5b505050506040513d601f19601f820116820180604052508101906105bc9190613494565b5f6105bc8383611900565b6060816001600160401b038111156106d0576106d06134d9565b60405190808252806020026020018201604052801561071457816020015b604080518082019091525f80825260208201528152602001906001900390816106ee5790505b5090505f5b8281101561078b575f848483818110610734576107346134ed565b90506040020180360381019061074a919061355a565b90505f83838151811061075f5761075f6134ed565b6020026020010151905061077a825f01518360200151611a7b565b825260209091015250600101610719565b5092915050565b5f61054a82611bbe565b5f61054a82610dd8565b6040516338b51ce160e01b81526001600160a01b0382811660048301525f91908416906338b51ce190602401602060405180830381865afa1580156107ed573d5f5f3e3d5ffd5b505050506040513d601f19601f820116820180604052508101906105bc91906135cc565b6060816001600160401b0381111561082b5761082b6134d9565b60405190808252806020026020018201604052801561086f57816020015b604080518082019091525f80825260208201528152602001906001900390816108495790505b5090505f5b8281101561078b575f84848381811061088f5761088f6134ed565b90506020020160208101906108a491906131ce565b905060405180604001604052806108ba83611bbe565b81526020016108c88361100f565b8152508383815181106108dd576108dd6134ed565b602090810291909101015250600101610874565b5f61054a82611db9565b5f6105bc8383611e90565b5f816001600160a01b031663ecd658b46040518163ffffffff1660e01b8152600401602060405180830381865afa15801561058d573d5f5f3e3d5ffd5b60405163c99ee7b760e01b81526001600160a01b038084166004830152821660248201525f9073__$89d37a64e3ccc21ed0741d2ae8390c2e12$__9063c99ee7b790604401602060405180830381865af4158015610687573d5f5f3e3d5ffd5b5f6105bc838361213e565b5f6109b9838361223e565b949350505050565b6060816001600160401b038111156109db576109db6134d9565b604051908082528060200260200182016040528015610a04578160200160208202803683370190505b5090505f5b8281101561078b575f848483818110610a2457610a246134ed565b905060400201803603810190610a3a919061355a565b9050610a4d815f0151826020015161112f565b838381518110610a5f57610a5f6134ed565b602090810291909101015250600101610a09565b60405163b6d821c760e01b81525f906001600160a01b0383169063b6d821c79061061a9084906004016134bf565b6040516317a05b0960e31b81526001600160a01b0382811660048301525f9182918291829187169063bd02d84890602401606060405180830381865afa158015610aed573d5f5f3e3d5ffd5b505050506040513d601f19601f82011682018060405250810190610b1191906135e5565b604051635f30114960e01b81526001600160a01b03898116600483015293975091955093505f91891690635f30114990602401602060405180830381865afa158015610b5f573d5f5f3e3d5ffd5b505050506040513d601f19601f82011682018060405250810190610b839190613494565b905083811491505093509350935093565b60605f8290505f816001600160a01b031663fb71aec56040518163ffffffff1660e01b81526004015f60405180830381865afa158015610bd6573d5f5f3e3d5ffd5b505050506040513d5f823e601f3d908101601f19168201604052610bfd9190810190613618565b905080516001600160401b03811115610c1857610c186134d9565b604051908082528060200260200182016040528015610c4b57816020015b6060815260200190600190039081610c365790505b5092505f5b8151811015610d00575f828281518110610c6c57610c6c6134ed565b60200260200101519050610c7f8161237b565b15610cbf575f610c8e8261373c565b60601c9050610c9c81612404565b868481518110610cae57610cae6134ed565b602002602001018190525050610cf7565b828281518110610cd157610cd16134ed565b6020026020010151858381518110610ceb57610ceb6134ed565b60200260200101819052505b50600101610c50565b505050919050565b5f61054a8261241a565b5f816001600160a01b0316630910a5106040518163ffffffff1660e01b8152600401602060405180830381865afa15801561058d573d5f5f3e3d5ffd5b5f816001600160a01b0316639d35abaf6040518163ffffffff1660e01b815260040160a060405180830381865afa158015610d8c573d5f5f3e3d5ffd5b505050506040513d601f19601f82011682018060405250810190610db091906137a5565b50506001600160c01b03909216949350505050565b5f610dd0838361223e565b509392505050565b5f816001600160a01b03166379502c556040518163ffffffff1660e01b8152600401602060405180830381865afa158015610e15573d5f5f3e3d5ffd5b505050506040513d601f19601f82011682018060405250810190610e3991906137fc565b60405163e48a5f7b60e01b81526001600160a01b038481166004830152919091169063e48a5f7b9060240161022060405180830381865afa158015610e80573d5f5f3e3d5ffd5b505050506040513d601f19601f82011682018060405250810190610ea4919061393a565b610120015192915050565b60405163b6d821c760e01b81525f906001600160a01b0383169063b6d821c79061061a906001906004016134bf565b5f61054a82612526565b6040516370a0823160e01b81526001600160a01b0382811660048301525f9190841690634cdad5069082906370a0823190602401602060405180830381865afa158015610f37573d5f5f3e3d5ffd5b505050506040513d601f19601f82011682018060405250810190610f5b9190613494565b6040518263ffffffff1660e01b815260040161066c91815260200190565b5f5f826001600160a01b0316639ef2fda06040518163ffffffff1660e01b8152600401606060405180830381865afa158015610fb7573d5f5f3e3d5ffd5b505050506040513d601f19601f82011682018060405250810190610fdb9190613955565b8051909150156110095780516020820151610fff90670de0b6b3a7640000906139c7565b6105bc91906139f2565b50919050565b5f5f826001600160a01b03166379502c556040518163ffffffff1660e01b8152600401602060405180830381865afa15801561104d573d5f5f3e3d5ffd5b505050506040513d601f19601f8201168201806040525081019061107191906137fc565b60405163e48a5f7b60e01b81526001600160a01b038581166004830152919091169063e48a5f7b9060240161022060405180830381865afa1580156110b8573d5f5f3e3d5ffd5b505050506040513d601f19601f820116820180604052508101906110dc919061393a565b61012001516040516364efe17760e01b81526001600160a01b038581166004830152426024830152919250908216906364efe17790604401602060405180830381865afa158015610687573d5f5f3e3d5ffd5b5f5f5f846001600160a01b03166379502c556040518163ffffffff1660e01b8152600401602060405180830381865afa15801561116e573d5f5f3e3d5ffd5b505050506040513d601f19601f8201168201806040525081019061119291906137fc565b6040516394c0527d60e01b81526001600160a01b03868116600483015291909116906394c0527d9060240161044060405180830381865afa1580156111d9573d5f5f3e3d5ffd5b505050506040513d601f19601f820116820180604052508101906111fd9190613a05565b604081015191935091506001600160a01b03161561121e5781610160015192505b505092915050565b5f5f5f5f5f856001600160a01b03166379502c556040518163ffffffff1660e01b8152600401602060405180830381865afa158015611267573d5f5f3e3d5ffd5b505050506040513d601f19601f8201168201806040525081019061128b91906137fc565b604051630509af0560e51b81526001600160a01b038881166004830152919091169063a135e0a090602401608060405180830381865afa1580156112d1573d5f5f3e3d5ffd5b505050506040513d601f19601f820116820180604052508101906112f59190613a3a565b9050809350819450829550505050856001600160a01b031663c45a01556040518163ffffffff1660e01b8152600401602060405180830381865afa15801561133f573d5f5f3e3d5ffd5b505050506040513d601f19601f8201168201806040525081019061136391906137fc565b604051630c0d053960e11b81526001600160a01b038881166004830152919091169063181a0a72906024016040805180830381865afa1580156113a8573d5f5f3e3d5ffd5b505050506040513d601f19601f820116820180604052508101906113cc9190613a7a565b909790965092945090925090565b5f5f5f846001600160a01b031663aecc90cb6040518163ffffffff1660e01b81526004016040805180830381865afa158015611418573d5f5f3e3d5ffd5b505050506040513d601f19601f8201168201806040525081019061143c9190613a7a565b60405163e48a5f7b60e01b81526001600160a01b0380841660048301529294509092505f9187169063e48a5f7b9060240161022060405180830381865afa158015611489573d5f5f3e3d5ffd5b505050506040513d601f19601f820116820180604052508101906114ad919061393a565b60405163e48a5f7b60e01b81526001600160a01b0384811660048301529192505f9188169063e48a5f7b9060240161022060405180830381865afa1580156114f7573d5f5f3e3d5ffd5b505050506040513d601f19601f8201168201806040525081019061151b919061393a565b60a08301516040516370a0823160e01b81526001600160a01b0389811660048301529293509116906370a0823190602401602060405180830381865afa158015611567573d5f5f3e3d5ffd5b505050506040513d601f19601f8201168201806040525081019061158b9190613494565b1561159d57600194505050505061054a565b60808201516040516370a0823160e01b81526001600160a01b038881166004830152909116906370a0823190602401602060405180830381865afa1580156115e7573d5f5f3e3d5ffd5b505050506040513d601f19601f8201168201806040525081019061160b9190613494565b1561161d57600194505050505061054a565b60a08101516040516370a0823160e01b81526001600160a01b038881166004830152909116906370a0823190602401602060405180830381865afa158015611667573d5f5f3e3d5ffd5b505050506040513d601f19601f8201168201806040525081019061168b9190613494565b1561169d57600194505050505061054a565b60808101516040516370a0823160e01b81526001600160a01b038881166004830152909116906370a0823190602401602060405180830381865afa1580156116e7573d5f5f3e3d5ffd5b505050506040513d601f19601f8201168201806040525081019061170b9190613494565b1561171d57600194505050505061054a565b60c08201516040516370a0823160e01b81526001600160a01b038881166004830152909116906370a0823190602401602060405180830381865afa158015611767573d5f5f3e3d5ffd5b505050506040513d601f19601f8201168201806040525081019061178b9190613494565b1561179d57600194505050505061054a565b60c08101516040516370a0823160e01b81526001600160a01b038881166004830152909116906370a0823190602401602060405180830381865afa1580156117e7573d5f5f3e3d5ffd5b505050506040513d601f19601f8201168201806040525081019061180b9190613494565b1561181d57600194505050505061054a565b505f9695505050505050565b5f816001600160a01b03166379502c556040518163ffffffff1660e01b8152600401602060405180830381865afa158015611866573d5f5f3e3d5ffd5b505050506040513d601f19601f8201168201806040525081019061188a91906137fc565b60405163e48a5f7b60e01b81526001600160a01b038481166004830152919091169063e48a5f7b9060240161022060405180830381865afa1580156118d1573d5f5f3e3d5ffd5b505050506040513d601f19601f820116820180604052508101906118f5919061393a565b610160015192915050565b5f5f5f846001600160a01b03166379502c556040518163ffffffff1660e01b8152600401602060405180830381865afa15801561193f573d5f5f3e3d5ffd5b505050506040513d601f19601f8201168201806040525081019061196391906137fc565b6040516394c0527d60e01b81526001600160a01b03868116600483015291909116906394c0527d9060240161044060405180830381865afa1580156119aa573d5f5f3e3d5ffd5b505050506040513d601f19601f820116820180604052508101906119ce9190613a05565b604081015191935091506001600160a01b03161561121e57611a728282865f60018660c001516001600160a01b03166370a082318b6040518263ffffffff1660e01b8152600401611a2e91906001600160a01b0391909116815260200190565b602060405180830381865afa158015611a49573d5f5f3e3d5ffd5b505050506040513d601f19601f82011682018060405250810190611a6d9190613494565b612607565b95945050505050565b5f5f5f5f856001600160a01b03166379502c556040518163ffffffff1660e01b8152600401602060405180830381865afa158015611abb573d5f5f3e3d5ffd5b505050506040513d601f19601f82011682018060405250810190611adf91906137fc565b6040516394c0527d60e01b81526001600160a01b03878116600483015291909116906394c0527d9060240161044060405180830381865afa158015611b26573d5f5f3e3d5ffd5b505050506040513d601f19601f82011682018060405250810190611b4a9190613a05565b604081015191935091506001600160a01b031615611bb557611baa8282875f60018660c001516001600160a01b03166370a082318c6040518263ffffffff1660e01b8152600401611a2e91906001600160a01b0391909116815260200190565b935081610160015192505b50509250929050565b5f5f826001600160a01b031663a1ff9bee6040518163ffffffff1660e01b8152600401602060405180830381865afa158015611bfc573d5f5f3e3d5ffd5b505050506040513d601f19601f82011682018060405250810190611c209190613494565b9050805f03611c3157505f92915050565b5f836001600160a01b03166379502c556040518163ffffffff1660e01b8152600401602060405180830381865afa158015611c6e573d5f5f3e3d5ffd5b505050506040513d601f19601f82011682018060405250810190611c9291906137fc565b60405163e48a5f7b60e01b81526001600160a01b038681166004830152919091169063e48a5f7b9060240161022060405180830381865afa158015611cd9573d5f5f3e3d5ffd5b505050506040513d601f19601f82011682018060405250810190611cfd919061393a565b905081846001600160a01b031663ecd658b46040518163ffffffff1660e01b8152600401602060405180830381865afa158015611d3c573d5f5f3e3d5ffd5b505050506040513d601f19601f82011682018060405250810190611d609190613494565b611d698661100f565b611d7391906139c7565b611d7d91906139f2565b60208201518251919450670de0b6b3a764000091611d9b9083613aa7565b611da59190613aa7565b611daf90856139c7565b6109b991906139f2565b5f816001600160a01b03166379502c556040518163ffffffff1660e01b8152600401602060405180830381865afa158015611df6573d5f5f3e3d5ffd5b505050506040513d601f19601f82011682018060405250810190611e1a91906137fc565b60405163e48a5f7b60e01b81526001600160a01b038481166004830152919091169063e48a5f7b9060240161022060405180830381865afa158015611e61573d5f5f3e3d5ffd5b505050506040513d601f19601f82011682018060405250810190611e85919061393a565b610140015192915050565b5f5f5f846001600160a01b03166379502c556040518163ffffffff1660e01b8152600401602060405180830381865afa158015611ecf573d5f5f3e3d5ffd5b505050506040513d601f19601f82011682018060405250810190611ef391906137fc565b604051630483b24f60e41b81526001600160a01b038781166004830152919091169063483b24f090602401606060405180830381865afa158015611f39573d5f5f3e3d5ffd5b505050506040513d601f19601f82011682018060405250810190611f5d9190613aba565b506040516370a0823160e01b81526001600160a01b0387811660048301529294509092505f918416906370a0823190602401602060405180830381865afa158015611faa573d5f5f3e3d5ffd5b505050506040513d601f19601f82011682018060405250810190611fce9190613494565b6040516370a0823160e01b81526001600160a01b0387811660048301529192505f918416906370a0823190602401602060405180830381865afa158015612017573d5f5f3e3d5ffd5b505050506040513d601f19601f8201168201806040525081019061203b9190613494565b905081156120b35760405163a7d6e44b60e01b81526001600160a01b0388169063a7d6e44b906120719085905f90600401613af9565b602060405180830381865afa15801561208c573d5f5f3e3d5ffd5b505050506040513d601f19601f820116820180604052508101906120b09190613494565b94505b80156121345760405163a7d6e44b60e01b81526001600160a01b0388169063a7d6e44b906120e8908490600190600401613af9565b602060405180830381865afa158015612103573d5f5f3e3d5ffd5b505050506040513d601f19601f820116820180604052508101906121279190613494565b6121319086613b1d565b94505b5050505092915050565b6040516394c0527d60e01b81526001600160a01b0382811660048301525f9182918516906394c0527d9060240161044060405180830381865afa158015612187573d5f5f3e3d5ffd5b505050506040513d601f19601f820116820180604052508101906121ab9190613a05565b60c08101519092506001600160a01b031615801591506109b9575060c08101516040516370a0823160e01b81526001600160a01b038581166004830152909116906370a0823190602401602060405180830381865afa158015612210573d5f5f3e3d5ffd5b505050506040513d601f19601f820116820180604052508101906122349190613494565b1515949350505050565b6040516394c0527d60e01b81526001600160a01b0382811660048301525f918291829182918716906394c0527d9060240161044060405180830381865afa15801561228b573d5f5f3e3d5ffd5b505050506040513d601f19601f820116820180604052508101906122af9190613a05565b606082015191935091506001600160a01b03166122d3575f5f935093505050612374565b60c08101516040516370a0823160e01b81526001600160a01b0380881660048301525f9261235592869286928b92879260019216906370a0823190602401602060405180830381865afa15801561232c573d5f5f3e3d5ffd5b505050506040513d601f19601f820116820180604052508101906123509190613494565b61265e565b905061236a81846060015184606001516128db565b5090955093505050505b9250929050565b5f815160141461238c57505f919050565b5f6123968361373c565b6040516370a0823160e01b815230600482015260609190911c915081906370a0823190602401602060405180830381865afa9250505080156123f5575060408051601f3d908101601f191682019092526123f291810190613494565b60015b15611009575060019392505050565b606061054a6001600160a01b0383166014612931565b5f5f826001600160a01b03166379502c556040518163ffffffff1660e01b8152600401602060405180830381865afa158015612458573d5f5f3e3d5ffd5b505050506040513d601f19601f8201168201806040525081019061247c91906137fc565b604051630483b24f60e41b81526001600160a01b038581166004830152919091169063483b24f090602401606060405180830381865afa1580156124c2573d5f5f3e3d5ffd5b505050506040513d601f19601f820116820180604052508101906124e69190613aba565b92505050806001600160a01b03166318160ddd6040518163ffffffff1660e01b8152600401602060405180830381865afa158015610687573d5f5f3e3d5ffd5b5f61054a826001600160a01b031663b6d821c760016040518263ffffffff1660e01b815260040161255791906134bf565b602060405180830381865afa158015612572573d5f5f3e3d5ffd5b505050506040513d601f19601f820116820180604052508101906125969190613494565b60405163b6d821c760e01b81526001600160a01b0385169063b6d821c7906125c3906002906004016134bf565b602060405180830381865afa1580156125de573d5f5f3e3d5ffd5b505050506040513d601f19601f820116820180604052508101906126029190613494565b612aa6565b5f815f0361261657505f612654565b5f61262588888888888861265e565b905080608001515f0361263b575f915050612654565b61264e81896060015189606001516128db565b93505050505b9695505050505050565b61269d6040518060a001604052805f6001600160a01b031681526020015f6001600160a01b031681526020015f81526020015f81526020015f81525090565b85606001516001600160a01b031687606001516001600160a01b0316146127075760018460018111156126d2576126d26134ab565b146126e6578660e001518660e001516126f3565b8661010001518661010001515b6001600160a01b0390811660208401521681525b5f5f6127188960800151885f612abe565b80935081925050505f5f8a604001516001600160a01b031663ffbaaf7a6040518163ffffffff1660e01b81526004016040805180830381865afa158015612761573d5f5f3e3d5ffd5b505050506040513d601f19601f820116820180604052508101906127859190613b30565b915091506127968382865f5f612ba6565b604086015260a08b01516127ab908a5f612abe565b9450925060018760018111156127c3576127c36134ab565b146127ce57816127ea565b6127ea8b604001518c61012001518d5f01518e60200151612be1565b91506127fa8383865f6001612ba6565b606086015260c08a015161280f908a88612abe565b945092505f6001886001811115612828576128286134ab565b146128a2578a604001516001600160a01b031663b6d821c760026040518263ffffffff1660e01b815260040161285e91906134bf565b602060405180830381865afa158015612879573d5f5f3e3d5ffd5b505050506040513d601f19601f8201168201806040525081019061289d9190613494565b6128b5565b6128b58b604001518c6101200151612cd7565b90506128c684828760016002612ba6565b608087015250939a9950505050505050505050565b5f5f5f6128e9868686612dca565b9093509150821580156128fa575081155b1561290c57505f915081905080612928565b825f0361291b57505f19612928565b6129258284612f20565b90505b93509350939050565b6060825f6129408460026139c7565b61294b906002613b1d565b6001600160401b03811115612962576129626134d9565b6040519080825280601f01601f19166020018201604052801561298c576020820181803683370190505b509050600360fc1b815f815181106129a6576129a66134ed565b60200101906001600160f81b03191690815f1a905350600f60fb1b816001815181106129d4576129d46134ed565b60200101906001600160f81b03191690815f1a9053505f6129f68560026139c7565b612a01906001613b1d565b90505b6001811115612a78576f181899199a1a9b1b9c1cb0b131b232b360811b83600f1660108110612a3557612a356134ed565b1a60f81b828281518110612a4b57612a4b6134ed565b60200101906001600160f81b03191690815f1a90535060049290921c91612a7181613b52565b9050612a04565b5081156109b95760405163e22e27eb60e01b8152600481018690526024810185905260440160405180910390fd5b5f828211612ab6578183036105bc565b5f9392505050565b5f5f825f03612b385760405163dce5c2db60e01b81526001600160a01b03858116600483015286169063dce5c2db906024016040805180830381865afa158015612b0a573d5f5f3e3d5ffd5b505050506040513d601f19601f82011682018060405250810190612b2e9190613b30565b9092509050612b9e565b829150846001600160a01b03166318160ddd6040518163ffffffff1660e01b8152600401602060405180830381865afa158015612b77573d5f5f3e3d5ffd5b505050506040513d601f19601f82011682018060405250810190612b9b9190613494565b90505b935093915050565b5f5f5f612bb4878786612f36565b91509150815f03612bc9578792505050611a72565b612bd588828488612f91565b98975050505050505050565b6040516367efe7fd60e11b81526001600160a01b0385811660048301524260248301525f91829186169063cfdfcffa90604401602060405180830381865afa925050508015612c4d575060408051601f3d908101601f19168201909252612c4a91810190613494565b60015b15612c555790505b5f5f876001600160a01b03166339c5c5056040518163ffffffff1660e01b81526004016040805180830381865afa158015612c92573d5f5f3e3d5ffd5b505050506040513d601f19601f82011682018060405250810190612cb69190613b30565b91509150612cc78282858989612fd3565b50919a9950505050505050505050565b6040516367efe7fd60e11b81526001600160a01b0383811660048301524260248301525f91829184169063cfdfcffa90604401602060405180830381865afa925050508015612d43575060408051601f3d908101601f19168201909252612d4091810190613494565b60015b15612d4b5790505b60405163b6d821c760e01b8152612dc1906001600160a01b0386169063b6d821c790612d7c906002906004016134bf565b602060405180830381865afa158015612d97573d5f5f3e3d5ffd5b505050506040513d601f19601f82011682018060405250810190612dbb9190613494565b8261302d565b50949350505050565b5f5f5f85606001518660400151612de19190613b1d565b90508015612e735785516001600160a01b0316612dfe5780612e70565b85516040516313b0be3360e01b8152600481018390526001600160a01b038781166024830152909116906313b0be3390604401602060405180830381865afa158015612e4c573d5f5f3e3d5ffd5b505050506040513d601f19601f82011682018060405250810190612e709190613494565b92505b608086015115612f175760208601516001600160a01b0316612e99578560800151612f14565b602086015160808701516040516313b0be3360e01b815260048101919091526001600160a01b038681166024830152909116906313b0be3390604401602060405180830381865afa158015612ef0573d5f5f3e3d5ffd5b505050506040513d601f19601f82011682018060405250810190612f149190613494565b91505b50935093915050565b5f6105bc83670de0b6b3a7640000846001612f91565b5f5f835f03612f43575f94505b6002836002811115612f5757612f576134ab565b14612f8257612f686003600a613c42565b612f729085613b1d565b612f7d866001613b1d565b612f85565b83855b90969095509350505050565b5f612fbe612f9e83613075565b8015612fb957505f8480612fb457612fb46139de565b868809115b151590565b612fc98686866130a1565b611a729190613b1d565b5f5f5f5f612fe1888861302d565b9093509050858501612ffc8282670de0b6b3a764000061315e565b92505f6130098484613aa7565b90508a1981811015613019578091505b818c01965050505095509550955095915050565b5f8083158061303a575082155b1561304957508290505f612374565b61305c8484670de0b6b3a764000061315e565b9050808401915083821015612374575091925f92509050565b5f600282600381111561308a5761308a6134ab565b6130949190613c4d565b60ff166001149050919050565b5f838302815f1985870982811083820303915050805f036130d5578382816130cb576130cb6139de565b04925050506105bc565b8084116130f3576130f384156130ec5760116131a6565b60126131a6565b5f848688095f868103871696879004966002600389028118808a02820302808a02820302808a02820302808a02820302808a02820302808a02909103029181900381900460010186841190950394909402919094039290920491909117919091029150509392505050565b5f835f0361316d57505f6105bc565b5082820282848281613181576131816139de565b041461318e57505f6105bc565b81818161319d5761319d6139de565b04949350505050565b634e487b715f52806020526024601cfd5b6001600160a01b03811681146131cb575f5ffd5b50565b5f602082840312156131de575f5ffd5b81356105bc816131b7565b5f5f604083850312156131fa575f5ffd5b8235613205816131b7565b91506020830135613215816131b7565b809150509250929050565b5f5f60208385031215613231575f5ffd5b82356001600160401b03811115613246575f5ffd5b8301601f81018513613256575f5ffd5b80356001600160401b0381111561326b575f5ffd5b8560208260061b840101111561327f575f5ffd5b6020919091019590945092505050565b602080825282518282018190525f918401906040840190835b818110156132db576132c583855180518252602090810151910152565b60209390930192604092909201916001016132a8565b509095945050505050565b5f5f602083850312156132f7575f5ffd5b82356001600160401b0381111561330c575f5ffd5b8301601f8101851361331c575f5ffd5b80356001600160401b03811115613331575f5ffd5b8560208260051b840101111561327f575f5ffd5b602080825282518282018190525f918401906040840190835b818110156132db5761337b83855180518252602090810151910152565b602093909301926040929092019160010161335e565b602080825282518282018190525f918401906040840190835b818110156132db5783518352602093840193909201916001016133aa565b5f5f5f606084860312156133da575f5ffd5b83356133e5816131b7565b925060208401356133f5816131b7565b91506040840135613405816131b7565b809150509250925092565b5f602082016020835280845180835260408501915060408160051b8601019250602086015f5b8281101561348857603f19878603018452815180518087528060208301602089015e5f602082890101526020601f19601f83011688010196505050602082019150602084019350600181019050613436565b50929695505050505050565b5f602082840312156134a4575f5ffd5b5051919050565b634e487b7160e01b5f52602160045260245ffd5b60208101600383106134d3576134d36134ab565b91905290565b634e487b7160e01b5f52604160045260245ffd5b634e487b7160e01b5f52603260045260245ffd5b60405161022081016001600160401b0381118282101715613524576135246134d9565b60405290565b604051601f8201601f191681016001600160401b0381118282101715613552576135526134d9565b604052919050565b5f604082840312801561356b575f5ffd5b50604080519081016001600160401b038111828210171561358e5761358e6134d9565b604052823561359c816131b7565b815260208301356135ac816131b7565b60208201529392505050565b805180151581146135c7575f5ffd5b919050565b5f602082840312156135dc575f5ffd5b6105bc826135b8565b5f5f5f606084860312156135f7575f5ffd5b83516020850151909350915061360f604085016135b8565b90509250925092565b5f60208284031215613628575f5ffd5b81516001600160401b0381111561363d575f5ffd5b8201601f8101841361364d575f5ffd5b80516001600160401b03811115613666576136666134d9565b8060051b6136766020820161352a565b91825260208184018101929081019087841115613691575f5ffd5b6020850192505b838310156137315782516001600160401b038111156136b5575f5ffd5b8501603f810189136136c5575f5ffd5b60208101516001600160401b038111156136e1576136e16134d9565b6136f4601f8201601f191660200161352a565b8181526040838301018b1015613708575f5ffd5b8160408401602083015e5f60208383010152808552505050602082019150602083019250613698565b979650505050505050565b805160208201516bffffffffffffffffffffffff19811691906014821015613788576bffffffffffffffffffffffff196bffffffffffffffffffffffff198360140360031b1b82161692505b5050919050565b80516001600160401b03811681146135c7575f5ffd5b5f5f5f5f5f60a086880312156137b9575f5ffd5b85516001600160c01b03811681146137cf575f5ffd5b94506137dd6020870161378f565b6040870151606088015160809098015196999198509695945092505050565b5f6020828403121561380c575f5ffd5b81516105bc816131b7565b80516135c7816131b7565b5f6102208284031215613833575f5ffd5b61383b613501565b8251815260208084015190820152905061385760408301613817565b604082015261386860608301613817565b606082015261387960808301613817565b608082015261388a60a08301613817565b60a082015261389b60c08301613817565b60c08201526138ac60e08301613817565b60e08201526138be6101008301613817565b6101008201526138d16101208301613817565b6101208201526101408281015190820152610160808301519082015261018080830151908201526101a080830151908201526101c0808301519082015261391b6101e08301613817565b6101e082015261392e61020083016135b8565b61020082015292915050565b5f610220828403121561394b575f5ffd5b6105bc8383613822565b5f6060828403128015613966575f5ffd5b50604051606081016001600160401b0381118282101715613989576139896134d9565b604090815283518252602080850151908301526139a790840161378f565b60408201529392505050565b634e487b7160e01b5f52601160045260245ffd5b808202811582820484141761054a5761054a6139b3565b634e487b7160e01b5f52601260045260245ffd5b5f82613a0057613a006139de565b500490565b5f5f6104408385031215613a17575f5ffd5b613a218484613822565b9150613a31846102208501613822565b90509250929050565b5f5f5f5f60808587031215613a4d575f5ffd5b84516020860151604087015160608801519296509094509250613a6f816131b7565b939692955090935050565b5f5f60408385031215613a8b575f5ffd5b8251613a96816131b7565b6020840151909250613215816131b7565b8181038181111561054a5761054a6139b3565b5f5f5f60608486031215613acc575f5ffd5b8351613ad7816131b7565b6020850151909350613ae8816131b7565b6040850151909250613405816131b7565b8281526040810160028310613b1057613b106134ab565b8260208301529392505050565b8082018082111561054a5761054a6139b3565b5f5f60408385031215613b41575f5ffd5b505080516020909101519092909150565b5f81613b6057613b606139b3565b505f190190565b6001815b6001841115612b9e57808504811115613b8657613b866139b3565b6001841615613b9457908102905b60019390931c928002613b6b565b5f82613bb05750600161054a565b81613bbc57505f61054a565b8160018114613bd25760028114613bdc57613bf8565b600191505061054a565b60ff841115613bed57613bed6139b3565b50506001821b61054a565b5060208310610133831016604e8410600b8410161715613c1b575081810a61054a565b613c275f198484613b67565b805f1904821115613c3a57613c3a6139b3565b029392505050565b5f6105bc8383613ba2565b5f60ff831680613c5f57613c5f6139de565b8060ff8416069150509291505056fea2646970667358221220fc1f306ea4b4b5621abb5baaab1239324940f34726759bcec2ea7ac9b00d5f3164736f6c634300081c0033",
  "language": "Solidity",
  "compiler": "0.8.28+commit.7893614a"
}