{
  "address": "0x41FBdd2A144e641a8396aFa1083ADc69cEf39Ee8",
  "abi": [
    {
      "inputs": [
        {
          "internalType": "address",
          "name": "_owner",
          "type": "address"
        },
        {
          "internalType": "address",
          "name": "_notifier",
          "type": "address"
        },
        {
          "internalType": "address",
          "name": "_shareToken",
          "type": "address"
        }
      ],
      "name": "createGaugeLike",
      "outputs": [
        {
          "internalType": "address",
          "name": "gaugeLike",
          "type": "address"
        }
      ],
      "stateMutability": "nonpayable",
      "type": "function"
    },
    {
      "inputs": [
        {
          "internalType": "address",
          "name": "",
          "type": "address"
        }
      ],
      "name": "createdInFactory",
      "outputs": [
        {
          "internalType": "bool",
          "name": "",
          "type": "bool"
        }
      ],
      "stateMutability": "view",
      "type": "function"
    },
    {
      "anonymous": false,
      "inputs": [
        {
          "indexed": false,
          "internalType": "address",
          "name": "gaugeLike",
          "type": "address"
        }
      ],
      "name": "GaugeLikeCreated",
      "type": "event"
    }
  ],
  "bytecode": "0x6080604052348015600e575f5ffd5b506131148061001c5f395ff3fe608060405234801561000f575f5ffd5b5060043610610034575f3560e01c80637cf6523314610038578063b32d705b14610068575b5f5ffd5b61004b61004636600461016a565b61009a565b6040516001600160a01b0390911681526020015b60405180910390f35b61008a6100763660046101aa565b5f6020819052908152604090205460ff1681565b604051901515815260200161005f565b5f8383836040516100aa90610142565b6001600160a01b03938416815291831660208301529091166040820152606001604051809103905ff0801580156100e3573d5f5f3e3d5ffd5b506001600160a01b0381165f8181526020818152604091829020805460ff1916600117905590519182529192507f8aa00edcaf1234f1d440a7b747ca56960d2d0bbf1e8dc60690d185d6559a5abc910160405180910390a19392505050565b612f14806101cb83390190565b80356001600160a01b0381168114610165575f5ffd5b919050565b5f5f5f6060848603121561017c575f5ffd5b6101858461014f565b92506101936020850161014f565b91506101a16040850161014f565b90509250925092565b5f602082840312156101ba575f5ffd5b6101c38261014f565b939250505056fe60c060405234801561000f575f5ffd5b50604051612f14380380612f1483398101604081905261002e9161013a565b828281818181816001600160a01b03811661006257604051631e4fbdf760e01b81525f600482015260240160405180910390fd5b61006b816100b4565b506001600160a01b03908116608052861694506100a093505050505760405163a5c9497760e01b815260040160405180910390fd5b6001600160a01b031660a0525061017a9050565b600180546001600160a01b03191690556100cd816100d0565b50565b5f80546001600160a01b038381166001600160a01b0319831681178455604051919092169283917f8be0079c531659141344cd1fd0a4f28419497f9722a3daafe3b4186f6b6457e09190a35050565b80516001600160a01b0381168114610135575f5ffd5b919050565b5f5f5f6060848603121561014c575f5ffd5b6101558461011f565b92506101636020850161011f565b91506101716040850161011f565b90509250925092565b60805160a051612d3a6101da5f395f81816101fb0152818161023c0152818161063201528181610d0901528181611446015281816114d30152611c9d01525f81816103aa015281816105ca01528181610c1a0152611a670152612d3a5ff3fe608060405234801561000f575f5ffd5b50600436106101f2575f3560e01c8063aaf5eb6811610114578063cfc26237116100a9578063ef5cfb8c11610079578063ef5cfb8c1461055e578063f2fde38b14610571578063f5ba475014610584578063f5cf673b14610597578063fb71aec5146105aa575f5ffd5b8063cfc2623714610493578063d34fb26714610532578063e30c39781461053a578063e7b8b9c41461054b575f5ffd5b8063bec1e022116100e4578063bec1e02214610447578063c1616f691461045a578063cc0801641461046d578063cd72a4bf14610480575f5ffd5b8063aaf5eb68146103ff578063ab8f094514610419578063b5a8906514610421578063bbdc013b14610434575f5ffd5b806379ba50971161018a5780639c868ac01161015a5780639c868ac01461038f5780639f2e6a0c146103a5578063a5eb3f0d146103cc578063a7b800dd146103ec575f5ffd5b806379ba5097146102f157806382794f39146102f95780638ba2c3c81461036c5780638da5cb5b1461037f575f5ffd5b80636f564e7d116101c55780636f564e7d14610296578063711ec9ac146102b6578063715018a6146102be57806374d945ec146102c6575f5ffd5b80631d7e3556146101f65780632ad87c6f1461023a5780632e953c211461026057806358703bed14610275575b5f5ffd5b61021d7f000000000000000000000000000000000000000000000000000000000000000081565b6040516001600160a01b0390911681526020015b60405180910390f35b7f000000000000000000000000000000000000000000000000000000000000000061021d565b61027361026e366004612437565b6105bf565b005b6102886102833660046124af565b6107cf565b604051908152602001610231565b6102a96102a43660046124fd565b6108d9565b6040516102319190612542565b61028861090b565b61027361091a565b61021d6102d4366004612554565b6001600160a01b039081165f908152600660205260409020541690565b61027361092d565b61030c6103073660046125aa565b610976565b60405161023191905f60a0820190508251825260018060a01b0360208401511660208301526001600160681b03604084015116604083015264ffffffffff606084015116606083015264ffffffffff608084015116608083015292915050565b61028861037a3660046125e8565b610a54565b5f546001600160a01b031661021d565b60075460ff166040519015158152602001610231565b61021d7f000000000000000000000000000000000000000000000000000000000000000081565b6103df6103da3660046124af565b610ac0565b6040516102319190612629565b6102886103fa366004612752565b610b16565b610407601281565b60405160ff9091168152602001610231565b610273610b61565b61028861042f3660046125e8565b610ba0565b610273610442366004612783565b610c0f565b6102736104553660046127eb565b610c6d565b61027361046836600461284b565b610e28565b61028861047b3660046125e8565b610e5d565b61027361048e3660046128e8565b610ec5565b6104ed6104a13660046124fd565b60046020525f908152604090208054600182015460029092015490916001600160a01b0316906001600160681b0381169064ffffffffff600160681b8204811691600160901b90041685565b604080519586526001600160a01b0390941660208601526001600160681b039092169284019290925264ffffffffff918216606084015216608082015260a001610231565b610273610f7f565b6001546001600160a01b031661021d565b6102886105593660046125aa565b610fbb565b6103df61056c366004612554565b611023565b61027361057f366004612554565b611068565b6103df610592366004612937565b6110d8565b6102736105a5366004612993565b611199565b6105b26111f7565b60405161023191906129bb565b336001600160a01b037f0000000000000000000000000000000000000000000000000000000000000000161480159061060257505f546001600160a01b03163314155b156106205760405163d3b03ee160e01b815260040160405180910390fd5b6001600160681b038116156107cb575f7f00000000000000000000000000000000000000000000000000000000000000006001600160a01b03166318160ddd6040518163ffffffff1660e01b8152600401602060405180830381865afa15801561068c573d5f5f3e3d5ffd5b505050506040513d601f19601f820116820180604052508101906106b09190612a1e565b90505f6106bc846112b4565b5f8181526004602052604090209091506106d6828461132f565b506002810180544264ffffffffff818116600160901b90810264ffffffffff60901b1985161790945592820492909216916001600160681b039091169061071f90600190612a49565b6002840180546001600160901b031916600160681b64ffffffffff93909316929092026001600160681b031916919091176001600160681b038816179055610767848661132f565b50600292909201805469ffffffffffffffffffff60681b1916600160901b64ffffffffff9384160264ffffffffff60681b191617600160681b429390931692909202919091176001600160681b0319166001600160681b0390921691909117905550505b5050565b5f5f5f5f6107dc87611442565b90925090505f5b858110156108ce575f61084c88888481811061080157610801612a5c565b90506020028101906108139190612a70565b8080601f0160208091040260200160405190810160405280939291908181526020018383808284375f92019190915250610b1692505050565b5f818152600460205260409020600101549091506001600160a01b0390811690861661087a578095506108ac565b806001600160a01b0316866001600160a01b0316146108ac576040516305ff3f2d60e41b815260040160405180910390fd5b6108b88a838787611558565b6108c29088612ab2565b965050506001016107e3565b505050509392505050565b6060610905826040516020016108f191815260200190565b60405160208183030381529060405261159a565b92915050565b6109176012600a612ba8565b81565b610922611618565b61092b5f611644565b565b60015433906001600160a01b0316811461096a5760405163118cdaa760e01b81526001600160a01b03821660048201526024015b60405180910390fd5b61097381611644565b50565b6040805160a0810182525f808252602082018190529181018290526060810182905260808101919091525f6109df84848080601f0160208091040260200160405190810160405280939291908181526020018383808284375f92019190915250610b1692505050565b6040805160a0810182525f838152600460208181528483208054855260018101546001600160a01b031682860152600201546001600160681b0381169585019590955264ffffffffff600160681b860481166060860152959092529052600160901b9091049091166080820152949350505050565b5f5f610a9484848080601f0160208091040260200160405190810160405280939291908181526020018383808284375f92019190915250610b1692505050565b6001600160a01b0386165f90815260056020908152604080832093835292905220549150509392505050565b60606001600160a01b038416610ae957604051638aa3a72f60e01b815260040160405180910390fd5b5f610af4848461165d565b9050610b0033826116ee565b9150610b0e333387856117d7565b509392505050565b5f81515f03610b38576040516302d7eecb60e61b815260040160405180910390fd5b81604051602001610b499190612bcd565b60405160208183030381529060405261090590612bd8565b610b69611618565b6007805460ff191660011790556040517f1cd942681240393874c94d43d81f6d2be3e0a1f94e200f58cdb151773cbec7ba905f90a1565b5f5f610be084848080601f0160208091040260200160405190810160405280939291908181526020018383808284375f92019190915250610b1692505050565b5f9081526004602090815260408083206001600160a01b03891684526003019091529020549150509392505050565b336001600160a01b037f00000000000000000000000000000000000000000000000000000000000000001614610c575760405162f09cf360e01b815260040160405180910390fd5b610c65868686868686611a5c565b505050505050565b610c75611618565b428264ffffffffff161015610c9d57604051636e03f20160e11b815260040160405180910390fd5b5f610cdc85858080601f0160208091040260200160405190810160405280939291908181526020018383808284375f92019190915250610b1692505050565b9050610ce9600282611b8f565b610d0657604051630a96b47560e01b815260040160405180910390fd5b5f7f00000000000000000000000000000000000000000000000000000000000000006001600160a01b03166318160ddd6040518163ffffffff1660e01b8152600401602060405180830381865afa158015610d63573d5f5f3e3d5ffd5b505050506040513d601f19601f82011682018060405250810190610d879190612a1e565b9050610d93828261132f565b505f8281526004602052604090819020600201805476ffffffffff0000000000ffffffffffffffffffffffffff1916600160901b64ffffffffff8816026001600160681b031916176001600160681b038616179055517fce209946668ea0ad6199b320ade5271adc93d0c1083851b571b990f3e0260f1290610e189088908890612c23565b60405180910390a1505050505050565b610e30611618565b80515160201015610e54576040516310b47cc360e01b815260040160405180910390fd5b61097381611ba9565b5f5f610e9d84848080601f0160208091040260200160405190810160405280939291908181526020018383808284375f92019190915250610b1692505050565b90505f5f610eaa87611442565b91509150610eba87848484611558565b979650505050505050565b610ecd611618565b5f610f0c84848080601f0160208091040260200160405190810160405280939291908181526020018383808284375f92019190915250610b1692505050565b5f8181526004602052604090819020600201805464ffffffffff60901b1916600160901b64ffffffffff871602179055519091507f58e6e5fdc9bafcdde90e850e8776b427a5a0e26e6c86f28a3c9c1f180187611890610f7190869086908690612c36565b60405180910390a150505050565b610f87611618565b6007805460ff191690556040517f2bb961d4f48d79d94b84e7017d12533eff7562d60f9fcbdc7784646269c1ec21905f90a1565b5f5f610ffb84848080601f0160208091040260200160405190810160405280939291908181526020018383808284375f92019190915250610b1692505050565b5f90815260046020526040902060020154600160901b900464ffffffffff1691505092915050565b60606001600160a01b03821661104c57604051638aa3a72f60e01b815260040160405180910390fd5b61105533611d5d565b9050611063333384846117d7565b919050565b611070611618565b600180546001600160a01b0383166001600160a01b031990911681179091556110a05f546001600160a01b031690565b6001600160a01b03167f38d16b8cac22d99fc7c124b9cd0de2d3fa1faef420bfe791d8c362d765e2270060405160405180910390a350565b6001600160a01b038085165f908152600660205260409020546060913391879116821461111757604051620bb58b60e51b815260040160405180910390fd5b86866001600160a01b03821661114057604051630702b3d960e41b815260040160405180910390fd5b6001600160a01b03811661116757604051638aa3a72f60e01b815260040160405180910390fd5b5f611172888861165d565b905061117e8a826116ee565b955061118c338b8b896117d7565b5050505050949350505050565b6111a1611618565b6001600160a01b038281165f8181526006602052604080822080546001600160a01b0319169486169485179055517f4925eafc82d0c4d67889898eeed64b18488ab19811e61620f387026dec126a289190a35050565b60605f6112046002611d72565b519050806001600160401b0381111561121f5761121f61268d565b60405190808252806020026020018201604052801561125257816020015b606081526020019060019003908161123d5790505b5091505f5b818110156112af5761128a61126c6002611d72565b828151811061127d5761127d612a5c565b60200260200101516108d9565b83828151811061129c5761129c612a5c565b6020908102919091010152600101611257565b505090565b5f5f6112bf83611d7e565b90506112ca81610b16565b5f81815260046020526040812060020154919350600160681b90910464ffffffffff16900361132957604080516080810182525f91810182905260608101919091528181526001600160a01b038416602082015261132781611ba9565b505b50919050565b5f82815260046020526040812080546002909101546001600160681b0381169064ffffffffff600160681b8204811691600160901b9004164282900361137b5783945050505050610905565b5f611389858585858b611d94565b9050848114611409575f888152600460205260409020818155600201805464ffffffffff60681b1916600160681b4264ffffffffff16021790557fbcaf32358137afa5170f844d4e02a1b3013677faba70d948cc705ce0a38305846113ed896108d9565b826040516113fc929190612c60565b60405180910390a1610eba565b5f888152600460205260409020600201805464ffffffffff60681b1916600160681b4264ffffffffff1602179055979650505050505050565b5f807f00000000000000000000000000000000000000000000000000000000000000006040516370a0823160e01b81526001600160a01b03858116600483015291909116906370a0823190602401602060405180830381865afa1580156114ab573d5f5f3e3d5ffd5b505050506040513d601f19601f820116820180604052508101906114cf9190612a1e565b91507f00000000000000000000000000000000000000000000000000000000000000006001600160a01b03166318160ddd6040518163ffffffff1660e01b8152600401602060405180830381865afa15801561152d573d5f5f3e3d5ffd5b505050506040513d601f19601f820116820180604052508101906115519190612a1e565b9050915091565b6001600160a01b0384165f90815260056020908152604080832086845290915290205461158784868585611e2a565b6115919082612ab2565b95945050505050565b80516060905f5b81811015611327578381815181106115bb576115bb612a5c565b01602001516001600160f81b0319161561161057828482815181106115e2576115e2612a5c565b602001015160f81c60f81b6040516020016115fe929190612c81565b60405160208183030381529060405292505b6001016115a1565b5f546001600160a01b0316331461092b5760405163118cdaa760e01b8152336004820152602401610961565b600180546001600160a01b031916905561097381611e9b565b6060816001600160401b038111156116775761167761268d565b6040519080825280602002602001820160405280156116a0578160200160208202803683370190505b5090505f5b828110156116e7576116c284848381811061080157610801612a5c565b8282815181106116d4576116d4612a5c565b60209081029190910101526001016116a5565b5092915050565b8051606090806001600160401b0381111561170b5761170b61268d565b60405190808252806020026020018201604052801561176657816020015b61175360405180606001604052805f81526020015f81526020015f6001600160a01b031681525090565b8152602001906001900390816117295790505b5091505f5f61177486611442565b90925090505f5b838110156117cd576117a88787838151811061179957611799612a5c565b60200260200101518486611eea565b8582815181106117ba576117ba612a5c565b602090810291909101015260010161177b565b5050505092915050565b5f5b8151811015611a55576001600160a01b0384165f9081526005602052604081208351829085908590811061180f5761180f612a5c565b60200260200101516020015181526020019081526020015f205490508083838151811061183e5761183e612a5c565b60200260200101515f018181516118559190612ab2565b905250825183908390811061186c5761186c612a5c565b60200260200101515f01515f14611a4c576118a383838151811061189257611892612a5c565b6020026020010151602001516108d9565b6040516118b09190612bcd565b60405180910390208383815181106118ca576118ca612a5c565b6020026020010151604001516001600160a01b0316866001600160a01b03167f9ac9a44091881640a73610df0bdc77ce7a7c33784685a2902e0140b6b9652f0d86868151811061191c5761191c612a5c565b60200260200101515f015160405161193691815260200190565b60405180910390a461198283838151811061195357611953612a5c565b6020026020010151604001518585858151811061197257611972612a5c565b60200260200101515f0151611f60565b82828151811061199457611994612a5c565b6020026020010151604001516001600160a01b0316846001600160a01b0316866001600160a01b03167f7c791aa670e586419eeb53ce75c06cfaf3c657e90935bd3aae64380872f849fa8686815181106119f0576119f0612a5c565b6020026020010151602001518a888881518110611a0f57611a0f612a5c565b60200260200101515f0151604051611a43939291909283526001600160a01b03919091166020830152604082015260600190565b60405180910390a45b506001016117d9565b5050505050565b336001600160a01b037f00000000000000000000000000000000000000000000000000000000000000001614611aa45760405162f09cf360e01b815260040160405180910390fd5b5f611aaf6002611fd6565b9050846001600160a01b0316876001600160a01b03161480611acf575080155b15611ada5750610c65565b6001600160a01b038716611af2578183039250611b05565b6001600160a01b038516611b0557918101915b6001600160a01b03871615611b1957948101945b6001600160a01b03851615611b2e5781840393505b5f5b81811015611b85575f611b44600283611fdf565b90506001600160a01b03891615611b6157611b61818a878b611fea565b6001600160a01b03871615611b7c57611b7c81888789611fea565b50600101611b30565b5050505050505050565b5f81815260018301602052604081205415155b9392505050565b5f611bb6825f0151610b16565b60208301519091506001600160a01b0316611be45760405163dfde867160e01b815260040160405180910390fd5b611bef6002826120ce565b611c0c576040516383528a7f60e01b815260040160405180910390fd5b6020828101515f83815260049092526040918290206001810180546001600160a01b0319166001600160a01b0390931692909217909155606084015160029091018054928501516001600160681b03166001600160b81b0319909316600160901b64ffffffffff938416026001600160901b0319161792909217600160681b429290921691909102179055611d20817f00000000000000000000000000000000000000000000000000000000000000006001600160a01b03166318160ddd6040518163ffffffff1660e01b8152600401602060405180830381865afa158015611cf7573d5f5f3e3d5ffd5b505050506040513d601f19601f82011682018060405250810190611d1b9190612a1e565b61132f565b5081516040517f0cf558cc2f9ccbbf831b6392a319e7892856e9324a757e9c3648ee9e5b88cb4f91611d5191612542565b60405180910390a15050565b606061090582611d6d6002611d72565b6116ee565b60605f611ba2836120d9565b60606109056001600160a01b0383166014612132565b5f841580611da0575081155b80611daa57504284145b80611db55750828410155b15611dc1575084611591565b5f834211611dcf5742611dd1565b835b90505f611dde8683612a49565b9050611dec6012600a612ba8565b611df68289612ca5565b611e009190612ca5565b9250838381611e1157611e11612cbc565b049250611e1e8884612ab2565b98975050505050505050565b5f8481526004602081815260408084206001600160a01b0388168552600381018352908420548885529290915280546002909101548391611e8e916001600160681b0381169064ffffffffff600160681b8204811691600160901b90041688611d94565b9050610eba8582846122ab565b5f80546001600160a01b038381166001600160a01b0319831681178455604051919092169283917f8be0079c531659141344cd1fd0a4f28419497f9722a3daafe3b4186f6b6457e09190a35050565b611f1460405180606001604052805f81526020015f81526020015f6001600160a01b031681525090565b5f611f21858785876122d3565b6040805160608101825291825260208083018890525f9788526004905295869020600101546001600160a01b0316958101959095525092949350505050565b60405163a9059cbb60e01b81526001600160a01b0383811660048301526024820183905284169063a9059cbb906044016020604051808303815f875af1158015611fac573d5f5f3e3d5ffd5b505050506040513d601f19601f82011682018060405250810190611fd09190612cd0565b50505050565b5f610905825490565b5f611ba28383612399565b5f611ff7858584866122d3565b90508015611a55576001600160a01b0384165f90815260056020908152604080832088845290915281205461202d908390612ab2565b6001600160a01b0386165f9081526005602090815260408083208a84529091529020819055905061205d866108d9565b60405161206a9190612bcd565b604080519182900382205f898152600460209081529290206001015484845290926001600160a01b0391821692918916917f9ac9a44091881640a73610df0bdc77ce7a7c33784685a2902e0140b6b9652f0d910160405180910390a4505050505050565b5f611ba283836123bf565b6060815f0180548060200260200160405190810160405280929190818152602001828054801561212657602002820191905f5260205f20905b815481526020019060010190808311612112575b50505050509050919050565b6060825f612141846002612ca5565b61214c906002612ab2565b6001600160401b038111156121635761216361268d565b6040519080825280601f01601f19166020018201604052801561218d576020820181803683370190505b509050600360fc1b815f815181106121a7576121a7612a5c565b60200101906001600160f81b03191690815f1a905350600f60fb1b816001815181106121d5576121d5612a5c565b60200101906001600160f81b03191690815f1a9053505f6121f7856002612ca5565b612202906001612ab2565b90505b6001811115612279576f181899199a1a9b1b9c1cb0b131b232b360811b83600f166010811061223657612236612a5c565b1a60f81b82828151811061224c5761224c612a5c565b60200101906001600160f81b03191690815f1a90535060049290921c9161227281612cef565b9050612205565b5081156122a35760405163e22e27eb60e01b81526004810186905260248101859052604401610961565b949350505050565b5f6122b68284612a49565b6122c09085612ca5565b670de0b6b3a76400009004949350505050565b5f8481526004602090815260408083206001600160a01b03871684526003019091528120548180612304888661132f565b905080831461238e5785156123215761231e8682856122ab565b91505b5f8881526004602090815260408083206001600160a01b038b1680855260039091019092529091208290557f06e13548f41cff17d181fb7a95d6935aaf6175b5a584469e25f3bf999103a5e56123768a6108d9565b83604051612385929190612c60565b60405180910390a25b509695505050505050565b5f825f0182815481106123ae576123ae612a5c565b905f5260205f200154905092915050565b5f81815260018301602052604081205461240457508154600181810184555f848152602080822090930184905584548482528286019093526040902091909155610905565b505f610905565b80356001600160a01b0381168114611063575f5ffd5b80356001600160681b0381168114611063575f5ffd5b5f5f60408385031215612448575f5ffd5b6124518361240b565b915061245f60208401612421565b90509250929050565b5f5f83601f840112612478575f5ffd5b5081356001600160401b0381111561248e575f5ffd5b6020830191508360208260051b85010111156124a8575f5ffd5b9250929050565b5f5f5f604084860312156124c1575f5ffd5b6124ca8461240b565b925060208401356001600160401b038111156124e4575f5ffd5b6124f086828701612468565b9497909650939450505050565b5f6020828403121561250d575f5ffd5b5035919050565b5f81518084528060208401602086015e5f602082860101526020601f19601f83011685010191505092915050565b602081525f611ba26020830184612514565b5f60208284031215612564575f5ffd5b611ba28261240b565b5f5f83601f84011261257d575f5ffd5b5081356001600160401b03811115612593575f5ffd5b6020830191508360208285010111156124a8575f5ffd5b5f5f602083850312156125bb575f5ffd5b82356001600160401b038111156125d0575f5ffd5b6125dc8582860161256d565b90969095509350505050565b5f5f5f604084860312156125fa575f5ffd5b6126038461240b565b925060208401356001600160401b0381111561261d575f5ffd5b6124f08682870161256d565b602080825282518282018190525f918401906040840190835b8181101561268257835180518452602080820151818601526040918201516001600160a01b03169185019190915290930192606090920191600101612642565b509095945050505050565b634e487b7160e01b5f52604160045260245ffd5b604051608081016001600160401b03811182821017156126c3576126c361268d565b60405290565b5f82601f8301126126d8575f5ffd5b81356001600160401b038111156126f1576126f161268d565b604051601f8201601f19908116603f011681016001600160401b038111828210171561271f5761271f61268d565b604052818152838201602001851015612736575f5ffd5b816020850160208301375f918101602001919091529392505050565b5f60208284031215612762575f5ffd5b81356001600160401b03811115612777575f5ffd5b6122a3848285016126c9565b5f5f5f5f5f5f60c08789031215612798575f5ffd5b6127a18761240b565b9550602087013594506127b66040880161240b565b959894975094956060810135955060808101359460a0909101359350915050565b803564ffffffffff81168114611063575f5ffd5b5f5f5f5f606085870312156127fe575f5ffd5b84356001600160401b03811115612813575f5ffd5b61281f8782880161256d565b90955093506128329050602086016127d7565b915061284060408601612421565b905092959194509250565b5f6020828403121561285b575f5ffd5b81356001600160401b03811115612870575f5ffd5b820160808185031215612881575f5ffd5b6128896126a1565b81356001600160401b0381111561289e575f5ffd5b6128aa868285016126c9565b8252506128b96020830161240b565b60208201526128ca60408301612421565b60408201526128db606083016127d7565b6060820152949350505050565b5f5f5f604084860312156128fa575f5ffd5b83356001600160401b0381111561290f575f5ffd5b61291b8682870161256d565b909450925061292e9050602085016127d7565b90509250925092565b5f5f5f5f6060858703121561294a575f5ffd5b6129538561240b565b93506129616020860161240b565b925060408501356001600160401b0381111561297b575f5ffd5b61298787828801612468565b95989497509550505050565b5f5f604083850312156129a4575f5ffd5b6129ad8361240b565b915061245f6020840161240b565b5f602082016020835280845180835260408501915060408160051b8601019250602086015f5b82811015612a1257603f198786030184526129fd858351612514565b945060209384019391909101906001016129e1565b50929695505050505050565b5f60208284031215612a2e575f5ffd5b5051919050565b634e487b7160e01b5f52601160045260245ffd5b8181038181111561090557610905612a35565b634e487b7160e01b5f52603260045260245ffd5b5f5f8335601e19843603018112612a85575f5ffd5b8301803591506001600160401b03821115612a9e575f5ffd5b6020019150368190038213156124a8575f5ffd5b8082018082111561090557610905612a35565b6001815b6001841115612b0057808504811115612ae457612ae4612a35565b6001841615612af257908102905b60019390931c928002612ac9565b935093915050565b5f82612b1657506001610905565b81612b2257505f610905565b8160018114612b385760028114612b4257612b5e565b6001915050610905565b60ff841115612b5357612b53612a35565b50506001821b610905565b5060208310610133831016604e8410600b8410161715612b81575081810a610905565b612b8d5f198484612ac5565b805f1904821115612ba057612ba0612a35565b029392505050565b5f611ba260ff841683612b08565b5f81518060208401855e5f93019283525090919050565b5f611ba28284612bb6565b80516020808301519190811015611329575f1960209190910360031b1b16919050565b81835281816020850137505f828201602090810191909152601f909101601f19169091010190565b602081525f6122a3602083018486612bfb565b604081525f612c49604083018587612bfb565b905064ffffffffff83166020830152949350505050565b604081525f612c726040830185612514565b90508260208301529392505050565b5f612c8c8285612bb6565b6001600160f81b03199390931683525050600101919050565b808202811582820484141761090557610905612a35565b634e487b7160e01b5f52601260045260245ffd5b5f60208284031215612ce0575f5ffd5b81518015158114611ba2575f5ffd5b5f81612cfd57612cfd612a35565b505f19019056fea26469706673582212202a8cba6ae3a38c1ae50fd3e1035be602840965805cc86fafab50ebcc07531cd864736f6c634300081c0033a2646970667358221220e0594c8e568cac9a657b92de04451bcae34a4cd1ad982167d16d7558812c702664736f6c634300081c0033",
  "language": "Solidity",
  "compiler": "0.8.28+commit.7893614a"
}