{
  "address": "0x36BF16c913a6ddCcE5Be0A6779b31F76d83947a6",
  "abi": [
    {
      "inputs": [],
      "stateMutability": "nonpayable",
      "type": "constructor"
    },
    {
      "inputs": [],
      "name": "DP",
      "outputs": [
        {
          "internalType": "uint256",
          "name": "",
          "type": "uint256"
        }
      ],
      "stateMutability": "view",
      "type": "function"
    },
    {
      "inputs": [],
      "name": "IRM",
      "outputs": [
        {
          "internalType": "address",
          "name": "",
          "type": "address"
        }
      ],
      "stateMutability": "view",
      "type": "function"
    },
    {
      "inputs": [
        {
          "components": [
            {
              "internalType": "int256",
              "name": "uopt",
              "type": "int256"
            },
            {
              "internalType": "int256",
              "name": "ucrit",
              "type": "int256"
            },
            {
              "internalType": "int256",
              "name": "ulow",
              "type": "int256"
            },
            {
              "internalType": "int256",
              "name": "ki",
              "type": "int256"
            },
            {
              "internalType": "int256",
              "name": "kcrit",
              "type": "int256"
            },
            {
              "internalType": "int256",
              "name": "klow",
              "type": "int256"
            },
            {
              "internalType": "int256",
              "name": "klin",
              "type": "int256"
            },
            {
              "internalType": "int256",
              "name": "beta",
              "type": "int256"
            },
            {
              "internalType": "int128",
              "name": "ri",
              "type": "int128"
            },
            {
              "internalType": "int128",
              "name": "Tcrit",
              "type": "int128"
            }
          ],
          "internalType": "struct IInterestRateModelV2.Config",
          "name": "_config",
          "type": "tuple"
        }
      ],
      "name": "create",
      "outputs": [
        {
          "internalType": "bytes32",
          "name": "configHash",
          "type": "bytes32"
        },
        {
          "internalType": "contract IInterestRateModelV2",
          "name": "irm",
          "type": "address"
        }
      ],
      "stateMutability": "nonpayable",
      "type": "function"
    },
    {
      "inputs": [
        {
          "components": [
            {
              "internalType": "int256",
              "name": "uopt",
              "type": "int256"
            },
            {
              "internalType": "int256",
              "name": "ucrit",
              "type": "int256"
            },
            {
              "internalType": "int256",
              "name": "ulow",
              "type": "int256"
            },
            {
              "internalType": "int256",
              "name": "ki",
              "type": "int256"
            },
            {
              "internalType": "int256",
              "name": "kcrit",
              "type": "int256"
            },
            {
              "internalType": "int256",
              "name": "klow",
              "type": "int256"
            },
            {
              "internalType": "int256",
              "name": "klin",
              "type": "int256"
            },
            {
              "internalType": "int256",
              "name": "beta",
              "type": "int256"
            },
            {
              "internalType": "int128",
              "name": "ri",
              "type": "int128"
            },
            {
              "internalType": "int128",
              "name": "Tcrit",
              "type": "int128"
            }
          ],
          "internalType": "struct IInterestRateModelV2.Config",
          "name": "_config",
          "type": "tuple"
        }
      ],
      "name": "hashConfig",
      "outputs": [
        {
          "internalType": "bytes32",
          "name": "configId",
          "type": "bytes32"
        }
      ],
      "stateMutability": "pure",
      "type": "function"
    },
    {
      "inputs": [
        {
          "internalType": "bytes32",
          "name": "configHash",
          "type": "bytes32"
        }
      ],
      "name": "irmByConfigHash",
      "outputs": [
        {
          "internalType": "contract IInterestRateModelV2",
          "name": "",
          "type": "address"
        }
      ],
      "stateMutability": "view",
      "type": "function"
    },
    {
      "inputs": [
        {
          "components": [
            {
              "internalType": "int256",
              "name": "uopt",
              "type": "int256"
            },
            {
              "internalType": "int256",
              "name": "ucrit",
              "type": "int256"
            },
            {
              "internalType": "int256",
              "name": "ulow",
              "type": "int256"
            },
            {
              "internalType": "int256",
              "name": "ki",
              "type": "int256"
            },
            {
              "internalType": "int256",
              "name": "kcrit",
              "type": "int256"
            },
            {
              "internalType": "int256",
              "name": "klow",
              "type": "int256"
            },
            {
              "internalType": "int256",
              "name": "klin",
              "type": "int256"
            },
            {
              "internalType": "int256",
              "name": "beta",
              "type": "int256"
            },
            {
              "internalType": "int128",
              "name": "ri",
              "type": "int128"
            },
            {
              "internalType": "int128",
              "name": "Tcrit",
              "type": "int128"
            }
          ],
          "internalType": "struct IInterestRateModelV2.Config",
          "name": "_config",
          "type": "tuple"
        }
      ],
      "name": "verifyConfig",
      "outputs": [],
      "stateMutability": "view",
      "type": "function"
    },
    {
      "anonymous": false,
      "inputs": [
        {
          "indexed": true,
          "internalType": "bytes32",
          "name": "configHash",
          "type": "bytes32"
        },
        {
          "indexed": true,
          "internalType": "contract IInterestRateModelV2",
          "name": "irm",
          "type": "address"
        }
      ],
      "name": "NewInterestRateModelV2",
      "type": "event"
    },
    {
      "inputs": [],
      "name": "FailedDeployment",
      "type": "error"
    },
    {
      "inputs": [
        {
          "internalType": "uint256",
          "name": "balance",
          "type": "uint256"
        },
        {
          "internalType": "uint256",
          "name": "needed",
          "type": "uint256"
        }
      ],
      "name": "InsufficientBalance",
      "type": "error"
    },
    {
      "inputs": [],
      "name": "InvalidBeta",
      "type": "error"
    },
    {
      "inputs": [],
      "name": "InvalidKcrit",
      "type": "error"
    },
    {
      "inputs": [],
      "name": "InvalidKi",
      "type": "error"
    },
    {
      "inputs": [],
      "name": "InvalidKlin",
      "type": "error"
    },
    {
      "inputs": [],
      "name": "InvalidKlow",
      "type": "error"
    },
    {
      "inputs": [],
      "name": "InvalidRi",
      "type": "error"
    },
    {
      "inputs": [],
      "name": "InvalidTcrit",
      "type": "error"
    },
    {
      "inputs": [],
      "name": "InvalidUcrit",
      "type": "error"
    },
    {
      "inputs": [],
      "name": "InvalidUlow",
      "type": "error"
    },
    {
      "inputs": [],
      "name": "InvalidUopt",
      "type": "error"
    }
  ],
  "bytecode": "0x60a0604052348015600e575f5ffd5b506040516019906042565b604051809103905ff0801580156031573d5f5f3e3d5ffd5b506001600160a01b0316608052604f565b6122ec80610b8d83390190565b608051610b2061006d5f395f8181606901526101b90152610b205ff3fe608060405234801561000f575f5ffd5b5060043610610060575f3560e01c80631e75db16146100645780632864e091146100a857806334421005146100d05780636bcc821614610100578063a7b9d1011461011d578063f1e01f7514610130575b5f5ffd5b61008b7f000000000000000000000000000000000000000000000000000000000000000081565b6040516001600160a01b0390911681526020015b60405180910390f35b61008b6100b6366004610539565b5f602081905290815260409020546001600160a01b031681565b6100e36100de366004610550565b610145565b604080519283526001600160a01b0390911660208301520161009f565b61010f670de0b6b3a764000081565b60405190815260200161009f565b61010f61012b366004610550565b610290565b61014361013e366004610550565b6102bf565b005b5f5f61015083610290565b5f818152602081905260409020549092506001600160a01b03169050801561017757915091565b610180836102bf565b5f8360405161018e9061052c565b6101989190610580565b604051809103905ff0801580156101b1573d5f5f3e3d5ffd5b5090506101dd7f0000000000000000000000000000000000000000000000000000000000000000610487565b60405163189acdbd60e31b81526001600160a01b0383811660048301529193509083169063c4d66de8906024015f604051808303815f87803b158015610221575f5ffd5b505af1158015610233573d5f5f3e3d5ffd5b5050505f8481526020819052604080822080546001600160a01b0319166001600160a01b038716908117909155905190925085917f7a56c031e2e076b9c466d347a09b8bc9458baafdcfc59a33dfffb06f37bbc54291a350915091565b5f816040516020016102a29190610580565b604051602081830303815290604052805190602001209050919050565b670de0b6b3a76400005f82351380156102d85750813581135b6102f5576040516313e9c00360e21b815260040160405180910390fd5b8135602083013513801561030c5750808260200135125b610329576040516339bda99160e11b815260040160405180910390fd5b5f8260400135138015610340575081356040830135125b61035d57604051635c65494d60e01b815260040160405180910390fd5b5f826060013512156103825760405163fe06781560e01b815260040160405180910390fd5b5f826080013512156103a7576040516320d12cb560e21b815260040160405180910390fd5b5f8260a0013512156103cf576040516001627ddb5960e01b0319815260040160405180910390fd5b5f8260c0013512156103f457604051634e435a2160e01b815260040160405180910390fd5b5f8260e001351215610419576040516378a8371160e01b815260040160405180910390fd5b5f61042c61012084016101008501610611565b600f0b121561044e576040516330eecc6b60e21b815260040160405180910390fd5b5f61046161014084016101208501610611565b600f0b121561048357604051630266493760e31b815260040160405180910390fd5b5050565b5f610492825f610498565b92915050565b5f814710156104c75760405163cf47918160e01b81524760048201526024810183905260440160405180910390fd5b6e5af43d82803e903d91602b57fd5bf360205282601152763d602d80600a3d3981f3363d3d373d3d3d363d730000008360881c175f526037600983f090506001600160a01b0381166104925760405163b06ebf3d60e01b815260040160405180910390fd5b6104b98061063283390190565b5f60208284031215610549575f5ffd5b5035919050565b5f610140828403128015610562575f5ffd5b509092915050565b8035600f81900b811461057b575f5ffd5b919050565b813581526020808301359082015260408083013590820152606080830135908201526080808301359082015260a0808301359082015260c0808301359082015260e0808301359082015261014081016105dc610100840161056a565b6105ec610100840182600f0b9052565b506105fa610120840161056a565b61060a610120840182600f0b9052565b5092915050565b5f60208284031215610621575f5ffd5b61062a8261056a565b939250505056fe6101c0604052348015610010575f5ffd5b506040516104b93803806104b983398101604081905261002f916100dd565b80516080908152602082015160a0908152604083015160c0908152606084015160e0908152928401516101009081529184015161012090815290840151610140529183015161016052820151600f90810b61018052910151900b6101a05261016f565b60405161014081016001600160401b03811182821017156100c157634e487b7160e01b5f52604160045260245ffd5b60405290565b8051600f81900b81146100d8575f5ffd5b919050565b5f6101408284031280156100ef575f5ffd5b506100f8610092565b825181526020808401519082015260408084015190820152606080840151908201526080808401519082015260a0808401519082015260c0808401519082015260e0808401519082015261014f61010084016100c7565b61010082015261016261012084016100c7565b6101208201529392505050565b60805160a05160c05160e05161010051610120516101405161016051610180516101a0516102de6101db5f395f6101f801525f6101cc01525f6101a601525f61018001525f61015a01525f61013401525f61010e01525f60e801525f60c201525f609f01526102de5ff3fe608060405234801561000f575f5ffd5b5060043610610029575f3560e01c8063c3f909d41461002d575b5f5ffd5b61003561004b565b6040516100429190610222565b60405180910390f35b61009d6040518061014001604052805f81526020015f81526020015f81526020015f81526020015f81526020015f81526020015f81526020015f81526020015f600f0b81526020015f600f0b81525090565b7f000000000000000000000000000000000000000000000000000000000000000081527f000000000000000000000000000000000000000000000000000000000000000060208201527f000000000000000000000000000000000000000000000000000000000000000060408201527f000000000000000000000000000000000000000000000000000000000000000060608201527f000000000000000000000000000000000000000000000000000000000000000060808201527f000000000000000000000000000000000000000000000000000000000000000060a08201527f000000000000000000000000000000000000000000000000000000000000000060c08201527f000000000000000000000000000000000000000000000000000000000000000060e08201527f0000000000000000000000000000000000000000000000000000000000000000600f90810b6101008301527f0000000000000000000000000000000000000000000000000000000000000000900b61012082015290565b5f61014082019050825182526020830151602083015260408301516040830152606083015160608301526080830151608083015260a083015160a083015260c083015160c083015260e083015160e083015261010083015161028a610100840182600f0b9052565b506101208301516102a1610120840182600f0b9052565b509291505056fea2646970667358221220cfd93da531f74d79a051408546fa39d9c252c269668b74d6d5770cc42c1697fd64736f6c634300081c0033a264697066735822122061e1b69ba34f55e34b37209638cef134867e9a7dcf206f3fbba7032b649061af64736f6c634300081c00336080604052348015600e575f5ffd5b506122d08061001c5f395ff3fe608060405234801561000f575f5ffd5b50600436106100f0575f3560e01c806384de969a11610093578063cfdfcffa11610063578063cfdfcffa14610270578063d8ae132e14610283578063e076a55114610296578063e48a5f7b146102a7575f5ffd5b806384de969a146101c6578063b78fec82146101d9578063c4d66de8146101fc578063c6c721b314610211575f5ffd5b80634fa165e6116100ce5780634fa165e61461014b57806362a09e9a1461017657806364efe177146101a457806381b51e0c146101b7575f5ffd5b80630f35b097146100f4578063109a006e1461012e578063313ce56714610144575b5f5ffd5b610107610102366004611d45565b6102c7565b60408051948552602085019390935291830152151560608201526080015b60405180910390f35b610136610750565b604051908152602001610125565b6012610136565b60015461015e906001600160a01b031681565b6040516001600160a01b039091168152602001610125565b610189610184366004611d45565b610768565b60408051938452602084019290925290820152606001610125565b6101366101b2366004611e1d565b61078a565b6101366799e8e8e3d530368181565b6101366101d4366004611e45565b61081e565b6101ec6101e7366004611e1d565b61092d565b6040519015158152602001610125565b61020f61020a366004611e6e565b6109c4565b005b61024b61021f366004611e6e565b5f60208190529081526040902054600d81810b91600160701b810490910b90600160e01b900460ff1683565b60408051600d94850b81529290930b6020830152151591810191909152606001610125565b61013661027e366004611e1d565b610a5d565b610136610291366004611d45565b610af4565b610136690de0b6b3a7640000000081565b6102ba6102b5366004611e6e565b610d63565b6040516101259190611e87565b5f5f5f5f886101000151600f0b9250886101200151600f0b91505f6040518061014001604052805f81526020015f81526020015f81526020015f81526020015f81526020015f81526020015f81526020015f81526020015f81526020015f81525090508587111561034b5760405163d22806e360e01b815260040160405180910390fd5b610356878703610e90565b8152670de0b6b3a764000061037461036f828c8c610ec5565b610e90565b61012083018190528b51829161038a9190611f21565b8c606001516103999190611f40565b6103a39190611f83565b6020808401919091528b0151610120830151131561048d57808b602001518361012001516103d19190611f21565b826103dc8782611faf565b8e608001516103eb9190611f40565b6103f59190611f83565b6103ff9190611f40565b6104099190611f83565b604083015260208b0151610120830151829161042491611f21565b828d60e001518e608001516104399190611f40565b6104439190611f83565b61044d9190611f40565b6104579190611f83565b82602001516104669190611faf565b6060830152815160e08c015161047c9190611f40565b6104869085611faf565b93506104fd565b6104c55f828d604001518561012001516104a79190611f21565b8e60a001516104b69190611f40565b6104c09190611f83565b610f29565b604083015260208201516060830152815160e08c01516104fa915f916104eb9190611f40565b6104f59087611f21565b610f42565b93505b808261012001518c60c001516105139190611f40565b61051d9190611f83565b60a0830181905261052f908690610f42565b94508160400151856105419190611faf565b6080830152815160608301516105579190611f40565b82608001516105669190611faf565b60c083015260a082015160808301511280159061058b57508160a001518260c0015112155b156105c757815160c08301516080840151600292916105a991611faf565b6105b39190611f40565b6105bd9190611f83565b60e08301526106d1565b8160a0015182608001511280156105e557508160a001518260c00151125b156105fb57815160a08301516105bd9190611f40565b8160a0015182608001511215801561061a57508160a001518260c00151125b15610675576002826060015160028460a00151856080015161063c9190611f21565b6106469190612105565b6106509190611f83565b61065a9190611f83565b825160a084015161066b9190611f40565b6105bd9190611f21565b6002826060015160028460a001518560c001516106929190611f21565b61069c9190612105565b6106a69190611f83565b6106b09190611f83565b825160a08401516106c19190611f40565b6106cb9190611faf565b60e08301525b815160208301516106f9916106e591611f40565b6106ef9087611faf565b8360a00151610f42565b945061070a8a8a8460e00151610f50565b835191975093505f9061072790889061072290611095565b6110ba565b909750905083806107355750805b15610741575f95505f94505b50505095509550955095915050565b610765690de0b6b3a764000000005f19612113565b81565b5f5f5f61077888888888886102c7565b50919a90995090975095505050505050565b5f5f836001600160a01b0316639ef2fda06040518163ffffffff1660e01b8152600401606060405180830381865afa1580156107c8573d5f5f3e3d5ffd5b505050506040513d601f19601f820116820180604052508101906107ec9190612126565b90506108166107fa85610d63565b82516020840151604085015167ffffffffffffffff1687610af4565b949350505050565b335f818152602081905260408120909190828061084661083d85610d63565b89898942610768565b855460ff60e01b1916600160e01b1786559196509250905060016001606f1b03821361088f5760016001606f1b031982126108815781610898565b60016001606f1b0319610898565b60016001606f1b035b83546dffffffffffffffffffffffffffff19166001600160701b039190911617835560016001606f1b0381136108eb5760016001606f1b031981126108dd57806108f4565b60016001606f1b03196108f4565b60016001606f1b035b83546001600160701b0391909116600160701b026dffffffffffffffffffffffffffff60701b1990911617909255509195945050505050565b5f5f836001600160a01b0316639ef2fda06040518163ffffffff1660e01b8152600401606060405180830381865afa15801561096b573d5f5f3e3d5ffd5b505050506040513d601f19601f8201168201806040525081019061098f9190612126565b90506109b961099d85610d63565b82516020840151604085015167ffffffffffffffff16876102c7565b979650505050505050565b6001600160a01b0381166109eb57604051639fabe1c160e01b815260040160405180910390fd5b6001546001600160a01b031615610a145760405162dc149f60e41b815260040160405180910390fd5b600180546001600160a01b0319166001600160a01b0383169081179091556040517f908408e307fc569b417f6cbec5d5a06f44a0a505ac0479b47d421a4b2fd6a1e6905f90a250565b5f5f836001600160a01b0316639ef2fda06040518163ffffffff1660e01b8152600401606060405180830381865afa158015610a9b573d5f5f3e3d5ffd5b505050506040513d601f19601f82011682018060405250810190610abf9190612126565b9050610ae9610acd85610d63565b82516020840151604085015167ffffffffffffffff1687610768565b509095945050505050565b5f81831115610b165760405163d22806e360e01b815260040160405180910390fd5b5f6040518060e001604052805f81526020015f81526020015f81526020015f81526020015f81526020015f81526020015f15158152509050610b5b87878787876102c7565b15801560c08601529250610b75915050575f915050610d5a565b610b80848403610e90565b8152610b9861036f670de0b6b3a76400008888610ec5565b6020808301829052670de0b6b3a764000060408401528801511215610c3f57806040015187602001518260200151610bd09190611f21565b6040830151835160e08b0151610be69190611f40565b8a6101200151600f0b8560400151610bfe9190611faf565b610c089190611faf565b8a60800151610c179190611f40565b610c219190611f83565b610c2b9190611f40565b610c359190611f83565b6060820152610c71565b610c6b5f826040015189604001518460200151610c5c9190611f21565b8a60a001516104b69190611f40565b60608201525b806040015181602001518860c00151610c8a9190611f40565b610c949190611f83565b60808201819052610100880151610cb191600f9190910b90610f42565b60a08201526040810151815188516020840151610d0f939291610cd391611f21565b8a60600151610ce29190611f40565b610cec9190611f40565b610cf69190611f83565b8260a00151610d059190611faf565b8260800151610f42565b60a082018190526060820151610d3b91610d3691610d2c91611faf565b8360800151610f42565b611095565b9150610d4b6301e133808361219e565b9150610d56826110ed565b9150505b95945050505050565b610db56040518061014001604052805f81526020015f81526020015f81526020015f81526020015f81526020015f81526020015f81526020015f81526020015f600f0b81526020015f600f0b81525090565b6001600160a01b038281165f908152602081815260409182902082516060810184529054600d81810b8352600160701b8204900b92820192909252600160e01b90910460ff1615158183015260015482516330fe427560e21b815292519193169163c3f909d4916004808301926101409291908290030181865afa158015610e3f573d5f5f3e3d5ffd5b505050506040513d601f19601f82011682018060405250810190610e6391906121c0565b9150806040015115610e8a578051600d90810b6101008401526020820151900b6101208301525b50919050565b5f6001600160ff1b03821115610ec15760405163123baf0360e11b8152600481018390526024015b60405180910390fd5b5090565b5f821580610ed1575081155b80610eda575083155b15610ee657505f610f22565b610ef08383612113565b610efb855f19612113565b1115610f1f57610f0d8285855f611105565b905083811115610f1a5750825b610f22565b50825b9392505050565b5f818312610f375781610f39565b825b90505b92915050565b5f818313610f375781610f39565b5f5f5f6799e8e8e3d53036818412610f7857690de0b6b3a76400000000925060019150610faf565b670de0b6b3a7640000610f8a85611147565b610f949190611f21565b90505f8113610fa3575f610fac565b610fac81611095565b92505b5f858711610fbd5785610fbf565b865b90507612725dd1d243aba0e75fe645cc4873f9e65afe688c928e8110610fed575f600193509350505061108d565b8386025f8190036110005750505061108d565b8685828161101057611010611f6f565b0414158061104157507612725dd1d243aba0e75fe645cc4873f9e65afe688c928e829003670de0b6b3a76400008204115b1561108957867612725dd1d243aba0e75fe645cc4873f9e65afe688c928e839003670de0b6b3a7640000028161107957611079611f6f565b0494506001935061108d92505050565b5050505b935093915050565b5f5f821215610ec157604051635467221960e11b815260048101839052602401610eb8565b5f80806110cd846502e24d16b5a861219e565b90508085116110dd57845f6110e1565b8060015b92509250509250929050565b5f68056bc75e2d63100000808311610f3c5782610f22565b5f6111326111128361119d565b801561112d57505f848061112857611128611f6f565b868809115b151590565b61113d8686866111c9565b610d5a9190612252565b5f68023f2fa8f6da5b9d311982121561116157505f919050565b6804cf46d8192b672ecc8212611175575f5ffd5b6714057b7ef767814f8202610f22670de0b6b3a76400006706f05b59d3b20000830105611286565b5f60028260038111156111b2576111b2612265565b6111bc9190612279565b60ff166001149050919050565b5f838302815f1985870982811083820303915050805f036111fd578382816111f3576111f3611f6f565b0492505050610f22565b80841161121b5761121b8415611214576011611308565b6012611308565b5f848688095f868103871696879004966002600389028118808a02820302808a02820302808a02820302808a02820302808a02820302808a02909103029181900381900460010186841190950394909402919094039290920491909117919091029150509392505050565b5f5f8212156112d75768033dd1780914b97114198212156112a857505f919050565b6112b3825f03611286565b6ec097ce7bc90715b34b9f1000000000816112d0576112d0611f6f565b0592915050565b6806f05b59d3b200000082126112eb575f5ffd5b670de0b6b3a7640000608083901b04610f2281611319565b919050565b634e487b715f52806020526024601cfd5b6001607f1b8181161561133d5770016a09e667f3bcc908b2fb1366ea957d3e0260801c5b6001607e1b821615611360577001306fe0a31b7152de8d5a46305c85eded0260801c5b6001607d1b821615611383577001172b83c7d517adcdf7c8c50eb14a79200260801c5b6001607c1b8216156113a65770010b5586cf9890f6298b92b71842a983640260801c5b6001607b1b8216156113c9577001059b0d31585743ae7c548eb68ca417fe0260801c5b6001607a1b8216156113ec57700102c9a3e778060ee6f7caca4f7a29bde90260801c5b600160791b82161561140f5770010163da9fb33356d84a66ae336dcdfa400260801c5b600160781b82161561143257700100b1afa5abcbed6129ab13ec11dc95440260801c5b600160771b8216156114555770010058c86da1c09ea1ff19d294cf2f679c0260801c5b600160761b821615611478577001002c605e2e8cec506d21bfc89a23a0110260801c5b600160751b82161561149b57700100162f3904051fa128bca9c55c31e5e00260801c5b600160741b8216156114be577001000b175effdc76ba38e31671ca9397260260801c5b600160731b8216156114e157700100058ba01fb9f96d6cacd4b180917c3e0260801c5b600160721b8216156115045770010002c5cc37da9491d0985c348c68e7b40260801c5b600160711b821615611527577001000162e525ee054754457d59952920270260801c5b600160701b82161561154a5770010000b17255775c040618bf4a4ade83fd0260801c5b6001606f1b82161561156d577001000058b91b5bc9ae2eed81e9b7d4cfac0260801c5b6001606e1b82161561159057700100002c5c89d5ec6ca4d7c8acc017b7ca0260801c5b6001606d1b8216156115b35770010000162e43f4f831060e02d839a9d16d0260801c5b6001606c1b8216156115d657700100000b1721bcfc99d9f890ea069117630260801c5b6001606b1b8216156115f95770010000058b90cf1e6d97f9ca14dbcc16290260801c5b6001606a1b82161561161c577001000002c5c863b73f016468f6bac5ca2c0260801c5b600160691b82161561163f57700100000162e430e5a18f6119e3c02282a60260801c5b600160681b821615611662577001000000b1721835514b86e6d96efd1bff0260801c5b600160671b82161561168557700100000058b90c0b48c6be5df846c5b2f00260801c5b600160661b8216156116a85770010000002c5c8601cc6b9e94213c72737b0260801c5b600160651b8216156116cb577001000000162e42fff037df38aa2b219f070260801c5b600160641b8216156116ee5770010000000b17217fba9c739aa5819f44fa0260801c5b600160631b821615611711577001000000058b90bfcdee5acd3c1cedc8240260801c5b600160621b82161561173457700100000002c5c85fe31f35a6a30da1be510260801c5b600160611b8216156117575770010000000162e42ff0999ce3541b9fffd00260801c5b600160601b82161561177a57700100000000b17217f80f4ef5aadda455540260801c5b6001605f1b82161561179d5770010000000058b90bfbf8479bd5a81b51ae0260801c5b6001605e1b8216156117c0577001000000002c5c85fdf84bd62ae30a74cd0260801c5b6001605d1b8216156117e357700100000000162e42fefb2fed257559bdaa0260801c5b6001605c1b821615611806577001000000000b17217f7d5a7716bba4a9af0260801c5b6001605b1b82161561182957700100000000058b90bfbe9ddbac5e109ccf0260801c5b6001605a1b82161561184c5770010000000002c5c85fdf4b15de6f17eb0e0260801c5b600160591b82161561186f577001000000000162e42fefa494f1478fde050260801c5b600160581b8216156118925770010000000000b17217f7d20cf927c8e94d0260801c5b600160571b8216156118b5577001000000000058b90bfbe8f71cb4e4b33e0260801c5b600160561b8216156118d857700100000000002c5c85fdf477b662b269460260801c5b600160551b8216156118fb5770010000000000162e42fefa3ae53369388d0260801c5b600160541b82161561191e57700100000000000b17217f7d1d351a389d410260801c5b600160531b8216156119415770010000000000058b90bfbe8e8b2d3d4edf0260801c5b600160521b821615611964577001000000000002c5c85fdf4741bea6e77f0260801c5b600160511b82161561198757700100000000000162e42fefa39fe95583c30260801c5b600160501b8216156119aa577001000000000000b17217f7d1cfb72b45e30260801c5b69800000000000000000008216156119d357700100000000000058b90bfbe8e7cc35c3f20260801c5b69400000000000000000008216156119fc5770010000000000002c5c85fdf473e242ea390260801c5b6920000000000000000000821615611a25577001000000000000162e42fefa39f02b772c0260801c5b6910000000000000000000821615611a4e5770010000000000000b17217f7d1cf7d83c1a0260801c5b6908000000000000000000821615611a77577001000000000000058b90bfbe8e7bdcbe2e0260801c5b6904000000000000000000821615611aa057700100000000000002c5c85fdf473dea871f0260801c5b6902000000000000000000821615611ac95770010000000000000162e42fefa39ef44d920260801c5b6901000000000000000000821615611af257700100000000000000b17217f7d1cf79e9490260801c5b68800000000000000000821615611b1a5770010000000000000058b90bfbe8e7bce5450260801c5b68400000000000000000821615611b42577001000000000000002c5c85fdf473de6eca0260801c5b68200000000000000000821615611b6a57700100000000000000162e42fefa39ef366f0260801c5b68100000000000000000821615611b92577001000000000000000b17217f7d1cf79afa0260801c5b68080000000000000000821615611bba57700100000000000000058b90bfbe8e7bcd6e0260801c5b68040000000000000000821615611be25770010000000000000002c5c85fdf473de6b30260801c5b68020000000000000000821615611c0a577001000000000000000162e42fefa39ef3590260801c5b68010000000000000000821615611c325770010000000000000000b17217f7d1cf79ac0260801c5b6001608083901c011b610f3c81670de0b6b3a7640000600160801b5f80805f19858709858702925082811083820303915050805f03611c81575f8411611c76575f5ffd5b508290049050610f22565b808411611c8c575f5ffd5b5f8486880960026001871981018816978890046003810283188082028403028082028403028082028403028082028403028082028403029081029092039091025f889003889004909101858311909403939093029303949094049190911702949350505050565b604051610140810167ffffffffffffffff81118282101715611d2357634e487b7160e01b5f52604160045260245ffd5b60405290565b80600f0b8114611d37575f5ffd5b50565b803561130381611d29565b5f5f5f5f5f8587036101c0811215611d5b575f5ffd5b610140811215611d69575f5ffd5b50611d72611cf3565b863581526020808801359082015260408088013590820152606080880135908201526080808801359082015260a0808801359082015260c0808801359082015260e08088013590820152611dc96101008801611d3a565b610100820152611ddc6101208801611d3a565b6101208201529761014087013597506101608701359661018081013596506101a00135945092505050565b80356001600160a01b0381168114611303575f5ffd5b5f5f60408385031215611e2e575f5ffd5b611e3783611e07565b946020939093013593505050565b5f5f5f60608486031215611e57575f5ffd5b505081359360208301359350604090920135919050565b5f60208284031215611e7e575f5ffd5b610f3982611e07565b5f61014082019050825182526020830151602083015260408301516040830152606083015160608301526080830151608083015260a083015160a083015260c083015160c083015260e083015160e0830152610100830151611eef610100840182600f0b9052565b50610120830151611f06610120840182600f0b9052565b5092915050565b634e487b7160e01b5f52601160045260245ffd5b8181035f831280158383131683831282161715611f0657611f06611f0d565b8082025f8212600160ff1b84141615611f5b57611f5b611f0d565b8181058314821517610f3c57610f3c611f0d565b634e487b7160e01b5f52601260045260245ffd5b5f82611f9157611f91611f6f565b600160ff1b82145f1984141615611faa57611faa611f0d565b500590565b8082018281125f831280158216821582161715611fce57611fce611f0d565b505092915050565b80825b600185111561201057808604811115611ff457611ff4611f0d565b600185161561200257908102905b60019490941c938002611fd9565b94509492505050565b5f82801561202e576001811461203857612041565b6001915050610f3c565b82915050610f3c565b508161204e57505f610f3c565b5060015f82138082146120665780156120855761209f565b6001600160ff1b0383900483111561208057612080611f0d565b61209f565b6001600160ff1b0383900583121561209f5761209f611f0d565b50808316156120ab5750805b6120c46001600160ff1b03600185901c84800284611fd6565b5f82136001600160ff1b03829004831116156120e2576120e2611f0d565b5f8212600160ff1b829005831216156120fd576120fd611f0d565b029392505050565b5f610f3960ff841683612019565b5f8261212157612121611f6f565b500490565b5f6060828403128015612137575f5ffd5b506040516060810167ffffffffffffffff8111828210171561216757634e487b7160e01b5f52604160045260245ffd5b6040908152835182526020808501519083015283015167ffffffffffffffff81168114612192575f5ffd5b60408201529392505050565b8082028115828204841417610f3c57610f3c611f0d565b805161130381611d29565b5f6101408284031280156121d2575f5ffd5b506121db611cf3565b825181526020808401519082015260408084015190820152606080840151908201526080808401519082015260a0808401519082015260c0808401519082015260e0808401519082015261223261010084016121b5565b61010082015261224561012084016121b5565b6101208201529392505050565b80820180821115610f3c57610f3c611f0d565b634e487b7160e01b5f52602160045260245ffd5b5f60ff83168061228b5761228b611f6f565b8060ff8416069150509291505056fea2646970667358221220254ada536fb5de4c1443c7b55a070f882cb76295e26174b5fef9dfb6ca6235f864736f6c634300081c0033",
  "language": "Solidity",
  "compiler": "0.8.28+commit.7893614a"
}