{
  "address": "0x7f4910C6B94C2D485fA01542551F41fD16bC067D",
  "abi": [
    {
      "type": "function",
      "name": "ALLOWED_ROLE",
      "inputs": [],
      "outputs": [
        {
          "name": "",
          "type": "bytes32",
          "internalType": "bytes32"
        }
      ],
      "stateMutability": "view"
    },
    {
      "type": "function",
      "name": "DEFAULT_ADMIN_ROLE",
      "inputs": [],
      "outputs": [
        {
          "name": "",
          "type": "bytes32",
          "internalType": "bytes32"
        }
      ],
      "stateMutability": "view"
    },
    {
      "type": "function",
      "name": "KEEPER_FEE",
      "inputs": [],
      "outputs": [
        {
          "name": "",
          "type": "uint256",
          "internalType": "uint256"
        }
      ],
      "stateMutability": "view"
    },
    {
      "type": "function",
      "name": "LIQUIDATION_LOGIC",
      "inputs": [],
      "outputs": [
        {
          "name": "",
          "type": "address",
          "internalType": "address"
        }
      ],
      "stateMutability": "view"
    },
    {
      "type": "function",
      "name": "LT_MARGIN_FOR_DEFAULTING",
      "inputs": [],
      "outputs": [
        {
          "name": "",
          "type": "uint256",
          "internalType": "uint256"
        }
      ],
      "stateMutability": "view"
    },
    {
      "type": "function",
      "name": "VERSION",
      "inputs": [],
      "outputs": [
        {
          "name": "",
          "type": "string",
          "internalType": "string"
        }
      ],
      "stateMutability": "view"
    },
    {
      "type": "function",
      "name": "acceptOwnership",
      "inputs": [],
      "outputs": [],
      "stateMutability": "nonpayable"
    },
    {
      "type": "function",
      "name": "afterAction",
      "inputs": [
        {
          "name": "_silo",
          "type": "address",
          "internalType": "address"
        },
        {
          "name": "_action",
          "type": "uint256",
          "internalType": "uint256"
        },
        {
          "name": "_inputAndOutput",
          "type": "bytes",
          "internalType": "bytes"
        }
      ],
      "outputs": [],
      "stateMutability": "nonpayable"
    },
    {
      "type": "function",
      "name": "beforeAction",
      "inputs": [
        {
          "name": "",
          "type": "address",
          "internalType": "address"
        },
        {
          "name": "",
          "type": "uint256",
          "internalType": "uint256"
        },
        {
          "name": "",
          "type": "bytes",
          "internalType": "bytes"
        }
      ],
      "outputs": [],
      "stateMutability": "nonpayable"
    },
    {
      "type": "function",
      "name": "configuredGauges",
      "inputs": [
        {
          "name": "",
          "type": "address",
          "internalType": "contract IShareToken"
        }
      ],
      "outputs": [
        {
          "name": "",
          "type": "address",
          "internalType": "contract ISiloIncentivesController"
        }
      ],
      "stateMutability": "view"
    },
    {
      "type": "function",
      "name": "getKeeperAndLenderSharesSplit",
      "inputs": [
        {
          "name": "_assetsToLiquidate",
          "type": "uint256",
          "internalType": "uint256"
        },
        {
          "name": "_collateralType",
          "type": "uint8",
          "internalType": "enum ISilo.CollateralType"
        }
      ],
      "outputs": [
        {
          "name": "totalSharesToLiquidate",
          "type": "uint256",
          "internalType": "uint256"
        },
        {
          "name": "keeperShares",
          "type": "uint256",
          "internalType": "uint256"
        },
        {
          "name": "lendersShares",
          "type": "uint256",
          "internalType": "uint256"
        }
      ],
      "stateMutability": "view"
    },
    {
      "type": "function",
      "name": "getRoleAdmin",
      "inputs": [
        {
          "name": "role",
          "type": "bytes32",
          "internalType": "bytes32"
        }
      ],
      "outputs": [
        {
          "name": "",
          "type": "bytes32",
          "internalType": "bytes32"
        }
      ],
      "stateMutability": "view"
    },
    {
      "type": "function",
      "name": "getRoleMember",
      "inputs": [
        {
          "name": "role",
          "type": "bytes32",
          "internalType": "bytes32"
        },
        {
          "name": "index",
          "type": "uint256",
          "internalType": "uint256"
        }
      ],
      "outputs": [
        {
          "name": "",
          "type": "address",
          "internalType": "address"
        }
      ],
      "stateMutability": "view"
    },
    {
      "type": "function",
      "name": "getRoleMemberCount",
      "inputs": [
        {
          "name": "role",
          "type": "bytes32",
          "internalType": "bytes32"
        }
      ],
      "outputs": [
        {
          "name": "",
          "type": "uint256",
          "internalType": "uint256"
        }
      ],
      "stateMutability": "view"
    },
    {
      "type": "function",
      "name": "getRoleMembers",
      "inputs": [
        {
          "name": "role",
          "type": "bytes32",
          "internalType": "bytes32"
        }
      ],
      "outputs": [
        {
          "name": "",
          "type": "address[]",
          "internalType": "address[]"
        }
      ],
      "stateMutability": "view"
    },
    {
      "type": "function",
      "name": "grantRole",
      "inputs": [
        {
          "name": "role",
          "type": "bytes32",
          "internalType": "bytes32"
        },
        {
          "name": "account",
          "type": "address",
          "internalType": "address"
        }
      ],
      "outputs": [],
      "stateMutability": "nonpayable"
    },
    {
      "type": "function",
      "name": "hasRole",
      "inputs": [
        {
          "name": "role",
          "type": "bytes32",
          "internalType": "bytes32"
        },
        {
          "name": "account",
          "type": "address",
          "internalType": "address"
        }
      ],
      "outputs": [
        {
          "name": "",
          "type": "bool",
          "internalType": "bool"
        }
      ],
      "stateMutability": "view"
    },
    {
      "type": "function",
      "name": "hookReceiverConfig",
      "inputs": [
        {
          "name": "_silo",
          "type": "address",
          "internalType": "address"
        }
      ],
      "outputs": [
        {
          "name": "hooksBefore",
          "type": "uint24",
          "internalType": "uint24"
        },
        {
          "name": "hooksAfter",
          "type": "uint24",
          "internalType": "uint24"
        }
      ],
      "stateMutability": "view"
    },
    {
      "type": "function",
      "name": "initialize",
      "inputs": [
        {
          "name": "_config",
          "type": "address",
          "internalType": "contract ISiloConfig"
        },
        {
          "name": "_data",
          "type": "bytes",
          "internalType": "bytes"
        }
      ],
      "outputs": [],
      "stateMutability": "nonpayable"
    },
    {
      "type": "function",
      "name": "liquidationCall",
      "inputs": [
        {
          "name": "_collateralAsset",
          "type": "address",
          "internalType": "address"
        },
        {
          "name": "_debtAsset",
          "type": "address",
          "internalType": "address"
        },
        {
          "name": "_borrower",
          "type": "address",
          "internalType": "address"
        },
        {
          "name": "_maxDebtToCover",
          "type": "uint256",
          "internalType": "uint256"
        },
        {
          "name": "_receiveSToken",
          "type": "bool",
          "internalType": "bool"
        }
      ],
      "outputs": [
        {
          "name": "withdrawCollateral",
          "type": "uint256",
          "internalType": "uint256"
        },
        {
          "name": "repayDebtAssets",
          "type": "uint256",
          "internalType": "uint256"
        }
      ],
      "stateMutability": "nonpayable"
    },
    {
      "type": "function",
      "name": "liquidationCallByDefaulting",
      "inputs": [
        {
          "name": "_borrower",
          "type": "address",
          "internalType": "address"
        }
      ],
      "outputs": [
        {
          "name": "withdrawCollateral",
          "type": "uint256",
          "internalType": "uint256"
        },
        {
          "name": "repayDebtAssets",
          "type": "uint256",
          "internalType": "uint256"
        }
      ],
      "stateMutability": "nonpayable"
    },
    {
      "type": "function",
      "name": "liquidationCallByDefaulting",
      "inputs": [
        {
          "name": "_borrower",
          "type": "address",
          "internalType": "address"
        },
        {
          "name": "_maxDebtToCover",
          "type": "uint256",
          "internalType": "uint256"
        }
      ],
      "outputs": [
        {
          "name": "withdrawCollateral",
          "type": "uint256",
          "internalType": "uint256"
        },
        {
          "name": "repayDebtAssets",
          "type": "uint256",
          "internalType": "uint256"
        }
      ],
      "stateMutability": "nonpayable"
    },
    {
      "type": "function",
      "name": "maxLiquidation",
      "inputs": [
        {
          "name": "_borrower",
          "type": "address",
          "internalType": "address"
        }
      ],
      "outputs": [
        {
          "name": "collateralToLiquidate",
          "type": "uint256",
          "internalType": "uint256"
        },
        {
          "name": "debtToRepay",
          "type": "uint256",
          "internalType": "uint256"
        },
        {
          "name": "sTokenRequired",
          "type": "bool",
          "internalType": "bool"
        }
      ],
      "stateMutability": "view"
    },
    {
      "type": "function",
      "name": "owner",
      "inputs": [],
      "outputs": [
        {
          "name": "",
          "type": "address",
          "internalType": "address"
        }
      ],
      "stateMutability": "view"
    },
    {
      "type": "function",
      "name": "pendingOwner",
      "inputs": [],
      "outputs": [
        {
          "name": "",
          "type": "address",
          "internalType": "address"
        }
      ],
      "stateMutability": "view"
    },
    {
      "type": "function",
      "name": "removeGauge",
      "inputs": [
        {
          "name": "_shareToken",
          "type": "address",
          "internalType": "contract IShareToken"
        }
      ],
      "outputs": [],
      "stateMutability": "nonpayable"
    },
    {
      "type": "function",
      "name": "renounceOwnership",
      "inputs": [],
      "outputs": [],
      "stateMutability": "nonpayable"
    },
    {
      "type": "function",
      "name": "renounceRole",
      "inputs": [
        {
          "name": "role",
          "type": "bytes32",
          "internalType": "bytes32"
        },
        {
          "name": "callerConfirmation",
          "type": "address",
          "internalType": "address"
        }
      ],
      "outputs": [],
      "stateMutability": "nonpayable"
    },
    {
      "type": "function",
      "name": "revokeRole",
      "inputs": [
        {
          "name": "role",
          "type": "bytes32",
          "internalType": "bytes32"
        },
        {
          "name": "account",
          "type": "address",
          "internalType": "address"
        }
      ],
      "outputs": [],
      "stateMutability": "nonpayable"
    },
    {
      "type": "function",
      "name": "setGauge",
      "inputs": [
        {
          "name": "_gauge",
          "type": "address",
          "internalType": "contract ISiloIncentivesController"
        },
        {
          "name": "_shareToken",
          "type": "address",
          "internalType": "contract IShareToken"
        }
      ],
      "outputs": [],
      "stateMutability": "nonpayable"
    },
    {
      "type": "function",
      "name": "siloConfig",
      "inputs": [],
      "outputs": [
        {
          "name": "",
          "type": "address",
          "internalType": "contract ISiloConfig"
        }
      ],
      "stateMutability": "view"
    },
    {
      "type": "function",
      "name": "supportsInterface",
      "inputs": [
        {
          "name": "interfaceId",
          "type": "bytes4",
          "internalType": "bytes4"
        }
      ],
      "outputs": [
        {
          "name": "",
          "type": "bool",
          "internalType": "bool"
        }
      ],
      "stateMutability": "view"
    },
    {
      "type": "function",
      "name": "transferOwnership",
      "inputs": [
        {
          "name": "newOwner",
          "type": "address",
          "internalType": "address"
        }
      ],
      "outputs": [],
      "stateMutability": "nonpayable"
    },
    {
      "type": "function",
      "name": "transferOwnership1Step",
      "inputs": [
        {
          "name": "newOwner",
          "type": "address",
          "internalType": "address"
        }
      ],
      "outputs": [],
      "stateMutability": "nonpayable"
    },
    {
      "type": "function",
      "name": "validateControllerForCollateral",
      "inputs": [
        {
          "name": "_silo",
          "type": "address",
          "internalType": "address"
        }
      ],
      "outputs": [
        {
          "name": "controllerCollateral",
          "type": "address",
          "internalType": "contract ISiloIncentivesController"
        }
      ],
      "stateMutability": "view"
    },
    {
      "type": "function",
      "name": "validateDefaultingCollateral",
      "inputs": [],
      "outputs": [],
      "stateMutability": "view"
    },
    {
      "type": "event",
      "name": "DefaultingLiquidation",
      "inputs": [
        {
          "name": "canceledDebt",
          "type": "uint256",
          "indexed": false,
          "internalType": "uint256"
        },
        {
          "name": "deductedFromCollateral",
          "type": "uint256",
          "indexed": false,
          "internalType": "uint256"
        }
      ],
      "anonymous": false
    },
    {
      "type": "event",
      "name": "GaugeConfigured",
      "inputs": [
        {
          "name": "gauge",
          "type": "address",
          "indexed": false,
          "internalType": "address"
        },
        {
          "name": "shareToken",
          "type": "address",
          "indexed": false,
          "internalType": "address"
        }
      ],
      "anonymous": false
    },
    {
      "type": "event",
      "name": "GaugeRemoved",
      "inputs": [
        {
          "name": "shareToken",
          "type": "address",
          "indexed": false,
          "internalType": "address"
        }
      ],
      "anonymous": false
    },
    {
      "type": "event",
      "name": "HookConfigured",
      "inputs": [
        {
          "name": "silo",
          "type": "address",
          "indexed": false,
          "internalType": "address"
        },
        {
          "name": "hooksBefore",
          "type": "uint24",
          "indexed": false,
          "internalType": "uint24"
        },
        {
          "name": "hooksAfter",
          "type": "uint24",
          "indexed": false,
          "internalType": "uint24"
        }
      ],
      "anonymous": false
    },
    {
      "type": "event",
      "name": "Initialized",
      "inputs": [
        {
          "name": "version",
          "type": "uint64",
          "indexed": false,
          "internalType": "uint64"
        }
      ],
      "anonymous": false
    },
    {
      "type": "event",
      "name": "LiquidationCall",
      "inputs": [
        {
          "name": "liquidator",
          "type": "address",
          "indexed": true,
          "internalType": "address"
        },
        {
          "name": "silo",
          "type": "address",
          "indexed": true,
          "internalType": "address"
        },
        {
          "name": "borrower",
          "type": "address",
          "indexed": true,
          "internalType": "address"
        },
        {
          "name": "repayDebtAssets",
          "type": "uint256",
          "indexed": false,
          "internalType": "uint256"
        },
        {
          "name": "withdrawCollateral",
          "type": "uint256",
          "indexed": false,
          "internalType": "uint256"
        },
        {
          "name": "receiveSToken",
          "type": "bool",
          "indexed": false,
          "internalType": "bool"
        }
      ],
      "anonymous": false
    },
    {
      "type": "event",
      "name": "OwnershipTransferStarted",
      "inputs": [
        {
          "name": "previousOwner",
          "type": "address",
          "indexed": true,
          "internalType": "address"
        },
        {
          "name": "newOwner",
          "type": "address",
          "indexed": true,
          "internalType": "address"
        }
      ],
      "anonymous": false
    },
    {
      "type": "event",
      "name": "OwnershipTransferred",
      "inputs": [
        {
          "name": "previousOwner",
          "type": "address",
          "indexed": true,
          "internalType": "address"
        },
        {
          "name": "newOwner",
          "type": "address",
          "indexed": true,
          "internalType": "address"
        }
      ],
      "anonymous": false
    },
    {
      "type": "event",
      "name": "RoleAdminChanged",
      "inputs": [
        {
          "name": "role",
          "type": "bytes32",
          "indexed": true,
          "internalType": "bytes32"
        },
        {
          "name": "previousAdminRole",
          "type": "bytes32",
          "indexed": true,
          "internalType": "bytes32"
        },
        {
          "name": "newAdminRole",
          "type": "bytes32",
          "indexed": true,
          "internalType": "bytes32"
        }
      ],
      "anonymous": false
    },
    {
      "type": "event",
      "name": "RoleGranted",
      "inputs": [
        {
          "name": "role",
          "type": "bytes32",
          "indexed": true,
          "internalType": "bytes32"
        },
        {
          "name": "account",
          "type": "address",
          "indexed": true,
          "internalType": "address"
        },
        {
          "name": "sender",
          "type": "address",
          "indexed": true,
          "internalType": "address"
        }
      ],
      "anonymous": false
    },
    {
      "type": "event",
      "name": "RoleRevoked",
      "inputs": [
        {
          "name": "role",
          "type": "bytes32",
          "indexed": true,
          "internalType": "bytes32"
        },
        {
          "name": "account",
          "type": "address",
          "indexed": true,
          "internalType": "address"
        },
        {
          "name": "sender",
          "type": "address",
          "indexed": true,
          "internalType": "address"
        }
      ],
      "anonymous": false
    },
    {
      "type": "error",
      "name": "AccessControlBadConfirmation",
      "inputs": []
    },
    {
      "type": "error",
      "name": "AccessControlUnauthorizedAccount",
      "inputs": [
        {
          "name": "account",
          "type": "address",
          "internalType": "address"
        },
        {
          "name": "neededRole",
          "type": "bytes32",
          "internalType": "bytes32"
        }
      ]
    },
    {
      "type": "error",
      "name": "AddressEmptyCode",
      "inputs": [
        {
          "name": "target",
          "type": "address",
          "internalType": "address"
        }
      ]
    },
    {
      "type": "error",
      "name": "AlreadyConfigured",
      "inputs": []
    },
    {
      "type": "error",
      "name": "CantRemoveActiveGauge",
      "inputs": []
    },
    {
      "type": "error",
      "name": "CollateralNotSupportedForDefaulting",
      "inputs": []
    },
    {
      "type": "error",
      "name": "DeductDefaultedDebtFromCollateralFailed",
      "inputs": []
    },
    {
      "type": "error",
      "name": "EmptyCollateralShareToken",
      "inputs": []
    },
    {
      "type": "error",
      "name": "EmptyGaugeAddress",
      "inputs": []
    },
    {
      "type": "error",
      "name": "EmptySiloConfig",
      "inputs": []
    },
    {
      "type": "error",
      "name": "FailedCall",
      "inputs": []
    },
    {
      "type": "error",
      "name": "FullLiquidationRequired",
      "inputs": []
    },
    {
      "type": "error",
      "name": "GaugeAlreadyConfigured",
      "inputs": []
    },
    {
      "type": "error",
      "name": "GaugeIsNotConfigured",
      "inputs": []
    },
    {
      "type": "error",
      "name": "InsufficientBalance",
      "inputs": [
        {
          "name": "balance",
          "type": "uint256",
          "internalType": "uint256"
        },
        {
          "name": "needed",
          "type": "uint256",
          "internalType": "uint256"
        }
      ]
    },
    {
      "type": "error",
      "name": "InvalidInitialization",
      "inputs": []
    },
    {
      "type": "error",
      "name": "InvalidLTConfig0",
      "inputs": []
    },
    {
      "type": "error",
      "name": "InvalidLTConfig1",
      "inputs": []
    },
    {
      "type": "error",
      "name": "InvalidShareToken",
      "inputs": []
    },
    {
      "type": "error",
      "name": "NoCollateralToLiquidate",
      "inputs": []
    },
    {
      "type": "error",
      "name": "NoControllerForCollateral",
      "inputs": []
    },
    {
      "type": "error",
      "name": "NoDebtToCover",
      "inputs": []
    },
    {
      "type": "error",
      "name": "NoRepayAssets",
      "inputs": []
    },
    {
      "type": "error",
      "name": "NotInitializing",
      "inputs": []
    },
    {
      "type": "error",
      "name": "OnlyAllowedRole",
      "inputs": []
    },
    {
      "type": "error",
      "name": "OnlySilo",
      "inputs": []
    },
    {
      "type": "error",
      "name": "OnlySiloOrShareToken",
      "inputs": []
    },
    {
      "type": "error",
      "name": "OwnableInvalidOwner",
      "inputs": [
        {
          "name": "owner",
          "type": "address",
          "internalType": "address"
        }
      ]
    },
    {
      "type": "error",
      "name": "OwnableUnauthorizedAccount",
      "inputs": [
        {
          "name": "account",
          "type": "address",
          "internalType": "address"
        }
      ]
    },
    {
      "type": "error",
      "name": "OwnerIsZeroAddress",
      "inputs": []
    },
    {
      "type": "error",
      "name": "ReentrancyGuardReentrantCall",
      "inputs": []
    },
    {
      "type": "error",
      "name": "RepayDebtByDefaultingFailed",
      "inputs": []
    },
    {
      "type": "error",
      "name": "RequestNotSupported",
      "inputs": []
    },
    {
      "type": "error",
      "name": "SafeERC20FailedOperation",
      "inputs": [
        {
          "name": "token",
          "type": "address",
          "internalType": "address"
        }
      ]
    },
    {
      "type": "error",
      "name": "TwoWayMarketNotAllowed",
      "inputs": []
    },
    {
      "type": "error",
      "name": "UnexpectedCollateralToken",
      "inputs": []
    },
    {
      "type": "error",
      "name": "UnexpectedDebtToken",
      "inputs": []
    },
    {
      "type": "error",
      "name": "UnknownRatio",
      "inputs": []
    },
    {
      "type": "error",
      "name": "UserIsSolvent",
      "inputs": []
    },
    {
      "type": "error",
      "name": "WithdrawSharesForLendersTooHighForDistribution",
      "inputs": []
    },
    {
      "type": "error",
      "name": "WrongGaugeShareToken",
      "inputs": []
    }
  ],
  "bytecode": "0x60a060405234801561000f575f5ffd5b50338061001a610093565b6001600160a01b03811661004757604051631e4fbdf760e01b81525f600482015260240160405180910390fd5b61005081610145565b5061005c90505f610145565b604051610068906101aa565b604051809103905ff080158015610081573d5f5f3e3d5ffd5b506001600160a01b03166080526101b7565b7ff0c57e16840df040f15088dc2f81fe391c3923bec73e23a9662efc9c229c6a00805468010000000000000000900460ff16156100e35760405163f92ee8a960e01b815260040160405180910390fd5b80546001600160401b03908116146101425780546001600160401b0319166001600160401b0390811782556040519081527fc7f505b2f371ae2175ee4913f4499e1f2633a7b5936321eed1cdaeb6115181d29060200160405180910390a15b50565b600380546001600160a01b031916905561014281600280546001600160a01b038381166001600160a01b0319831681179093556040519116919082907f8be0079c531659141344cd1fd0a4f28419497f9722a3daafe3b4186f6b6457e0905f90a35050565b6103ca8061480b83390190565b6080516146356101d65f395f818161041f01526134e801526146355ff3fe608060405234801561000f575f5ffd5b5060043610610212575f3560e01c8063a217fddf1161011f578063d32f7154116100a9578063e30c397811610079578063e30c397814610509578063e4784fa91461051a578063f2fde38b14610549578063fc5bcd381461055c578063ffa1ad741461056f575f5ffd5b8063d32f7154146104aa578063d547741f146104d1578063d714fd19146104e4578063e1b97139146104f6575f5ffd5b8063b24972ee116100ef578063b24972ee1461041a578063b55cb64214610441578063bd02d84814610454578063ca15c87314610484578063d1f5789414610497575f5ffd5b8063a217fddf146103b8578063a3246ad3146103bf578063a37d9411146103df578063aef2823514610407575f5ffd5b80633a045145116101a0578063715018a611610170578063715018a61461035d57806379ba5097146103655780638da5cb5b1461036d5780639010d07c1461039257806391d14854146103a5575f5ffd5b80633a0451451461031a5780633d1b760b1461032d578063430f09941461033c578063632c2d851461034f575f5ffd5b8063237e6d64116101e6578063237e6d641461029e578063248a9ca3146102b15780632f2ff15d146102e157806335cb1099146102f457806336568abe14610307575f5ffd5b8062a718a91461021657806301ffc9a7146102435780630b85609b146102665780631f9c9dfc14610270575b5f5ffd5b610229610224366004613a85565b6105ab565b604080519283526020830191909152015b60405180910390f35b610256610251366004613afe565b610ace565b604051901515815260200161023a565b61026e610af8565b005b61028361027e366004613b19565b610cfb565b6040805193845260208401929092529082015260600161023a565b61026e6102ac366004613b4a565b610d2e565b6102d36102bf366004613b76565b5f9081526005602052604090206001015490565b60405190815260200161023a565b61026e6102ef366004613b8d565b610f6b565b61026e610302366004613bee565b610f8f565b61026e610315366004613b8d565b610fce565b61026e610328366004613c46565b611006565b6102d36702c68af0bb14000081565b61022961034a366004613c46565b6110a3565b6102d36658d15e1762800081565b61026e6110ba565b61026e6110cd565b6002546001600160a01b03165b6040516001600160a01b03909116815260200161023a565b61037a6103a0366004613c61565b611116565b6102566103b3366004613b8d565b611134565b6102d35f81565b6103d26103cd366004613b76565b61115e565b60405161023a9190613c81565b61037a6103ed366004613c46565b60046020525f90815260409020546001600160a01b031681565b61026e610415366004613bee565b611177565b61037a7f000000000000000000000000000000000000000000000000000000000000000081565b61037a61044f366004613c46565b6111a9565b610467610462366004613c46565b6112d8565b60408051938452602084019290925215159082015260600161023a565b6102d3610492366004613b76565b61136f565b61026e6104a5366004613ccc565b611385565b6102d37fd5dc6b389d0dd5687ab5bd9338f760ebeaff2d2852a93a9a9ebaebbfefc763ac81565b61026e6104df366004613b8d565b6114b7565b5f5461037a906001600160a01b031681565b61026e610504366004613c46565b6114db565b6003546001600160a01b031661037a565b61052d610528366004613c46565b61150c565b6040805162ffffff93841681529290911660208301520161023a565b61026e610557366004613c46565b611551565b61022961056a366004613d1d565b6115c2565b61059e6040518060400160405280601081526020016f053696c6f486f6f6b563220342e302e360841b81525081565b60405161023a9190613d75565b5f8060ff815c16156105d057604051633ee5aeb560e01b815260040160405180910390fd5b60015f805c60ff19168217905d505f546001600160a01b031680610607576040516379c39cf960e01b815260040160405180910390fd5b845f03610627576040516317ff0e0960e11b815260040160405180910390fd5b806001600160a01b0316639dd413306040518163ffffffff1660e01b81526004015f604051808303815f87803b15801561065f575f5ffd5b505af1158015610671573d5f5f3e3d5ffd5b505050505f5f610683838b8b8b611a9a565b915091506106be6040518060a001604052805f81526020015f81526020015f81526020015f81526020015f6001600160e01b03191681525090565b6101a0830151604051636da707db60e01b815273__$13ae51f56eab8417585cbbba140ac4e457$__91636da707db9161070291879187918f918f9190600401613edf565b608060405180830381865af415801561071d573d5f5f3e3d5ffd5b505050506040513d601f19601f820116820180604052508101906107419190613f24565b6001600160e01b031916608085018190526060850192909252604084019290925290955061076e90611cb7565b8785111561078f5760405163d65db62d60e01b815260040160405180910390fd5b60608201516107a9906001600160a01b0316333088611cd4565b6107cf82604001518684606001516001600160a01b0316611d2e9092919063ffffffff16565b5f876107db57306107dd565b335b90506107fa84604001518b8385604001518860a001516001611db5565b825260408401516060830151608086015161081b92918d918591905f611db5565b826020018181525050846001600160a01b03166362402b046040518163ffffffff1660e01b81526004015f604051808303815f87803b15801561085c575f5ffd5b505af115801561086e573d5f5f3e3d5ffd5b505050604080850151905163acb7081560e01b8152600481018990526001600160a01b038d81166024830152909116915063acb70815906044016020604051808303815f875af11580156108c4573d5f5f3e3d5ffd5b505050506040513d601f19601f820116820180604052508101906108e89190613f64565b5081511515806108fb5750602082015115155b6109185760405163797c40e160e01b815260040160405180910390fd5b8715610a265781511561099d576040808501518351915163a7d6e44b60e01b81526001600160a01b039091169163a7d6e44b9161095b9190600190600401613f9f565b602060405180830381865afa158015610976573d5f5f3e3d5ffd5b505050506040513d601f19601f8201168201806040525081019061099a9190613f64565b96505b602082015115610a215783604001516001600160a01b031663a7d6e44b83602001515f6040518363ffffffff1660e01b81526004016109dd929190613f9f565b602060405180830381865afa1580156109f8573d5f5f3e3d5ffd5b505050506040513d601f19601f82011682018060405250810190610a1c9190613f64565b870196505b610a5d565b610a3e84604001518560a00151845f01516001611f12565b9650610a588460400151856080015184602001515f611f12565b870196505b6040838101518151888152602081018a90528a15158184015291516001600160a01b038d81169392169133917f3a84f64446e8eada995aa9da2ddbfcd9b5d5d650503b19f024096d04c05ef2a99181900360600190a4505f93505050815c60ff19169050815d509550959350505050565b5f6001600160e01b03198216635a05180f60e01b1480610af25750610af28261206b565b92915050565b5f80546040805163aecc90cb60e01b8152815184936001600160a01b03169263aecc90cb92600480820193918290030181865afa158015610b3b573d5f5f3e3d5ffd5b505050506040513d601f19601f82011682018060405250810190610b5f9190613fcc565b5f805460405163e48a5f7b60e01b81526001600160a01b0380861660048301529496509294509092169063e48a5f7b9060240161022060405180830381865afa158015610bae573d5f5f3e3d5ffd5b505050506040513d601f19601f82011682018060405250810190610bd2919061418b565b5f805460405163e48a5f7b60e01b81526001600160a01b0386811660048301529394509192169063e48a5f7b9060240161022060405180830381865afa158015610c1e573d5f5f3e3d5ffd5b505050506040513d601f19601f82011682018060405250810190610c42919061418b565b90508161016001515f1480610c5a5750610160810151155b610c77576040516329c5f0dd60e21b815260040160405180910390fd5b670de0b6b3a76400006658d15e17628000836101600151610c9891906141ba565b10610cb65760405163732481ab60e01b815260040160405180910390fd5b670de0b6b3a76400006658d15e17628000826101600151610cd791906141ba565b10610cf5576040516312b0b4f560e21b815260040160405180910390fd5b50505050565b5f5f5f5f5f5f610d0a8761209f565b925092509250610d1d8383838b8b61223e565b919a90995090975095505050505050565b610d366123dc565b6001600160a01b038216610d5d5760405163d1af83ef60e01b815260040160405180910390fd5b806001600160a01b0316826001600160a01b0316631d7e35566040518163ffffffff1660e01b8152600401602060405180830381865afa158015610da3573d5f5f3e3d5ffd5b505050506040513d601f19601f82011682018060405250810190610dc791906141cd565b6001600160a01b031614610dee5760405163060a0aaf60e41b815260040160405180910390fd5b6001600160a01b038082165f90815260046020526040902054168015610e275760405163d0c7225560e01b815260040160405180910390fd5b5f826001600160a01b031663eb3beb296040518163ffffffff1660e01b8152600401602060405180830381865afa158015610e64573d5f5f3e3d5ffd5b505050506040513d601f19601f82011682018060405250810190610e8891906141cd565b90505f610e958285612409565b6001600160a01b0383165f90815260016020526040812054919250906301000000900462ffffff1690506104008217610ecd82821790565b9150610efc84610ef6866001600160a01b03165f9081526001602052604090205462ffffff1690565b8461250c565b6001600160a01b038681165f8181526004602090815260409182902080546001600160a01b031916948c16948517905581519384528301919091527f213d54ca7d6adb897962b4f78f6c2424aa527ee584f57a6000f961c507e0ec27910160405180910390a150505050505050565b5f82815260056020526040902060010154610f85816125ef565b610cf583836125f9565b610f983361262c565b610fb5576040516310528c6d60e11b815260040160405180910390fd5b604051632a188cb160e21b815260040160405180910390fd5b6001600160a01b0381163314610ff75760405163334bd91960e11b815260040160405180910390fd5b61100182826126d3565b505050565b61100e6123dc565b6001600160a01b038082165f90815260046020526040902054168061104657604051632e77844760e21b815260040160405180910390fd5b6001600160a01b0382165f8181526004602090815260409182902080546001600160a01b031916905590519182527f94ac12f5301759f065db9de7f23677e50bef009f062b028d4d4612f620f0f5fb910160405180910390a15050565b5f5f6110b0835f196115c2565b9094909350915050565b6110c26123dc565b6110cb5f6126fe565b565b60035433906001600160a01b0316811461110a5760405163118cdaa760e01b81526001600160a01b03821660048201526024015b60405180910390fd5b611113816126fe565b50565b5f82815260066020526040812061112d9083612717565b9392505050565b5f9182526005602090815260408084206001600160a01b0393909316845291905290205460ff1690565b5f818152600660205260409020606090610af290612722565b6111803361272e565b61119d576040516358ec9b7760e11b815260040160405180910390fd5b610cf584848484612945565b5f8054604051630483b24f60e41b81526001600160a01b0384811660048301528392169063483b24f090602401606060405180830381865afa1580156111f1573d5f5f3e3d5ffd5b505050506040513d601f19601f8201168201806040525081019061121591906141e8565b509150506001600160a01b03811661124057604051638b3f447160e01b815260040160405180910390fd5b60405163a37d941160e01b81526001600160a01b0382166004820152309063a37d941190602401602060405180830381865afa158015611282573d5f5f3e3d5ffd5b505050506040513d601f19601f820116820180604052508101906112a691906141cd565b91506001600160a01b0382166112d257604051600162036e1560e11b0319815260040160405180910390fd5b50919050565b5f8054604051631c2b1ded60e01b81526001600160a01b03918216600482015290831660248201528190819073__$13ae51f56eab8417585cbbba140ac4e457$__90631c2b1ded90604401606060405180830381865af415801561133e573d5f5f3e3d5ffd5b505050506040513d601f19601f820116820180604052508101906113629190614232565b9250925092509193909250565b5f818152600660205260408120610af290612a85565b7ff0c57e16840df040f15088dc2f81fe391c3923bec73e23a9662efc9c229c6a008054600160401b810460ff16159067ffffffffffffffff165f811580156113ca5750825b90505f8267ffffffffffffffff1660011480156113e65750303b155b9050811580156113f4575080155b156114125760405163f92ee8a960e01b815260040160405180910390fd5b845467ffffffffffffffff19166001178555831561143c57845460ff60401b1916600160401b1785555b5f61144987890189613c46565b905061145489612a8e565b61145d81612b07565b61146681612b36565b5083156114ad57845460ff60401b19168555604051600181527fc7f505b2f371ae2175ee4913f4499e1f2633a7b5936321eed1cdaeb6115181d29060200160405180910390a15b5050505050505050565b5f828152600560205260409020600101546114d1816125ef565b610cf583836126d3565b6114e36123dc565b6001600160a01b03811661110a57604051631e4fbdf760e01b81525f6004820152602401611101565b6001600160a01b0381165f90815260016020908152604080832081518083019092525462ffffff808216808452630100000090920416919092018190528291906110b0565b6115596123dc565b600380546001600160a01b0383166001600160a01b0319909116811790915561158a6002546001600160a01b031690565b6001600160a01b03167f38d16b8cac22d99fc7c124b9cd0de2d3fa1faef420bfe791d8c362d765e2270060405160405180910390a350565b5f8060ff815c16156115e757604051633ee5aeb560e01b815260040160405180910390fd5b60015f805c60ff19168217905d5061161e7fd5dc6b389d0dd5687ab5bd9338f760ebeaff2d2852a93a9a9ebaebbfefc763ac61136f565b158061164f575061164f7fd5dc6b389d0dd5687ab5bd9338f760ebeaff2d2852a93a9a9ebaebbfefc763ac33611134565b61166c576040516394572de960e01b815260040160405180910390fd5b5f546001600160a01b031680611695576040516379c39cf960e01b815260040160405180910390fd5b806001600160a01b0316639dd413306040518163ffffffff1660e01b81526004015f604051808303815f87803b1580156116cd575f5ffd5b505af11580156116df573d5f5f3e3d5ffd5b505050505f5f6116ef8388612b4f565b915091506658d15e17628000826101600181815161170d91906141ba565b915081815250506117646040518061012001604052805f81526020015f81526020015f81526020015f81526020015f81526020015f81526020015f81526020015f81526020015f6001600160e01b03191681525090565b6101a0830151604051636da707db60e01b815273__$13ae51f56eab8417585cbbba140ac4e457$__91636da707db916117a891879187918e918e9190600401613edf565b608060405180830381865af41580156117c3573d5f5f3e3d5ffd5b505050506040513d601f19601f820116820180604052508101906117e79190613f24565b6001600160e01b03191661010085018190526060850192909252604084019290925290955061181590611cb7565b61183483604001518460a00151856101a001518460400151600161223e565b60a08401526080808401919091529082526040840151908401516101a08501516060840151611866939291905f61223e565b60e084015260c08301526020820152604082015160a084810151908301516080840151611898938c9390929091612cfe565b6118b588836040015185608001518460e001518560c00151612cfe565b805115611934576040808401518251915163a7d6e44b60e01b81526001600160a01b039091169163a7d6e44b916118f29190600190600401613f9f565b602060405180830381865afa15801561190d573d5f5f3e3d5ffd5b505050506040513d601f19601f820116820180604052508101906119319190613f64565b95505b6020810151156119c05782604001516001600160a01b031663a7d6e44b82602001515f6040518363ffffffff1660e01b8152600401611974929190613f9f565b602060405180830381865afa15801561198f573d5f5f3e3d5ffd5b505050506040513d601f19601f820116820180604052508101906119b39190613f64565b6119bd90876141ba565b95505b6119ce826040015186612e5a565b836001600160a01b03166362402b046040518163ffffffff1660e01b81526004015f604051808303815f87803b158015611a06575f5ffd5b505af1158015611a18573d5f5f3e3d5ffd5b50505050611a2b8260400151868a612ea4565b6040848101518151838152602081018b905260018184015291519298506001600160a01b038c81169450169133917f3a84f64446e8eada995aa9da2ddbfcd9b5d5d650503b19f024096d04c05ef2a9919081900360600190a4505f92505050805c60ff1916815d509250929050565b611aa26139d9565b611aaa6139d9565b6040516394c0527d60e01b81526001600160a01b0384811660048301528716906394c0527d9060240161044060405180830381865afa158015611aef573d5f5f3e3d5ffd5b505050506040513d601f19601f82011682018060405250810190611b13919061425e565b604081015191935091506001600160a01b0316611b4357604051632f13551560e11b815260040160405180910390fd5b81606001516001600160a01b0316856001600160a01b031614611b795760405163055692d760e21b815260040160405180910390fd5b80606001516001600160a01b0316846001600160a01b031614611baf5760405163129e080d60e21b815260040160405180910390fd5b80604001516001600160a01b031663a6afed956040518163ffffffff1660e01b81526004016020604051808303815f875af1158015611bf0573d5f5f3e3d5ffd5b505050506040513d601f19601f82011682018060405250810190611c149190613f64565b5080604001516001600160a01b031682604001516001600160a01b031614611cae5781604001516001600160a01b031663a6afed956040518163ffffffff1660e01b81526004016020604051808303815f875af1158015611c77573d5f5f3e3d5ffd5b505050506040513d601f19601f82011682018060405250810190611c9b9190613f64565b50611ca582612f3a565b611cae81612f3a565b94509492505050565b6001600160e01b031981165f03611ccb5750565b61111381612fc0565b610cf584856001600160a01b03166323b872dd868686604051602401611cfc93929190614293565b604051602081830303815290604052915060e01b6020820180516001600160e01b038381831617835250505050612ff1565b604051636eb1769f60e11b81523060048201526001600160a01b0383811660248301525f919085169063dd62ed3e90604401602060405180830381865afa158015611d7b573d5f5f3e3d5ffd5b505050506040513d601f19601f82011682018060405250810190611d9f9190613f64565b9050610cf58484611db085856141ba565b613052565b5f835f03611dc457505f611f08565b611e9a84886001600160a01b031663b6d821c7856040518263ffffffff1660e01b8152600401611df491906142b7565b602060405180830381865afa158015611e0f573d5f5f3e3d5ffd5b505050506040513d601f19601f82011682018060405250810190611e339190613f64565b856001600160a01b03166318160ddd6040518163ffffffff1660e01b8152600401602060405180830381865afa158015611e6f573d5f5f3e3d5ffd5b505050506040513d601f19601f82011682018060405250810190611e939190613f64565b5f866130e1565b9050805f03611eaa57505f611f08565b604051633661585b60e21b81526001600160a01b0384169063d985616c90611eda90899089908690600401614293565b5f604051808303815f87803b158015611ef1575f5ffd5b505af1158015611f03573d5f5f3e3d5ffd5b505050505b9695505050505050565b5f825f03611f2157505f612063565b6040516306d29bb360e51b81526001600160a01b0386169063da53766090611f539086903390309088906004016142d1565b6020604051808303815f875af1925050508015611f8d575060408051601f3d908101601f19168201909252611f8a91810190613f64565b60015b612060573d808015611fba576040519150601f19603f3d011682016040523d82523d5f602084013e611fbf565b606091505b50611fc98161311e565b156120425760405163a9059cbb60e01b8152336004820152602481018590526001600160a01b0386169063a9059cbb906044016020604051808303815f875af1158015612018573d5f5f3e3d5ffd5b505050506040513d601f19601f8201168201806040525081019061203c9190614307565b5061205a565b61205a8160405180602001604052805f815250613141565b50612063565b90505b949350505050565b5f6001600160e01b03198216637965db0b60e01b1480610af257506301ffc9a760e01b6001600160e01b0319831614610af2565b5f80546040805163aecc90cb60e01b81528151849384936001600160a01b039091169284928392859263aecc90cb92600480830193928290030181865afa1580156120ec573d5f5f3e3d5ffd5b505050506040513d601f19601f820116820180604052508101906121109190613fcc565b60405163e48a5f7b60e01b81526001600160a01b0380841660048301529298508894509092505f9185169063e48a5f7b9060240161022060405180830381865afa158015612160573d5f5f3e3d5ffd5b505050506040513d601f19601f82011682018060405250810190612184919061418b565b90508061016001515f036122015760405163e48a5f7b60e01b81526001600160a01b03838116600483015285169063e48a5f7b9060240161022060405180830381865afa1580156121d7573d5f5f3e3d5ffd5b505050506040513d601f19601f820116820180604052508101906121fb919061418b565b90508196505b600188600181111561221557612215613f7b565b1461222457806080015161222a565b8060a001515b6101a0909101519698909750945050505050565b5f5f5f845f0361225557505f9150819050806123d1565b5f886001600160a01b031663b6d821c786600181111561227757612277613f7b565b60ff16600281111561228b5761228b613f7b565b6040518263ffffffff1660e01b81526004016122a791906142b7565b602060405180830381865afa1580156122c2573d5f5f3e3d5ffd5b505050506040513d601f19601f820116820180604052508101906122e69190613f64565b90505f886001600160a01b03166318160ddd6040518163ffffffff1660e01b8152600401602060405180830381865afa158015612325573d5f5f3e3d5ffd5b505050506040513d601f19601f820116820180604052508101906123499190613f64565b905061237d8783835f8a600181111561236457612364613f7b565b60ff16600281111561237857612378613f7b565b6130e1565b945061239188670de0b6b3a76400006141ba565b6123b66123a66702c68af0bb1400008b614322565b87670de0b6b3a76400005f61316a565b6123c0919061434d565b93506123cc8486614360565b925050505b955095509592505050565b6002546001600160a01b031633146110cb5760405163118cdaa760e01b8152336004820152602401611101565b5f8054604051630483b24f60e41b81526001600160a01b0385811660048301528392839283929091169063483b24f090602401606060405180830381865afa158015612457573d5f5f3e3d5ffd5b505050506040513d601f19601f8201168201806040525081019061247b91906141e8565b925092509250816001600160a01b0316856001600160a01b0316036124a7576108009350505050610af2565b826001600160a01b0316856001600160a01b0316036124cd576110009350505050610af2565b806001600160a01b0316856001600160a01b0316036124f3576120009350505050610af2565b60405163d938fa3760e01b815260040160405180910390fd5b60408051808201825262ffffff84811680835284821660208085018281526001600160a01b038a165f81815260018452889020965187549251871663010000000265ffffffffffff1990931696169590951717909455845192835292820152918201527f1c26a8451bc890d476a0e7bb8310f00750604879bb30d4813a7718a1ee089fa69060600160405180910390a1826001600160a01b031663cad1aacf6040518163ffffffff1660e01b81526004015f604051808303815f87803b1580156125d4575f5ffd5b505af11580156125e6573d5f5f3e3d5ffd5b50505050505050565b61111381336131ac565b5f5f61260584846131e9565b9050801561112d575f848152600660205260409020612624908461327a565b509392505050565b5f80546040805163aecc90cb60e01b81528151849384936001600160a01b039091169263aecc90cb92600480830193928290030181865afa158015612673573d5f5f3e3d5ffd5b505050506040513d601f19601f820116820180604052508101906126979190613fcc565b91509150816001600160a01b0316846001600160a01b031614806120635750806001600160a01b0316846001600160a01b031614949350505050565b5f5f6126df848461328e565b9050801561112d575f84815260066020526040902061262490846132f9565b600380546001600160a01b03191690556111138161330d565b5f61112d838361335e565b60605f61112d83613384565b5f80546040805163aecc90cb60e01b81528151849384936001600160a01b039091169263aecc90cb92600480830193928290030181865afa158015612775573d5f5f3e3d5ffd5b505050506040513d601f19601f820116820180604052508101906127999190613fcc565b91509150816001600160a01b0316846001600160a01b031614806127ce5750806001600160a01b0316846001600160a01b0316145b156127dd575060019392505050565b5f8054604051630483b24f60e41b81526001600160a01b0385811660048301528392169063483b24f090602401606060405180830381865afa158015612825573d5f5f3e3d5ffd5b505050506040513d601f19601f8201168201806040525081019061284991906141e8565b919350909150506001600160a01b03868116908316148061287b5750806001600160a01b0316866001600160a01b0316145b1561288c5750600195945050505050565b5f54604051630483b24f60e41b81526001600160a01b0385811660048301529091169063483b24f090602401606060405180830381865afa1580156128d3573d5f5f3e3d5ffd5b505050506040513d601f19601f820116820180604052508101906128f791906141e8565b919350909150506001600160a01b0386811690831614806129295750806001600160a01b0316866001600160a01b0316145b1561293a5750600195945050505050565b505f95945050505050565b335f908152600460205260409020546001600160a01b0316806129685750610cf5565b61299d84612997876001600160a01b03165f9081526001602052604090205462ffffff63010000009091041690565b81161490565b6129a75750610cf5565b5f6129e684848080601f0160208091040260200160405190810160405280939291908181526020018383808284375f920191909152506133dd92505050565b805160608201516020830151608084015160a0850151604080870151905163bbdc013b60e01b81526001600160a01b039687166004820152602481019590955292851660448501526064840191909152608483015260a482015291925083169063bbdc013b9060c4015b5f604051808303815f87803b158015612a67575f5ffd5b505af1158015612a79573d5f5f3e3d5ffd5b50505050505050505050565b5f610af2825490565b612a96613481565b6001600160a01b038116612abd576040516379c39cf960e01b815260040160405180910390fd5b5f546001600160a01b031615612ae6576040516308db0db560e11b815260040160405180910390fd5b5f80546001600160a01b0319166001600160a01b0392909216919091179055565b612b0f613481565b6001600160a01b03811661110a576040516354a4010f60e01b815260040160405180910390fd5b612b3e613481565b612b47816134ca565b611113610af8565b612b576139d9565b612b5f6139d9565b6040516394c0527d60e01b81526001600160a01b0384811660048301528516906394c0527d9060240161044060405180830381865afa158015612ba4573d5f5f3e3d5ffd5b505050506040513d601f19601f82011682018060405250810190612bc8919061425e565b604081015191935091506001600160a01b0316612bf857604051632f13551560e11b815260040160405180910390fd5b80604001516001600160a01b031663a6afed956040518163ffffffff1660e01b81526004016020604051808303815f875af1158015612c39573d5f5f3e3d5ffd5b505050506040513d601f19601f82011682018060405250810190612c5d9190613f64565b5080604001516001600160a01b031682604001516001600160a01b031614612cf75781604001516001600160a01b031663a6afed956040518163ffffffff1660e01b81526004016020604051808303815f875af1158015612cc0573d5f5f3e3d5ffd5b505050506040513d601f19601f82011682018060405250810190612ce49190613f64565b50612cee82612f3a565b612cf781612f3a565b9250929050565b5f612d08856111a9565b90508215612e1c57604051633661585b60e21b81526001600160a01b0385169063d985616c90612d4090899085908890600401614293565b5f604051808303815f87803b158015612d57575f5ffd5b505af1158015612d69573d5f5f3e3d5ffd5b5050506cffffffffffffffffffffffffff8411159050612d9c57604051631ffa331360e21b815260040160405180910390fd5b604051632e953c2160e01b81526001600160a01b0385811660048301526cffffffffffffffffffffffffff85166024830152821690632e953c21906044016020604051808303815f875af1158015612df6573d5f5f3e3d5ffd5b505050506040513d601f19601f82011682018060405250810190612e1a9190613f64565b505b8115612e5257604051633661585b60e21b81526001600160a01b0385169063d985616c90612a5090899033908790600401614293565b505050505050565b6040805160248082018490528251808303909101815260449091019091526020810180516001600160e01b031663194af7dd60e11b179052610cf5838263fe568fd160e01b6134d4565b5f5f5f612f1786631bc77f3060e01b8787604051602401612ed89291909182526001600160a01b0316602082015260400190565b60408051601f198184030181529190526020810180516001600160e01b03166001600160e01b0319909316929092179091526340561a9d60e11b6134d4565b905080806020019051810190612f2d9190614373565b9097909650945050505050565b8061020001518015612f58575060e08101516001600160a01b031615155b156111135760e08101516060820151604051637cfd30cd60e11b81526001600160a01b03918216600482015291169063f9fa619a906024015f604051808303815f87803b158015612fa7575f5ffd5b505af1158015612fb9573d5f5f3e3d5ffd5b5050505050565b6040805160048152602481019091526020810180516001600160e01b03166001600160e01b03198416178152815190fd5b5f6130056001600160a01b0384168361357f565b905080515f141580156130295750808060200190518101906130279190614307565b155b1561100157604051635274afe760e01b81526001600160a01b0384166004820152602401611101565b604080516001600160a01b038416602482015260448082018490528251808303909101815260649091019091526020810180516001600160e01b031663095ea7b360e01b1790526130a3848261358c565b610cf5576040516001600160a01b0384811660248301525f60448301526130d791869182169063095ea7b390606401611cfc565b610cf58482612ff1565b5f5f5f6130ef878786613629565b91509150815f03613104578792505050613115565b6131108883838861316a565b925050505b95945050505050565b5f63284fe51560e01b61313083614395565b6001600160e01b0319161492915050565b81511561315057815182602001fd5b8060405162461bcd60e51b81526004016111019190613d75565b5f61319761317783613684565b801561319257505f848061318d5761318d614339565b868809115b151590565b6131a28686866136b0565b61206091906141ba565b6131b68282611134565b6131e55760405163e2517d3f60e01b81526001600160a01b038216600482015260248101839052604401611101565b5050565b5f6131f48383611134565b613273575f8381526005602090815260408083206001600160a01b03861684529091529020805460ff1916600117905561322b3390565b6001600160a01b0316826001600160a01b0316847f2f8788117e7eff1d82e926ec794901d17c78024a50270940304540a733656f0d60405160405180910390a4506001610af2565b505f610af2565b5f61112d836001600160a01b03841661376d565b5f6132998383611134565b15613273575f8381526005602090815260408083206001600160a01b0386168085529252808320805460ff1916905551339286917ff6391f5c32d9c69d2a47ea670b442974b53935d1edc7fd64eb21e047a839171b9190a4506001610af2565b5f61112d836001600160a01b0384166137b2565b600280546001600160a01b038381166001600160a01b0319831681179093556040519116919082907f8be0079c531659141344cd1fd0a4f28419497f9722a3daafe3b4186f6b6457e0905f90a35050565b5f825f018281548110613373576133736143d3565b905f5260205f200154905092915050565b6060815f018054806020026020016040519081016040528092919081815260200182805480156133d157602002820191905f5260205f20905b8154815260200190600101908083116133bd575b50505050509050919050565b6134226040518060c001604052805f6001600160a01b031681526020015f6001600160a01b031681526020015f81526020015f81526020015f81526020015f81525090565b506014810151602882015160488301516068840151608885015160a8909501516040805160c0810182526001600160a01b039687168152959094166020860152928401919091526060830152608082019290925260a081019190915290565b7ff0c57e16840df040f15088dc2f81fe391c3923bec73e23a9662efc9c229c6a0054600160401b900460ff166110cb57604051631afcd79f60e31b815260040160405180910390fd5b6131e55f826125f9565b60605f846001600160a01b0316634624c6a77f00000000000000000000000000000000000000000000000000000000000000005f6001886040518563ffffffff1660e01b815260040161352a94939291906143e7565b5f604051808303815f875af1158015613545573d5f5f3e3d5ffd5b505050506040513d5f823e601f3d908101601f1916820160405261356c919081019061441e565b9250905080612624576126248284613895565b606061112d83835f6138ad565b5f5f5f846001600160a01b0316846040516135a791906144c6565b5f604051808303815f865af19150503d805f81146135e0576040519150601f19603f3d011682016040523d82523d5f602084013e6135e5565b606091505b509150915081801561360f57508051158061360f57508080602001905181019061360f9190614307565b80156131155750505050506001600160a01b03163b151590565b5f5f835f03613636575f94505b600283600281111561364a5761364a613f7b565b146136755761365b6003600a6145bf565b61366590856141ba565b6136708660016141ba565b613678565b83855b90969095509350505050565b5f600282600381111561369957613699613f7b565b6136a391906145ca565b60ff166001149050919050565b5f838302815f1985870982811083820303915050805f036136e4578382816136da576136da614339565b049250505061112d565b8084116137025761370284156136fb576011613943565b6012613943565b5f848688095f868103871696879004966002600389028118808a02820302808a02820302808a02820302808a02820302808a02820302808a02909103029181900381900460010186841190950394909402919094039290920491909117919091029150509392505050565b5f81815260018301602052604081205461327357508154600181810184555f848152602080822090930184905584548482528286019093526040902091909155610af2565b5f818152600183016020526040812054801561388c575f6137d4600183614360565b85549091505f906137e790600190614360565b9050808214613846575f865f018281548110613805576138056143d3565b905f5260205f200154905080875f018481548110613825576138256143d3565b5f918252602080832090910192909255918252600188019052604090208390555b8554869080613857576138576145eb565b600190038181905f5260205f20015f90559055856001015f8681526020019081526020015f205f905560019350505050610af2565b5f915050610af2565b8151156138a457815182602001fd5b6131e581612fc0565b6060814710156138d95760405163cf47918160e01b815247600482015260248101839052604401611101565b5f5f856001600160a01b031684866040516138f491906144c6565b5f6040518083038185875af1925050503d805f811461392e576040519150601f19603f3d011682016040523d82523d5f602084013e613933565b606091505b5091509150611f08868383613954565b634e487b715f52806020526024601cfd5b60608261396957613964826139b0565b61112d565b815115801561398057506001600160a01b0384163b155b156139a957604051639996b31560e01b81526001600160a01b0385166004820152602401611101565b508061112d565b8051156139c05780518082602001fd5b60405163d6bda27560e01b815260040160405180910390fd5b60408051610220810182525f80825260208201819052918101829052606081018290526080810182905260a0810182905260c0810182905260e08101829052610100810182905261012081018290526101408101829052610160810182905261018081018290526101a081018290526101c081018290526101e0810182905261020081019190915290565b6001600160a01b0381168114611113575f5ffd5b8015158114611113575f5ffd5b5f5f5f5f5f60a08688031215613a99575f5ffd5b8535613aa481613a64565b94506020860135613ab481613a64565b93506040860135613ac481613a64565b9250606086013591506080860135613adb81613a78565b809150509295509295909350565b6001600160e01b031981168114611113575f5ffd5b5f60208284031215613b0e575f5ffd5b813561112d81613ae9565b5f5f60408385031215613b2a575f5ffd5b82359150602083013560028110613b3f575f5ffd5b809150509250929050565b5f5f60408385031215613b5b575f5ffd5b8235613b6681613a64565b91506020830135613b3f81613a64565b5f60208284031215613b86575f5ffd5b5035919050565b5f5f60408385031215613b9e575f5ffd5b823591506020830135613b3f81613a64565b5f5f83601f840112613bc0575f5ffd5b50813567ffffffffffffffff811115613bd7575f5ffd5b602083019150836020828501011115612cf7575f5ffd5b5f5f5f5f60608587031215613c01575f5ffd5b8435613c0c81613a64565b935060208501359250604085013567ffffffffffffffff811115613c2e575f5ffd5b613c3a87828801613bb0565b95989497509550505050565b5f60208284031215613c56575f5ffd5b813561112d81613a64565b5f5f60408385031215613c72575f5ffd5b50508035926020909101359150565b602080825282518282018190525f918401906040840190835b81811015613cc15783516001600160a01b0316835260209384019390920191600101613c9a565b509095945050505050565b5f5f5f60408486031215613cde575f5ffd5b8335613ce981613a64565b9250602084013567ffffffffffffffff811115613d04575f5ffd5b613d1086828701613bb0565b9497909650939450505050565b5f5f60408385031215613d2e575f5ffd5b8235613d3981613a64565b946020939093013593505050565b5f81518084528060208401602086015e5f602082860101526020601f19601f83011685010191505092915050565b602081525f61112d6020830184613d47565b80518252602081015160208301526040810151613daf60408401826001600160a01b03169052565b506060810151613dca60608401826001600160a01b03169052565b506080810151613de560808401826001600160a01b03169052565b5060a0810151613e0060a08401826001600160a01b03169052565b5060c0810151613e1b60c08401826001600160a01b03169052565b5060e0810151613e3660e08401826001600160a01b03169052565b50610100810151613e536101008401826001600160a01b03169052565b50610120810151613e706101208401826001600160a01b03169052565b506101408101516101408301526101608101516101608301526101808101516101808301526101a08101516101a08301526101c08101516101c08301526101e0810151613ec96101e08401826001600160a01b03169052565b5061020081015161100161020084018215159052565b6104a08101613eee8288613d87565b613efc610220830187613d87565b6001600160a01b03949094166104408201526104608101929092526104809091015292915050565b5f5f5f5f60808587031215613f37575f5ffd5b84516020860151604087015160608801519296509094509250613f5981613ae9565b939692955090935050565b5f60208284031215613f74575f5ffd5b5051919050565b634e487b7160e01b5f52602160045260245ffd5b6002811061111357611113613f7b565b82815260408101613faf83613f8f565b8260208301529392505050565b8051613fc781613a64565b919050565b5f5f60408385031215613fdd575f5ffd5b8251613fe881613a64565b6020840151909250613b3f81613a64565b634e487b7160e01b5f52604160045260245ffd5b604051610220810167ffffffffffffffff8111828210171561403157614031613ff9565b60405290565b604051601f8201601f1916810167ffffffffffffffff8111828210171561406057614060613ff9565b604052919050565b8051613fc781613a78565b5f6102208284031215614084575f5ffd5b61408c61400d565b825181526020808401519082015290506140a860408301613fbc565b60408201526140b960608301613fbc565b60608201526140ca60808301613fbc565b60808201526140db60a08301613fbc565b60a08201526140ec60c08301613fbc565b60c08201526140fd60e08301613fbc565b60e082015261410f6101008301613fbc565b6101008201526141226101208301613fbc565b6101208201526101408281015190820152610160808301519082015261018080830151908201526101a080830151908201526101c0808301519082015261416c6101e08301613fbc565b6101e082015261417f6102008301614068565b61020082015292915050565b5f610220828403121561419c575f5ffd5b61112d8383614073565b634e487b7160e01b5f52601160045260245ffd5b80820180821115610af257610af26141a6565b5f602082840312156141dd575f5ffd5b815161112d81613a64565b5f5f5f606084860312156141fa575f5ffd5b835161420581613a64565b602085015190935061421681613a64565b604085015190925061422781613a64565b809150509250925092565b5f5f5f60608486031215614244575f5ffd5b835160208501516040860151919450925061422781613a78565b5f5f6104408385031215614270575f5ffd5b61427a8484614073565b915061428a846102208501614073565b90509250929050565b6001600160a01b039384168152919092166020820152604081019190915260600190565b60208101600383106142cb576142cb613f7b565b91905290565b8481526001600160a01b03848116602083015283166040820152608081016142f883613f8f565b82606083015295945050505050565b5f60208284031215614317575f5ffd5b815161112d81613a78565b8082028115828204841417610af257610af26141a6565b634e487b7160e01b5f52601260045260245ffd5b5f8261435b5761435b614339565b500490565b81810381811115610af257610af26141a6565b5f5f60408385031215614384575f5ffd5b505080516020909101519092909150565b805160208201516001600160e01b03198116919060048210156143cc576001600160e01b0319600483900360031b81901b82161692505b5050919050565b634e487b7160e01b5f52603260045260245ffd5b6001600160a01b03851681526020810184905261440383613f8f565b826040820152608060608201525f611f086080830184613d47565b5f5f6040838503121561442f575f5ffd5b825161443a81613a78565b602084015190925067ffffffffffffffff811115614456575f5ffd5b8301601f81018513614466575f5ffd5b805167ffffffffffffffff81111561448057614480613ff9565b614493601f8201601f1916602001614037565b8181528660208385010111156144a7575f5ffd5b8160208401602083015e5f602083830101528093505050509250929050565b5f82518060208501845e5f920191825250919050565b6001815b6001841115614517578085048111156144fb576144fb6141a6565b600184161561450957908102905b60019390931c9280026144e0565b935093915050565b5f8261452d57506001610af2565b8161453957505f610af2565b816001811461454f576002811461455957614575565b6001915050610af2565b60ff84111561456a5761456a6141a6565b50506001821b610af2565b5060208310610133831016604e8410600b8410161715614598575081810a610af2565b6145a45f1984846144dc565b805f19048211156145b7576145b76141a6565b029392505050565b5f61112d838361451f565b5f60ff8316806145dc576145dc614339565b8060ff84160691505092915050565b634e487b7160e01b5f52603160045260245ffdfea2646970667358221220c87a057f216de14e48de336f09e26a159ad5491fbb64ead0535c198c2fe775ee64736f6c634300081c00336080604052348015600e575f5ffd5b506103ae8061001c5f395ff3fe608060405234801561000f575f5ffd5b5060043610610034575f3560e01c80631bc77f30146100385780633295efba14610064575b5f5ffd5b61004b6100463660046102e1565b610079565b6040805192835260208301919091520160405180910390f35b61007761007236600461031a565b61015d565b005b604051632811815960e11b8152600481018390525f602482018190526001600160a01b038316604483015233606483015290819073__$2af8d6de85c36a4126e5b0561510a530d6$__9063502302b2906084016040805180830381865af41580156100e6573d5f5f3e3d5ffd5b505050506040513d601f19601f8201168201806040525081019061010a9190610331565b60408051838152602081018390529194509192506001600160a01b0385169133917fe4a1ae657f49cb1fb1c7d3a94ae6093565c4c8c0e03de488f79c377c3c3a24e0910160405180910390a39250929050565b60015f9081527fd7513ffe3a01a9f6606089d1b67011bca35bec018ac0faa914e1c529408f83026020527f9f4c9b90b8375e1a1c51483b3ca447c3cef6557c7e1ddcfb2935a045af6b0ec7547fd7513ffe3a01a9f6606089d1b67011bca35bec018ac0faa914e1c529408f830091906101d68185610282565b60015f90815260028601602052604090205591508382610242575f6101fb8387610353565b85548493509091505f90610218906001600160c01b031683610282565b915050610224816102a6565b86546001600160c01b0319166001600160c01b039190911617865550505b60408051868152602081018390527fa5329f73da29674b6bc0fb1faa44d0eafe0c62c249e1d478ce992ba1f7dea2ad910160405180910390a15050505050565b5f5f8383111561029657505f90508061029f565b50600190508183035b9250929050565b5f6001600160c01b038211156102dd576040516306dfcc6560e41b815260c060048201526024810183905260440160405180910390fd5b5090565b5f5f604083850312156102f2575f5ffd5b8235915060208301356001600160a01b038116811461030f575f5ffd5b809150509250929050565b5f6020828403121561032a575f5ffd5b5035919050565b5f5f60408385031215610342575f5ffd5b505080516020909101519092909150565b8181038181111561037257634e487b7160e01b5f52601160045260245ffd5b9291505056fea26469706673582212208513f8f95d9263fcd14ab0951d1a9e1d513bc83d633e0a54dfb1886ae315a61164736f6c634300081c0033",
  "language": "Solidity",
  "compiler": "0.8.28+commit.7893614a"
}