{
  "address": "0x2Efa5cB0B72f625465aeAc4B84AC90C8b4519C23",
  "abi": [
    {
      "inputs": [
        {
          "internalType": "address",
          "name": "_owner",
          "type": "address"
        },
        {
          "internalType": "address",
          "name": "_notifier",
          "type": "address"
        },
        {
          "internalType": "bytes32",
          "name": "_externalSalt",
          "type": "bytes32"
        }
      ],
      "name": "create",
      "outputs": [
        {
          "internalType": "address",
          "name": "controller",
          "type": "address"
        }
      ],
      "stateMutability": "nonpayable",
      "type": "function"
    },
    {
      "inputs": [
        {
          "internalType": "address",
          "name": "",
          "type": "address"
        }
      ],
      "name": "isSiloIncentivesController",
      "outputs": [
        {
          "internalType": "bool",
          "name": "",
          "type": "bool"
        }
      ],
      "stateMutability": "view",
      "type": "function"
    },
    {
      "inputs": [
        {
          "internalType": "address",
          "name": "owner",
          "type": "address"
        }
      ],
      "name": "nonces",
      "outputs": [
        {
          "internalType": "uint256",
          "name": "",
          "type": "uint256"
        }
      ],
      "stateMutability": "view",
      "type": "function"
    },
    {
      "anonymous": false,
      "inputs": [
        {
          "indexed": true,
          "internalType": "address",
          "name": "controller",
          "type": "address"
        }
      ],
      "name": "SiloIncentivesControllerCreated",
      "type": "event"
    },
    {
      "inputs": [
        {
          "internalType": "address",
          "name": "account",
          "type": "address"
        },
        {
          "internalType": "uint256",
          "name": "currentNonce",
          "type": "uint256"
        }
      ],
      "name": "InvalidAccountNonce",
      "type": "error"
    }
  ],
  "bytecode": "0x6080604052348015600e575f5ffd5b5061366e8061001c5f395ff3fe608060405234801561000f575f5ffd5b506004361061003f575f3560e01c80630f52994a146100435780637ecebe001461007a578063d1692f56146100b0575b5f5ffd5b6100656100513660046101f6565b60016020525f908152604090205460ff1681565b60405190151581526020015b60405180910390f35b6100a26100883660046101f6565b6001600160a01b03165f9081526020819052604090205490565b604051908152602001610071565b6100c36100be366004610216565b6100db565b6040516001600160a01b039091168152602001610071565b335f81815260208181526040808320805460018101909155815160609590951b6bffffffffffffffffffffffff19168584015260348501526054808501869052815180860390910181526074909401905282519201919091208484604051610142906101ce565b6001600160a01b039283168152911660208201526040018190604051809103905ff5905080158015610176573d5f5f3e3d5ffd5b506001600160a01b0381165f818152600160208190526040808320805460ff19169092179091555192935090917f0a53f473a13c410d2f112a9928b8c3b24774adb46b692a6c99999d13fcc7416c9190a29392505050565b6133e98061025083390190565b80356001600160a01b03811681146101f1575f5ffd5b919050565b5f60208284031215610206575f5ffd5b61020f826101db565b9392505050565b5f5f5f60608486031215610228575f5ffd5b610231846101db565b925061023f602085016101db565b915060408401359050925092509256fe60a060405234801561000f575f5ffd5b506040516133e93803806133e983398101604081905261002e9161012e565b81818181816001600160a01b03811661006057604051631e4fbdf760e01b81525f600482015260240160405180910390fd5b610069816100a8565b506001600160a01b0381166100915760405163d92e233d60e01b815260040160405180910390fd5b6001600160a01b03166080525061015f9350505050565b600180546001600160a01b03191690556100c1816100c4565b50565b5f80546001600160a01b038381166001600160a01b0319831681178455604051919092169283917f8be0079c531659141344cd1fd0a4f28419497f9722a3daafe3b4186f6b6457e09190a35050565b80516001600160a01b0381168114610129575f5ffd5b919050565b5f5f6040838503121561013f575f5ffd5b61014883610113565b915061015660208401610113565b90509250929050565b6080516132416101a85f395f818161033a0152818161055d015281816105ac01528181610c1401528181610e0f015281816110dd015281816116c9015261175601526132415ff3fe608060405234801561000f575f5ffd5b50600436106101d1575f3560e01c8063b5a89065116100fe578063cfc262371161009e578063f2fde38b1161006e578063f2fde38b14610504578063f5ba475014610517578063f5cf673b1461052a578063fb71aec51461053d575f5ffd5b8063cfc262371461042e578063e30c3978146104cd578063e7b8b9c4146104de578063ef5cfb8c146104f1575f5ffd5b8063bec1e022116100d9578063bec1e022146103e2578063c1616f69146103f5578063cc08016414610408578063cd72a4bf1461041b575f5ffd5b8063b5a89065146103a9578063b90817f2146103bc578063bbdc013b146103cf575f5ffd5b80637d8bf6ec116101745780639f2e6a0c116101445780639f2e6a0c14610335578063a5eb3f0d1461035c578063a7b800dd1461037c578063aaf5eb681461038f575f5ffd5b80637d8bf6ec1461028b57806382794f391461029f5780638ba2c3c8146103125780638da5cb5b14610325575f5ffd5b8063711ec9ac116101af578063711ec9ac14610230578063715018a61461023857806374d945ec1461024057806379ba509714610283575f5ffd5b80632e953c21146101d557806358703bed146101ea5780636f564e7d14610210575b5f5ffd5b6101e86101e33660046128ee565b610552565b005b6101fd6101f8366004612966565b610749565b6040519081526020015b60405180910390f35b61022361021e3660046129b4565b610853565b60405161020791906129f9565b6101fd610885565b6101e8610894565b61026b61024e366004612a0b565b6001600160a01b039081165f908152600660205260409020541690565b6040516001600160a01b039091168152602001610207565b6101e86108a7565b6101fd6c0c9f2c9cd04674edea4000000081565b6102b26102ad366004612a61565b6108f0565b60405161020791905f60a0820190508251825260018060a01b0360208401511660208301526001600160681b03604084015116604083015264ffffffffff606084015116606083015264ffffffffff608084015116608083015292915050565b6101fd610320366004612a9f565b6109ce565b5f546001600160a01b031661026b565b61026b7f000000000000000000000000000000000000000000000000000000000000000081565b61036f61036a366004612966565b610a3b565b6040516102079190612ae0565b6101fd61038a366004612c09565b610a9a565b610397602481565b60405160ff9091168152602001610207565b6101fd6103b7366004612a9f565b610b15565b6101e86103ca366004612a0b565b610b84565b6101e86103dd366004612c3a565b610c09565b6101e86103f0366004612ca2565b610d3d565b6101e8610403366004612d02565b610f2e565b6101fd610416366004612a9f565b610fd9565b6101e8610429366004612d9f565b611041565b61048861043c3660046129b4565b60046020525f908152604090208054600182015460029092015490916001600160a01b0316906001600160681b0381169064ffffffffff600160681b8204811691600160901b90041685565b604080519586526001600160a01b0390941660208601526001600160681b039092169284019290925264ffffffffff918216606084015216608082015260a001610207565b6001546001600160a01b031661026b565b6101fd6104ec366004612a61565b6111d9565b61036f6104ff366004612a0b565b611241565b6101e8610512366004612a0b565b611286565b61036f610525366004612dee565b6112f6565b6101e8610538366004612e4a565b6113c0565b61054561146c565b6040516102079190612e72565b336001600160a01b037f0000000000000000000000000000000000000000000000000000000000000000161461059a5760405162f09cf360e01b815260040160405180910390fd5b6001600160681b03811615610745575f7f00000000000000000000000000000000000000000000000000000000000000006001600160a01b03166318160ddd6040518163ffffffff1660e01b8152600401602060405180830381865afa158015610606573d5f5f3e3d5ffd5b505050506040513d601f19601f8201168201806040525081019061062a9190612ed5565b90505f61063684611529565b5f81815260046020526040902090915061065082846115b2565b506002810180544264ffffffffff818116600160901b90810264ffffffffff60901b1985161790945592820492909216916001600160681b039091169061069990600190612f00565b6002840180546001600160901b031916600160681b64ffffffffff93909316929092026001600160681b031916919091176001600160681b0388161790556106e184866115b2565b50600292909201805469ffffffffffffffffffff60681b1916600160901b64ffffffffff9384160264ffffffffff60681b191617600160681b429390931692909202919091176001600160681b0319166001600160681b0390921691909117905550505b5050565b5f5f5f5f610756876116c5565b90925090505f5b85811015610848575f6107c688888481811061077b5761077b612f13565b905060200281019061078d9190612f27565b8080601f0160208091040260200160405190810160405280939291908181526020018383808284375f92019190915250610a9a92505050565b5f818152600460205260409020600101549091506001600160a01b039081169086166107f457809550610826565b806001600160a01b0316866001600160a01b031614610826576040516305ff3f2d60e41b815260040160405180910390fd5b6108328a8387876117db565b61083c9088612f69565b9650505060010161075d565b505050509392505050565b606061087f8260405160200161086b91815260200190565b60405160208183030381529060405261181d565b92915050565b6108916024600a61305f565b81565b61089c6118a2565b6108a55f6118ce565b565b60015433906001600160a01b031681146108e45760405163118cdaa760e01b81526001600160a01b03821660048201526024015b60405180910390fd5b6108ed816118ce565b50565b6040805160a0810182525f808252602082018190529181018290526060810182905260808101919091525f61095984848080601f0160208091040260200160405190810160405280939291908181526020018383808284375f92019190915250610a9a92505050565b6040805160a0810182525f838152600460208181528483208054855260018101546001600160a01b031682860152600201546001600160681b0381169585019590955264ffffffffff600160681b860481166060860152959092529052600160901b9091049091166080820152949350505050565b5f5f610a0e84848080601f0160208091040260200160405190810160405280939291908181526020018383808284375f92019190915250610a9a92505050565b6001600160a01b0386165f90815260056020908152604080832093835292905220549150505b9392505050565b60606001600160a01b038416610a6457604051638aa3a72f60e01b815260040160405180910390fd5b5f610a6f84846118e7565b9050610a7a81611978565b610a8433826119d5565b9150610a9233338785611abe565b509392505050565b80515f90602a819003610abf57610a34610ab384611d78565b6001600160a01b031690565b8015801590610acf575060208111155b610aec576040516302d7eecb60e61b815260040160405180910390fd5b82604051602001610afd9190613084565b604051602081830303815290604052610a349061308f565b5f5f610b5584848080601f0160208091040260200160405190810160405280939291908181526020018383808284375f92019190915250610a9a92505050565b5f9081526004602090815260408083206001600160a01b03891684526003019091529020549150509392505050565b610b8c6118a2565b6040516370a0823160e01b81523060048201526108ed9033906001600160a01b038416906370a0823190602401602060405180830381865afa158015610bd4573d5f5f3e3d5ffd5b505050506040513d601f19601f82011682018060405250810190610bf89190612ed5565b6001600160a01b0384169190611e19565b336001600160a01b037f00000000000000000000000000000000000000000000000000000000000000001614610c515760405162f09cf360e01b815260040160405180910390fd5b5f610c5c6002611e70565b9050846001600160a01b0316876001600160a01b03161480610c7c575080155b15610c875750610d35565b6001600160a01b038716610c9f578183039250610cb2565b6001600160a01b038516610cb257918101915b6001600160a01b03871615610cc657948101945b6001600160a01b03851615610cdb5781840393505b5f5b81811015610d32575f610cf1600283611e79565b90506001600160a01b03891615610d0e57610d0e818a878b611e84565b6001600160a01b03871615610d2957610d2981888789611e84565b50600101610cdd565b50505b505050505050565b610d456118a2565b428264ffffffffff161015610d6d57604051636e03f20160e11b815260040160405180910390fd5b6c0c9f2c9cd04674edea40000000816001600160681b031610610da35760405163495c2d9160e01b815260040160405180910390fd5b5f610de285858080601f0160208091040260200160405190810160405280939291908181526020018383808284375f92019190915250610a9a92505050565b9050610def600282611f68565b610e0c57604051630a96b47560e01b815260040160405180910390fd5b5f7f00000000000000000000000000000000000000000000000000000000000000006001600160a01b03166318160ddd6040518163ffffffff1660e01b8152600401602060405180830381865afa158015610e69573d5f5f3e3d5ffd5b505050506040513d601f19601f82011682018060405250810190610e8d9190612ed5565b9050610e9982826115b2565b505f8281526004602052604090819020600201805476ffffffffff0000000000ffffffffffffffffffffffffff1916600160901b64ffffffffff8816026001600160681b031916176001600160681b038616179055517fce209946668ea0ad6199b320ade5271adc93d0c1083851b571b990f3e0260f1290610f1e90889088906130da565b60405180910390a1505050505050565b610f366118a2565b80515160201015610f5a576040516310b47cc360e01b815260040160405180910390fd5b6c0c9f2c9cd04674edea4000000081604001516001600160681b031610610f945760405163495c2d9160e01b815260040160405180910390fd5b42816060015164ffffffffff161015610fc057604051636e03f20160e11b815260040160405180910390fd5b5f610fcd825f0151610a9a565b90506107458183611f7f565b5f5f61101984848080601f0160208091040260200160405190810160405280939291908181526020018383808284375f92019190915250610a9a92505050565b90505f5f611026876116c5565b91509150611036878484846117db565b979650505050505050565b6110496118a2565b428164ffffffffff16101561107157604051636e03f20160e11b815260040160405180910390fd5b5f6110b084848080601f0160208091040260200160405190810160405280939291908181526020018383808284375f92019190915250610a9a92505050565b90506110bd600282611f68565b6110da57604051630a96b47560e01b815260040160405180910390fd5b5f7f00000000000000000000000000000000000000000000000000000000000000006001600160a01b03166318160ddd6040518163ffffffff1660e01b8152600401602060405180830381865afa158015611137573d5f5f3e3d5ffd5b505050506040513d601f19601f8201168201806040525081019061115b9190612ed5565b905061116782826115b2565b505f8281526004602052604090819020600201805464ffffffffff60901b1916600160901b64ffffffffff871602179055517f58e6e5fdc9bafcdde90e850e8776b427a5a0e26e6c86f28a3c9c1f1801876118906111ca908790879087906130ed565b60405180910390a15050505050565b5f5f61121984848080601f0160208091040260200160405190810160405280939291908181526020018383808284375f92019190915250610a9a92505050565b5f90815260046020526040902060020154600160901b900464ffffffffff1691505092915050565b60606001600160a01b03821661126a57604051638aa3a72f60e01b815260040160405180910390fd5b61127333612098565b905061128133338484611abe565b919050565b61128e6118a2565b600180546001600160a01b0383166001600160a01b031990911681179091556112be5f546001600160a01b031690565b6001600160a01b03167f38d16b8cac22d99fc7c124b9cd0de2d3fa1faef420bfe791d8c362d765e2270060405160405180910390a350565b6001600160a01b038085165f908152600660205260409020546060913391879116821461133557604051620bb58b60e51b815260040160405180910390fd5b86866001600160a01b03821661135e57604051630702b3d960e41b815260040160405180910390fd5b6001600160a01b03811661138557604051638aa3a72f60e01b815260040160405180910390fd5b5f61139088886118e7565b905061139b81611978565b6113a58a826119d5565b95506113b3338b8b89611abe565b5050505050949350505050565b6113c86118a2565b6001600160a01b0382166113ef5760405163d92e233d60e01b815260040160405180910390fd5b6001600160a01b0381166114165760405163d92e233d60e01b815260040160405180910390fd5b6001600160a01b038281165f8181526006602052604080822080546001600160a01b0319169486169485179055517f4925eafc82d0c4d67889898eeed64b18488ab19811e61620f387026dec126a289190a35050565b60605f61147960026120ad565b519050806001600160401b0381111561149457611494612b44565b6040519080825280602002602001820160405280156114c757816020015b60608152602001906001900390816114b25790505b5091505f5b81811015611524576114ff6114e160026120ad565b82815181106114f2576114f2612f13565b6020026020010151610853565b83828151811061151157611511612f13565b60209081029190910101526001016114cc565b505090565b6001600160a01b0381165f81815260046020526040812060020154600160681b900464ffffffffff169003611281576040805160808101825260608082525f60208301819052928201839052810191909152611584836120b9565b81526001600160a01b03831660208201525f6040820181905260608201526115ac8282611f7f565b50919050565b5f82815260046020526040812080546002909101546001600160681b0381169064ffffffffff600160681b8204811691600160901b900416428290036115fe578394505050505061087f565b5f61160c858585858b6120cf565b905084811461168c575f888152600460205260409020818155600201805464ffffffffff60681b1916600160681b4264ffffffffff16021790557fbcaf32358137afa5170f844d4e02a1b3013677faba70d948cc705ce0a383058461167089610853565b8260405161167f929190613117565b60405180910390a1611036565b5f888152600460205260409020600201805464ffffffffff60681b1916600160681b4264ffffffffff1602179055979650505050505050565b5f807f00000000000000000000000000000000000000000000000000000000000000006040516370a0823160e01b81526001600160a01b03858116600483015291909116906370a0823190602401602060405180830381865afa15801561172e573d5f5f3e3d5ffd5b505050506040513d601f19601f820116820180604052508101906117529190612ed5565b91507f00000000000000000000000000000000000000000000000000000000000000006001600160a01b03166318160ddd6040518163ffffffff1660e01b8152600401602060405180830381865afa1580156117b0573d5f5f3e3d5ffd5b505050506040513d601f19601f820116820180604052508101906117d49190612ed5565b9050915091565b6001600160a01b0384165f90815260056020908152604080832086845290915290205461180a84868585612152565b6118149082612f69565b95945050505050565b80516060905f5b8181101561189b5783818151811061183e5761183e612f13565b01602001516001600160f81b03191615611893578284828151811061186557611865612f13565b602001015160f81c60f81b604051602001611881929190613138565b60405160208183030381529060405292505b600101611824565b5050919050565b5f546001600160a01b031633146108a55760405163118cdaa760e01b81523360048201526024016108db565b600180546001600160a01b03191690556108ed816121c3565b6060816001600160401b0381111561190157611901612b44565b60405190808252806020026020018201604052801561192a578160200160208202803683370190505b5090505f5b828110156119715761194c84848381811061077b5761077b612f13565b82828151811061195e5761195e612f13565b602090810291909101015260010161192f565b5092915050565b5f5b8151811015610745576119b082828151811061199857611998612f13565b60200260200101516002611f6890919063ffffffff16565b6119cd57604051630a96b47560e01b815260040160405180910390fd5b60010161197a565b8051606090806001600160401b038111156119f2576119f2612b44565b604051908082528060200260200182016040528015611a4d57816020015b611a3a60405180606001604052805f81526020015f81526020015f6001600160a01b031681525090565b815260200190600190039081611a105790505b5091505f5f611a5b866116c5565b90925090505f5b83811015611ab457611a8f87878381518110611a8057611a80612f13565b60200260200101518486612212565b858281518110611aa157611aa1612f13565b6020908102919091010152600101611a62565b5050505092915050565b5f5b8151811015611d71576001600160a01b0384165f90815260056020526040812083518290859085908110611af657611af6612f13565b60200260200101516020015181526020019081526020015f205490505f81848481518110611b2657611b26612f13565b60200260200101515f0151611b3b9190612f69565b90508015611d6757838381518110611b5557611b55612f13565b60200260200101515f01515f14611c2857611b8c848481518110611b7b57611b7b612f13565b602002602001015160200151610853565b604051611b999190613084565b6040518091039020848481518110611bb357611bb3612f13565b6020026020010151604001516001600160a01b0316876001600160a01b03167f9ac9a44091881640a73610df0bdc77ce7a7c33784685a2902e0140b6b9652f0d878781518110611c0557611c05612f13565b60200260200101515f0151604051611c1f91815260200190565b60405180910390a45b6001600160a01b0386165f90815260056020526040812085518290879087908110611c5557611c55612f13565b60200260200101516020015181526020019081526020015f2081905550611c9a848481518110611c8757611c87612f13565b6020026020010151604001518683612288565b838381518110611cac57611cac612f13565b6020026020010151604001516001600160a01b0316856001600160a01b0316876001600160a01b03167f7c791aa670e586419eeb53ce75c06cfaf3c657e90935bd3aae64380872f849fa878781518110611d0857611d08612f13565b6020026020010151602001518b86604051611d3f939291909283526001600160a01b03919091166020830152604082015260600190565b60405180910390a480848481518110611d5a57611d5a612f13565b6020908102919091010151525b5050600101611ac0565b5050505050565b5f8151602a14611d9b57604051636fa478cf60e11b815260040160405180910390fd5b60025b602a8110156115ac575f5f611dd2858481518110611dbe57611dbe612f13565b01602001516001600160f81b03191661229c565b9150915081611df457604051636fa478cf60e11b815260040160405180910390fd5b60ff8116611e0385601061315c565b611e0d919061318d565b93505050600101611d9e565b604080516001600160a01b038416602482015260448082018490528251808303909101815260649091019091526020810180516001600160e01b031663a9059cbb60e01b179052611e6b90849061232c565b505050565b5f61087f825490565b5f610a34838361238d565b5f611e91858584866123b3565b90508015611d71576001600160a01b0384165f908152600560209081526040808320888452909152812054611ec7908390612f69565b6001600160a01b0386165f9081526005602090815260408083208a845290915290208190559050611ef786610853565b604051611f049190613084565b604080519182900382205f898152600460209081529290206001015484845290926001600160a01b0391821692918916917f9ac9a44091881640a73610df0bdc77ce7a7c33784685a2902e0140b6b9652f0d910160405180910390a4505050505050565b5f8181526001830160205260408120541515610a34565b60208101516001600160a01b0316611faa5760405163dfde867160e01b815260040160405180910390fd5b611fb5600283612479565b611fd2576040516383528a7f60e01b815260040160405180910390fd5b6020818101515f84815260049092526040918290206001810180546001600160a01b0319166001600160a01b0390931692909217909155606083015160029091018054838501516001600160681b03166001600160b81b0319909116600160901b64ffffffffff948516026001600160901b0319161717600160681b429390931692909202919091179055815190517f0cf558cc2f9ccbbf831b6392a319e7892856e9324a757e9c3648ee9e5b88cb4f9161208c916129f9565b60405180910390a15050565b606061087f826120a860026120ad565b6119d5565b60605f610a3483612484565b606061087f6001600160a01b03831660146124dd565b5f8415806120db575081155b806120e557504284145b806120f05750828410155b156120fc575084611814565b5f83421161210a574261210c565b835b90505f6121198683612f00565b905061213a61212882896131ac565b6121346024600a61305f565b86612656565b92506121468884612f69565b98975050505050505050565b5f8481526004602081815260408084206001600160a01b03881685526003810183529084205488855292909152805460029091015483916121b6916001600160681b0381169064ffffffffff600160681b8204811691600160901b900416886120cf565b9050611036858284612713565b5f80546001600160a01b038381166001600160a01b0319831681178455604051919092169283917f8be0079c531659141344cd1fd0a4f28419497f9722a3daafe3b4186f6b6457e09190a35050565b61223c60405180606001604052805f81526020015f81526020015f6001600160a01b031681525090565b5f612249858785876123b3565b6040805160608101825291825260208083018890525f9788526004905295869020600101546001600160a01b0316958101959095525092949350505050565b611e6b6001600160a01b0384168383611e19565b5f8060f883901c602f811180156122b65750603a8160ff16105b156122cb57600194602f199091019350915050565b8060ff1660401080156122e1575060478160ff16105b156122f6576001946036199091019350915050565b8060ff16606010801561230c575060678160ff16105b15612321576001946056199091019350915050565b505f93849350915050565b5f6123406001600160a01b03841683612733565b905080515f1415801561236457508080602001905181019061236291906131c3565b155b15611e6b57604051635274afe760e01b81526001600160a01b03841660048201526024016108db565b5f825f0182815481106123a2576123a2612f13565b905f5260205f200154905092915050565b5f8481526004602090815260408083206001600160a01b038716845260030190915281205481806123e488866115b2565b905080831461246e578515612401576123fe868285612713565b91505b5f8881526004602090815260408083206001600160a01b038b1680855260039091019092529091208290557f06e13548f41cff17d181fb7a95d6935aaf6175b5a584469e25f3bf999103a5e56124568a610853565b83604051612465929190613117565b60405180910390a25b509695505050505050565b5f610a348383612740565b6060815f018054806020026020016040519081016040528092919081815260200182805480156124d157602002820191905f5260205f20905b8154815260200190600101908083116124bd575b50505050509050919050565b6060825f6124ec8460026131ac565b6124f7906002612f69565b6001600160401b0381111561250e5761250e612b44565b6040519080825280601f01601f191660200182016040528015612538576020820181803683370190505b509050600360fc1b815f8151811061255257612552612f13565b60200101906001600160f81b03191690815f1a905350600f60fb1b8160018151811061258057612580612f13565b60200101906001600160f81b03191690815f1a9053505f6125a28560026131ac565b6125ad906001612f69565b90505b6001811115612624576f181899199a1a9b1b9c1cb0b131b232b360811b83600f16601081106125e1576125e1612f13565b1a60f81b8282815181106125f7576125f7612f13565b60200101906001600160f81b03191690815f1a90535060049290921c9161261d816131e2565b90506125b0565b50811561264e5760405163e22e27eb60e01b815260048101869052602481018590526044016108db565b949350505050565b5f838302815f1985870982811083820303915050805f0361268a57838281612680576126806131f7565b0492505050610a34565b8084116126a8576126a884156126a157601161278c565b601261278c565b5f848688095f868103871696879004966002600389028118808a02820302808a02820302808a02820302808a02820302808a02820302808a02909103029181900381900460010186841190950394909402919094039290920491909117919091029150509392505050565b5f61264e846127228486612f00565b61272e6024600a61305f565b612656565b6060610a3483835f61279d565b5f81815260018301602052604081205461278557508154600181810184555f84815260208082209093018490558454848252828601909352604090209190915561087f565b505f61087f565b634e487b715f52806020526024601cfd5b6060814710156127c95760405163cf47918160e01b8152476004820152602481018390526044016108db565b5f5f856001600160a01b031684866040516127e49190613084565b5f6040518083038185875af1925050503d805f811461281e576040519150601f19603f3d011682016040523d82523d5f602084013e612823565b606091505b509150915061283386838361283d565b9695505050505050565b6060826128525761284d82612899565b610a34565b815115801561286957506001600160a01b0384163b155b1561289257604051639996b31560e01b81526001600160a01b03851660048201526024016108db565b5080610a34565b8051156128a95780518082602001fd5b60405163d6bda27560e01b815260040160405180910390fd5b80356001600160a01b0381168114611281575f5ffd5b80356001600160681b0381168114611281575f5ffd5b5f5f604083850312156128ff575f5ffd5b612908836128c2565b9150612916602084016128d8565b90509250929050565b5f5f83601f84011261292f575f5ffd5b5081356001600160401b03811115612945575f5ffd5b6020830191508360208260051b850101111561295f575f5ffd5b9250929050565b5f5f5f60408486031215612978575f5ffd5b612981846128c2565b925060208401356001600160401b0381111561299b575f5ffd5b6129a78682870161291f565b9497909650939450505050565b5f602082840312156129c4575f5ffd5b5035919050565b5f81518084528060208401602086015e5f602082860101526020601f19601f83011685010191505092915050565b602081525f610a3460208301846129cb565b5f60208284031215612a1b575f5ffd5b610a34826128c2565b5f5f83601f840112612a34575f5ffd5b5081356001600160401b03811115612a4a575f5ffd5b60208301915083602082850101111561295f575f5ffd5b5f5f60208385031215612a72575f5ffd5b82356001600160401b03811115612a87575f5ffd5b612a9385828601612a24565b90969095509350505050565b5f5f5f60408486031215612ab1575f5ffd5b612aba846128c2565b925060208401356001600160401b03811115612ad4575f5ffd5b6129a786828701612a24565b602080825282518282018190525f918401906040840190835b81811015612b3957835180518452602080820151818601526040918201516001600160a01b03169185019190915290930192606090920191600101612af9565b509095945050505050565b634e487b7160e01b5f52604160045260245ffd5b604051608081016001600160401b0381118282101715612b7a57612b7a612b44565b60405290565b5f82601f830112612b8f575f5ffd5b81356001600160401b03811115612ba857612ba8612b44565b604051601f8201601f19908116603f011681016001600160401b0381118282101715612bd657612bd6612b44565b604052818152838201602001851015612bed575f5ffd5b816020850160208301375f918101602001919091529392505050565b5f60208284031215612c19575f5ffd5b81356001600160401b03811115612c2e575f5ffd5b61264e84828501612b80565b5f5f5f5f5f5f60c08789031215612c4f575f5ffd5b612c58876128c2565b955060208701359450612c6d604088016128c2565b959894975094956060810135955060808101359460a0909101359350915050565b803564ffffffffff81168114611281575f5ffd5b5f5f5f5f60608587031215612cb5575f5ffd5b84356001600160401b03811115612cca575f5ffd5b612cd687828801612a24565b9095509350612ce9905060208601612c8e565b9150612cf7604086016128d8565b905092959194509250565b5f60208284031215612d12575f5ffd5b81356001600160401b03811115612d27575f5ffd5b820160808185031215612d38575f5ffd5b612d40612b58565b81356001600160401b03811115612d55575f5ffd5b612d6186828501612b80565b825250612d70602083016128c2565b6020820152612d81604083016128d8565b6040820152612d9260608301612c8e565b6060820152949350505050565b5f5f5f60408486031215612db1575f5ffd5b83356001600160401b03811115612dc6575f5ffd5b612dd286828701612a24565b9094509250612de5905060208501612c8e565b90509250925092565b5f5f5f5f60608587031215612e01575f5ffd5b612e0a856128c2565b9350612e18602086016128c2565b925060408501356001600160401b03811115612e32575f5ffd5b612e3e8782880161291f565b95989497509550505050565b5f5f60408385031215612e5b575f5ffd5b612e64836128c2565b9150612916602084016128c2565b5f602082016020835280845180835260408501915060408160051b8601019250602086015f5b82811015612ec957603f19878603018452612eb48583516129cb565b94506020938401939190910190600101612e98565b50929695505050505050565b5f60208284031215612ee5575f5ffd5b5051919050565b634e487b7160e01b5f52601160045260245ffd5b8181038181111561087f5761087f612eec565b634e487b7160e01b5f52603260045260245ffd5b5f5f8335601e19843603018112612f3c575f5ffd5b8301803591506001600160401b03821115612f55575f5ffd5b60200191503681900382131561295f575f5ffd5b8082018082111561087f5761087f612eec565b6001815b6001841115612fb757808504811115612f9b57612f9b612eec565b6001841615612fa957908102905b60019390931c928002612f80565b935093915050565b5f82612fcd5750600161087f565b81612fd957505f61087f565b8160018114612fef5760028114612ff957613015565b600191505061087f565b60ff84111561300a5761300a612eec565b50506001821b61087f565b5060208310610133831016604e8410600b8410161715613038575081810a61087f565b6130445f198484612f7c565b805f190482111561305757613057612eec565b029392505050565b5f610a3460ff841683612fbf565b5f81518060208401855e5f93019283525090919050565b5f610a34828461306d565b805160208083015191908110156115ac575f1960209190910360031b1b16919050565b81835281816020850137505f828201602090810191909152601f909101601f19169091010190565b602081525f61264e6020830184866130b2565b604081525f6131006040830185876130b2565b905064ffffffffff83166020830152949350505050565b604081525f61312960408301856129cb565b90508260208301529392505050565b5f613143828561306d565b6001600160f81b03199390931683525050600101919050565b6001600160a01b0381811683821681810290921691818304811482151761318557613185612eec565b505092915050565b6001600160a01b03818116838216019081111561087f5761087f612eec565b808202811582820484141761087f5761087f612eec565b5f602082840312156131d3575f5ffd5b81518015158114610a34575f5ffd5b5f816131f0576131f0612eec565b505f190190565b634e487b7160e01b5f52601260045260245ffdfea26469706673582212207c4468eda6ad8ac11992212357656b37e4cbfcde8a8786e25f8d3a753f14ebc264736f6c634300081d0033a2646970667358221220d18c69a31cb60616413b32fafcc11bacfd2e5568a1bf516a7849ad54ca83ad5d64736f6c634300081d0033",
  "language": "Solidity",
  "compiler": "0.8.29+commit.ab55807c"
}