{
  "address": "0x7547d68cF3c4836cc5754A13fDBA8666Ce426F82",
  "abi": [
    {
      "stateMutability": "payable",
      "type": "receive"
    },
    {
      "inputs": [
        {
          "internalType": "address[]",
          "name": "targets",
          "type": "address[]"
        },
        {
          "internalType": "bytes[]",
          "name": "data",
          "type": "bytes[]"
        },
        {
          "internalType": "uint256[]",
          "name": "values",
          "type": "uint256[]"
        }
      ],
      "name": "multicall",
      "outputs": [
        {
          "internalType": "bytes[]",
          "name": "results",
          "type": "bytes[]"
        }
      ],
      "stateMutability": "payable",
      "type": "function"
    },
    {
      "inputs": [
        {
          "internalType": "address",
          "name": "target",
          "type": "address"
        }
      ],
      "name": "AddressEmptyCode",
      "type": "error"
    },
    {
      "inputs": [],
      "name": "EthTransferFailed",
      "type": "error"
    },
    {
      "inputs": [],
      "name": "FailedCall",
      "type": "error"
    },
    {
      "inputs": [
        {
          "internalType": "uint256",
          "name": "balance",
          "type": "uint256"
        },
        {
          "internalType": "uint256",
          "name": "needed",
          "type": "uint256"
        }
      ],
      "name": "InsufficientBalance",
      "type": "error"
    },
    {
      "inputs": [],
      "name": "InvalidInputLength",
      "type": "error"
    }
  ],
  "bytecode": "0x6080604052348015600e575f5ffd5b5061059b8061001c5f395ff3fe608060405260043610610020575f3560e01c8063281818291461002b575f5ffd5b3661002757005b5f5ffd5b61003e61003936600461039b565b610054565b60405161004b919061043a565b60405180910390f35b6060858414801561006457508582145b61008157604051637db491eb60e01b815260040160405180910390fd5b8567ffffffffffffffff81111561009a5761009a6104be565b6040519080825280602002602001820160405280156100cd57816020015b60608152602001906001900390816100b85790505b5090505f5b868110156101a15761017c8888838181106100ef576100ef6104d2565b905060200201602081019061010491906104e6565b878784818110610116576101166104d2565b9050602002810190610128919061050c565b8080601f0160208091040260200160405190810160405280939291908181526020018383808284375f92019190915250899250889150869050818110610170576101706104d2565b90506020020135610227565b82828151811061018e5761018e6104d2565b60209081029190910101526001016100d2565b5034158015906101b057504715155b1561021d576040515f90339047908381818185875af1925050503d805f81146101f4576040519150601f19603f3d011682016040523d82523d5f602084013e6101f9565b606091505b505090508061021b57604051630db2c7f160e31b815260040160405180910390fd5b505b9695505050505050565b6060814710156102585760405163cf47918160e01b8152476004820152602481018390526044015b60405180910390fd5b5f5f856001600160a01b03168486604051610273919061054f565b5f6040518083038185875af1925050503d805f81146102ad576040519150601f19603f3d011682016040523d82523d5f602084013e6102b2565b606091505b50915091506102c28683836102ce565b925050505b9392505050565b6060826102e3576102de8261032a565b6102c7565b81511580156102fa57506001600160a01b0384163b155b1561032357604051639996b31560e01b81526001600160a01b038516600482015260240161024f565b50806102c7565b80511561033a5780518082602001fd5b60405163d6bda27560e01b815260040160405180910390fd5b5f5f83601f840112610363575f5ffd5b50813567ffffffffffffffff81111561037a575f5ffd5b6020830191508360208260051b8501011115610394575f5ffd5b9250929050565b5f5f5f5f5f5f606087890312156103b0575f5ffd5b863567ffffffffffffffff8111156103c6575f5ffd5b6103d289828a01610353565b909750955050602087013567ffffffffffffffff8111156103f1575f5ffd5b6103fd89828a01610353565b909550935050604087013567ffffffffffffffff81111561041c575f5ffd5b61042889828a01610353565b979a9699509497509295939492505050565b5f602082016020835280845180835260408501915060408160051b8601019250602086015f5b828110156104b257603f19878603018452815180518087528060208301602089015e5f602082890101526020601f19601f83011688010196505050602082019150602084019350600181019050610460565b50929695505050505050565b634e487b7160e01b5f52604160045260245ffd5b634e487b7160e01b5f52603260045260245ffd5b5f602082840312156104f6575f5ffd5b81356001600160a01b03811681146102c7575f5ffd5b5f5f8335601e19843603018112610521575f5ffd5b83018035915067ffffffffffffffff82111561053b575f5ffd5b602001915036819003821315610394575f5ffd5b5f82518060208501845e5f92019182525091905056fea2646970667358221220bfa7fa19b5912628b03089313b460fea3369cab8785bae79b3d695bc7766799f64736f6c634300081c0033",
  "language": "Solidity",
  "compiler": "0.8.28+commit.7893614a"
}