{
  "address": "0xD4fab888eDcbDDFC2b36e3Cf7D19d142441Fe101",
  "abi": [
    {
      "inputs": [
        {
          "internalType": "contract ISilo",
          "name": "_silo",
          "type": "address"
        },
        {
          "internalType": "address",
          "name": "_borrower",
          "type": "address"
        }
      ],
      "name": "borrowShare",
      "outputs": [
        {
          "internalType": "uint256",
          "name": "",
          "type": "uint256"
        }
      ],
      "stateMutability": "view",
      "type": "function"
    },
    {
      "inputs": [
        {
          "internalType": "contract ISiloConfig",
          "name": "_siloConfig",
          "type": "address"
        },
        {
          "internalType": "address",
          "name": "_borrower",
          "type": "address"
        }
      ],
      "name": "calculateBorrowValue",
      "outputs": [
        {
          "internalType": "uint256",
          "name": "borrowValue",
          "type": "uint256"
        }
      ],
      "stateMutability": "view",
      "type": "function"
    },
    {
      "inputs": [
        {
          "internalType": "contract ISiloConfig",
          "name": "_siloConfig",
          "type": "address"
        },
        {
          "internalType": "address",
          "name": "_borrower",
          "type": "address"
        }
      ],
      "name": "calculateCollateralValue",
      "outputs": [
        {
          "internalType": "uint256",
          "name": "collateralValue",
          "type": "uint256"
        }
      ],
      "stateMutability": "view",
      "type": "function"
    },
    {
      "inputs": [
        {
          "internalType": "contract ISilo",
          "name": "_silo",
          "type": "address"
        },
        {
          "internalType": "address",
          "name": "_borrower",
          "type": "address"
        }
      ],
      "name": "collateralBalanceOfUnderlying",
      "outputs": [
        {
          "internalType": "uint256",
          "name": "borrowerCollateral",
          "type": "uint256"
        }
      ],
      "stateMutability": "view",
      "type": "function"
    },
    {
      "inputs": [
        {
          "internalType": "contract ISilo",
          "name": "_silo",
          "type": "address"
        }
      ],
      "name": "collateralOnlyDeposits",
      "outputs": [
        {
          "internalType": "uint256",
          "name": "",
          "type": "uint256"
        }
      ],
      "stateMutability": "view",
      "type": "function"
    },
    {
      "inputs": [
        {
          "internalType": "contract ISilo",
          "name": "_silo",
          "type": "address"
        },
        {
          "internalType": "address",
          "name": "_borrower",
          "type": "address"
        }
      ],
      "name": "debtBalanceOfUnderlying",
      "outputs": [
        {
          "internalType": "uint256",
          "name": "",
          "type": "uint256"
        }
      ],
      "stateMutability": "view",
      "type": "function"
    },
    {
      "inputs": [
        {
          "internalType": "contract ISilo",
          "name": "_silo",
          "type": "address"
        }
      ],
      "name": "getBorrowAPR",
      "outputs": [
        {
          "internalType": "uint256",
          "name": "borrowAPR",
          "type": "uint256"
        }
      ],
      "stateMutability": "view",
      "type": "function"
    },
    {
      "inputs": [
        {
          "internalType": "contract ISilo",
          "name": "_silo",
          "type": "address"
        },
        {
          "internalType": "address",
          "name": "_borrower",
          "type": "address"
        }
      ],
      "name": "getBorrowAmount",
      "outputs": [
        {
          "internalType": "uint256",
          "name": "maxRepay",
          "type": "uint256"
        }
      ],
      "stateMutability": "view",
      "type": "function"
    },
    {
      "inputs": [
        {
          "internalType": "contract ISilo",
          "name": "_silo",
          "type": "address"
        }
      ],
      "name": "getDepositAPR",
      "outputs": [
        {
          "internalType": "uint256",
          "name": "depositAPR",
          "type": "uint256"
        }
      ],
      "stateMutability": "view",
      "type": "function"
    },
    {
      "inputs": [
        {
          "internalType": "contract ISilo",
          "name": "_silo",
          "type": "address"
        },
        {
          "internalType": "address",
          "name": "_borrower",
          "type": "address"
        }
      ],
      "name": "getDepositAmount",
      "outputs": [
        {
          "internalType": "uint256",
          "name": "borrowerDeposits",
          "type": "uint256"
        }
      ],
      "stateMutability": "view",
      "type": "function"
    },
    {
      "inputs": [
        {
          "internalType": "contract ISilo",
          "name": "_silo",
          "type": "address"
        }
      ],
      "name": "getFeesAndFeeReceivers",
      "outputs": [
        {
          "internalType": "address",
          "name": "daoFeeReceiver",
          "type": "address"
        },
        {
          "internalType": "address",
          "name": "deployerFeeReceiver",
          "type": "address"
        },
        {
          "internalType": "uint256",
          "name": "daoFee",
          "type": "uint256"
        },
        {
          "internalType": "uint256",
          "name": "deployerFee",
          "type": "uint256"
        }
      ],
      "stateMutability": "view",
      "type": "function"
    },
    {
      "inputs": [
        {
          "internalType": "contract ISilo",
          "name": "_silo",
          "type": "address"
        }
      ],
      "name": "getInterestRateModel",
      "outputs": [
        {
          "internalType": "address",
          "name": "irm",
          "type": "address"
        }
      ],
      "stateMutability": "view",
      "type": "function"
    },
    {
      "inputs": [
        {
          "internalType": "contract ISilo",
          "name": "_silo",
          "type": "address"
        }
      ],
      "name": "getLt",
      "outputs": [
        {
          "internalType": "uint256",
          "name": "lt",
          "type": "uint256"
        }
      ],
      "stateMutability": "view",
      "type": "function"
    },
    {
      "inputs": [
        {
          "internalType": "contract ISilo",
          "name": "_silo",
          "type": "address"
        },
        {
          "internalType": "address",
          "name": "_borrower",
          "type": "address"
        }
      ],
      "name": "getLtv",
      "outputs": [
        {
          "internalType": "uint256",
          "name": "ltv",
          "type": "uint256"
        }
      ],
      "stateMutability": "view",
      "type": "function"
    },
    {
      "inputs": [
        {
          "internalType": "contract ISilo",
          "name": "_silo",
          "type": "address"
        }
      ],
      "name": "getMaxLtv",
      "outputs": [
        {
          "internalType": "uint256",
          "name": "maxLtv",
          "type": "uint256"
        }
      ],
      "stateMutability": "view",
      "type": "function"
    },
    {
      "inputs": [
        {
          "internalType": "contract ISilo",
          "name": "_silo",
          "type": "address"
        }
      ],
      "name": "getModel",
      "outputs": [
        {
          "internalType": "contract IInterestRateModel",
          "name": "irm",
          "type": "address"
        }
      ],
      "stateMutability": "view",
      "type": "function"
    },
    {
      "inputs": [
        {
          "internalType": "contract ISilo",
          "name": "_silo",
          "type": "address"
        }
      ],
      "name": "getRawLiquidity",
      "outputs": [
        {
          "internalType": "uint256",
          "name": "liquidity",
          "type": "uint256"
        }
      ],
      "stateMutability": "view",
      "type": "function"
    },
    {
      "inputs": [
        {
          "internalType": "contract ISilo",
          "name": "_silo",
          "type": "address"
        },
        {
          "internalType": "address",
          "name": "_borrower",
          "type": "address"
        }
      ],
      "name": "getUserLT",
      "outputs": [
        {
          "internalType": "uint256",
          "name": "userLT",
          "type": "uint256"
        }
      ],
      "stateMutability": "view",
      "type": "function"
    },
    {
      "inputs": [
        {
          "internalType": "contract ISilo",
          "name": "_silo",
          "type": "address"
        },
        {
          "internalType": "address",
          "name": "_borrower",
          "type": "address"
        }
      ],
      "name": "getUserLTV",
      "outputs": [
        {
          "internalType": "uint256",
          "name": "userLTV",
          "type": "uint256"
        }
      ],
      "stateMutability": "view",
      "type": "function"
    },
    {
      "inputs": [
        {
          "components": [
            {
              "internalType": "contract ISilo",
              "name": "silo",
              "type": "address"
            },
            {
              "internalType": "address",
              "name": "wallet",
              "type": "address"
            }
          ],
          "internalType": "struct ISiloLens.Borrower[]",
          "name": "_borrowers",
          "type": "tuple[]"
        }
      ],
      "name": "getUsersHealth",
      "outputs": [
        {
          "components": [
            {
              "internalType": "uint256",
              "name": "lt",
              "type": "uint256"
            },
            {
              "internalType": "uint256",
              "name": "ltv",
              "type": "uint256"
            }
          ],
          "internalType": "struct ISiloLens.BorrowerHealth[]",
          "name": "healths",
          "type": "tuple[]"
        }
      ],
      "stateMutability": "view",
      "type": "function"
    },
    {
      "inputs": [
        {
          "components": [
            {
              "internalType": "contract ISilo",
              "name": "silo",
              "type": "address"
            },
            {
              "internalType": "address",
              "name": "wallet",
              "type": "address"
            }
          ],
          "internalType": "struct ISiloLens.Borrower[]",
          "name": "_borrowers",
          "type": "tuple[]"
        }
      ],
      "name": "getUsersLT",
      "outputs": [
        {
          "internalType": "uint256[]",
          "name": "usersLTs",
          "type": "uint256[]"
        }
      ],
      "stateMutability": "view",
      "type": "function"
    },
    {
      "inputs": [
        {
          "internalType": "contract ISilo",
          "name": "_silo",
          "type": "address"
        }
      ],
      "name": "getUtilization",
      "outputs": [
        {
          "internalType": "uint256",
          "name": "",
          "type": "uint256"
        }
      ],
      "stateMutability": "view",
      "type": "function"
    },
    {
      "inputs": [
        {
          "internalType": "contract ISiloConfig",
          "name": "_siloConfig",
          "type": "address"
        },
        {
          "internalType": "address",
          "name": "_borrower",
          "type": "address"
        }
      ],
      "name": "hasPosition",
      "outputs": [
        {
          "internalType": "bool",
          "name": "has",
          "type": "bool"
        }
      ],
      "stateMutability": "view",
      "type": "function"
    },
    {
      "inputs": [
        {
          "internalType": "contract ISiloConfig",
          "name": "_siloConfig",
          "type": "address"
        },
        {
          "internalType": "address",
          "name": "_borrower",
          "type": "address"
        }
      ],
      "name": "inDebt",
      "outputs": [
        {
          "internalType": "bool",
          "name": "hasDebt",
          "type": "bool"
        }
      ],
      "stateMutability": "view",
      "type": "function"
    },
    {
      "inputs": [
        {
          "internalType": "contract ISilo",
          "name": "_silo",
          "type": "address"
        },
        {
          "internalType": "address",
          "name": "_borrower",
          "type": "address"
        }
      ],
      "name": "isSolvent",
      "outputs": [
        {
          "internalType": "bool",
          "name": "",
          "type": "bool"
        }
      ],
      "stateMutability": "view",
      "type": "function"
    },
    {
      "inputs": [
        {
          "internalType": "contract ISilo",
          "name": "_silo",
          "type": "address"
        }
      ],
      "name": "liquidity",
      "outputs": [
        {
          "internalType": "uint256",
          "name": "",
          "type": "uint256"
        }
      ],
      "stateMutability": "view",
      "type": "function"
    },
    {
      "inputs": [
        {
          "internalType": "contract ISilo",
          "name": "_silo",
          "type": "address"
        },
        {
          "internalType": "contract IPartialLiquidation",
          "name": "_hook",
          "type": "address"
        },
        {
          "internalType": "address",
          "name": "_borrower",
          "type": "address"
        }
      ],
      "name": "maxLiquidation",
      "outputs": [
        {
          "internalType": "uint256",
          "name": "collateralToLiquidate",
          "type": "uint256"
        },
        {
          "internalType": "uint256",
          "name": "debtToRepay",
          "type": "uint256"
        },
        {
          "internalType": "bool",
          "name": "sTokenRequired",
          "type": "bool"
        },
        {
          "internalType": "bool",
          "name": "fullLiquidation",
          "type": "bool"
        }
      ],
      "stateMutability": "view",
      "type": "function"
    },
    {
      "inputs": [
        {
          "internalType": "contract ISilo",
          "name": "_silo",
          "type": "address"
        }
      ],
      "name": "protocolFees",
      "outputs": [
        {
          "internalType": "uint256",
          "name": "daoAndDeployerRevenue",
          "type": "uint256"
        }
      ],
      "stateMutability": "view",
      "type": "function"
    },
    {
      "inputs": [
        {
          "internalType": "contract ISilo",
          "name": "_silo",
          "type": "address"
        }
      ],
      "name": "totalBorrowAmount",
      "outputs": [
        {
          "internalType": "uint256",
          "name": "",
          "type": "uint256"
        }
      ],
      "stateMutability": "view",
      "type": "function"
    },
    {
      "inputs": [
        {
          "internalType": "contract ISilo",
          "name": "_silo",
          "type": "address"
        }
      ],
      "name": "totalBorrowAmountWithInterest",
      "outputs": [
        {
          "internalType": "uint256",
          "name": "amount",
          "type": "uint256"
        }
      ],
      "stateMutability": "view",
      "type": "function"
    },
    {
      "inputs": [
        {
          "internalType": "contract ISilo",
          "name": "_silo",
          "type": "address"
        }
      ],
      "name": "totalBorrowShare",
      "outputs": [
        {
          "internalType": "uint256",
          "name": "",
          "type": "uint256"
        }
      ],
      "stateMutability": "view",
      "type": "function"
    },
    {
      "inputs": [
        {
          "internalType": "contract ISilo",
          "name": "_silo",
          "type": "address"
        }
      ],
      "name": "totalDeposits",
      "outputs": [
        {
          "internalType": "uint256",
          "name": "totalDeposits",
          "type": "uint256"
        }
      ],
      "stateMutability": "view",
      "type": "function"
    },
    {
      "inputs": [
        {
          "internalType": "contract ISilo",
          "name": "_silo",
          "type": "address"
        }
      ],
      "name": "totalDepositsWithInterest",
      "outputs": [
        {
          "internalType": "uint256",
          "name": "amount",
          "type": "uint256"
        }
      ],
      "stateMutability": "view",
      "type": "function"
    },
    {
      "inputs": [],
      "name": "InvalidAsset",
      "type": "error"
    }
  ],
  "bytecode": "0x6080604052348015600e575f5ffd5b506135218061001c5f395ff3fe608060405234801561000f575f5ffd5b50600436106101f1575f3560e01c8063868682cb11610114578063d9bd0ea2116100a9578063e940325611610079578063e94032561461049e578063f2a07bc9146104b1578063f45b1b3a146104c4578063f5125d3f146102db578063fdce8643146104d7575f5ffd5b8063d9bd0ea2146102c8578063dcf844a714610465578063dd718ab414610478578063e21872181461048b575f5ffd5b80639bbafd53116100e45780639bbafd53146103f1578063aab2353a14610404578063b1ff4d6c1461043f578063b8c876b114610452575f5ffd5b8063868682cb146103985780638705c359146103ab5780638ec109da146103be5780639848b19c146103d1575f5ffd5b806343afdad21161018a578063590630f01161015a578063590630f01461034c578063647e0c201461035f5780636c15c9ba1461037257806374cd15f314610385575f5ffd5b806343afdad2146102db578063480defa9146102ee5780634f6a57b61461030e57806354a0577114610321575f5ffd5b806324bc00b0116101c557806324bc00b01461027f57806336e49658146102a257806337febff4146102b557806338bad5e5146102c8575f5ffd5b8062e0f7a0146101f557806306b39a771461021b5780631fe022691461022e578063249a649614610241575b5f5ffd5b610208610203366004612d15565b6104ea565b6040519081526020015b60405180910390f35b610208610229366004612d15565b6104fa565b61020861023c366004612d30565b61055b565b61025461024f366004612d15565b61056d565b604080516001600160a01b039586168152949093166020850152918301526060820152608001610212565b61029261028d366004612d30565b61058a565b6040519015158152602001610212565b6102086102b0366004612d15565b610595565b6102086102c3366004612d15565b6105df565b6102086102d6366004612d30565b6105e9565b6102086102e9366004612d30565b610655565b6103016102fc366004612d67565b610660565b6040516102129190612dd8565b61020861031c366004612d15565b61073d565b61033461032f366004612d15565b610747565b6040516001600160a01b039091168152602001610212565b61029261035a366004612d30565b610751565b61020861036d366004612d15565b6107bc565b610208610380366004612d30565b6107c6565b610208610393366004612d15565b6107d1565b6102086103a6366004612d30565b61080e565b6102926103b9366004612d30565b61086e565b6102086103cc366004612d30565b610879565b6103e46103df366004612d67565b61088c565b6040516102129190612e26565b6102086103ff366004612d15565b61093f565b610417610412366004612e5d565b61096d565b6040805194855260208501939093529015159183019190915215156060820152608001610212565b61020861044d366004612d15565b610a60565b610208610460366004612d15565b610a6a565b610208610473366004612d15565b610aa7565b610208610486366004612d30565b610b1d565b610334610499366004612d15565b610b30565b6102086104ac366004612d15565b610c07565b6102086104bf366004612d15565b610c36565b6102086104d2366004612d30565b610c40565b6102086104e5366004612d15565b610cd1565b5f6104f482610d67565b92915050565b5f816001600160a01b03166301e1d1146040518163ffffffff1660e01b8152600401602060405180830381865afa158015610537573d5f5f3e3d5ffd5b505050506040513d601f19601f820116820180604052508101906104f49190612ea5565b5f6105668383610e87565b9392505050565b5f5f5f5f61057a85610f7e565b5092989197509550909350915050565b5f6105668383611132565b60405163b6d821c760e01b81525f906001600160a01b0383169063b6d821c7906105c490600290600401612ed0565b602060405180830381865afa158015610537573d5f5f3e3d5ffd5b5f6104f482611581565b604051635f30114960e01b81526001600160a01b0382811660048301525f9190841690635f301149906024015b602060405180830381865afa158015610631573d5f5f3e3d5ffd5b505050506040513d601f19601f820116820180604052508101906105669190612ea5565b5f6105668383611658565b60608167ffffffffffffffff81111561067b5761067b612eea565b6040519080825280602002602001820160405280156106bf57816020015b604080518082019091525f80825260208201528152602001906001900390816106995790505b5090505f5b82811015610736575f8484838181106106df576106df612efe565b9050604002018036038101906106f59190612f48565b90505f83838151811061070a5761070a612efe565b60200260200101519050610725825f015183602001516117d3565b8252602090910152506001016106c4565b5092915050565b5f6104f482611916565b5f6104f482610b30565b6040516338b51ce160e01b81526001600160a01b0382811660048301525f91908416906338b51ce190602401602060405180830381865afa158015610798573d5f5f3e3d5ffd5b505050506040513d601f19601f820116820180604052508101906105669190612fc7565b5f6104f482611b11565b5f6105668383611be8565b5f816001600160a01b031663ecd658b46040518163ffffffff1660e01b8152600401602060405180830381865afa158015610537573d5f5f3e3d5ffd5b60405163c99ee7b760e01b81526001600160a01b038084166004830152821660248201525f9073__$89d37a64e3ccc21ed0741d2ae8390c2e12$__9063c99ee7b790604401602060405180830381865af4158015610631573d5f5f3e3d5ffd5b5f6105668383611e96565b5f6108848383611f96565b949350505050565b60608167ffffffffffffffff8111156108a7576108a7612eea565b6040519080825280602002602001820160405280156108d0578160200160208202803683370190505b5090505f5b82811015610736575f8484838181106108f0576108f0612efe565b9050604002018036038101906109069190612f48565b9050610919815f01518260200151610e87565b83838151811061092b5761092b612efe565b6020908102919091010152506001016108d5565b60405163b6d821c760e01b81525f906001600160a01b0383169063b6d821c7906105c4908490600401612ed0565b6040516317a05b0960e31b81526001600160a01b0382811660048301525f9182918291829187169063bd02d84890602401606060405180830381865afa1580156109b9573d5f5f3e3d5ffd5b505050506040513d601f19601f820116820180604052508101906109dd9190612fe0565b604051635f30114960e01b81526001600160a01b03898116600483015293975091955093505f91891690635f30114990602401602060405180830381865afa158015610a2b573d5f5f3e3d5ffd5b505050506040513d601f19601f82011682018060405250810190610a4f9190612ea5565b905083811491505093509350935093565b5f6104f4826120d3565b5f816001600160a01b0316630910a5106040518163ffffffff1660e01b8152600401602060405180830381865afa158015610537573d5f5f3e3d5ffd5b5f816001600160a01b0316639d35abaf6040518163ffffffff1660e01b815260040160a060405180830381865afa158015610ae4573d5f5f3e3d5ffd5b505050506040513d601f19601f82011682018060405250810190610b08919061302a565b50506001600160c01b03909216949350505050565b5f610b288383611f96565b509392505050565b5f816001600160a01b03166379502c556040518163ffffffff1660e01b8152600401602060405180830381865afa158015610b6d573d5f5f3e3d5ffd5b505050506040513d601f19601f82011682018060405250810190610b919190613081565b60405163e48a5f7b60e01b81526001600160a01b038481166004830152919091169063e48a5f7b9060240161022060405180830381865afa158015610bd8573d5f5f3e3d5ffd5b505050506040513d601f19601f82011682018060405250810190610bfc91906131bf565b610120015192915050565b60405163b6d821c760e01b81525f906001600160a01b0383169063b6d821c7906105c490600190600401612ed0565b5f6104f4826121df565b6040516370a0823160e01b81526001600160a01b0382811660048301525f9190841690634cdad5069082906370a0823190602401602060405180830381865afa158015610c8f573d5f5f3e3d5ffd5b505050506040513d601f19601f82011682018060405250810190610cb39190612ea5565b6040518263ffffffff1660e01b815260040161061691815260200190565b5f5f826001600160a01b0316639ef2fda06040518163ffffffff1660e01b8152600401606060405180830381865afa158015610d0f573d5f5f3e3d5ffd5b505050506040513d601f19601f82011682018060405250810190610d3391906131da565b805190915015610d615780516020820151610d5790670de0b6b3a764000090613259565b6105669190613284565b50919050565b5f5f826001600160a01b03166379502c556040518163ffffffff1660e01b8152600401602060405180830381865afa158015610da5573d5f5f3e3d5ffd5b505050506040513d601f19601f82011682018060405250810190610dc99190613081565b60405163e48a5f7b60e01b81526001600160a01b038581166004830152919091169063e48a5f7b9060240161022060405180830381865afa158015610e10573d5f5f3e3d5ffd5b505050506040513d601f19601f82011682018060405250810190610e3491906131bf565b61012001516040516364efe17760e01b81526001600160a01b038581166004830152426024830152919250908216906364efe17790604401602060405180830381865afa158015610631573d5f5f3e3d5ffd5b5f5f5f846001600160a01b03166379502c556040518163ffffffff1660e01b8152600401602060405180830381865afa158015610ec6573d5f5f3e3d5ffd5b505050506040513d601f19601f82011682018060405250810190610eea9190613081565b6040516394c0527d60e01b81526001600160a01b03868116600483015291909116906394c0527d9060240161044060405180830381865afa158015610f31573d5f5f3e3d5ffd5b505050506040513d601f19601f82011682018060405250810190610f559190613297565b604081015191935091506001600160a01b031615610f765781610160015192505b505092915050565b5f5f5f5f5f856001600160a01b03166379502c556040518163ffffffff1660e01b8152600401602060405180830381865afa158015610fbf573d5f5f3e3d5ffd5b505050506040513d601f19601f82011682018060405250810190610fe39190613081565b604051630509af0560e51b81526001600160a01b038881166004830152919091169063a135e0a090602401608060405180830381865afa158015611029573d5f5f3e3d5ffd5b505050506040513d601f19601f8201168201806040525081019061104d91906132cc565b9050809350819450829550505050856001600160a01b031663c45a01556040518163ffffffff1660e01b8152600401602060405180830381865afa158015611097573d5f5f3e3d5ffd5b505050506040513d601f19601f820116820180604052508101906110bb9190613081565b604051630c0d053960e11b81526001600160a01b038881166004830152919091169063181a0a72906024016040805180830381865afa158015611100573d5f5f3e3d5ffd5b505050506040513d601f19601f82011682018060405250810190611124919061330c565b909790965092945090925090565b5f5f5f846001600160a01b031663aecc90cb6040518163ffffffff1660e01b81526004016040805180830381865afa158015611170573d5f5f3e3d5ffd5b505050506040513d601f19601f82011682018060405250810190611194919061330c565b60405163e48a5f7b60e01b81526001600160a01b0380841660048301529294509092505f9187169063e48a5f7b9060240161022060405180830381865afa1580156111e1573d5f5f3e3d5ffd5b505050506040513d601f19601f8201168201806040525081019061120591906131bf565b60405163e48a5f7b60e01b81526001600160a01b0384811660048301529192505f9188169063e48a5f7b9060240161022060405180830381865afa15801561124f573d5f5f3e3d5ffd5b505050506040513d601f19601f8201168201806040525081019061127391906131bf565b60a08301516040516370a0823160e01b81526001600160a01b0389811660048301529293509116906370a0823190602401602060405180830381865afa1580156112bf573d5f5f3e3d5ffd5b505050506040513d601f19601f820116820180604052508101906112e39190612ea5565b156112f55760019450505050506104f4565b60808201516040516370a0823160e01b81526001600160a01b038881166004830152909116906370a0823190602401602060405180830381865afa15801561133f573d5f5f3e3d5ffd5b505050506040513d601f19601f820116820180604052508101906113639190612ea5565b156113755760019450505050506104f4565b60a08101516040516370a0823160e01b81526001600160a01b038881166004830152909116906370a0823190602401602060405180830381865afa1580156113bf573d5f5f3e3d5ffd5b505050506040513d601f19601f820116820180604052508101906113e39190612ea5565b156113f55760019450505050506104f4565b60808101516040516370a0823160e01b81526001600160a01b038881166004830152909116906370a0823190602401602060405180830381865afa15801561143f573d5f5f3e3d5ffd5b505050506040513d601f19601f820116820180604052508101906114639190612ea5565b156114755760019450505050506104f4565b60c08201516040516370a0823160e01b81526001600160a01b038881166004830152909116906370a0823190602401602060405180830381865afa1580156114bf573d5f5f3e3d5ffd5b505050506040513d601f19601f820116820180604052508101906114e39190612ea5565b156114f55760019450505050506104f4565b60c08101516040516370a0823160e01b81526001600160a01b038881166004830152909116906370a0823190602401602060405180830381865afa15801561153f573d5f5f3e3d5ffd5b505050506040513d601f19601f820116820180604052508101906115639190612ea5565b156115755760019450505050506104f4565b505f9695505050505050565b5f816001600160a01b03166379502c556040518163ffffffff1660e01b8152600401602060405180830381865afa1580156115be573d5f5f3e3d5ffd5b505050506040513d601f19601f820116820180604052508101906115e29190613081565b60405163e48a5f7b60e01b81526001600160a01b038481166004830152919091169063e48a5f7b9060240161022060405180830381865afa158015611629573d5f5f3e3d5ffd5b505050506040513d601f19601f8201168201806040525081019061164d91906131bf565b610160015192915050565b5f5f5f846001600160a01b03166379502c556040518163ffffffff1660e01b8152600401602060405180830381865afa158015611697573d5f5f3e3d5ffd5b505050506040513d601f19601f820116820180604052508101906116bb9190613081565b6040516394c0527d60e01b81526001600160a01b03868116600483015291909116906394c0527d9060240161044060405180830381865afa158015611702573d5f5f3e3d5ffd5b505050506040513d601f19601f820116820180604052508101906117269190613297565b604081015191935091506001600160a01b031615610f76576117ca8282865f60018660c001516001600160a01b03166370a082318b6040518263ffffffff1660e01b815260040161178691906001600160a01b0391909116815260200190565b602060405180830381865afa1580156117a1573d5f5f3e3d5ffd5b505050506040513d601f19601f820116820180604052508101906117c59190612ea5565b6122c0565b95945050505050565b5f5f5f5f856001600160a01b03166379502c556040518163ffffffff1660e01b8152600401602060405180830381865afa158015611813573d5f5f3e3d5ffd5b505050506040513d601f19601f820116820180604052508101906118379190613081565b6040516394c0527d60e01b81526001600160a01b03878116600483015291909116906394c0527d9060240161044060405180830381865afa15801561187e573d5f5f3e3d5ffd5b505050506040513d601f19601f820116820180604052508101906118a29190613297565b604081015191935091506001600160a01b03161561190d576119028282875f60018660c001516001600160a01b03166370a082318c6040518263ffffffff1660e01b815260040161178691906001600160a01b0391909116815260200190565b935081610160015192505b50509250929050565b5f5f826001600160a01b031663a1ff9bee6040518163ffffffff1660e01b8152600401602060405180830381865afa158015611954573d5f5f3e3d5ffd5b505050506040513d601f19601f820116820180604052508101906119789190612ea5565b9050805f0361198957505f92915050565b5f836001600160a01b03166379502c556040518163ffffffff1660e01b8152600401602060405180830381865afa1580156119c6573d5f5f3e3d5ffd5b505050506040513d601f19601f820116820180604052508101906119ea9190613081565b60405163e48a5f7b60e01b81526001600160a01b038681166004830152919091169063e48a5f7b9060240161022060405180830381865afa158015611a31573d5f5f3e3d5ffd5b505050506040513d601f19601f82011682018060405250810190611a5591906131bf565b905081846001600160a01b031663ecd658b46040518163ffffffff1660e01b8152600401602060405180830381865afa158015611a94573d5f5f3e3d5ffd5b505050506040513d601f19601f82011682018060405250810190611ab89190612ea5565b611ac186610d67565b611acb9190613259565b611ad59190613284565b60208201518251919450670de0b6b3a764000091611af39083613339565b611afd9190613339565b611b079085613259565b6108849190613284565b5f816001600160a01b03166379502c556040518163ffffffff1660e01b8152600401602060405180830381865afa158015611b4e573d5f5f3e3d5ffd5b505050506040513d601f19601f82011682018060405250810190611b729190613081565b60405163e48a5f7b60e01b81526001600160a01b038481166004830152919091169063e48a5f7b9060240161022060405180830381865afa158015611bb9573d5f5f3e3d5ffd5b505050506040513d601f19601f82011682018060405250810190611bdd91906131bf565b610140015192915050565b5f5f5f846001600160a01b03166379502c556040518163ffffffff1660e01b8152600401602060405180830381865afa158015611c27573d5f5f3e3d5ffd5b505050506040513d601f19601f82011682018060405250810190611c4b9190613081565b604051630483b24f60e41b81526001600160a01b038781166004830152919091169063483b24f090602401606060405180830381865afa158015611c91573d5f5f3e3d5ffd5b505050506040513d601f19601f82011682018060405250810190611cb5919061334c565b506040516370a0823160e01b81526001600160a01b0387811660048301529294509092505f918416906370a0823190602401602060405180830381865afa158015611d02573d5f5f3e3d5ffd5b505050506040513d601f19601f82011682018060405250810190611d269190612ea5565b6040516370a0823160e01b81526001600160a01b0387811660048301529192505f918416906370a0823190602401602060405180830381865afa158015611d6f573d5f5f3e3d5ffd5b505050506040513d601f19601f82011682018060405250810190611d939190612ea5565b90508115611e0b5760405163a7d6e44b60e01b81526001600160a01b0388169063a7d6e44b90611dc99085905f9060040161338b565b602060405180830381865afa158015611de4573d5f5f3e3d5ffd5b505050506040513d601f19601f82011682018060405250810190611e089190612ea5565b94505b8015611e8c5760405163a7d6e44b60e01b81526001600160a01b0388169063a7d6e44b90611e4090849060019060040161338b565b602060405180830381865afa158015611e5b573d5f5f3e3d5ffd5b505050506040513d601f19601f82011682018060405250810190611e7f9190612ea5565b611e8990866133af565b94505b5050505092915050565b6040516394c0527d60e01b81526001600160a01b0382811660048301525f9182918516906394c0527d9060240161044060405180830381865afa158015611edf573d5f5f3e3d5ffd5b505050506040513d601f19601f82011682018060405250810190611f039190613297565b60c08101519092506001600160a01b03161580159150610884575060c08101516040516370a0823160e01b81526001600160a01b038581166004830152909116906370a0823190602401602060405180830381865afa158015611f68573d5f5f3e3d5ffd5b505050506040513d601f19601f82011682018060405250810190611f8c9190612ea5565b1515949350505050565b6040516394c0527d60e01b81526001600160a01b0382811660048301525f918291829182918716906394c0527d9060240161044060405180830381865afa158015611fe3573d5f5f3e3d5ffd5b505050506040513d601f19601f820116820180604052508101906120079190613297565b606082015191935091506001600160a01b031661202b575f5f9350935050506120cc565b60c08101516040516370a0823160e01b81526001600160a01b0380881660048301525f926120ad92869286928b92879260019216906370a0823190602401602060405180830381865afa158015612084573d5f5f3e3d5ffd5b505050506040513d601f19601f820116820180604052508101906120a89190612ea5565b612317565b90506120c28184606001518460600151612594565b5090955093505050505b9250929050565b5f5f826001600160a01b03166379502c556040518163ffffffff1660e01b8152600401602060405180830381865afa158015612111573d5f5f3e3d5ffd5b505050506040513d601f19601f820116820180604052508101906121359190613081565b604051630483b24f60e41b81526001600160a01b038581166004830152919091169063483b24f090602401606060405180830381865afa15801561217b573d5f5f3e3d5ffd5b505050506040513d601f19601f8201168201806040525081019061219f919061334c565b92505050806001600160a01b03166318160ddd6040518163ffffffff1660e01b8152600401602060405180830381865afa158015610631573d5f5f3e3d5ffd5b5f6104f4826001600160a01b031663b6d821c760016040518263ffffffff1660e01b81526004016122109190612ed0565b602060405180830381865afa15801561222b573d5f5f3e3d5ffd5b505050506040513d601f19601f8201168201806040525081019061224f9190612ea5565b60405163b6d821c760e01b81526001600160a01b0385169063b6d821c79061227c90600290600401612ed0565b602060405180830381865afa158015612297573d5f5f3e3d5ffd5b505050506040513d601f19601f820116820180604052508101906122bb9190612ea5565b6125ea565b5f815f036122cf57505f61230d565b5f6122de888888888888612317565b905080608001515f036122f4575f91505061230d565b6123078189606001518960600151612594565b93505050505b9695505050505050565b6123566040518060a001604052805f6001600160a01b031681526020015f6001600160a01b031681526020015f81526020015f81526020015f81525090565b85606001516001600160a01b031687606001516001600160a01b0316146123c057600184600181111561238b5761238b612ebc565b1461239f578660e001518660e001516123ac565b8661010001518661010001515b6001600160a01b0390811660208401521681525b5f5f6123d18960800151885f612602565b80935081925050505f5f8a604001516001600160a01b031663ffbaaf7a6040518163ffffffff1660e01b81526004016040805180830381865afa15801561241a573d5f5f3e3d5ffd5b505050506040513d601f19601f8201168201806040525081019061243e91906133c2565b9150915061244f8382865f5f6126ea565b604086015260a08b0151612464908a5f612602565b94509250600187600181111561247c5761247c612ebc565b1461248757816124a3565b6124a38b604001518c61012001518d5f01518e60200151612725565b91506124b38383865f60016126ea565b606086015260c08a01516124c8908a88612602565b945092505f60018860018111156124e1576124e1612ebc565b1461255b578a604001516001600160a01b031663b6d821c760026040518263ffffffff1660e01b81526004016125179190612ed0565b602060405180830381865afa158015612532573d5f5f3e3d5ffd5b505050506040513d601f19601f820116820180604052508101906125569190612ea5565b61256e565b61256e8b604001518c610120015161281b565b905061257f848287600160026126ea565b608087015250939a9950505050505050505050565b5f5f5f6125a286868661290e565b9093509150821580156125b3575081155b156125c557505f9150819050806125e1565b825f036125d457505f196125e1565b6125de8284612a64565b90505b93509350939050565b5f8282116125fa57818303610566565b5f9392505050565b5f5f825f0361267c5760405163dce5c2db60e01b81526001600160a01b03858116600483015286169063dce5c2db906024016040805180830381865afa15801561264e573d5f5f3e3d5ffd5b505050506040513d601f19601f8201168201806040525081019061267291906133c2565b90925090506126e2565b829150846001600160a01b03166318160ddd6040518163ffffffff1660e01b8152600401602060405180830381865afa1580156126bb573d5f5f3e3d5ffd5b505050506040513d601f19601f820116820180604052508101906126df9190612ea5565b90505b935093915050565b5f5f5f6126f8878786612a7a565b91509150815f0361270d5787925050506117ca565b61271988828488612ad5565b98975050505050505050565b6040516367efe7fd60e11b81526001600160a01b0385811660048301524260248301525f91829186169063cfdfcffa90604401602060405180830381865afa925050508015612791575060408051601f3d908101601f1916820190925261278e91810190612ea5565b60015b156127995790505b5f5f876001600160a01b03166339c5c5056040518163ffffffff1660e01b81526004016040805180830381865afa1580156127d6573d5f5f3e3d5ffd5b505050506040513d601f19601f820116820180604052508101906127fa91906133c2565b9150915061280b8282858989612b17565b50919a9950505050505050505050565b6040516367efe7fd60e11b81526001600160a01b0383811660048301524260248301525f91829184169063cfdfcffa90604401602060405180830381865afa925050508015612887575060408051601f3d908101601f1916820190925261288491810190612ea5565b60015b1561288f5790505b60405163b6d821c760e01b8152612905906001600160a01b0386169063b6d821c7906128c090600290600401612ed0565b602060405180830381865afa1580156128db573d5f5f3e3d5ffd5b505050506040513d601f19601f820116820180604052508101906128ff9190612ea5565b82612b74565b50949350505050565b5f5f5f8560600151866040015161292591906133af565b905080156129b75785516001600160a01b031661294257806129b4565b85516040516313b0be3360e01b8152600481018390526001600160a01b038781166024830152909116906313b0be3390604401602060405180830381865afa158015612990573d5f5f3e3d5ffd5b505050506040513d601f19601f820116820180604052508101906129b49190612ea5565b92505b608086015115612a5b5760208601516001600160a01b03166129dd578560800151612a58565b602086015160808701516040516313b0be3360e01b815260048101919091526001600160a01b038681166024830152909116906313b0be3390604401602060405180830381865afa158015612a34573d5f5f3e3d5ffd5b505050506040513d601f19601f82011682018060405250810190612a589190612ea5565b91505b50935093915050565b5f61056683670de0b6b3a7640000846001612ad5565b5f5f835f03612a87575f94505b6002836002811115612a9b57612a9b612ebc565b14612ac657612aac6003600a6134bf565b612ab690856133af565b612ac18660016133af565b612ac9565b83855b90969095509350505050565b5f612b02612ae283612bbc565b8015612afd57505f8480612af857612af8613270565b868809115b151590565b612b0d868686612be8565b6117ca91906133af565b5f5f5f5f612b258888612b74565b9093509050858501612b408282670de0b6b3a7640000612ca5565b92505f612b4d8484613339565b90508a195f190181811015612b60578091505b818c01965050505095509550955095915050565b5f80831580612b81575082155b15612b9057508290505f6120cc565b612ba38484670de0b6b3a7640000612ca5565b90508084019150838210156120cc575091925f92509050565b5f6002826003811115612bd157612bd1612ebc565b612bdb91906134ca565b60ff166001149050919050565b5f838302815f1985870982811083820303915050805f03612c1c57838281612c1257612c12613270565b0492505050610566565b808411612c3a57612c3a8415612c33576011612ced565b6012612ced565b5f848688095f868103871696879004966002600389028118808a02820302808a02820302808a02820302808a02820302808a02820302808a02909103029181900381900460010186841190950394909402919094039290920491909117919091029150509392505050565b5f835f03612cb457505f610566565b5082820282848281612cc857612cc8613270565b0414612cd557505f610566565b818181612ce457612ce4613270565b04949350505050565b634e487b715f52806020526024601cfd5b6001600160a01b0381168114612d12575f5ffd5b50565b5f60208284031215612d25575f5ffd5b813561056681612cfe565b5f5f60408385031215612d41575f5ffd5b8235612d4c81612cfe565b91506020830135612d5c81612cfe565b809150509250929050565b5f5f60208385031215612d78575f5ffd5b823567ffffffffffffffff811115612d8e575f5ffd5b8301601f81018513612d9e575f5ffd5b803567ffffffffffffffff811115612db4575f5ffd5b8560208260061b8401011115612dc8575f5ffd5b6020919091019590945092505050565b602080825282518282018190525f918401906040840190835b81811015612e1b578351805184526020908101518185015290930192604090920191600101612df1565b509095945050505050565b602080825282518282018190525f918401906040840190835b81811015612e1b578351835260209384019390920191600101612e3f565b5f5f5f60608486031215612e6f575f5ffd5b8335612e7a81612cfe565b92506020840135612e8a81612cfe565b91506040840135612e9a81612cfe565b809150509250925092565b5f60208284031215612eb5575f5ffd5b5051919050565b634e487b7160e01b5f52602160045260245ffd5b6020810160038310612ee457612ee4612ebc565b91905290565b634e487b7160e01b5f52604160045260245ffd5b634e487b7160e01b5f52603260045260245ffd5b604051610220810167ffffffffffffffff81118282101715612f4257634e487b7160e01b5f52604160045260245ffd5b60405290565b5f6040828403128015612f59575f5ffd5b506040805190810167ffffffffffffffff81118282101715612f8957634e487b7160e01b5f52604160045260245ffd5b6040528235612f9781612cfe565b81526020830135612fa781612cfe565b60208201529392505050565b80518015158114612fc2575f5ffd5b919050565b5f60208284031215612fd7575f5ffd5b61056682612fb3565b5f5f5f60608486031215612ff2575f5ffd5b83516020850151909350915061300a60408501612fb3565b90509250925092565b805167ffffffffffffffff81168114612fc2575f5ffd5b5f5f5f5f5f60a0868803121561303e575f5ffd5b85516001600160c01b0381168114613054575f5ffd5b945061306260208701613013565b6040870151606088015160809098015196999198509695945092505050565b5f60208284031215613091575f5ffd5b815161056681612cfe565b8051612fc281612cfe565b5f61022082840312156130b8575f5ffd5b6130c0612f12565b825181526020808401519082015290506130dc6040830161309c565b60408201526130ed6060830161309c565b60608201526130fe6080830161309c565b608082015261310f60a0830161309c565b60a082015261312060c0830161309c565b60c082015261313160e0830161309c565b60e0820152613143610100830161309c565b610100820152613156610120830161309c565b6101208201526101408281015190820152610160808301519082015261018080830151908201526101a080830151908201526101c080830151908201526131a06101e0830161309c565b6101e08201526131b36102008301612fb3565b61020082015292915050565b5f61022082840312156131d0575f5ffd5b61056683836130a7565b5f60608284031280156131eb575f5ffd5b506040516060810167ffffffffffffffff8111828210171561321b57634e487b7160e01b5f52604160045260245ffd5b60409081528351825260208085015190830152613239908401613013565b60408201529392505050565b634e487b7160e01b5f52601160045260245ffd5b80820281158282048414176104f4576104f4613245565b634e487b7160e01b5f52601260045260245ffd5b5f8261329257613292613270565b500490565b5f5f61044083850312156132a9575f5ffd5b6132b384846130a7565b91506132c38461022085016130a7565b90509250929050565b5f5f5f5f608085870312156132df575f5ffd5b8451602086015160408701516060880151929650909450925061330181612cfe565b939692955090935050565b5f5f6040838503121561331d575f5ffd5b825161332881612cfe565b6020840151909250612d5c81612cfe565b818103818111156104f4576104f4613245565b5f5f5f6060848603121561335e575f5ffd5b835161336981612cfe565b602085015190935061337a81612cfe565b6040850151909250612e9a81612cfe565b82815260408101600283106133a2576133a2612ebc565b8260208301529392505050565b808201808211156104f4576104f4613245565b5f5f604083850312156133d3575f5ffd5b505080516020909101519092909150565b6001815b60018411156126e25780850481111561340357613403613245565b600184161561341157908102905b60019390931c9280026133e8565b5f8261342d575060016104f4565b8161343957505f6104f4565b816001811461344f576002811461345957613475565b60019150506104f4565b60ff84111561346a5761346a613245565b50506001821b6104f4565b5060208310610133831016604e8410600b8410161715613498575081810a6104f4565b6134a45f1984846133e4565b805f19048211156134b7576134b7613245565b029392505050565b5f610566838361341f565b5f60ff8316806134dc576134dc613270565b8060ff8416069150509291505056fea264697066735822122045281be7f174ac676f075d63ca269ed6c7064f7432aa0ba0badfbeeb5b9f7c8864736f6c634300081c0033",
  "language": "Solidity",
  "compiler": "0.8.29+commit.7893614a"
}