{
  "address": "0x047801ED4F53Ad3dc28649ab972b3C949f27505c",
  "abi": [
    {
      "type": "constructor",
      "inputs": [],
      "stateMutability": "nonpayable"
    },
    {
      "type": "function",
      "name": "ORACLE_IMPLEMENTATION",
      "inputs": [],
      "outputs": [
        {
          "name": "",
          "type": "address",
          "internalType": "address"
        }
      ],
      "stateMutability": "view"
    },
    {
      "type": "function",
      "name": "create",
      "inputs": [
        {
          "name": "_config",
          "type": "tuple",
          "internalType": "struct IFixedPricePTAMMOracleConfig.DeploymentConfig",
          "components": [
            {
              "name": "amm",
              "type": "address",
              "internalType": "contract IPendleAMM"
            },
            {
              "name": "ptToken",
              "type": "address",
              "internalType": "address"
            },
            {
              "name": "ptUnderlyingQuoteToken",
              "type": "address",
              "internalType": "address"
            }
          ]
        },
        {
          "name": "_externalSalt",
          "type": "bytes32",
          "internalType": "bytes32"
        }
      ],
      "outputs": [
        {
          "name": "oracle",
          "type": "address",
          "internalType": "contract IFixedPricePTAMMOracle"
        }
      ],
      "stateMutability": "nonpayable"
    },
    {
      "type": "function",
      "name": "getConfigAddress",
      "inputs": [
        {
          "name": "",
          "type": "bytes32",
          "internalType": "bytes32"
        }
      ],
      "outputs": [
        {
          "name": "",
          "type": "address",
          "internalType": "address"
        }
      ],
      "stateMutability": "view"
    },
    {
      "type": "function",
      "name": "getOracleAddress",
      "inputs": [
        {
          "name": "",
          "type": "address",
          "internalType": "address"
        }
      ],
      "outputs": [
        {
          "name": "",
          "type": "address",
          "internalType": "address"
        }
      ],
      "stateMutability": "view"
    },
    {
      "type": "function",
      "name": "hashConfig",
      "inputs": [
        {
          "name": "_config",
          "type": "tuple",
          "internalType": "struct IFixedPricePTAMMOracleConfig.DeploymentConfig",
          "components": [
            {
              "name": "amm",
              "type": "address",
              "internalType": "contract IPendleAMM"
            },
            {
              "name": "ptToken",
              "type": "address",
              "internalType": "address"
            },
            {
              "name": "ptUnderlyingQuoteToken",
              "type": "address",
              "internalType": "address"
            }
          ]
        }
      ],
      "outputs": [
        {
          "name": "configId",
          "type": "bytes32",
          "internalType": "bytes32"
        }
      ],
      "stateMutability": "view"
    },
    {
      "type": "function",
      "name": "nonces",
      "inputs": [
        {
          "name": "owner",
          "type": "address",
          "internalType": "address"
        }
      ],
      "outputs": [
        {
          "name": "",
          "type": "uint256",
          "internalType": "uint256"
        }
      ],
      "stateMutability": "view"
    },
    {
      "type": "function",
      "name": "predictAddress",
      "inputs": [
        {
          "name": "_config",
          "type": "tuple",
          "internalType": "struct IFixedPricePTAMMOracleConfig.DeploymentConfig",
          "components": [
            {
              "name": "amm",
              "type": "address",
              "internalType": "contract IPendleAMM"
            },
            {
              "name": "ptToken",
              "type": "address",
              "internalType": "address"
            },
            {
              "name": "ptUnderlyingQuoteToken",
              "type": "address",
              "internalType": "address"
            }
          ]
        },
        {
          "name": "_deployer",
          "type": "address",
          "internalType": "address"
        },
        {
          "name": "_externalSalt",
          "type": "bytes32",
          "internalType": "bytes32"
        }
      ],
      "outputs": [
        {
          "name": "predictedAddress",
          "type": "address",
          "internalType": "address"
        }
      ],
      "stateMutability": "view"
    },
    {
      "type": "function",
      "name": "resolveExistingOracle",
      "inputs": [
        {
          "name": "_configId",
          "type": "bytes32",
          "internalType": "bytes32"
        }
      ],
      "outputs": [
        {
          "name": "oracle",
          "type": "address",
          "internalType": "address"
        }
      ],
      "stateMutability": "view"
    },
    {
      "type": "function",
      "name": "verifyConfig",
      "inputs": [
        {
          "name": "_config",
          "type": "tuple",
          "internalType": "struct IFixedPricePTAMMOracleConfig.DeploymentConfig",
          "components": [
            {
              "name": "amm",
              "type": "address",
              "internalType": "contract IPendleAMM"
            },
            {
              "name": "ptToken",
              "type": "address",
              "internalType": "address"
            },
            {
              "name": "ptUnderlyingQuoteToken",
              "type": "address",
              "internalType": "address"
            }
          ]
        }
      ],
      "outputs": [],
      "stateMutability": "view"
    },
    {
      "type": "event",
      "name": "NewOracle",
      "inputs": [
        {
          "name": "oracle",
          "type": "address",
          "indexed": true,
          "internalType": "address"
        }
      ],
      "anonymous": false
    },
    {
      "type": "error",
      "name": "AddressZero",
      "inputs": []
    },
    {
      "type": "error",
      "name": "DeployerCannotBeZero",
      "inputs": []
    },
    {
      "type": "error",
      "name": "FailedDeployment",
      "inputs": []
    },
    {
      "type": "error",
      "name": "InsufficientBalance",
      "inputs": [
        {
          "name": "balance",
          "type": "uint256",
          "internalType": "uint256"
        },
        {
          "name": "needed",
          "type": "uint256",
          "internalType": "uint256"
        }
      ]
    },
    {
      "type": "error",
      "name": "InvalidAccountNonce",
      "inputs": [
        {
          "name": "account",
          "type": "address",
          "internalType": "address"
        },
        {
          "name": "currentNonce",
          "type": "uint256",
          "internalType": "uint256"
        }
      ]
    },
    {
      "type": "error",
      "name": "TokensAreTheSame",
      "inputs": []
    }
  ],
  "bytecode": "0x60a060405234801561000f575f5ffd5b5060405161001c9061008f565b604051809103905ff080158015610035573d5f5f3e3d5ffd5b506001600160a01b03811661007e5760405162461bcd60e51b815260206004820152600b60248201526a5a65726f4164647265737360a81b604482015260640160405180910390fd5b6001600160a01b031660805261009c565b61066880610b7e83390190565b608051610abc6100c25f395f8181610162015281816102e801526104ce0152610abc5ff3fe608060405234801561000f575f5ffd5b5060043610610090575f3560e01c8063981ac42611610063578063981ac426146101355780639e97fdbd14610148578063a8f39f661461015d578063d151a37814610184578063f896503a14610197575f5ffd5b806346262e391461009457806354482173146100ba5780635f4ec941146100fa5780637ecebe001461010d575b5f5ffd5b6100a76100a23660046107b5565b6101bf565b6040519081526020015b60405180910390f35b6100e26100c83660046107cf565b60026020525f90815260409020546001600160a01b031681565b6040516001600160a01b0390911681526020016100b1565b6100e26101083660046107ea565b610211565b6100a761011b3660046107cf565b6001600160a01b03165f9081526020819052604090205490565b6100e2610143366004610801565b610256565b61015b6101563660046107b5565b610382565b005b6100e27f000000000000000000000000000000000000000000000000000000000000000081565b6100e261019236600461082a565b610415565b6100e26101a53660046107ea565b60016020525f90815260409020546001600160a01b031681565b6040805182516001600160a01b039081166020808401919091528401518116828401529183015190911660608201525f906080015b604051602081830303815290604052805190602001209050919050565b5f818152600160205260408120546001600160a01b0316801561024d576001600160a01b038082165f908152600260205260409020541661024f565b5f5b9392505050565b5f5f610261846101bf565b90505f61026d82610211565b90506001600160a01b0381161561028757915061037c9050565b61029085610382565b5f8560405161029e90610714565b81516001600160a01b0390811682526020808401518216908301526040928301511682820152905190819003606001905ff0801580156102e0573d5f5f3e3d5ffd5b5090506103157f0000000000000000000000000000000000000000000000000000000000000000610310876104fd565b610548565b9350610322848285610554565b60405163189acdbd60e31b81526001600160a01b03828116600483015285169063c4d66de8906024015f604051808303815f87803b158015610362575f5ffd5b505af1158015610374573d5f5f3e3d5ffd5b505050505050505b92915050565b60408101516001600160a01b03166103ad57604051639fabe1c160e01b815260040160405180910390fd5b60208101516001600160a01b03166103d857604051639fabe1c160e01b815260040160405180910390fd5b80602001516001600160a01b031681604001516001600160a01b03160361041257604051633d4cfcc560e11b815260040160405180910390fd5b50565b5f5f610420856101bf565b90505f61042c82610211565b90506001600160a01b0381161561044657915061024f9050565b6001600160a01b03851661046d5760405163e4452e2b60e01b815260040160405180910390fd5b6001600160a01b0385165f90815260208181526040918290205482516bffffffffffffffffffffffff1960608a901b16818401526034810191909152605480820188905283518083039091018152607490910190925281519101206104f3907f000000000000000000000000000000000000000000000000000000000000000090610624565b9695505050505050565b335f81815260208190526040812080546001810190915590919060405160609290921b6bffffffffffffffffffffffff191660208301526034820152605481018390526074016101f4565b5f61024f83835f610683565b5f818152600160205260409020546001600160a01b0316156105b25760405162461bcd60e51b815260206004820152601260248201527110dbdb999a59d05b1c9958591e515e1a5cdd60721b60448201526064015b60405180910390fd5b5f81815260016020908152604080832080546001600160a01b038088166001600160a01b03199283168117909355918552600290935281842080549188169190931681179092555190917fb3eacd0e351fafdfefdec84e1cd19679b38dbcd63ea7c2c24da17fd2bc3b3c0e91a2505050565b6040513060388201526f5af43d82803e903d91602b57fd5bf3ff602482015260148101839052733d602d80600a3d3981f3363d3d373d3d3d363d738152605881018290526037600c820120607882015260556043909101205f9061024f565b5f814710156106ae5760405163cf47918160e01b8152476004820152602481018390526044016105a9565b6e5af43d82803e903d91602b57fd5bf360205283601152763d602d80600a3d3981f3363d3d373d3d3d363d730000008460881c175f52826037600984f590506001600160a01b03811661024f5760405163b06ebf3d60e01b815260040160405180910390fd5b61021f8061086883390190565b6001600160a01b0381168114610412575f5ffd5b5f60608284031215610745575f5ffd5b6040516060810181811067ffffffffffffffff8211171561077457634e487b7160e01b5f52604160045260245ffd5b604052905080823561078581610721565b8152602083013561079581610721565b602082015260408301356107a881610721565b6040919091015292915050565b5f606082840312156107c5575f5ffd5b61024f8383610735565b5f602082840312156107df575f5ffd5b813561024f81610721565b5f602082840312156107fa575f5ffd5b5035919050565b5f5f60808385031215610812575f5ffd5b61081c8484610735565b946060939093013593505050565b5f5f5f60a0848603121561083c575f5ffd5b6108468585610735565b9250606084013561085681610721565b92959294505050608091909101359056fe60e060405234801561000f575f5ffd5b5060405161021f38038061021f83398101604081905261002e9161006e565b80516001600160a01b039081166080526020820151811660a0526040909101511660c0526100eb565b6001600160a01b038116811461006b575f5ffd5b50565b5f606082840312801561007f575f5ffd5b50604051606081016001600160401b03811182821017156100ae57634e487b7160e01b5f52604160045260245ffd5b60405282516100bc81610057565b815260208301516100cc81610057565b602082015260408301516100df81610057565b60408201529392505050565b60805160a05160c05161010d6101125f395f609001525f606501525f603f015261010d5ff3fe6080604052348015600e575f5ffd5b50600436106026575f3560e01c8063c3f909d414602a575b5f5ffd5b60408051606080820183526001600160a01b037f000000000000000000000000000000000000000000000000000000000000000081168084527f0000000000000000000000000000000000000000000000000000000000000000821660208086019182527f00000000000000000000000000000000000000000000000000000000000000008416958701958652865192835290518316908201529251168284015291519081900390910190f3fea2646970667358221220471870e4eb87b7d40088b46c611669c5f07b0e90dee71c201986fb4bfe5e380564736f6c634300081c0033a2646970667358221220a00c5ba346d7fd3a377992f76a18babcca09a421f7c4d61f8f52402487c6f0d564736f6c634300081c00336080604052348015600e575f5ffd5b5060156019565b60c9565b7ff0c57e16840df040f15088dc2f81fe391c3923bec73e23a9662efc9c229c6a00805468010000000000000000900460ff161560685760405163f92ee8a960e01b815260040160405180910390fd5b80546001600160401b039081161460c65780546001600160401b0319166001600160401b0390811782556040519081527fc7f505b2f371ae2175ee4913f4499e1f2633a7b5936321eed1cdaeb6115181d29060200160405180910390a15b50565b610592806100d65f395ff3fe608060405234801561000f575f5ffd5b5060043610610055575f3560e01c806313b0be3314610059578063217a4b701461007f578063324b8d6e1461009f578063c4d66de8146100b1578063f9fa619a146100c6575b5f5ffd5b61006c610067366004610477565b6100d7565b6040519081526020015b60405180910390f35b610087610273565b6040516001600160a01b039091168152602001610076565b5f54610087906001600160a01b031681565b6100c46100bf3660046104a5565b6102f0565b005b6100c46100d43660046104a5565b50565b5f80546001600160a01b031680610101576040516321c4e35760e21b815260040160405180910390fd5b5f816001600160a01b031663c3f909d46040518163ffffffff1660e01b8152600401606060405180830381865afa15801561013e573d5f5f3e3d5ffd5b505050506040513d601f19601f8201168201806040525081019061016291906104c7565b905080602001516001600160a01b0316846001600160a01b03161461019a5760405163981a2a2b60e01b815260040160405180910390fd5b6fffffffffffffffffffffffffffffffff8511156101cb57604051631df5999960e21b815260040160405180910390fd5b80516040808301519051631966c9ad60e11b81526001600160a01b0387811660048301526024820189905291821660448201529116906332cd935a90606401602060405180830381865afa158015610225573d5f5f3e3d5ffd5b505050506040513d601f19601f820116820180604052508101906102499190610545565b9250825f0361026b576040516301a7e28b60e61b815260040160405180910390fd5b505092915050565b5f5f5f9054906101000a90046001600160a01b03166001600160a01b031663c3f909d46040518163ffffffff1660e01b8152600401606060405180830381865afa1580156102c3573d5f5f3e3d5ffd5b505050506040513d601f19601f820116820180604052508101906102e791906104c7565b60400151905090565b7ff0c57e16840df040f15088dc2f81fe391c3923bec73e23a9662efc9c229c6a008054600160401b810460ff16159067ffffffffffffffff165f811580156103355750825b90505f8267ffffffffffffffff1660011480156103515750303b155b90508115801561035f575080155b1561037d5760405163f92ee8a960e01b815260040160405180910390fd5b845467ffffffffffffffff1916600117855583156103a757845460ff60401b1916600160401b1785555b6001600160a01b0386166103d157604051600162089b9d60e21b0319815260040160405180910390fd5b5f80546001600160a01b0319166001600160a01b038816908117825560405190917f77fa88974c6468fa8044954c0180c041d53382303a50dcd3f6c5bba73bf7283f91a2831561045b57845460ff60401b19168555604051600181527fc7f505b2f371ae2175ee4913f4499e1f2633a7b5936321eed1cdaeb6115181d29060200160405180910390a15b505050505050565b6001600160a01b03811681146100d4575f5ffd5b5f5f60408385031215610488575f5ffd5b82359150602083013561049a81610463565b809150509250929050565b5f602082840312156104b5575f5ffd5b81356104c081610463565b9392505050565b5f60608284031280156104d8575f5ffd5b506040516060810167ffffffffffffffff8111828210171561050857634e487b7160e01b5f52604160045260245ffd5b604052825161051681610463565b8152602083015161052681610463565b6020820152604083015161053981610463565b60408201529392505050565b5f60208284031215610555575f5ffd5b505191905056fea2646970667358221220e13d46c8c283fb89055bc420878481b50195028631d9ce840570bca852252a7164736f6c634300081c0033",
  "language": "Solidity",
  "compiler": "0.8.28+commit.7893614a"
}