{
  "address": "0x22C4266898F8dD0333a4c7562d4f1f6d297F391d",
  "abi": [
    {
      "type": "constructor",
      "inputs": [],
      "stateMutability": "nonpayable"
    },
    {
      "type": "function",
      "name": "ORACLE_IMPLEMENTATION",
      "inputs": [],
      "outputs": [
        {
          "name": "",
          "type": "address",
          "internalType": "address"
        }
      ],
      "stateMutability": "view"
    },
    {
      "type": "function",
      "name": "create",
      "inputs": [
        {
          "name": "_config",
          "type": "tuple",
          "internalType": "struct IFixedPricePTAMMOracleConfig.DeploymentConfig",
          "components": [
            {
              "name": "amm",
              "type": "address",
              "internalType": "contract IPendleAMM"
            },
            {
              "name": "ptToken",
              "type": "address",
              "internalType": "address"
            },
            {
              "name": "ptUnderlyingQuoteToken",
              "type": "address",
              "internalType": "address"
            },
            {
              "name": "hardcoddedQuoteToken",
              "type": "address",
              "internalType": "address"
            }
          ]
        },
        {
          "name": "_externalSalt",
          "type": "bytes32",
          "internalType": "bytes32"
        }
      ],
      "outputs": [
        {
          "name": "oracle",
          "type": "address",
          "internalType": "contract IFixedPricePTAMMOracle"
        }
      ],
      "stateMutability": "nonpayable"
    },
    {
      "type": "function",
      "name": "getConfigAddress",
      "inputs": [
        {
          "name": "",
          "type": "bytes32",
          "internalType": "bytes32"
        }
      ],
      "outputs": [
        {
          "name": "",
          "type": "address",
          "internalType": "address"
        }
      ],
      "stateMutability": "view"
    },
    {
      "type": "function",
      "name": "getOracleAddress",
      "inputs": [
        {
          "name": "",
          "type": "address",
          "internalType": "address"
        }
      ],
      "outputs": [
        {
          "name": "",
          "type": "address",
          "internalType": "address"
        }
      ],
      "stateMutability": "view"
    },
    {
      "type": "function",
      "name": "hashConfig",
      "inputs": [
        {
          "name": "_config",
          "type": "tuple",
          "internalType": "struct IFixedPricePTAMMOracleConfig.DeploymentConfig",
          "components": [
            {
              "name": "amm",
              "type": "address",
              "internalType": "contract IPendleAMM"
            },
            {
              "name": "ptToken",
              "type": "address",
              "internalType": "address"
            },
            {
              "name": "ptUnderlyingQuoteToken",
              "type": "address",
              "internalType": "address"
            },
            {
              "name": "hardcoddedQuoteToken",
              "type": "address",
              "internalType": "address"
            }
          ]
        }
      ],
      "outputs": [
        {
          "name": "configId",
          "type": "bytes32",
          "internalType": "bytes32"
        }
      ],
      "stateMutability": "view"
    },
    {
      "type": "function",
      "name": "nonces",
      "inputs": [
        {
          "name": "owner",
          "type": "address",
          "internalType": "address"
        }
      ],
      "outputs": [
        {
          "name": "",
          "type": "uint256",
          "internalType": "uint256"
        }
      ],
      "stateMutability": "view"
    },
    {
      "type": "function",
      "name": "predictAddress",
      "inputs": [
        {
          "name": "_config",
          "type": "tuple",
          "internalType": "struct IFixedPricePTAMMOracleConfig.DeploymentConfig",
          "components": [
            {
              "name": "amm",
              "type": "address",
              "internalType": "contract IPendleAMM"
            },
            {
              "name": "ptToken",
              "type": "address",
              "internalType": "address"
            },
            {
              "name": "ptUnderlyingQuoteToken",
              "type": "address",
              "internalType": "address"
            },
            {
              "name": "hardcoddedQuoteToken",
              "type": "address",
              "internalType": "address"
            }
          ]
        },
        {
          "name": "_deployer",
          "type": "address",
          "internalType": "address"
        },
        {
          "name": "_externalSalt",
          "type": "bytes32",
          "internalType": "bytes32"
        }
      ],
      "outputs": [
        {
          "name": "predictedAddress",
          "type": "address",
          "internalType": "address"
        }
      ],
      "stateMutability": "view"
    },
    {
      "type": "function",
      "name": "resolveExistingOracle",
      "inputs": [
        {
          "name": "_configId",
          "type": "bytes32",
          "internalType": "bytes32"
        }
      ],
      "outputs": [
        {
          "name": "oracle",
          "type": "address",
          "internalType": "address"
        }
      ],
      "stateMutability": "view"
    },
    {
      "type": "function",
      "name": "verifyConfig",
      "inputs": [
        {
          "name": "_config",
          "type": "tuple",
          "internalType": "struct IFixedPricePTAMMOracleConfig.DeploymentConfig",
          "components": [
            {
              "name": "amm",
              "type": "address",
              "internalType": "contract IPendleAMM"
            },
            {
              "name": "ptToken",
              "type": "address",
              "internalType": "address"
            },
            {
              "name": "ptUnderlyingQuoteToken",
              "type": "address",
              "internalType": "address"
            },
            {
              "name": "hardcoddedQuoteToken",
              "type": "address",
              "internalType": "address"
            }
          ]
        }
      ],
      "outputs": [],
      "stateMutability": "view"
    },
    {
      "type": "event",
      "name": "NewOracle",
      "inputs": [
        {
          "name": "oracle",
          "type": "address",
          "indexed": true,
          "internalType": "address"
        }
      ],
      "anonymous": false
    },
    {
      "type": "error",
      "name": "AddressZero",
      "inputs": []
    },
    {
      "type": "error",
      "name": "DeployerCannotBeZero",
      "inputs": []
    },
    {
      "type": "error",
      "name": "FailedDeployment",
      "inputs": []
    },
    {
      "type": "error",
      "name": "InsufficientBalance",
      "inputs": [
        {
          "name": "balance",
          "type": "uint256",
          "internalType": "uint256"
        },
        {
          "name": "needed",
          "type": "uint256",
          "internalType": "uint256"
        }
      ]
    },
    {
      "type": "error",
      "name": "InvalidAccountNonce",
      "inputs": [
        {
          "name": "account",
          "type": "address",
          "internalType": "address"
        },
        {
          "name": "currentNonce",
          "type": "uint256",
          "internalType": "uint256"
        }
      ]
    },
    {
      "type": "error",
      "name": "TokensAreTheSame",
      "inputs": []
    }
  ],
  "bytecode": "0x60a060405234801561000f575f5ffd5b5060405161001c9061008f565b604051809103905ff080158015610035573d5f5f3e3d5ffd5b506001600160a01b03811661007e5760405162461bcd60e51b815260206004820152600b60248201526a5a65726f4164647265737360a81b604482015260640160405180910390fd5b6001600160a01b031660805261009c565b61068580610c2b83390190565b608051610b696100c25f395f818161013a0152818161027701526104c60152610b695ff3fe608060405234801561000f575f5ffd5b5060043610610090575f3560e01c8063a8f39f6611610063578063a8f39f6614610135578063b3ac4c1b1461015c578063e1a2a45614610171578063f5d41af714610184578063f896503a14610197575f5ffd5b806354482173146100945780635f4ec941146100d957806378b850a3146100ec5780637ecebe00146100ff575b5f5ffd5b6100bc6100a236600461073d565b60026020525f90815260409020546001600160a01b031681565b6040516001600160a01b0390911681526020015b60405180910390f35b6100bc6100e7366004610758565b6101bf565b6100bc6100fa3660046107fb565b610204565b61012761010d36600461073d565b6001600160a01b03165f9081526020819052604090205490565b6040519081526020016100d0565b6100bc7f000000000000000000000000000000000000000000000000000000000000000081565b61016f61016a366004610824565b610311565b005b61012761017f366004610824565b6103de565b6100bc61019236600461083e565b61040d565b6100bc6101a5366004610758565b60016020525f90815260409020546001600160a01b031681565b5f818152600160205260408120546001600160a01b031680156101fb576001600160a01b038082165f90815260026020526040902054166101fd565b5f5b9392505050565b5f5f61020f846103de565b90505f61021b826101bf565b90506001600160a01b0381161561023557915061030b9050565b61023e85610311565b5f8560405161024c9061070c565b610256919061087b565b604051809103905ff08015801561026f573d5f5f3e3d5ffd5b5090506102a47f000000000000000000000000000000000000000000000000000000000000000061029f876104f5565b610540565b93506102b184828561054c565b60405163189acdbd60e31b81526001600160a01b03828116600483015285169063c4d66de8906024015f604051808303815f87803b1580156102f1575f5ffd5b505af1158015610303573d5f5f3e3d5ffd5b505050505050505b92915050565b60408101516001600160a01b031661033c57604051639fabe1c160e01b815260040160405180910390fd5b60208101516001600160a01b031661036757604051639fabe1c160e01b815260040160405180910390fd5b80602001516001600160a01b031681604001516001600160a01b0316036103a157604051633d4cfcc560e11b815260040160405180910390fd5b80602001516001600160a01b031681606001516001600160a01b0316036103db57604051633d4cfcc560e11b815260040160405180910390fd5b50565b5f816040516020016103f0919061087b565b604051602081830303815290604052805190602001209050919050565b5f5f610418856103de565b90505f610424826101bf565b90506001600160a01b0381161561043e5791506101fd9050565b6001600160a01b0385166104655760405163e4452e2b60e01b815260040160405180910390fd5b6001600160a01b0385165f90815260208181526040918290205482516bffffffffffffffffffffffff1960608a901b16818401526034810191909152605480820188905283518083039091018152607490910190925281519101206104eb907f00000000000000000000000000000000000000000000000000000000000000009061061c565b9695505050505050565b335f81815260208190526040812080546001810190915590919060405160609290921b6bffffffffffffffffffffffff191660208301526034820152605481018390526074016103f0565b5f6101fd83835f61067b565b5f818152600160205260409020546001600160a01b0316156105aa5760405162461bcd60e51b815260206004820152601260248201527110dbdb999a59d05b1c9958591e515e1a5cdd60721b60448201526064015b60405180910390fd5b5f81815260016020908152604080832080546001600160a01b038088166001600160a01b03199283168117909355918552600290935281842080549188169190931681179092555190917fb3eacd0e351fafdfefdec84e1cd19679b38dbcd63ea7c2c24da17fd2bc3b3c0e91a2505050565b6040513060388201526f5af43d82803e903d91602b57fd5bf3ff602482015260148101839052733d602d80600a3d3981f3363d3d373d3d3d363d738152605881018290526037600c820120607882015260556043909101205f906101fd565b5f814710156106a65760405163cf47918160e01b8152476004820152602481018390526044016105a1565b6e5af43d82803e903d91602b57fd5bf360205283601152763d602d80600a3d3981f3363d3d373d3d3d363d730000008460881c175f52826037600984f590506001600160a01b0381166101fd5760405163b06ebf3d60e01b815260040160405180910390fd5b61027d806108b783390190565b6001600160a01b03811681146103db575f5ffd5b803561073881610719565b919050565b5f6020828403121561074d575f5ffd5b81356101fd81610719565b5f60208284031215610768575f5ffd5b5035919050565b5f6080828403121561077f575f5ffd5b6040516080810181811067ffffffffffffffff821117156107ae57634e487b7160e01b5f52604160045260245ffd5b60405290508082356107bf81610719565b81526107cd6020840161072d565b60208201526107de6040840161072d565b60408201526107ef6060840161072d565b60608201525092915050565b5f5f60a0838503121561080c575f5ffd5b610816848461076f565b946080939093013593505050565b5f60808284031215610834575f5ffd5b6101fd838361076f565b5f5f5f60c08486031215610850575f5ffd5b61085a858561076f565b9250608084013561086a81610719565b9295929450505060a0919091013590565b81516001600160a01b03908116825260208084015182169083015260408084015182169083015260609283015116918101919091526080019056fe610100604052348015610010575f5ffd5b5060405161027d38038061027d83398101604081905261002f9161007d565b80516001600160a01b039081166080526020820151811660a0526040820151811660c0526060909101511660e052610105565b80516001600160a01b0381168114610078575f5ffd5b919050565b5f608082840312801561008e575f5ffd5b50604051608081016001600160401b03811182821017156100bd57634e487b7160e01b5f52604160045260245ffd5b6040526100c983610062565b81526100d760208401610062565b60208201526100e860408401610062565b60408201526100f960608401610062565b60608201529392505050565b60805160a05160c05160e0516101496101345f395f60bc01525f609301525f606801525f604201526101495ff3fe608060405234801561000f575f5ffd5b5060043610610029575f3560e01c8063c3f909d41461002d575b5f5ffd5b60408051608080820183526001600160a01b037f000000000000000000000000000000000000000000000000000000000000000081168084527f0000000000000000000000000000000000000000000000000000000000000000821660208086019182527f000000000000000000000000000000000000000000000000000000000000000084168688019081527f0000000000000000000000000000000000000000000000000000000000000000851660609788019081528851948552925185169184019190915251831695820195909552935116918301919091520160405180910390f3fea264697066735822122019422df38f309e15572179ecb1a288c75d0e7f76203e3a1b1f3459ea9db5de4064736f6c634300081c0033a2646970667358221220b49eb3c328c2fe524b147100ee3a6348dfd8b750251c2c861a280c655dd7b51564736f6c634300081c00336080604052348015600e575f5ffd5b5060156019565b60c9565b7ff0c57e16840df040f15088dc2f81fe391c3923bec73e23a9662efc9c229c6a00805468010000000000000000900460ff161560685760405163f92ee8a960e01b815260040160405180910390fd5b80546001600160401b039081161460c65780546001600160401b0319166001600160401b0390811782556040519081527fc7f505b2f371ae2175ee4913f4499e1f2633a7b5936321eed1cdaeb6115181d29060200160405180910390a15b50565b6105af806100d65f395ff3fe608060405234801561000f575f5ffd5b5060043610610055575f3560e01c806313b0be3314610059578063217a4b701461007f578063324b8d6e1461009f578063c4d66de8146100b1578063f9fa619a146100c6575b5f5ffd5b61006c610067366004610477565b6100d7565b6040519081526020015b60405180910390f35b610087610273565b6040516001600160a01b039091168152602001610076565b5f54610087906001600160a01b031681565b6100c46100bf3660046104a5565b6102f0565b005b6100c46100d43660046104a5565b50565b5f80546001600160a01b031680610101576040516321c4e35760e21b815260040160405180910390fd5b5f816001600160a01b031663c3f909d46040518163ffffffff1660e01b8152600401608060405180830381865afa15801561013e573d5f5f3e3d5ffd5b505050506040513d601f19601f8201168201806040525081019061016291906104d7565b905080602001516001600160a01b0316846001600160a01b03161461019a5760405163981a2a2b60e01b815260040160405180910390fd5b6fffffffffffffffffffffffffffffffff8511156101cb57604051631df5999960e21b815260040160405180910390fd5b80516040808301519051631966c9ad60e11b81526001600160a01b0387811660048301526024820189905291821660448201529116906332cd935a90606401602060405180830381865afa158015610225573d5f5f3e3d5ffd5b505050506040513d601f19601f820116820180604052508101906102499190610562565b9250825f0361026b576040516301a7e28b60e61b815260040160405180910390fd5b505092915050565b5f5f5f9054906101000a90046001600160a01b03166001600160a01b031663c3f909d46040518163ffffffff1660e01b8152600401608060405180830381865afa1580156102c3573d5f5f3e3d5ffd5b505050506040513d601f19601f820116820180604052508101906102e791906104d7565b60600151905090565b7ff0c57e16840df040f15088dc2f81fe391c3923bec73e23a9662efc9c229c6a008054600160401b810460ff16159067ffffffffffffffff165f811580156103355750825b90505f8267ffffffffffffffff1660011480156103515750303b155b90508115801561035f575080155b1561037d5760405163f92ee8a960e01b815260040160405180910390fd5b845467ffffffffffffffff1916600117855583156103a757845460ff60401b1916600160401b1785555b6001600160a01b0386166103d157604051600162089b9d60e21b0319815260040160405180910390fd5b5f80546001600160a01b0319166001600160a01b038816908117825560405190917f77fa88974c6468fa8044954c0180c041d53382303a50dcd3f6c5bba73bf7283f91a2831561045b57845460ff60401b19168555604051600181527fc7f505b2f371ae2175ee4913f4499e1f2633a7b5936321eed1cdaeb6115181d29060200160405180910390a15b505050505050565b6001600160a01b03811681146100d4575f5ffd5b5f5f60408385031215610488575f5ffd5b82359150602083013561049a81610463565b809150509250929050565b5f602082840312156104b5575f5ffd5b81356104c081610463565b9392505050565b80516104d281610463565b919050565b5f60808284031280156104e8575f5ffd5b506040516080810167ffffffffffffffff8111828210171561051857634e487b7160e01b5f52604160045260245ffd5b604052825161052681610463565b8152610534602084016104c7565b6020820152610545604084016104c7565b6040820152610556606084016104c7565b60608201529392505050565b5f60208284031215610572575f5ffd5b505191905056fea26469706673582212207b962e1f035652020ba7c4861a2f542c994cfedbeecf1df50f84c1d4c8b841f664736f6c634300081c0033",
  "language": "Solidity",
  "compiler": "0.8.28+commit.7893614a"
}