{
  "address": "0xF8CDB65E569a1E4edb3827D4244C6AeFf3e4F615",
  "abi": [
    {
      "inputs": [],
      "stateMutability": "nonpayable",
      "type": "constructor"
    },
    {
      "inputs": [],
      "name": "VAULT_INCENTIVES_MODULE_IMPLEMENTATION",
      "outputs": [
        {
          "internalType": "address",
          "name": "",
          "type": "address"
        }
      ],
      "stateMutability": "view",
      "type": "function"
    },
    {
      "inputs": [
        {
          "internalType": "address",
          "name": "owner",
          "type": "address"
        }
      ],
      "name": "counter",
      "outputs": [
        {
          "internalType": "uint256",
          "name": "counter",
          "type": "uint256"
        }
      ],
      "stateMutability": "view",
      "type": "function"
    },
    {
      "inputs": [
        {
          "internalType": "address",
          "name": "initialOwner",
          "type": "address"
        },
        {
          "internalType": "uint256",
          "name": "initialTimelock",
          "type": "uint256"
        },
        {
          "internalType": "address",
          "name": "asset",
          "type": "address"
        },
        {
          "internalType": "string",
          "name": "name",
          "type": "string"
        },
        {
          "internalType": "string",
          "name": "symbol",
          "type": "string"
        }
      ],
      "name": "createSiloVault",
      "outputs": [
        {
          "internalType": "contract ISiloVault",
          "name": "siloVault",
          "type": "address"
        }
      ],
      "stateMutability": "nonpayable",
      "type": "function"
    },
    {
      "inputs": [
        {
          "internalType": "address",
          "name": "",
          "type": "address"
        }
      ],
      "name": "isSiloVault",
      "outputs": [
        {
          "internalType": "bool",
          "name": "",
          "type": "bool"
        }
      ],
      "stateMutability": "view",
      "type": "function"
    },
    {
      "anonymous": false,
      "inputs": [
        {
          "indexed": true,
          "internalType": "address",
          "name": "SiloVault",
          "type": "address"
        },
        {
          "indexed": true,
          "internalType": "address",
          "name": "caller",
          "type": "address"
        },
        {
          "indexed": false,
          "internalType": "address",
          "name": "initialOwner",
          "type": "address"
        },
        {
          "indexed": false,
          "internalType": "uint256",
          "name": "initialTimelock",
          "type": "uint256"
        },
        {
          "indexed": true,
          "internalType": "address",
          "name": "asset",
          "type": "address"
        },
        {
          "indexed": false,
          "internalType": "string",
          "name": "name",
          "type": "string"
        },
        {
          "indexed": false,
          "internalType": "string",
          "name": "symbol",
          "type": "string"
        }
      ],
      "name": "CreateSiloVault",
      "type": "event"
    },
    {
      "inputs": [],
      "name": "FailedDeployment",
      "type": "error"
    },
    {
      "inputs": [
        {
          "internalType": "uint256",
          "name": "balance",
          "type": "uint256"
        },
        {
          "internalType": "uint256",
          "name": "needed",
          "type": "uint256"
        }
      ],
      "name": "InsufficientBalance",
      "type": "error"
    }
  ],
  "bytecode": "0x60a0604052348015600e575f5ffd5b506040516019906042565b604051809103905ff0801580156031573d5f5f3e3d5ffd5b506001600160a01b0316608052604f565b6113178061605a83390190565b608051615fed61006d5f395f81816053015261015e0152615fed5ff3fe608060405234801561000f575f5ffd5b506004361061004a575f3560e01c8063254067421461004e578063687f30b914610092578063c12327b8146100a5578063c4e5fbe4146100d2575b5f5ffd5b6100757f000000000000000000000000000000000000000000000000000000000000000081565b6040516001600160a01b0390911681526020015b60405180910390f35b6100756100a0366004610403565b610104565b6100c46100b3366004610491565b60016020525f908152604090205481565b604051908152602001610089565b6100f46100e0366004610491565b5f6020819052908152604090205460ff1681565b6040519015158152602001610089565b335f9081526001602052604081208054829182610120836104aa565b9190505533888888888860405160200161014097969594939291906104e5565b6040516020818303038152906040528051906020012090505f6101837f000000000000000000000000000000000000000000000000000000000000000083610294565b90508787828888886040516101979061033c565b6101a696959493929190610579565b604051809103905ff0801580156101bf573d5f5f3e3d5ffd5b506040516338ac22f760e21b81526001600160a01b038a8116600483015280831660248301529194509082169063e2b08bdc906044015f604051808303815f87803b15801561020c575f5ffd5b505af115801561021e573d5f5f3e3d5ffd5b5050506001600160a01b038085165f8181526020819052604090819020805460ff1916600117905551918916925033917ff70fd2eefc418e3a46ce7d73fbb38e26baf8ca82b2ac851512ffc995f16047e890610281908d908d908c908c906105c5565b60405180910390a4505095945050505050565b5f6102a083835f6102a7565b9392505050565b5f814710156102d65760405163cf47918160e01b81524760048201526024810183905260440160405180910390fd5b6e5af43d82803e903d91602b57fd5bf360205283601152763d602d80600a3d3981f3363d3d373d3d3d363d730000008460881c175f52826037600984f590506001600160a01b0381166102a05760405163b06ebf3d60e01b815260040160405180910390fd5b6159af8061060983390190565b80356001600160a01b038116811461035f575f5ffd5b919050565b634e487b7160e01b5f52604160045260245ffd5b5f82601f830112610387575f5ffd5b813567ffffffffffffffff8111156103a1576103a1610364565b604051601f8201601f19908116603f0116810167ffffffffffffffff811182821017156103d0576103d0610364565b6040528181528382016020018510156103e7575f5ffd5b816020850160208301375f918101602001919091529392505050565b5f5f5f5f5f60a08688031215610417575f5ffd5b61042086610349565b94506020860135935061043560408701610349565b9250606086013567ffffffffffffffff811115610450575f5ffd5b61045c88828901610378565b925050608086013567ffffffffffffffff811115610478575f5ffd5b61048488828901610378565b9150509295509295909350565b5f602082840312156104a1575f5ffd5b6102a082610349565b5f600182016104c757634e487b7160e01b5f52601160045260245ffd5b5060010190565b5f81518060208401855e5f93019283525090919050565b8781526001600160601b03198760601b1660208201526001600160601b03198660601b1660348201528460488201526001600160601b03198460601b1660688201525f61053e610538607c8401866104ce565b846104ce565b9998505050505050505050565b5f81518084528060208401602086015e5f602082860101526020601f19601f83011685010191505092915050565b6001600160a01b0387811682526020820187905285811660408301528416606082015260c0608082018190525f906105b39083018561054b565b82810360a084015261053e818561054b565b60018060a01b0385168152836020820152608060408201525f6105eb608083018561054b565b82810360608401526105fd818561054b565b97965050505050505056fe6101e0604052348015610010575f5ffd5b506040516159af3803806159af83398101604081905261002f9161054e565b858280604051806040016040528060018152602001603160f81b815250868686816003908161005e9190610678565b50600461006b8282610678565b5050505f5f61007f8361026260201b60201c565b915091508161008f576012610091565b805b60ff1660a05250506001600160a01b03166080526100b0826005610338565b610160526100bf816006610338565b61018052815160208084019190912061012052815190820120610140524660e05261014d6101205161014051604080517f8b73c3c69bb8fe3d512ecc4cf759cc79239f7b179b0ffacaa9a75d522b39400f60208201529081019290925260608201524660808201523060a08201525f9060c00160405160208183030381529060405280519060200120905090565b60c05250503061010052506001600160a01b03811661018657604051631e4fbdf760e01b81525f60048201526024015b60405180910390fd5b61018f8161036a565b506001600160a01b0384166101b75760405163d92e233d60e01b815260040160405180910390fd5b60405163c376dbb360e01b81526001600160a01b038416600482015273__$5fdb2fd7279d0b8431a3d03f617f90aba9$__9063c376dbb390602401602060405180830381865af415801561020d573d5f5f3e3d5ffd5b505050506040513d601f19601f820116820180604052508101906102319190610732565b60ff166101a05261024185610386565b61024a856103ce565b5050506001600160a01b03166101c052506107de9050565b60408051600481526024810182526020810180516001600160e01b031663313ce56760e01b17905290515f918291829182916001600160a01b038716916102a891610759565b5f60405180830381855afa9150503d805f81146102e0576040519150601f19603f3d011682016040523d82523d5f602084013e6102e5565b606091505b50915091508180156102f957506020815110155b1561032c575f81806020019051810190610313919061076f565b905060ff811161032a576001969095509350505050565b505b505f9485945092505050565b5f6020835110156103535761034c8361040f565b9050610364565b8161035e8482610678565b5060ff90505b92915050565b600980546001600160a01b03191690556103838161044c565b50565b621275008111156103aa576040516346fedb5760e01b815260040160405180910390fd5b6201518081101561038357604051631a1593df60e11b815260040160405180910390fd5b600e81905560405181815233907fd28e9b90ee9b37c5936ff84392d71f29ff18117d7e76bcee60615262a90a3f759060200160405180910390a2505f601155565b5f5f829050601f81511115610439578260405163305a27a960e01b815260040161017d9190610786565b8051610444826107bb565b179392505050565b600880546001600160a01b038381166001600160a01b0319831681179093556040519116919082907f8be0079c531659141344cd1fd0a4f28419497f9722a3daafe3b4186f6b6457e0905f90a35050565b6001600160a01b0381168114610383575f5ffd5b634e487b7160e01b5f52604160045260245ffd5b5f82601f8301126104d4575f5ffd5b81516001600160401b038111156104ed576104ed6104b1565b604051601f8201601f19908116603f011681016001600160401b038111828210171561051b5761051b6104b1565b604052818152838201602001851015610532575f5ffd5b8160208501602083015e5f918101602001919091529392505050565b5f5f5f5f5f5f60c08789031215610563575f5ffd5b865161056e8161049d565b6020880151604089015191975095506105868161049d565b60608801519094506105978161049d565b60808801519093506001600160401b038111156105b2575f5ffd5b6105be89828a016104c5565b60a089015190935090506001600160401b038111156105db575f5ffd5b6105e789828a016104c5565b9150509295509295509295565b600181811c9082168061060857607f821691505b60208210810361062657634e487b7160e01b5f52602260045260245ffd5b50919050565b601f82111561067357805f5260205f20601f840160051c810160208510156106515750805b601f840160051c820191505b81811015610670575f815560010161065d565b50505b505050565b81516001600160401b03811115610691576106916104b1565b6106a58161069f84546105f4565b8461062c565b6020601f8211600181146106d7575f83156106c05750848201515b5f19600385901b1c1916600184901b178455610670565b5f84815260208120601f198516915b8281101561070657878501518255602094850194600190920191016106e6565b508482101561072357868401515f19600387901b60f8161c191681555b50505050600190811b01905550565b5f60208284031215610742575f5ffd5b815160ff81168114610752575f5ffd5b9392505050565b5f82518060208501845e5f920191825250919050565b5f6020828403121561077f575f5ffd5b5051919050565b602081525f82518060208401528060208501604085015e5f604082850101526040601f19601f83011684010191505092915050565b80516020808301519190811015610626575f1960209190910360031b1b16919050565b60805160a05160c05160e05161010051610120516101405161016051610180516101a0516101c05161512361088c5f395f8181610b0d01528181612d6f015261446201525f8181610927015281816135f9015261365101525f6131e901525f6131bc01525f612c7901525f612c5101525f612bac01525f612bd601525f612c0001525f50505f81816105ba0152818161281d015281816130e10152818161394a0152613e1901526151235ff3fe608060405234801561000f575f5ffd5b506004361061044d575f3560e01c806381bc23a611610242578063be9c580011610140578063ddca3f43116100bf578063ee7a4b3311610084578063ee7a4b3314610acf578063ef8b30f7146109bb578063f2fde38b14610ae2578063f7d1852114610af5578063fadbdada14610b08575f5ffd5b8063ddca3f4314610a5a578063e30c397814610a85578063e66f53b714610a96578063e74b981b14610aa9578063e90956cf14610abc575f5ffd5b8063d2c725e011610105578063d2c725e0146109e9578063d33219b4146109f3578063d505accf146109fc578063d905777e14610a0f578063dd62ed3e14610a22575f5ffd5b8063be9c580014610995578063c63d75b6146109a8578063c6e6f592146109bb578063c9649aa9146109ce578063ce96cb77146109d6575f5ffd5b8063a17b3130116101cc578063aea70acc11610191578063aea70acc14610922578063b192a84a14610949578063b3d7f6b91461095c578063b460af941461096f578063ba08765214610982575f5ffd5b8063a17b3130146108cc578063a5f31d61146108d4578063a9059cbb146108dc578063ac88990c146108ef578063ac9650d814610902575f5ffd5b806394bf804d1161021257806394bf804d1461084557806395d89b4114610858578063987ee783146108605780639c1e89d61461089a5780639d6b4a45146108b9575f5ffd5b806381bc23a6146107fe57806384b0196e146108115780638a2c7b391461082c5780638da5cb5b14610834575f5ffd5b806341b678331161034f57806362b2c5f4116102d95780637224a5121161029e5780637224a51214610738578063762c31ba1461074b57806379ba5097146107975780637cc4d9a11461079f5780637ecebe00146107eb575f5ffd5b806362b2c5f4146106cf57806369fe0e2d146106e25780636e553f65146106f557806370a0823114610708578063715018a614610730575f5ffd5b80634dedf20e1161031f5780634dedf20e1461066b5780634e083eb31461068d578063568efc07146106a05780635897a06d146106a957806362518ddf146106bc575f5ffd5b806341b678331461062b578063452a93201461063e57806346904840146106515780634cdad506146104a0575f5ffd5b80631ecca77c116103db578063372500ab116103a0578063372500ab146105b057806338d52e0f146105b85780633a56f096146105f25780633a72efdf14610605578063402d267d14610618575f5ffd5b80631ecca77c1461056e57806323b872dd14610578578063313ce5671461058b57806333f91ebb146105a05780633644e515146105a8575f5ffd5b806307b8a2c81161042157806307b8a2c8146104b3578063095ea7b3146104bd5780630a28a477146104e05780630e68ec95146104f357806318160ddd14610566575f5ffd5b80621a18b11461045157806301e1d1141461048357806306fdde031461048b57806307a2d13a146104a0575b5f5ffd5b61047061045f3660046147de565b60136020525f908152604090205481565b6040519081526020015b60405180910390f35b610470610b2f565b610493610b8b565b60405161047a9190614827565b6104706104ae366004614839565b610c1b565b610470620f424081565b6104d06104cb366004614850565b610c2c565b604051901515815260200161047a565b6104706104ee366004614839565b610c43565b6105386105013660046147de565b600d6020525f90815260409020546001600160b81b03811690600160b81b810460ff1690600160c01b90046001600160401b031683565b604080516001600160b81b03909416845291151560208401526001600160401b03169082015260600161047a565b600254610470565b610576610c4f565b005b6104d061058636600461487a565b610cd8565b60125b60405160ff909116815260200161047a565b601654610470565b610470610cfd565b610576610d0b565b7f00000000000000000000000000000000000000000000000000000000000000005b6040516001600160a01b03909116815260200161047a565b610576610600366004614850565b610d35565b6105766106133660046147de565b610e07565b6104706106263660046147de565b610eb8565b6105766106393660046148ff565b610f37565b600c546105da906001600160a01b031681565b6014546105da90600160601b90046001600160a01b031681565b6104d06106793660046147de565b600b6020525f908152604090205460ff1681565b61057661069b3660046148ff565b611343565b61047060175481565b6105766106b73660046147de565b611435565b6105da6106ca366004614839565b611628565b6105766106dd36600461494a565b611650565b6105766106f0366004614839565b61171c565b610470610703366004614989565b6117de565b6104706107163660046147de565b6001600160a01b03165f9081526020819052604090205490565b610576611828565b610576610746366004614839565b611839565b600f54610770906001600160a01b03811690600160a01b90046001600160401b031682565b604080516001600160a01b0390931683526001600160401b0390911660208301520161047a565b6105766118fb565b6011546107c4906001600160c01b03811690600160c01b90046001600160401b031682565b604080516001600160c01b0390931683526001600160401b0390911660208301520161047a565b6104706107f93660046147de565b61193c565b61057661080c3660046147de565b611959565b610819611a03565b60405161047a97969594939291906149b7565b610576611a45565b6008546001600160a01b03166105da565b610470610853366004614989565b611aaf565b610493611aeb565b6107c461086e3660046147de565b60106020525f90815260409020546001600160c01b03811690600160c01b90046001600160401b031682565b6104706108a83660046147de565b60126020525f908152604090205481565b6105766108c73660046147de565b611afa565b601554610470565b610576611bc2565b6104d06108ea366004614850565b611c2c565b6105766108fd3660046147de565b611c49565b6109156109103660046148ff565b611d04565b60405161047a9190614a4d565b61058e7f000000000000000000000000000000000000000000000000000000000000000081565b610576610957366004614ab0565b611de9565b61047061096a366004614839565b611e6b565b61047061097d366004614adc565b611e77565b610470610990366004614adc565b611ece565b6105766109a3366004614b10565b611f14565b6104706109b63660046147de565b6123dc565b6104706109c9366004614839565b612467565b610576612472565b6104706109e43660046147de565b6124ef565b5f5c60ff166104d0565b610470600e5481565b610576610a0a366004614b7f565b612502565b610470610a1d3660046147de565b612638565b610470610a30366004614bf0565b6001600160a01b039182165f90815260016020908152604080832093909416825291909152205490565b601454610a6d906001600160601b031681565b6040516001600160601b03909116815260200161047a565b6009546001600160a01b03166105da565b600a546105da906001600160a01b031681565b610576610ab73660046147de565b61268e565b610576610aca3660046147de565b612752565b610576610add366004614850565b6127d2565b610576610af03660046147de565b612a38565b6105da610b03366004614839565b612aa9565b6105da7f000000000000000000000000000000000000000000000000000000000000000081565b6016545f90815b81811015610b86575f60168281548110610b5257610b52614c1c565b5f918252602090912001546001600160a01b03169050610b7181612ab8565b610b7b9085614c44565b935050600101610b36565b505090565b606060038054610b9a90614c57565b80601f0160208091040260200160405190810160405280929190818152602001828054610bc690614c57565b8015610c115780601f10610be857610100808354040283529160200191610c11565b820191905f5260205f20905b815481529060010190602001808311610bf457829003601f168201915b5050505050905090565b5f610c26825f612acc565b92915050565b5f33610c39818585612b03565b5060019392505050565b5f610c26826001612b10565b6008546001600160a01b03163314801590610c7e5750600c546001600160a01b0316336001600160a01b031614155b15610c9c57604051637cf97e4d60e11b815260040160405180910390fd5b600f80546001600160e01b031916905560405133907fc40a085ccfa20f5fd518ade5c3a77a7ecbdfbb4c75efcdca6146a8e3c841d663905f90a2565b5f610ce1612b3e565b610cec848484612b71565b9050610cf6612b94565b9392505050565b5f610d06612ba0565b905090565b610d13612b3e565b610d23610d1e612cc9565b612d37565b610d2b612d6c565b610d33612b94565b565b600a5433906001600160a01b03168114801590610d6057506008546001600160a01b03828116911614155b15610d7e576040516332a2673b60e21b815260040160405180910390fd5b6001600160a01b0383165f90815260136020526040908190209051631ecb1b9360e21b815273__$5fdb2fd7279d0b8431a3d03f617f90aba9$__91637b2c6e4c91610dd6918691600401918252602082015260400190565b5f6040518083038186803b158015610dec575f5ffd5b505af4158015610dfe573d5f5f3e3d5ffd5b50505050505050565b600c546001600160a01b0316336001600160a01b031614158015610e3f5750600a546001600160a01b0316336001600160a01b031614155b8015610e5657506008546001600160a01b03163314155b15610e745760405163d080fa3160e01b815260040160405180910390fd5b6001600160a01b0381165f818152601060205260408082208290555133917f23edd264f2dcc193d13a29cdab4ac169d60d9b4a0e74f0303c753036d8eb1c1391a350565b6040516306679a9160e21b81525f9073__$5fdb2fd7279d0b8431a3d03f617f90aba9$__9063199e6a4490610ef890601590600d90601290600401614c8f565b602060405180830381865af4158015610f13573d5f5f3e3d5ffd5b505050506040513d601f19601f82011682018060405250810190610c269190614ce9565b335f818152600b602052604090205460ff16158015610f645750600a546001600160a01b03828116911614155b8015610f7e57506008546001600160a01b03828116911614155b15610f9c5760405163f7137c0f60e01b815260040160405180910390fd5b610fa4612b3e565b60165482905f816001600160401b03811115610fc257610fc2614d00565b604051908082528060200260200182016040528015610feb578160200160208202803683370190505b5090505f836001600160401b0381111561100757611007614d00565b604051908082528060200260200182016040528015611030578160200160208202803683370190505b5090505f5b8481101561112a575f88888381811061105057611050614c1c565b9050602002013590505f6016828154811061106d5761106d614c1c565b5f9182526020909120015485516001600160a01b03909116915085908390811061109957611099614c1c565b6020026020010151156110cf57604051633d85a77d60e11b81526001600160a01b03821660048201526024015b60405180910390fd5b60018583815181106110e3576110e3614c1c565b6020026020010190151590811515815250508084848151811061110857611108614c1c565b6001600160a01b03909216602092830291909101909101525050600101611035565b505f5b838110156112e55782818151811061114757611147614c1c565b60200260200101516112dd575f6016828154811061116757611167614c1c565b5f9182526020808320909101546001600160a01b0316808352600d9091526040909120549091506001600160b81b0316156111c0576040516301554f3760e71b81526001600160a01b03821660048201526024016110c6565b6001600160a01b0381165f90815260106020526040902054600160c01b90046001600160401b03161561121157604051634fc6b6fd60e01b81526001600160a01b03821660048201526024016110c6565b61121b8130612ec0565b156112c5576001600160a01b0381165f908152600d6020526040812054600160c01b90046001600160401b03169003611272576040516325dce25160e21b81526001600160a01b03821660048201526024016110c6565b6001600160a01b0381165f908152600d6020526040902054600160c01b90046001600160401b03164210156112c557604051634b74115160e01b81526001600160a01b03821660048201526024016110c6565b6001600160a01b03165f908152600d60205260408120555b60010161112d565b5080516112f9906016906020840190614706565b50336001600160a01b03167f834ae37621cd31f2636b1cb6f1bded844d79ecf755af866b5d896da642d7b567826040516113339190614d14565b60405180910390a2610dfe612b94565b335f818152600b602052604090205460ff161580156113705750600a546001600160a01b03828116911614155b801561138a57506008546001600160a01b03828116911614155b156113a85760405163f7137c0f60e01b815260040160405180910390fd5b6113b0612b3e565b6040516311f60bb760e01b815273__$5fdb2fd7279d0b8431a3d03f617f90aba9$__906311f60bb7906113ec9086908690600d90600401614d5f565b5f6040518083038186803b158015611402575f5ffd5b505af4158015611414573d5f5f3e3d5ffd5b5061142792506015915085905084614765565b50611430612b94565b505050565b600a5433906001600160a01b0316811480159061146057506008546001600160a01b03828116911614155b1561147e576040516332a2673b60e21b815260040160405180910390fd5b6001600160a01b0382165f908152600d6020526040902054600160c01b90046001600160401b0316156114c4576040516324d9026760e11b815260040160405180910390fd5b6001600160a01b0382165f908152600d60205260409020546001600160b81b0316156115035760405163624718b960e11b815260040160405180910390fd5b6001600160a01b0382165f908152600d6020526040902054600160b81b900460ff1661154d57604051632215cda760e01b81526001600160a01b03831660048201526024016110c6565b6001600160a01b0382165f90815260106020526040902054600160c01b90046001600160401b03161561159e57604051634fc6b6fd60e01b81526001600160a01b03831660048201526024016110c6565b600e546115ab9042614c44565b6001600160a01b0383165f818152600d6020526040902080546001600160401b0393909316600160c01b026001600160c01b03909316929092179091556115ef3390565b6001600160a01b03167f354f25f4208ab6528fb2d016019c0e2a66f51376cbb2cc8571064779735d348560405160405180910390a35050565b60168181548110611637575f80fd5b5f918252602090912001546001600160a01b0316905081565b600a5433906001600160a01b0316811480159061167b57506008546001600160a01b03828116911614155b15611699576040516332a2673b60e21b815260040160405180910390fd5b604051634ec46f6d60e01b8152601260048201526001600160a01b038516602482015260448101849052821515606482015273__$5fdb2fd7279d0b8431a3d03f617f90aba9$__90634ec46f6d906084015f6040518083038186803b158015611700575f5ffd5b505af4158015611712573d5f5f3e3d5ffd5b5050505050505050565b611724612f2c565b61172f610d1e612cc9565b6014546040516301b1936360e21b8152600481018390526001600160601b0382166024820152600160601b9091046001600160a01b0316604482015273__$5fdb2fd7279d0b8431a3d03f617f90aba9$__906306c64d8c906064015f6040518083038186803b1580156117a0575f5ffd5b505af41580156117b2573d5f5f3e3d5ffd5b5050601480546bffffffffffffffffffffffff19166001600160601b0394909416939093179092555050565b5f6117e7612b3e565b5f6117f0612cc9565b6017819055905061180b8461180460025490565b835f612f59565b915061181933848685612f90565b611821612b94565b5092915050565b611830612f2c565b610d335f612fd6565b611841612f2c565b600e5481036118635760405163a741a04560e01b815260040160405180910390fd5b601154600160c01b90046001600160401b031615611894576040516324d9026760e11b815260040160405180910390fd5b61189d81612fef565b600e548111156118b3576118b081613037565b50565b600e546118c4906011908390613078565b6040518181527fb3aa0ade2442acf51d06713c2d1a5a3ec0373cce969d42b53f4689f97bccf380906020015b60405180910390a150565b60095433906001600160a01b031681146119335760405163118cdaa760e01b81526001600160a01b03821660048201526024016110c6565b6118b081612fd6565b6001600160a01b0381165f90815260076020526040812054610c26565b6001600160a01b0381165f90815260106020526040812054600160c01b90046001600160401b0316908190036119a25760405163e5f408a560e01b815260040160405180910390fd5b804210156119c35760405163333bd2cb60e11b815260040160405180910390fd5b6119cb612b3e565b6001600160a01b0382165f908152601060205260409020546119f79083906001600160c01b03166130c2565b6119ff612b94565b5050565b5f6060805f5f5f6060611a146131b5565b611a1c6131e2565b604080515f80825260208201909252600f60f81b9b939a50919850469750309650945092509050565b601154600160c01b90046001600160401b03165f819003611a795760405163e5f408a560e01b815260040160405180910390fd5b80421015611a9a5760405163333bd2cb60e11b815260040160405180910390fd5b6011546118b0906001600160c01b0316613037565b5f611ab8612b3e565b5f611ac1612cc9565b60178190559050611add84611ad560025490565b83600161320f565b915061181933848487612f90565b606060048054610b9a90614c57565b611b02612f2c565b600c546001600160a01b0390811690821603611b315760405163a741a04560e01b815260040160405180910390fd5b600f54600160a01b90046001600160401b031615611b62576040516324d9026760e11b815260040160405180910390fd5b600c546001600160a01b0316611b7b576118b08161323e565b600e54611b8c90600f908390613299565b6040516001600160a01b038216907f7633313af54753bce8a149927263b1a55eba857ba4ef1d13c6aee25d384d3c4b905f90a250565b600f54600160a01b90046001600160401b03165f819003611bf65760405163e5f408a560e01b815260040160405180910390fd5b80421015611c175760405163333bd2cb60e11b815260040160405180910390fd5b600f546118b0906001600160a01b031661323e565b5f611c35612b3e565b611c3f83836132e8565b9050610c26612b94565b600c546001600160a01b0316336001600160a01b031614158015611c815750600a546001600160a01b0316336001600160a01b031614155b8015611c9857506008546001600160a01b03163314155b15611cb65760405163d080fa3160e01b815260040160405180910390fd5b6001600160a01b0381165f818152600d602052604080822080546001600160c01b031690555133917f8387c3346650400a72032f8bd1aa3f5f44038cf2bf32945e8eeb8a498decea7791a350565b604080515f815260208101909152606090826001600160401b03811115611d2d57611d2d614d00565b604051908082528060200260200182016040528015611d6057816020015b6060815260200190600190039081611d4b5790505b5091505f5b83811015611de157611dbc30868684818110611d8357611d83614c1c565b9050602002810190611d959190614dc7565b85604051602001611da893929190614e20565b6040516020818303038152906040526132f5565b838281518110611dce57611dce614c1c565b6020908102919091010152600101611d65565b505092915050565b611df1612f2c565b604051630c758a4b60e31b81526001600160a01b03831660048201528115156024820152600b604482015273__$5fdb2fd7279d0b8431a3d03f617f90aba9$__906363ac5258906064015f6040518083038186803b158015611e51575f5ffd5b505af4158015611e63573d5f5f3e3d5ffd5b505050505050565b5f610c26826001612acc565b5f611e80612b3e565b5f611e89612cc9565b9050611ea085611e9860025490565b836001612f59565b9150611eb185820386831102612d37565b611ebe338585888661335e565b611ec6612b94565b509392505050565b5f611ed7612b3e565b5f611ee0612cc9565b9050611ef685611eef60025490565b835f61320f565b9150611f0782820383831102612d37565b611ebe338585858961335e565b335f818152600b602052604090205460ff16158015611f415750600a546001600160a01b03828116911614155b8015611f5b57506008546001600160a01b03828116911614155b15611f795760405163f7137c0f60e01b815260040160405180910390fd5b611f81612b3e565b5f5f5f5b848110156123ac575f868683818110611fa057611fa0614c1c565b905060400201803603810190611fb69190614e65565b9050611fc4815f0151613374565b505f5f611fd3835f01516133ca565b915091505f611fea83856020015180821191030290565b905080156121fb5783516001600160a01b03165f908152600d6020526040902054600160b81b900460ff16612040578351604051632215cda760e01b81526001600160a01b0390911660048201526024016110c6565b5f84602001515f0361205257505f9050815b5f8082156120dc578651604051635d043b2960e11b815260048101859052306024820181905260448201526001600160a01b039091169063ba087652906064016020604051808303815f875af11580156120ae573d5f5f3e3d5ffd5b505050506040513d601f19601f820116820180604052508101906120d29190614ce9565b915082905061215a565b8651604051632d182be560e21b815260048101869052306024820181905260448201528593506001600160a01b039091169063b460af94906064016020604051808303815f875af1158015612133573d5f5f3e3d5ffd5b505050506040513d601f19601f820116820180604052508101906121579190614ce9565b90505b86516001600160a01b03165f908152601260205260409020548281039083100287516001600160a01b039081165f90815260126020526040902091909155875116336001600160a01b03167f416d9fcbb15941508bf9f557a950fb085de673ae90db45a32efdc9b35f29b0f184846040516121df929190918252602082015260400190565b60405180910390a36121f1828a614c44565b985050505061239f565b5f5f1985602001511461221f5761221a85602001518580821191030290565b612227565b878703888811025b9050805f0361223a5750505050506123a4565b84516001600160a01b03165f908152600d60205260408120546001600160b81b03169081900361228b57855160405163320b1e2560e21b81526001600160a01b0390911660048201526024016110c6565b806122968387614c44565b11156122c357855160405163034506ef60e21b81526001600160a01b0390911660048201526024016110c6565b85516001600160a01b03165f908152601260205260408120546122e7908490614c44565b90508181111561231857865160405163e207305360e01b81526001600160a01b0390911660048201526024016110c6565b86516001600160a01b03165f9081526012602052604081208290558751612341908560016133e9565b895160408051888152602081018490529294506001600160a01b03909116925033917f73e8a9d66522fa5c6fcec2e89aad8e52f6f66eadeb7fc7c172cfcbacb5283851910160405180910390a3612398848c614c44565b9a50505050505b505050505b600101611f85565b508181146123cd576040516309e36b8960e41b815260040160405180910390fd5b6123d5612b94565b5050505050565b5f5f73__$5fdb2fd7279d0b8431a3d03f617f90aba9$__63199e6a446015600d60126040518463ffffffff1660e01b815260040161241c93929190614c8f565b602060405180830381865af4158015612437573d5f5f3e3d5ffd5b505050506040513d601f19601f8201168201806040525081019061245b9190614ce9565b9050610cf6815f612b10565b5f610c26825f612b10565b6008546001600160a01b031633148015906124a15750600c546001600160a01b0316336001600160a01b031614155b156124bf57604051637cf97e4d60e11b815260040160405180910390fd5b5f601181905560405133917f921828337692c347c634c5d2aacbc7b756014674bd236f3cc2058d8e284a951b91a2565b5f6124f9826134b9565b50909392505050565b834211156125265760405163313c898160e11b8152600481018590526024016110c6565b5f7f6e71edae12b1b97f4d1f60370fef10105fa2faae0126114a169c64845d6126c98888886125718c6001600160a01b03165f90815260076020526040902080546001810190915590565b6040805160208101969096526001600160a01b0394851690860152929091166060840152608083015260a082015260c0810186905260e0016040516020818303038152906040528051906020012090505f6125cb82613598565b90505f6125da828787876135c4565b9050896001600160a01b0316816001600160a01b031614612621576040516325c0072360e11b81526001600160a01b0380831660048301528b1660248201526044016110c6565b61262c8a8a8a612b03565b50505050505050505050565b5f5f5f5f612645856134b9565b925092509250825f0361265c57505f949350505050565b6126688383835f6135f0565b93506126768483835f61363d565b5f0361268657505f949350505050565b505050919050565b612696612f2c565b6126a1610d1e612cc9565b601454604051633805e60d60e11b81526001600160a01b038084166004830152600160601b83041660248201526001600160601b03909116604482015273__$5fdb2fd7279d0b8431a3d03f617f90aba9$__9063700bcc1a906064015f6040518083038186803b158015612713575f5ffd5b505af4158015612725573d5f5f3e3d5ffd5b5050601480546001600160a01b03909416600160601b026001600160601b03909416939093179092555050565b61275a612f2c565b600a546001600160a01b03908116908216036127895760405163a741a04560e01b815260040160405180910390fd5b600a80546001600160a01b0319166001600160a01b0383169081179091556040517fbd0a63c12948fbc9194a5839019f99c9d71db924e5c70018265bc778b8f1a506905f90a250565b600a5433906001600160a01b031681148015906127fd57506008546001600160a01b03828116911614155b1561281b576040516332a2673b60e21b815260040160405180910390fd5b7f00000000000000000000000000000000000000000000000000000000000000006001600160a01b0316836001600160a01b03166338d52e0f6040518163ffffffff1660e01b8152600401602060405180830381865afa158015612881573d5f5f3e3d5ffd5b505050506040513d601f19601f820116820180604052508101906128a59190614ebc565b6001600160a01b0316146128d757604051634854a41360e11b81526001600160a01b03841660048201526024016110c6565b6001600160a01b0383165f90815260106020526040902054600160c01b90046001600160401b03161561291d576040516324d9026760e11b815260040160405180910390fd5b6001600160a01b0383165f908152600d6020526040902054600160c01b90046001600160401b031615612963576040516325f600a360e11b815260040160405180910390fd5b6001600160a01b0383165f908152600d60205260409020546001600160b81b03168083036129a45760405163a741a04560e01b815260040160405180910390fd5b808310156129c3576129be846129b985613681565b6130c2565b612a32565b6129f06129cf84613681565b600e546001600160a01b0387165f9081526010602052604090209190613078565b6040518381526001600160a01b0385169033907f7bfc48861a5d71fc7afd7b9c92b4feeef1628ab1d5145dede52590c46dd155e9906020015b60405180910390a35b50505050565b612a40612f2c565b600980546001600160a01b0383166001600160a01b03199091168117909155612a716008546001600160a01b031690565b6001600160a01b03167f38d16b8cac22d99fc7c124b9cd0de2d3fa1faef420bfe791d8c362d765e2270060405160405180910390a350565b60158181548110611637575f80fd5b5f610c2682612ac78430612ec0565b6136b8565b5f5f5f612ad76136f4565b91509150612afa8583612ae960025490565b612af39190614c44565b838761363d565b95945050505050565b611430838383600161377b565b5f5f5f612b1b6136f4565b91509150612afa8583612b2d60025490565b612b379190614c44565b83876135f0565b60ff5f5c1615612b61576040516329f745a760e01b815260040160405180910390fd5b60015f805c60ff19168217905d50565b5f33612b7e85828561383f565b612b898585856138b4565b506001949350505050565b5f60ff19815c16815d50565b5f306001600160a01b037f000000000000000000000000000000000000000000000000000000000000000016148015612bf857507f000000000000000000000000000000000000000000000000000000000000000046145b15612c2257507f000000000000000000000000000000000000000000000000000000000000000090565b610d06604080517f8b73c3c69bb8fe3d512ecc4cf759cc79239f7b179b0ffacaa9a75d522b39400f60208201527f0000000000000000000000000000000000000000000000000000000000000000918101919091527f000000000000000000000000000000000000000000000000000000000000000060608201524660808201523060a08201525f9060c00160405160208183030381529060405280519060200120905090565b5f5f612cd36136f4565b925090508015612cfa57601454612cfa90600160601b90046001600160a01b031682613911565b60408051838152602081018390527ff66f28b40975dbb933913542c7e6a0f50a1d0f20aa74ea6e0efe65ab616323ec910160405180910390a15090565b60178190556040518181527f15c027cc4fd826d986cad358803439f7326d3aa4ed969ff90dbee4bc150f68e9906020016118f0565b5f7f00000000000000000000000000000000000000000000000000000000000000006001600160a01b031663d166962b6040518163ffffffff1660e01b81526004015f60405180830381865afa158015612dc8573d5f5f3e3d5ffd5b505050506040513d5f823e601f3d908101601f19168201604052612def9190810190614ed7565b6040805160048152602481019091526020810180516001600160e01b0316637abd325760e11b1790529091505f5b8251811015611430575f838281518110612e3957612e39614c1c565b60200260200101516001600160a01b031683604051612e589190614f89565b5f60405180830381855af49150503d805f8114612e90576040519150601f19603f3d011682016040523d82523d5f602084013e612e95565b606091505b5050905080612eb757604051631bc7e5c360e21b815260040160405180910390fd5b50600101612e1d565b6040516370a0823160e01b81526001600160a01b0382811660048301525f91908416906370a08231906024015b602060405180830381865afa158015612f08573d5f5f3e3d5ffd5b505050506040513d601f19601f82011682018060405250810190610cf69190614ce9565b6008546001600160a01b03163314610d335760405163118cdaa760e01b81523360048201526024016110c6565b5f612f66858585856135f0565b9050805f03612f8857604051639811e0c760e01b815260040160405180910390fd5b949350505050565b805f03612fb057604051636536c9a760e01b815260040160405180910390fd5b612fbc84848484613945565b612fc5826139c9565b612a3282601754610d1e9190614c44565b600980546001600160a01b03191690556118b081613af4565b62127500811115613013576040516346fedb5760e01b815260040160405180910390fd5b620151808110156118b057604051631a1593df60e11b815260040160405180910390fd5b600e81905560405181815233907fd28e9b90ee9b37c5936ff84392d71f29ff18117d7e76bcee60615262a90a3f759060200160405180910390a2505f601155565b82546001600160c01b0319166001600160b81b03831617835561309b8142614c44565b83546001600160401b0391909116600160c01b026001600160c01b03909116179092555050565b5f73__$5fdb2fd7279d0b8431a3d03f617f90aba9$__63353d96ef84847f00000000000000000000000000000000000000000000000000000000000000006040516001600160e01b031960e086901b1681526001600160a01b0393841660048201526001600160b81b039092166024830152919091166044820152600d606482015260106084820152601660a482015260c401602060405180830381865af4158015613170573d5f5f3e3d5ffd5b505050506040513d601f19601f820116820180604052508101906131949190614f94565b90508015611430576114306131a884612ab8565b601754610d1e9190614c44565b6060610d067f00000000000000000000000000000000000000000000000000000000000000006005613b45565b6060610d067f00000000000000000000000000000000000000000000000000000000000000006006613b45565b5f61321c8585858561363d565b9050805f03612f8857604051630cb65c7760e21b815260040160405180910390fd5b600c80546001600160a01b0319166001600160a01b03831690811790915560405133907fcb11cc8aade2f5a556749d1b2380d108a16fac3431e6a5d5ce12ef9de0bd76e3905f90a350600f80546001600160e01b0319169055565b82546001600160a01b0319166001600160a01b0383161783556132bc8142614c44565b83546001600160401b0391909116600160a01b0267ffffffffffffffff60a01b19909116179092555050565b5f33610c398185856138b4565b60605f5f846001600160a01b0316846040516133119190614f89565b5f60405180830381855af49150503d805f8114613349576040519150601f19603f3d011682016040523d82523d5f602084013e61334e565b606091505b5091509150612afa858383613bee565b61336782613c4a565b6123d58585858585613de6565b5f61337e82612ab8565b905080158015906133a557506001600160a01b0382165f9081526012602052604090205481115b156133c5576001600160a01b0382165f9081526012602052604090208190555b919050565b5f5f6133d68330612ec0565b90506133e283826136b8565b9150915091565b604051636e553f6560e01b8152600481018390523060248201525f9081906001600160a01b03861690636e553f65906044016020604051808303815f875af1925050508015613455575060408051601f3d908101601f1916820190925261345291810190614ce9565b60015b61349d573d808015613482576040519150601f19603f3d011682016040523d82523d5f602084013e613487565b606091505b5083156134975761349781613ea6565b506134b1565b809150600192506134af868387613eb5565b505b935093915050565b5f5f5f5f6134c56136f4565b92509050806134d360025490565b6134dd9190614c44565b9250613508613500866001600160a01b03165f9081526020819052604090205490565b84845f61363d565b6040516323b9c4c560e11b8152600481018290526016602482015290945073__$5fdb2fd7279d0b8431a3d03f617f90aba9$__90634773898a90604401602060405180830381865af4158015613560573d5f5f3e3d5ffd5b505050506040513d601f19601f820116820180604052508101906135849190614ce9565b61358e9085614db4565b9350509193909250565b5f610c266135a4612ba0565b8360405161190160f01b8152600281019290925260228201526042902090565b5f5f5f5f6135d488888888613f21565b9250925092506135e48282613fe9565b50909695505050505050565b5f612afa61361f7f0000000000000000000000000000000000000000000000000000000000000000600a61508a565b6136299086614c44565b613634856001614c44565b879190856140a1565b5f612afa61364c846001614c44565b6136777f0000000000000000000000000000000000000000000000000000000000000000600a61508a565b6136349087614c44565b5f6001600160b81b038211156136b4576040516306dfcc6560e41b815260b86004820152602481018390526044016110c6565b5090565b5f815f036136c757505f610c26565b60405163266d6a8360e11b8152600481018390526001600160a01b03841690634cdad50690602401612eed565b5f5f6136fe610b2f565b90505f6137118260175480821191030290565b9050801580159061372c57506014546001600160601b031615155b15613776576014545f906137539083906001600160601b0316670de0b6b3a76400006140e3565b90506137728161376260025490565b61376c8487614db4565b5f6135f0565b9350505b509091565b6001600160a01b0384166137a45760405163e602df0560e01b81525f60048201526024016110c6565b6001600160a01b0383166137cd57604051634a1406b160e11b81525f60048201526024016110c6565b6001600160a01b038085165f9081526001602090815260408083209387168352929052208290558015612a3257826001600160a01b0316846001600160a01b03167f8c5be1e5ebec7d5bd14f71427d1e84f3dd0314c0f7b2291e5b200ac8c7c3b92584604051612a2991815260200190565b6001600160a01b038381165f908152600160209081526040808320938616835292905220545f198114612a3257818110156138a657604051637dc7a0d960e11b81526001600160a01b038416600482015260248101829052604481018390526064016110c6565b612a3284848484035f61377b565b6001600160a01b0383166138dd57604051634b637e8f60e11b81525f60048201526024016110c6565b6001600160a01b0382166139065760405163ec442f0560e01b81525f60048201526024016110c6565b6114308383836141a0565b6001600160a01b03821661393a5760405163ec442f0560e01b81525f60048201526024016110c6565b6119ff5f83836141a0565b6139717f00000000000000000000000000000000000000000000000000000000000000008530856141ca565b61397b8382613911565b826001600160a01b0316846001600160a01b03167fdcbc1c05240f31ff3ad067ef1ee35ce4997762752e3a095284754544f4c709d78484604051612a29929190918252602082015260400190565b6015545f5b81811015613ad4575f601582815481106139ea576139ea614c1c565b5f9182526020808320909101546001600160a01b0316808352600d90915260408220549092506001600160b81b031690819003613a28575050613acc565b5f613a3283613374565b905080820381831102868111878218028082189114613ab7576001600160a01b0384165f90815260126020526040812054613a6e908390614c44565b9050838111613ab5575f613a8386845f6133e9565b5090508015613ab357613a96838a614db4565b6001600160a01b0387165f90815260126020526040902083905598505b505b505b865f03613ac75750505050505050565b505050505b6001016139ce565b5081156119ff5760405163ded0652d60e01b815260040160405180910390fd5b600880546001600160a01b038381166001600160a01b0319831681179093556040519116919082907f8be0079c531659141344cd1fd0a4f28419497f9722a3daafe3b4186f6b6457e0905f90a35050565b606060ff8314613b5f57613b5883614231565b9050610c26565b818054613b6b90614c57565b80601f0160208091040260200160405190810160405280929190818152602001828054613b9790614c57565b8015613be25780601f10613bb957610100808354040283529160200191613be2565b820191905f5260205f20905b815481529060010190602001808311613bc557829003601f168201915b50505050509050610c26565b606082613c0357613bfe8261426e565b610cf6565b8151158015613c1a57506001600160a01b0384163b155b15613c4357604051639996b31560e01b81526001600160a01b03851660048201526024016110c6565b5080610cf6565b6016545f5b81811015613dc6575f60168281548110613c6b57613c6b614c1c565b5f918252602090912001546001600160a01b03169050613c8a81613374565b5060405163ce96cb7760e01b81523060048201525f90613d02906001600160a01b0384169063ce96cb7790602401602060405180830381865afa158015613cd3573d5f5f3e3d5ffd5b505050506040513d601f19601f82011682018060405250810190613cf79190614ce9565b868111818818021890565b90508015613dae57604051632d182be560e21b815260048101829052306024820181905260448201526001600160a01b0383169063b460af94906064016020604051808303815f875af1925050508015613d79575060408051601f3d908101601f19168201909252613d7691810190614ce9565b60015b15613dae5750613d898186614db4565b6001600160a01b0383165f908152601260205260409020805483810390841002905594505b845f03613dbc575050505050565b5050600101613c4f565b5081156119ff57604051634323a55560e01b815260040160405180910390fd5b826001600160a01b0316856001600160a01b031614613e0a57613e0a83868361383f565b613e148382614297565b613e3f7f000000000000000000000000000000000000000000000000000000000000000085846142cb565b826001600160a01b0316846001600160a01b0316866001600160a01b03167ffbde797d201c681b91056529119e0b02407c7bb96a4a2c75c01fc9667232c8db8585604051613e97929190918252602082015260400190565b60405180910390a45050505050565b80511561044d57805181602001fd5b5f613ec084846136b8565b9050818110613ecf5750505050565b6001600160a01b0384165f908152601360205260409020548015613ef35780613ef8565b620f42405b905081830380828110610dfe57604051633c02e26d60e01b81526004016110c691815260200190565b5f80807f7fffffffffffffffffffffffffffffff5d576e7357a4501ddfe92f46681b20a0841115613f5a57505f91506003905082613fdf565b604080515f808252602082018084528a905260ff891692820192909252606081018790526080810186905260019060a0016020604051602081039080840390855afa158015613fab573d5f5f3e3d5ffd5b5050604051601f1901519150506001600160a01b038116613fd657505f925060019150829050613fdf565b92505f91508190505b9450945094915050565b5f826003811115613ffc57613ffc615098565b03614005575050565b600182600381111561401957614019615098565b036140375760405163f645eedf60e01b815260040160405180910390fd5b600282600381111561404b5761404b615098565b0361406c5760405163fce698f760e01b8152600481018290526024016110c6565b600382600381111561408057614080615098565b036119ff576040516335e2f38360e21b8152600481018290526024016110c6565b5f6140ce6140ae836142fc565b80156140c957505f84806140c4576140c46150ac565b868809115b151590565b6140d98686866140e3565b612afa9190614c44565b5f838302815f1985870982811083820303915050805f036141175783828161410d5761410d6150ac565b0492505050610cf6565b80841161413557614135841561412e576011614328565b6012614328565b5f848688095f868103871696879004966002600389028118808a02820302808a02820302808a02820302808a02820302808a02820302808a02909103029181900381900460010186841190950394909402919094039290920491909117919091029150509392505050565b6141a8612d6c565b6141b3838383614339565b805f036141bf57505050565b61143083838361445f565b6040516001600160a01b038481166024830152838116604483015260648201839052612a329186918216906323b872dd906084015b604051602081830303815290604052915060e01b6020820180516001600160e01b038381831617835250505050614601565b60605f61423d83614662565b6040805160208082528183019092529192505f91906020820181803683375050509182525060208101929092525090565b80511561427e5780518082602001fd5b60405163d6bda27560e01b815260040160405180910390fd5b6001600160a01b0382166142c057604051634b637e8f60e11b81525f60048201526024016110c6565b6119ff825f836141a0565b6040516001600160a01b0383811660248301526044820183905261143091859182169063a9059cbb906064016141ff565b5f600282600381111561431157614311615098565b61431b91906150c0565b60ff166001149050919050565b634e487b715f52806020526024601cfd5b6001600160a01b038316614363578060025f8282546143589190614c44565b909155506143d39050565b6001600160a01b0383165f90815260208190526040902054818110156143b55760405163391434e360e21b81526001600160a01b038516600482015260248101829052604481018390526064016110c6565b6001600160a01b0384165f9081526020819052604090209082900390555b6001600160a01b0382166143ef5760028054829003905561440d565b6001600160a01b0382165f9081526020819052604090208054820190555b816001600160a01b0316836001600160a01b03167fddf252ad1be2c89b69c2b068fc378daa952ba7f163c4a11628f55a4df523b3ef8360405161445291815260200190565b60405180910390a3505050565b5f7f00000000000000000000000000000000000000000000000000000000000000006001600160a01b0316637a2bbb686040518163ffffffff1660e01b81526004015f60405180830381865afa1580156144bb573d5f5f3e3d5ffd5b505050506040513d5f823e601f3d908101601f191682016040526144e29190810190614ed7565b90505f6144ee60025490565b90505f6001600160a01b0386161561451d576001600160a01b0386165f9081526020819052604090205461451f565b5f5b90505f6001600160a01b0386161561454e576001600160a01b0386165f90815260208190526040902054614550565b5f5b90505f5b84518110156117125784818151811061456f5761456f614c1c565b602090810291909101015160405163bbdc013b60e01b81526001600160a01b038a81166004830152602482018690528981166044830152606482018590526084820187905260a482018990529091169063bbdc013b9060c4015f604051808303815f87803b1580156145df575f5ffd5b505af11580156145f1573d5f5f3e3d5ffd5b5050600190920191506145549050565b5f6146156001600160a01b03841683614689565b905080515f141580156146395750808060200190518101906146379190614f94565b155b1561143057604051635274afe760e01b81526001600160a01b03841660048201526024016110c6565b5f60ff8216601f811115610c2657604051632cd44ac360e21b815260040160405180910390fd5b6060610cf683835f845f5f856001600160a01b031684866040516146ad9190614f89565b5f6040518083038185875af1925050503d805f81146146e7576040519150601f19603f3d011682016040523d82523d5f602084013e6146ec565b606091505b50915091506146fc868383613bee565b9695505050505050565b828054828255905f5260205f20908101928215614759579160200282015b8281111561475957825182546001600160a01b0319166001600160a01b03909116178255602090920191600190910190614724565b506136b49291506147b6565b828054828255905f5260205f20908101928215614759579160200282015b828111156147595781546001600160a01b0319166001600160a01b03843516178255602090920191600190910190614783565b5b808211156136b4575f81556001016147b7565b6001600160a01b03811681146118b0575f5ffd5b5f602082840312156147ee575f5ffd5b8135610cf6816147ca565b5f81518084528060208401602086015e5f602082860101526020601f19601f83011685010191505092915050565b602081525f610cf660208301846147f9565b5f60208284031215614849575f5ffd5b5035919050565b5f5f60408385031215614861575f5ffd5b823561486c816147ca565b946020939093013593505050565b5f5f5f6060848603121561488c575f5ffd5b8335614897816147ca565b925060208401356148a7816147ca565b929592945050506040919091013590565b5f5f83601f8401126148c8575f5ffd5b5081356001600160401b038111156148de575f5ffd5b6020830191508360208260051b85010111156148f8575f5ffd5b9250929050565b5f5f60208385031215614910575f5ffd5b82356001600160401b03811115614925575f5ffd5b614931858286016148b8565b90969095509350505050565b80151581146118b0575f5ffd5b5f5f5f6060848603121561495c575f5ffd5b8335614967816147ca565b925060208401359150604084013561497e8161493d565b809150509250925092565b5f5f6040838503121561499a575f5ffd5b8235915060208301356149ac816147ca565b809150509250929050565b60ff60f81b8816815260e060208201525f6149d560e08301896147f9565b82810360408401526149e781896147f9565b606084018890526001600160a01b038716608085015260a0840186905283810360c0850152845180825260208087019350909101905f5b81811015614a3c578351835260209384019390920191600101614a1e565b50909b9a5050505050505050505050565b5f602082016020835280845180835260408501915060408160051b8601019250602086015f5b82811015614aa457603f19878603018452614a8f8583516147f9565b94506020938401939190910190600101614a73565b50929695505050505050565b5f5f60408385031215614ac1575f5ffd5b8235614acc816147ca565b915060208301356149ac8161493d565b5f5f5f60608486031215614aee575f5ffd5b833592506020840135614b00816147ca565b9150604084013561497e816147ca565b5f5f60208385031215614b21575f5ffd5b82356001600160401b03811115614b36575f5ffd5b8301601f81018513614b46575f5ffd5b80356001600160401b03811115614b5b575f5ffd5b8560208260061b8401011115614b6f575f5ffd5b6020919091019590945092505050565b5f5f5f5f5f5f5f60e0888a031215614b95575f5ffd5b8735614ba0816147ca565b96506020880135614bb0816147ca565b95506040880135945060608801359350608088013560ff81168114614bd3575f5ffd5b9699959850939692959460a0840135945060c09093013592915050565b5f5f60408385031215614c01575f5ffd5b8235614c0c816147ca565b915060208301356149ac816147ca565b634e487b7160e01b5f52603260045260245ffd5b634e487b7160e01b5f52601160045260245ffd5b80820180821115610c2657610c26614c30565b600181811c90821680614c6b57607f821691505b602082108103614c8957634e487b7160e01b5f52602260045260245ffd5b50919050565b606080825284549082018190525f8581526020812090916080840190835b81811015614cd45783546001600160a01b0316835260019384019360209093019201614cad565b50506020840195909552505060400152919050565b5f60208284031215614cf9575f5ffd5b5051919050565b634e487b7160e01b5f52604160045260245ffd5b602080825282518282018190525f918401906040840190835b81811015614d545783516001600160a01b0316835260209384019390920191600101614d2d565b509095945050505050565b604080825281018390525f8460608301825b86811015614da1578235614d84816147ca565b6001600160a01b0316825260209283019290910190600101614d71565b5060209390930193909352509392505050565b81810381811115610c2657610c26614c30565b5f5f8335601e19843603018112614ddc575f5ffd5b8301803591506001600160401b03821115614df5575f5ffd5b6020019150368190038213156148f8575f5ffd5b5f81518060208401855e5f93019283525090919050565b828482375f8382015f81526146fc8185614e09565b604051601f8201601f191681016001600160401b0381118282101715614e5d57614e5d614d00565b604052919050565b5f6040828403128015614e76575f5ffd5b50604080519081016001600160401b0381118282101715614e9957614e99614d00565b6040528235614ea7816147ca565b81526020928301359281019290925250919050565b5f60208284031215614ecc575f5ffd5b8151610cf6816147ca565b5f60208284031215614ee7575f5ffd5b81516001600160401b03811115614efc575f5ffd5b8201601f81018413614f0c575f5ffd5b80516001600160401b03811115614f2557614f25614d00565b8060051b614f3560208201614e35565b91825260208184018101929081019087841115614f50575f5ffd5b6020850194505b83851015614f7e5784519250614f6c836147ca565b82825260209485019490910190614f57565b979650505050505050565b5f610cf68284614e09565b5f60208284031215614fa4575f5ffd5b8151610cf68161493d565b6001815b60018411156134b157808504811115614fce57614fce614c30565b6001841615614fdc57908102905b60019390931c928002614fb3565b5f82614ff857506001610c26565b8161500457505f610c26565b816001811461501a576002811461502457615040565b6001915050610c26565b60ff84111561503557615035614c30565b50506001821b610c26565b5060208310610133831016604e8410600b8410161715615063575081810a610c26565b61506f5f198484614faf565b805f190482111561508257615082614c30565b029392505050565b5f610cf660ff841683614fea565b634e487b7160e01b5f52602160045260245ffd5b634e487b7160e01b5f52601260045260245ffd5b5f60ff8316806150de57634e487b7160e01b5f52601260045260245ffd5b8060ff8416069150509291505056fea2646970667358221220210f171414307b8964d5869b2725f0a33e71b83bea8880c62691befbf11e59c664736f6c634300081c0033a2646970667358221220b57c1a1edf1d55664c1dcd0140e2e9a26bab815fe8b65e7a3b5504a47799b20464736f6c634300081c00336080604052348015600e575f5ffd5b5060156019565b60c9565b7ff0c57e16840df040f15088dc2f81fe391c3923bec73e23a9662efc9c229c6a00805468010000000000000000900460ff161560685760405163f92ee8a960e01b815260040160405180910390fd5b80546001600160401b039081161460c65780546001600160401b0319166001600160401b0390811782556040519081527fc7f505b2f371ae2175ee4913f4499e1f2633a7b5936321eed1cdaeb6115181d29060200160405180910390a15b50565b611241806100d65f395ff3fe608060405234801561000f575f5ffd5b506004361061011c575f3560e01c8063984618eb116100a9578063e2b08bdc1161006e578063e2b08bdc1461023d578063e30c397814610250578063f2fde38b14610258578063fbfa77cf1461026b578063fd5813ce1461027d575f5ffd5b8063984618eb146101f4578063cc2a321d14610207578063cc4000e21461020f578063d166962b14610222578063d9fdd7dc1461022a575f5ffd5b806379ba5097116100ef57806379ba5097146101635780637a2bbb681461016b57806388a40ff1146101895780638da5cb5b1461019c57806394efa433146101bc575f5ffd5b806340d486a11461012057806351c8a13a1461013557806354d5490314610148578063715018a61461015b575b5f5ffd5b61013361012e366004611040565b610290565b005b610133610143366004611077565b61041c565b610133610156366004611040565b6104aa565b610133610589565b61013361059c565b6101736105e9565b60405161018091906110a7565b60405180910390f35b610133610197366004611040565b6105fa565b6101a46106f9565b6040516001600160a01b039091168152602001610180565b6101e66101ca366004611040565b600560209081525f928352604080842090915290825290205481565b604051908152602001610180565b6101736102023660046110f2565b61072d565b610173610756565b61013361021d3660046110f2565b610762565b6101736107f8565b61017361023836600461110d565b610816565b61013361024b366004611040565b61085a565b6101a46109aa565b6101336102663660046110f2565b6109d2565b5f546101a4906001600160a01b031681565b61013361028b366004611040565b610a57565b610298610b77565b6001600160a01b0381166102bf57604051639fabe1c160e01b815260040160405180910390fd5b6001600160a01b0382165f9081526006602052604090206102e09082610ba9565b156102fe57604051631889accd60e31b815260040160405180910390fd5b6001600160a01b038083165f908152600560209081526040808320938516835292905220541561034157604051634a05adc960e01b815260040160405180910390fd5b5f5f5f9054906101000a90046001600160a01b03166001600160a01b031663d33219b46040518163ffffffff1660e01b8152600401602060405180830381865afa158015610391573d5f5f3e3d5ffd5b505050506040513d601f19601f820116820180604052508101906103b5919061117e565b6001600160a01b038481165f8181526005602090815260408083209488168084529482529182902042860190559051928352929350917f016abb6372623f4d6f981cf15732955baf8d8c942a1aaac4dc413af5e7c8b02a91015b60405180910390a2505050565b610424610b77565b806104425760405163b71692ad60e01b815260040160405180910390fd5b61044d600383610bca565b61046a57604051634f23afb160e11b815260040160405180910390fd5b6040516001600160a01b03831681527f0a02602c53a84552ebbe6baedad18499f93ffca3b6e2bf29a4d9298023cbfce29060200160405180910390a15050565b6104b2610b77565b6001600160a01b0382165f9081526006602052604090206104d39082610ba9565b6104f057604051638f5e26bd60e01b815260040160405180910390fd5b6001600160a01b0382165f9081526006602052604090206105119082610bca565b506001600160a01b0382165f90815260066020526040902061053290610bde565b5f0361054557610543600183610bca565b505b6040516001600160a01b0382811682528316907f65741389e4ae318b012d3e133eabf67127710156132a8713ffb0260a2db2ac1c9060200160405180910390a25050565b610591610b77565b61059a5f610be7565b565b33806105a66109aa565b6001600160a01b0316146105dd5760405163118cdaa760e01b81526001600160a01b03821660048201526024015b60405180910390fd5b6105e681610be7565b50565b60606105f56003610c23565b905090565b6001600160a01b038083165f90815260056020908152604080832093851683529290522054801580159061062d57504281105b61064a57604051633bc8bbf360e21b815260040160405180910390fd5b6001600160a01b0383165f90815260066020526040902061066a90610bde565b5f0361067d5761067b600184610c2f565b505b6001600160a01b0383165f90815260066020526040902061069e9083610c2f565b506001600160a01b038381165f81815260056020908152604080832094871680845294825280832092909255905192835290917fd14928afa5bf68ec45f87228c95b2b5c87c4d4b2f70ecb2aad7752b6f31cb031910161040f565b5f807f9016d09d72d40fdae2fd8ceac6b6234c7706214fd39c1cd1e609a0528c1993005b546001600160a01b031692915050565b6001600160a01b0381165f90815260066020526040902060609061075090610c23565b92915050565b60606105f56001610c23565b61076a610b77565b6001600160a01b03811661079157604051639fabe1c160e01b815260040160405180910390fd5b61079c600382610c2f565b6107b957604051630da5569b60e41b815260040160405180910390fd5b6040516001600160a01b03821681527f6315777522956b348b60210f67b044cae37438bd6a5587bd053c30075123c0429060200160405180910390a150565b60605f6108056001610c23565b905061081081610c43565b91505090565b60606108538383808060200260200160405190810160405280939291908181526020018383602002808284375f92019190915250610c4392505050565b9392505050565b7ff0c57e16840df040f15088dc2f81fe391c3923bec73e23a9662efc9c229c6a008054600160401b810460ff16159067ffffffffffffffff165f8115801561089f5750825b90505f8267ffffffffffffffff1660011480156108bb5750303b155b9050811580156108c9575080155b156108e75760405163f92ee8a960e01b815260040160405180910390fd5b845467ffffffffffffffff19166001178555831561091157845460ff60401b1916600160401b1785555b61091a87610da9565b6001600160a01b03861661094157604051639fabe1c160e01b815260040160405180910390fd5b5f80546001600160a01b0319166001600160a01b03881617905583156109a157845460ff60401b19168555604051600181527fc7f505b2f371ae2175ee4913f4499e1f2633a7b5936321eed1cdaeb6115181d29060200160405180910390a15b50505050505050565b5f807f237e158222e3e6968b72b9db0d8043aacf074ad9f650f0d1606b4d82ee432c0061071d565b6109da610b77565b7f237e158222e3e6968b72b9db0d8043aacf074ad9f650f0d1606b4d82ee432c0080546001600160a01b0319166001600160a01b0383169081178255610a1e6106f9565b6001600160a01b03167f38d16b8cac22d99fc7c124b9cd0de2d3fa1faef420bfe791d8c362d765e2270060405160405180910390a35050565b5f5f5f9054906101000a90046001600160a01b03166001600160a01b031663452a93206040518163ffffffff1660e01b8152600401602060405180830381865afa158015610aa7573d5f5f3e3d5ffd5b505050506040513d601f19601f82011682018060405250810190610acb9190611195565b9050610ad56106f9565b6001600160a01b0316336001600160a01b031614158015610aff5750336001600160a01b03821614155b15610b1d57604051637cf97e4d60e11b815260040160405180910390fd5b6001600160a01b038381165f81815260056020908152604080832094871680845294825280832092909255905192835290917f751d8044554b3c2790f2e7764f467ef9a3cc1e857da662aff85211eed8c2745b910161040f565b33610b806106f9565b6001600160a01b03161461059a5760405163118cdaa760e01b81523360048201526024016105d4565b6001600160a01b0381165f9081526001830160205260408120541515610853565b5f610853836001600160a01b038416610dba565b5f610750825490565b7f237e158222e3e6968b72b9db0d8043aacf074ad9f650f0d1606b4d82ee432c0080546001600160a01b0319168155610c1f82610e9d565b5050565b60605f61085383610f0d565b5f610853836001600160a01b038416610f66565b60605f805b8351811015610ca157610c9560065f868481518110610c6957610c696111b0565b60200260200101516001600160a01b03166001600160a01b031681526020019081526020015f20610bde565b90910190600101610c48565b508067ffffffffffffffff811115610cbb57610cbb6111c4565b604051908082528060200260200182016040528015610ce4578160200160208202803683370190505b5091505f805b8451811015610da1575f610d3860065f888581518110610d0c57610d0c6111b0565b60200260200101516001600160a01b03166001600160a01b031681526020019081526020015f20610c23565b90505f5b8151811015610d9757818181518110610d5757610d576111b0565b6020026020010151868580600101965081518110610d7757610d776111b0565b6001600160a01b0390921660209283029190910190910152600101610d3c565b5050600101610cea565b505050919050565b610db1610fb2565b6105e681610ffb565b5f8181526001830160205260408120548015610e94575f610ddc6001836111d8565b85549091505f90610def906001906111d8565b9050808214610e4e575f865f018281548110610e0d57610e0d6111b0565b905f5260205f200154905080875f018481548110610e2d57610e2d6111b0565b5f918252602080832090910192909255918252600188019052604090208390555b8554869080610e5f57610e5f6111f7565b600190038181905f5260205f20015f90559055856001015f8681526020019081526020015f205f905560019350505050610750565b5f915050610750565b7f9016d09d72d40fdae2fd8ceac6b6234c7706214fd39c1cd1e609a0528c19930080546001600160a01b031981166001600160a01b03848116918217845560405192169182907f8be0079c531659141344cd1fd0a4f28419497f9722a3daafe3b4186f6b6457e0905f90a3505050565b6060815f01805480602002602001604051908101604052809291908181526020018280548015610f5a57602002820191905f5260205f20905b815481526020019060010190808311610f46575b50505050509050919050565b5f818152600183016020526040812054610fab57508154600181810184555f848152602080822090930184905584548482528286019093526040902091909155610750565b505f610750565b7ff0c57e16840df040f15088dc2f81fe391c3923bec73e23a9662efc9c229c6a0054600160401b900460ff1661059a57604051631afcd79f60e31b815260040160405180910390fd5b611003610fb2565b6001600160a01b0381166105dd57604051631e4fbdf760e01b81525f60048201526024016105d4565b6001600160a01b03811681146105e6575f5ffd5b5f5f60408385031215611051575f5ffd5b823561105c8161102c565b9150602083013561106c8161102c565b809150509250929050565b5f5f60408385031215611088575f5ffd5b82356110938161102c565b91506020830135801515811461106c575f5ffd5b602080825282518282018190525f918401906040840190835b818110156110e75783516001600160a01b03168352602093840193909201916001016110c0565b509095945050505050565b5f60208284031215611102575f5ffd5b81356108538161102c565b5f5f6020838503121561111e575f5ffd5b823567ffffffffffffffff811115611134575f5ffd5b8301601f81018513611144575f5ffd5b803567ffffffffffffffff81111561115a575f5ffd5b8560208260051b840101111561116e575f5ffd5b6020919091019590945092505050565b5f6020828403121561118e575f5ffd5b5051919050565b5f602082840312156111a5575f5ffd5b81516108538161102c565b634e487b7160e01b5f52603260045260245ffd5b634e487b7160e01b5f52604160045260245ffd5b8181038181111561075057634e487b7160e01b5f52601160045260245ffd5b634e487b7160e01b5f52603160045260245ffdfea2646970667358221220bbd2c7a391d5c9710913ee9f7e8ecd61f1f016a49420d6e85cd55d7dda5b43f764736f6c634300081c0033",
  "language": "Solidity",
  "compiler": "0.8.28+commit.7893614a"
}