{
  "address": "0x2AeC24E2fac282134C28c419CD44b021412C1Fd1",
  "abi": [
    {
      "type": "function",
      "name": "exe",
      "inputs": [
        {
          "name": "_target",
          "type": "address",
          "internalType": "address"
        },
        {
          "name": "_data",
          "type": "bytes",
          "internalType": "bytes"
        }
      ],
      "outputs": [],
      "stateMutability": "payable"
    }
  ],
  "bytecode": "0x6080604052348015600e575f5ffd5b506101d58061001c5f395ff3fe60806040526004361061001d575f3560e01c80635934853a14610021575b5f5ffd5b61003461002f3660046100d0565b610036565b005b3415610040575f5ffd5b5f5f846001600160a01b0316848460405161005c92919061015b565b5f604051808303815f865af19150503d805f8114610095576040519150601f19603f3d011682016040523d82523d5f602084013e61009a565b606091505b50915091508181906100c85760405162461bcd60e51b81526004016100bf919061016a565b60405180910390fd5b505050505050565b5f5f5f604084860312156100e2575f5ffd5b83356001600160a01b03811681146100f8575f5ffd5b9250602084013567ffffffffffffffff811115610113575f5ffd5b8401601f81018613610123575f5ffd5b803567ffffffffffffffff811115610139575f5ffd5b86602082840101111561014a575f5ffd5b939660209190910195509293505050565b818382375f9101908152919050565b602081525f82518060208401528060208501604085015e5f604082850101526040601f19601f8301168401019150509291505056fea2646970667358221220059ba6deb4f11c7b833dab43b4931ae7036132d74fd479c860c55d522b83341164736f6c634300081c0033",
  "language": "Solidity",
  "compiler": "0.8.28+commit.7893614a"
}