{
  "address": "0x653B957DAC238A918C4b7DDa798AE09920355Edc",
  "abi": [
    {
      "inputs": [],
      "stateMutability": "nonpayable",
      "type": "constructor"
    },
    {
      "inputs": [],
      "name": "ORACLE_IMPLEMENTATION",
      "outputs": [
        {
          "internalType": "address",
          "name": "",
          "type": "address"
        }
      ],
      "stateMutability": "view",
      "type": "function"
    },
    {
      "inputs": [
        {
          "components": [
            {
              "internalType": "contract IERC20Metadata",
              "name": "baseToken",
              "type": "address"
            },
            {
              "internalType": "contract IERC20Metadata",
              "name": "quoteToken",
              "type": "address"
            },
            {
              "internalType": "contract AggregatorV3Interface",
              "name": "primaryAggregator",
              "type": "address"
            },
            {
              "internalType": "uint32",
              "name": "primaryHeartbeat",
              "type": "uint32"
            },
            {
              "internalType": "contract AggregatorV3Interface",
              "name": "secondaryAggregator",
              "type": "address"
            },
            {
              "internalType": "uint32",
              "name": "secondaryHeartbeat",
              "type": "uint32"
            },
            {
              "internalType": "uint256",
              "name": "normalizationDivider",
              "type": "uint256"
            },
            {
              "internalType": "uint256",
              "name": "normalizationMultiplier",
              "type": "uint256"
            }
          ],
          "internalType": "struct IChainlinkV3Oracle.ChainlinkV3DeploymentConfig",
          "name": "_config",
          "type": "tuple"
        }
      ],
      "name": "create",
      "outputs": [
        {
          "internalType": "contract ChainlinkV3Oracle",
          "name": "oracle",
          "type": "address"
        }
      ],
      "stateMutability": "nonpayable",
      "type": "function"
    },
    {
      "inputs": [
        {
          "internalType": "bytes32",
          "name": "",
          "type": "bytes32"
        }
      ],
      "name": "getConfigAddress",
      "outputs": [
        {
          "internalType": "address",
          "name": "",
          "type": "address"
        }
      ],
      "stateMutability": "view",
      "type": "function"
    },
    {
      "inputs": [
        {
          "internalType": "address",
          "name": "",
          "type": "address"
        }
      ],
      "name": "getOracleAddress",
      "outputs": [
        {
          "internalType": "address",
          "name": "",
          "type": "address"
        }
      ],
      "stateMutability": "view",
      "type": "function"
    },
    {
      "inputs": [
        {
          "components": [
            {
              "internalType": "contract IERC20Metadata",
              "name": "baseToken",
              "type": "address"
            },
            {
              "internalType": "contract IERC20Metadata",
              "name": "quoteToken",
              "type": "address"
            },
            {
              "internalType": "contract AggregatorV3Interface",
              "name": "primaryAggregator",
              "type": "address"
            },
            {
              "internalType": "uint32",
              "name": "primaryHeartbeat",
              "type": "uint32"
            },
            {
              "internalType": "contract AggregatorV3Interface",
              "name": "secondaryAggregator",
              "type": "address"
            },
            {
              "internalType": "uint32",
              "name": "secondaryHeartbeat",
              "type": "uint32"
            },
            {
              "internalType": "uint256",
              "name": "normalizationDivider",
              "type": "uint256"
            },
            {
              "internalType": "uint256",
              "name": "normalizationMultiplier",
              "type": "uint256"
            }
          ],
          "internalType": "struct IChainlinkV3Oracle.ChainlinkV3DeploymentConfig",
          "name": "_config",
          "type": "tuple"
        }
      ],
      "name": "hashConfig",
      "outputs": [
        {
          "internalType": "bytes32",
          "name": "configId",
          "type": "bytes32"
        }
      ],
      "stateMutability": "view",
      "type": "function"
    },
    {
      "inputs": [
        {
          "components": [
            {
              "internalType": "contract IERC20Metadata",
              "name": "baseToken",
              "type": "address"
            },
            {
              "internalType": "contract IERC20Metadata",
              "name": "quoteToken",
              "type": "address"
            },
            {
              "internalType": "contract AggregatorV3Interface",
              "name": "primaryAggregator",
              "type": "address"
            },
            {
              "internalType": "uint32",
              "name": "primaryHeartbeat",
              "type": "uint32"
            },
            {
              "internalType": "contract AggregatorV3Interface",
              "name": "secondaryAggregator",
              "type": "address"
            },
            {
              "internalType": "uint32",
              "name": "secondaryHeartbeat",
              "type": "uint32"
            },
            {
              "internalType": "uint256",
              "name": "normalizationDivider",
              "type": "uint256"
            },
            {
              "internalType": "uint256",
              "name": "normalizationMultiplier",
              "type": "uint256"
            }
          ],
          "internalType": "struct IChainlinkV3Oracle.ChainlinkV3DeploymentConfig",
          "name": "_config",
          "type": "tuple"
        }
      ],
      "name": "verifyConfig",
      "outputs": [
        {
          "internalType": "uint256",
          "name": "secondaryPriceDecimals",
          "type": "uint256"
        }
      ],
      "stateMutability": "view",
      "type": "function"
    },
    {
      "inputs": [
        {
          "components": [
            {
              "internalType": "contract IERC20Metadata",
              "name": "baseToken",
              "type": "address"
            },
            {
              "internalType": "contract IERC20Metadata",
              "name": "quoteToken",
              "type": "address"
            },
            {
              "internalType": "contract AggregatorV3Interface",
              "name": "primaryAggregator",
              "type": "address"
            },
            {
              "internalType": "uint32",
              "name": "primaryHeartbeat",
              "type": "uint32"
            },
            {
              "internalType": "contract AggregatorV3Interface",
              "name": "secondaryAggregator",
              "type": "address"
            },
            {
              "internalType": "uint32",
              "name": "secondaryHeartbeat",
              "type": "uint32"
            },
            {
              "internalType": "uint256",
              "name": "normalizationDivider",
              "type": "uint256"
            },
            {
              "internalType": "uint256",
              "name": "normalizationMultiplier",
              "type": "uint256"
            }
          ],
          "internalType": "struct IChainlinkV3Oracle.ChainlinkV3DeploymentConfig",
          "name": "_config",
          "type": "tuple"
        }
      ],
      "name": "verifyHeartbeat",
      "outputs": [],
      "stateMutability": "pure",
      "type": "function"
    },
    {
      "anonymous": false,
      "inputs": [
        {
          "indexed": true,
          "internalType": "address",
          "name": "oracle",
          "type": "address"
        }
      ],
      "name": "NewOracle",
      "type": "event"
    },
    {
      "inputs": [],
      "name": "AddressZero",
      "type": "error"
    },
    {
      "inputs": [],
      "name": "AggregatorsAreTheSame",
      "type": "error"
    },
    {
      "inputs": [],
      "name": "FailedDeployment",
      "type": "error"
    },
    {
      "inputs": [],
      "name": "HugeDivider",
      "type": "error"
    },
    {
      "inputs": [],
      "name": "HugeMultiplier",
      "type": "error"
    },
    {
      "inputs": [
        {
          "internalType": "uint256",
          "name": "balance",
          "type": "uint256"
        },
        {
          "internalType": "uint256",
          "name": "needed",
          "type": "uint256"
        }
      ],
      "name": "InsufficientBalance",
      "type": "error"
    },
    {
      "inputs": [],
      "name": "InvalidEthHeartbeat",
      "type": "error"
    },
    {
      "inputs": [],
      "name": "InvalidHeartbeat",
      "type": "error"
    },
    {
      "inputs": [],
      "name": "MultiplierAndDividerZero",
      "type": "error"
    },
    {
      "inputs": [],
      "name": "TokensAreTheSame",
      "type": "error"
    }
  ],
  "bytecode": "0x60a0604052348015600e575f5ffd5b506040516019906089565b604051809103905ff0801580156031573d5f5f3e3d5ffd5b506001600160a01b03811660795760405162461bcd60e51b815260206004820152600b60248201526a5a65726f4164647265737360a81b604482015260640160405180910390fd5b6001600160a01b03166080526096565b6109ad80610e5f83390190565b608051610daa6100b55f395f818161012401526104450152610daa5ff3fe608060405234801561000f575f5ffd5b506004361061007a575f3560e01c8063544821731161005857806354482173146100e2578063617653321461010a578063a8f39f661461011f578063f896503a14610146575f5ffd5b80632c2e43b61461007e57806349bda9c8146100a45780634b4de5ff146100b7575b5f5ffd5b61009161008c366004610746565b61016e565b6040519081526020015b60405180910390f35b6100916100b2366004610746565b61037d565b6100ca6100c5366004610746565b6103ac565b6040516001600160a01b03909116815260200161009b565b6100ca6100f0366004610809565b60016020525f90815260409020546001600160a01b031681565b61011d610118366004610746565b6104d4565b005b6100ca7f000000000000000000000000000000000000000000000000000000000000000081565b6100ca61015436600461082b565b5f602081905290815260409020546001600160a01b031681565b60208101515f906001600160a01b031661019b57604051639fabe1c160e01b815260040160405180910390fd5b81516001600160a01b03166101c357604051639fabe1c160e01b815260040160405180910390fd5b815f01516001600160a01b031682602001516001600160a01b0316036101fc57604051633d4cfcc560e11b815260040160405180910390fd5b60408201516001600160a01b031661022757604051639fabe1c160e01b815260040160405180910390fd5b81608001516001600160a01b031682604001516001600160a01b03160361026157604051630e04002960e11b815260040160405180910390fd5b60808201516001600160a01b0316156102de5781608001516001600160a01b031663313ce5676040518163ffffffff1660e01b8152600401602060405180830381865afa1580156102b4573d5f5f3e3d5ffd5b505050506040513d601f19601f820116820180604052508101906102d89190610842565b60ff1690505b6ec097ce7bc90715b34b9f10000000008260c00151111561031257604051631fe0fdf560e11b815260040160405180910390fd5b6ec097ce7bc90715b34b9f10000000008260e00151111561034657604051631f604a8560e21b815260040160405180910390fd5b60c082015115801561035a575060e0820151155b156103785760405163d156ee7f60e01b815260040160405180910390fd5b919050565b5f8160405160200161038f9190610862565b604051602081830303815290604052805190602001209050919050565b5f5f6103b78361037d565b5f818152602081905260409020549091506001600160a01b031680156103f8576001600160a01b039081165f90815260016020526040902054169392505050565b5f6104028561016e565b905061040d856104d4565b8460405161041a90610707565b6104249190610862565b604051809103905ff08015801561043d573d5f5f3e3d5ffd5b5091506104697f0000000000000000000000000000000000000000000000000000000000000000610598565b93506104768483856105a9565b60405163189acdbd60e31b81526001600160a01b03838116600483015285169063c4d66de8906024015f604051808303815f87803b1580156104b6575f5ffd5b505af11580156104c8573d5f5f3e3d5ffd5b50505050505050919050565b601e816060015163ffffffff1610806104f957506202a300816060015163ffffffff16115b1561051757604051638f1825c960e01b815260040160405180910390fd5b60808101516001600160a01b03166105555760a081015163ffffffff1615610552576040516329c5e8f160e21b815260040160405180910390fd5b50565b601e8160a0015163ffffffff16108061057a57506202a3008160a0015163ffffffff16115b15610552576040516329c5e8f160e21b815260040160405180910390fd5b5f6105a3825f610677565b92915050565b5f818152602081905260409020546001600160a01b0316156106075760405162461bcd60e51b815260206004820152601260248201527110dbdb999a59d05b1c9958591e515e1a5cdd60721b60448201526064015b60405180910390fd5b5f8181526020818152604080832080546001600160a01b038088166001600160a01b03199283168117909355918552600190935281842080549188169190931681179092555190917fb3eacd0e351fafdfefdec84e1cd19679b38dbcd63ea7c2c24da17fd2bc3b3c0e91a2505050565b5f814710156106a25760405163cf47918160e01b8152476004820152602481018390526044016105fe565b6e5af43d82803e903d91602b57fd5bf360205282601152763d602d80600a3d3981f3363d3d373d3d3d363d730000008360881c175f526037600983f090506001600160a01b0381166105a35760405163b06ebf3d60e01b815260040160405180910390fd5b61047f806108f683390190565b6001600160a01b0381168114610552575f5ffd5b803561037881610714565b803563ffffffff81168114610378575f5ffd5b5f610100828403128015610758575f5ffd5b50604051610100810167ffffffffffffffff8111828210171561078957634e487b7160e01b5f52604160045260245ffd5b60405261079583610728565b81526107a360208401610728565b60208201526107b460408401610728565b60408201526107c560608401610733565b60608201526107d660808401610728565b60808201526107e760a08401610733565b60a082015260c0838101359082015260e0928301359281019290925250919050565b5f60208284031215610819575f5ffd5b813561082481610714565b9392505050565b5f6020828403121561083b575f5ffd5b5035919050565b5f60208284031215610852575f5ffd5b815160ff81168114610824575f5ffd5b81516001600160a01b039081168252602080840151821690830152604080840151909116908201526060808301516101008301916108a79084018263ffffffff169052565b5060808301516108c260808401826001600160a01b03169052565b5060a08301516108da60a084018263ffffffff169052565b5060c083015160c083015260e083015160e08301529291505056fe6101a0604052348015610010575f5ffd5b5060405161047f38038061047f83398101604081905261002f916100ce565b80516020820151606083015160c08085015160e08087015160a09283529092526001600160a01b039485169091529183166101005263ffffffff9081166080908152604085015184166101205284018051841661014052919093015190921661016052905116151561018052610190565b80516001600160a01b03811681146100b6575f5ffd5b919050565b805163ffffffff811681146100b6575f5ffd5b5f6101008284031280156100e0575f5ffd5b5060405161010081016001600160401b038111828210171561011057634e487b7160e01b5f52604160045260245ffd5b60405261011c836100a0565b815261012a602084016100a0565b602082015261013b604084016100a0565b604082015261014c606084016100bb565b606082015261015d608084016100a0565b608082015261016e60a084016100bb565b60a082015260c0838101519082015260e0928301519281019290925250919050565b60805160a05160c05160e051610100516101205161014051610160516101805161028f6101f05f395f61017501525f60b401525f606701525f604201525f61014e01525f61012601525f61010001525f60da01525f608f015261028f5ff3fe608060405234801561000f575f5ffd5b5060043610610029575f3560e01c8063c3f909d41461002d575b5f5ffd5b60408051610120810182526001600160a01b037f0000000000000000000000000000000000000000000000000000000000000000811682527f0000000000000000000000000000000000000000000000000000000000000000811660208301527f0000000000000000000000000000000000000000000000000000000000000000828401527f000000000000000000000000000000000000000000000000000000000000000060608301527f000000000000000000000000000000000000000000000000000000000000000060808301527f000000000000000000000000000000000000000000000000000000000000000060a08301527f0000000000000000000000000000000000000000000000000000000000000000811660c08301527f00000000000000000000000000000000000000000000000000000000000000001660e08201527f0000000000000000000000000000000000000000000000000000000000000000151561010082015290516101a891906101b1565b60405180910390f35b81516001600160a01b031681526020808301516101208301916101de908401826001600160a01b03169052565b5060408301516040830152606083015160608301526080830151608083015260a083015160a083015260c083015161022160c08401826001600160a01b03169052565b5060e083015161023c60e08401826001600160a01b03169052565b5061010083015161025261010084018215159052565b509291505056fea264697066735822122089de3ddacef594b155d1ee58186bf003e06893c4c6f27a37378d47c2b443f35864736f6c634300081c0033a2646970667358221220086f04f96be8d67a772abedefbbbbdb1bf1e21bba14f339496a604215c0f984064736f6c634300081c00336080604052348015600e575f5ffd5b5060156019565b60c9565b7ff0c57e16840df040f15088dc2f81fe391c3923bec73e23a9662efc9c229c6a00805468010000000000000000900460ff161560685760405163f92ee8a960e01b815260040160405180910390fd5b80546001600160401b039081161460c65780546001600160401b0319166001600160401b0390811782556040519081527fc7f505b2f371ae2175ee4913f4499e1f2633a7b5936321eed1cdaeb6115181d29060200160405180910390a15b50565b6108d7806100d65f395ff3fe608060405234801561000f575f5ffd5b5060043610610060575f3560e01c806313b0be3314610064578063217a4b701461008a578063324b8d6e146100aa578063c4d66de8146100bc578063c71ed1e6146100d1578063f9fa619a146100fb575b5f5ffd5b61007761007236600461069f565b61010c565b6040519081526020015b60405180910390f35b6100926102d6565b6040516001600160a01b039091168152602001610081565b5f54610092906001600160a01b031681565b6100cf6100ca3660046106cd565b61034c565b005b6100e46100df3660046106fc565b6104a1565b604080519215158352602083019190915201610081565b6100cf6101093660046106cd565b50565b5f8054604080516330fe427560e21b8152905183926001600160a01b03169163c3f909d4916004808301926101209291908290030181865afa158015610154573d5f5f3e3d5ffd5b505050506040513d601f19601f820116820180604052508101906101789190610768565b90508060c001516001600160a01b0316836001600160a01b0316146101b05760405163981a2a2b60e01b815260040160405180910390fd5b6fffffffffffffffffffffffffffffffff8411156101e157604051631df5999960e21b815260040160405180910390fd5b5f5f6101f4835f01518460400151610551565b91509150816102155760405162bfc92160e01b815260040160405180910390fd5b82610100015161025d57610233868285608001518660a001516105f5565b9350835f03610255576040516301a7e28b60e61b815260040160405180910390fd5b5050506102d0565b5f5f61027185602001518660600151610551565b915091508161029357604051637c5ab47160e01b815260040160405180910390fd5b6102a888848388608001518960a0015161062f565b9550855f036102ca576040516301a7e28b60e61b815260040160405180910390fd5b50505050505b92915050565b5f8054604080516330fe427560e21b8152905183926001600160a01b03169163c3f909d4916004808301926101209291908290030181865afa15801561031e573d5f5f3e3d5ffd5b505050506040513d601f19601f820116820180604052508101906103429190610768565b60e0015192915050565b7ff0c57e16840df040f15088dc2f81fe391c3923bec73e23a9662efc9c229c6a008054600160401b810460ff16159067ffffffffffffffff165f811580156103915750825b90505f8267ffffffffffffffff1660011480156103ad5750303b155b9050811580156103bb575080155b156103d95760405163f92ee8a960e01b815260040160405180910390fd5b845467ffffffffffffffff19166001178555831561040357845460ff60401b1916600160401b1785555b5f80546001600160a01b0319166001600160a01b0388169081179091556040519081527f077847d1fadf50041a730385b3d6b2de1cdeb5e078cb933fb091003e7f10e07a9060200160405180910390a1831561049957845460ff60401b19168555604051600181527fc7f505b2f371ae2175ee4913f4499e1f2633a7b5936321eed1cdaeb6115181d29060200160405180910390a15b505050505050565b5f5f5f5f5f9054906101000a90046001600160a01b03166001600160a01b031663c3f909d46040518163ffffffff1660e01b815260040161012060405180830381865afa1580156104f4573d5f5f3e3d5ffd5b505050506040513d601f19601f820116820180604052508101906105189190610768565b9050836105365761053181602001518260600151610551565b610547565b610547815f01518260400151610551565b9250925050915091565b5f5f5f5f856001600160a01b031663feaf968c6040518163ffffffff1660e01b815260040160a060405180830381865afa158015610591573d5f5f3e3d5ffd5b505050506040513d601f19601f820116820180604052508101906105b5919061081c565b509350509250505f85420390505f831380156105d057508082115b156105e457600183945094505050506105ee565b5f5f945094505050505b9250929050565b5f815f0361061657828486028161060e5761060e61086a565b049050610627565b848402610623838261087e565b9150505b949350505050565b5f815f0361065f578383868802816106495761064961086a565b04816106575761065761086a565b049050610682565b85850261066c838261087e565b905084818161067d5761067d61086a565b049150505b95945050505050565b6001600160a01b0381168114610109575f5ffd5b5f5f604083850312156106b0575f5ffd5b8235915060208301356106c28161068b565b809150509250929050565b5f602082840312156106dd575f5ffd5b81356106e88161068b565b9392505050565b8015158114610109575f5ffd5b5f6020828403121561070c575f5ffd5b81356106e8816106ef565b604051610120810167ffffffffffffffff8111828210171561074757634e487b7160e01b5f52604160045260245ffd5b60405290565b80516107588161068b565b919050565b8051610758816106ef565b5f61012082840312801561077a575f5ffd5b50610783610717565b61078c8361074d565b815261079a6020840161074d565b602082015260408381015190820152606080840151908201526080808401519082015260a080840151908201526107d360c0840161074d565b60c08201526107e460e0840161074d565b60e08201526107f6610100840161075d565b6101008201529392505050565b805169ffffffffffffffffffff81168114610758575f5ffd5b5f5f5f5f5f60a08688031215610830575f5ffd5b61083986610803565b6020870151604088015160608901519297509095509350915061085e60808701610803565b90509295509295909350565b634e487b7160e01b5f52601260045260245ffd5b80820281158282048414176102d057634e487b7160e01b5f52601160045260245ffdfea264697066735822122086da21de5880bbb4feb19b5a0534d73302cfacd202e60b6f1d5458b01a3d99a964736f6c634300081c0033",
  "language": "Solidity",
  "compiler": "0.8.28+commit.7893614a"
}