{
  "address": "0x77c5abdfaE4534A5d89FEDE8ecbFcEa839bDc4c4",
  "abi": [
    {
      "inputs": [
        {
          "internalType": "contract IPyYtLpOracleLike",
          "name": "_pendleOracle",
          "type": "address"
        }
      ],
      "stateMutability": "nonpayable",
      "type": "constructor"
    },
    {
      "inputs": [],
      "name": "PENDLE_ORACLE",
      "outputs": [
        {
          "internalType": "contract IPyYtLpOracleLike",
          "name": "",
          "type": "address"
        }
      ],
      "stateMutability": "view",
      "type": "function"
    },
    {
      "inputs": [
        {
          "internalType": "contract ISiloOracle",
          "name": "_underlyingOracle",
          "type": "address"
        },
        {
          "internalType": "address",
          "name": "_market",
          "type": "address"
        }
      ],
      "name": "create",
      "outputs": [
        {
          "internalType": "contract ISiloOracle",
          "name": "pendlePTOracle",
          "type": "address"
        }
      ],
      "stateMutability": "nonpayable",
      "type": "function"
    },
    {
      "inputs": [
        {
          "internalType": "contract ISiloOracle",
          "name": "",
          "type": "address"
        }
      ],
      "name": "createdInFactory",
      "outputs": [
        {
          "internalType": "bool",
          "name": "",
          "type": "bool"
        }
      ],
      "stateMutability": "view",
      "type": "function"
    },
    {
      "anonymous": false,
      "inputs": [
        {
          "indexed": true,
          "internalType": "contract ISiloOracle",
          "name": "pendlePTOracle",
          "type": "address"
        }
      ],
      "name": "PendlePTOracleCreated",
      "type": "event"
    },
    {
      "inputs": [],
      "name": "PendleOracleIsZero",
      "type": "error"
    }
  ],
  "bytecode": "0x60a0604052348015600e575f5ffd5b50604051611296380380611296833981016040819052602b916061565b6001600160a01b038116605157604051635d26e47b60e11b815260040160405180910390fd5b6001600160a01b0316608052608c565b5f602082840312156070575f5ffd5b81516001600160a01b03811681146085575f5ffd5b9392505050565b6080516111ed6100a95f395f81816078015260d001526111ed5ff3fe608060405234801561000f575f5ffd5b506004361061003f575f3560e01c80633e68680a146100435780639c977cf014610073578063b32d705b1461009a575b5f5ffd5b6100566100513660046101ad565b6100cc565b6040516001600160a01b0390911681526020015b60405180910390f35b6100567f000000000000000000000000000000000000000000000000000000000000000081565b6100bc6100a83660046101e4565b5f6020819052908152604090205460ff1681565b604051901515815260200161006a565b5f827f0000000000000000000000000000000000000000000000000000000000000000836040516100fc90610189565b6001600160a01b03938416815291831660208301529091166040820152606001604051809103905ff080158015610135573d5f5f3e3d5ffd5b506001600160a01b0381165f81815260208190526040808220805460ff191660011790555192935090917fbaf8ec7d598cbe2ba31c564e5e35ff01d41b83c9429995a4ff25ede25a482d229190a292915050565b610fb18061020783390190565b6001600160a01b03811681146101aa575f5ffd5b50565b5f5f604083850312156101be575f5ffd5b82356101c981610196565b915060208301356101d981610196565b809150509250929050565b5f602082840312156101f4575f5ffd5b81356101ff81610196565b939250505056fe610140604052348015610010575f5ffd5b50604051610fb1380380610fb183398101604081905261002f91610562565b5f610039826102ed565b90505f61004583610356565b90505f61005182610425565b905061005c83610425565b811461007b5760405163b6c6dba760e01b815260040160405180910390fd5b60405162439f4b60e91b81526001600160a01b03858116600483015261070860248301525f91829188169063873e960090604401606060405180830381865afa1580156100ca573d5f5f3e3d5ffd5b505050506040513d601f19601f820116820180604052508101906100ee91906105c0565b92505091508080156100fe575081155b61011b5760405163b498fea160e01b815260040160405180910390fd5b60405163abca0eab60e01b81526001600160a01b038781166004830152610708602483015288169063abca0eab90604401602060405180830381865afa158015610167573d5f5f3e3d5ffd5b505050506040513d601f19601f8201168201806040525081019061018b9190610608565b5f036101aa576040516303350ef560e31b815260040160405180910390fd5b5f6101b684600a610718565b6040516313b0be3360e01b8152600481018290526001600160a01b038781166024830152919250908a16906313b0be3390604401602060405180830381865afa158015610205573d5f5f3e3d5ffd5b505050506040513d601f19601f820116820180604052508101906102299190610608565b5f0361024b576040516001620cca2360e01b0319815260040160405180910390fd5b6001600160a01b03808a16608081905289821660a05287821660c05286821660e0529088166101005260408051630217a4b760e41b8152905163217a4b70916004808201926020929091908290030181865afa1580156102ad573d5f5f3e3d5ffd5b505050506040513d601f19601f820116820180604052508101906102d1919061072a565b6001600160a01b031661012052506107c3975050505050505050565b5f816001600160a01b0316632c8ce6bc6040518163ffffffff1660e01b8152600401606060405180830381865afa15801561032a573d5f5f3e3d5ffd5b505050506040513d601f19601f8201168201806040525081019061034e9190610562565b509392505050565b5f5f826001600160a01b0316632c8ce6bc6040518163ffffffff1660e01b8152600401606060405180830381865afa158015610394573d5f5f3e3d5ffd5b505050506040513d601f19601f820116820180604052508101906103b89190610562565b50509050806001600160a01b031663a40bee506040518163ffffffff1660e01b8152600401606060405180830381865afa1580156103f8573d5f5f3e3d5ffd5b505050506040513d601f19601f8201168201806040525081019061041c9190610755565b50949350505050565b6040805160048152602481019091526020810180516001600160e01b0390811663313ce56760e01b179091525f91829182916104649186919061049516565b915091508161047657505f9392505050565b8080602001905181019061048a9190610794565b60ff16949350505050565b5f60606001600160a01b0384163b6104c0576040516373d39f9d60e01b815260040160405180910390fd5b5f5f856001600160a01b0316856040516104da91906107ad565b5f60405180830381855afa9150503d805f8114610512576040519150601f19603f3d011682016040523d82523d5f602084013e610517565b606091505b50915091508161053c575f60405180602001604052805f815250935093505050610544565b600193509150505b9250929050565b6001600160a01b038116811461055f575f5ffd5b50565b5f5f5f60608486031215610574575f5ffd5b835161057f8161054b565b60208501519093506105908161054b565b60408501519092506105a18161054b565b809150509250925092565b805180151581146105bb575f5ffd5b919050565b5f5f5f606084860312156105d2575f5ffd5b6105db846105ac565b9250602084015161ffff811681146105f1575f5ffd5b91506105ff604085016105ac565b90509250925092565b5f60208284031215610618575f5ffd5b5051919050565b634e487b7160e01b5f52601160045260245ffd5b6001815b600184111561066e578085048111156106525761065261061f565b600184161561066057908102905b60019390931c928002610637565b935093915050565b5f8261068457506001610712565b8161069057505f610712565b81600181146106a657600281146106b0576106cc565b6001915050610712565b60ff8411156106c1576106c161061f565b50506001821b610712565b5060208310610133831016604e8410600b84101617156106ef575081810a610712565b6106fb5f198484610633565b805f190482111561070e5761070e61061f565b0290505b92915050565b5f6107238383610676565b9392505050565b5f6020828403121561073a575f5ffd5b81516107238161054b565b805160ff811681146105bb575f5ffd5b5f5f5f60608486031215610767575f5ffd5b835160028110610775575f5ffd5b60208501519093506107868161054b565b91506105ff60408501610745565b5f602082840312156107a4575f5ffd5b61072382610745565b5f82518060208501845e5f920191825250919050565b60805160a05160c05160e051610100516101205161077661083b5f395f8181610111015261017401525f818161028a01526103d801525f8181610263015261033001525f81816102160152818161023a01526102c201525f81816101c8015261041501525f81816101ef015261035801526107765ff3fe608060405234801561000f575f5ffd5b50600436106100e5575f3560e01c80639c977cf011610088578063c55dae6311610063578063c55dae6314610238578063cdc0cfb11461025e578063f46f16c214610285578063f9fa619a146102ac575f5ffd5b80639c977cf0146101c3578063ac912490146101ea578063bce2e8d914610211575f5ffd5b80635dd3991e116100c35780635dd3991e1461015c57806378892cea1461016f5780637ab7e36d14610196578063879ac8f8146101a5575f5ffd5b806313b0be33146100e9578063217a4b701461010f57806321d118ef14610149575b5f5ffd5b6100fc6100f7366004610606565b6102bf565b6040519081526020015b60405180910390f35b7f00000000000000000000000000000000000000000000000000000000000000005b6040516001600160a01b039091168152602001610106565b610131610157366004610634565b6104ba565b61013161016a366004610634565b610523565b6101317f000000000000000000000000000000000000000000000000000000000000000081565b6100fc670de0b6b3a764000081565b6101ae61070881565b60405163ffffffff9091168152602001610106565b6101317f000000000000000000000000000000000000000000000000000000000000000081565b6101317f000000000000000000000000000000000000000000000000000000000000000081565b6101317f000000000000000000000000000000000000000000000000000000000000000081565b7f0000000000000000000000000000000000000000000000000000000000000000610131565b6101317f000000000000000000000000000000000000000000000000000000000000000081565b6101317f000000000000000000000000000000000000000000000000000000000000000081565b6102bd6102ba366004610634565b50565b005b5f7f00000000000000000000000000000000000000000000000000000000000000006001600160a01b0316826001600160a01b0316146103125760405163981a2a2b60e01b815260040160405180910390fd5b6040516313b0be3360e01b8152600481018490526001600160a01b037f0000000000000000000000000000000000000000000000000000000000000000811660248301527f000000000000000000000000000000000000000000000000000000000000000016906313b0be3390604401602060405180830381865afa15801561039d573d5f5f3e3d5ffd5b505050506040513d601f19601f820116820180604052508101906103c19190610656565b60405163abca0eab60e01b81526001600160a01b037f0000000000000000000000000000000000000000000000000000000000000000811660048301526107086024830152919250670de0b6b3a7640000917f0000000000000000000000000000000000000000000000000000000000000000169063abca0eab90604401602060405180830381865afa15801561045a573d5f5f3e3d5ffd5b505050506040513d601f19601f8201168201806040525081019061047e9190610656565b610488908361066d565b6104929190610690565b9050805f036104b457604051634dfba02360e01b815260040160405180910390fd5b92915050565b5f816001600160a01b0316632c8ce6bc6040518163ffffffff1660e01b8152600401606060405180830381865afa1580156104f7573d5f5f3e3d5ffd5b505050506040513d601f19601f8201168201806040525081019061051b91906106af565b509392505050565b5f5f826001600160a01b0316632c8ce6bc6040518163ffffffff1660e01b8152600401606060405180830381865afa158015610561573d5f5f3e3d5ffd5b505050506040513d601f19601f8201168201806040525081019061058591906106af565b50509050806001600160a01b031663a40bee506040518163ffffffff1660e01b8152600401606060405180830381865afa1580156105c5573d5f5f3e3d5ffd5b505050506040513d601f19601f820116820180604052508101906105e991906106f9565b50949350505050565b6001600160a01b03811681146102ba575f5ffd5b5f5f60408385031215610617575f5ffd5b823591506020830135610629816105f2565b809150509250929050565b5f60208284031215610644575f5ffd5b813561064f816105f2565b9392505050565b5f60208284031215610666575f5ffd5b5051919050565b80820281158282048414176104b457634e487b7160e01b5f52601160045260245ffd5b5f826106aa57634e487b7160e01b5f52601260045260245ffd5b500490565b5f5f5f606084860312156106c1575f5ffd5b83516106cc816105f2565b60208501519093506106dd816105f2565b60408501519092506106ee816105f2565b809150509250925092565b5f5f5f6060848603121561070b575f5ffd5b835160028110610719575f5ffd5b602085015190935061072a816105f2565b604085015190925060ff811681146106ee575f5ffdfea2646970667358221220f072c1a420f515597bbf47603a9313f02716a3aeafca6531d2eb4e560f399c8964736f6c634300081c0033a2646970667358221220f951603c4bc633e422b28c9fa075531aa4c0a5849ae734c063047543534f8a1164736f6c634300081c0033",
  "language": "Solidity",
  "compiler": "0.8.28+commit.7893614a"
}