{
  "address": "0x25F7661A86A2267d54029beAB71Afe70eB42e8d9",
  "abi": [
    {
      "inputs": [
        {
          "internalType": "contract ISiloOracle",
          "name": "_underlyingOracle",
          "type": "address"
        },
        {
          "internalType": "address",
          "name": "_market",
          "type": "address"
        },
        {
          "internalType": "bytes32",
          "name": "_externalSalt",
          "type": "bytes32"
        }
      ],
      "name": "create",
      "outputs": [
        {
          "internalType": "contract ISiloOracle",
          "name": "pendleLPTOracle",
          "type": "address"
        }
      ],
      "stateMutability": "nonpayable",
      "type": "function"
    },
    {
      "inputs": [
        {
          "internalType": "contract ISiloOracle",
          "name": "",
          "type": "address"
        }
      ],
      "name": "createdInFactory",
      "outputs": [
        {
          "internalType": "bool",
          "name": "",
          "type": "bool"
        }
      ],
      "stateMutability": "view",
      "type": "function"
    },
    {
      "inputs": [
        {
          "internalType": "address",
          "name": "owner",
          "type": "address"
        }
      ],
      "name": "nonces",
      "outputs": [
        {
          "internalType": "uint256",
          "name": "",
          "type": "uint256"
        }
      ],
      "stateMutability": "view",
      "type": "function"
    },
    {
      "anonymous": false,
      "inputs": [
        {
          "indexed": true,
          "internalType": "contract ISiloOracle",
          "name": "pendleLPTToSyOracle",
          "type": "address"
        }
      ],
      "name": "PendleLPTToSyOracleCreated",
      "type": "event"
    },
    {
      "inputs": [
        {
          "internalType": "address",
          "name": "account",
          "type": "address"
        },
        {
          "internalType": "uint256",
          "name": "currentNonce",
          "type": "uint256"
        }
      ],
      "name": "InvalidAccountNonce",
      "type": "error"
    }
  ],
  "bytecode": "0x6080604052348015600e575f5ffd5b50610f1d8061001c5f395ff3fe608060405234801561000f575f5ffd5b506004361061003f575f3560e01c80637ecebe0014610043578063b32d705b1461007e578063d1692f56146100b0575b5f5ffd5b61006b6100513660046101f2565b6001600160a01b03165f9081526020819052604090205490565b6040519081526020015b60405180910390f35b6100a061008c3660046101f2565b60016020525f908152604090205460ff1681565b6040519015158152602001610075565b6100c36100be366004610214565b6100db565b6040516001600160a01b039091168152602001610075565b335f81815260208181526040808320805460018101909155815160609590951b6bffffffffffffffffffffffff19168584015260348501526054808501869052815180860390910181526074909401905282519201919091208484604051610142906101ce565b6001600160a01b039283168152911660208201526040018190604051809103905ff5905080158015610176573d5f5f3e3d5ffd5b506001600160a01b0381165f818152600160208190526040808320805460ff19169092179091555192935090917f27174e80b522d4a2808d1c418622c76f2d79b20a9bc34dd369b8efcc694bdcea9190a29392505050565b610c958061025383390190565b6001600160a01b03811681146101ef575f5ffd5b50565b5f60208284031215610202575f5ffd5b813561020d816101db565b9392505050565b5f5f5f60608486031215610226575f5ffd5b8335610231816101db565b92506020840135610241816101db565b92959294505050604091909101359056fe610100604052348015610010575f5ffd5b50604051610c95380380610c9583398101604081905261002f91610507565b6001600160a01b03811660c05281815f61004761026f565b60405162439f4b60e91b81526001600160a01b038416600482015261070860248201529091505f908190739a9fa8338dd5e5b2188006f1cd2ef26d921650c29063873e960090604401606060405180830381865afa1580156100ab573d5f5f3e3d5ffd5b505050506040513d601f19601f820116820180604052508101906100cf9190610553565b925050915081156100f357604051636d75962960e01b815260040160405180910390fd5b8061011157604051637388288f60e11b815260040160405180910390fd5b61011961033d565b5f0361013857604051632ef8cd3960e11b815260040160405180910390fd5b5f610142846103ca565b61014d90600a610694565b6040516313b0be3360e01b8152600481018290526001600160a01b038681166024830152919250908716906313b0be3390604401602060405180830381865afa15801561019c573d5f5f3e3d5ffd5b505050506040513d601f19601f820116820180604052508101906101c091906106a6565b5f036101e2576040516001620cca2360e01b0319815260040160405180910390fd5b6001600160a01b03808716608081905290851660a05260408051630217a4b760e41b8152905163217a4b70916004808201926020929091908290030181865afa158015610231573d5f5f3e3d5ffd5b505050506040513d601f19601f8201168201806040525081019061025591906106bd565b6001600160a01b031660e052506107589650505050505050565b5f5f60c0516001600160a01b0316632c8ce6bc6040518163ffffffff1660e01b8152600401606060405180830381865afa1580156102af573d5f5f3e3d5ffd5b505050506040513d601f19601f820116820180604052508101906102d391906106d8565b50509050806001600160a01b03166376d5de856040518163ffffffff1660e01b8152600401602060405180830381865afa158015610313573d5f5f3e3d5ffd5b505050506040513d601f19601f8201168201806040525081019061033791906106bd565b91505090565b60c051604051634d44ca8960e01b81526001600160a01b03909116600482015261070860248201525f90739a9fa8338dd5e5b2188006f1cd2ef26d921650c290634d44ca8990604401602060405180830381865afa1580156103a1573d5f5f3e3d5ffd5b505050506040513d601f19601f820116820180604052508101906103c591906106a6565b905090565b6040805160048152602481019091526020810180516001600160e01b0390811663313ce56760e01b179091525f91829182916104099186919061043a16565b915091508161041b57505f9392505050565b8080602001905181019061042f9190610722565b60ff16949350505050565b5f60606001600160a01b0384163b610465576040516373d39f9d60e01b815260040160405180910390fd5b5f5f856001600160a01b03168560405161047f9190610742565b5f60405180830381855afa9150503d805f81146104b7576040519150601f19603f3d011682016040523d82523d5f602084013e6104bc565b606091505b5091509150816104e1575f60405180602001604052805f8152509350935050506104e9565b600193509150505b9250929050565b6001600160a01b0381168114610504575f5ffd5b50565b5f5f60408385031215610518575f5ffd5b8251610523816104f0565b6020840151909250610534816104f0565b809150509250929050565b8051801515811461054e575f5ffd5b919050565b5f5f5f60608486031215610565575f5ffd5b61056e8461053f565b9250602084015161ffff81168114610584575f5ffd5b91506105926040850161053f565b90509250925092565b634e487b7160e01b5f52601160045260245ffd5b6001815b60018411156105ea578085048111156105ce576105ce61059b565b60018416156105dc57908102905b60019390931c9280026105b3565b935093915050565b5f826106005750600161068e565b8161060c57505f61068e565b8160018114610622576002811461062c57610648565b600191505061068e565b60ff84111561063d5761063d61059b565b50506001821b61068e565b5060208310610133831016604e8410600b841016171561066b575081810a61068e565b6106775f1984846105af565b805f190482111561068a5761068a61059b565b0290505b92915050565b5f61069f83836105f2565b9392505050565b5f602082840312156106b6575f5ffd5b5051919050565b5f602082840312156106cd575f5ffd5b815161069f816104f0565b5f5f5f606084860312156106ea575f5ffd5b83516106f5816104f0565b6020850151909350610706816104f0565b6040850151909250610717816104f0565b809150509250925092565b5f60208284031215610732575f5ffd5b815160ff8116811461069f575f5ffd5b5f82518060208501845e5f920191825250919050565b60805160a05160c05160e0516104e86107ad5f395f8181610106015261015601525f818160a4015281816101fd015261036201525f818161012f015261026b01525f81816101c5015261029301526104e85ff3fe608060405234801561000f575f5ffd5b506004361061009b575f3560e01c80637ab7e36d116100635780637ab7e36d14610178578063879ac8f8146101875780639c977cf0146101a5578063ac912490146101c0578063f9fa619a146101e7575f5ffd5b80630f61ac821461009f57806313b0be33146100e3578063217a4b701461010457806329db1be61461012a57806378892cea14610151575b5f5ffd5b6100c67f000000000000000000000000000000000000000000000000000000000000000081565b6040516001600160a01b0390911681526020015b60405180910390f35b6100f66100f136600461040f565b6101fa565b6040519081526020016100da565b7f00000000000000000000000000000000000000000000000000000000000000006100c6565b6100c67f000000000000000000000000000000000000000000000000000000000000000081565b6100c67f000000000000000000000000000000000000000000000000000000000000000081565b6100f6670de0b6b3a764000081565b61019061070881565b60405163ffffffff90911681526020016100da565b6100c6739a9fa8338dd5e5b2188006f1cd2ef26d921650c281565b6100c67f000000000000000000000000000000000000000000000000000000000000000081565b6101f86101f5366004610439565b50565b005b5f7f00000000000000000000000000000000000000000000000000000000000000006001600160a01b0316826001600160a01b03161461024d5760405163981a2a2b60e01b815260040160405180910390fd5b6040516313b0be3360e01b8152600481018490526001600160a01b037f0000000000000000000000000000000000000000000000000000000000000000811660248301527f000000000000000000000000000000000000000000000000000000000000000016906313b0be3390604401602060405180830381865afa1580156102d8573d5f5f3e3d5ffd5b505050506040513d601f19601f820116820180604052508101906102fc9190610459565b9050670de0b6b3a764000061030f61034b565b6103199083610470565b6103239190610493565b9050805f0361034557604051634dfba02360e01b815260040160405180910390fd5b92915050565b604051634d44ca8960e01b81526001600160a01b037f000000000000000000000000000000000000000000000000000000000000000016600482015261070860248201525f90739a9fa8338dd5e5b2188006f1cd2ef26d921650c290634d44ca8990604401602060405180830381865afa1580156103cb573d5f5f3e3d5ffd5b505050506040513d601f19601f820116820180604052508101906103ef9190610459565b905090565b80356001600160a01b038116811461040a575f5ffd5b919050565b5f5f60408385031215610420575f5ffd5b82359150610430602084016103f4565b90509250929050565b5f60208284031215610449575f5ffd5b610452826103f4565b9392505050565b5f60208284031215610469575f5ffd5b5051919050565b808202811582820484141761034557634e487b7160e01b5f52601160045260245ffd5b5f826104ad57634e487b7160e01b5f52601260045260245ffd5b50049056fea2646970667358221220412831e6193c66ce949d21e3a649bff69e4f8809e743e195701dd990f0bb65cc64736f6c634300081c0033a264697066735822122049cf7f96983fbebc50191d5bf9164e3125f35eb5398cd1805a094193a673af4d64736f6c634300081c0033",
  "language": "Solidity",
  "compiler": "0.8.28+commit.7893614a"
}