{
  "address": "0xdB5eDDee493246345caEFea8e7c1F44b9102BFbD",
  "abi": [
    {
      "inputs": [
        {
          "internalType": "contract IPyYtLpOracleLike",
          "name": "_pendleOracle",
          "type": "address"
        }
      ],
      "stateMutability": "nonpayable",
      "type": "constructor"
    },
    {
      "inputs": [],
      "name": "PENDLE_ORACLE",
      "outputs": [
        {
          "internalType": "contract IPyYtLpOracleLike",
          "name": "",
          "type": "address"
        }
      ],
      "stateMutability": "view",
      "type": "function"
    },
    {
      "inputs": [
        {
          "internalType": "contract ISiloOracle",
          "name": "_underlyingOracle",
          "type": "address"
        },
        {
          "internalType": "address",
          "name": "_market",
          "type": "address"
        },
        {
          "internalType": "bytes32",
          "name": "_externalSalt",
          "type": "bytes32"
        }
      ],
      "name": "create",
      "outputs": [
        {
          "internalType": "contract ISiloOracle",
          "name": "pendlePTOracle",
          "type": "address"
        }
      ],
      "stateMutability": "nonpayable",
      "type": "function"
    },
    {
      "inputs": [
        {
          "internalType": "contract ISiloOracle",
          "name": "",
          "type": "address"
        }
      ],
      "name": "createdInFactory",
      "outputs": [
        {
          "internalType": "bool",
          "name": "",
          "type": "bool"
        }
      ],
      "stateMutability": "view",
      "type": "function"
    },
    {
      "inputs": [
        {
          "internalType": "address",
          "name": "owner",
          "type": "address"
        }
      ],
      "name": "nonces",
      "outputs": [
        {
          "internalType": "uint256",
          "name": "",
          "type": "uint256"
        }
      ],
      "stateMutability": "view",
      "type": "function"
    },
    {
      "anonymous": false,
      "inputs": [
        {
          "indexed": true,
          "internalType": "contract ISiloOracle",
          "name": "pendlePTOracle",
          "type": "address"
        }
      ],
      "name": "PendlePTOracleCreated",
      "type": "event"
    },
    {
      "inputs": [
        {
          "internalType": "address",
          "name": "account",
          "type": "address"
        },
        {
          "internalType": "uint256",
          "name": "currentNonce",
          "type": "uint256"
        }
      ],
      "name": "InvalidAccountNonce",
      "type": "error"
    },
    {
      "inputs": [],
      "name": "PendleOracleIsZero",
      "type": "error"
    }
  ],
  "bytecode": "0x60a0604052348015600e575f5ffd5b5060405161126c38038061126c833981016040819052602b916061565b6001600160a01b038116605157604051635d26e47b60e11b815260040160405180910390fd5b6001600160a01b0316608052608c565b5f602082840312156070575f5ffd5b81516001600160a01b03811681146085575f5ffd5b9392505050565b6080516111c26100aa5f395f8181608e015261016401526111c25ff3fe608060405234801561000f575f5ffd5b506004361061004a575f3560e01c80637ecebe001461004e5780639c977cf014610089578063b32d705b146100c8578063d1692f56146100fa575b5f5ffd5b61007661005c366004610249565b6001600160a01b03165f9081526020819052604090205490565b6040519081526020015b60405180910390f35b6100b07f000000000000000000000000000000000000000000000000000000000000000081565b6040516001600160a01b039091168152602001610080565b6100ea6100d6366004610249565b60016020525f908152604090205460ff1681565b6040519015158152602001610080565b6100b061010836600461026b565b335f81815260208181526040808320805460018101909155815160609590951b6bffffffffffffffffffffffff1916858401526034850152605480850186905281518086039091018152607490940190528251920191909120847f00000000000000000000000000000000000000000000000000000000000000008560405161019090610225565b6001600160a01b039384168152918316602083015290911660408201526060018190604051809103905ff59050801580156101cd573d5f5f3e3d5ffd5b506001600160a01b0381165f818152600160208190526040808320805460ff19169092179091555192935090917fbaf8ec7d598cbe2ba31c564e5e35ff01d41b83c9429995a4ff25ede25a482d229190a29392505050565b610ee3806102aa83390190565b6001600160a01b0381168114610246575f5ffd5b50565b5f60208284031215610259575f5ffd5b813561026481610232565b9392505050565b5f5f5f6060848603121561027d575f5ffd5b833561028881610232565b9250602084013561029881610232565b92959294505050604091909101359056fe610140604052348015610010575f5ffd5b50604051610ee3380380610ee383398101604081905261002f91610560565b5f610039826102ed565b90505f61004583610356565b90505f61005182610423565b905061005c83610423565b811461007b5760405163b6c6dba760e01b815260040160405180910390fd5b60405162439f4b60e91b81526001600160a01b03858116600483015261070860248301525f91829188169063873e960090604401606060405180830381865afa1580156100ca573d5f5f3e3d5ffd5b505050506040513d601f19601f820116820180604052508101906100ee91906105be565b92505091508080156100fe575081155b61011b5760405163b498fea160e01b815260040160405180910390fd5b60405163a31426d160e01b81526001600160a01b038781166004830152610708602483015288169063a31426d190604401602060405180830381865afa158015610167573d5f5f3e3d5ffd5b505050506040513d601f19601f8201168201806040525081019061018b9190610606565b5f036101aa5760405163386fdf2d60e11b815260040160405180910390fd5b5f6101b684600a610716565b6040516313b0be3360e01b8152600481018290526001600160a01b038781166024830152919250908a16906313b0be3390604401602060405180830381865afa158015610205573d5f5f3e3d5ffd5b505050506040513d601f19601f820116820180604052508101906102299190610606565b5f0361024b576040516001620cca2360e01b0319815260040160405180910390fd5b6001600160a01b03808a16608081905289821660a05287821660c05286821660e0529088166101005260408051630217a4b760e41b8152905163217a4b70916004808201926020929091908290030181865afa1580156102ad573d5f5f3e3d5ffd5b505050506040513d601f19601f820116820180604052508101906102d19190610721565b6001600160a01b03166101205250610772975050505050505050565b5f816001600160a01b0316632c8ce6bc6040518163ffffffff1660e01b8152600401606060405180830381865afa15801561032a573d5f5f3e3d5ffd5b505050506040513d601f19601f8201168201806040525081019061034e9190610560565b509392505050565b5f5f826001600160a01b0316632c8ce6bc6040518163ffffffff1660e01b8152600401606060405180830381865afa158015610394573d5f5f3e3d5ffd5b505050506040513d601f19601f820116820180604052508101906103b89190610560565b50509050806001600160a01b03166376d5de856040518163ffffffff1660e01b8152600401602060405180830381865afa1580156103f8573d5f5f3e3d5ffd5b505050506040513d601f19601f8201168201806040525081019061041c9190610721565b9392505050565b6040805160048152602481019091526020810180516001600160e01b0390811663313ce56760e01b179091525f91829182916104629186919061049316565b915091508161047457505f9392505050565b80806020019051810190610488919061073c565b60ff16949350505050565b5f60606001600160a01b0384163b6104be576040516373d39f9d60e01b815260040160405180910390fd5b5f5f856001600160a01b0316856040516104d8919061075c565b5f60405180830381855afa9150503d805f8114610510576040519150601f19603f3d011682016040523d82523d5f602084013e610515565b606091505b50915091508161053a575f60405180602001604052805f815250935093505050610542565b600193509150505b9250929050565b6001600160a01b038116811461055d575f5ffd5b50565b5f5f5f60608486031215610572575f5ffd5b835161057d81610549565b602085015190935061058e81610549565b604085015190925061059f81610549565b809150509250925092565b805180151581146105b9575f5ffd5b919050565b5f5f5f606084860312156105d0575f5ffd5b6105d9846105aa565b9250602084015161ffff811681146105ef575f5ffd5b91506105fd604085016105aa565b90509250925092565b5f60208284031215610616575f5ffd5b5051919050565b634e487b7160e01b5f52601160045260245ffd5b6001815b600184111561066c578085048111156106505761065061061d565b600184161561065e57908102905b60019390931c928002610635565b935093915050565b5f8261068257506001610710565b8161068e57505f610710565b81600181146106a457600281146106ae576106ca565b6001915050610710565b60ff8411156106bf576106bf61061d565b50506001821b610710565b5060208310610133831016604e8410600b84101617156106ed575081810a610710565b6106f95f198484610631565b805f190482111561070c5761070c61061d565b0290505b92915050565b5f61041c8383610674565b5f60208284031215610731575f5ffd5b815161041c81610549565b5f6020828403121561074c575f5ffd5b815160ff8116811461041c575f5ffd5b5f82518060208501845e5f920191825250919050565b60805160a05160c05160e05161010051610120516107016107e25f395f818160f7015261015a01525f818161024a015261039801525f818161022301526102f001525f81816101fc015261028201525f81816101ae01526103d501525f81816101d5015261031801526107015ff3fe608060405234801561000f575f5ffd5b50600436106100cb575f3560e01c8063879ac8f811610088578063bce2e8d911610063578063bce2e8d9146101f7578063e928bf9a1461021e578063f46f16c214610245578063f9fa619a1461026c575f5ffd5b8063879ac8f81461018b5780639c977cf0146101a9578063ac912490146101d0575f5ffd5b806313b0be33146100cf578063217a4b70146100f557806321d118ef1461012f5780634a5eabc21461014257806378892cea146101555780637ab7e36d1461017c575b5f5ffd5b6100e26100dd3660046105c4565b61027f565b6040519081526020015b60405180910390f35b7f00000000000000000000000000000000000000000000000000000000000000005b6040516001600160a01b0390911681526020016100ec565b61011761013d3660046105f2565b61047a565b6101176101503660046105f2565b6104e3565b6101177f000000000000000000000000000000000000000000000000000000000000000081565b6100e2670de0b6b3a764000081565b61019461070881565b60405163ffffffff90911681526020016100ec565b6101177f000000000000000000000000000000000000000000000000000000000000000081565b6101177f000000000000000000000000000000000000000000000000000000000000000081565b6101177f000000000000000000000000000000000000000000000000000000000000000081565b6101177f000000000000000000000000000000000000000000000000000000000000000081565b6101177f000000000000000000000000000000000000000000000000000000000000000081565b61027d61027a3660046105f2565b50565b005b5f7f00000000000000000000000000000000000000000000000000000000000000006001600160a01b0316826001600160a01b0316146102d25760405163981a2a2b60e01b815260040160405180910390fd5b6040516313b0be3360e01b8152600481018490526001600160a01b037f0000000000000000000000000000000000000000000000000000000000000000811660248301527f000000000000000000000000000000000000000000000000000000000000000016906313b0be3390604401602060405180830381865afa15801561035d573d5f5f3e3d5ffd5b505050506040513d601f19601f82011682018060405250810190610381919061060d565b60405163a31426d160e01b81526001600160a01b037f0000000000000000000000000000000000000000000000000000000000000000811660048301526107086024830152919250670de0b6b3a7640000917f0000000000000000000000000000000000000000000000000000000000000000169063a31426d190604401602060405180830381865afa15801561041a573d5f5f3e3d5ffd5b505050506040513d601f19601f8201168201806040525081019061043e919061060d565b6104489083610624565b6104529190610647565b9050805f0361047457604051634dfba02360e01b815260040160405180910390fd5b92915050565b5f816001600160a01b0316632c8ce6bc6040518163ffffffff1660e01b8152600401606060405180830381865afa1580156104b7573d5f5f3e3d5ffd5b505050506040513d601f19601f820116820180604052508101906104db9190610666565b509392505050565b5f5f826001600160a01b0316632c8ce6bc6040518163ffffffff1660e01b8152600401606060405180830381865afa158015610521573d5f5f3e3d5ffd5b505050506040513d601f19601f820116820180604052508101906105459190610666565b50509050806001600160a01b03166376d5de856040518163ffffffff1660e01b8152600401602060405180830381865afa158015610585573d5f5f3e3d5ffd5b505050506040513d601f19601f820116820180604052508101906105a991906106b0565b9392505050565b6001600160a01b038116811461027a575f5ffd5b5f5f604083850312156105d5575f5ffd5b8235915060208301356105e7816105b0565b809150509250929050565b5f60208284031215610602575f5ffd5b81356105a9816105b0565b5f6020828403121561061d575f5ffd5b5051919050565b808202811582820484141761047457634e487b7160e01b5f52601160045260245ffd5b5f8261066157634e487b7160e01b5f52601260045260245ffd5b500490565b5f5f5f60608486031215610678575f5ffd5b8351610683816105b0565b6020850151909350610694816105b0565b60408501519092506106a5816105b0565b809150509250925092565b5f602082840312156106c0575f5ffd5b81516105a9816105b056fea264697066735822122098a2c4e1863172bfcc0fee5750d5ba9c327c2d0b54eb9bfbf23fee0004ed8bac64736f6c634300081c0033a2646970667358221220e8e22c43492f59b6b88130fcb21f29c40f72c2285cc17a65a705d33b34f57c5664736f6c634300081c0033",
  "language": "Solidity",
  "compiler": "0.8.28+commit.7893614a"
}