{
  "address": "0xad525F341368AA80093672278234ad364EFcAf0A",
  "abi": [
    {
      "inputs": [],
      "name": "decimals",
      "outputs": [
        {
          "internalType": "uint8",
          "name": "",
          "type": "uint8"
        }
      ],
      "stateMutability": "pure",
      "type": "function"
    }
  ],
  "bytecode": "0x6080604052348015600e575f5ffd5b50607480601a5f395ff3fe6080604052348015600e575f5ffd5b50600436106026575f3560e01c8063313ce56714602a575b5f5ffd5b604080516008815290519081900360200190f3fea2646970667358221220eb9868dd86a15b3888ae56493e557baca01658b1910ac3345400d284c57568a864736f6c634300081c0033",
  "language": "Solidity",
  "compiler": "0.8.28+commit.7893614a"
}