{
  "address": "0x015BBC6cA60390f3b48c63773f1b7022B14cF76D",
  "abi": [
    {
      "inputs": [],
      "stateMutability": "nonpayable",
      "type": "constructor"
    },
    {
      "inputs": [],
      "name": "VAULT_INCENTIVES_MODULE_IMPLEMENTATION",
      "outputs": [
        {
          "internalType": "address",
          "name": "",
          "type": "address"
        }
      ],
      "stateMutability": "view",
      "type": "function"
    },
    {
      "inputs": [
        {
          "internalType": "address",
          "name": "owner",
          "type": "address"
        }
      ],
      "name": "counter",
      "outputs": [
        {
          "internalType": "uint256",
          "name": "counter",
          "type": "uint256"
        }
      ],
      "stateMutability": "view",
      "type": "function"
    },
    {
      "inputs": [
        {
          "internalType": "address",
          "name": "initialOwner",
          "type": "address"
        },
        {
          "internalType": "uint256",
          "name": "initialTimelock",
          "type": "uint256"
        },
        {
          "internalType": "address",
          "name": "asset",
          "type": "address"
        },
        {
          "internalType": "string",
          "name": "name",
          "type": "string"
        },
        {
          "internalType": "string",
          "name": "symbol",
          "type": "string"
        }
      ],
      "name": "createSiloVault",
      "outputs": [
        {
          "internalType": "contract ISiloVault",
          "name": "siloVault",
          "type": "address"
        }
      ],
      "stateMutability": "nonpayable",
      "type": "function"
    },
    {
      "inputs": [
        {
          "internalType": "address",
          "name": "",
          "type": "address"
        }
      ],
      "name": "isSiloVault",
      "outputs": [
        {
          "internalType": "bool",
          "name": "",
          "type": "bool"
        }
      ],
      "stateMutability": "view",
      "type": "function"
    },
    {
      "anonymous": false,
      "inputs": [
        {
          "indexed": true,
          "internalType": "address",
          "name": "SiloVault",
          "type": "address"
        },
        {
          "indexed": true,
          "internalType": "address",
          "name": "caller",
          "type": "address"
        },
        {
          "indexed": false,
          "internalType": "address",
          "name": "initialOwner",
          "type": "address"
        },
        {
          "indexed": false,
          "internalType": "uint256",
          "name": "initialTimelock",
          "type": "uint256"
        },
        {
          "indexed": true,
          "internalType": "address",
          "name": "asset",
          "type": "address"
        },
        {
          "indexed": false,
          "internalType": "string",
          "name": "name",
          "type": "string"
        },
        {
          "indexed": false,
          "internalType": "string",
          "name": "symbol",
          "type": "string"
        }
      ],
      "name": "CreateSiloVault",
      "type": "event"
    },
    {
      "inputs": [],
      "name": "FailedDeployment",
      "type": "error"
    },
    {
      "inputs": [
        {
          "internalType": "uint256",
          "name": "balance",
          "type": "uint256"
        },
        {
          "internalType": "uint256",
          "name": "needed",
          "type": "uint256"
        }
      ],
      "name": "InsufficientBalance",
      "type": "error"
    }
  ],
  "bytecode": "0x60a0604052348015600e575f5ffd5b506040516019906042565b604051809103905ff0801580156031573d5f5f3e3d5ffd5b506001600160a01b0316608052604f565b6114958061601783390190565b608051615faa61006d5f395f81816053015261015e0152615faa5ff3fe608060405234801561000f575f5ffd5b506004361061004a575f3560e01c8063254067421461004e578063687f30b914610092578063c12327b8146100a5578063c4e5fbe4146100d2575b5f5ffd5b6100757f000000000000000000000000000000000000000000000000000000000000000081565b6040516001600160a01b0390911681526020015b60405180910390f35b6100756100a0366004610403565b610104565b6100c46100b3366004610491565b60016020525f908152604090205481565b604051908152602001610089565b6100f46100e0366004610491565b5f6020819052908152604090205460ff1681565b6040519015158152602001610089565b335f9081526001602052604081208054829182610120836104aa565b9190505533888888888860405160200161014097969594939291906104e5565b6040516020818303038152906040528051906020012090505f6101837f000000000000000000000000000000000000000000000000000000000000000083610294565b90508787828888886040516101979061033c565b6101a696959493929190610579565b604051809103905ff0801580156101bf573d5f5f3e3d5ffd5b506040516338ac22f760e21b81526001600160a01b038a8116600483015280831660248301529194509082169063e2b08bdc906044015f604051808303815f87803b15801561020c575f5ffd5b505af115801561021e573d5f5f3e3d5ffd5b5050506001600160a01b038085165f8181526020819052604090819020805460ff1916600117905551918916925033917ff70fd2eefc418e3a46ce7d73fbb38e26baf8ca82b2ac851512ffc995f16047e890610281908d908d908c908c906105c5565b60405180910390a4505095945050505050565b5f6102a083835f6102a7565b9392505050565b5f814710156102d65760405163cf47918160e01b81524760048201526024810183905260440160405180910390fd5b6e5af43d82803e903d91602b57fd5bf360205283601152763d602d80600a3d3981f3363d3d373d3d3d363d730000008460881c175f52826037600984f590506001600160a01b0381166102a05760405163b06ebf3d60e01b815260040160405180910390fd5b61596c8061060983390190565b80356001600160a01b038116811461035f575f5ffd5b919050565b634e487b7160e01b5f52604160045260245ffd5b5f82601f830112610387575f5ffd5b813567ffffffffffffffff8111156103a1576103a1610364565b604051601f8201601f19908116603f0116810167ffffffffffffffff811182821017156103d0576103d0610364565b6040528181528382016020018510156103e7575f5ffd5b816020850160208301375f918101602001919091529392505050565b5f5f5f5f5f60a08688031215610417575f5ffd5b61042086610349565b94506020860135935061043560408701610349565b9250606086013567ffffffffffffffff811115610450575f5ffd5b61045c88828901610378565b925050608086013567ffffffffffffffff811115610478575f5ffd5b61048488828901610378565b9150509295509295909350565b5f602082840312156104a1575f5ffd5b6102a082610349565b5f600182016104c757634e487b7160e01b5f52601160045260245ffd5b5060010190565b5f81518060208401855e5f93019283525090919050565b8781526001600160601b03198760601b1660208201526001600160601b03198660601b1660348201528460488201526001600160601b03198460601b1660688201525f61053e610538607c8401866104ce565b846104ce565b9998505050505050505050565b5f81518084528060208401602086015e5f602082860101526020601f19601f83011685010191505092915050565b6001600160a01b0387811682526020820187905285811660408301528416606082015260c0608082018190525f906105b39083018561054b565b82810360a084015261053e818561054b565b60018060a01b0385168152836020820152608060408201525f6105eb608083018561054b565b82810360608401526105fd818561054b565b97965050505050505056fe6101e0604052348015610010575f5ffd5b5060405161596c38038061596c83398101604081905261002f9161065f565b858280604051806040016040528060018152602001603160f81b815250868686816003908161005e9190610789565b50600461006b8282610789565b5050505f5f61007f8361024d60201b60201c565b915091508161008f576012610091565b805b60ff1660a05250506001600160a01b03166080526100b0826005610323565b610160526100bf816006610323565b61018052815160208084019190912061012052815190820120610140524660e05261014d6101205161014051604080517f8b73c3c69bb8fe3d512ecc4cf759cc79239f7b179b0ffacaa9a75d522b39400f60208201529081019290925260608201524660808201523060a08201525f9060c00160405160208183030381529060405280519060200120905090565b60c05250503061010052506001600160a01b03811661018657604051631e4fbdf760e01b81525f60048201526024015b60405180910390fd5b61018f81610355565b506001600160a01b0383166101b75760405163d92e233d60e01b815260040160405180910390fd5b6001600160a01b0384166101de5760405163d92e233d60e01b815260040160405180910390fd5b5f6101e884610371565b9050601281111561020c5760405163258e86f160e11b815260040160405180910390fd5b61021b60158280821191030290565b60ff166101a05261022b866103e1565b61023486610429565b505050506001600160a01b03166101c052506108ef9050565b60408051600481526024810182526020810180516001600160e01b031663313ce56760e01b17905290515f918291829182916001600160a01b0387169161029391610843565b5f60405180830381855afa9150503d805f81146102cb576040519150601f19603f3d011682016040523d82523d5f602084013e6102d0565b606091505b50915091508180156102e457506020815110155b15610317575f818060200190518101906102fe9190610859565b905060ff8111610315576001969095509350505050565b505b505f9485945092505050565b5f60208351101561033e576103378361046a565b905061034f565b816103498482610789565b5060ff90505b92915050565b600980546001600160a01b031916905561036e816104a7565b50565b6040805160048152602481019091526020810180516001600160e01b0390811663313ce56760e01b179091525f91829182916103b0918691906104f816565b91509150816103c257505f9392505050565b808060200190518101906103d69190610870565b60ff16949350505050565b62127500811115610405576040516346fedb5760e01b815260040160405180910390fd5b6201518081101561036e57604051631a1593df60e11b815260040160405180910390fd5b600e81905560405181815233907fd28e9b90ee9b37c5936ff84392d71f29ff18117d7e76bcee60615262a90a3f759060200160405180910390a2505f601155565b5f5f829050601f81511115610494578260405163305a27a960e01b815260040161017d9190610897565b805161049f826108cc565b179392505050565b600880546001600160a01b038381166001600160a01b0319831681179093556040519116919082907f8be0079c531659141344cd1fd0a4f28419497f9722a3daafe3b4186f6b6457e0905f90a35050565b5f60606001600160a01b0384163b610523576040516373d39f9d60e01b815260040160405180910390fd5b5f5f856001600160a01b03168560405161053d9190610843565b5f60405180830381855afa9150503d805f8114610575576040519150601f19603f3d011682016040523d82523d5f602084013e61057a565b606091505b50915091508161059f575f60405180602001604052805f8152509350935050506105a7565b600193509150505b9250929050565b6001600160a01b038116811461036e575f5ffd5b634e487b7160e01b5f52604160045260245ffd5b5f82601f8301126105e5575f5ffd5b81516001600160401b038111156105fe576105fe6105c2565b604051601f8201601f19908116603f011681016001600160401b038111828210171561062c5761062c6105c2565b604052818152838201602001851015610643575f5ffd5b8160208501602083015e5f918101602001919091529392505050565b5f5f5f5f5f5f60c08789031215610674575f5ffd5b865161067f816105ae565b602088015160408901519197509550610697816105ae565b60608801519094506106a8816105ae565b60808801519093506001600160401b038111156106c3575f5ffd5b6106cf89828a016105d6565b60a089015190935090506001600160401b038111156106ec575f5ffd5b6106f889828a016105d6565b9150509295509295509295565b600181811c9082168061071957607f821691505b60208210810361073757634e487b7160e01b5f52602260045260245ffd5b50919050565b601f82111561078457805f5260205f20601f840160051c810160208510156107625750805b601f840160051c820191505b81811015610781575f815560010161076e565b50505b505050565b81516001600160401b038111156107a2576107a26105c2565b6107b6816107b08454610705565b8461073d565b6020601f8211600181146107e8575f83156107d15750848201515b5f19600385901b1c1916600184901b178455610781565b5f84815260208120601f198516915b8281101561081757878501518255602094850194600190920191016107f7565b508482101561083457868401515f19600387901b60f8161c191681555b50505050600190811b01905550565b5f82518060208501845e5f920191825250919050565b5f60208284031215610869575f5ffd5b5051919050565b5f60208284031215610880575f5ffd5b815160ff81168114610890575f5ffd5b9392505050565b602081525f82518060208401528060208501604085015e5f604082850101526040601f19601f83011684010191505092915050565b80516020808301519190811015610737575f1960209190910360031b1b16919050565b60805160a05160c05160e05161010051610120516101405161016051610180516101a0516101c051614fcf61099d5f395f8181610a6901528181612aa5015261438101525f81816108830152818161342c015261356d01525f61314201525f61311501525f6129af01525f61298701525f6128e201525f61290c01525f61293601525f50505f818161055b015281816125580152818161307a015281816137810152613ce30152614fcf5ff3fe608060405234801561000f575f5ffd5b5060043610610417575f3560e01c80638a2c7b3911610221578063c6e6f5921161012a578063e30c3978116100b4578063ee7a4b3311610084578063ee7a4b3314610a2b578063ef8b30f714610917578063f2fde38b14610a3e578063f7d1852114610a51578063fadbdada14610a64575f5ffd5b8063e30c3978146109e1578063e66f53b7146109f2578063e74b981b14610a05578063e90956cf14610a18575f5ffd5b8063d33219b4116100fa578063d33219b41461094f578063d505accf14610958578063d905777e1461096b578063dd62ed3e1461097e578063ddca3f43146109b6575f5ffd5b8063c6e6f59214610917578063c9649aa91461092a578063ce96cb7714610932578063d2c725e014610945575f5ffd5b8063ac88990c116101ab578063b3d7f6b91161017b578063b3d7f6b9146108b8578063b460af94146108cb578063ba087652146108de578063be9c5800146108f1578063c63d75b614610904575f5ffd5b8063ac88990c1461084b578063ac9650d81461085e578063aea70acc1461087e578063b192a84a146108a5575f5ffd5b8063987ee783116101f1578063987ee783146107db5780639d6b4a4514610815578063a17b313014610828578063a5f31d6114610830578063a9059cbb14610838575f5ffd5b80638a2c7b39146107a75780638da5cb5b146107af57806394bf804d146107c057806395d89b41146107d3575f5ffd5b8063469048401161032357806370a08231116102ad57806379ba50971161027d57806379ba5097146107125780637cc4d9a11461071a5780637ecebe001461076657806381bc23a61461077957806384b0196e1461078c575f5ffd5b806370a0823114610683578063715018a6146106ab5780637224a512146106b3578063762c31ba146106c6575f5ffd5b8063568efc07116102f3578063568efc071461062e5780635897a06d1461063757806362518ddf1461064a57806369fe0e2d1461065d5780636e553f6514610670575f5ffd5b806346904840146105df5780634cdad5061461044b5780634dedf20e146105f95780634e083eb31461061b575f5ffd5b8063313ce567116103a457806338d52e0f1161037457806338d52e0f146105595780633a72efdf14610593578063402d267d146105a657806341b67833146105b9578063452a9320146105cc575f5ffd5b8063313ce5671461052c57806333f91ebb146105415780633644e51514610549578063372500ab14610551575f5ffd5b80630a28a477116103ea5780630a28a477146104815780630e68ec951461049457806318160ddd146105075780631ecca77c1461050f57806323b872dd14610519575f5ffd5b806301e1d1141461041b57806306fdde031461043657806307a2d13a1461044b578063095ea7b31461045e575b5f5ffd5b610423610a8b565b6040519081526020015b60405180910390f35b61043e610ae5565b60405161042d91906146f0565b610423610459366004614702565b610b75565b61047161046c36600461472d565b610b86565b604051901515815260200161042d565b61042361048f366004614702565b610b9d565b6104d96104a2366004614757565b600d6020525f90815260409020546001600160b81b03811690600160b81b810460ff1690600160c01b90046001600160401b031683565b604080516001600160b81b03909416845291151560208401526001600160401b03169082015260600161042d565b600254610423565b610517610ba9565b005b610471610527366004614772565b610c32565b60125b60405160ff909116815260200161042d565b601454610423565b610423610c57565b610517610c65565b7f00000000000000000000000000000000000000000000000000000000000000005b6040516001600160a01b03909116815260200161042d565b6105176105a1366004614757565b610c8f565b6104236105b4366004614757565b610d40565b6105176105c73660046147f7565b610d49565b600c5461057b906001600160a01b031681565b60125461057b90600160601b90046001600160a01b031681565b610471610607366004614757565b600b6020525f908152604090205460ff1681565b6105176106293660046147f7565b61115e565b61042360155481565b610517610645366004614757565b6112d8565b61057b610658366004614702565b6114cb565b61051761066b366004614702565b6114f3565b61042361067e366004614835565b6115f3565b610423610691366004614757565b6001600160a01b03165f9081526020819052604090205490565b610517611647565b6105176106c1366004614702565b611658565b600f546106eb906001600160a01b03811690600160a01b90046001600160401b031682565b604080516001600160a01b0390931683526001600160401b0390911660208301520161042d565b61051761171a565b60115461073f906001600160c01b03811690600160c01b90046001600160401b031682565b604080516001600160c01b0390931683526001600160401b0390911660208301520161042d565b610423610774366004614757565b61175b565b610517610787366004614757565b611778565b610794611822565b60405161042d9796959493929190614863565b610517611864565b6008546001600160a01b031661057b565b6104236107ce366004614835565b6118ce565b61043e611914565b61073f6107e9366004614757565b60106020525f90815260409020546001600160c01b03811690600160c01b90046001600160401b031682565b610517610823366004614757565b611923565b601354610423565b6105176119eb565b61047161084636600461472d565b611a55565b610517610859366004614757565b611a72565b61087161086c3660046147f7565b611b2d565b60405161042d91906148f9565b61052f7f000000000000000000000000000000000000000000000000000000000000000081565b6105176108b3366004614969565b611c12565b6104236108c6366004614702565b611c94565b6104236108d9366004614995565b611ca0565b6104236108ec366004614995565b611cf7565b6105176108ff3660046149d4565b611d3d565b610423610912366004614757565b6121a5565b610423610925366004614702565b6121bb565b6105176121c6565b610423610940366004614757565b612243565b5f5c60ff16610471565b610423600e5481565b610517610966366004614a43565b612256565b610423610979366004614757565b61238c565b61042361098c366004614ab4565b6001600160a01b039182165f90815260016020908152604080832093909416825291909152205490565b6012546109c9906001600160601b031681565b6040516001600160601b03909116815260200161042d565b6009546001600160a01b031661057b565b600a5461057b906001600160a01b031681565b610517610a13366004614757565b6123b4565b610517610a26366004614757565b61248d565b610517610a3936600461472d565b61250d565b610517610a4c366004614757565b612772565b61057b610a5f366004614702565b6127e3565b61057b7f000000000000000000000000000000000000000000000000000000000000000081565b5f5f5b601454811015610ae1575f60148281548110610aac57610aac614ae0565b5f918252602090912001546001600160a01b03169050610acc81306127f2565b610ad69084614b08565b925050600101610a8e565b5090565b606060038054610af490614b1b565b80601f0160208091040260200160405190810160405280929190818152602001828054610b2090614b1b565b8015610b6b5780601f10610b4257610100808354040283529160200191610b6b565b820191905f5260205f20905b815481529060010190602001808311610b4e57829003601f168201915b5050505050905090565b5f610b80825f612806565b92915050565b5f33610b93818585612834565b5060019392505050565b5f610b80826001612846565b6008546001600160a01b03163314801590610bd85750600c546001600160a01b0316336001600160a01b031614155b15610bf657604051637cf97e4d60e11b815260040160405180910390fd5b600f80546001600160e01b031916905560405133907fc40a085ccfa20f5fd518ade5c3a77a7ecbdfbb4c75efcdca6146a8e3c841d663905f90a2565b5f610c3b612874565b610c468484846128a7565b9050610c506128ca565b9392505050565b5f610c606128d6565b905090565b610c6d612874565b610c7d610c786129ff565b612a6d565b610c85612aa2565b610c8d6128ca565b565b600c546001600160a01b0316336001600160a01b031614158015610cc75750600a546001600160a01b0316336001600160a01b031614155b8015610cde57506008546001600160a01b03163314155b15610cfc5760405163d080fa3160e01b815260040160405180910390fd5b6001600160a01b0381165f818152601060205260408082208290555133917f23edd264f2dcc193d13a29cdab4ac169d60d9b4a0e74f0303c753036d8eb1c1391a350565b5f610b80612bf6565b335f818152600b602052604090205460ff16158015610d765750600a546001600160a01b03828116911614155b8015610d9057506008546001600160a01b03828116911614155b15610dae5760405163f7137c0f60e01b815260040160405180910390fd5b610db6612874565b60145482905f816001600160401b03811115610dd457610dd4614b53565b604051908082528060200260200182016040528015610dfd578160200160208202803683370190505b5090505f836001600160401b03811115610e1957610e19614b53565b604051908082528060200260200182016040528015610e42578160200160208202803683370190505b5090505f5b84811015610f3c575f888883818110610e6257610e62614ae0565b9050602002013590505f60148281548110610e7f57610e7f614ae0565b5f9182526020909120015485516001600160a01b039091169150859083908110610eab57610eab614ae0565b602002602001015115610ee157604051633d85a77d60e11b81526001600160a01b03821660048201526024015b60405180910390fd5b6001858381518110610ef557610ef5614ae0565b60200260200101901515908115158152505080848481518110610f1a57610f1a614ae0565b6001600160a01b03909216602092830291909101909101525050600101610e47565b505f5b838110156110f757828181518110610f5957610f59614ae0565b60200260200101516110ef575f60148281548110610f7957610f79614ae0565b5f9182526020808320909101546001600160a01b0316808352600d9091526040909120549091506001600160b81b031615610fd2576040516301554f3760e71b81526001600160a01b0382166004820152602401610ed8565b6001600160a01b0381165f90815260106020526040902054600160c01b90046001600160401b03161561102357604051634fc6b6fd60e01b81526001600160a01b0382166004820152602401610ed8565b61102d8130612cf6565b156110d7576001600160a01b0381165f908152600d6020526040812054600160c01b90046001600160401b03169003611084576040516325dce25160e21b81526001600160a01b0382166004820152602401610ed8565b6001600160a01b0381165f908152600d6020526040902054600160c01b90046001600160401b03164210156110d757604051634b74115160e01b81526001600160a01b0382166004820152602401610ed8565b6001600160a01b03165f908152600d60205260408120555b600101610f3f565b50805161110b9060149060208401906145fe565b50336001600160a01b03167f834ae37621cd31f2636b1cb6f1bded844d79ecf755af866b5d896da642d7b567826040516111459190614b67565b60405180910390a26111556128ca565b50505050505050565b335f818152600b602052604090205460ff1615801561118b5750600a546001600160a01b03828116911614155b80156111a557506008546001600160a01b03828116911614155b156111c35760405163f7137c0f60e01b815260040160405180910390fd5b6111cb612874565b81601e8111156111ee576040516340797bd760e11b815260040160405180910390fd5b5f5b81811015611279575f85858381811061120b5761120b614ae0565b90506020020160208101906112209190614757565b6001600160a01b0381165f908152600d60205260408120549192506001600160b81b0390911690036112705760405163320b1e2560e21b81526001600160a01b0382166004820152602401610ed8565b506001016111f0565b506112866013858561465d565b50336001600160a01b03167fb07686dd0abe7422b9801e8f38bafd24669a65591071f11120c2f6a7c175813e85856040516112c2929190614bb2565b60405180910390a26112d26128ca565b50505050565b600a5433906001600160a01b0316811480159061130357506008546001600160a01b03828116911614155b15611321576040516332a2673b60e21b815260040160405180910390fd5b6001600160a01b0382165f908152600d6020526040902054600160c01b90046001600160401b031615611367576040516324d9026760e11b815260040160405180910390fd5b6001600160a01b0382165f908152600d60205260409020546001600160b81b0316156113a65760405163624718b960e11b815260040160405180910390fd5b6001600160a01b0382165f908152600d6020526040902054600160b81b900460ff166113f057604051632215cda760e01b81526001600160a01b0383166004820152602401610ed8565b6001600160a01b0382165f90815260106020526040902054600160c01b90046001600160401b03161561144157604051634fc6b6fd60e01b81526001600160a01b0383166004820152602401610ed8565b600e5461144e9042614b08565b6001600160a01b0383165f818152600d6020526040902080546001600160401b0393909316600160c01b026001600160c01b03909316929092179091556114923390565b6001600160a01b03167f354f25f4208ab6528fb2d016019c0e2a66f51376cbb2cc8571064779735d348560405160405180910390a35050565b601481815481106114da575f80fd5b5f918252602090912001546001600160a01b0316905081565b6114fb612d62565b6012546001600160601b031681036115265760405163a741a04560e01b815260040160405180910390fd5b6706f05b59d3b2000081111561154f5760405163f4df6ae560e01b815260040160405180910390fd5b801580159061156e5750601254600160601b90046001600160a01b0316155b1561158c576040516333fe7c6560e21b815260040160405180910390fd5b611597610c786129ff565b601280546001600160601b0383166bffffffffffffffffffffffff199091168117909155604080519182525133917f01fe2943baee27f47add82886c2200f910c749c461c9b63c5fe83901a53bdb49919081900360200190a250565b5f6115fc612874565b5f6116056129ff565b601581905590506116208461161960025490565b835f612d8f565b915061162e33848685612dc6565b6116388285612e0c565b6116406128ca565b5092915050565b61164f612d62565b610c8d5f612e4d565b611660612d62565b600e5481036116825760405163a741a04560e01b815260040160405180910390fd5b601154600160c01b90046001600160401b0316156116b3576040516324d9026760e11b815260040160405180910390fd5b6116bc81612e66565b600e548111156116d2576116cf81612eae565b50565b600e546116e3906011908390612eef565b6040518181527fb3aa0ade2442acf51d06713c2d1a5a3ec0373cce969d42b53f4689f97bccf380906020015b60405180910390a150565b60095433906001600160a01b031681146117525760405163118cdaa760e01b81526001600160a01b0382166004820152602401610ed8565b6116cf81612e4d565b6001600160a01b0381165f90815260076020526040812054610b80565b6001600160a01b0381165f90815260106020526040812054600160c01b90046001600160401b0316908190036117c15760405163e5f408a560e01b815260040160405180910390fd5b804210156117e25760405163333bd2cb60e11b815260040160405180910390fd5b6117ea612874565b6001600160a01b0382165f908152601060205260409020546118169083906001600160c01b0316612f39565b61181e6128ca565b5050565b5f6060805f5f5f606061183361310e565b61183b61313b565b604080515f80825260208201909252600f60f81b9b939a50919850469750309650945092509050565b601154600160c01b90046001600160401b03165f8190036118985760405163e5f408a560e01b815260040160405180910390fd5b804210156118b95760405163333bd2cb60e11b815260040160405180910390fd5b6011546116cf906001600160c01b0316612eae565b5f6118d7612874565b5f6118e06129ff565b601581905590506118fc846118f460025490565b836001613168565b915061190a33848487612dc6565b6116388483612e0c565b606060048054610af490614b1b565b61192b612d62565b600c546001600160a01b039081169082160361195a5760405163a741a04560e01b815260040160405180910390fd5b600f54600160a01b90046001600160401b03161561198b576040516324d9026760e11b815260040160405180910390fd5b600c546001600160a01b03166119a4576116cf81613197565b600e546119b590600f9083906131f2565b6040516001600160a01b038216907f7633313af54753bce8a149927263b1a55eba857ba4ef1d13c6aee25d384d3c4b905f90a250565b600f54600160a01b90046001600160401b03165f819003611a1f5760405163e5f408a560e01b815260040160405180910390fd5b80421015611a405760405163333bd2cb60e11b815260040160405180910390fd5b600f546116cf906001600160a01b0316613197565b5f611a5e612874565b611a688383613241565b9050610b806128ca565b600c546001600160a01b0316336001600160a01b031614158015611aaa5750600a546001600160a01b0316336001600160a01b031614155b8015611ac157506008546001600160a01b03163314155b15611adf5760405163d080fa3160e01b815260040160405180910390fd5b6001600160a01b0381165f818152600d602052604080822080546001600160c01b031690555133917f8387c3346650400a72032f8bd1aa3f5f44038cf2bf32945e8eeb8a498decea7791a350565b604080515f815260208101909152606090826001600160401b03811115611b5657611b56614b53565b604051908082528060200260200182016040528015611b8957816020015b6060815260200190600190039081611b745790505b5091505f5b83811015611c0a57611be530868684818110611bac57611bac614ae0565b9050602002810190611bbe9190614c11565b85604051602001611bd193929190614c6a565b60405160208183030381529060405261324e565b838281518110611bf757611bf7614ae0565b6020908102919091010152600101611b8e565b505092915050565b611c1a612d62565b604051630c758a4b60e31b81526001600160a01b03831660048201528115156024820152600b604482015273__$5fdb2fd7279d0b8431a3d03f617f90aba9$__906363ac5258906064015f6040518083038186803b158015611c7a575f5ffd5b505af4158015611c8c573d5f5f3e3d5ffd5b505050505050565b5f610b80826001612806565b5f611ca9612874565b5f611cb26129ff565b9050611cc985611cc160025490565b836001612d8f565b9150611cda85820386831102612a6d565b611ce733858588866132b7565b611cef6128ca565b509392505050565b5f611d00612874565b5f611d096129ff565b9050611d1f85611d1860025490565b835f613168565b9150611d3082820383831102612a6d565b611ce733858585896132b7565b335f818152600b602052604090205460ff16158015611d6a5750600a546001600160a01b03828116911614155b8015611d8457506008546001600160a01b03828116911614155b15611da25760405163f7137c0f60e01b815260040160405180910390fd5b611daa612874565b5f5f5f5b84811015612175575f868683818110611dc957611dc9614ae0565b905060400201803603810190611ddf9190614caf565b90505f5f611def835f01516132cd565b915091505f611e0683856020015180821191030290565b90508015611fd35783516001600160a01b03165f908152600d6020526040902054600160b81b900460ff16611e5c578351604051632215cda760e01b81526001600160a01b039091166004820152602401610ed8565b5f84602001515f03611e6e57505f9050815b5f808215611ef8578651604051635d043b2960e11b815260048101859052306024820181905260448201526001600160a01b039091169063ba087652906064016020604051808303815f875af1158015611eca573d5f5f3e3d5ffd5b505050506040513d601f19601f82011682018060405250810190611eee9190614d06565b9150829050611f76565b8651604051632d182be560e21b815260048101869052306024820181905260448201528593506001600160a01b039091169063b460af94906064016020604051808303815f875af1158015611f4f573d5f5f3e3d5ffd5b505050506040513d601f19601f82011682018060405250810190611f739190614d06565b90505b865160408051848152602081018490526001600160a01b039092169133917f416d9fcbb15941508bf9f557a950fb085de673ae90db45a32efdc9b35f29b0f1910160405180910390a3611fc9828a614b08565b9850505050612168565b5f5f19856020015114611ff757611ff285602001518580821191030290565b611fff565b878703888811025b9050805f0361201257505050505061216d565b84516001600160a01b03165f908152600d60205260408120546001600160b81b03169081900361206357855160405163320b1e2560e21b81526001600160a01b039091166004820152602401610ed8565b8061206e8387614b08565b111561209b57855160405163034506ef60e21b81526001600160a01b039091166004820152602401610ed8565b8551604051636e553f6560e01b8152600481018490523060248201525f916001600160a01b031690636e553f65906044016020604051808303815f875af11580156120e8573d5f5f3e3d5ffd5b505050506040513d601f19601f8201168201806040525081019061210c9190614d06565b875160408051868152602081018490529293506001600160a01b039091169133917f73e8a9d66522fa5c6fcec2e89aad8e52f6f66eadeb7fc7c172cfcbacb5283851910160405180910390a3612162838b614b08565b99505050505b505050505b600101611dae565b50818114612196576040516309e36b8960e41b815260040160405180910390fd5b61219e6128ca565b5050505050565b5f5f6121af612bf6565b9050610c50815f612846565b5f610b80825f612846565b6008546001600160a01b031633148015906121f55750600c546001600160a01b0316336001600160a01b031614155b1561221357604051637cf97e4d60e11b815260040160405180910390fd5b5f601181905560405133917f921828337692c347c634c5d2aacbc7b756014674bd236f3cc2058d8e284a951b91a2565b5f61224d826132ec565b50909392505050565b8342111561227a5760405163313c898160e11b815260048101859052602401610ed8565b5f7f6e71edae12b1b97f4d1f60370fef10105fa2faae0126114a169c64845d6126c98888886122c58c6001600160a01b03165f90815260076020526040902080546001810190915590565b6040805160208101969096526001600160a01b0394851690860152929091166060840152608083015260a082015260c0810186905260e0016040516020818303038152906040528051906020012090505f61231f826133cb565b90505f61232e828787876133f7565b9050896001600160a01b0316816001600160a01b031614612375576040516325c0072360e11b81526001600160a01b0380831660048301528b166024820152604401610ed8565b6123808a8a8a612834565b50505050505050505050565b5f5f5f5f612399856132ec565b9250925092506123ab8383835f613423565b95945050505050565b6123bc612d62565b6012546001600160a01b03600160601b9091048116908216036123f25760405163a741a04560e01b815260040160405180910390fd5b6001600160a01b03811615801561241357506012546001600160601b031615155b15612431576040516333fe7c6560e21b815260040160405180910390fd5b61243c610c786129ff565b601280546001600160601b0316600160601b6001600160a01b038416908102919091179091556040517f2e979f80fe4d43055c584cf4a8467c55875ea36728fc37176c05acd784eb7a73905f90a250565b612495612d62565b600a546001600160a01b03908116908216036124c45760405163a741a04560e01b815260040160405180910390fd5b600a80546001600160a01b0319166001600160a01b0383169081179091556040517fbd0a63c12948fbc9194a5839019f99c9d71db924e5c70018265bc778b8f1a506905f90a250565b600a5433906001600160a01b0316811480159061253857506008546001600160a01b03828116911614155b15612556576040516332a2673b60e21b815260040160405180910390fd5b7f00000000000000000000000000000000000000000000000000000000000000006001600160a01b0316836001600160a01b03166338d52e0f6040518163ffffffff1660e01b8152600401602060405180830381865afa1580156125bc573d5f5f3e3d5ffd5b505050506040513d601f19601f820116820180604052508101906125e09190614d1d565b6001600160a01b03161461261257604051634854a41360e11b81526001600160a01b0384166004820152602401610ed8565b6001600160a01b0383165f90815260106020526040902054600160c01b90046001600160401b031615612658576040516324d9026760e11b815260040160405180910390fd5b6001600160a01b0383165f908152600d6020526040902054600160c01b90046001600160401b03161561269e576040516325f600a360e11b815260040160405180910390fd5b6001600160a01b0383165f908152600d60205260409020546001600160b81b03168083036126df5760405163a741a04560e01b815260040160405180910390fd5b808310156126fe576126f9846126f485613470565b612f39565b6112d2565b61272b61270a84613470565b600e546001600160a01b0387165f9081526010602052604090209190612eef565b6040518381526001600160a01b0385169033907f7bfc48861a5d71fc7afd7b9c92b4feeef1628ab1d5145dede52590c46dd155e9906020015b60405180910390a350505050565b61277a612d62565b600980546001600160a01b0383166001600160a01b031990911681179091556127ab6008546001600160a01b031690565b6001600160a01b03167f38d16b8cac22d99fc7c124b9cd0de2d3fa1faef420bfe791d8c362d765e2270060405160405180910390a350565b601381815481106114da575f80fd5b5f610c50836128018585612cf6565b6134a3565b5f5f5f6128116134d2565b915091506123ab858361282360025490565b61282d9190614b08565b8387613559565b612841838383600161359d565b505050565b5f5f5f6128516134d2565b915091506123ab858361286360025490565b61286d9190614b08565b8387613423565b60ff5f5c1615612897576040516329f745a760e01b815260040160405180910390fd5b60015f805c60ff19168217905d50565b5f336128b4858285613661565b6128bf8585856136d6565b506001949350505050565b5f60ff19815c16815d50565b5f306001600160a01b037f00000000000000000000000000000000000000000000000000000000000000001614801561292e57507f000000000000000000000000000000000000000000000000000000000000000046145b1561295857507f000000000000000000000000000000000000000000000000000000000000000090565b610c60604080517f8b73c3c69bb8fe3d512ecc4cf759cc79239f7b179b0ffacaa9a75d522b39400f60208201527f0000000000000000000000000000000000000000000000000000000000000000918101919091527f000000000000000000000000000000000000000000000000000000000000000060608201524660808201523060a08201525f9060c00160405160208183030381529060405280519060200120905090565b5f5f612a096134d2565b925090508015612a3057601254612a3090600160601b90046001600160a01b031682613733565b60408051838152602081018390527ff66f28b40975dbb933913542c7e6a0f50a1d0f20aa74ea6e0efe65ab616323ec910160405180910390a15090565b60158190556040518181527f15c027cc4fd826d986cad358803439f7326d3aa4ed969ff90dbee4bc150f68e99060200161170f565b5f7f00000000000000000000000000000000000000000000000000000000000000006001600160a01b031663d166962b6040518163ffffffff1660e01b81526004015f60405180830381865afa158015612afe573d5f5f3e3d5ffd5b505050506040513d5f823e601f3d908101601f19168201604052612b259190810190614d38565b6040805160048152602481019091526020810180516001600160e01b0316637abd325760e11b1790529091505f5b8251811015612841575f838281518110612b6f57612b6f614ae0565b60200260200101516001600160a01b031683604051612b8e9190614dea565b5f60405180830381855af49150503d805f8114612bc6576040519150601f19603f3d011682016040523d82523d5f602084013e612bcb565b606091505b5050905080612bed57604051631bc7e5c360e21b815260040160405180910390fd5b50600101612b53565b5f5f5b601354811015610ae1575f60138281548110612c1757612c17614ae0565b5f9182526020808320909101546001600160a01b0316808352600d90915260408220549092506001600160b81b031690819003612c55575050612cee565b5f612c5f836132cd565b5060405163402d267d60e01b81523060048201529091505f906001600160a01b0385169063402d267d90602401602060405180830381865afa158015612ca7573d5f5f3e3d5ffd5b505050506040513d601f19601f82011682018060405250810190612ccb9190614d06565b9050612cdd8183850384861102613767565b612ce79087614b08565b9550505050505b600101612bf9565b6040516370a0823160e01b81526001600160a01b0382811660048301525f91908416906370a08231906024015b602060405180830381865afa158015612d3e573d5f5f3e3d5ffd5b505050506040513d601f19601f82011682018060405250810190610c509190614d06565b6008546001600160a01b03163314610c8d5760405163118cdaa760e01b8152336004820152602401610ed8565b5f612d9c85858585613423565b9050805f03612dbe57604051639811e0c760e01b815260040160405180910390fd5b949350505050565b805f03612de657604051636536c9a760e01b815260040160405180910390fd5b612df28484848461377c565b612dfb82613800565b6112d282601554610c789190614b08565b5f612e1683610b75565b9050818110612e2457505050565b808203600a81818110611c8c57604051633c02e26d60e01b8152600401610ed891815260200190565b600980546001600160a01b03191690556116cf81613939565b62127500811115612e8a576040516346fedb5760e01b815260040160405180910390fd5b620151808110156116cf57604051631a1593df60e11b815260040160405180910390fd5b600e81905560405181815233907fd28e9b90ee9b37c5936ff84392d71f29ff18117d7e76bcee60615262a90a3f759060200160405180910390a2505f601155565b82546001600160c01b0319166001600160b81b038316178355612f128142614b08565b83546001600160401b0391909116600160c01b026001600160c01b03909116179092555050565b6001600160a01b0382165f908152600d60205260408120906001600160b81b0383161561305a578154600160b81b900460ff1661304957601480546001810182555f8290527fce6d7b5282bd9a3661ae061feed1dbda4e52ab073b1f9285be6e155d9c38d4ec0180546001600160a01b0319166001600160a01b03871617905554601e1015612fdb576040516340797bd760e11b815260040160405180910390fd5b815460ff60b81b1916600160b81b178255613006612ff985306127f2565b601554610c789190614b08565b336001600160a01b03167f834ae37621cd31f2636b1cb6f1bded844d79ecf755af866b5d896da642d7b56760146040516130409190614df5565b60405180910390a25b5080546001600160c01b031681555f195b81546001600160b81b0319166001600160b81b0384161782556130a984827f00000000000000000000000000000000000000000000000000000000000000006001600160a01b0316919061398a565b604080516001600160b81b038516815290516001600160a01b0386169133917f10dbbfa98a21bc7a80d86cb89391600c590e0e2ce25698013741bcad429565699181900360200190a35050506001600160a01b03165f90815260106020526040812055565b6060610c607f00000000000000000000000000000000000000000000000000000000000000006005613a47565b6060610c607f00000000000000000000000000000000000000000000000000000000000000006006613a47565b5f61317585858585613559565b9050805f03612dbe57604051630cb65c7760e21b815260040160405180910390fd5b600c80546001600160a01b0319166001600160a01b03831690811790915560405133907fcb11cc8aade2f5a556749d1b2380d108a16fac3431e6a5d5ce12ef9de0bd76e3905f90a350600f80546001600160e01b0319169055565b82546001600160a01b0319166001600160a01b0383161783556132158142614b08565b83546001600160401b0391909116600160a01b0267ffffffffffffffff60a01b19909116179092555050565b5f33610b938185856136d6565b60605f5f846001600160a01b03168460405161326a9190614dea565b5f60405180830381855af49150503d805f81146132a2576040519150601f19603f3d011682016040523d82523d5f602084013e6132a7565b606091505b50915091506123ab858383613af0565b6132c082613b4c565b61219e8585858585613cb0565b5f5f6132d98330612cf6565b90506132e583826134a3565b9150915091565b5f5f5f5f6132f86134d2565b925090508061330660025490565b6133109190614b08565b925061333b613333866001600160a01b03165f9081526020819052604090205490565b84845f613559565b6040516323b9c4c560e11b8152600481018290526014602482015290945073__$5fdb2fd7279d0b8431a3d03f617f90aba9$__90634773898a90604401602060405180830381865af4158015613393573d5f5f3e3d5ffd5b505050506040513d601f19601f820116820180604052508101906133b79190614d06565b6133c19085614bfe565b9350509193909250565b5f610b806133d76128d6565b8360405161190160f01b8152600281019290925260228201526042902090565b5f5f5f5f61340788888888613d70565b9250925092506134178282613e38565b50909695505050505050565b5f6123ab6134527f0000000000000000000000000000000000000000000000000000000000000000600a614f1b565b61345c9086614b08565b613467856001614b08565b87919085613ef0565b5f6001600160b81b03821115610ae1576040516306dfcc6560e41b815260b8600482015260248101839052604401610ed8565b60405163266d6a8360e11b8152600481018290525f906001600160a01b03841690634cdad50690602401612d23565b5f5f6134dc610a8b565b90505f6134ef8260155480821191030290565b9050801580159061350a57506012546001600160601b031615155b15613554576012545f906135319083906001600160601b0316670de0b6b3a7640000613f32565b90506135508161354060025490565b61354a8487614bfe565b5f613423565b9350505b509091565b5f6123ab613568846001614b08565b6135937f0000000000000000000000000000000000000000000000000000000000000000600a614f1b565b6134679087614b08565b6001600160a01b0384166135c65760405163e602df0560e01b81525f6004820152602401610ed8565b6001600160a01b0383166135ef57604051634a1406b160e11b81525f6004820152602401610ed8565b6001600160a01b038085165f90815260016020908152604080832093871683529290522082905580156112d257826001600160a01b0316846001600160a01b03167f8c5be1e5ebec7d5bd14f71427d1e84f3dd0314c0f7b2291e5b200ac8c7c3b9258460405161276491815260200190565b6001600160a01b038381165f908152600160209081526040808320938616835292905220545f1981146112d257818110156136c857604051637dc7a0d960e11b81526001600160a01b03841660048201526024810182905260448101839052606401610ed8565b6112d284848484035f61359d565b6001600160a01b0383166136ff57604051634b637e8f60e11b81525f6004820152602401610ed8565b6001600160a01b0382166137285760405163ec442f0560e01b81525f6004820152602401610ed8565b612841838383613fef565b6001600160a01b03821661375c5760405163ec442f0560e01b81525f6004820152602401610ed8565b61181e5f8383613fef565b5f8183106137755781610c50565b5090919050565b6137a87f0000000000000000000000000000000000000000000000000000000000000000853085614019565b6137b28382613733565b826001600160a01b0316846001600160a01b03167fdcbc1c05240f31ff3ad067ef1ee35ce4997762752e3a095284754544f4c709d78484604051612764929190918252602082015260400190565b5f5b601354811015613919575f6013828154811061382057613820614ae0565b5f9182526020808320909101546001600160a01b0316808352600d90915260408220549092506001600160b81b03169081900361385e575050613911565b5f613868836132cd565b509050808203818311028581118682180280821891146138fd57604051636e553f6560e01b8152600481018290523060248201526001600160a01b03851690636e553f65906044016020604051808303815f875af19250505080156138ea575060408051601f3d908101601f191682019092526138e791810190614d06565b60015b156138fd57506138fa8187614bfe565b95505b855f0361390c57505050505050565b505050505b600101613802565b5080156116cf5760405163ded0652d60e01b815260040160405180910390fd5b600880546001600160a01b038381166001600160a01b0319831681179093556040519116919082907f8be0079c531659141344cd1fd0a4f28419497f9722a3daafe3b4186f6b6457e0905f90a35050565b604080516001600160a01b038416602482015260448082018490528251808303909101815260649091019091526020810180516001600160e01b031663095ea7b360e01b1790526139db8482614052565b6112d2576040516001600160a01b0384811660248301525f6044830152613a3d91869182169063095ea7b3906064015b604051602081830303815290604052915060e01b6020820180516001600160e01b0383818316178352505050506140ef565b6112d284826140ef565b606060ff8314613a6157613a5a83614150565b9050610b80565b818054613a6d90614b1b565b80601f0160208091040260200160405190810160405280929190818152602001828054613a9990614b1b565b8015613ae45780601f10613abb57610100808354040283529160200191613ae4565b820191905f5260205f20905b815481529060010190602001808311613ac757829003601f168201915b50505050509050610b80565b606082613b0557613b008261418d565b610c50565b8151158015613b1c57506001600160a01b0384163b155b15613b4557604051639996b31560e01b81526001600160a01b0385166004820152602401610ed8565b5080610c50565b5f5b601454811015613c90575f60148281548110613b6c57613b6c614ae0565b5f91825260208220015460405163ce96cb7760e01b81523060048201526001600160a01b039091169250613bef90839063ce96cb7790602401602060405180830381865afa158015613bc0573d5f5f3e3d5ffd5b505050506040513d601f19601f82011682018060405250810190613be49190614d06565b858111818718021890565b90508015613c7957604051632d182be560e21b815260048101829052306024820181905260448201526001600160a01b0383169063b460af94906064016020604051808303815f875af1925050508015613c66575060408051601f3d908101601f19168201909252613c6391810190614d06565b60015b15613c795750613c768185614bfe565b93505b835f03613c865750505050565b5050600101613b4e565b5080156116cf57604051634323a55560e01b815260040160405180910390fd5b826001600160a01b0316856001600160a01b031614613cd457613cd4838683613661565b613cde83826141b6565b613d097f000000000000000000000000000000000000000000000000000000000000000085846141ea565b826001600160a01b0316846001600160a01b0316866001600160a01b03167ffbde797d201c681b91056529119e0b02407c7bb96a4a2c75c01fc9667232c8db8585604051613d61929190918252602082015260400190565b60405180910390a45050505050565b5f80807f7fffffffffffffffffffffffffffffff5d576e7357a4501ddfe92f46681b20a0841115613da957505f91506003905082613e2e565b604080515f808252602082018084528a905260ff891692820192909252606081018790526080810186905260019060a0016020604051602081039080840390855afa158015613dfa573d5f5f3e3d5ffd5b5050604051601f1901519150506001600160a01b038116613e2557505f925060019150829050613e2e565b92505f91508190505b9450945094915050565b5f826003811115613e4b57613e4b614f29565b03613e54575050565b6001826003811115613e6857613e68614f29565b03613e865760405163f645eedf60e01b815260040160405180910390fd5b6002826003811115613e9a57613e9a614f29565b03613ebb5760405163fce698f760e01b815260048101829052602401610ed8565b6003826003811115613ecf57613ecf614f29565b0361181e576040516335e2f38360e21b815260048101829052602401610ed8565b5f613f1d613efd8361421b565b8015613f1857505f8480613f1357613f13614f3d565b868809115b151590565b613f28868686613f32565b6123ab9190614b08565b5f838302815f1985870982811083820303915050805f03613f6657838281613f5c57613f5c614f3d565b0492505050610c50565b808411613f8457613f848415613f7d576011614247565b6012614247565b5f848688095f868103871696879004966002600389028118808a02820302808a02820302808a02820302808a02820302808a02820302808a02909103029181900381900460010186841190950394909402919094039290920491909117919091029150509392505050565b613ff7612aa2565b614002838383614258565b805f0361400e57505050565b61284183838361437e565b6040516001600160a01b0384811660248301528381166044830152606482018390526112d29186918216906323b872dd90608401613a0b565b5f5f5f846001600160a01b03168460405161406d9190614dea565b5f604051808303815f865af19150503d805f81146140a6576040519150601f19603f3d011682016040523d82523d5f602084013e6140ab565b606091505b50915091508180156140d55750805115806140d55750808060200190518101906140d59190614f51565b80156123ab5750505050506001600160a01b03163b151590565b5f6141036001600160a01b0384168361452a565b905080515f141580156141275750808060200190518101906141259190614f51565b155b1561284157604051635274afe760e01b81526001600160a01b0384166004820152602401610ed8565b60605f61415c83614537565b6040805160208082528183019092529192505f91906020820181803683375050509182525060208101929092525090565b80511561419d5780518082602001fd5b60405163d6bda27560e01b815260040160405180910390fd5b6001600160a01b0382166141df57604051634b637e8f60e11b81525f6004820152602401610ed8565b61181e825f83613fef565b6040516001600160a01b0383811660248301526044820183905261284191859182169063a9059cbb90606401613a0b565b5f600282600381111561423057614230614f29565b61423a9190614f6c565b60ff166001149050919050565b634e487b715f52806020526024601cfd5b6001600160a01b038316614282578060025f8282546142779190614b08565b909155506142f29050565b6001600160a01b0383165f90815260208190526040902054818110156142d45760405163391434e360e21b81526001600160a01b03851660048201526024810182905260448101839052606401610ed8565b6001600160a01b0384165f9081526020819052604090209082900390555b6001600160a01b03821661430e5760028054829003905561432c565b6001600160a01b0382165f9081526020819052604090208054820190555b816001600160a01b0316836001600160a01b03167fddf252ad1be2c89b69c2b068fc378daa952ba7f163c4a11628f55a4df523b3ef8360405161437191815260200190565b60405180910390a3505050565b5f7f00000000000000000000000000000000000000000000000000000000000000006001600160a01b0316637a2bbb686040518163ffffffff1660e01b81526004015f60405180830381865afa1580156143da573d5f5f3e3d5ffd5b505050506040513d5f823e601f3d908101601f191682016040526144019190810190614d38565b90505f61440d60025490565b90505f6001600160a01b0386161561443c576001600160a01b0386165f9081526020819052604090205461443e565b5f5b90505f6001600160a01b0386161561446d576001600160a01b0386165f9081526020819052604090205461446f565b5f5b90505f5b84518110156145205784818151811061448e5761448e614ae0565b602090810291909101015160405163bbdc013b60e01b81526001600160a01b038a81166004830152602482018690528981166044830152606482018590526084820187905260a482018990529091169063bbdc013b9060c4015f604051808303815f87803b1580156144fe575f5ffd5b505af1158015614510573d5f5f3e3d5ffd5b5050600190920191506144739050565b5050505050505050565b6060610c5083835f61455e565b5f60ff8216601f811115610b8057604051632cd44ac360e21b815260040160405180910390fd5b60608147101561458a5760405163cf47918160e01b815247600482015260248101839052604401610ed8565b5f5f856001600160a01b031684866040516145a59190614dea565b5f6040518083038185875af1925050503d805f81146145df576040519150601f19603f3d011682016040523d82523d5f602084013e6145e4565b606091505b50915091506145f4868383613af0565b9695505050505050565b828054828255905f5260205f20908101928215614651579160200282015b8281111561465157825182546001600160a01b0319166001600160a01b0390911617825560209092019160019091019061461c565b50610ae19291506146ae565b828054828255905f5260205f20908101928215614651579160200282015b828111156146515781546001600160a01b0319166001600160a01b0384351617825560209092019160019091019061467b565b5b80821115610ae1575f81556001016146af565b5f81518084528060208401602086015e5f602082860101526020601f19601f83011685010191505092915050565b602081525f610c5060208301846146c2565b5f60208284031215614712575f5ffd5b5035919050565b6001600160a01b03811681146116cf575f5ffd5b5f5f6040838503121561473e575f5ffd5b823561474981614719565b946020939093013593505050565b5f60208284031215614767575f5ffd5b8135610c5081614719565b5f5f5f60608486031215614784575f5ffd5b833561478f81614719565b9250602084013561479f81614719565b929592945050506040919091013590565b5f5f83601f8401126147c0575f5ffd5b5081356001600160401b038111156147d6575f5ffd5b6020830191508360208260051b85010111156147f0575f5ffd5b9250929050565b5f5f60208385031215614808575f5ffd5b82356001600160401b0381111561481d575f5ffd5b614829858286016147b0565b90969095509350505050565b5f5f60408385031215614846575f5ffd5b82359150602083013561485881614719565b809150509250929050565b60ff60f81b8816815260e060208201525f61488160e08301896146c2565b828103604084015261489381896146c2565b606084018890526001600160a01b038716608085015260a0840186905283810360c0850152845180825260208087019350909101905f5b818110156148e85783518352602093840193909201916001016148ca565b50909b9a5050505050505050505050565b5f602082016020835280845180835260408501915060408160051b8601019250602086015f5b8281101561495057603f1987860301845261493b8583516146c2565b9450602093840193919091019060010161491f565b50929695505050505050565b80151581146116cf575f5ffd5b5f5f6040838503121561497a575f5ffd5b823561498581614719565b915060208301356148588161495c565b5f5f5f606084860312156149a7575f5ffd5b8335925060208401356149b981614719565b915060408401356149c981614719565b809150509250925092565b5f5f602083850312156149e5575f5ffd5b82356001600160401b038111156149fa575f5ffd5b8301601f81018513614a0a575f5ffd5b80356001600160401b03811115614a1f575f5ffd5b8560208260061b8401011115614a33575f5ffd5b6020919091019590945092505050565b5f5f5f5f5f5f5f60e0888a031215614a59575f5ffd5b8735614a6481614719565b96506020880135614a7481614719565b95506040880135945060608801359350608088013560ff81168114614a97575f5ffd5b9699959850939692959460a0840135945060c09093013592915050565b5f5f60408385031215614ac5575f5ffd5b8235614ad081614719565b9150602083013561485881614719565b634e487b7160e01b5f52603260045260245ffd5b634e487b7160e01b5f52601160045260245ffd5b80820180821115610b8057610b80614af4565b600181811c90821680614b2f57607f821691505b602082108103614b4d57634e487b7160e01b5f52602260045260245ffd5b50919050565b634e487b7160e01b5f52604160045260245ffd5b602080825282518282018190525f918401906040840190835b81811015614ba75783516001600160a01b0316835260209384019390920191600101614b80565b509095945050505050565b602080825281018290525f8360408301825b85811015614bf4578235614bd781614719565b6001600160a01b0316825260209283019290910190600101614bc4565b5095945050505050565b81810381811115610b8057610b80614af4565b5f5f8335601e19843603018112614c26575f5ffd5b8301803591506001600160401b03821115614c3f575f5ffd5b6020019150368190038213156147f0575f5ffd5b5f81518060208401855e5f93019283525090919050565b828482375f8382015f81526145f48185614c53565b604051601f8201601f191681016001600160401b0381118282101715614ca757614ca7614b53565b604052919050565b5f6040828403128015614cc0575f5ffd5b50604080519081016001600160401b0381118282101715614ce357614ce3614b53565b6040528235614cf181614719565b81526020928301359281019290925250919050565b5f60208284031215614d16575f5ffd5b5051919050565b5f60208284031215614d2d575f5ffd5b8151610c5081614719565b5f60208284031215614d48575f5ffd5b81516001600160401b03811115614d5d575f5ffd5b8201601f81018413614d6d575f5ffd5b80516001600160401b03811115614d8657614d86614b53565b8060051b614d9660208201614c7f565b91825260208184018101929081019087841115614db1575f5ffd5b6020850194505b83851015614ddf5784519250614dcd83614719565b82825260209485019490910190614db8565b979650505050505050565b5f610c508284614c53565b602080825282548282018190525f848152918220906040840190835b81811015614ba75783546001600160a01b0316835260019384019360209093019201614e11565b6001815b6001841115614e7357808504811115614e5757614e57614af4565b6001841615614e6557908102905b60019390931c928002614e3c565b935093915050565b5f82614e8957506001610b80565b81614e9557505f610b80565b8160018114614eab5760028114614eb557614ed1565b6001915050610b80565b60ff841115614ec657614ec6614af4565b50506001821b610b80565b5060208310610133831016604e8410600b8410161715614ef4575081810a610b80565b614f005f198484614e38565b805f1904821115614f1357614f13614af4565b029392505050565b5f610c5060ff841683614e7b565b634e487b7160e01b5f52602160045260245ffd5b634e487b7160e01b5f52601260045260245ffd5b5f60208284031215614f61575f5ffd5b8151610c508161495c565b5f60ff831680614f8a57634e487b7160e01b5f52601260045260245ffd5b8060ff8416069150509291505056fea2646970667358221220feaec52f155e5dc6abc2269f7221461a5390abf1a36ce3c04593d73be071b93464736f6c634300081c0033a26469706673582212201bf4784edf0310d1ab1c32899f1938ae66ff381284e3f68704e3742831a8ee3564736f6c634300081c00336080604052348015600e575f5ffd5b5060156019565b60c9565b7ff0c57e16840df040f15088dc2f81fe391c3923bec73e23a9662efc9c229c6a00805468010000000000000000900460ff161560685760405163f92ee8a960e01b815260040160405180910390fd5b80546001600160401b039081161460c65780546001600160401b0319166001600160401b0390811782556040519081527fc7f505b2f371ae2175ee4913f4499e1f2633a7b5936321eed1cdaeb6115181d29060200160405180910390a15b50565b6113bf806100d65f395ff3fe608060405234801561000f575f5ffd5b506004361061011c575f3560e01c8063984618eb116100a9578063e2b08bdc1161006e578063e2b08bdc1461023d578063e30c397814610250578063f2fde38b14610258578063fbfa77cf1461026b578063fd5813ce1461027d575f5ffd5b8063984618eb146101f4578063cc2a321d14610207578063cc4000e21461020f578063d166962b14610222578063d9fdd7dc1461022a575f5ffd5b806379ba5097116100ef57806379ba5097146101635780637a2bbb681461016b57806388a40ff1146101895780638da5cb5b1461019c57806394efa433146101bc575f5ffd5b806340d486a11461012057806351c8a13a1461013557806354d5490314610148578063715018a61461015b575b5f5ffd5b61013361012e3660046111be565b610290565b005b6101336101433660046111f5565b6104da565b6101336101563660046111be565b610568565b610133610707565b61013361071a565b610173610767565b6040516101809190611225565b60405180910390f35b6101336101973660046111be565b610778565b6101a4610877565b6040516001600160a01b039091168152602001610180565b6101e66101ca3660046111be565b600560209081525f928352604080842090915290825290205481565b604051908152602001610180565b610173610202366004611270565b6108ab565b6101736108d4565b61013361021d366004611270565b6108e0565b610173610976565b61017361023836600461128b565b610994565b61013361024b3660046111be565b6109d8565b6101a4610b28565b610133610266366004611270565b610b50565b5f546101a4906001600160a01b031681565b61013361028b3660046111be565b610bd5565b5f5f5f9054906101000a90046001600160a01b03166001600160a01b031663452a93206040518163ffffffff1660e01b8152600401602060405180830381865afa1580156102e0573d5f5f3e3d5ffd5b505050506040513d601f19601f8201168201806040525081019061030491906112fc565b905061030e610877565b6001600160a01b0316336001600160a01b0316141580156103385750336001600160a01b03821614155b1561035657604051637cf97e4d60e11b815260040160405180910390fd5b6001600160a01b03821661037d57604051639fabe1c160e01b815260040160405180910390fd5b6001600160a01b0383165f90815260066020526040902061039e9083610cf5565b156103bc57604051631889accd60e31b815260040160405180910390fd5b6001600160a01b038084165f90815260056020908152604080832093861683529290522054156103ff57604051634a05adc960e01b815260040160405180910390fd5b5f5f5f9054906101000a90046001600160a01b03166001600160a01b031663d33219b46040518163ffffffff1660e01b8152600401602060405180830381865afa15801561044f573d5f5f3e3d5ffd5b505050506040513d601f19601f820116820180604052508101906104739190611317565b6001600160a01b038581165f8181526005602090815260408083209489168084529482529182902042860190559051928352929350917f016abb6372623f4d6f981cf15732955baf8d8c942a1aaac4dc413af5e7c8b02a910160405180910390a250505050565b6104e2610d16565b806105005760405163b71692ad60e01b815260040160405180910390fd5b61050b600383610d48565b61052857604051634f23afb160e11b815260040160405180910390fd5b6040516001600160a01b03831681527f0a02602c53a84552ebbe6baedad18499f93ffca3b6e2bf29a4d9298023cbfce29060200160405180910390a15050565b5f5f5f9054906101000a90046001600160a01b03166001600160a01b031663452a93206040518163ffffffff1660e01b8152600401602060405180830381865afa1580156105b8573d5f5f3e3d5ffd5b505050506040513d601f19601f820116820180604052508101906105dc91906112fc565b90506105e6610877565b6001600160a01b0316336001600160a01b0316141580156106105750336001600160a01b03821614155b1561062e57604051637cf97e4d60e11b815260040160405180910390fd5b6001600160a01b0383165f90815260066020526040902061064f9083610cf5565b61066c57604051638f5e26bd60e01b815260040160405180910390fd5b6001600160a01b0383165f90815260066020526040902061068d9083610d48565b506001600160a01b0383165f9081526006602052604090206106ae90610d5c565b5f036106c1576106bf600184610d48565b505b6040516001600160a01b0383811682528416907f65741389e4ae318b012d3e133eabf67127710156132a8713ffb0260a2db2ac1c906020015b60405180910390a2505050565b61070f610d16565b6107185f610d65565b565b3380610724610b28565b6001600160a01b03161461075b5760405163118cdaa760e01b81526001600160a01b03821660048201526024015b60405180910390fd5b61076481610d65565b50565b60606107736003610da1565b905090565b6001600160a01b038083165f9081526005602090815260408083209385168352929052205480158015906107ab57504281105b6107c857604051633bc8bbf360e21b815260040160405180910390fd5b6001600160a01b0383165f9081526006602052604090206107e890610d5c565b5f036107fb576107f9600184610dad565b505b6001600160a01b0383165f90815260066020526040902061081c9083610dad565b506001600160a01b038381165f81815260056020908152604080832094871680845294825280832092909255905192835290917fd14928afa5bf68ec45f87228c95b2b5c87c4d4b2f70ecb2aad7752b6f31cb03191016106fa565b5f807f9016d09d72d40fdae2fd8ceac6b6234c7706214fd39c1cd1e609a0528c1993005b546001600160a01b031692915050565b6001600160a01b0381165f9081526006602052604090206060906108ce90610da1565b92915050565b60606107736001610da1565b6108e8610d16565b6001600160a01b03811661090f57604051639fabe1c160e01b815260040160405180910390fd5b61091a600382610dad565b61093757604051630da5569b60e41b815260040160405180910390fd5b6040516001600160a01b03821681527f6315777522956b348b60210f67b044cae37438bd6a5587bd053c30075123c0429060200160405180910390a150565b60605f6109836001610da1565b905061098e81610dc1565b91505090565b60606109d18383808060200260200160405190810160405280939291908181526020018383602002808284375f92019190915250610dc192505050565b9392505050565b7ff0c57e16840df040f15088dc2f81fe391c3923bec73e23a9662efc9c229c6a008054600160401b810460ff16159067ffffffffffffffff165f81158015610a1d5750825b90505f8267ffffffffffffffff166001148015610a395750303b155b905081158015610a47575080155b15610a655760405163f92ee8a960e01b815260040160405180910390fd5b845467ffffffffffffffff191660011785558315610a8f57845460ff60401b1916600160401b1785555b610a9887610f27565b6001600160a01b038616610abf57604051639fabe1c160e01b815260040160405180910390fd5b5f80546001600160a01b0319166001600160a01b0388161790558315610b1f57845460ff60401b19168555604051600181527fc7f505b2f371ae2175ee4913f4499e1f2633a7b5936321eed1cdaeb6115181d29060200160405180910390a15b50505050505050565b5f807f237e158222e3e6968b72b9db0d8043aacf074ad9f650f0d1606b4d82ee432c0061089b565b610b58610d16565b7f237e158222e3e6968b72b9db0d8043aacf074ad9f650f0d1606b4d82ee432c0080546001600160a01b0319166001600160a01b0383169081178255610b9c610877565b6001600160a01b03167f38d16b8cac22d99fc7c124b9cd0de2d3fa1faef420bfe791d8c362d765e2270060405160405180910390a35050565b5f5f5f9054906101000a90046001600160a01b03166001600160a01b031663452a93206040518163ffffffff1660e01b8152600401602060405180830381865afa158015610c25573d5f5f3e3d5ffd5b505050506040513d601f19601f82011682018060405250810190610c4991906112fc565b9050610c53610877565b6001600160a01b0316336001600160a01b031614158015610c7d5750336001600160a01b03821614155b15610c9b57604051637cf97e4d60e11b815260040160405180910390fd5b6001600160a01b038381165f81815260056020908152604080832094871680845294825280832092909255905192835290917f751d8044554b3c2790f2e7764f467ef9a3cc1e857da662aff85211eed8c2745b91016106fa565b6001600160a01b0381165f90815260018301602052604081205415156109d1565b33610d1f610877565b6001600160a01b0316146107185760405163118cdaa760e01b8152336004820152602401610752565b5f6109d1836001600160a01b038416610f38565b5f6108ce825490565b7f237e158222e3e6968b72b9db0d8043aacf074ad9f650f0d1606b4d82ee432c0080546001600160a01b0319168155610d9d8261101b565b5050565b60605f6109d18361108b565b5f6109d1836001600160a01b0384166110e4565b60605f805b8351811015610e1f57610e1360065f868481518110610de757610de761132e565b60200260200101516001600160a01b03166001600160a01b031681526020019081526020015f20610d5c565b90910190600101610dc6565b508067ffffffffffffffff811115610e3957610e39611342565b604051908082528060200260200182016040528015610e62578160200160208202803683370190505b5091505f805b8451811015610f1f575f610eb660065f888581518110610e8a57610e8a61132e565b60200260200101516001600160a01b03166001600160a01b031681526020019081526020015f20610da1565b90505f5b8151811015610f1557818181518110610ed557610ed561132e565b6020026020010151868580600101965081518110610ef557610ef561132e565b6001600160a01b0390921660209283029190910190910152600101610eba565b5050600101610e68565b505050919050565b610f2f611130565b61076481611179565b5f8181526001830160205260408120548015611012575f610f5a600183611356565b85549091505f90610f6d90600190611356565b9050808214610fcc575f865f018281548110610f8b57610f8b61132e565b905f5260205f200154905080875f018481548110610fab57610fab61132e565b5f918252602080832090910192909255918252600188019052604090208390555b8554869080610fdd57610fdd611375565b600190038181905f5260205f20015f90559055856001015f8681526020019081526020015f205f9055600193505050506108ce565b5f9150506108ce565b7f9016d09d72d40fdae2fd8ceac6b6234c7706214fd39c1cd1e609a0528c19930080546001600160a01b031981166001600160a01b03848116918217845560405192169182907f8be0079c531659141344cd1fd0a4f28419497f9722a3daafe3b4186f6b6457e0905f90a3505050565b6060815f018054806020026020016040519081016040528092919081815260200182805480156110d857602002820191905f5260205f20905b8154815260200190600101908083116110c4575b50505050509050919050565b5f81815260018301602052604081205461112957508154600181810184555f8481526020808220909301849055845484825282860190935260409020919091556108ce565b505f6108ce565b7ff0c57e16840df040f15088dc2f81fe391c3923bec73e23a9662efc9c229c6a0054600160401b900460ff1661071857604051631afcd79f60e31b815260040160405180910390fd5b611181611130565b6001600160a01b03811661075b57604051631e4fbdf760e01b81525f6004820152602401610752565b6001600160a01b0381168114610764575f5ffd5b5f5f604083850312156111cf575f5ffd5b82356111da816111aa565b915060208301356111ea816111aa565b809150509250929050565b5f5f60408385031215611206575f5ffd5b8235611211816111aa565b9150602083013580151581146111ea575f5ffd5b602080825282518282018190525f918401906040840190835b818110156112655783516001600160a01b031683526020938401939092019160010161123e565b509095945050505050565b5f60208284031215611280575f5ffd5b81356109d1816111aa565b5f5f6020838503121561129c575f5ffd5b823567ffffffffffffffff8111156112b2575f5ffd5b8301601f810185136112c2575f5ffd5b803567ffffffffffffffff8111156112d8575f5ffd5b8560208260051b84010111156112ec575f5ffd5b6020919091019590945092505050565b5f6020828403121561130c575f5ffd5b81516109d1816111aa565b5f60208284031215611327575f5ffd5b5051919050565b634e487b7160e01b5f52603260045260245ffd5b634e487b7160e01b5f52604160045260245ffd5b818103818111156108ce57634e487b7160e01b5f52601160045260245ffd5b634e487b7160e01b5f52603160045260245ffdfea2646970667358221220d7d4763baaf5559ff6f5156bda23e8e8576f82e2c0530c58694f46eaa059b90764736f6c634300081c0033",
  "language": "Solidity",
  "compiler": "0.8.29+commit.7893614a"
}