{
  "address": "0x9fF91EF98baf808e06F01984BC7d2a0ec9B6a39A",
  "abi": [
    {
      "inputs": [
        {
          "internalType": "address",
          "name": "_owner",
          "type": "address"
        },
        {
          "internalType": "address",
          "name": "_notifier",
          "type": "address"
        },
        {
          "internalType": "address",
          "name": "_shareToken",
          "type": "address"
        }
      ],
      "name": "createGaugeLike",
      "outputs": [
        {
          "internalType": "address",
          "name": "gaugeLike",
          "type": "address"
        }
      ],
      "stateMutability": "nonpayable",
      "type": "function"
    },
    {
      "inputs": [
        {
          "internalType": "address",
          "name": "",
          "type": "address"
        }
      ],
      "name": "createdInFactory",
      "outputs": [
        {
          "internalType": "bool",
          "name": "",
          "type": "bool"
        }
      ],
      "stateMutability": "view",
      "type": "function"
    },
    {
      "anonymous": false,
      "inputs": [
        {
          "indexed": false,
          "internalType": "address",
          "name": "gaugeLike",
          "type": "address"
        }
      ],
      "name": "GaugeLikeCreated",
      "type": "event"
    }
  ],
  "bytecode": "0x6080604052348015600e575f5ffd5b506137ff8061001c5f395ff3fe608060405234801561000f575f5ffd5b5060043610610034575f3560e01c80637cf6523314610038578063b32d705b14610068575b5f5ffd5b61004b61004636600461016a565b61009a565b6040516001600160a01b0390911681526020015b60405180910390f35b61008a6100763660046101aa565b5f6020819052908152604090205460ff1681565b604051901515815260200161005f565b5f8383836040516100aa90610142565b6001600160a01b03938416815291831660208301529091166040820152606001604051809103905ff0801580156100e3573d5f5f3e3d5ffd5b506001600160a01b0381165f8181526020818152604091829020805460ff1916600117905590519182529192507f8aa00edcaf1234f1d440a7b747ca56960d2d0bbf1e8dc60690d185d6559a5abc910160405180910390a19392505050565b6135ff806101cb83390190565b80356001600160a01b0381168114610165575f5ffd5b919050565b5f5f5f6060848603121561017c575f5ffd5b6101858461014f565b92506101936020850161014f565b91506101a16040850161014f565b90509250925092565b5f602082840312156101ba575f5ffd5b6101c38261014f565b939250505056fe60c060405234801561000f575f5ffd5b506040516135ff3803806135ff83398101604081905261002e91610161565b828281818181816001600160a01b03811661006257604051631e4fbdf760e01b81525f600482015260240160405180910390fd5b61006b816100db565b506001600160a01b0381166100935760405163d92e233d60e01b815260040160405180910390fd5b6001600160a01b03908116608052861694506100c793505050505760405163a5c9497760e01b815260040160405180910390fd5b6001600160a01b031660a052506101a19050565b600180546001600160a01b03191690556100f4816100f7565b50565b5f80546001600160a01b038381166001600160a01b0319831681178455604051919092169283917f8be0079c531659141344cd1fd0a4f28419497f9722a3daafe3b4186f6b6457e09190a35050565b80516001600160a01b038116811461015c575f5ffd5b919050565b5f5f5f60608486031215610173575f5ffd5b61017c84610146565b925061018a60208501610146565b915061019860408501610146565b90509250925092565b60805160a0516133fe6102015f395f8181610211015281816102520152818161065601528181610e44015281816111180152818161175801526117e501525f81816103d40152818161060701528181610d1f015261207e01526133fe5ff3fe608060405234801561000f575f5ffd5b5060043610610208575f3560e01c8063aaf5eb681161011f578063cfc26237116100a9578063ef5cfb8c11610079578063ef5cfb8c1461059b578063f2fde38b146105ae578063f5ba4750146105c1578063f5cf673b146105d4578063fb71aec5146105e7575f5ffd5b8063cfc26237146104d0578063d34fb2671461056f578063e30c397814610577578063e7b8b9c414610588575f5ffd5b8063bbdc013b116100ef578063bbdc013b14610471578063bec1e02214610484578063c1616f6914610497578063cc080164146104aa578063cd72a4bf146104bd575f5ffd5b8063aaf5eb6814610429578063ab8f094514610443578063b5a890651461044b578063b90817f21461045e575f5ffd5b806379ba5097116101a05780638da5cb5b116101705780638da5cb5b146103a95780639c868ac0146103b95780639f2e6a0c146103cf578063a5eb3f0d146103f6578063a7b800dd14610416575f5ffd5b806379ba5097146103075780637d8bf6ec1461030f57806382794f39146103235780638ba2c3c814610396575f5ffd5b80636f564e7d116101db5780636f564e7d146102ac578063711ec9ac146102cc578063715018a6146102d457806374d945ec146102dc575f5ffd5b80631d7e35561461020c5780632ad87c6f146102505780632e953c211461027657806358703bed1461028b575b5f5ffd5b6102337f000000000000000000000000000000000000000000000000000000000000000081565b6040516001600160a01b0390911681526020015b60405180910390f35b7f0000000000000000000000000000000000000000000000000000000000000000610233565b610289610284366004612aab565b6105fc565b005b61029e610299366004612b23565b6107f3565b604051908152602001610247565b6102bf6102ba366004612b71565b6108fd565b6040516102479190612bb6565b61029e610951565b610289610960565b6102336102ea366004612bc8565b6001600160a01b039081165f908152600760205260409020541690565b610289610973565b61029e6c0c9f2c9cd04674edea4000000081565b610336610331366004612c1e565b6109bc565b60405161024791905f60a0820190508251825260018060a01b0360208401511660208301526001600160681b03604084015116604083015264ffffffffff606084015116606083015264ffffffffff608084015116608083015292915050565b61029e6103a4366004612c5c565b610a9a565b5f546001600160a01b0316610233565b60085460ff166040519015158152602001610247565b6102337f000000000000000000000000000000000000000000000000000000000000000081565b610409610404366004612b23565b610b07565b6040516102479190612c9d565b61029e610424366004612dc6565b610b66565b610431602481565b60405160ff9091168152602001610247565b610289610be1565b61029e610459366004612c5c565b610c20565b61028961046c366004612bc8565b610c8f565b61028961047f366004612df7565b610d14565b610289610492366004612e5f565b610d72565b6102896104a5366004612ebf565b610f63565b61029e6104b8366004612c5c565b611014565b6102896104cb366004612f5c565b61107c565b61052a6104de366004612b71565b60056020525f908152604090208054600182015460029092015490916001600160a01b0316906001600160681b0381169064ffffffffff600160681b8204811691600160901b90041685565b604080519586526001600160a01b0390941660208601526001600160681b039092169284019290925264ffffffffff918216606084015216608082015260a001610247565b610289611214565b6001546001600160a01b0316610233565b61029e610596366004612c1e565b611250565b6104096105a9366004612bc8565b6112b8565b6102896105bc366004612bc8565b6112fd565b6104096105cf366004612fab565b61136d565b6102896105e2366004613007565b611437565b6105ef6114e3565b604051610247919061302f565b336001600160a01b037f000000000000000000000000000000000000000000000000000000000000000016146106445760405162f09cf360e01b815260040160405180910390fd5b6001600160681b038116156107ef575f7f00000000000000000000000000000000000000000000000000000000000000006001600160a01b03166318160ddd6040518163ffffffff1660e01b8152600401602060405180830381865afa1580156106b0573d5f5f3e3d5ffd5b505050506040513d601f19601f820116820180604052508101906106d49190613092565b90505f6106e0846115a0565b5f8181526005602052604090209091506106fa8284611641565b506002810180544264ffffffffff818116600160901b90810264ffffffffff60901b1985161790945592820492909216916001600160681b0390911690610743906001906130bd565b6002840180546001600160901b031916600160681b64ffffffffff93909316929092026001600160681b031916919091176001600160681b03881617905561078b8486611641565b50600292909201805469ffffffffffffffffffff60681b1916600160901b64ffffffffff9384160264ffffffffff60681b191617600160681b429390931692909202919091176001600160681b0319166001600160681b0390921691909117905550505b5050565b5f5f5f5f61080087611754565b90925090505f5b858110156108f2575f610870888884818110610825576108256130d0565b905060200281019061083791906130e4565b8080601f0160208091040260200160405190810160405280939291908181526020018383808284375f92019190915250610b6692505050565b5f818152600560205260409020600101549091506001600160a01b0390811690861661089e578095506108d0565b806001600160a01b0316866001600160a01b0316146108d0576040516305ff3f2d60e41b815260040160405180910390fd5b6108dc8a83878761186a565b6108e69088613126565b96505050600101610807565b505050509392505050565b5f8181526004602052604090205460609060ff1615610927576109218260146118ac565b92915050565b6109218260405160200161093d91815260200190565b604051602081830303815290604052611a25565b61095d6024600a61321c565b81565b610968611aaa565b6109715f611ad6565b565b60015433906001600160a01b031681146109b05760405163118cdaa760e01b81526001600160a01b03821660048201526024015b60405180910390fd5b6109b981611ad6565b50565b6040805160a0810182525f808252602082018190529181018290526060810182905260808101919091525f610a2584848080601f0160208091040260200160405190810160405280939291908181526020018383808284375f92019190915250610b6692505050565b6040805160a0810182525f838152600560208181528483208054855260018101546001600160a01b031682860152600201546001600160681b0381169585019590955264ffffffffff600160681b860481166060860152959092529052600160901b9091049091166080820152949350505050565b5f5f610ada84848080601f0160208091040260200160405190810160405280939291908181526020018383808284375f92019190915250610b6692505050565b6001600160a01b0386165f90815260066020908152604080832093835292905220549150505b9392505050565b60606001600160a01b038416610b3057604051638aa3a72f60e01b815260040160405180910390fd5b5f610b3b8484611aef565b9050610b4681611b80565b610b503382611bdd565b9150610b5e33338785611cc6565b509392505050565b80515f90602a819003610b8b57610b00610b7f84611f80565b6001600160a01b031690565b8015801590610b9b575060208111155b610bb8576040516302d7eecb60e61b815260040160405180910390fd5b82604051602001610bc99190613241565b604051602081830303815290604052610b009061324c565b610be9611aaa565b6008805460ff191660011790556040517f1cd942681240393874c94d43d81f6d2be3e0a1f94e200f58cdb151773cbec7ba905f90a1565b5f5f610c6084848080601f0160208091040260200160405190810160405280939291908181526020018383808284375f92019190915250610b6692505050565b5f9081526005602090815260408083206001600160a01b03891684526003019091529020549150509392505050565b610c97611aaa565b6040516370a0823160e01b81523060048201526109b99033906001600160a01b038416906370a0823190602401602060405180830381865afa158015610cdf573d5f5f3e3d5ffd5b505050506040513d601f19601f82011682018060405250810190610d039190613092565b6001600160a01b0384169190612021565b336001600160a01b037f00000000000000000000000000000000000000000000000000000000000000001614610d5c5760405162f09cf360e01b815260040160405180910390fd5b610d6a868686868686612073565b505050505050565b610d7a611aaa565b428264ffffffffff161015610da257604051636e03f20160e11b815260040160405180910390fd5b6c0c9f2c9cd04674edea40000000816001600160681b031610610dd85760405163495c2d9160e01b815260040160405180910390fd5b5f610e1785858080601f0160208091040260200160405190810160405280939291908181526020018383808284375f92019190915250610b6692505050565b9050610e246002826121a6565b610e4157604051630a96b47560e01b815260040160405180910390fd5b5f7f00000000000000000000000000000000000000000000000000000000000000006001600160a01b03166318160ddd6040518163ffffffff1660e01b8152600401602060405180830381865afa158015610e9e573d5f5f3e3d5ffd5b505050506040513d601f19601f82011682018060405250810190610ec29190613092565b9050610ece8282611641565b505f8281526005602052604090819020600201805476ffffffffff0000000000ffffffffffffffffffffffffff1916600160901b64ffffffffff8816026001600160681b031916176001600160681b038616179055517fce209946668ea0ad6199b320ade5271adc93d0c1083851b571b990f3e0260f1290610f539088908890613297565b60405180910390a1505050505050565b610f6b611aaa565b8051516020811115610f90576040516310b47cc360e01b815260040160405180910390fd5b6c0c9f2c9cd04674edea4000000082604001516001600160681b031610610fca5760405163495c2d9160e01b815260040160405180910390fd5b42826060015164ffffffffff161015610ff657604051636e03f20160e11b815260040160405180910390fd5b5f611003835f0151610b66565b905061100f81846121bd565b505050565b5f5f61105484848080601f0160208091040260200160405190810160405280939291908181526020018383808284375f92019190915250610b6692505050565b90505f5f61106187611754565b915091506110718784848461186a565b979650505050505050565b611084611aaa565b428164ffffffffff1610156110ac57604051636e03f20160e11b815260040160405180910390fd5b5f6110eb84848080601f0160208091040260200160405190810160405280939291908181526020018383808284375f92019190915250610b6692505050565b90506110f86002826121a6565b61111557604051630a96b47560e01b815260040160405180910390fd5b5f7f00000000000000000000000000000000000000000000000000000000000000006001600160a01b03166318160ddd6040518163ffffffff1660e01b8152600401602060405180830381865afa158015611172573d5f5f3e3d5ffd5b505050506040513d601f19601f820116820180604052508101906111969190613092565b90506111a28282611641565b505f8281526005602052604090819020600201805464ffffffffff60901b1916600160901b64ffffffffff871602179055517f58e6e5fdc9bafcdde90e850e8776b427a5a0e26e6c86f28a3c9c1f180187611890611205908790879087906132aa565b60405180910390a15050505050565b61121c611aaa565b6008805460ff191690556040517f2bb961d4f48d79d94b84e7017d12533eff7562d60f9fcbdc7784646269c1ec21905f90a1565b5f5f61129084848080601f0160208091040260200160405190810160405280939291908181526020018383808284375f92019190915250610b6692505050565b5f90815260056020526040902060020154600160901b900464ffffffffff1691505092915050565b60606001600160a01b0382166112e157604051638aa3a72f60e01b815260040160405180910390fd5b6112ea336122d6565b90506112f833338484611cc6565b919050565b611305611aaa565b600180546001600160a01b0383166001600160a01b031990911681179091556113355f546001600160a01b031690565b6001600160a01b03167f38d16b8cac22d99fc7c124b9cd0de2d3fa1faef420bfe791d8c362d765e2270060405160405180910390a350565b6001600160a01b038085165f90815260076020526040902054606091339187911682146113ac57604051620bb58b60e51b815260040160405180910390fd5b86866001600160a01b0382166113d557604051630702b3d960e41b815260040160405180910390fd5b6001600160a01b0381166113fc57604051638aa3a72f60e01b815260040160405180910390fd5b5f6114078888611aef565b905061141281611b80565b61141c8a82611bdd565b955061142a338b8b89611cc6565b5050505050949350505050565b61143f611aaa565b6001600160a01b0382166114665760405163d92e233d60e01b815260040160405180910390fd5b6001600160a01b03811661148d5760405163d92e233d60e01b815260040160405180910390fd5b6001600160a01b038281165f8181526007602052604080822080546001600160a01b0319169486169485179055517f4925eafc82d0c4d67889898eeed64b18488ab19811e61620f387026dec126a289190a35050565b60605f6114f060026122eb565b519050806001600160401b0381111561150b5761150b612d01565b60405190808252806020026020018201604052801561153e57816020015b60608152602001906001900390816115295790505b5091505f5b8181101561159b5761157661155860026122eb565b8281518110611569576115696130d0565b60200260200101516108fd565b838281518110611588576115886130d0565b6020908102919091010152600101611543565b505090565b6001600160a01b0381165f81815260056020526040812060020154600160681b900464ffffffffff1690036112f8575f818152600460209081526040808320805460ff191660011790558051608081018252606080825292810184905290810183905290810191909152611613836122f7565b81526001600160a01b03831660208201525f60408201819052606082015261163b82826121bd565b50919050565b5f82815260056020526040812080546002909101546001600160681b0381169064ffffffffff600160681b8204811691600160901b9004164282900361168d5783945050505050610921565b5f61169b858585858b61230d565b905084811461171b575f888152600560205260409020818155600201805464ffffffffff60681b1916600160681b4264ffffffffff16021790557fbcaf32358137afa5170f844d4e02a1b3013677faba70d948cc705ce0a38305846116ff896108fd565b8260405161170e9291906132d4565b60405180910390a1611071565b5f888152600560205260409020600201805464ffffffffff60681b1916600160681b4264ffffffffff1602179055979650505050505050565b5f807f00000000000000000000000000000000000000000000000000000000000000006040516370a0823160e01b81526001600160a01b03858116600483015291909116906370a0823190602401602060405180830381865afa1580156117bd573d5f5f3e3d5ffd5b505050506040513d601f19601f820116820180604052508101906117e19190613092565b91507f00000000000000000000000000000000000000000000000000000000000000006001600160a01b03166318160ddd6040518163ffffffff1660e01b8152600401602060405180830381865afa15801561183f573d5f5f3e3d5ffd5b505050506040513d601f19601f820116820180604052508101906118639190613092565b9050915091565b6001600160a01b0384165f90815260066020908152604080832086845290915290205461189984868585612390565b6118a39082613126565b95945050505050565b6060825f6118bb8460026132f5565b6118c6906002613126565b6001600160401b038111156118dd576118dd612d01565b6040519080825280601f01601f191660200182016040528015611907576020820181803683370190505b509050600360fc1b815f81518110611921576119216130d0565b60200101906001600160f81b03191690815f1a905350600f60fb1b8160018151811061194f5761194f6130d0565b60200101906001600160f81b03191690815f1a9053505f6119718560026132f5565b61197c906001613126565b90505b60018111156119f3576f181899199a1a9b1b9c1cb0b131b232b360811b83600f16601081106119b0576119b06130d0565b1a60f81b8282815181106119c6576119c66130d0565b60200101906001600160f81b03191690815f1a90535060049290921c916119ec8161330c565b905061197f565b508115611a1d5760405163e22e27eb60e01b815260048101869052602481018590526044016109a7565b949350505050565b80516060905f5b81811015611aa357838181518110611a4657611a466130d0565b01602001516001600160f81b03191615611a9b5782848281518110611a6d57611a6d6130d0565b602001015160f81c60f81b604051602001611a89929190613321565b60405160208183030381529060405292505b600101611a2c565b5050919050565b5f546001600160a01b031633146109715760405163118cdaa760e01b81523360048201526024016109a7565b600180546001600160a01b03191690556109b981612401565b6060816001600160401b03811115611b0957611b09612d01565b604051908082528060200260200182016040528015611b32578160200160208202803683370190505b5090505f5b82811015611b7957611b54848483818110610825576108256130d0565b828281518110611b6657611b666130d0565b6020908102919091010152600101611b37565b5092915050565b5f5b81518110156107ef57611bb8828281518110611ba057611ba06130d0565b602002602001015160026121a690919063ffffffff16565b611bd557604051630a96b47560e01b815260040160405180910390fd5b600101611b82565b8051606090806001600160401b03811115611bfa57611bfa612d01565b604051908082528060200260200182016040528015611c5557816020015b611c4260405180606001604052805f81526020015f81526020015f6001600160a01b031681525090565b815260200190600190039081611c185790505b5091505f5f611c6386611754565b90925090505f5b83811015611cbc57611c9787878381518110611c8857611c886130d0565b60200260200101518486612450565b858281518110611ca957611ca96130d0565b6020908102919091010152600101611c6a565b5050505092915050565b5f5b8151811015611f79576001600160a01b0384165f90815260066020526040812083518290859085908110611cfe57611cfe6130d0565b60200260200101516020015181526020019081526020015f205490505f81848481518110611d2e57611d2e6130d0565b60200260200101515f0151611d439190613126565b90508015611f6f57838381518110611d5d57611d5d6130d0565b60200260200101515f01515f14611e3057611d94848481518110611d8357611d836130d0565b6020026020010151602001516108fd565b604051611da19190613241565b6040518091039020848481518110611dbb57611dbb6130d0565b6020026020010151604001516001600160a01b0316876001600160a01b03167f9ac9a44091881640a73610df0bdc77ce7a7c33784685a2902e0140b6b9652f0d878781518110611e0d57611e0d6130d0565b60200260200101515f0151604051611e2791815260200190565b60405180910390a45b6001600160a01b0386165f90815260066020526040812085518290879087908110611e5d57611e5d6130d0565b60200260200101516020015181526020019081526020015f2081905550611ea2848481518110611e8f57611e8f6130d0565b60200260200101516040015186836124c6565b838381518110611eb457611eb46130d0565b6020026020010151604001516001600160a01b0316856001600160a01b0316876001600160a01b03167f7c791aa670e586419eeb53ce75c06cfaf3c657e90935bd3aae64380872f849fa878781518110611f1057611f106130d0565b6020026020010151602001518b86604051611f47939291909283526001600160a01b03919091166020830152604082015260600190565b60405180910390a480848481518110611f6257611f626130d0565b6020908102919091010151525b5050600101611cc8565b5050505050565b5f8151602a14611fa357604051636fa478cf60e11b815260040160405180910390fd5b60025b602a81101561163b575f5f611fda858481518110611fc657611fc66130d0565b01602001516001600160f81b0319166124da565b9150915081611ffc57604051636fa478cf60e11b815260040160405180910390fd5b60ff811661200b856010613345565b6120159190613376565b93505050600101611fa6565b604080516001600160a01b038416602482015260448082018490528251808303909101815260649091019091526020810180516001600160e01b031663a9059cbb60e01b17905261100f90849061256a565b336001600160a01b037f000000000000000000000000000000000000000000000000000000000000000016146120bb5760405162f09cf360e01b815260040160405180910390fd5b5f6120c660026125cb565b9050846001600160a01b0316876001600160a01b031614806120e6575080155b156120f15750610d6a565b6001600160a01b03871661210957818303925061211c565b6001600160a01b03851661211c57918101915b6001600160a01b0387161561213057948101945b6001600160a01b038516156121455781840393505b5f5b8181101561219c575f61215b6002836125d4565b90506001600160a01b0389161561217857612178818a878b6125df565b6001600160a01b0387161561219357612193818887896125df565b50600101612147565b5050505050505050565b5f8181526001830160205260408120541515610b00565b60208101516001600160a01b03166121e85760405163dfde867160e01b815260040160405180910390fd5b6121f36002836126c3565b612210576040516383528a7f60e01b815260040160405180910390fd5b6020818101515f84815260059092526040918290206001810180546001600160a01b0319166001600160a01b0390931692909217909155606083015160029091018054838501516001600160681b03166001600160b81b0319909116600160901b64ffffffffff948516026001600160901b0319161717600160681b429390931692909202919091179055815190517f0cf558cc2f9ccbbf831b6392a319e7892856e9324a757e9c3648ee9e5b88cb4f916122ca91612bb6565b60405180910390a15050565b6060610921826122e660026122eb565b611bdd565b60605f610b00836126ce565b60606109216001600160a01b03831660146118ac565b5f841580612319575081155b8061232357504284145b8061232e5750828410155b1561233a5750846118a3565b5f834211612348574261234a565b835b90505f61235786836130bd565b905061237861236682896132f5565b6123726024600a61321c565b86612727565b92506123848884613126565b98975050505050505050565b5f8481526005602081815260408084206001600160a01b03881685526003810183529084205488855292909152805460029091015483916123f4916001600160681b0381169064ffffffffff600160681b8204811691600160901b9004168861230d565b90506110718582846127e4565b5f80546001600160a01b038381166001600160a01b0319831681178455604051919092169283917f8be0079c531659141344cd1fd0a4f28419497f9722a3daafe3b4186f6b6457e09190a35050565b61247a60405180606001604052805f81526020015f81526020015f6001600160a01b031681525090565b5f61248785878587612804565b6040805160608101825291825260208083018890525f9788526005905295869020600101546001600160a01b0316958101959095525092949350505050565b61100f6001600160a01b0384168383612021565b5f8060f883901c602f811180156124f45750603a8160ff16105b1561250957600194602f199091019350915050565b8060ff16604010801561251f575060478160ff16105b15612534576001946036199091019350915050565b8060ff16606010801561254a575060678160ff16105b1561255f576001946056199091019350915050565b505f93849350915050565b5f61257e6001600160a01b038416836128ca565b905080515f141580156125a25750808060200190518101906125a09190613395565b155b1561100f57604051635274afe760e01b81526001600160a01b03841660048201526024016109a7565b5f610921825490565b5f610b0083836128d7565b5f6125ec85858486612804565b90508015611f79576001600160a01b0384165f908152600660209081526040808320888452909152812054612622908390613126565b6001600160a01b0386165f9081526006602090815260408083208a845290915290208190559050612652866108fd565b60405161265f9190613241565b604080519182900382205f898152600560209081529290206001015484845290926001600160a01b0391821692918916917f9ac9a44091881640a73610df0bdc77ce7a7c33784685a2902e0140b6b9652f0d910160405180910390a4505050505050565b5f610b0083836128fd565b6060815f0180548060200260200160405190810160405280929190818152602001828054801561271b57602002820191905f5260205f20905b815481526020019060010190808311612707575b50505050509050919050565b5f838302815f1985870982811083820303915050805f0361275b57838281612751576127516133b4565b0492505050610b00565b808411612779576127798415612772576011612949565b6012612949565b5f848688095f868103871696879004966002600389028118808a02820302808a02820302808a02820302808a02820302808a02820302808a02909103029181900381900460010186841190950394909402919094039290920491909117919091029150509392505050565b5f611a1d846127f384866130bd565b6127ff6024600a61321c565b612727565b5f8481526005602090815260408083206001600160a01b038716845260030190915281205481806128358886611641565b90508083146128bf5785156128525761284f8682856127e4565b91505b5f8881526005602090815260408083206001600160a01b038b1680855260039091019092529091208290557f06e13548f41cff17d181fb7a95d6935aaf6175b5a584469e25f3bf999103a5e56128a78a6108fd565b836040516128b69291906132d4565b60405180910390a25b509695505050505050565b6060610b0083835f61295a565b5f825f0182815481106128ec576128ec6130d0565b905f5260205f200154905092915050565b5f81815260018301602052604081205461294257508154600181810184555f848152602080822090930184905584548482528286019093526040902091909155610921565b505f610921565b634e487b715f52806020526024601cfd5b6060814710156129865760405163cf47918160e01b8152476004820152602481018390526044016109a7565b5f5f856001600160a01b031684866040516129a19190613241565b5f6040518083038185875af1925050503d805f81146129db576040519150601f19603f3d011682016040523d82523d5f602084013e6129e0565b606091505b50915091506129f08683836129fa565b9695505050505050565b606082612a0f57612a0a82612a56565b610b00565b8151158015612a2657506001600160a01b0384163b155b15612a4f57604051639996b31560e01b81526001600160a01b03851660048201526024016109a7565b5080610b00565b805115612a665780518082602001fd5b60405163d6bda27560e01b815260040160405180910390fd5b80356001600160a01b03811681146112f8575f5ffd5b80356001600160681b03811681146112f8575f5ffd5b5f5f60408385031215612abc575f5ffd5b612ac583612a7f565b9150612ad360208401612a95565b90509250929050565b5f5f83601f840112612aec575f5ffd5b5081356001600160401b03811115612b02575f5ffd5b6020830191508360208260051b8501011115612b1c575f5ffd5b9250929050565b5f5f5f60408486031215612b35575f5ffd5b612b3e84612a7f565b925060208401356001600160401b03811115612b58575f5ffd5b612b6486828701612adc565b9497909650939450505050565b5f60208284031215612b81575f5ffd5b5035919050565b5f81518084528060208401602086015e5f602082860101526020601f19601f83011685010191505092915050565b602081525f610b006020830184612b88565b5f60208284031215612bd8575f5ffd5b610b0082612a7f565b5f5f83601f840112612bf1575f5ffd5b5081356001600160401b03811115612c07575f5ffd5b602083019150836020828501011115612b1c575f5ffd5b5f5f60208385031215612c2f575f5ffd5b82356001600160401b03811115612c44575f5ffd5b612c5085828601612be1565b90969095509350505050565b5f5f5f60408486031215612c6e575f5ffd5b612c7784612a7f565b925060208401356001600160401b03811115612c91575f5ffd5b612b6486828701612be1565b602080825282518282018190525f918401906040840190835b81811015612cf657835180518452602080820151818601526040918201516001600160a01b03169185019190915290930192606090920191600101612cb6565b509095945050505050565b634e487b7160e01b5f52604160045260245ffd5b604051608081016001600160401b0381118282101715612d3757612d37612d01565b60405290565b5f82601f830112612d4c575f5ffd5b81356001600160401b03811115612d6557612d65612d01565b604051601f8201601f19908116603f011681016001600160401b0381118282101715612d9357612d93612d01565b604052818152838201602001851015612daa575f5ffd5b816020850160208301375f918101602001919091529392505050565b5f60208284031215612dd6575f5ffd5b81356001600160401b03811115612deb575f5ffd5b611a1d84828501612d3d565b5f5f5f5f5f5f60c08789031215612e0c575f5ffd5b612e1587612a7f565b955060208701359450612e2a60408801612a7f565b959894975094956060810135955060808101359460a0909101359350915050565b803564ffffffffff811681146112f8575f5ffd5b5f5f5f5f60608587031215612e72575f5ffd5b84356001600160401b03811115612e87575f5ffd5b612e9387828801612be1565b9095509350612ea6905060208601612e4b565b9150612eb460408601612a95565b905092959194509250565b5f60208284031215612ecf575f5ffd5b81356001600160401b03811115612ee4575f5ffd5b820160808185031215612ef5575f5ffd5b612efd612d15565b81356001600160401b03811115612f12575f5ffd5b612f1e86828501612d3d565b825250612f2d60208301612a7f565b6020820152612f3e60408301612a95565b6040820152612f4f60608301612e4b565b6060820152949350505050565b5f5f5f60408486031215612f6e575f5ffd5b83356001600160401b03811115612f83575f5ffd5b612f8f86828701612be1565b9094509250612fa2905060208501612e4b565b90509250925092565b5f5f5f5f60608587031215612fbe575f5ffd5b612fc785612a7f565b9350612fd560208601612a7f565b925060408501356001600160401b03811115612fef575f5ffd5b612ffb87828801612adc565b95989497509550505050565b5f5f60408385031215613018575f5ffd5b61302183612a7f565b9150612ad360208401612a7f565b5f602082016020835280845180835260408501915060408160051b8601019250602086015f5b8281101561308657603f19878603018452613071858351612b88565b94506020938401939190910190600101613055565b50929695505050505050565b5f602082840312156130a2575f5ffd5b5051919050565b634e487b7160e01b5f52601160045260245ffd5b81810381811115610921576109216130a9565b634e487b7160e01b5f52603260045260245ffd5b5f5f8335601e198436030181126130f9575f5ffd5b8301803591506001600160401b03821115613112575f5ffd5b602001915036819003821315612b1c575f5ffd5b80820180821115610921576109216130a9565b6001815b600184111561317457808504811115613158576131586130a9565b600184161561316657908102905b60019390931c92800261313d565b935093915050565b5f8261318a57506001610921565b8161319657505f610921565b81600181146131ac57600281146131b6576131d2565b6001915050610921565b60ff8411156131c7576131c76130a9565b50506001821b610921565b5060208310610133831016604e8410600b84101617156131f5575081810a610921565b6132015f198484613139565b805f1904821115613214576132146130a9565b029392505050565b5f610b0060ff84168361317c565b5f81518060208401855e5f93019283525090919050565b5f610b00828461322a565b8051602080830151919081101561163b575f1960209190910360031b1b16919050565b81835281816020850137505f828201602090810191909152601f909101601f19169091010190565b602081525f611a1d60208301848661326f565b604081525f6132bd60408301858761326f565b905064ffffffffff83166020830152949350505050565b604081525f6132e66040830185612b88565b90508260208301529392505050565b8082028115828204841417610921576109216130a9565b5f8161331a5761331a6130a9565b505f190190565b5f61332c828561322a565b6001600160f81b03199390931683525050600101919050565b6001600160a01b0381811683821681810290921691818304811482151761336e5761336e6130a9565b505092915050565b6001600160a01b038181168382160190811115610921576109216130a9565b5f602082840312156133a5575f5ffd5b81518015158114610b00575f5ffd5b634e487b7160e01b5f52601260045260245ffdfea26469706673582212201fa5752d9aa40fdc972c4c0246583f4c7b855c6a042a98f21eb98a37e1b7965264736f6c634300081c0033a2646970667358221220a41104167c02722bdb50656f2b9afdff12a8dcdd4655732f9a54183db836d4ec64736f6c634300081c0033",
  "language": "Solidity",
  "compiler": "0.8.28+commit.7893614a"
}