{
  "address": "0xf2d6030D269Ebd8Dc406BB95aBC26Aa9A68cBCff",
  "abi": [
    {
      "type": "function",
      "name": "VERSION",
      "inputs": [],
      "outputs": [
        {
          "name": "",
          "type": "string",
          "internalType": "string"
        }
      ],
      "stateMutability": "view"
    },
    {
      "type": "function",
      "name": "borrowShare",
      "inputs": [
        {
          "name": "_silo",
          "type": "address",
          "internalType": "contract ISilo"
        },
        {
          "name": "_borrower",
          "type": "address",
          "internalType": "address"
        }
      ],
      "outputs": [
        {
          "name": "",
          "type": "uint256",
          "internalType": "uint256"
        }
      ],
      "stateMutability": "view"
    },
    {
      "type": "function",
      "name": "calculateBorrowValue",
      "inputs": [
        {
          "name": "_siloConfig",
          "type": "address",
          "internalType": "contract ISiloConfig"
        },
        {
          "name": "_borrower",
          "type": "address",
          "internalType": "address"
        }
      ],
      "outputs": [
        {
          "name": "borrowValue",
          "type": "uint256",
          "internalType": "uint256"
        }
      ],
      "stateMutability": "view"
    },
    {
      "type": "function",
      "name": "calculateCollateralValue",
      "inputs": [
        {
          "name": "_siloConfig",
          "type": "address",
          "internalType": "contract ISiloConfig"
        },
        {
          "name": "_borrower",
          "type": "address",
          "internalType": "address"
        }
      ],
      "outputs": [
        {
          "name": "collateralValue",
          "type": "uint256",
          "internalType": "uint256"
        }
      ],
      "stateMutability": "view"
    },
    {
      "type": "function",
      "name": "calculateProfitableLiquidation",
      "inputs": [
        {
          "name": "_silo",
          "type": "address",
          "internalType": "contract ISilo"
        },
        {
          "name": "_borrower",
          "type": "address",
          "internalType": "address"
        }
      ],
      "outputs": [
        {
          "name": "collateralToLiquidate",
          "type": "uint256",
          "internalType": "uint256"
        },
        {
          "name": "debtToCover",
          "type": "uint256",
          "internalType": "uint256"
        }
      ],
      "stateMutability": "view"
    },
    {
      "type": "function",
      "name": "collateralBalanceOfUnderlying",
      "inputs": [
        {
          "name": "_silo",
          "type": "address",
          "internalType": "contract ISilo"
        },
        {
          "name": "_borrower",
          "type": "address",
          "internalType": "address"
        }
      ],
      "outputs": [
        {
          "name": "borrowerCollateral",
          "type": "uint256",
          "internalType": "uint256"
        }
      ],
      "stateMutability": "view"
    },
    {
      "type": "function",
      "name": "collateralOnlyDeposits",
      "inputs": [
        {
          "name": "_silo",
          "type": "address",
          "internalType": "contract ISilo"
        }
      ],
      "outputs": [
        {
          "name": "",
          "type": "uint256",
          "internalType": "uint256"
        }
      ],
      "stateMutability": "view"
    },
    {
      "type": "function",
      "name": "debtBalanceOfUnderlying",
      "inputs": [
        {
          "name": "_silo",
          "type": "address",
          "internalType": "contract ISilo"
        },
        {
          "name": "_borrower",
          "type": "address",
          "internalType": "address"
        }
      ],
      "outputs": [
        {
          "name": "",
          "type": "uint256",
          "internalType": "uint256"
        }
      ],
      "stateMutability": "view"
    },
    {
      "type": "function",
      "name": "getAPRs",
      "inputs": [
        {
          "name": "_silos",
          "type": "address[]",
          "internalType": "contract ISilo[]"
        }
      ],
      "outputs": [
        {
          "name": "aprs",
          "type": "tuple[]",
          "internalType": "struct ISiloLens.APR[]",
          "components": [
            {
              "name": "depositAPR",
              "type": "uint256",
              "internalType": "uint256"
            },
            {
              "name": "borrowAPR",
              "type": "uint256",
              "internalType": "uint256"
            }
          ]
        }
      ],
      "stateMutability": "view"
    },
    {
      "type": "function",
      "name": "getBorrowAPR",
      "inputs": [
        {
          "name": "_silo",
          "type": "address",
          "internalType": "contract ISilo"
        }
      ],
      "outputs": [
        {
          "name": "borrowAPR",
          "type": "uint256",
          "internalType": "uint256"
        }
      ],
      "stateMutability": "view"
    },
    {
      "type": "function",
      "name": "getBorrowAmount",
      "inputs": [
        {
          "name": "_silo",
          "type": "address",
          "internalType": "contract ISilo"
        },
        {
          "name": "_borrower",
          "type": "address",
          "internalType": "address"
        }
      ],
      "outputs": [
        {
          "name": "maxRepay",
          "type": "uint256",
          "internalType": "uint256"
        }
      ],
      "stateMutability": "view"
    },
    {
      "type": "function",
      "name": "getDepositAPR",
      "inputs": [
        {
          "name": "_silo",
          "type": "address",
          "internalType": "contract ISilo"
        }
      ],
      "outputs": [
        {
          "name": "depositAPR",
          "type": "uint256",
          "internalType": "uint256"
        }
      ],
      "stateMutability": "view"
    },
    {
      "type": "function",
      "name": "getDepositAmount",
      "inputs": [
        {
          "name": "_silo",
          "type": "address",
          "internalType": "contract ISilo"
        },
        {
          "name": "_borrower",
          "type": "address",
          "internalType": "address"
        }
      ],
      "outputs": [
        {
          "name": "borrowerDeposits",
          "type": "uint256",
          "internalType": "uint256"
        }
      ],
      "stateMutability": "view"
    },
    {
      "type": "function",
      "name": "getFeesAndFeeReceivers",
      "inputs": [
        {
          "name": "_silo",
          "type": "address",
          "internalType": "contract ISilo"
        }
      ],
      "outputs": [
        {
          "name": "daoFeeReceiver",
          "type": "address",
          "internalType": "address"
        },
        {
          "name": "deployerFeeReceiver",
          "type": "address",
          "internalType": "address"
        },
        {
          "name": "daoFee",
          "type": "uint256",
          "internalType": "uint256"
        },
        {
          "name": "deployerFee",
          "type": "uint256",
          "internalType": "uint256"
        }
      ],
      "stateMutability": "view"
    },
    {
      "type": "function",
      "name": "getInterestRateModel",
      "inputs": [
        {
          "name": "_silo",
          "type": "address",
          "internalType": "contract ISilo"
        }
      ],
      "outputs": [
        {
          "name": "irm",
          "type": "address",
          "internalType": "address"
        }
      ],
      "stateMutability": "view"
    },
    {
      "type": "function",
      "name": "getLt",
      "inputs": [
        {
          "name": "_silo",
          "type": "address",
          "internalType": "contract ISilo"
        }
      ],
      "outputs": [
        {
          "name": "lt",
          "type": "uint256",
          "internalType": "uint256"
        }
      ],
      "stateMutability": "view"
    },
    {
      "type": "function",
      "name": "getLtv",
      "inputs": [
        {
          "name": "_silo",
          "type": "address",
          "internalType": "contract ISilo"
        },
        {
          "name": "_borrower",
          "type": "address",
          "internalType": "address"
        }
      ],
      "outputs": [
        {
          "name": "ltv",
          "type": "uint256",
          "internalType": "uint256"
        }
      ],
      "stateMutability": "view"
    },
    {
      "type": "function",
      "name": "getMaxLtv",
      "inputs": [
        {
          "name": "_silo",
          "type": "address",
          "internalType": "contract ISilo"
        }
      ],
      "outputs": [
        {
          "name": "maxLtv",
          "type": "uint256",
          "internalType": "uint256"
        }
      ],
      "stateMutability": "view"
    },
    {
      "type": "function",
      "name": "getModel",
      "inputs": [
        {
          "name": "_silo",
          "type": "address",
          "internalType": "contract ISilo"
        }
      ],
      "outputs": [
        {
          "name": "irm",
          "type": "address",
          "internalType": "contract IInterestRateModel"
        }
      ],
      "stateMutability": "view"
    },
    {
      "type": "function",
      "name": "getOracleAddresses",
      "inputs": [
        {
          "name": "_silo",
          "type": "address",
          "internalType": "contract ISilo"
        }
      ],
      "outputs": [
        {
          "name": "solvencyOracle",
          "type": "address",
          "internalType": "address"
        },
        {
          "name": "maxLtvOracle",
          "type": "address",
          "internalType": "address"
        }
      ],
      "stateMutability": "view"
    },
    {
      "type": "function",
      "name": "getRawLiquidity",
      "inputs": [
        {
          "name": "_silo",
          "type": "address",
          "internalType": "contract ISilo"
        }
      ],
      "outputs": [
        {
          "name": "rawLiquidity",
          "type": "uint256",
          "internalType": "uint256"
        }
      ],
      "stateMutability": "view"
    },
    {
      "type": "function",
      "name": "getSiloIncentivesControllerProgramsNames",
      "inputs": [
        {
          "name": "_siloIncentivesController",
          "type": "address",
          "internalType": "address"
        }
      ],
      "outputs": [
        {
          "name": "programsNames",
          "type": "string[]",
          "internalType": "string[]"
        }
      ],
      "stateMutability": "view"
    },
    {
      "type": "function",
      "name": "getUserLT",
      "inputs": [
        {
          "name": "_silo",
          "type": "address",
          "internalType": "contract ISilo"
        },
        {
          "name": "_borrower",
          "type": "address",
          "internalType": "address"
        }
      ],
      "outputs": [
        {
          "name": "userLT",
          "type": "uint256",
          "internalType": "uint256"
        }
      ],
      "stateMutability": "view"
    },
    {
      "type": "function",
      "name": "getUserLTV",
      "inputs": [
        {
          "name": "_silo",
          "type": "address",
          "internalType": "contract ISilo"
        },
        {
          "name": "_borrower",
          "type": "address",
          "internalType": "address"
        }
      ],
      "outputs": [
        {
          "name": "userLTV",
          "type": "uint256",
          "internalType": "uint256"
        }
      ],
      "stateMutability": "view"
    },
    {
      "type": "function",
      "name": "getUsersHealth",
      "inputs": [
        {
          "name": "_borrowers",
          "type": "tuple[]",
          "internalType": "struct ISiloLens.Borrower[]",
          "components": [
            {
              "name": "silo",
              "type": "address",
              "internalType": "contract ISilo"
            },
            {
              "name": "wallet",
              "type": "address",
              "internalType": "address"
            }
          ]
        }
      ],
      "outputs": [
        {
          "name": "healths",
          "type": "tuple[]",
          "internalType": "struct ISiloLens.BorrowerHealth[]",
          "components": [
            {
              "name": "lt",
              "type": "uint256",
              "internalType": "uint256"
            },
            {
              "name": "ltv",
              "type": "uint256",
              "internalType": "uint256"
            }
          ]
        }
      ],
      "stateMutability": "view"
    },
    {
      "type": "function",
      "name": "getUsersLT",
      "inputs": [
        {
          "name": "_borrowers",
          "type": "tuple[]",
          "internalType": "struct ISiloLens.Borrower[]",
          "components": [
            {
              "name": "silo",
              "type": "address",
              "internalType": "contract ISilo"
            },
            {
              "name": "wallet",
              "type": "address",
              "internalType": "address"
            }
          ]
        }
      ],
      "outputs": [
        {
          "name": "usersLTs",
          "type": "uint256[]",
          "internalType": "uint256[]"
        }
      ],
      "stateMutability": "view"
    },
    {
      "type": "function",
      "name": "getUtilization",
      "inputs": [
        {
          "name": "_silo",
          "type": "address",
          "internalType": "contract ISilo"
        }
      ],
      "outputs": [
        {
          "name": "utilization",
          "type": "uint256",
          "internalType": "uint256"
        }
      ],
      "stateMutability": "view"
    },
    {
      "type": "function",
      "name": "getVersion",
      "inputs": [
        {
          "name": "_contract",
          "type": "address",
          "internalType": "address"
        }
      ],
      "outputs": [
        {
          "name": "version",
          "type": "string",
          "internalType": "string"
        }
      ],
      "stateMutability": "view"
    },
    {
      "type": "function",
      "name": "hasPosition",
      "inputs": [
        {
          "name": "_siloConfig",
          "type": "address",
          "internalType": "contract ISiloConfig"
        },
        {
          "name": "_borrower",
          "type": "address",
          "internalType": "address"
        }
      ],
      "outputs": [
        {
          "name": "has",
          "type": "bool",
          "internalType": "bool"
        }
      ],
      "stateMutability": "view"
    },
    {
      "type": "function",
      "name": "inDebt",
      "inputs": [
        {
          "name": "_siloConfig",
          "type": "address",
          "internalType": "contract ISiloConfig"
        },
        {
          "name": "_borrower",
          "type": "address",
          "internalType": "address"
        }
      ],
      "outputs": [
        {
          "name": "hasDebt",
          "type": "bool",
          "internalType": "bool"
        }
      ],
      "stateMutability": "view"
    },
    {
      "type": "function",
      "name": "isSolvent",
      "inputs": [
        {
          "name": "_silo",
          "type": "address",
          "internalType": "contract ISilo"
        },
        {
          "name": "_borrower",
          "type": "address",
          "internalType": "address"
        }
      ],
      "outputs": [
        {
          "name": "",
          "type": "bool",
          "internalType": "bool"
        }
      ],
      "stateMutability": "view"
    },
    {
      "type": "function",
      "name": "liquidity",
      "inputs": [
        {
          "name": "_silo",
          "type": "address",
          "internalType": "contract ISilo"
        }
      ],
      "outputs": [
        {
          "name": "",
          "type": "uint256",
          "internalType": "uint256"
        }
      ],
      "stateMutability": "view"
    },
    {
      "type": "function",
      "name": "maxLiquidation",
      "inputs": [
        {
          "name": "_silo",
          "type": "address",
          "internalType": "contract ISilo"
        },
        {
          "name": "_hook",
          "type": "address",
          "internalType": "contract IPartialLiquidation"
        },
        {
          "name": "_borrower",
          "type": "address",
          "internalType": "address"
        }
      ],
      "outputs": [
        {
          "name": "collateralToLiquidate",
          "type": "uint256",
          "internalType": "uint256"
        },
        {
          "name": "debtToRepay",
          "type": "uint256",
          "internalType": "uint256"
        },
        {
          "name": "sTokenRequired",
          "type": "bool",
          "internalType": "bool"
        },
        {
          "name": "fullLiquidation",
          "type": "bool",
          "internalType": "bool"
        }
      ],
      "stateMutability": "view"
    },
    {
      "type": "function",
      "name": "protocolFees",
      "inputs": [
        {
          "name": "_silo",
          "type": "address",
          "internalType": "contract ISilo"
        }
      ],
      "outputs": [
        {
          "name": "daoAndDeployerRevenue",
          "type": "uint256",
          "internalType": "uint256"
        }
      ],
      "stateMutability": "view"
    },
    {
      "type": "function",
      "name": "totalBorrowAmount",
      "inputs": [
        {
          "name": "_silo",
          "type": "address",
          "internalType": "contract ISilo"
        }
      ],
      "outputs": [
        {
          "name": "",
          "type": "uint256",
          "internalType": "uint256"
        }
      ],
      "stateMutability": "view"
    },
    {
      "type": "function",
      "name": "totalBorrowAmountWithInterest",
      "inputs": [
        {
          "name": "_silo",
          "type": "address",
          "internalType": "contract ISilo"
        }
      ],
      "outputs": [
        {
          "name": "amount",
          "type": "uint256",
          "internalType": "uint256"
        }
      ],
      "stateMutability": "view"
    },
    {
      "type": "function",
      "name": "totalBorrowShare",
      "inputs": [
        {
          "name": "_silo",
          "type": "address",
          "internalType": "contract ISilo"
        }
      ],
      "outputs": [
        {
          "name": "",
          "type": "uint256",
          "internalType": "uint256"
        }
      ],
      "stateMutability": "view"
    },
    {
      "type": "function",
      "name": "totalDeposits",
      "inputs": [
        {
          "name": "_silo",
          "type": "address",
          "internalType": "contract ISilo"
        }
      ],
      "outputs": [
        {
          "name": "totalDepositsAmount",
          "type": "uint256",
          "internalType": "uint256"
        }
      ],
      "stateMutability": "view"
    },
    {
      "type": "function",
      "name": "totalDepositsWithInterest",
      "inputs": [
        {
          "name": "_silo",
          "type": "address",
          "internalType": "contract ISilo"
        }
      ],
      "outputs": [
        {
          "name": "amount",
          "type": "uint256",
          "internalType": "uint256"
        }
      ],
      "stateMutability": "view"
    },
    {
      "type": "error",
      "name": "InvalidAsset",
      "inputs": []
    },
    {
      "type": "error",
      "name": "StringsInsufficientHexLength",
      "inputs": [
        {
          "name": "value",
          "type": "uint256",
          "internalType": "uint256"
        },
        {
          "name": "length",
          "type": "uint256",
          "internalType": "uint256"
        }
      ]
    }
  ],
  "bytecode": "0x6080604052348015600e575f5ffd5b506145c28061001c5f395ff3fe608060405234801561000f575f5ffd5b5060043610610233575f3560e01c80638ec109da11610135578063dcf844a7116100b4578063f2a07bc911610079578063f2a07bc9146105ae578063f45b1b3a146105c1578063f5125d3f1461031d578063fdce8643146105d4578063ffa1ad74146105e7575f5ffd5b8063dcf844a71461053a578063dd718ab41461054d578063e218721814610560578063e40aaf7814610573578063e94032561461059b575f5ffd5b8063b1ff4d6c116100fa578063b1ff4d6c146104c1578063b8c876b1146104d4578063bac2aba6146104e7578063c3f82bc31461051a578063d9bd0ea21461030a575f5ffd5b80638ec109da146104205780639848b19c146104335780639bbafd5314610453578063aab2353a14610466578063b1696c6e146104a1575f5ffd5b8063480defa9116101c1578063647e0c2011610186578063647e0c20146103c15780636c15c9ba146103d457806374cd15f3146103e7578063868682cb146103fa5780638705c3591461040d575f5ffd5b8063480defa9146103305780634f6a57b61461035057806354a0577114610363578063590630f01461038e5780635d1e7c2f146103a1575f5ffd5b806324bc00b01161020757806324bc00b0146102c157806336e49658146102e457806337febff4146102f757806338bad5e51461030a57806343afdad21461031d575f5ffd5b8062e0f7a01461023757806306b39a771461025d5780631fe0226914610270578063249a649614610283575b5f5ffd5b61024a610245366004613a75565b610615565b6040519081526020015b60405180910390f35b61024a61026b366004613a75565b610625565b61024a61027e366004613a90565b610686565b610296610291366004613a75565b610698565b604080516001600160a01b039586168152949093166020850152918301526060820152608001610254565b6102d46102cf366004613a90565b6106b5565b6040519015158152602001610254565b61024a6102f2366004613a75565b6106c0565b61024a610305366004613a75565b61070a565b61024a610318366004613a90565b610714565b61024a61032b366004613a90565b610780565b61034361033e366004613ac7565b61078b565b6040516102549190613b36565b61024a61035e366004613a75565b610867565b610376610371366004613a75565b610871565b6040516001600160a01b039091168152602001610254565b6102d461039c366004613a90565b61087b565b6103b46103af366004613b8d565b6108e6565b6040516102549190613bec565b61024a6103cf366004613a75565b6109c6565b61024a6103e2366004613a90565b6109d0565b61024a6103f5366004613a75565b6109db565b61024a610408366004613a90565b610a18565b6102d461041b366004613a90565b610a78565b61024a61042e366004613a90565b610a83565b610446610441366004613ac7565b610a96565b6040516102549190613c38565b61024a610461366004613a75565b610b48565b610479610474366004613c6f565b610b76565b6040805194855260208501939093529015159183019190915215156060820152608001610254565b6104b46104af366004613a75565b610ec9565b6040516102549190613ce5565b61024a6104cf366004613a75565b61103d565b61024a6104e2366004613a75565b611047565b6104fa6104f5366004613a75565b611084565b604080516001600160a01b03938416815292909116602083015201610254565b61052d610528366004613a75565b611169565b6040516102549190613d48565b61024a610548366004613a75565b61122e565b61024a61055b366004613a90565b6112a4565b61037661056e366004613a75565b6112b7565b610586610581366004613a90565b61138e565b60408051928352602083019190915201610254565b61024a6105a9366004613a75565b6113a5565b61024a6105bc366004613a75565b6113d4565b61024a6105cf366004613a90565b6113de565b61024a6105e2366004613a75565b61146f565b61052d6040518060400160405280600f81526020016e053696c6f4c656e7320332e31342e3608c1b81525081565b5f61061f82611508565b92915050565b5f816001600160a01b03166301e1d1146040518163ffffffff1660e01b8152600401602060405180830381865afa158015610662573d5f5f3e3d5ffd5b505050506040513d601f19601f8201168201806040525081019061061f9190613d5a565b5f610691838361164c565b9392505050565b5f5f5f5f6106a585611743565b5092989197509550909350915050565b5f61069183836118f7565b60405163b6d821c760e01b81525f906001600160a01b0383169063b6d821c7906106ef90600290600401613d99565b602060405180830381865afa158015610662573d5f5f3e3d5ffd5b5f61061f82611d46565b604051635f30114960e01b81526001600160a01b0382811660048301525f9190841690635f301149906024015b602060405180830381865afa15801561075c573d5f5f3e3d5ffd5b505050506040513d601f19601f820116820180604052508101906106919190613d5a565b5f6106918383611e1d565b6060816001600160401b038111156107a5576107a5613da7565b6040519080825280602002602001820160405280156107e957816020015b604080518082019091525f80825260208201528152602001906001900390816107c35790505b5090505f5b82811015610860575f84848381811061080957610809613dbb565b90506040020180360381019061081f9190613e28565b90505f83838151811061083457610834613dbb565b6020026020010151905061084f825f01518360200151611f98565b8252602090910152506001016107ee565b5092915050565b5f61061f826120db565b5f61061f826112b7565b6040516338b51ce160e01b81526001600160a01b0382811660048301525f91908416906338b51ce190602401602060405180830381865afa1580156108c2573d5f5f3e3d5ffd5b505050506040513d601f19601f820116820180604052508101906106919190613e95565b6060816001600160401b0381111561090057610900613da7565b60405190808252806020026020018201604052801561094457816020015b604080518082019091525f808252602082015281526020019060019003908161091e5790505b5090505f5b82811015610860575f84848381811061096457610964613dbb565b90506020020160208101906109799190613a75565b9050604051806040016040528061098f836120db565b815260200161099d83611508565b8152508383815181106109b2576109b2613dbb565b602090810291909101015250600101610949565b5f61061f826122d6565b5f61069183836123ad565b5f816001600160a01b031663ecd658b46040518163ffffffff1660e01b8152600401602060405180830381865afa158015610662573d5f5f3e3d5ffd5b60405163c99ee7b760e01b81526001600160a01b038084166004830152821660248201525f9073__$89d37a64e3ccc21ed0741d2ae8390c2e12$__9063c99ee7b790604401602060405180830381865af415801561075c573d5f5f3e3d5ffd5b5f610691838361265b565b5f610a8e838361275b565b949350505050565b6060816001600160401b03811115610ab057610ab0613da7565b604051908082528060200260200182016040528015610ad9578160200160208202803683370190505b5090505f5b82811015610860575f848483818110610af957610af9613dbb565b905060400201803603810190610b0f9190613e28565b9050610b22815f0151826020015161164c565b838381518110610b3457610b34613dbb565b602090810291909101015250600101610ade565b60405163b6d821c760e01b81525f906001600160a01b0383169063b6d821c7906106ef908490600401613d99565b6040516317a05b0960e31b81526001600160a01b0382811660048301525f9182918291829187169063bd02d84890602401606060405180830381865afa158015610bc2573d5f5f3e3d5ffd5b505050506040513d601f19601f82011682018060405250810190610be69190613eae565b604051635f30114960e01b81526001600160a01b03898116600483015293975091955093505f91891690635f30114990602401602060405180830381865afa158015610c34573d5f5f3e3d5ffd5b505050506040513d601f19601f82011682018060405250810190610c589190613d5a565b9050838114915082610c6a5750610ec0565b5f886001600160a01b03166379502c556040518163ffffffff1660e01b8152600401602060405180830381865afa158015610ca7573d5f5f3e3d5ffd5b505050506040513d601f19601f82011682018060405250810190610ccb9190613ee1565b6040516394c0527d60e01b81526001600160a01b0389811660048301529192505f918316906394c0527d9060240161044060405180830381865afa158015610d15573d5f5f3e3d5ffd5b505050506040513d601f19601f82011682018060405250810190610d39919061401f565b5060808101516040516370a0823160e01b81526001600160a01b038b811660048301529293505f92909116906370a0823190602401602060405180830381865afa158015610d89573d5f5f3e3d5ffd5b505050506040513d601f19601f82011682018060405250810190610dad9190613d5a565b9050805f03610dbf5750505050610ec0565b5f82604001516001600160a01b0316637ff00077835f6040518363ffffffff1660e01b8152600401610df2929190614054565b602060405180830381865afa158015610e0d573d5f5f3e3d5ffd5b505050506040513d601f19601f82011682018060405250810190610e319190613d5a565b9050805f03610e44575050505050610ec0565b5f83604001516001600160a01b0316630910a5106040518163ffffffff1660e01b8152600401602060405180830381865afa158015610e85573d5f5f3e3d5ffd5b505050506040513d601f19601f82011682018060405250810190610ea99190613d5a565b905089610eb6838361407c565b1097505050505050505b93509350935093565b60605f8290505f816001600160a01b031663fb71aec56040518163ffffffff1660e01b81526004015f60405180830381865afa158015610f0b573d5f5f3e3d5ffd5b505050506040513d5f823e601f3d908101601f19168201604052610f3291908101906140fa565b905080516001600160401b03811115610f4d57610f4d613da7565b604051908082528060200260200182016040528015610f8057816020015b6060815260200190600190039081610f6b5790505b5092505f5b8151811015611035575f828281518110610fa157610fa1613dbb565b60200260200101519050610fb481612898565b15610ff4575f610fc3826141c3565b60601c9050610fd18161293f565b868481518110610fe357610fe3613dbb565b60200260200101819052505061102c565b82828151811061100657611006613dbb565b602002602001015185838151811061102057611020613dbb565b60200260200101819052505b50600101610f85565b505050919050565b5f61061f82612955565b5f816001600160a01b0316630910a5106040518163ffffffff1660e01b8152600401602060405180830381865afa158015610662573d5f5f3e3d5ffd5b5f5f5f836001600160a01b03166379502c556040518163ffffffff1660e01b8152600401602060405180830381865afa1580156110c3573d5f5f3e3d5ffd5b505050506040513d601f19601f820116820180604052508101906110e79190613ee1565b60405163e48a5f7b60e01b81526001600160a01b038681166004830152919091169063e48a5f7b9060240161022060405180830381865afa15801561112e573d5f5f3e3d5ffd5b505050506040513d601f19601f820116820180604052508101906111529190614216565b90508060e001519250806101000151915050915091565b6060816001600160a01b03163b5f036111a657505060408051808201909152600e81526d139bdd08184818dbdb9d1c9858dd60921b602082015290565b816001600160a01b031663ffa1ad746040518163ffffffff1660e01b81526004015f60405180830381865afa92505050801561120357506040513d5f823e601f3d908101601f191682016040526112009190810190614231565b60015b61061f5750506040805180820190915260068152656c656761637960d01b602082015290565b919050565b5f816001600160a01b0316639d35abaf6040518163ffffffff1660e01b815260040160a060405180830381865afa15801561126b573d5f5f3e3d5ffd5b505050506040513d601f19601f8201168201806040525081019061128f9190614278565b50506001600160c01b03909216949350505050565b5f6112af838361275b565b509392505050565b5f816001600160a01b03166379502c556040518163ffffffff1660e01b8152600401602060405180830381865afa1580156112f4573d5f5f3e3d5ffd5b505050506040513d601f19601f820116820180604052508101906113189190613ee1565b60405163e48a5f7b60e01b81526001600160a01b038481166004830152919091169063e48a5f7b9060240161022060405180830381865afa15801561135f573d5f5f3e3d5ffd5b505050506040513d601f19601f820116820180604052508101906113839190614216565b610120015192915050565b5f5f61139a8484612a61565b909590945092505050565b60405163b6d821c760e01b81525f906001600160a01b0383169063b6d821c7906106ef90600190600401613d99565b5f61061f82612da7565b6040516370a0823160e01b81526001600160a01b0382811660048301525f9190841690634cdad5069082906370a0823190602401602060405180830381865afa15801561142d573d5f5f3e3d5ffd5b505050506040513d601f19601f820116820180604052508101906114519190613d5a565b6040518263ffffffff1660e01b815260040161074191815260200190565b5f5f826001600160a01b0316639ef2fda06040518163ffffffff1660e01b8152600401606060405180830381865afa1580156114ad573d5f5f3e3d5ffd5b505050506040513d601f19601f820116820180604052508101906114d191906142cf565b80519091501561150257805160208201516114f590670de0b6b3a76400009061432d565b6114ff9190614358565b91505b50919050565b5f5f826001600160a01b03166379502c556040518163ffffffff1660e01b8152600401602060405180830381865afa158015611546573d5f5f3e3d5ffd5b505050506040513d601f19601f8201168201806040525081019061156a9190613ee1565b60405163e48a5f7b60e01b81526001600160a01b038581166004830152919091169063e48a5f7b9060240161022060405180830381865afa1580156115b1573d5f5f3e3d5ffd5b505050506040513d601f19601f820116820180604052508101906115d59190614216565b61012001516040516364efe17760e01b81526001600160a01b038581166004830152426024830152919250908216906364efe17790604401602060405180830381865afa158015611628573d5f5f3e3d5ffd5b505050506040513d601f19601f820116820180604052508101906114ff9190613d5a565b5f5f5f846001600160a01b03166379502c556040518163ffffffff1660e01b8152600401602060405180830381865afa15801561168b573d5f5f3e3d5ffd5b505050506040513d601f19601f820116820180604052508101906116af9190613ee1565b6040516394c0527d60e01b81526001600160a01b03868116600483015291909116906394c0527d9060240161044060405180830381865afa1580156116f6573d5f5f3e3d5ffd5b505050506040513d601f19601f8201168201806040525081019061171a919061401f565b604081015191935091506001600160a01b03161561173b5781610160015192505b505092915050565b5f5f5f5f5f856001600160a01b03166379502c556040518163ffffffff1660e01b8152600401602060405180830381865afa158015611784573d5f5f3e3d5ffd5b505050506040513d601f19601f820116820180604052508101906117a89190613ee1565b604051630509af0560e51b81526001600160a01b038881166004830152919091169063a135e0a090602401608060405180830381865afa1580156117ee573d5f5f3e3d5ffd5b505050506040513d601f19601f82011682018060405250810190611812919061436b565b9050809350819450829550505050856001600160a01b031663c45a01556040518163ffffffff1660e01b8152600401602060405180830381865afa15801561185c573d5f5f3e3d5ffd5b505050506040513d601f19601f820116820180604052508101906118809190613ee1565b604051630c0d053960e11b81526001600160a01b038881166004830152919091169063181a0a72906024016040805180830381865afa1580156118c5573d5f5f3e3d5ffd5b505050506040513d601f19601f820116820180604052508101906118e991906143ab565b909790965092945090925090565b5f5f5f846001600160a01b031663aecc90cb6040518163ffffffff1660e01b81526004016040805180830381865afa158015611935573d5f5f3e3d5ffd5b505050506040513d601f19601f8201168201806040525081019061195991906143ab565b60405163e48a5f7b60e01b81526001600160a01b0380841660048301529294509092505f9187169063e48a5f7b9060240161022060405180830381865afa1580156119a6573d5f5f3e3d5ffd5b505050506040513d601f19601f820116820180604052508101906119ca9190614216565b60405163e48a5f7b60e01b81526001600160a01b0384811660048301529192505f9188169063e48a5f7b9060240161022060405180830381865afa158015611a14573d5f5f3e3d5ffd5b505050506040513d601f19601f82011682018060405250810190611a389190614216565b60a08301516040516370a0823160e01b81526001600160a01b0389811660048301529293509116906370a0823190602401602060405180830381865afa158015611a84573d5f5f3e3d5ffd5b505050506040513d601f19601f82011682018060405250810190611aa89190613d5a565b15611aba57600194505050505061061f565b60808201516040516370a0823160e01b81526001600160a01b038881166004830152909116906370a0823190602401602060405180830381865afa158015611b04573d5f5f3e3d5ffd5b505050506040513d601f19601f82011682018060405250810190611b289190613d5a565b15611b3a57600194505050505061061f565b60a08101516040516370a0823160e01b81526001600160a01b038881166004830152909116906370a0823190602401602060405180830381865afa158015611b84573d5f5f3e3d5ffd5b505050506040513d601f19601f82011682018060405250810190611ba89190613d5a565b15611bba57600194505050505061061f565b60808101516040516370a0823160e01b81526001600160a01b038881166004830152909116906370a0823190602401602060405180830381865afa158015611c04573d5f5f3e3d5ffd5b505050506040513d601f19601f82011682018060405250810190611c289190613d5a565b15611c3a57600194505050505061061f565b60c08201516040516370a0823160e01b81526001600160a01b038881166004830152909116906370a0823190602401602060405180830381865afa158015611c84573d5f5f3e3d5ffd5b505050506040513d601f19601f82011682018060405250810190611ca89190613d5a565b15611cba57600194505050505061061f565b60c08101516040516370a0823160e01b81526001600160a01b038881166004830152909116906370a0823190602401602060405180830381865afa158015611d04573d5f5f3e3d5ffd5b505050506040513d601f19601f82011682018060405250810190611d289190613d5a565b15611d3a57600194505050505061061f565b505f9695505050505050565b5f816001600160a01b03166379502c556040518163ffffffff1660e01b8152600401602060405180830381865afa158015611d83573d5f5f3e3d5ffd5b505050506040513d601f19601f82011682018060405250810190611da79190613ee1565b60405163e48a5f7b60e01b81526001600160a01b038481166004830152919091169063e48a5f7b9060240161022060405180830381865afa158015611dee573d5f5f3e3d5ffd5b505050506040513d601f19601f82011682018060405250810190611e129190614216565b610160015192915050565b5f5f5f846001600160a01b03166379502c556040518163ffffffff1660e01b8152600401602060405180830381865afa158015611e5c573d5f5f3e3d5ffd5b505050506040513d601f19601f82011682018060405250810190611e809190613ee1565b6040516394c0527d60e01b81526001600160a01b03868116600483015291909116906394c0527d9060240161044060405180830381865afa158015611ec7573d5f5f3e3d5ffd5b505050506040513d601f19601f82011682018060405250810190611eeb919061401f565b604081015191935091506001600160a01b03161561173b57611f8f8282865f60018660c001516001600160a01b03166370a082318b6040518263ffffffff1660e01b8152600401611f4b91906001600160a01b0391909116815260200190565b602060405180830381865afa158015611f66573d5f5f3e3d5ffd5b505050506040513d601f19601f82011682018060405250810190611f8a9190613d5a565b612e88565b95945050505050565b5f5f5f5f856001600160a01b03166379502c556040518163ffffffff1660e01b8152600401602060405180830381865afa158015611fd8573d5f5f3e3d5ffd5b505050506040513d601f19601f82011682018060405250810190611ffc9190613ee1565b6040516394c0527d60e01b81526001600160a01b03878116600483015291909116906394c0527d9060240161044060405180830381865afa158015612043573d5f5f3e3d5ffd5b505050506040513d601f19601f82011682018060405250810190612067919061401f565b604081015191935091506001600160a01b0316156120d2576120c78282875f60018660c001516001600160a01b03166370a082318c6040518263ffffffff1660e01b8152600401611f4b91906001600160a01b0391909116815260200190565b935081610160015192505b50509250929050565b5f5f826001600160a01b031663a1ff9bee6040518163ffffffff1660e01b8152600401602060405180830381865afa158015612119573d5f5f3e3d5ffd5b505050506040513d601f19601f8201168201806040525081019061213d9190613d5a565b9050805f0361214e57505f92915050565b5f836001600160a01b03166379502c556040518163ffffffff1660e01b8152600401602060405180830381865afa15801561218b573d5f5f3e3d5ffd5b505050506040513d601f19601f820116820180604052508101906121af9190613ee1565b60405163e48a5f7b60e01b81526001600160a01b038681166004830152919091169063e48a5f7b9060240161022060405180830381865afa1580156121f6573d5f5f3e3d5ffd5b505050506040513d601f19601f8201168201806040525081019061221a9190614216565b905081846001600160a01b031663ecd658b46040518163ffffffff1660e01b8152600401602060405180830381865afa158015612259573d5f5f3e3d5ffd5b505050506040513d601f19601f8201168201806040525081019061227d9190613d5a565b61228686611508565b612290919061432d565b61229a9190614358565b60208201518251919450670de0b6b3a7640000916122b890836143d8565b6122c291906143d8565b6122cc908561432d565b610a8e9190614358565b5f816001600160a01b03166379502c556040518163ffffffff1660e01b8152600401602060405180830381865afa158015612313573d5f5f3e3d5ffd5b505050506040513d601f19601f820116820180604052508101906123379190613ee1565b60405163e48a5f7b60e01b81526001600160a01b038481166004830152919091169063e48a5f7b9060240161022060405180830381865afa15801561237e573d5f5f3e3d5ffd5b505050506040513d601f19601f820116820180604052508101906123a29190614216565b610140015192915050565b5f5f5f846001600160a01b03166379502c556040518163ffffffff1660e01b8152600401602060405180830381865afa1580156123ec573d5f5f3e3d5ffd5b505050506040513d601f19601f820116820180604052508101906124109190613ee1565b604051630483b24f60e41b81526001600160a01b038781166004830152919091169063483b24f090602401606060405180830381865afa158015612456573d5f5f3e3d5ffd5b505050506040513d601f19601f8201168201806040525081019061247a91906143eb565b506040516370a0823160e01b81526001600160a01b0387811660048301529294509092505f918416906370a0823190602401602060405180830381865afa1580156124c7573d5f5f3e3d5ffd5b505050506040513d601f19601f820116820180604052508101906124eb9190613d5a565b6040516370a0823160e01b81526001600160a01b0387811660048301529192505f918416906370a0823190602401602060405180830381865afa158015612534573d5f5f3e3d5ffd5b505050506040513d601f19601f820116820180604052508101906125589190613d5a565b905081156125d05760405163a7d6e44b60e01b81526001600160a01b0388169063a7d6e44b9061258e9085905f9060040161442a565b602060405180830381865afa1580156125a9573d5f5f3e3d5ffd5b505050506040513d601f19601f820116820180604052508101906125cd9190613d5a565b94505b80156126515760405163a7d6e44b60e01b81526001600160a01b0388169063a7d6e44b9061260590849060019060040161442a565b602060405180830381865afa158015612620573d5f5f3e3d5ffd5b505050506040513d601f19601f820116820180604052508101906126449190613d5a565b61264e908661407c565b94505b5050505092915050565b6040516394c0527d60e01b81526001600160a01b0382811660048301525f9182918516906394c0527d9060240161044060405180830381865afa1580156126a4573d5f5f3e3d5ffd5b505050506040513d601f19601f820116820180604052508101906126c8919061401f565b60c08101519092506001600160a01b03161580159150610a8e575060c08101516040516370a0823160e01b81526001600160a01b038581166004830152909116906370a0823190602401602060405180830381865afa15801561272d573d5f5f3e3d5ffd5b505050506040513d601f19601f820116820180604052508101906127519190613d5a565b1515949350505050565b6040516394c0527d60e01b81526001600160a01b0382811660048301525f918291829182918716906394c0527d9060240161044060405180830381865afa1580156127a8573d5f5f3e3d5ffd5b505050506040513d601f19601f820116820180604052508101906127cc919061401f565b606082015191935091506001600160a01b03166127f0575f5f935093505050612891565b60c08101516040516370a0823160e01b81526001600160a01b0380881660048301525f9261287292869286928b92879260019216906370a0823190602401602060405180830381865afa158015612849573d5f5f3e3d5ffd5b505050506040513d601f19601f8201168201806040525081019061286d9190613d5a565b612edf565b9050612887818460600151846060015161315c565b5090955093505050505b9250929050565b5f81516014146128a957505f919050565b5f6128b3836141c3565b60601c90506128c1816131b2565b515f036128d057505f92915050565b6040516370a0823160e01b81523060048201526001600160a01b038216906370a0823190602401602060405180830381865afa925050508015612930575060408051601f3d908101601f1916820190925261292d91810190613d5a565b60015b15611502575060019392505050565b606061061f6001600160a01b03831660146131d8565b5f5f826001600160a01b03166379502c556040518163ffffffff1660e01b8152600401602060405180830381865afa158015612993573d5f5f3e3d5ffd5b505050506040513d601f19601f820116820180604052508101906129b79190613ee1565b604051630483b24f60e41b81526001600160a01b038581166004830152919091169063483b24f090602401606060405180830381865afa1580156129fd573d5f5f3e3d5ffd5b505050506040513d601f19601f82011682018060405250810190612a2191906143eb565b92505050806001600160a01b03166318160ddd6040518163ffffffff1660e01b8152600401602060405180830381865afa158015611628573d5f5f3e3d5ffd5b5f5f5f846001600160a01b0316638fea80626040518163ffffffff1660e01b8152600401602060405180830381865afa158015612aa0573d5f5f3e3d5ffd5b505050506040513d601f19601f82011682018060405250810190612ac49190613ee1565b6040516317a05b0960e31b81526001600160a01b0386811660048301529192509082169063bd02d84890602401606060405180830381865afa158015612b0c573d5f5f3e3d5ffd5b505050506040513d601f19601f82011682018060405250810190612b309190613eae565b5090935091505f839003612b4a575f5f9250925050612891565b5f5f866001600160a01b03166379502c556040518163ffffffff1660e01b8152600401602060405180830381865afa158015612b88573d5f5f3e3d5ffd5b505050506040513d601f19601f82011682018060405250810190612bac9190613ee1565b6040516394c0527d60e01b81526001600160a01b03888116600483015291909116906394c0527d9060240161044060405180830381865afa158015612bf3573d5f5f3e3d5ffd5b505050506040513d601f19601f82011682018060405250810190612c17919061401f565b60e082015191935091505f906001600160a01b031615612caf5760e083015160608401516040516313b0be3360e01b8152600481018990526001600160a01b0391821660248201529116906313b0be3390604401602060405180830381865afa158015612c86573d5f5f3e3d5ffd5b505050506040513d601f19601f82011682018060405250810190612caa9190613d5a565b612cb1565b855b60e08301519091505f906001600160a01b031615612d475760e083015160608401516040516313b0be3360e01b8152600481018990526001600160a01b0391821660248201529116906313b0be3390604401602060405180830381865afa158015612d1e573d5f5f3e3d5ffd5b505050506040513d601f19601f82011682018060405250810190612d429190613d5a565b612d49565b855b90505f846101a00151670de0b6b3a7640000612d65919061407c565b612d77670de0b6b3a76400008561432d565b612d819190614358565b905081612d8e828961432d565b612d989190614358565b96505050505050509250929050565b5f61061f826001600160a01b031663b6d821c760016040518263ffffffff1660e01b8152600401612dd89190613d99565b602060405180830381865afa158015612df3573d5f5f3e3d5ffd5b505050506040513d601f19601f82011682018060405250810190612e179190613d5a565b60405163b6d821c760e01b81526001600160a01b0385169063b6d821c790612e4490600290600401613d99565b602060405180830381865afa158015612e5f573d5f5f3e3d5ffd5b505050506040513d601f19601f82011682018060405250810190612e839190613d5a565b61334d565b5f815f03612e9757505f612ed5565b5f612ea6888888888888612edf565b905080608001515f03612ebc575f915050612ed5565b612ecf818960600151896060015161315c565b93505050505b9695505050505050565b612f1e6040518060a001604052805f6001600160a01b031681526020015f6001600160a01b031681526020015f81526020015f81526020015f81525090565b85606001516001600160a01b031687606001516001600160a01b031614612f88576001846001811115612f5357612f53613d71565b14612f67578660e001518660e00151612f74565b8661010001518661010001515b6001600160a01b0390811660208401521681525b5f5f612f998960800151885f613365565b80935081925050505f5f8a604001516001600160a01b031663ffbaaf7a6040518163ffffffff1660e01b81526004016040805180830381865afa158015612fe2573d5f5f3e3d5ffd5b505050506040513d601f19601f82011682018060405250810190613006919061444e565b915091506130178382865f5f61344d565b604086015260a08b015161302c908a5f613365565b94509250600187600181111561304457613044613d71565b1461304f578161306b565b61306b8b604001518c61012001518d5f01518e60200151613488565b915061307b8383865f600161344d565b606086015260c08a0151613090908a88613365565b945092505f60018860018111156130a9576130a9613d71565b14613123578a604001516001600160a01b031663b6d821c760026040518263ffffffff1660e01b81526004016130df9190613d99565b602060405180830381865afa1580156130fa573d5f5f3e3d5ffd5b505050506040513d601f19601f8201168201806040525081019061311e9190613d5a565b613136565b6131368b604001518c610120015161357e565b90506131478482876001600261344d565b608087015250939a9950505050505050505050565b5f5f5f61316a868686613671565b90935091508215801561317b575081155b1561318d57505f9150819050806131a9565b825f0361319c57505f196131a9565b6131a682846137c7565b90505b93509350939050565b60408051603f833b908101601f1916820190925281815290805f60208401853c50919050565b6060825f6131e784600261432d565b6131f290600261407c565b6001600160401b0381111561320957613209613da7565b6040519080825280601f01601f191660200182016040528015613233576020820181803683370190505b509050600360fc1b815f8151811061324d5761324d613dbb565b60200101906001600160f81b03191690815f1a905350600f60fb1b8160018151811061327b5761327b613dbb565b60200101906001600160f81b03191690815f1a9053505f61329d85600261432d565b6132a890600161407c565b90505b600181111561331f576f181899199a1a9b1b9c1cb0b131b232b360811b83600f16601081106132dc576132dc613dbb565b1a60f81b8282815181106132f2576132f2613dbb565b60200101906001600160f81b03191690815f1a90535060049290921c9161331881614470565b90506132ab565b508115610a8e5760405163e22e27eb60e01b8152600481018690526024810185905260440160405180910390fd5b5f82821161335d57818303610691565b5f9392505050565b5f5f825f036133df5760405163dce5c2db60e01b81526001600160a01b03858116600483015286169063dce5c2db906024016040805180830381865afa1580156133b1573d5f5f3e3d5ffd5b505050506040513d601f19601f820116820180604052508101906133d5919061444e565b9092509050613445565b829150846001600160a01b03166318160ddd6040518163ffffffff1660e01b8152600401602060405180830381865afa15801561341e573d5f5f3e3d5ffd5b505050506040513d601f19601f820116820180604052508101906134429190613d5a565b90505b935093915050565b5f5f5f61345b8787866137dd565b91509150815f03613470578792505050611f8f565b61347c88828488613838565b98975050505050505050565b6040516367efe7fd60e11b81526001600160a01b0385811660048301524260248301525f91829186169063cfdfcffa90604401602060405180830381865afa9250505080156134f4575060408051601f3d908101601f191682019092526134f191810190613d5a565b60015b156134fc5790505b5f5f876001600160a01b03166339c5c5056040518163ffffffff1660e01b81526004016040805180830381865afa158015613539573d5f5f3e3d5ffd5b505050506040513d601f19601f8201168201806040525081019061355d919061444e565b9150915061356e828285898961387a565b50919a9950505050505050505050565b6040516367efe7fd60e11b81526001600160a01b0383811660048301524260248301525f91829184169063cfdfcffa90604401602060405180830381865afa9250505080156135ea575060408051601f3d908101601f191682019092526135e791810190613d5a565b60015b156135f25790505b60405163b6d821c760e01b8152613668906001600160a01b0386169063b6d821c79061362390600290600401613d99565b602060405180830381865afa15801561363e573d5f5f3e3d5ffd5b505050506040513d601f19601f820116820180604052508101906136629190613d5a565b826138d4565b50949350505050565b5f5f5f85606001518660400151613688919061407c565b9050801561371a5785516001600160a01b03166136a55780613717565b85516040516313b0be3360e01b8152600481018390526001600160a01b038781166024830152909116906313b0be3390604401602060405180830381865afa1580156136f3573d5f5f3e3d5ffd5b505050506040513d601f19601f820116820180604052508101906137179190613d5a565b92505b6080860151156137be5760208601516001600160a01b03166137405785608001516137bb565b602086015160808701516040516313b0be3360e01b815260048101919091526001600160a01b038681166024830152909116906313b0be3390604401602060405180830381865afa158015613797573d5f5f3e3d5ffd5b505050506040513d601f19601f820116820180604052508101906137bb9190613d5a565b91505b50935093915050565b5f61069183670de0b6b3a7640000846001613838565b5f5f835f036137ea575f94505b60028360028111156137fe576137fe613d71565b146138295761380f6003600a614560565b613819908561407c565b61382486600161407c565b61382c565b83855b90969095509350505050565b5f6138656138458361391c565b801561386057505f848061385b5761385b614344565b868809115b151590565b613870868686613948565b611f8f919061407c565b5f5f5f5f61388888886138d4565b90935090508585016138a38282670de0b6b3a7640000613a05565b92505f6138b084846143d8565b90508a19818110156138c0578091505b818c01965050505095509550955095915050565b5f808315806138e1575082155b156138f057508290505f612891565b6139038484670de0b6b3a7640000613a05565b9050808401915083821015612891575091925f92509050565b5f600282600381111561393157613931613d71565b61393b919061456b565b60ff166001149050919050565b5f838302815f1985870982811083820303915050805f0361397c5783828161397257613972614344565b0492505050610691565b80841161399a5761399a8415613993576011613a4d565b6012613a4d565b5f848688095f868103871696879004966002600389028118808a02820302808a02820302808a02820302808a02820302808a02820302808a02909103029181900381900460010186841190950394909402919094039290920491909117919091029150509392505050565b5f835f03613a1457505f610691565b5082820282848281613a2857613a28614344565b0414613a3557505f610691565b818181613a4457613a44614344565b04949350505050565b634e487b715f52806020526024601cfd5b6001600160a01b0381168114613a72575f5ffd5b50565b5f60208284031215613a85575f5ffd5b813561069181613a5e565b5f5f60408385031215613aa1575f5ffd5b8235613aac81613a5e565b91506020830135613abc81613a5e565b809150509250929050565b5f5f60208385031215613ad8575f5ffd5b82356001600160401b03811115613aed575f5ffd5b8301601f81018513613afd575f5ffd5b80356001600160401b03811115613b12575f5ffd5b8560208260061b8401011115613b26575f5ffd5b6020919091019590945092505050565b602080825282518282018190525f918401906040840190835b81811015613b8257613b6c83855180518252602090810151910152565b6020939093019260409290920191600101613b4f565b509095945050505050565b5f5f60208385031215613b9e575f5ffd5b82356001600160401b03811115613bb3575f5ffd5b8301601f81018513613bc3575f5ffd5b80356001600160401b03811115613bd8575f5ffd5b8560208260051b8401011115613b26575f5ffd5b602080825282518282018190525f918401906040840190835b81811015613b8257613c2283855180518252602090810151910152565b6020939093019260409290920191600101613c05565b602080825282518282018190525f918401906040840190835b81811015613b82578351835260209384019390920191600101613c51565b5f5f5f60608486031215613c81575f5ffd5b8335613c8c81613a5e565b92506020840135613c9c81613a5e565b91506040840135613cac81613a5e565b809150509250925092565b5f81518084528060208401602086015e5f602082860101526020601f19601f83011685010191505092915050565b5f602082016020835280845180835260408501915060408160051b8601019250602086015f5b82811015613d3c57603f19878603018452613d27858351613cb7565b94506020938401939190910190600101613d0b565b50929695505050505050565b602081525f6106916020830184613cb7565b5f60208284031215613d6a575f5ffd5b5051919050565b634e487b7160e01b5f52602160045260245ffd5b60038110613d9557613d95613d71565b9052565b6020810161061f8284613d85565b634e487b7160e01b5f52604160045260245ffd5b634e487b7160e01b5f52603260045260245ffd5b60405161022081016001600160401b0381118282101715613df257613df2613da7565b60405290565b604051601f8201601f191681016001600160401b0381118282101715613e2057613e20613da7565b604052919050565b5f6040828403128015613e39575f5ffd5b50604080519081016001600160401b0381118282101715613e5c57613e5c613da7565b6040528235613e6a81613a5e565b81526020830135613e7a81613a5e565b60208201529392505050565b80518015158114611229575f5ffd5b5f60208284031215613ea5575f5ffd5b61069182613e86565b5f5f5f60608486031215613ec0575f5ffd5b835160208501519093509150613ed860408501613e86565b90509250925092565b5f60208284031215613ef1575f5ffd5b815161069181613a5e565b805161122981613a5e565b5f6102208284031215613f18575f5ffd5b613f20613dcf565b82518152602080840151908201529050613f3c60408301613efc565b6040820152613f4d60608301613efc565b6060820152613f5e60808301613efc565b6080820152613f6f60a08301613efc565b60a0820152613f8060c08301613efc565b60c0820152613f9160e08301613efc565b60e0820152613fa36101008301613efc565b610100820152613fb66101208301613efc565b6101208201526101408281015190820152610160808301519082015261018080830151908201526101a080830151908201526101c080830151908201526140006101e08301613efc565b6101e08201526140136102008301613e86565b61020082015292915050565b5f5f6104408385031215614031575f5ffd5b61403b8484613f07565b915061404b846102208501613f07565b90509250929050565b828152604081016106916020830184613d85565b634e487b7160e01b5f52601160045260245ffd5b8082018082111561061f5761061f614068565b5f82601f83011261409e575f5ffd5b81516001600160401b038111156140b7576140b7613da7565b6140ca601f8201601f1916602001613df8565b8181528460208386010111156140de575f5ffd5b8160208501602083015e5f918101602001919091529392505050565b5f6020828403121561410a575f5ffd5b81516001600160401b0381111561411f575f5ffd5b8201601f8101841361412f575f5ffd5b80516001600160401b0381111561414857614148613da7565b8060051b61415860208201613df8565b91825260208184018101929081019087841115614173575f5ffd5b6020850192505b838310156141b85782516001600160401b03811115614197575f5ffd5b6141a68960208389010161408f565b8352506020928301929091019061417a565b979650505050505050565b805160208201516bffffffffffffffffffffffff1981169190601482101561420f576bffffffffffffffffffffffff196bffffffffffffffffffffffff198360140360031b1b82161692505b5050919050565b5f6102208284031215614227575f5ffd5b6106918383613f07565b5f60208284031215614241575f5ffd5b81516001600160401b03811115614256575f5ffd5b610a8e8482850161408f565b80516001600160401b0381168114611229575f5ffd5b5f5f5f5f5f60a0868803121561428c575f5ffd5b85516001600160c01b03811681146142a2575f5ffd5b94506142b060208701614262565b6040870151606088015160809098015196999198509695945092505050565b5f60608284031280156142e0575f5ffd5b50604051606081016001600160401b038111828210171561430357614303613da7565b60409081528351825260208085015190830152614321908401614262565b60408201529392505050565b808202811582820484141761061f5761061f614068565b634e487b7160e01b5f52601260045260245ffd5b5f8261436657614366614344565b500490565b5f5f5f5f6080858703121561437e575f5ffd5b845160208601516040870151606088015192965090945092506143a081613a5e565b939692955090935050565b5f5f604083850312156143bc575f5ffd5b82516143c781613a5e565b6020840151909250613abc81613a5e565b8181038181111561061f5761061f614068565b5f5f5f606084860312156143fd575f5ffd5b835161440881613a5e565b602085015190935061441981613a5e565b6040850151909250613cac81613a5e565b828152604081016002831061444157614441613d71565b8260208301529392505050565b5f5f6040838503121561445f575f5ffd5b505080516020909101519092909150565b5f8161447e5761447e614068565b505f190190565b6001815b6001841115613445578085048111156144a4576144a4614068565b60018416156144b257908102905b60019390931c928002614489565b5f826144ce5750600161061f565b816144da57505f61061f565b81600181146144f057600281146144fa57614516565b600191505061061f565b60ff84111561450b5761450b614068565b50506001821b61061f565b5060208310610133831016604e8410600b8410161715614539575081810a61061f565b6145455f198484614485565b805f190482111561455857614558614068565b029392505050565b5f61069183836144c0565b5f60ff83168061457d5761457d614344565b8060ff8416069150509291505056fea26469706673582212204bdec1f6dcfda48ff80fb0910e4383cdd484df94782b060be77256406ffd6e6764736f6c634300081c0033",
  "language": "Solidity",
  "compiler": "0.8.28+commit.7893614a"
}