{
  "address": "0xbc4eE059Cb3969DDB7770f67d9E3FDEE386f3f75",
  "abi": [
    {
      "type": "function",
      "name": "create",
      "inputs": [
        {
          "name": "_owner",
          "type": "address",
          "internalType": "address"
        },
        {
          "name": "_notifier",
          "type": "address",
          "internalType": "address"
        },
        {
          "name": "_shareToken",
          "type": "address",
          "internalType": "address"
        },
        {
          "name": "_externalSalt",
          "type": "bytes32",
          "internalType": "bytes32"
        }
      ],
      "outputs": [
        {
          "name": "controller",
          "type": "address",
          "internalType": "address"
        }
      ],
      "stateMutability": "nonpayable"
    },
    {
      "type": "function",
      "name": "isSiloIncentivesController",
      "inputs": [
        {
          "name": "",
          "type": "address",
          "internalType": "address"
        }
      ],
      "outputs": [
        {
          "name": "",
          "type": "bool",
          "internalType": "bool"
        }
      ],
      "stateMutability": "view"
    },
    {
      "type": "function",
      "name": "nonces",
      "inputs": [
        {
          "name": "owner",
          "type": "address",
          "internalType": "address"
        }
      ],
      "outputs": [
        {
          "name": "",
          "type": "uint256",
          "internalType": "uint256"
        }
      ],
      "stateMutability": "view"
    },
    {
      "type": "event",
      "name": "SiloIncentivesControllerCreated",
      "inputs": [
        {
          "name": "controller",
          "type": "address",
          "indexed": true,
          "internalType": "address"
        }
      ],
      "anonymous": false
    },
    {
      "type": "error",
      "name": "InvalidAccountNonce",
      "inputs": [
        {
          "name": "account",
          "type": "address",
          "internalType": "address"
        },
        {
          "name": "currentNonce",
          "type": "uint256",
          "internalType": "uint256"
        }
      ]
    }
  ],
  "bytecode": "0x6080604052348015600e575f5ffd5b506137748061001c5f395ff3fe608060405234801561000f575f5ffd5b506004361061003f575f3560e01c80630f52994a146100435780637ecebe001461007a578063f0eb5ab2146100b0575b5f5ffd5b610065610051366004610201565b60016020525f908152604090205460ff1681565b60405190151581526020015b60405180910390f35b6100a2610088366004610201565b6001600160a01b03165f9081526020819052604090205490565b604051908152602001610071565b6100c36100be366004610221565b6100db565b6040516001600160a01b039091168152602001610071565b335f81815260208181526040808320805460018101909155815160609590951b6bffffffffffffffffffffffff1916858401526034850152605480850186905281518086039091018152607490940190528251920191909120858585604051610143906101d9565b6001600160a01b039384168152918316602083015290911660408201526060018190604051809103905ff5905080158015610180573d5f5f3e3d5ffd5b506001600160a01b0381165f818152600160208190526040808320805460ff19169092179091555192935090917f0a53f473a13c410d2f112a9928b8c3b24774adb46b692a6c99999d13fcc7416c9190a2949350505050565b6134d58061026a83390190565b80356001600160a01b03811681146101fc575f5ffd5b919050565b5f60208284031215610211575f5ffd5b61021a826101e6565b9392505050565b5f5f5f5f60808587031215610234575f5ffd5b61023d856101e6565b935061024b602086016101e6565b9250610259604086016101e6565b939692955092936060013592505056fe60c060405234801561000f575f5ffd5b506040516134d53803806134d583398101604081905261002e9161015d565b82828181816001600160a01b03811661006057604051631e4fbdf760e01b81525f600482015260240160405180910390fd5b610069816100d7565b506001600160a01b0381166100915760405163d92e233d60e01b815260040160405180910390fd5b6001600160a01b03908116608052841692506100c39150505760405163a5c9497760e01b815260040160405180910390fd5b6001600160a01b031660a0525061019d9050565b600180546001600160a01b03191690556100f0816100f3565b50565b5f80546001600160a01b038381166001600160a01b0319831681178455604051919092169283917f8be0079c531659141344cd1fd0a4f28419497f9722a3daafe3b4186f6b6457e09190a35050565b80516001600160a01b0381168114610158575f5ffd5b919050565b5f5f5f6060848603121561016f575f5ffd5b61017884610142565b925061018660208501610142565b915061019460408501610142565b90509250925092565b60805160a0516132df6101f65f395f81816101f0015281816102310152818161060f01528181610e94015281816111680152818161176c01526117f901525f818161039d015281816105c00152610c9901526132df5ff3fe608060405234801561000f575f5ffd5b50600436106101e7575f3560e01c8063aaf5eb6811610109578063cfc262371161009e578063f2fde38b1161006e578063f2fde38b14610567578063f5ba47501461057a578063f5cf673b1461058d578063fb71aec5146105a0575f5ffd5b8063cfc2623714610491578063e30c397814610530578063e7b8b9c414610541578063ef5cfb8c14610554575f5ffd5b8063bec1e022116100d9578063bec1e02214610445578063c1616f6914610458578063cc0801641461046b578063cd72a4bf1461047e575f5ffd5b8063aaf5eb68146103f2578063b5a890651461040c578063b90817f21461041f578063bbdc013b14610432575f5ffd5b806379ba50971161017f5780638da5cb5b1161014f5780638da5cb5b146103885780639f2e6a0c14610398578063a5eb3f0d146103bf578063a7b800dd146103df575f5ffd5b806379ba5097146102e65780637d8bf6ec146102ee57806382794f39146103025780638ba2c3c814610375575f5ffd5b80636f564e7d116101ba5780636f564e7d1461028b578063711ec9ac146102ab578063715018a6146102b357806374d945ec146102bb575f5ffd5b80631d7e3556146101eb5780632ad87c6f1461022f5780632e953c211461025557806358703bed1461026a575b5f5ffd5b6102127f000000000000000000000000000000000000000000000000000000000000000081565b6040516001600160a01b0390911681526020015b60405180910390f35b7f0000000000000000000000000000000000000000000000000000000000000000610212565b61026861026336600461298c565b6105b5565b005b61027d610278366004612a04565b6107ac565b604051908152602001610226565b61029e610299366004612a52565b6108b6565b6040516102269190612a97565b61027d61090a565b610268610919565b6102126102c9366004612aa9565b6001600160a01b039081165f908152600760205260409020541690565b61026861092c565b61027d6c0c9f2c9cd04674edea4000000081565b610315610310366004612aff565b610975565b60405161022691905f60a0820190508251825260018060a01b0360208401511660208301526001600160681b03604084015116604083015264ffffffffff606084015116606083015264ffffffffff608084015116608083015292915050565b61027d610383366004612b3d565b610a53565b5f546001600160a01b0316610212565b6102127f000000000000000000000000000000000000000000000000000000000000000081565b6103d26103cd366004612a04565b610ac0565b6040516102269190612b7e565b61027d6103ed366004612ca7565b610b1f565b6103fa602481565b60405160ff9091168152602001610226565b61027d61041a366004612b3d565b610b9a565b61026861042d366004612aa9565b610c09565b610268610440366004612cd8565b610c8e565b610268610453366004612d40565b610dc2565b610268610466366004612da0565b610fb3565b61027d610479366004612b3d565b611064565b61026861048c366004612e3d565b6110cc565b6104eb61049f366004612a52565b60056020525f908152604090208054600182015460029092015490916001600160a01b0316906001600160681b0381169064ffffffffff600160681b8204811691600160901b90041685565b604080519586526001600160a01b0390941660208601526001600160681b039092169284019290925264ffffffffff918216606084015216608082015260a001610226565b6001546001600160a01b0316610212565b61027d61054f366004612aff565b611264565b6103d2610562366004612aa9565b6112cc565b610268610575366004612aa9565b611311565b6103d2610588366004612e8c565b611381565b61026861059b366004612ee8565b61144b565b6105a86114f7565b6040516102269190612f10565b336001600160a01b037f000000000000000000000000000000000000000000000000000000000000000016146105fd5760405162f09cf360e01b815260040160405180910390fd5b6001600160681b038116156107a8575f7f00000000000000000000000000000000000000000000000000000000000000006001600160a01b03166318160ddd6040518163ffffffff1660e01b8152600401602060405180830381865afa158015610669573d5f5f3e3d5ffd5b505050506040513d601f19601f8201168201806040525081019061068d9190612f73565b90505f610699846115b4565b5f8181526005602052604090209091506106b38284611655565b506002810180544264ffffffffff818116600160901b90810264ffffffffff60901b1985161790945592820492909216916001600160681b03909116906106fc90600190612f9e565b6002840180546001600160901b031916600160681b64ffffffffff93909316929092026001600160681b031916919091176001600160681b0388161790556107448486611655565b50600292909201805469ffffffffffffffffffff60681b1916600160901b64ffffffffff9384160264ffffffffff60681b191617600160681b429390931692909202919091176001600160681b0319166001600160681b0390921691909117905550505b5050565b5f5f5f5f6107b987611768565b90925090505f5b858110156108ab575f6108298888848181106107de576107de612fb1565b90506020028101906107f09190612fc5565b8080601f0160208091040260200160405190810160405280939291908181526020018383808284375f92019190915250610b1f92505050565b5f818152600560205260409020600101549091506001600160a01b0390811690861661085757809550610889565b806001600160a01b0316866001600160a01b031614610889576040516305ff3f2d60e41b815260040160405180910390fd5b6108958a83878761187e565b61089f9088613007565b965050506001016107c0565b505050509392505050565b5f8181526004602052604090205460609060ff16156108e0576108da8260146118c0565b92915050565b6108da826040516020016108f691815260200190565b604051602081830303815290604052611a39565b6109166024600a6130fd565b81565b610921611abe565b61092a5f611aea565b565b60015433906001600160a01b031681146109695760405163118cdaa760e01b81526001600160a01b03821660048201526024015b60405180910390fd5b61097281611aea565b50565b6040805160a0810182525f808252602082018190529181018290526060810182905260808101919091525f6109de84848080601f0160208091040260200160405190810160405280939291908181526020018383808284375f92019190915250610b1f92505050565b6040805160a0810182525f838152600560208181528483208054855260018101546001600160a01b031682860152600201546001600160681b0381169585019590955264ffffffffff600160681b860481166060860152959092529052600160901b9091049091166080820152949350505050565b5f5f610a9384848080601f0160208091040260200160405190810160405280939291908181526020018383808284375f92019190915250610b1f92505050565b6001600160a01b0386165f90815260066020908152604080832093835292905220549150505b9392505050565b60606001600160a01b038416610ae957604051638aa3a72f60e01b815260040160405180910390fd5b5f610af48484611b03565b9050610aff81611b94565b610b093382611bf1565b9150610b1733338785611cda565b509392505050565b80515f90602a819003610b4457610ab9610b3884611f94565b6001600160a01b031690565b8015801590610b54575060208111155b610b71576040516302d7eecb60e61b815260040160405180910390fd5b82604051602001610b829190613122565b604051602081830303815290604052610ab99061312d565b5f5f610bda84848080601f0160208091040260200160405190810160405280939291908181526020018383808284375f92019190915250610b1f92505050565b5f9081526005602090815260408083206001600160a01b03891684526003019091529020549150509392505050565b610c11611abe565b6040516370a0823160e01b81523060048201526109729033906001600160a01b038416906370a0823190602401602060405180830381865afa158015610c59573d5f5f3e3d5ffd5b505050506040513d601f19601f82011682018060405250810190610c7d9190612f73565b6001600160a01b0384169190612035565b336001600160a01b037f00000000000000000000000000000000000000000000000000000000000000001614610cd65760405162f09cf360e01b815260040160405180910390fd5b5f610ce16002612087565b9050846001600160a01b0316876001600160a01b03161480610d01575080155b15610d0c5750610dba565b6001600160a01b038716610d24578183039250610d37565b6001600160a01b038516610d3757918101915b6001600160a01b03871615610d4b57948101945b6001600160a01b03851615610d605781840393505b5f5b81811015610db7575f610d76600283612090565b90506001600160a01b03891615610d9357610d93818a878b61209b565b6001600160a01b03871615610dae57610dae8188878961209b565b50600101610d62565b50505b505050505050565b610dca611abe565b428264ffffffffff161015610df257604051636e03f20160e11b815260040160405180910390fd5b6c0c9f2c9cd04674edea40000000816001600160681b031610610e285760405163495c2d9160e01b815260040160405180910390fd5b5f610e6785858080601f0160208091040260200160405190810160405280939291908181526020018383808284375f92019190915250610b1f92505050565b9050610e7460028261217f565b610e9157604051630a96b47560e01b815260040160405180910390fd5b5f7f00000000000000000000000000000000000000000000000000000000000000006001600160a01b03166318160ddd6040518163ffffffff1660e01b8152600401602060405180830381865afa158015610eee573d5f5f3e3d5ffd5b505050506040513d601f19601f82011682018060405250810190610f129190612f73565b9050610f1e8282611655565b505f8281526005602052604090819020600201805476ffffffffff0000000000ffffffffffffffffffffffffff1916600160901b64ffffffffff8816026001600160681b031916176001600160681b038616179055517fce209946668ea0ad6199b320ade5271adc93d0c1083851b571b990f3e0260f1290610fa39088908890613178565b60405180910390a1505050505050565b610fbb611abe565b8051516020811115610fe0576040516310b47cc360e01b815260040160405180910390fd5b6c0c9f2c9cd04674edea4000000082604001516001600160681b03161061101a5760405163495c2d9160e01b815260040160405180910390fd5b42826060015164ffffffffff16101561104657604051636e03f20160e11b815260040160405180910390fd5b5f611053835f0151610b1f565b905061105f8184612196565b505050565b5f5f6110a484848080601f0160208091040260200160405190810160405280939291908181526020018383808284375f92019190915250610b1f92505050565b90505f5f6110b187611768565b915091506110c18784848461187e565b979650505050505050565b6110d4611abe565b428164ffffffffff1610156110fc57604051636e03f20160e11b815260040160405180910390fd5b5f61113b84848080601f0160208091040260200160405190810160405280939291908181526020018383808284375f92019190915250610b1f92505050565b905061114860028261217f565b61116557604051630a96b47560e01b815260040160405180910390fd5b5f7f00000000000000000000000000000000000000000000000000000000000000006001600160a01b03166318160ddd6040518163ffffffff1660e01b8152600401602060405180830381865afa1580156111c2573d5f5f3e3d5ffd5b505050506040513d601f19601f820116820180604052508101906111e69190612f73565b90506111f28282611655565b505f8281526005602052604090819020600201805464ffffffffff60901b1916600160901b64ffffffffff871602179055517f58e6e5fdc9bafcdde90e850e8776b427a5a0e26e6c86f28a3c9c1f1801876118906112559087908790879061318b565b60405180910390a15050505050565b5f5f6112a484848080601f0160208091040260200160405190810160405280939291908181526020018383808284375f92019190915250610b1f92505050565b5f90815260056020526040902060020154600160901b900464ffffffffff1691505092915050565b60606001600160a01b0382166112f557604051638aa3a72f60e01b815260040160405180910390fd5b6112fe336122af565b905061130c33338484611cda565b919050565b611319611abe565b600180546001600160a01b0383166001600160a01b031990911681179091556113495f546001600160a01b031690565b6001600160a01b03167f38d16b8cac22d99fc7c124b9cd0de2d3fa1faef420bfe791d8c362d765e2270060405160405180910390a350565b6001600160a01b038085165f90815260076020526040902054606091339187911682146113c057604051620bb58b60e51b815260040160405180910390fd5b86866001600160a01b0382166113e957604051630702b3d960e41b815260040160405180910390fd5b6001600160a01b03811661141057604051638aa3a72f60e01b815260040160405180910390fd5b5f61141b8888611b03565b905061142681611b94565b6114308a82611bf1565b955061143e338b8b89611cda565b5050505050949350505050565b611453611abe565b6001600160a01b03821661147a5760405163d92e233d60e01b815260040160405180910390fd5b6001600160a01b0381166114a15760405163d92e233d60e01b815260040160405180910390fd5b6001600160a01b038281165f8181526007602052604080822080546001600160a01b0319169486169485179055517f4925eafc82d0c4d67889898eeed64b18488ab19811e61620f387026dec126a289190a35050565b60605f61150460026122c4565b519050806001600160401b0381111561151f5761151f612be2565b60405190808252806020026020018201604052801561155257816020015b606081526020019060019003908161153d5790505b5091505f5b818110156115af5761158a61156c60026122c4565b828151811061157d5761157d612fb1565b60200260200101516108b6565b83828151811061159c5761159c612fb1565b6020908102919091010152600101611557565b505090565b6001600160a01b0381165f81815260056020526040812060020154600160681b900464ffffffffff16900361130c575f818152600460209081526040808320805460ff191660011790558051608081018252606080825292810184905290810183905290810191909152611627836122d0565b81526001600160a01b03831660208201525f60408201819052606082015261164f8282612196565b50919050565b5f82815260056020526040812080546002909101546001600160681b0381169064ffffffffff600160681b8204811691600160901b900416428290036116a157839450505050506108da565b5f6116af858585858b6122e6565b905084811461172f575f888152600560205260409020818155600201805464ffffffffff60681b1916600160681b4264ffffffffff16021790557fbcaf32358137afa5170f844d4e02a1b3013677faba70d948cc705ce0a3830584611713896108b6565b826040516117229291906131b5565b60405180910390a16110c1565b5f888152600560205260409020600201805464ffffffffff60681b1916600160681b4264ffffffffff1602179055979650505050505050565b5f807f00000000000000000000000000000000000000000000000000000000000000006040516370a0823160e01b81526001600160a01b03858116600483015291909116906370a0823190602401602060405180830381865afa1580156117d1573d5f5f3e3d5ffd5b505050506040513d601f19601f820116820180604052508101906117f59190612f73565b91507f00000000000000000000000000000000000000000000000000000000000000006001600160a01b03166318160ddd6040518163ffffffff1660e01b8152600401602060405180830381865afa158015611853573d5f5f3e3d5ffd5b505050506040513d601f19601f820116820180604052508101906118779190612f73565b9050915091565b6001600160a01b0384165f9081526006602090815260408083208684529091529020546118ad84868585612369565b6118b79082613007565b95945050505050565b6060825f6118cf8460026131d6565b6118da906002613007565b6001600160401b038111156118f1576118f1612be2565b6040519080825280601f01601f19166020018201604052801561191b576020820181803683370190505b509050600360fc1b815f8151811061193557611935612fb1565b60200101906001600160f81b03191690815f1a905350600f60fb1b8160018151811061196357611963612fb1565b60200101906001600160f81b03191690815f1a9053505f6119858560026131d6565b611990906001613007565b90505b6001811115611a07576f181899199a1a9b1b9c1cb0b131b232b360811b83600f16601081106119c4576119c4612fb1565b1a60f81b8282815181106119da576119da612fb1565b60200101906001600160f81b03191690815f1a90535060049290921c91611a00816131ed565b9050611993565b508115611a315760405163e22e27eb60e01b81526004810186905260248101859052604401610960565b949350505050565b80516060905f5b81811015611ab757838181518110611a5a57611a5a612fb1565b01602001516001600160f81b03191615611aaf5782848281518110611a8157611a81612fb1565b602001015160f81c60f81b604051602001611a9d929190613202565b60405160208183030381529060405292505b600101611a40565b5050919050565b5f546001600160a01b0316331461092a5760405163118cdaa760e01b8152336004820152602401610960565b600180546001600160a01b0319169055610972816123da565b6060816001600160401b03811115611b1d57611b1d612be2565b604051908082528060200260200182016040528015611b46578160200160208202803683370190505b5090505f5b82811015611b8d57611b688484838181106107de576107de612fb1565b828281518110611b7a57611b7a612fb1565b6020908102919091010152600101611b4b565b5092915050565b5f5b81518110156107a857611bcc828281518110611bb457611bb4612fb1565b6020026020010151600261217f90919063ffffffff16565b611be957604051630a96b47560e01b815260040160405180910390fd5b600101611b96565b8051606090806001600160401b03811115611c0e57611c0e612be2565b604051908082528060200260200182016040528015611c6957816020015b611c5660405180606001604052805f81526020015f81526020015f6001600160a01b031681525090565b815260200190600190039081611c2c5790505b5091505f5f611c7786611768565b90925090505f5b83811015611cd057611cab87878381518110611c9c57611c9c612fb1565b60200260200101518486612429565b858281518110611cbd57611cbd612fb1565b6020908102919091010152600101611c7e565b5050505092915050565b5f5b8151811015611f8d576001600160a01b0384165f90815260066020526040812083518290859085908110611d1257611d12612fb1565b60200260200101516020015181526020019081526020015f205490505f81848481518110611d4257611d42612fb1565b60200260200101515f0151611d579190613007565b90508015611f8357838381518110611d7157611d71612fb1565b60200260200101515f01515f14611e4457611da8848481518110611d9757611d97612fb1565b6020026020010151602001516108b6565b604051611db59190613122565b6040518091039020848481518110611dcf57611dcf612fb1565b6020026020010151604001516001600160a01b0316876001600160a01b03167f9ac9a44091881640a73610df0bdc77ce7a7c33784685a2902e0140b6b9652f0d878781518110611e2157611e21612fb1565b60200260200101515f0151604051611e3b91815260200190565b60405180910390a45b6001600160a01b0386165f90815260066020526040812085518290879087908110611e7157611e71612fb1565b60200260200101516020015181526020019081526020015f2081905550611eb6848481518110611ea357611ea3612fb1565b602002602001015160400151868361249f565b838381518110611ec857611ec8612fb1565b6020026020010151604001516001600160a01b0316856001600160a01b0316876001600160a01b03167f7c791aa670e586419eeb53ce75c06cfaf3c657e90935bd3aae64380872f849fa878781518110611f2457611f24612fb1565b6020026020010151602001518b86604051611f5b939291909283526001600160a01b03919091166020830152604082015260600190565b60405180910390a480848481518110611f7657611f76612fb1565b6020908102919091010151525b5050600101611cdc565b5050505050565b5f8151602a14611fb757604051636fa478cf60e11b815260040160405180910390fd5b60025b602a81101561164f575f5f611fee858481518110611fda57611fda612fb1565b01602001516001600160f81b0319166124b3565b915091508161201057604051636fa478cf60e11b815260040160405180910390fd5b60ff811661201f856010613226565b6120299190613257565b93505050600101611fba565b604080516001600160a01b038416602482015260448082018490528251808303909101815260649091019091526020810180516001600160e01b031663a9059cbb60e01b17905261105f908490612543565b5f6108da825490565b5f610ab983836125a4565b5f6120a8858584866125ca565b90508015611f8d576001600160a01b0384165f9081526006602090815260408083208884529091528120546120de908390613007565b6001600160a01b0386165f9081526006602090815260408083208a84529091529020819055905061210e866108b6565b60405161211b9190613122565b604080519182900382205f898152600560209081529290206001015484845290926001600160a01b0391821692918916917f9ac9a44091881640a73610df0bdc77ce7a7c33784685a2902e0140b6b9652f0d910160405180910390a4505050505050565b5f8181526001830160205260408120541515610ab9565b60208101516001600160a01b03166121c15760405163dfde867160e01b815260040160405180910390fd5b6121cc600283612690565b6121e9576040516383528a7f60e01b815260040160405180910390fd5b6020818101515f84815260059092526040918290206001810180546001600160a01b0319166001600160a01b0390931692909217909155606083015160029091018054838501516001600160681b03166001600160b81b0319909116600160901b64ffffffffff948516026001600160901b0319161717600160681b429390931692909202919091179055815190517f0cf558cc2f9ccbbf831b6392a319e7892856e9324a757e9c3648ee9e5b88cb4f916122a391612a97565b60405180910390a15050565b60606108da826122bf60026122c4565b611bf1565b60605f610ab98361269b565b60606108da6001600160a01b03831660146118c0565b5f8415806122f2575081155b806122fc57504284145b806123075750828410155b156123135750846118b7565b5f8342116123215742612323565b835b90505f6123308683612f9e565b905061235161233f82896131d6565b61234b6024600a6130fd565b866126f4565b925061235d8884613007565b98975050505050505050565b5f8481526005602081815260408084206001600160a01b03881685526003810183529084205488855292909152805460029091015483916123cd916001600160681b0381169064ffffffffff600160681b8204811691600160901b900416886122e6565b90506110c18582846127b1565b5f80546001600160a01b038381166001600160a01b0319831681178455604051919092169283917f8be0079c531659141344cd1fd0a4f28419497f9722a3daafe3b4186f6b6457e09190a35050565b61245360405180606001604052805f81526020015f81526020015f6001600160a01b031681525090565b5f612460858785876125ca565b6040805160608101825291825260208083018890525f9788526005905295869020600101546001600160a01b0316958101959095525092949350505050565b61105f6001600160a01b0384168383612035565b5f8060f883901c602f811180156124cd5750603a8160ff16105b156124e257600194602f199091019350915050565b8060ff1660401080156124f8575060478160ff16105b1561250d576001946036199091019350915050565b8060ff166060108015612523575060678160ff16105b15612538576001946056199091019350915050565b505f93849350915050565b5f6125576001600160a01b038416836127d1565b905080515f1415801561257b5750808060200190518101906125799190613276565b155b1561105f57604051635274afe760e01b81526001600160a01b0384166004820152602401610960565b5f825f0182815481106125b9576125b9612fb1565b905f5260205f200154905092915050565b5f8481526005602090815260408083206001600160a01b038716845260030190915281205481806125fb8886611655565b9050808314612685578515612618576126158682856127b1565b91505b5f8881526005602090815260408083206001600160a01b038b1680855260039091019092529091208290557f06e13548f41cff17d181fb7a95d6935aaf6175b5a584469e25f3bf999103a5e561266d8a6108b6565b8360405161267c9291906131b5565b60405180910390a25b509695505050505050565b5f610ab983836127de565b6060815f018054806020026020016040519081016040528092919081815260200182805480156126e857602002820191905f5260205f20905b8154815260200190600101908083116126d4575b50505050509050919050565b5f838302815f1985870982811083820303915050805f036127285783828161271e5761271e613295565b0492505050610ab9565b80841161274657612746841561273f57601161282a565b601261282a565b5f848688095f868103871696879004966002600389028118808a02820302808a02820302808a02820302808a02820302808a02820302808a02909103029181900381900460010186841190950394909402919094039290920491909117919091029150509392505050565b5f611a31846127c08486612f9e565b6127cc6024600a6130fd565b6126f4565b6060610ab983835f61283b565b5f81815260018301602052604081205461282357508154600181810184555f8481526020808220909301849055845484825282860190935260409020919091556108da565b505f6108da565b634e487b715f52806020526024601cfd5b6060814710156128675760405163cf47918160e01b815247600482015260248101839052604401610960565b5f5f856001600160a01b031684866040516128829190613122565b5f6040518083038185875af1925050503d805f81146128bc576040519150601f19603f3d011682016040523d82523d5f602084013e6128c1565b606091505b50915091506128d18683836128db565b9695505050505050565b6060826128f0576128eb82612937565b610ab9565b815115801561290757506001600160a01b0384163b155b1561293057604051639996b31560e01b81526001600160a01b0385166004820152602401610960565b5080610ab9565b8051156129475780518082602001fd5b60405163d6bda27560e01b815260040160405180910390fd5b80356001600160a01b038116811461130c575f5ffd5b80356001600160681b038116811461130c575f5ffd5b5f5f6040838503121561299d575f5ffd5b6129a683612960565b91506129b460208401612976565b90509250929050565b5f5f83601f8401126129cd575f5ffd5b5081356001600160401b038111156129e3575f5ffd5b6020830191508360208260051b85010111156129fd575f5ffd5b9250929050565b5f5f5f60408486031215612a16575f5ffd5b612a1f84612960565b925060208401356001600160401b03811115612a39575f5ffd5b612a45868287016129bd565b9497909650939450505050565b5f60208284031215612a62575f5ffd5b5035919050565b5f81518084528060208401602086015e5f602082860101526020601f19601f83011685010191505092915050565b602081525f610ab96020830184612a69565b5f60208284031215612ab9575f5ffd5b610ab982612960565b5f5f83601f840112612ad2575f5ffd5b5081356001600160401b03811115612ae8575f5ffd5b6020830191508360208285010111156129fd575f5ffd5b5f5f60208385031215612b10575f5ffd5b82356001600160401b03811115612b25575f5ffd5b612b3185828601612ac2565b90969095509350505050565b5f5f5f60408486031215612b4f575f5ffd5b612b5884612960565b925060208401356001600160401b03811115612b72575f5ffd5b612a4586828701612ac2565b602080825282518282018190525f918401906040840190835b81811015612bd757835180518452602080820151818601526040918201516001600160a01b03169185019190915290930192606090920191600101612b97565b509095945050505050565b634e487b7160e01b5f52604160045260245ffd5b604051608081016001600160401b0381118282101715612c1857612c18612be2565b60405290565b5f82601f830112612c2d575f5ffd5b81356001600160401b03811115612c4657612c46612be2565b604051601f8201601f19908116603f011681016001600160401b0381118282101715612c7457612c74612be2565b604052818152838201602001851015612c8b575f5ffd5b816020850160208301375f918101602001919091529392505050565b5f60208284031215612cb7575f5ffd5b81356001600160401b03811115612ccc575f5ffd5b611a3184828501612c1e565b5f5f5f5f5f5f60c08789031215612ced575f5ffd5b612cf687612960565b955060208701359450612d0b60408801612960565b959894975094956060810135955060808101359460a0909101359350915050565b803564ffffffffff8116811461130c575f5ffd5b5f5f5f5f60608587031215612d53575f5ffd5b84356001600160401b03811115612d68575f5ffd5b612d7487828801612ac2565b9095509350612d87905060208601612d2c565b9150612d9560408601612976565b905092959194509250565b5f60208284031215612db0575f5ffd5b81356001600160401b03811115612dc5575f5ffd5b820160808185031215612dd6575f5ffd5b612dde612bf6565b81356001600160401b03811115612df3575f5ffd5b612dff86828501612c1e565b825250612e0e60208301612960565b6020820152612e1f60408301612976565b6040820152612e3060608301612d2c565b6060820152949350505050565b5f5f5f60408486031215612e4f575f5ffd5b83356001600160401b03811115612e64575f5ffd5b612e7086828701612ac2565b9094509250612e83905060208501612d2c565b90509250925092565b5f5f5f5f60608587031215612e9f575f5ffd5b612ea885612960565b9350612eb660208601612960565b925060408501356001600160401b03811115612ed0575f5ffd5b612edc878288016129bd565b95989497509550505050565b5f5f60408385031215612ef9575f5ffd5b612f0283612960565b91506129b460208401612960565b5f602082016020835280845180835260408501915060408160051b8601019250602086015f5b82811015612f6757603f19878603018452612f52858351612a69565b94506020938401939190910190600101612f36565b50929695505050505050565b5f60208284031215612f83575f5ffd5b5051919050565b634e487b7160e01b5f52601160045260245ffd5b818103818111156108da576108da612f8a565b634e487b7160e01b5f52603260045260245ffd5b5f5f8335601e19843603018112612fda575f5ffd5b8301803591506001600160401b03821115612ff3575f5ffd5b6020019150368190038213156129fd575f5ffd5b808201808211156108da576108da612f8a565b6001815b60018411156130555780850481111561303957613039612f8a565b600184161561304757908102905b60019390931c92800261301e565b935093915050565b5f8261306b575060016108da565b8161307757505f6108da565b816001811461308d5760028114613097576130b3565b60019150506108da565b60ff8411156130a8576130a8612f8a565b50506001821b6108da565b5060208310610133831016604e8410600b84101617156130d6575081810a6108da565b6130e25f19848461301a565b805f19048211156130f5576130f5612f8a565b029392505050565b5f610ab960ff84168361305d565b5f81518060208401855e5f93019283525090919050565b5f610ab9828461310b565b8051602080830151919081101561164f575f1960209190910360031b1b16919050565b81835281816020850137505f828201602090810191909152601f909101601f19169091010190565b602081525f611a31602083018486613150565b604081525f61319e604083018587613150565b905064ffffffffff83166020830152949350505050565b604081525f6131c76040830185612a69565b90508260208301529392505050565b80820281158282048414176108da576108da612f8a565b5f816131fb576131fb612f8a565b505f190190565b5f61320d828561310b565b6001600160f81b03199390931683525050600101919050565b6001600160a01b0381811683821681810290921691818304811482151761324f5761324f612f8a565b505092915050565b6001600160a01b0381811683821601908111156108da576108da612f8a565b5f60208284031215613286575f5ffd5b81518015158114610ab9575f5ffd5b634e487b7160e01b5f52601260045260245ffdfea2646970667358221220a3435cad4e5f80cce1c4ca8e04ceed5607e060f35bfd3795af5cc016b032f74664736f6c634300081c0033a2646970667358221220f078056b02415da360d6a3176bea536ce2af575efc216a663fec22b9c22669c864736f6c634300081c0033",
  "language": "Solidity",
  "compiler": "0.8.28+commit.7893614a"
}