{
  "address": "0x346241E638d1AD3015C2e95C69cF54668dE68302",
  "abi": [
    {
      "inputs": [],
      "name": "acceptOwnership",
      "outputs": [],
      "stateMutability": "nonpayable",
      "type": "function"
    },
    {
      "inputs": [
        {
          "internalType": "address",
          "name": "_silo",
          "type": "address"
        },
        {
          "internalType": "uint256",
          "name": "_action",
          "type": "uint256"
        },
        {
          "internalType": "bytes",
          "name": "_inputAndOutput",
          "type": "bytes"
        }
      ],
      "name": "afterAction",
      "outputs": [],
      "stateMutability": "nonpayable",
      "type": "function"
    },
    {
      "inputs": [
        {
          "internalType": "address",
          "name": "",
          "type": "address"
        },
        {
          "internalType": "uint256",
          "name": "",
          "type": "uint256"
        },
        {
          "internalType": "bytes",
          "name": "",
          "type": "bytes"
        }
      ],
      "name": "beforeAction",
      "outputs": [],
      "stateMutability": "nonpayable",
      "type": "function"
    },
    {
      "inputs": [
        {
          "internalType": "contract IShareToken",
          "name": "",
          "type": "address"
        }
      ],
      "name": "configuredGauges",
      "outputs": [
        {
          "internalType": "contract ISiloIncentivesController",
          "name": "",
          "type": "address"
        }
      ],
      "stateMutability": "view",
      "type": "function"
    },
    {
      "inputs": [
        {
          "internalType": "address",
          "name": "_silo",
          "type": "address"
        }
      ],
      "name": "hookReceiverConfig",
      "outputs": [
        {
          "internalType": "uint24",
          "name": "hooksBefore",
          "type": "uint24"
        },
        {
          "internalType": "uint24",
          "name": "hooksAfter",
          "type": "uint24"
        }
      ],
      "stateMutability": "view",
      "type": "function"
    },
    {
      "inputs": [
        {
          "internalType": "contract ISiloConfig",
          "name": "_config",
          "type": "address"
        },
        {
          "internalType": "bytes",
          "name": "_data",
          "type": "bytes"
        }
      ],
      "name": "initialize",
      "outputs": [],
      "stateMutability": "nonpayable",
      "type": "function"
    },
    {
      "inputs": [
        {
          "internalType": "address",
          "name": "_collateralAsset",
          "type": "address"
        },
        {
          "internalType": "address",
          "name": "_debtAsset",
          "type": "address"
        },
        {
          "internalType": "address",
          "name": "_borrower",
          "type": "address"
        },
        {
          "internalType": "uint256",
          "name": "_maxDebtToCover",
          "type": "uint256"
        },
        {
          "internalType": "bool",
          "name": "_receiveSToken",
          "type": "bool"
        }
      ],
      "name": "liquidationCall",
      "outputs": [
        {
          "internalType": "uint256",
          "name": "withdrawCollateral",
          "type": "uint256"
        },
        {
          "internalType": "uint256",
          "name": "repayDebtAssets",
          "type": "uint256"
        }
      ],
      "stateMutability": "nonpayable",
      "type": "function"
    },
    {
      "inputs": [
        {
          "internalType": "address",
          "name": "_borrower",
          "type": "address"
        }
      ],
      "name": "maxLiquidation",
      "outputs": [
        {
          "internalType": "uint256",
          "name": "collateralToLiquidate",
          "type": "uint256"
        },
        {
          "internalType": "uint256",
          "name": "debtToRepay",
          "type": "uint256"
        },
        {
          "internalType": "bool",
          "name": "sTokenRequired",
          "type": "bool"
        }
      ],
      "stateMutability": "view",
      "type": "function"
    },
    {
      "inputs": [],
      "name": "owner",
      "outputs": [
        {
          "internalType": "address",
          "name": "",
          "type": "address"
        }
      ],
      "stateMutability": "view",
      "type": "function"
    },
    {
      "inputs": [],
      "name": "pendingOwner",
      "outputs": [
        {
          "internalType": "address",
          "name": "",
          "type": "address"
        }
      ],
      "stateMutability": "view",
      "type": "function"
    },
    {
      "inputs": [
        {
          "internalType": "contract IShareToken",
          "name": "_shareToken",
          "type": "address"
        }
      ],
      "name": "removeGauge",
      "outputs": [],
      "stateMutability": "nonpayable",
      "type": "function"
    },
    {
      "inputs": [],
      "name": "renounceOwnership",
      "outputs": [],
      "stateMutability": "nonpayable",
      "type": "function"
    },
    {
      "inputs": [
        {
          "internalType": "contract ISiloIncentivesController",
          "name": "_gauge",
          "type": "address"
        },
        {
          "internalType": "contract IShareToken",
          "name": "_shareToken",
          "type": "address"
        }
      ],
      "name": "setGauge",
      "outputs": [],
      "stateMutability": "nonpayable",
      "type": "function"
    },
    {
      "inputs": [],
      "name": "siloConfig",
      "outputs": [
        {
          "internalType": "contract ISiloConfig",
          "name": "",
          "type": "address"
        }
      ],
      "stateMutability": "view",
      "type": "function"
    },
    {
      "inputs": [
        {
          "internalType": "address",
          "name": "newOwner",
          "type": "address"
        }
      ],
      "name": "transferOwnership",
      "outputs": [],
      "stateMutability": "nonpayable",
      "type": "function"
    },
    {
      "anonymous": false,
      "inputs": [
        {
          "indexed": false,
          "internalType": "address",
          "name": "gauge",
          "type": "address"
        },
        {
          "indexed": false,
          "internalType": "address",
          "name": "shareToken",
          "type": "address"
        }
      ],
      "name": "GaugeConfigured",
      "type": "event"
    },
    {
      "anonymous": false,
      "inputs": [
        {
          "indexed": false,
          "internalType": "address",
          "name": "shareToken",
          "type": "address"
        }
      ],
      "name": "GaugeRemoved",
      "type": "event"
    },
    {
      "anonymous": false,
      "inputs": [
        {
          "indexed": false,
          "internalType": "address",
          "name": "silo",
          "type": "address"
        },
        {
          "indexed": false,
          "internalType": "uint24",
          "name": "hooksBefore",
          "type": "uint24"
        },
        {
          "indexed": false,
          "internalType": "uint24",
          "name": "hooksAfter",
          "type": "uint24"
        }
      ],
      "name": "HookConfigured",
      "type": "event"
    },
    {
      "anonymous": false,
      "inputs": [
        {
          "indexed": false,
          "internalType": "uint64",
          "name": "version",
          "type": "uint64"
        }
      ],
      "name": "Initialized",
      "type": "event"
    },
    {
      "anonymous": false,
      "inputs": [
        {
          "indexed": true,
          "internalType": "address",
          "name": "liquidator",
          "type": "address"
        },
        {
          "indexed": true,
          "internalType": "address",
          "name": "silo",
          "type": "address"
        },
        {
          "indexed": true,
          "internalType": "address",
          "name": "borrower",
          "type": "address"
        },
        {
          "indexed": false,
          "internalType": "uint256",
          "name": "repayDebtAssets",
          "type": "uint256"
        },
        {
          "indexed": false,
          "internalType": "uint256",
          "name": "withdrawCollateral",
          "type": "uint256"
        },
        {
          "indexed": false,
          "internalType": "bool",
          "name": "receiveSToken",
          "type": "bool"
        }
      ],
      "name": "LiquidationCall",
      "type": "event"
    },
    {
      "anonymous": false,
      "inputs": [
        {
          "indexed": true,
          "internalType": "address",
          "name": "previousOwner",
          "type": "address"
        },
        {
          "indexed": true,
          "internalType": "address",
          "name": "newOwner",
          "type": "address"
        }
      ],
      "name": "OwnershipTransferStarted",
      "type": "event"
    },
    {
      "anonymous": false,
      "inputs": [
        {
          "indexed": true,
          "internalType": "address",
          "name": "previousOwner",
          "type": "address"
        },
        {
          "indexed": true,
          "internalType": "address",
          "name": "newOwner",
          "type": "address"
        }
      ],
      "name": "OwnershipTransferred",
      "type": "event"
    },
    {
      "inputs": [
        {
          "internalType": "address",
          "name": "target",
          "type": "address"
        }
      ],
      "name": "AddressEmptyCode",
      "type": "error"
    },
    {
      "inputs": [],
      "name": "AlreadyConfigured",
      "type": "error"
    },
    {
      "inputs": [],
      "name": "CantRemoveActiveGauge",
      "type": "error"
    },
    {
      "inputs": [],
      "name": "EmptyGaugeAddress",
      "type": "error"
    },
    {
      "inputs": [],
      "name": "EmptySiloConfig",
      "type": "error"
    },
    {
      "inputs": [],
      "name": "FailedCall",
      "type": "error"
    },
    {
      "inputs": [],
      "name": "FullLiquidationRequired",
      "type": "error"
    },
    {
      "inputs": [],
      "name": "GaugeAlreadyConfigured",
      "type": "error"
    },
    {
      "inputs": [],
      "name": "GaugeIsNotConfigured",
      "type": "error"
    },
    {
      "inputs": [
        {
          "internalType": "uint256",
          "name": "balance",
          "type": "uint256"
        },
        {
          "internalType": "uint256",
          "name": "needed",
          "type": "uint256"
        }
      ],
      "name": "InsufficientBalance",
      "type": "error"
    },
    {
      "inputs": [],
      "name": "InvalidInitialization",
      "type": "error"
    },
    {
      "inputs": [],
      "name": "InvalidShareToken",
      "type": "error"
    },
    {
      "inputs": [],
      "name": "NoDebtToCover",
      "type": "error"
    },
    {
      "inputs": [],
      "name": "NoRepayAssets",
      "type": "error"
    },
    {
      "inputs": [],
      "name": "NotInitializing",
      "type": "error"
    },
    {
      "inputs": [],
      "name": "OnlySilo",
      "type": "error"
    },
    {
      "inputs": [],
      "name": "OnlySiloOrShareToken",
      "type": "error"
    },
    {
      "inputs": [
        {
          "internalType": "address",
          "name": "owner",
          "type": "address"
        }
      ],
      "name": "OwnableInvalidOwner",
      "type": "error"
    },
    {
      "inputs": [
        {
          "internalType": "address",
          "name": "account",
          "type": "address"
        }
      ],
      "name": "OwnableUnauthorizedAccount",
      "type": "error"
    },
    {
      "inputs": [],
      "name": "OwnerIsZeroAddress",
      "type": "error"
    },
    {
      "inputs": [],
      "name": "ReentrancyGuardReentrantCall",
      "type": "error"
    },
    {
      "inputs": [],
      "name": "RequestNotSupported",
      "type": "error"
    },
    {
      "inputs": [
        {
          "internalType": "address",
          "name": "token",
          "type": "address"
        }
      ],
      "name": "SafeERC20FailedOperation",
      "type": "error"
    },
    {
      "inputs": [],
      "name": "UnexpectedCollateralToken",
      "type": "error"
    },
    {
      "inputs": [],
      "name": "UnexpectedDebtToken",
      "type": "error"
    },
    {
      "inputs": [],
      "name": "UnknownRatio",
      "type": "error"
    },
    {
      "inputs": [],
      "name": "UserIsSolvent",
      "type": "error"
    },
    {
      "inputs": [],
      "name": "WrongGaugeShareToken",
      "type": "error"
    }
  ],
  "bytecode": "0x608060405234801561000f575f5ffd5b503361001961005e565b6001600160a01b03811661004657604051631e4fbdf760e01b81525f600482015260240160405180910390fd5b61004f81610110565b506100595f610110565b610175565b7ff0c57e16840df040f15088dc2f81fe391c3923bec73e23a9662efc9c229c6a00805468010000000000000000900460ff16156100ae5760405163f92ee8a960e01b815260040160405180910390fd5b80546001600160401b039081161461010d5780546001600160401b0319166001600160401b0390811782556040519081527fc7f505b2f371ae2175ee4913f4499e1f2633a7b5936321eed1cdaeb6115181d29060200160405180910390a15b50565b600380546001600160a01b031916905561010d81600280546001600160a01b038381166001600160a01b0319831681179093556040519116919082907f8be0079c531659141344cd1fd0a4f28419497f9722a3daafe3b4186f6b6457e0905f90a35050565b61292f806101825f395ff3fe608060405234801561000f575f5ffd5b50600436106100ef575f3560e01c8063a37d941111610093578063d714fd1911610063578063d714fd191461020e578063e30c397814610220578063e4784fa914610231578063f2fde38b1461029b575f5ffd5b8063a37d941114610190578063aef28235146101b8578063bd02d848146101cb578063d1f57894146101fb575f5ffd5b80633a045145116100ce5780633a04514514610148578063715018a61461015b57806379ba5097146101635780638da5cb5b1461016b575f5ffd5b8062a718a9146100f3578063237e6d641461012057806335cb109914610135575b5f5ffd5b6101066101013660046120f1565b6102ae565b604080519283526020830191909152015b60405180910390f35b61013361012e366004612155565b610878565b005b6101336101433660046121d1565b610ab5565b610133610156366004612229565b610af4565b610133610b91565b610133610ba4565b6002546001600160a01b03165b6040516001600160a01b039091168152602001610117565b61017861019e366004612229565b60046020525f90815260409020546001600160a01b031681565b6101336101c63660046121d1565b610bed565b6101de6101d9366004612229565b610c25565b604080519384526020840192909252151590820152606001610117565b610133610209366004612244565b610cbc565b5f54610178906001600160a01b031681565b6003546001600160a01b0316610178565b61027f61023f366004612229565b6001600160a01b03165f9081526001602090815260409182902082518084019093525462ffffff8082168085526301000000909204169290910182905291565b6040805162ffffff938416815292909116602083015201610117565b6101336102a9366004612229565b610de5565b5f8060ff815c16156102d357604051633ee5aeb560e01b815260040160405180910390fd5b60015f805c60ff19168217905d505f546001600160a01b03168061030a576040516379c39cf960e01b815260040160405180910390fd5b845f0361032a576040516317ff0e0960e11b815260040160405180910390fd5b806001600160a01b0316639dd413306040518163ffffffff1660e01b81526004015f604051808303815f87803b158015610362575f5ffd5b505af1158015610374573d5f5f3e3d5ffd5b505050505f5f610386838b8b8b610e56565b915091506103c16040518060a001604052805f81526020015f81526020015f81526020015f81526020015f6001600160e01b03191681525090565b6101a0830151604051636da707db60e01b815273__$13ae51f56eab8417585cbbba140ac4e457$__91636da707db9161040591879187918f918f91906004016123ed565b608060405180830381865af4158015610420573d5f5f3e3d5ffd5b505050506040513d601f19601f820116820180604052508101906104449190612432565b6001600160e01b031916608085018190526060850192909252604084019290925290955061047190611073565b878511156104925760405163d65db62d60e01b815260040160405180910390fd5b60608201516104ac906001600160a01b0316333088611090565b6104d282604001518684606001516001600160a01b03166110f79092919063ffffffff16565b5f876104de57306104e0565b335b90506104fd84604001518b8385604001518860a00151600161117e565b825260408401516060830151608086015161051e92918d918591905f61117e565b826020018181525050846001600160a01b03166362402b046040518163ffffffff1660e01b81526004015f604051808303815f87803b15801561055f575f5ffd5b505af1158015610571573d5f5f3e3d5ffd5b505050604080850151905163acb7081560e01b8152600481018990526001600160a01b038d81166024830152909116915063acb70815906044016020604051808303815f875af11580156105c7573d5f5f3e3d5ffd5b505050506040513d601f19601f820116820180604052508101906105eb919061247e565b5087156106fa57815115610671576040808501518351915163a7d6e44b60e01b81526001600160a01b039091169163a7d6e44b9161062f91906001906004016124bd565b602060405180830381865afa15801561064a573d5f5f3e3d5ffd5b505050506040513d601f19601f8201168201806040525081019061066e919061247e565b96505b6020820151156106f55783604001516001600160a01b031663a7d6e44b83602001515f6040518363ffffffff1660e01b81526004016106b19291906124bd565b602060405180830381865afa1580156106cc573d5f5f3e3d5ffd5b505050506040513d601f19601f820116820180604052508101906106f0919061247e565b870196505b610807565b81511561077e57604080850151835191516306d29bb360e51b81526001600160a01b039091169163da5376609161073b9190339030906001906004016124d1565b6020604051808303815f875af1158015610757573d5f5f3e3d5ffd5b505050506040513d601f19601f8201168201806040525081019061077b919061247e565b96505b6020820151156108075783604001516001600160a01b031663da537660836020015133305f6040518563ffffffff1660e01b81526004016107c294939291906124d1565b6020604051808303815f875af11580156107de573d5f5f3e3d5ffd5b505050506040513d601f19601f82011682018060405250810190610802919061247e565b870196505b6040838101518151888152602081018a90528a15158184015291516001600160a01b038d81169392169133917f3a84f64446e8eada995aa9da2ddbfcd9b5d5d650503b19f024096d04c05ef2a99181900360600190a4505f93505050815c60ff19169050815d509550959350505050565b6108806112e3565b6001600160a01b0382166108a75760405163d1af83ef60e01b815260040160405180910390fd5b806001600160a01b0316826001600160a01b0316631d7e35566040518163ffffffff1660e01b8152600401602060405180830381865afa1580156108ed573d5f5f3e3d5ffd5b505050506040513d601f19601f82011682018060405250810190610911919061250c565b6001600160a01b0316146109385760405163060a0aaf60e41b815260040160405180910390fd5b6001600160a01b038082165f908152600460205260409020541680156109715760405163d0c7225560e01b815260040160405180910390fd5b5f826001600160a01b031663eb3beb296040518163ffffffff1660e01b8152600401602060405180830381865afa1580156109ae573d5f5f3e3d5ffd5b505050506040513d601f19601f820116820180604052508101906109d2919061250c565b90505f6109df8285611310565b6001600160a01b0383165f90815260016020526040812054919250906301000000900462ffffff1690506104008217610a1782821790565b9150610a4684610a40866001600160a01b03165f9081526001602052604090205462ffffff1690565b84611419565b6001600160a01b038681165f8181526004602090815260409182902080546001600160a01b031916948c16948517905581519384528301919091527f213d54ca7d6adb897962b4f78f6c2424aa527ee584f57a6000f961c507e0ec27910160405180910390a150505050505050565b610abe336114fc565b610adb576040516310528c6d60e11b815260040160405180910390fd5b604051632a188cb160e21b815260040160405180910390fd5b610afc6112e3565b6001600160a01b038082165f908152600460205260409020541680610b3457604051632e77844760e21b815260040160405180910390fd5b6001600160a01b0382165f8181526004602090815260409182902080546001600160a01b031916905590519182527f94ac12f5301759f065db9de7f23677e50bef009f062b028d4d4612f620f0f5fb910160405180910390a15050565b610b996112e3565b610ba25f6115a4565b565b60035433906001600160a01b03168114610be15760405163118cdaa760e01b81526001600160a01b03821660048201526024015b60405180910390fd5b610bea816115a4565b50565b610bf6336115bd565b610c13576040516358ec9b7760e11b815260040160405180910390fd5b610c1f848484846117d4565b50505050565b5f8054604051631c2b1ded60e01b81526001600160a01b03918216600482015290831660248201528190819073__$13ae51f56eab8417585cbbba140ac4e457$__90631c2b1ded90604401606060405180830381865af4158015610c8b573d5f5f3e3d5ffd5b505050506040513d601f19601f82011682018060405250810190610caf9190612532565b9250925092509193909250565b7ff0c57e16840df040f15088dc2f81fe391c3923bec73e23a9662efc9c229c6a008054600160401b810460ff16159067ffffffffffffffff165f81158015610d015750825b90505f8267ffffffffffffffff166001148015610d1d5750303b155b905081158015610d2b575080155b15610d495760405163f92ee8a960e01b815260040160405180910390fd5b845467ffffffffffffffff191660011785558315610d7357845460ff60401b1916600160401b1785555b5f610d8087890189612229565b9050610d8b89611913565b610d948161198c565b508315610ddb57845460ff60401b19168555604051600181527fc7f505b2f371ae2175ee4913f4499e1f2633a7b5936321eed1cdaeb6115181d29060200160405180910390a15b5050505050505050565b610ded6112e3565b600380546001600160a01b0383166001600160a01b03199091168117909155610e1e6002546001600160a01b031690565b6001600160a01b03167f38d16b8cac22d99fc7c124b9cd0de2d3fa1faef420bfe791d8c362d765e2270060405160405180910390a350565b610e5e612045565b610e66612045565b6040516394c0527d60e01b81526001600160a01b0384811660048301528716906394c0527d9060240161044060405180830381865afa158015610eab573d5f5f3e3d5ffd5b505050506040513d601f19601f82011682018060405250810190610ecf91906126b7565b604081015191935091506001600160a01b0316610eff57604051632f13551560e11b815260040160405180910390fd5b81606001516001600160a01b0316856001600160a01b031614610f355760405163055692d760e21b815260040160405180910390fd5b80606001516001600160a01b0316846001600160a01b031614610f6b5760405163129e080d60e21b815260040160405180910390fd5b80604001516001600160a01b031663a6afed956040518163ffffffff1660e01b81526004016020604051808303815f875af1158015610fac573d5f5f3e3d5ffd5b505050506040513d601f19601f82011682018060405250810190610fd0919061247e565b5080604001516001600160a01b031682604001516001600160a01b03161461106a5781604001516001600160a01b031663a6afed956040518163ffffffff1660e01b81526004016020604051808303815f875af1158015611033573d5f5f3e3d5ffd5b505050506040513d601f19601f82011682018060405250810190611057919061247e565b50611061826119bb565b61106a816119bb565b94509492505050565b6001600160e01b031981165f036110875750565b610bea81611a41565b6040516001600160a01b038481166024830152838116604483015260648201839052610c1f9186918216906323b872dd906084015b604051602081830303815290604052915060e01b6020820180516001600160e01b038381831617835250505050611a72565b604051636eb1769f60e11b81523060048201526001600160a01b0383811660248301525f919085169063dd62ed3e90604401602060405180830381865afa158015611144573d5f5f3e3d5ffd5b505050506040513d601f19601f82011682018060405250810190611168919061247e565b9050610c1f84846111798585612700565b611ad8565b5f835f0361118d57505f6112d9565b61126384886001600160a01b031663b6d821c7856040518263ffffffff1660e01b81526004016111bd9190612713565b602060405180830381865afa1580156111d8573d5f5f3e3d5ffd5b505050506040513d601f19601f820116820180604052508101906111fc919061247e565b856001600160a01b03166318160ddd6040518163ffffffff1660e01b8152600401602060405180830381865afa158015611238573d5f5f3e3d5ffd5b505050506040513d601f19601f8201168201806040525081019061125c919061247e565b5f86611b67565b9050805f0361127357505f6112d9565b604051633661585b60e21b81526001600160a01b03878116600483015286811660248301526044820183905284169063d985616c906064015f604051808303815f87803b1580156112c2575f5ffd5b505af11580156112d4573d5f5f3e3d5ffd5b505050505b9695505050505050565b6002546001600160a01b03163314610ba25760405163118cdaa760e01b8152336004820152602401610bd8565b5f8054604051630483b24f60e41b81526001600160a01b0385811660048301528392839283929091169063483b24f090602401606060405180830381865afa15801561135e573d5f5f3e3d5ffd5b505050506040513d601f19601f82011682018060405250810190611382919061272d565b925092509250816001600160a01b0316856001600160a01b0316036113ae576108009350505050611413565b826001600160a01b0316856001600160a01b0316036113d4576110009350505050611413565b806001600160a01b0316856001600160a01b0316036113fa576120009350505050611413565b60405163d938fa3760e01b815260040160405180910390fd5b92915050565b60408051808201825262ffffff84811680835284821660208085018281526001600160a01b038a165f81815260018452889020965187549251871663010000000265ffffffffffff1990931696169590951717909455845192835292820152918201527f1c26a8451bc890d476a0e7bb8310f00750604879bb30d4813a7718a1ee089fa69060600160405180910390a1826001600160a01b031663cad1aacf6040518163ffffffff1660e01b81526004015f604051808303815f87803b1580156114e1575f5ffd5b505af11580156114f3573d5f5f3e3d5ffd5b50505050505050565b5f80546040805163aecc90cb60e01b81528151849384936001600160a01b039091169263aecc90cb92600480830193928290030181865afa158015611543573d5f5f3e3d5ffd5b505050506040513d601f19601f82011682018060405250810190611567919061276c565b91509150816001600160a01b0316846001600160a01b0316148061159c5750806001600160a01b0316846001600160a01b0316145b949350505050565b600380546001600160a01b0319169055610bea81611ba4565b5f80546040805163aecc90cb60e01b81528151849384936001600160a01b039091169263aecc90cb92600480830193928290030181865afa158015611604573d5f5f3e3d5ffd5b505050506040513d601f19601f82011682018060405250810190611628919061276c565b91509150816001600160a01b0316846001600160a01b0316148061165d5750806001600160a01b0316846001600160a01b0316145b1561166c575060019392505050565b5f8054604051630483b24f60e41b81526001600160a01b0385811660048301528392169063483b24f090602401606060405180830381865afa1580156116b4573d5f5f3e3d5ffd5b505050506040513d601f19601f820116820180604052508101906116d8919061272d565b919350909150506001600160a01b03868116908316148061170a5750806001600160a01b0316866001600160a01b0316145b1561171b5750600195945050505050565b5f54604051630483b24f60e41b81526001600160a01b0385811660048301529091169063483b24f090602401606060405180830381865afa158015611762573d5f5f3e3d5ffd5b505050506040513d601f19601f82011682018060405250810190611786919061272d565b919350909150506001600160a01b0386811690831614806117b85750806001600160a01b0316866001600160a01b0316145b156117c95750600195945050505050565b505f95945050505050565b335f908152600460205260409020546001600160a01b0316806117f75750610c1f565b61182c84611826876001600160a01b03165f9081526001602052604090205462ffffff63010000009091041690565b81161490565b6118365750610c1f565b5f61187584848080601f0160208091040260200160405190810160405280939291908181526020018383808284375f92019190915250611bf592505050565b805160608201516020830151608084015160a0850151604080870151905163bbdc013b60e01b81526001600160a01b039687166004820152602481019590955292851660448501526064840191909152608483015260a482015291925083169063bbdc013b9060c4015f604051808303815f87803b1580156118f5575f5ffd5b505af1158015611907573d5f5f3e3d5ffd5b50505050505050505050565b61191b611c99565b6001600160a01b038116611942576040516379c39cf960e01b815260040160405180910390fd5b5f546001600160a01b03161561196b576040516308db0db560e11b815260040160405180910390fd5b5f80546001600160a01b0319166001600160a01b0392909216919091179055565b611994611c99565b6001600160a01b038116610be1576040516354a4010f60e01b815260040160405180910390fd5b80610200015180156119d9575060e08101516001600160a01b031615155b15610bea5760e08101516060820151604051637cfd30cd60e11b81526001600160a01b03918216600482015291169063f9fa619a906024015f604051808303815f87803b158015611a28575f5ffd5b505af1158015611a3a573d5f5f3e3d5ffd5b5050505050565b6040805160048152602481019091526020810180516001600160e01b03166001600160e01b03198416178152815190fd5b5f611a866001600160a01b03841683611ce2565b905080515f14158015611aaa575080806020019051810190611aa89190612799565b155b15611ad357604051635274afe760e01b81526001600160a01b0384166004820152602401610bd8565b505050565b604080516001600160a01b038416602482015260448082018490528251808303909101815260649091019091526020810180516001600160e01b031663095ea7b360e01b179052611b298482611cf6565b610c1f576040516001600160a01b0384811660248301525f6044830152611b5d91869182169063095ea7b3906064016110c5565b610c1f8482611a72565b5f5f5f611b75878786611d93565b91509150815f03611b8a578792505050611b9b565b611b9688838388611dee565b925050505b95945050505050565b600280546001600160a01b038381166001600160a01b0319831681179093556040519116919082907f8be0079c531659141344cd1fd0a4f28419497f9722a3daafe3b4186f6b6457e0905f90a35050565b611c3a6040518060c001604052805f6001600160a01b031681526020015f6001600160a01b031681526020015f81526020015f81526020015f81526020015f81525090565b506014810151602882015160488301516068840151608885015160a8909501516040805160c0810182526001600160a01b039687168152959094166020860152928401919091526060830152608082019290925260a081019190915290565b7ff0c57e16840df040f15088dc2f81fe391c3923bec73e23a9662efc9c229c6a0054600160401b900460ff16610ba257604051631afcd79f60e31b815260040160405180910390fd5b6060611cef83835f611e30565b9392505050565b5f5f5f846001600160a01b031684604051611d1191906127b4565b5f604051808303815f865af19150503d805f8114611d4a576040519150601f19603f3d011682016040523d82523d5f602084013e611d4f565b606091505b5091509150818015611d79575080511580611d79575080806020019051810190611d799190612799565b8015611b9b5750505050506001600160a01b03163b151590565b5f5f835f03611da0575f94505b6002836002811115611db457611db4612495565b14611ddf57611dc56003600a6128ad565b611dcf9085612700565b611dda866001612700565b611de2565b83855b90969095509350505050565b5f611e1b611dfb83611ec6565b8015611e1657505f8480611e1157611e116128b8565b868809115b151590565b611e26868686611ef2565b611b9b9190612700565b606081471015611e5c5760405163cf47918160e01b815247600482015260248101839052604401610bd8565b5f5f856001600160a01b03168486604051611e7791906127b4565b5f6040518083038185875af1925050503d805f8114611eb1576040519150601f19603f3d011682016040523d82523d5f602084013e611eb6565b606091505b50915091506112d9868383611faf565b5f6002826003811115611edb57611edb612495565b611ee591906128cc565b60ff166001149050919050565b5f838302815f1985870982811083820303915050805f03611f2657838281611f1c57611f1c6128b8565b0492505050611cef565b808411611f4457611f448415611f3d57601161200b565b601261200b565b5f848688095f868103871696879004966002600389028118808a02820302808a02820302808a02820302808a02820302808a02820302808a02909103029181900381900460010186841190950394909402919094039290920491909117919091029150509392505050565b606082611fc457611fbf8261201c565b611cef565b8151158015611fdb57506001600160a01b0384163b155b1561200457604051639996b31560e01b81526001600160a01b0385166004820152602401610bd8565b5080611cef565b634e487b715f52806020526024601cfd5b80511561202c5780518082602001fd5b60405163d6bda27560e01b815260040160405180910390fd5b60408051610220810182525f80825260208201819052918101829052606081018290526080810182905260a0810182905260c0810182905260e08101829052610100810182905261012081018290526101408101829052610160810182905261018081018290526101a081018290526101c081018290526101e0810182905261020081019190915290565b6001600160a01b0381168114610bea575f5ffd5b8015158114610bea575f5ffd5b5f5f5f5f5f60a08688031215612105575f5ffd5b8535612110816120d0565b94506020860135612120816120d0565b93506040860135612130816120d0565b9250606086013591506080860135612147816120e4565b809150509295509295909350565b5f5f60408385031215612166575f5ffd5b8235612171816120d0565b91506020830135612181816120d0565b809150509250929050565b5f5f83601f84011261219c575f5ffd5b50813567ffffffffffffffff8111156121b3575f5ffd5b6020830191508360208285010111156121ca575f5ffd5b9250929050565b5f5f5f5f606085870312156121e4575f5ffd5b84356121ef816120d0565b935060208501359250604085013567ffffffffffffffff811115612211575f5ffd5b61221d8782880161218c565b95989497509550505050565b5f60208284031215612239575f5ffd5b8135611cef816120d0565b5f5f5f60408486031215612256575f5ffd5b8335612261816120d0565b9250602084013567ffffffffffffffff81111561227c575f5ffd5b6122888682870161218c565b9497909650939450505050565b805182526020810151602083015260408101516122bd60408401826001600160a01b03169052565b5060608101516122d860608401826001600160a01b03169052565b5060808101516122f360808401826001600160a01b03169052565b5060a081015161230e60a08401826001600160a01b03169052565b5060c081015161232960c08401826001600160a01b03169052565b5060e081015161234460e08401826001600160a01b03169052565b506101008101516123616101008401826001600160a01b03169052565b5061012081015161237e6101208401826001600160a01b03169052565b506101408101516101408301526101608101516101608301526101808101516101808301526101a08101516101a08301526101c08101516101c08301526101e08101516123d76101e08401826001600160a01b03169052565b50610200810151611ad361020084018215159052565b6104a081016123fc8288612295565b61240a610220830187612295565b6001600160a01b03949094166104408201526104608101929092526104809091015292915050565b5f5f5f5f60808587031215612445575f5ffd5b845160208601516040870151606088015192965090945092506001600160e01b031981168114612473575f5ffd5b939692955090935050565b5f6020828403121561248e575f5ffd5b5051919050565b634e487b7160e01b5f52602160045260245ffd5b600281106124b9576124b9612495565b9052565b82815260408101611cef60208301846124a9565b8481526001600160a01b0384811660208301528316604082015260808101611b9b60608301846124a9565b8051612507816120d0565b919050565b5f6020828403121561251c575f5ffd5b8151611cef816120d0565b8051612507816120e4565b5f5f5f60608486031215612544575f5ffd5b835160208501516040860151919450925061255e816120e4565b809150509250925092565b604051610220810167ffffffffffffffff8111828210171561259957634e487b7160e01b5f52604160045260245ffd5b60405290565b5f61022082840312156125b0575f5ffd5b6125b8612569565b825181526020808401519082015290506125d4604083016124fc565b60408201526125e5606083016124fc565b60608201526125f6608083016124fc565b608082015261260760a083016124fc565b60a082015261261860c083016124fc565b60c082015261262960e083016124fc565b60e082015261263b61010083016124fc565b61010082015261264e61012083016124fc565b6101208201526101408281015190820152610160808301519082015261018080830151908201526101a080830151908201526101c080830151908201526126986101e083016124fc565b6101e08201526126ab6102008301612527565b61020082015292915050565b5f5f61044083850312156126c9575f5ffd5b6126d3848461259f565b91506126e384610220850161259f565b90509250929050565b634e487b7160e01b5f52601160045260245ffd5b80820180821115611413576114136126ec565b602081016003831061272757612727612495565b91905290565b5f5f5f6060848603121561273f575f5ffd5b835161274a816120d0565b602085015190935061275b816120d0565b604085015190925061255e816120d0565b5f5f6040838503121561277d575f5ffd5b8251612788816120d0565b6020840151909250612181816120d0565b5f602082840312156127a9575f5ffd5b8151611cef816120e4565b5f82518060208501845e5f920191825250919050565b6001815b6001841115612805578085048111156127e9576127e96126ec565b60018416156127f757908102905b60019390931c9280026127ce565b935093915050565b5f8261281b57506001611413565b8161282757505f611413565b816001811461283d576002811461284757612863565b6001915050611413565b60ff841115612858576128586126ec565b50506001821b611413565b5060208310610133831016604e8410600b8410161715612886575081810a611413565b6128925f1984846127ca565b805f19048211156128a5576128a56126ec565b029392505050565b5f611cef838361280d565b634e487b7160e01b5f52601260045260245ffd5b5f60ff8316806128ea57634e487b7160e01b5f52601260045260245ffd5b8060ff8416069150509291505056fea26469706673582212202e9a4b2b4f762364f87465d05dfa43fb8024d396c3b71674e0e0bf464373014e64736f6c634300081c0033",
  "language": "Solidity",
  "compiler": "0.8.28+commit.7893614a"
}