{
  "address": "0xF040CAdbc2572B2aC35Ca468B93f9c9ADF0f0D69",
  "abi": [
    {
      "inputs": [
        {
          "internalType": "address",
          "name": "_owner",
          "type": "address"
        },
        {
          "internalType": "address",
          "name": "_notifier",
          "type": "address"
        },
        {
          "internalType": "bytes32",
          "name": "_externalSalt",
          "type": "bytes32"
        }
      ],
      "name": "create",
      "outputs": [
        {
          "internalType": "address",
          "name": "controller",
          "type": "address"
        }
      ],
      "stateMutability": "nonpayable",
      "type": "function"
    },
    {
      "inputs": [
        {
          "internalType": "address",
          "name": "",
          "type": "address"
        }
      ],
      "name": "isSiloIncentivesController",
      "outputs": [
        {
          "internalType": "bool",
          "name": "",
          "type": "bool"
        }
      ],
      "stateMutability": "view",
      "type": "function"
    },
    {
      "inputs": [
        {
          "internalType": "address",
          "name": "owner",
          "type": "address"
        }
      ],
      "name": "nonces",
      "outputs": [
        {
          "internalType": "uint256",
          "name": "",
          "type": "uint256"
        }
      ],
      "stateMutability": "view",
      "type": "function"
    },
    {
      "anonymous": false,
      "inputs": [
        {
          "indexed": true,
          "internalType": "address",
          "name": "controller",
          "type": "address"
        }
      ],
      "name": "SiloIncentivesControllerCreated",
      "type": "event"
    },
    {
      "inputs": [
        {
          "internalType": "address",
          "name": "account",
          "type": "address"
        },
        {
          "internalType": "uint256",
          "name": "currentNonce",
          "type": "uint256"
        }
      ],
      "name": "InvalidAccountNonce",
      "type": "error"
    }
  ],
  "bytecode": "0x6080604052348015600e575f5ffd5b506136a98061001c5f395ff3fe608060405234801561000f575f5ffd5b506004361061003f575f3560e01c80630f52994a146100435780637ecebe001461007a578063d1692f56146100b0575b5f5ffd5b6100656100513660046101f6565b60016020525f908152604090205460ff1681565b60405190151581526020015b60405180910390f35b6100a26100883660046101f6565b6001600160a01b03165f9081526020819052604090205490565b604051908152602001610071565b6100c36100be366004610216565b6100db565b6040516001600160a01b039091168152602001610071565b335f81815260208181526040808320805460018101909155815160609590951b6bffffffffffffffffffffffff19168584015260348501526054808501869052815180860390910181526074909401905282519201919091208484604051610142906101ce565b6001600160a01b039283168152911660208201526040018190604051809103905ff5905080158015610176573d5f5f3e3d5ffd5b506001600160a01b0381165f818152600160208190526040808320805460ff19169092179091555192935090917f0a53f473a13c410d2f112a9928b8c3b24774adb46b692a6c99999d13fcc7416c9190a29392505050565b6134248061025083390190565b80356001600160a01b03811681146101f1575f5ffd5b919050565b5f60208284031215610206575f5ffd5b61020f826101db565b9392505050565b5f5f5f60608486031215610228575f5ffd5b610231846101db565b925061023f602085016101db565b915060408401359050925092509256fe60a060405234801561000f575f5ffd5b5060405161342438038061342483398101604081905261002e9161012e565b81818181816001600160a01b03811661006057604051631e4fbdf760e01b81525f600482015260240160405180910390fd5b610069816100a8565b506001600160a01b0381166100915760405163d92e233d60e01b815260040160405180910390fd5b6001600160a01b03166080525061015f9350505050565b600180546001600160a01b03191690556100c1816100c4565b50565b5f80546001600160a01b038381166001600160a01b0319831681178455604051919092169283917f8be0079c531659141344cd1fd0a4f28419497f9722a3daafe3b4186f6b6457e09190a35050565b80516001600160a01b0381168114610129575f5ffd5b919050565b5f5f6040838503121561013f575f5ffd5b61014883610113565b915061015660208401610113565b90509250929050565b60805161327c6101a85f395f818161033a0152818161055d015281816105ac01528181610c3601528181610e3101528181611105015281816117090152611796015261327c5ff3fe608060405234801561000f575f5ffd5b50600436106101d1575f3560e01c8063b5a89065116100fe578063cfc262371161009e578063f2fde38b1161006e578063f2fde38b14610504578063f5ba475014610517578063f5cf673b1461052a578063fb71aec51461053d575f5ffd5b8063cfc262371461042e578063e30c3978146104cd578063e7b8b9c4146104de578063ef5cfb8c146104f1575f5ffd5b8063bec1e022116100d9578063bec1e022146103e2578063c1616f69146103f5578063cc08016414610408578063cd72a4bf1461041b575f5ffd5b8063b5a89065146103a9578063b90817f2146103bc578063bbdc013b146103cf575f5ffd5b80637d8bf6ec116101745780639f2e6a0c116101445780639f2e6a0c14610335578063a5eb3f0d1461035c578063a7b800dd1461037c578063aaf5eb681461038f575f5ffd5b80637d8bf6ec1461028b57806382794f391461029f5780638ba2c3c8146103125780638da5cb5b14610325575f5ffd5b8063711ec9ac116101af578063711ec9ac14610230578063715018a61461023857806374d945ec1461024057806379ba509714610283575f5ffd5b80632e953c21146101d557806358703bed146101ea5780636f564e7d14610210575b5f5ffd5b6101e86101e3366004612929565b610552565b005b6101fd6101f83660046129a1565b610749565b6040519081526020015b60405180910390f35b61022361021e3660046129ef565b610853565b6040516102079190612a34565b6101fd6108a7565b6101e86108b6565b61026b61024e366004612a46565b6001600160a01b039081165f908152600760205260409020541690565b6040516001600160a01b039091168152602001610207565b6101e86108c9565b6101fd6c0c9f2c9cd04674edea4000000081565b6102b26102ad366004612a9c565b610912565b60405161020791905f60a0820190508251825260018060a01b0360208401511660208301526001600160681b03604084015116604083015264ffffffffff606084015116606083015264ffffffffff608084015116608083015292915050565b6101fd610320366004612ada565b6109f0565b5f546001600160a01b031661026b565b61026b7f000000000000000000000000000000000000000000000000000000000000000081565b61036f61036a3660046129a1565b610a5d565b6040516102079190612b1b565b6101fd61038a366004612c44565b610abc565b610397602481565b60405160ff9091168152602001610207565b6101fd6103b7366004612ada565b610b37565b6101e86103ca366004612a46565b610ba6565b6101e86103dd366004612c75565b610c2b565b6101e86103f0366004612cdd565b610d5f565b6101e8610403366004612d3d565b610f50565b6101fd610416366004612ada565b611001565b6101e8610429366004612dda565b611069565b61048861043c3660046129ef565b60056020525f908152604090208054600182015460029092015490916001600160a01b0316906001600160681b0381169064ffffffffff600160681b8204811691600160901b90041685565b604080519586526001600160a01b0390941660208601526001600160681b039092169284019290925264ffffffffff918216606084015216608082015260a001610207565b6001546001600160a01b031661026b565b6101fd6104ec366004612a9c565b611201565b61036f6104ff366004612a46565b611269565b6101e8610512366004612a46565b6112ae565b61036f610525366004612e29565b61131e565b6101e8610538366004612e85565b6113e8565b610545611494565b6040516102079190612ead565b336001600160a01b037f0000000000000000000000000000000000000000000000000000000000000000161461059a5760405162f09cf360e01b815260040160405180910390fd5b6001600160681b03811615610745575f7f00000000000000000000000000000000000000000000000000000000000000006001600160a01b03166318160ddd6040518163ffffffff1660e01b8152600401602060405180830381865afa158015610606573d5f5f3e3d5ffd5b505050506040513d601f19601f8201168201806040525081019061062a9190612f10565b90505f61063684611551565b5f81815260056020526040902090915061065082846115f2565b506002810180544264ffffffffff818116600160901b90810264ffffffffff60901b1985161790945592820492909216916001600160681b039091169061069990600190612f3b565b6002840180546001600160901b031916600160681b64ffffffffff93909316929092026001600160681b031916919091176001600160681b0388161790556106e184866115f2565b50600292909201805469ffffffffffffffffffff60681b1916600160901b64ffffffffff9384160264ffffffffff60681b191617600160681b429390931692909202919091176001600160681b0319166001600160681b0390921691909117905550505b5050565b5f5f5f5f61075687611705565b90925090505f5b85811015610848575f6107c688888481811061077b5761077b612f4e565b905060200281019061078d9190612f62565b8080601f0160208091040260200160405190810160405280939291908181526020018383808284375f92019190915250610abc92505050565b5f818152600560205260409020600101549091506001600160a01b039081169086166107f457809550610826565b806001600160a01b0316866001600160a01b031614610826576040516305ff3f2d60e41b815260040160405180910390fd5b6108328a83878761181b565b61083c9088612fa4565b9650505060010161075d565b505050509392505050565b5f8181526004602052604090205460609060ff161561087d5761087782601461185d565b92915050565b6108778260405160200161089391815260200190565b6040516020818303038152906040526119d6565b6108b36024600a61309a565b81565b6108be611a5b565b6108c75f611a87565b565b60015433906001600160a01b031681146109065760405163118cdaa760e01b81526001600160a01b03821660048201526024015b60405180910390fd5b61090f81611a87565b50565b6040805160a0810182525f808252602082018190529181018290526060810182905260808101919091525f61097b84848080601f0160208091040260200160405190810160405280939291908181526020018383808284375f92019190915250610abc92505050565b6040805160a0810182525f838152600560208181528483208054855260018101546001600160a01b031682860152600201546001600160681b0381169585019590955264ffffffffff600160681b860481166060860152959092529052600160901b9091049091166080820152949350505050565b5f5f610a3084848080601f0160208091040260200160405190810160405280939291908181526020018383808284375f92019190915250610abc92505050565b6001600160a01b0386165f90815260066020908152604080832093835292905220549150505b9392505050565b60606001600160a01b038416610a8657604051638aa3a72f60e01b815260040160405180910390fd5b5f610a918484611aa0565b9050610a9c81611b31565b610aa63382611b8e565b9150610ab433338785611c77565b509392505050565b80515f90602a819003610ae157610a56610ad584611f31565b6001600160a01b031690565b8015801590610af1575060208111155b610b0e576040516302d7eecb60e61b815260040160405180910390fd5b82604051602001610b1f91906130bf565b604051602081830303815290604052610a56906130ca565b5f5f610b7784848080601f0160208091040260200160405190810160405280939291908181526020018383808284375f92019190915250610abc92505050565b5f9081526005602090815260408083206001600160a01b03891684526003019091529020549150509392505050565b610bae611a5b565b6040516370a0823160e01b815230600482015261090f9033906001600160a01b038416906370a0823190602401602060405180830381865afa158015610bf6573d5f5f3e3d5ffd5b505050506040513d601f19601f82011682018060405250810190610c1a9190612f10565b6001600160a01b0384169190611fd2565b336001600160a01b037f00000000000000000000000000000000000000000000000000000000000000001614610c735760405162f09cf360e01b815260040160405180910390fd5b5f610c7e6002612024565b9050846001600160a01b0316876001600160a01b03161480610c9e575080155b15610ca95750610d57565b6001600160a01b038716610cc1578183039250610cd4565b6001600160a01b038516610cd457918101915b6001600160a01b03871615610ce857948101945b6001600160a01b03851615610cfd5781840393505b5f5b81811015610d54575f610d1360028361202d565b90506001600160a01b03891615610d3057610d30818a878b612038565b6001600160a01b03871615610d4b57610d4b81888789612038565b50600101610cff565b50505b505050505050565b610d67611a5b565b428264ffffffffff161015610d8f57604051636e03f20160e11b815260040160405180910390fd5b6c0c9f2c9cd04674edea40000000816001600160681b031610610dc55760405163495c2d9160e01b815260040160405180910390fd5b5f610e0485858080601f0160208091040260200160405190810160405280939291908181526020018383808284375f92019190915250610abc92505050565b9050610e1160028261211c565b610e2e57604051630a96b47560e01b815260040160405180910390fd5b5f7f00000000000000000000000000000000000000000000000000000000000000006001600160a01b03166318160ddd6040518163ffffffff1660e01b8152600401602060405180830381865afa158015610e8b573d5f5f3e3d5ffd5b505050506040513d601f19601f82011682018060405250810190610eaf9190612f10565b9050610ebb82826115f2565b505f8281526005602052604090819020600201805476ffffffffff0000000000ffffffffffffffffffffffffff1916600160901b64ffffffffff8816026001600160681b031916176001600160681b038616179055517fce209946668ea0ad6199b320ade5271adc93d0c1083851b571b990f3e0260f1290610f409088908890613115565b60405180910390a1505050505050565b610f58611a5b565b8051516020811115610f7d576040516310b47cc360e01b815260040160405180910390fd5b6c0c9f2c9cd04674edea4000000082604001516001600160681b031610610fb75760405163495c2d9160e01b815260040160405180910390fd5b42826060015164ffffffffff161015610fe357604051636e03f20160e11b815260040160405180910390fd5b5f610ff0835f0151610abc565b9050610ffc8184612133565b505050565b5f5f61104184848080601f0160208091040260200160405190810160405280939291908181526020018383808284375f92019190915250610abc92505050565b90505f5f61104e87611705565b9150915061105e8784848461181b565b979650505050505050565b611071611a5b565b428164ffffffffff16101561109957604051636e03f20160e11b815260040160405180910390fd5b5f6110d884848080601f0160208091040260200160405190810160405280939291908181526020018383808284375f92019190915250610abc92505050565b90506110e560028261211c565b61110257604051630a96b47560e01b815260040160405180910390fd5b5f7f00000000000000000000000000000000000000000000000000000000000000006001600160a01b03166318160ddd6040518163ffffffff1660e01b8152600401602060405180830381865afa15801561115f573d5f5f3e3d5ffd5b505050506040513d601f19601f820116820180604052508101906111839190612f10565b905061118f82826115f2565b505f8281526005602052604090819020600201805464ffffffffff60901b1916600160901b64ffffffffff871602179055517f58e6e5fdc9bafcdde90e850e8776b427a5a0e26e6c86f28a3c9c1f1801876118906111f290879087908790613128565b60405180910390a15050505050565b5f5f61124184848080601f0160208091040260200160405190810160405280939291908181526020018383808284375f92019190915250610abc92505050565b5f90815260056020526040902060020154600160901b900464ffffffffff1691505092915050565b60606001600160a01b03821661129257604051638aa3a72f60e01b815260040160405180910390fd5b61129b3361224c565b90506112a933338484611c77565b919050565b6112b6611a5b565b600180546001600160a01b0383166001600160a01b031990911681179091556112e65f546001600160a01b031690565b6001600160a01b03167f38d16b8cac22d99fc7c124b9cd0de2d3fa1faef420bfe791d8c362d765e2270060405160405180910390a350565b6001600160a01b038085165f908152600760205260409020546060913391879116821461135d57604051620bb58b60e51b815260040160405180910390fd5b86866001600160a01b03821661138657604051630702b3d960e41b815260040160405180910390fd5b6001600160a01b0381166113ad57604051638aa3a72f60e01b815260040160405180910390fd5b5f6113b88888611aa0565b90506113c381611b31565b6113cd8a82611b8e565b95506113db338b8b89611c77565b5050505050949350505050565b6113f0611a5b565b6001600160a01b0382166114175760405163d92e233d60e01b815260040160405180910390fd5b6001600160a01b03811661143e5760405163d92e233d60e01b815260040160405180910390fd5b6001600160a01b038281165f8181526007602052604080822080546001600160a01b0319169486169485179055517f4925eafc82d0c4d67889898eeed64b18488ab19811e61620f387026dec126a289190a35050565b60605f6114a16002612261565b519050806001600160401b038111156114bc576114bc612b7f565b6040519080825280602002602001820160405280156114ef57816020015b60608152602001906001900390816114da5790505b5091505f5b8181101561154c576115276115096002612261565b828151811061151a5761151a612f4e565b6020026020010151610853565b83828151811061153957611539612f4e565b60209081029190910101526001016114f4565b505090565b6001600160a01b0381165f81815260056020526040812060020154600160681b900464ffffffffff1690036112a9575f818152600460209081526040808320805460ff1916600117905580516080810182526060808252928101849052908101839052908101919091526115c48361226d565b81526001600160a01b03831660208201525f6040820181905260608201526115ec8282612133565b50919050565b5f82815260056020526040812080546002909101546001600160681b0381169064ffffffffff600160681b8204811691600160901b9004164282900361163e5783945050505050610877565b5f61164c858585858b612283565b90508481146116cc575f888152600560205260409020818155600201805464ffffffffff60681b1916600160681b4264ffffffffff16021790557fbcaf32358137afa5170f844d4e02a1b3013677faba70d948cc705ce0a38305846116b089610853565b826040516116bf929190613152565b60405180910390a161105e565b5f888152600560205260409020600201805464ffffffffff60681b1916600160681b4264ffffffffff1602179055979650505050505050565b5f807f00000000000000000000000000000000000000000000000000000000000000006040516370a0823160e01b81526001600160a01b03858116600483015291909116906370a0823190602401602060405180830381865afa15801561176e573d5f5f3e3d5ffd5b505050506040513d601f19601f820116820180604052508101906117929190612f10565b91507f00000000000000000000000000000000000000000000000000000000000000006001600160a01b03166318160ddd6040518163ffffffff1660e01b8152600401602060405180830381865afa1580156117f0573d5f5f3e3d5ffd5b505050506040513d601f19601f820116820180604052508101906118149190612f10565b9050915091565b6001600160a01b0384165f90815260066020908152604080832086845290915290205461184a84868585612306565b6118549082612fa4565b95945050505050565b6060825f61186c846002613173565b611877906002612fa4565b6001600160401b0381111561188e5761188e612b7f565b6040519080825280601f01601f1916602001820160405280156118b8576020820181803683370190505b509050600360fc1b815f815181106118d2576118d2612f4e565b60200101906001600160f81b03191690815f1a905350600f60fb1b8160018151811061190057611900612f4e565b60200101906001600160f81b03191690815f1a9053505f611922856002613173565b61192d906001612fa4565b90505b60018111156119a4576f181899199a1a9b1b9c1cb0b131b232b360811b83600f166010811061196157611961612f4e565b1a60f81b82828151811061197757611977612f4e565b60200101906001600160f81b03191690815f1a90535060049290921c9161199d8161318a565b9050611930565b5081156119ce5760405163e22e27eb60e01b815260048101869052602481018590526044016108fd565b949350505050565b80516060905f5b81811015611a54578381815181106119f7576119f7612f4e565b01602001516001600160f81b03191615611a4c5782848281518110611a1e57611a1e612f4e565b602001015160f81c60f81b604051602001611a3a92919061319f565b60405160208183030381529060405292505b6001016119dd565b5050919050565b5f546001600160a01b031633146108c75760405163118cdaa760e01b81523360048201526024016108fd565b600180546001600160a01b031916905561090f81612377565b6060816001600160401b03811115611aba57611aba612b7f565b604051908082528060200260200182016040528015611ae3578160200160208202803683370190505b5090505f5b82811015611b2a57611b0584848381811061077b5761077b612f4e565b828281518110611b1757611b17612f4e565b6020908102919091010152600101611ae8565b5092915050565b5f5b815181101561074557611b69828281518110611b5157611b51612f4e565b6020026020010151600261211c90919063ffffffff16565b611b8657604051630a96b47560e01b815260040160405180910390fd5b600101611b33565b8051606090806001600160401b03811115611bab57611bab612b7f565b604051908082528060200260200182016040528015611c0657816020015b611bf360405180606001604052805f81526020015f81526020015f6001600160a01b031681525090565b815260200190600190039081611bc95790505b5091505f5f611c1486611705565b90925090505f5b83811015611c6d57611c4887878381518110611c3957611c39612f4e565b602002602001015184866123c6565b858281518110611c5a57611c5a612f4e565b6020908102919091010152600101611c1b565b5050505092915050565b5f5b8151811015611f2a576001600160a01b0384165f90815260066020526040812083518290859085908110611caf57611caf612f4e565b60200260200101516020015181526020019081526020015f205490505f81848481518110611cdf57611cdf612f4e565b60200260200101515f0151611cf49190612fa4565b90508015611f2057838381518110611d0e57611d0e612f4e565b60200260200101515f01515f14611de157611d45848481518110611d3457611d34612f4e565b602002602001015160200151610853565b604051611d5291906130bf565b6040518091039020848481518110611d6c57611d6c612f4e565b6020026020010151604001516001600160a01b0316876001600160a01b03167f9ac9a44091881640a73610df0bdc77ce7a7c33784685a2902e0140b6b9652f0d878781518110611dbe57611dbe612f4e565b60200260200101515f0151604051611dd891815260200190565b60405180910390a45b6001600160a01b0386165f90815260066020526040812085518290879087908110611e0e57611e0e612f4e565b60200260200101516020015181526020019081526020015f2081905550611e53848481518110611e4057611e40612f4e565b602002602001015160400151868361243c565b838381518110611e6557611e65612f4e565b6020026020010151604001516001600160a01b0316856001600160a01b0316876001600160a01b03167f7c791aa670e586419eeb53ce75c06cfaf3c657e90935bd3aae64380872f849fa878781518110611ec157611ec1612f4e565b6020026020010151602001518b86604051611ef8939291909283526001600160a01b03919091166020830152604082015260600190565b60405180910390a480848481518110611f1357611f13612f4e565b6020908102919091010151525b5050600101611c79565b5050505050565b5f8151602a14611f5457604051636fa478cf60e11b815260040160405180910390fd5b60025b602a8110156115ec575f5f611f8b858481518110611f7757611f77612f4e565b01602001516001600160f81b031916612450565b9150915081611fad57604051636fa478cf60e11b815260040160405180910390fd5b60ff8116611fbc8560106131c3565b611fc691906131f4565b93505050600101611f57565b604080516001600160a01b038416602482015260448082018490528251808303909101815260649091019091526020810180516001600160e01b031663a9059cbb60e01b179052610ffc9084906124e0565b5f610877825490565b5f610a568383612541565b5f61204585858486612567565b90508015611f2a576001600160a01b0384165f90815260066020908152604080832088845290915281205461207b908390612fa4565b6001600160a01b0386165f9081526006602090815260408083208a8452909152902081905590506120ab86610853565b6040516120b891906130bf565b604080519182900382205f898152600560209081529290206001015484845290926001600160a01b0391821692918916917f9ac9a44091881640a73610df0bdc77ce7a7c33784685a2902e0140b6b9652f0d910160405180910390a4505050505050565b5f8181526001830160205260408120541515610a56565b60208101516001600160a01b031661215e5760405163dfde867160e01b815260040160405180910390fd5b61216960028361262d565b612186576040516383528a7f60e01b815260040160405180910390fd5b6020818101515f84815260059092526040918290206001810180546001600160a01b0319166001600160a01b0390931692909217909155606083015160029091018054838501516001600160681b03166001600160b81b0319909116600160901b64ffffffffff948516026001600160901b0319161717600160681b429390931692909202919091179055815190517f0cf558cc2f9ccbbf831b6392a319e7892856e9324a757e9c3648ee9e5b88cb4f9161224091612a34565b60405180910390a15050565b60606108778261225c6002612261565b611b8e565b60605f610a5683612638565b60606108776001600160a01b038316601461185d565b5f84158061228f575081155b8061229957504284145b806122a45750828410155b156122b0575084611854565b5f8342116122be57426122c0565b835b90505f6122cd8683612f3b565b90506122ee6122dc8289613173565b6122e86024600a61309a565b86612691565b92506122fa8884612fa4565b98975050505050505050565b5f8481526005602081815260408084206001600160a01b038816855260038101835290842054888552929091528054600290910154839161236a916001600160681b0381169064ffffffffff600160681b8204811691600160901b90041688612283565b905061105e85828461274e565b5f80546001600160a01b038381166001600160a01b0319831681178455604051919092169283917f8be0079c531659141344cd1fd0a4f28419497f9722a3daafe3b4186f6b6457e09190a35050565b6123f060405180606001604052805f81526020015f81526020015f6001600160a01b031681525090565b5f6123fd85878587612567565b6040805160608101825291825260208083018890525f9788526005905295869020600101546001600160a01b0316958101959095525092949350505050565b610ffc6001600160a01b0384168383611fd2565b5f8060f883901c602f8111801561246a5750603a8160ff16105b1561247f57600194602f199091019350915050565b8060ff166040108015612495575060478160ff16105b156124aa576001946036199091019350915050565b8060ff1660601080156124c0575060678160ff16105b156124d5576001946056199091019350915050565b505f93849350915050565b5f6124f46001600160a01b0384168361276e565b905080515f141580156125185750808060200190518101906125169190613213565b155b15610ffc57604051635274afe760e01b81526001600160a01b03841660048201526024016108fd565b5f825f01828154811061255657612556612f4e565b905f5260205f200154905092915050565b5f8481526005602090815260408083206001600160a01b0387168452600301909152812054818061259888866115f2565b90508083146126225785156125b5576125b286828561274e565b91505b5f8881526005602090815260408083206001600160a01b038b1680855260039091019092529091208290557f06e13548f41cff17d181fb7a95d6935aaf6175b5a584469e25f3bf999103a5e561260a8a610853565b83604051612619929190613152565b60405180910390a25b509695505050505050565b5f610a56838361277b565b6060815f0180548060200260200160405190810160405280929190818152602001828054801561268557602002820191905f5260205f20905b815481526020019060010190808311612671575b50505050509050919050565b5f838302815f1985870982811083820303915050805f036126c5578382816126bb576126bb613232565b0492505050610a56565b8084116126e3576126e384156126dc5760116127c7565b60126127c7565b5f848688095f868103871696879004966002600389028118808a02820302808a02820302808a02820302808a02820302808a02820302808a02909103029181900381900460010186841190950394909402919094039290920491909117919091029150509392505050565b5f6119ce8461275d8486612f3b565b6127696024600a61309a565b612691565b6060610a5683835f6127d8565b5f8181526001830160205260408120546127c057508154600181810184555f848152602080822090930184905584548482528286019093526040902091909155610877565b505f610877565b634e487b715f52806020526024601cfd5b6060814710156128045760405163cf47918160e01b8152476004820152602481018390526044016108fd565b5f5f856001600160a01b0316848660405161281f91906130bf565b5f6040518083038185875af1925050503d805f8114612859576040519150601f19603f3d011682016040523d82523d5f602084013e61285e565b606091505b509150915061286e868383612878565b9695505050505050565b60608261288d57612888826128d4565b610a56565b81511580156128a457506001600160a01b0384163b155b156128cd57604051639996b31560e01b81526001600160a01b03851660048201526024016108fd565b5080610a56565b8051156128e45780518082602001fd5b60405163d6bda27560e01b815260040160405180910390fd5b80356001600160a01b03811681146112a9575f5ffd5b80356001600160681b03811681146112a9575f5ffd5b5f5f6040838503121561293a575f5ffd5b612943836128fd565b915061295160208401612913565b90509250929050565b5f5f83601f84011261296a575f5ffd5b5081356001600160401b03811115612980575f5ffd5b6020830191508360208260051b850101111561299a575f5ffd5b9250929050565b5f5f5f604084860312156129b3575f5ffd5b6129bc846128fd565b925060208401356001600160401b038111156129d6575f5ffd5b6129e28682870161295a565b9497909650939450505050565b5f602082840312156129ff575f5ffd5b5035919050565b5f81518084528060208401602086015e5f602082860101526020601f19601f83011685010191505092915050565b602081525f610a566020830184612a06565b5f60208284031215612a56575f5ffd5b610a56826128fd565b5f5f83601f840112612a6f575f5ffd5b5081356001600160401b03811115612a85575f5ffd5b60208301915083602082850101111561299a575f5ffd5b5f5f60208385031215612aad575f5ffd5b82356001600160401b03811115612ac2575f5ffd5b612ace85828601612a5f565b90969095509350505050565b5f5f5f60408486031215612aec575f5ffd5b612af5846128fd565b925060208401356001600160401b03811115612b0f575f5ffd5b6129e286828701612a5f565b602080825282518282018190525f918401906040840190835b81811015612b7457835180518452602080820151818601526040918201516001600160a01b03169185019190915290930192606090920191600101612b34565b509095945050505050565b634e487b7160e01b5f52604160045260245ffd5b604051608081016001600160401b0381118282101715612bb557612bb5612b7f565b60405290565b5f82601f830112612bca575f5ffd5b81356001600160401b03811115612be357612be3612b7f565b604051601f8201601f19908116603f011681016001600160401b0381118282101715612c1157612c11612b7f565b604052818152838201602001851015612c28575f5ffd5b816020850160208301375f918101602001919091529392505050565b5f60208284031215612c54575f5ffd5b81356001600160401b03811115612c69575f5ffd5b6119ce84828501612bbb565b5f5f5f5f5f5f60c08789031215612c8a575f5ffd5b612c93876128fd565b955060208701359450612ca8604088016128fd565b959894975094956060810135955060808101359460a0909101359350915050565b803564ffffffffff811681146112a9575f5ffd5b5f5f5f5f60608587031215612cf0575f5ffd5b84356001600160401b03811115612d05575f5ffd5b612d1187828801612a5f565b9095509350612d24905060208601612cc9565b9150612d3260408601612913565b905092959194509250565b5f60208284031215612d4d575f5ffd5b81356001600160401b03811115612d62575f5ffd5b820160808185031215612d73575f5ffd5b612d7b612b93565b81356001600160401b03811115612d90575f5ffd5b612d9c86828501612bbb565b825250612dab602083016128fd565b6020820152612dbc60408301612913565b6040820152612dcd60608301612cc9565b6060820152949350505050565b5f5f5f60408486031215612dec575f5ffd5b83356001600160401b03811115612e01575f5ffd5b612e0d86828701612a5f565b9094509250612e20905060208501612cc9565b90509250925092565b5f5f5f5f60608587031215612e3c575f5ffd5b612e45856128fd565b9350612e53602086016128fd565b925060408501356001600160401b03811115612e6d575f5ffd5b612e798782880161295a565b95989497509550505050565b5f5f60408385031215612e96575f5ffd5b612e9f836128fd565b9150612951602084016128fd565b5f602082016020835280845180835260408501915060408160051b8601019250602086015f5b82811015612f0457603f19878603018452612eef858351612a06565b94506020938401939190910190600101612ed3565b50929695505050505050565b5f60208284031215612f20575f5ffd5b5051919050565b634e487b7160e01b5f52601160045260245ffd5b8181038181111561087757610877612f27565b634e487b7160e01b5f52603260045260245ffd5b5f5f8335601e19843603018112612f77575f5ffd5b8301803591506001600160401b03821115612f90575f5ffd5b60200191503681900382131561299a575f5ffd5b8082018082111561087757610877612f27565b6001815b6001841115612ff257808504811115612fd657612fd6612f27565b6001841615612fe457908102905b60019390931c928002612fbb565b935093915050565b5f8261300857506001610877565b8161301457505f610877565b816001811461302a576002811461303457613050565b6001915050610877565b60ff84111561304557613045612f27565b50506001821b610877565b5060208310610133831016604e8410600b8410161715613073575081810a610877565b61307f5f198484612fb7565b805f190482111561309257613092612f27565b029392505050565b5f610a5660ff841683612ffa565b5f81518060208401855e5f93019283525090919050565b5f610a5682846130a8565b805160208083015191908110156115ec575f1960209190910360031b1b16919050565b81835281816020850137505f828201602090810191909152601f909101601f19169091010190565b602081525f6119ce6020830184866130ed565b604081525f61313b6040830185876130ed565b905064ffffffffff83166020830152949350505050565b604081525f6131646040830185612a06565b90508260208301529392505050565b808202811582820484141761087757610877612f27565b5f8161319857613198612f27565b505f190190565b5f6131aa82856130a8565b6001600160f81b03199390931683525050600101919050565b6001600160a01b038181168382168181029092169181830481148215176131ec576131ec612f27565b505092915050565b6001600160a01b03818116838216019081111561087757610877612f27565b5f60208284031215613223575f5ffd5b81518015158114610a56575f5ffd5b634e487b7160e01b5f52601260045260245ffdfea2646970667358221220bad92a9d75e289032e53ed525cf93fddd3e6b61026797efa295dd0994ac771c564736f6c634300081c0033a2646970667358221220a7d5709131b7678f83e9a2c3c7f932ea91b2c65edf1560705682b3ea1648dfbd64736f6c634300081c0033",
  "language": "Solidity",
  "compiler": "0.8.28+commit.7893614a"
}