{
  "address": "0x760e527129e2F717D8e2e90A8E02d19c2382A80A",
  "abi": [
    {
      "inputs": [],
      "stateMutability": "nonpayable",
      "type": "constructor"
    },
    {
      "inputs": [],
      "name": "ORACLE_IMPLEMENTATION",
      "outputs": [
        {
          "internalType": "address",
          "name": "",
          "type": "address"
        }
      ],
      "stateMutability": "view",
      "type": "function"
    },
    {
      "inputs": [
        {
          "components": [
            {
              "internalType": "contract IERC20Metadata",
              "name": "baseToken",
              "type": "address"
            },
            {
              "internalType": "contract IERC20Metadata",
              "name": "quoteToken",
              "type": "address"
            },
            {
              "internalType": "contract AggregatorV3Interface",
              "name": "primaryAggregator",
              "type": "address"
            },
            {
              "internalType": "uint32",
              "name": "primaryHeartbeat",
              "type": "uint32"
            },
            {
              "internalType": "contract AggregatorV3Interface",
              "name": "secondaryAggregator",
              "type": "address"
            },
            {
              "internalType": "uint32",
              "name": "secondaryHeartbeat",
              "type": "uint32"
            },
            {
              "internalType": "uint256",
              "name": "normalizationDivider",
              "type": "uint256"
            },
            {
              "internalType": "uint256",
              "name": "normalizationMultiplier",
              "type": "uint256"
            },
            {
              "internalType": "bool",
              "name": "invertSecondPrice",
              "type": "bool"
            }
          ],
          "internalType": "struct IChainlinkV3Oracle.ChainlinkV3DeploymentConfig",
          "name": "_config",
          "type": "tuple"
        },
        {
          "internalType": "bytes32",
          "name": "_externalSalt",
          "type": "bytes32"
        }
      ],
      "name": "create",
      "outputs": [
        {
          "internalType": "contract ChainlinkV3Oracle",
          "name": "oracle",
          "type": "address"
        }
      ],
      "stateMutability": "nonpayable",
      "type": "function"
    },
    {
      "inputs": [
        {
          "internalType": "bytes32",
          "name": "",
          "type": "bytes32"
        }
      ],
      "name": "getConfigAddress",
      "outputs": [
        {
          "internalType": "address",
          "name": "",
          "type": "address"
        }
      ],
      "stateMutability": "view",
      "type": "function"
    },
    {
      "inputs": [
        {
          "internalType": "address",
          "name": "",
          "type": "address"
        }
      ],
      "name": "getOracleAddress",
      "outputs": [
        {
          "internalType": "address",
          "name": "",
          "type": "address"
        }
      ],
      "stateMutability": "view",
      "type": "function"
    },
    {
      "inputs": [
        {
          "components": [
            {
              "internalType": "contract IERC20Metadata",
              "name": "baseToken",
              "type": "address"
            },
            {
              "internalType": "contract IERC20Metadata",
              "name": "quoteToken",
              "type": "address"
            },
            {
              "internalType": "contract AggregatorV3Interface",
              "name": "primaryAggregator",
              "type": "address"
            },
            {
              "internalType": "uint32",
              "name": "primaryHeartbeat",
              "type": "uint32"
            },
            {
              "internalType": "contract AggregatorV3Interface",
              "name": "secondaryAggregator",
              "type": "address"
            },
            {
              "internalType": "uint32",
              "name": "secondaryHeartbeat",
              "type": "uint32"
            },
            {
              "internalType": "uint256",
              "name": "normalizationDivider",
              "type": "uint256"
            },
            {
              "internalType": "uint256",
              "name": "normalizationMultiplier",
              "type": "uint256"
            },
            {
              "internalType": "bool",
              "name": "invertSecondPrice",
              "type": "bool"
            }
          ],
          "internalType": "struct IChainlinkV3Oracle.ChainlinkV3DeploymentConfig",
          "name": "_config",
          "type": "tuple"
        }
      ],
      "name": "hashConfig",
      "outputs": [
        {
          "internalType": "bytes32",
          "name": "configId",
          "type": "bytes32"
        }
      ],
      "stateMutability": "view",
      "type": "function"
    },
    {
      "inputs": [
        {
          "internalType": "address",
          "name": "owner",
          "type": "address"
        }
      ],
      "name": "nonces",
      "outputs": [
        {
          "internalType": "uint256",
          "name": "",
          "type": "uint256"
        }
      ],
      "stateMutability": "view",
      "type": "function"
    },
    {
      "inputs": [
        {
          "components": [
            {
              "internalType": "contract IERC20Metadata",
              "name": "baseToken",
              "type": "address"
            },
            {
              "internalType": "contract IERC20Metadata",
              "name": "quoteToken",
              "type": "address"
            },
            {
              "internalType": "contract AggregatorV3Interface",
              "name": "primaryAggregator",
              "type": "address"
            },
            {
              "internalType": "uint32",
              "name": "primaryHeartbeat",
              "type": "uint32"
            },
            {
              "internalType": "contract AggregatorV3Interface",
              "name": "secondaryAggregator",
              "type": "address"
            },
            {
              "internalType": "uint32",
              "name": "secondaryHeartbeat",
              "type": "uint32"
            },
            {
              "internalType": "uint256",
              "name": "normalizationDivider",
              "type": "uint256"
            },
            {
              "internalType": "uint256",
              "name": "normalizationMultiplier",
              "type": "uint256"
            },
            {
              "internalType": "bool",
              "name": "invertSecondPrice",
              "type": "bool"
            }
          ],
          "internalType": "struct IChainlinkV3Oracle.ChainlinkV3DeploymentConfig",
          "name": "_config",
          "type": "tuple"
        }
      ],
      "name": "verifyConfig",
      "outputs": [
        {
          "internalType": "uint256",
          "name": "secondaryPriceDecimals",
          "type": "uint256"
        }
      ],
      "stateMutability": "view",
      "type": "function"
    },
    {
      "inputs": [
        {
          "components": [
            {
              "internalType": "contract IERC20Metadata",
              "name": "baseToken",
              "type": "address"
            },
            {
              "internalType": "contract IERC20Metadata",
              "name": "quoteToken",
              "type": "address"
            },
            {
              "internalType": "contract AggregatorV3Interface",
              "name": "primaryAggregator",
              "type": "address"
            },
            {
              "internalType": "uint32",
              "name": "primaryHeartbeat",
              "type": "uint32"
            },
            {
              "internalType": "contract AggregatorV3Interface",
              "name": "secondaryAggregator",
              "type": "address"
            },
            {
              "internalType": "uint32",
              "name": "secondaryHeartbeat",
              "type": "uint32"
            },
            {
              "internalType": "uint256",
              "name": "normalizationDivider",
              "type": "uint256"
            },
            {
              "internalType": "uint256",
              "name": "normalizationMultiplier",
              "type": "uint256"
            },
            {
              "internalType": "bool",
              "name": "invertSecondPrice",
              "type": "bool"
            }
          ],
          "internalType": "struct IChainlinkV3Oracle.ChainlinkV3DeploymentConfig",
          "name": "_config",
          "type": "tuple"
        }
      ],
      "name": "verifyHeartbeat",
      "outputs": [],
      "stateMutability": "pure",
      "type": "function"
    },
    {
      "anonymous": false,
      "inputs": [
        {
          "indexed": true,
          "internalType": "address",
          "name": "oracle",
          "type": "address"
        }
      ],
      "name": "NewOracle",
      "type": "event"
    },
    {
      "inputs": [],
      "name": "AddressZero",
      "type": "error"
    },
    {
      "inputs": [],
      "name": "AggregatorsAreTheSame",
      "type": "error"
    },
    {
      "inputs": [],
      "name": "FailedDeployment",
      "type": "error"
    },
    {
      "inputs": [],
      "name": "HugeDivider",
      "type": "error"
    },
    {
      "inputs": [],
      "name": "HugeMultiplier",
      "type": "error"
    },
    {
      "inputs": [
        {
          "internalType": "uint256",
          "name": "balance",
          "type": "uint256"
        },
        {
          "internalType": "uint256",
          "name": "needed",
          "type": "uint256"
        }
      ],
      "name": "InsufficientBalance",
      "type": "error"
    },
    {
      "inputs": [
        {
          "internalType": "address",
          "name": "account",
          "type": "address"
        },
        {
          "internalType": "uint256",
          "name": "currentNonce",
          "type": "uint256"
        }
      ],
      "name": "InvalidAccountNonce",
      "type": "error"
    },
    {
      "inputs": [],
      "name": "InvalidEthHeartbeat",
      "type": "error"
    },
    {
      "inputs": [],
      "name": "InvalidHeartbeat",
      "type": "error"
    },
    {
      "inputs": [],
      "name": "MultiplierAndDividerZero",
      "type": "error"
    },
    {
      "inputs": [],
      "name": "TokensAreTheSame",
      "type": "error"
    }
  ],
  "bytecode": "0x60a0604052348015600e575f5ffd5b506040516019906089565b604051809103905ff0801580156031573d5f5f3e3d5ffd5b506001600160a01b03811660795760405162461bcd60e51b815260206004820152600b60248201526a5a65726f4164647265737360a81b604482015260640160405180910390fd5b6001600160a01b03166080526096565b610a028061100483390190565b608051610f4f6100b55f395f818161014201526104490152610f4f5ff3fe608060405234801561000f575f5ffd5b5060043610610085575f3560e01c80637ecebe00116100585780637ecebe0014610115578063a8f39f661461013d578063b0b1f58514610164578063f896503a14610179575f5ffd5b806328e981661461008957806354482173146100af5780635b996c42146100ef5780637af14d6e14610102575b5f5ffd5b61009c6100973660046108c0565b6101a1565b6040519081526020015b60405180910390f35b6100d76100bd3660046108db565b60026020525f90815260409020546001600160a01b031681565b6040516001600160a01b0390911681526020016100a6565b6100d76100fd3660046108f6565b6103b0565b61009c6101103660046108c0565b6104e2565b61009c6101233660046108db565b6001600160a01b03165f9081526020819052604090205490565b6100d77f000000000000000000000000000000000000000000000000000000000000000081565b6101776101723660046108c0565b610511565b005b6100d7610187366004610921565b60016020525f90815260409020546001600160a01b031681565b60208101515f906001600160a01b03166101ce57604051639fabe1c160e01b815260040160405180910390fd5b81516001600160a01b03166101f657604051639fabe1c160e01b815260040160405180910390fd5b815f01516001600160a01b031682602001516001600160a01b03160361022f57604051633d4cfcc560e11b815260040160405180910390fd5b60408201516001600160a01b031661025a57604051639fabe1c160e01b815260040160405180910390fd5b81608001516001600160a01b031682604001516001600160a01b03160361029457604051630e04002960e11b815260040160405180910390fd5b60808201516001600160a01b0316156103115781608001516001600160a01b031663313ce5676040518163ffffffff1660e01b8152600401602060405180830381865afa1580156102e7573d5f5f3e3d5ffd5b505050506040513d601f19601f8201168201806040525081019061030b9190610938565b60ff1690505b6ec097ce7bc90715b34b9f10000000008260c00151111561034557604051631fe0fdf560e11b815260040160405180910390fd5b6ec097ce7bc90715b34b9f10000000008260e00151111561037957604051631f604a8560e21b815260040160405180910390fd5b60c082015115801561038d575060e0820151155b156103ab5760405163d156ee7f60e01b815260040160405180910390fd5b919050565b5f5f6103bb846104e2565b5f818152600160205260409020549091506001600160a01b031680156103fe576001600160a01b039081165f908152600260205260409020541691506104dc9050565b610407856101a1565b5061041185610511565b8460405161041e90610794565b6104289190610958565b604051809103905ff080158015610441573d5f5f3e3d5ffd5b5090506104767f0000000000000000000000000000000000000000000000000000000000000000610471866105d5565b610620565b9250610483838284610633565b60405163189acdbd60e31b81526001600160a01b03828116600483015284169063c4d66de8906024015f604051808303815f87803b1580156104c3575f5ffd5b505af11580156104d5573d5f5f3e3d5ffd5b5050505050505b92915050565b5f816040516020016104f49190610958565b604051602081830303815290604052805190602001209050919050565b601e816060015163ffffffff16108061053657506202a300816060015163ffffffff16115b1561055457604051638f1825c960e01b815260040160405180910390fd5b60808101516001600160a01b03166105925760a081015163ffffffff161561058f576040516329c5e8f160e21b815260040160405180910390fd5b50565b601e8160a0015163ffffffff1610806105b757506202a3008160a0015163ffffffff16115b1561058f576040516329c5e8f160e21b815260040160405180910390fd5b335f81815260208190526040812080546001810190915590919060405160609290921b6bffffffffffffffffffffffff191660208301526034820152605481018390526074016104f4565b5f61062c83835f610703565b9392505050565b5f818152600160205260409020546001600160a01b0316156106915760405162461bcd60e51b815260206004820152601260248201527110dbdb999a59d05b1c9958591e515e1a5cdd60721b60448201526064015b60405180910390fd5b5f81815260016020908152604080832080546001600160a01b038088166001600160a01b03199283168117909355918552600290935281842080549188169190931681179092555190917fb3eacd0e351fafdfefdec84e1cd19679b38dbcd63ea7c2c24da17fd2bc3b3c0e91a2505050565b5f8147101561072e5760405163cf47918160e01b815247600482015260248101839052604401610688565b6e5af43d82803e903d91602b57fd5bf360205283601152763d602d80600a3d3981f3363d3d373d3d3d363d730000008460881c175f52826037600984f590506001600160a01b03811661062c5760405163b06ebf3d60e01b815260040160405180910390fd5b6104fd80610a1d83390190565b604051610120810167ffffffffffffffff811182821017156107d157634e487b7160e01b5f52604160045260245ffd5b60405290565b6001600160a01b038116811461058f575f5ffd5b80356103ab816107d7565b803563ffffffff811681146103ab575f5ffd5b803580151581146103ab575f5ffd5b5f6101208284031215610829575f5ffd5b6108316107a1565b905061083c826107eb565b815261084a602083016107eb565b602082015261085b604083016107eb565b604082015261086c606083016107f6565b606082015261087d608083016107eb565b608082015261088e60a083016107f6565b60a082015260c0828101359082015260e080830135908201526108b46101008301610809565b61010082015292915050565b5f61012082840312156108d1575f5ffd5b61062c8383610818565b5f602082840312156108eb575f5ffd5b813561062c816107d7565b5f5f6101408385031215610908575f5ffd5b6109128484610818565b94610120939093013593505050565b5f60208284031215610931575f5ffd5b5035919050565b5f60208284031215610948575f5ffd5b815160ff8116811461062c575f5ffd5b81516001600160a01b03168152602080830151610120830191610985908401826001600160a01b03169052565b5060408301516109a060408401826001600160a01b03169052565b5060608301516109b8606084018263ffffffff169052565b5060808301516109d360808401826001600160a01b03169052565b5060a08301516109eb60a084018263ffffffff169052565b5060c083015160c083015260e083015160e0830152610100830151610a1561010084018215159052565b509291505056fe6101c0604052348015610010575f5ffd5b506040516104fd3803806104fd83398101604081905261002f9161011d565b80516020820151606083015160c08085015160e08087015160a09283529092526001600160a01b0394851690915291831661010090815263ffffffff918216608090815260408601518516610120528501805185166101405292850151909116610160529051909116151561018052015115156101a0526101c6565b60405161012081016001600160401b03811182821017156100da57634e487b7160e01b5f52604160045260245ffd5b60405290565b80516001600160a01b03811681146100f6575f5ffd5b919050565b805163ffffffff811681146100f6575f5ffd5b805180151581146100f6575f5ffd5b5f61012082840312801561012f575f5ffd5b506101386100ab565b610141836100e0565b815261014f602084016100e0565b6020820152610160604084016100e0565b6040820152610171606084016100fb565b6060820152610182608084016100e0565b608082015261019360a084016100fb565b60a082015260c0838101519082015260e080840151908201526101b9610100840161010e565b6101008201529392505050565b60805160a05160c05160e05161010051610120516101405161016051610180516101a0516102cd6102305f395f61019e01525f61017501525f60b401525f606701525f604201525f61014e01525f61012601525f61010001525f60da01525f608f01526102cd5ff3fe608060405234801561000f575f5ffd5b5060043610610029575f3560e01c8063c3f909d41461002d575b5f5ffd5b60408051610140810182526001600160a01b037f0000000000000000000000000000000000000000000000000000000000000000811682527f0000000000000000000000000000000000000000000000000000000000000000811660208301527f0000000000000000000000000000000000000000000000000000000000000000828401527f000000000000000000000000000000000000000000000000000000000000000060608301527f000000000000000000000000000000000000000000000000000000000000000060808301527f000000000000000000000000000000000000000000000000000000000000000060a08301527f0000000000000000000000000000000000000000000000000000000000000000811660c08301527f00000000000000000000000000000000000000000000000000000000000000001660e08201527f000000000000000000000000000000000000000000000000000000000000000015156101008201527f0000000000000000000000000000000000000000000000000000000000000000151561012082015290516101d191906101da565b60405180910390f35b81516001600160a01b031681526101408101602083015161020660208401826001600160a01b03169052565b5060408301516040830152606083015160608301526080830151608083015260a083015160a083015260c083015161024960c08401826001600160a01b03169052565b5060e083015161026460e08401826001600160a01b03169052565b5061010083015161027a61010084018215159052565b5061012083015161029061012084018215159052565b509291505056fea26469706673582212200289149b210661c8c07a18382fbeb47928cf7cd513cb99e6502941de666b06fe64736f6c634300081c0033a264697066735822122051114d87c97a41b8cbdb08ca071177666cf50fa180a3286f0c980cd9e0a5364964736f6c634300081c00336080604052348015600e575f5ffd5b5060156019565b60c9565b7ff0c57e16840df040f15088dc2f81fe391c3923bec73e23a9662efc9c229c6a00805468010000000000000000900460ff161560685760405163f92ee8a960e01b815260040160405180910390fd5b80546001600160401b039081161460c65780546001600160401b0319166001600160401b0390811782556040519081527fc7f505b2f371ae2175ee4913f4499e1f2633a7b5936321eed1cdaeb6115181d29060200160405180910390a15b50565b61092c806100d65f395ff3fe608060405234801561000f575f5ffd5b5060043610610060575f3560e01c806313b0be3314610064578063217a4b701461008a578063324b8d6e146100aa578063c4d66de8146100bc578063c71ed1e6146100d1578063f9fa619a146100fb575b5f5ffd5b6100776100723660046106c2565b61010c565b6040519081526020015b60405180910390f35b6100926102dc565b6040516001600160a01b039091168152602001610081565b5f54610092906001600160a01b031681565b6100cf6100ca3660046106f0565b610352565b005b6100e46100df36600461071f565b6104a7565b604080519215158352602083019190915201610081565b6100cf6101093660046106f0565b50565b5f8054604080516330fe427560e21b8152905183926001600160a01b03169163c3f909d4916004808301926101409291908290030181865afa158015610154573d5f5f3e3d5ffd5b505050506040513d601f19601f82011682018060405250810190610178919061078b565b90508060c001516001600160a01b0316836001600160a01b0316146101b05760405163981a2a2b60e01b815260040160405180910390fd5b6fffffffffffffffffffffffffffffffff8411156101e157604051631df5999960e21b815260040160405180910390fd5b5f5f6101f4835f01518460400151610557565b91509150816102155760405162bfc92160e01b815260040160405180910390fd5b82610100015161025d57610233868285608001518660a001516105fb565b9350835f03610255576040516301a7e28b60e61b815260040160405180910390fd5b5050506102d6565b5f5f61027185602001518660600151610557565b915091508161029357604051637c5ab47160e01b815260040160405180910390fd5b6102ae88848388608001518960a001518a6101200151610635565b9550855f036102d0576040516301a7e28b60e61b815260040160405180910390fd5b50505050505b92915050565b5f8054604080516330fe427560e21b8152905183926001600160a01b03169163c3f909d4916004808301926101409291908290030181865afa158015610324573d5f5f3e3d5ffd5b505050506040513d601f19601f82011682018060405250810190610348919061078b565b60e0015192915050565b7ff0c57e16840df040f15088dc2f81fe391c3923bec73e23a9662efc9c229c6a008054600160401b810460ff16159067ffffffffffffffff165f811580156103975750825b90505f8267ffffffffffffffff1660011480156103b35750303b155b9050811580156103c1575080155b156103df5760405163f92ee8a960e01b815260040160405180910390fd5b845467ffffffffffffffff19166001178555831561040957845460ff60401b1916600160401b1785555b5f80546001600160a01b0319166001600160a01b0388169081179091556040519081527f077847d1fadf50041a730385b3d6b2de1cdeb5e078cb933fb091003e7f10e07a9060200160405180910390a1831561049f57845460ff60401b19168555604051600181527fc7f505b2f371ae2175ee4913f4499e1f2633a7b5936321eed1cdaeb6115181d29060200160405180910390a15b505050505050565b5f5f5f5f5f9054906101000a90046001600160a01b03166001600160a01b031663c3f909d46040518163ffffffff1660e01b815260040161014060405180830381865afa1580156104fa573d5f5f3e3d5ffd5b505050506040513d601f19601f8201168201806040525081019061051e919061078b565b90508361053c5761053781602001518260600151610557565b61054d565b61054d815f01518260400151610557565b9250925050915091565b5f5f5f5f856001600160a01b031663feaf968c6040518163ffffffff1660e01b815260040160a060405180830381865afa158015610597573d5f5f3e3d5ffd5b505050506040513d601f19601f820116820180604052508101906105bb9190610852565b509350509250505f85420390505f831380156105d657508082115b156105ea57600183945094505050506105f4565b5f5f945094505050505b9250929050565b5f815f0361061c578284860281610614576106146108a0565b04905061062d565b84840261062983826108b4565b9150505b949350505050565b8585025f83900361067757816106545761064f85826108b4565b61065e565b61065e85826108d7565b905083818161066f5761066f6108a0565b0490506106a4565b61068183826108b4565b9050816106975761069285826108b4565b6106a1565b6106a185826108d7565b90505b9695505050505050565b6001600160a01b0381168114610109575f5ffd5b5f5f604083850312156106d3575f5ffd5b8235915060208301356106e5816106ae565b809150509250929050565b5f60208284031215610700575f5ffd5b813561070b816106ae565b9392505050565b8015158114610109575f5ffd5b5f6020828403121561072f575f5ffd5b813561070b81610712565b604051610140810167ffffffffffffffff8111828210171561076a57634e487b7160e01b5f52604160045260245ffd5b60405290565b805161077b816106ae565b919050565b805161077b81610712565b5f61014082840312801561079d575f5ffd5b506107a661073a565b6107af83610770565b81526107bd60208401610770565b602082015260408381015190820152606080840151908201526080808401519082015260a080840151908201526107f660c08401610770565b60c082015261080760e08401610770565b60e08201526108196101008401610780565b61010082015261082c6101208401610780565b6101208201529392505050565b805169ffffffffffffffffffff8116811461077b575f5ffd5b5f5f5f5f5f60a08688031215610866575f5ffd5b61086f86610839565b6020870151604088015160608901519297509095509350915061089460808701610839565b90509295509295909350565b634e487b7160e01b5f52601260045260245ffd5b80820281158282048414176102d657634e487b7160e01b5f52601160045260245ffd5b5f826108f157634e487b7160e01b5f52601260045260245ffd5b50049056fea264697066735822122036b952208cd464b392bb9cc8137a6cac78b097ba0df1e1c8d4cf7fa50a593f8c64736f6c634300081c0033",
  "language": "Solidity",
  "compiler": "0.8.28+commit.7893614a"
}