{
  "address": "0xd89dbc1199c01c679b808004F8F450894474f82B",
  "abi": [
    {
      "inputs": [],
      "stateMutability": "nonpayable",
      "type": "constructor"
    },
    {
      "inputs": [],
      "name": "DIA_DECIMALS",
      "outputs": [
        {
          "internalType": "uint256",
          "name": "",
          "type": "uint256"
        }
      ],
      "stateMutability": "view",
      "type": "function"
    },
    {
      "inputs": [],
      "name": "ORACLE_IMPLEMENTATION",
      "outputs": [
        {
          "internalType": "address",
          "name": "",
          "type": "address"
        }
      ],
      "stateMutability": "view",
      "type": "function"
    },
    {
      "inputs": [
        {
          "components": [
            {
              "internalType": "contract IDIAOracleV2",
              "name": "diaOracle",
              "type": "address"
            },
            {
              "internalType": "contract IERC20Metadata",
              "name": "baseToken",
              "type": "address"
            },
            {
              "internalType": "contract IERC20Metadata",
              "name": "quoteToken",
              "type": "address"
            },
            {
              "internalType": "uint32",
              "name": "heartbeat",
              "type": "uint32"
            },
            {
              "internalType": "string",
              "name": "primaryKey",
              "type": "string"
            },
            {
              "internalType": "string",
              "name": "secondaryKey",
              "type": "string"
            },
            {
              "internalType": "uint256",
              "name": "normalizationDivider",
              "type": "uint256"
            },
            {
              "internalType": "uint256",
              "name": "normalizationMultiplier",
              "type": "uint256"
            },
            {
              "internalType": "bool",
              "name": "invertSecondPrice",
              "type": "bool"
            }
          ],
          "internalType": "struct IDIAOracle.DIADeploymentConfig",
          "name": "_config",
          "type": "tuple"
        },
        {
          "internalType": "bytes32",
          "name": "_externalSalt",
          "type": "bytes32"
        }
      ],
      "name": "create",
      "outputs": [
        {
          "internalType": "contract DIAOracle",
          "name": "oracle",
          "type": "address"
        }
      ],
      "stateMutability": "nonpayable",
      "type": "function"
    },
    {
      "inputs": [
        {
          "internalType": "bytes32",
          "name": "",
          "type": "bytes32"
        }
      ],
      "name": "getConfigAddress",
      "outputs": [
        {
          "internalType": "address",
          "name": "",
          "type": "address"
        }
      ],
      "stateMutability": "view",
      "type": "function"
    },
    {
      "inputs": [
        {
          "internalType": "address",
          "name": "",
          "type": "address"
        }
      ],
      "name": "getOracleAddress",
      "outputs": [
        {
          "internalType": "address",
          "name": "",
          "type": "address"
        }
      ],
      "stateMutability": "view",
      "type": "function"
    },
    {
      "inputs": [
        {
          "components": [
            {
              "internalType": "contract IDIAOracleV2",
              "name": "diaOracle",
              "type": "address"
            },
            {
              "internalType": "contract IERC20Metadata",
              "name": "baseToken",
              "type": "address"
            },
            {
              "internalType": "contract IERC20Metadata",
              "name": "quoteToken",
              "type": "address"
            },
            {
              "internalType": "uint32",
              "name": "heartbeat",
              "type": "uint32"
            },
            {
              "internalType": "string",
              "name": "primaryKey",
              "type": "string"
            },
            {
              "internalType": "string",
              "name": "secondaryKey",
              "type": "string"
            },
            {
              "internalType": "uint256",
              "name": "normalizationDivider",
              "type": "uint256"
            },
            {
              "internalType": "uint256",
              "name": "normalizationMultiplier",
              "type": "uint256"
            },
            {
              "internalType": "bool",
              "name": "invertSecondPrice",
              "type": "bool"
            }
          ],
          "internalType": "struct IDIAOracle.DIADeploymentConfig",
          "name": "_config",
          "type": "tuple"
        }
      ],
      "name": "hashConfig",
      "outputs": [
        {
          "internalType": "bytes32",
          "name": "configId",
          "type": "bytes32"
        }
      ],
      "stateMutability": "view",
      "type": "function"
    },
    {
      "inputs": [
        {
          "internalType": "address",
          "name": "owner",
          "type": "address"
        }
      ],
      "name": "nonces",
      "outputs": [
        {
          "internalType": "uint256",
          "name": "",
          "type": "uint256"
        }
      ],
      "stateMutability": "view",
      "type": "function"
    },
    {
      "inputs": [
        {
          "components": [
            {
              "internalType": "contract IDIAOracleV2",
              "name": "diaOracle",
              "type": "address"
            },
            {
              "internalType": "contract IERC20Metadata",
              "name": "baseToken",
              "type": "address"
            },
            {
              "internalType": "contract IERC20Metadata",
              "name": "quoteToken",
              "type": "address"
            },
            {
              "internalType": "uint32",
              "name": "heartbeat",
              "type": "uint32"
            },
            {
              "internalType": "string",
              "name": "primaryKey",
              "type": "string"
            },
            {
              "internalType": "string",
              "name": "secondaryKey",
              "type": "string"
            },
            {
              "internalType": "uint256",
              "name": "normalizationDivider",
              "type": "uint256"
            },
            {
              "internalType": "uint256",
              "name": "normalizationMultiplier",
              "type": "uint256"
            },
            {
              "internalType": "bool",
              "name": "invertSecondPrice",
              "type": "bool"
            }
          ],
          "internalType": "struct IDIAOracle.DIADeploymentConfig",
          "name": "_config",
          "type": "tuple"
        }
      ],
      "name": "verifyConfig",
      "outputs": [],
      "stateMutability": "view",
      "type": "function"
    },
    {
      "anonymous": false,
      "inputs": [
        {
          "indexed": true,
          "internalType": "address",
          "name": "oracle",
          "type": "address"
        }
      ],
      "name": "NewOracle",
      "type": "event"
    },
    {
      "inputs": [],
      "name": "AddressZero",
      "type": "error"
    },
    {
      "inputs": [],
      "name": "EmptyPrimaryKey",
      "type": "error"
    },
    {
      "inputs": [],
      "name": "FailedDeployment",
      "type": "error"
    },
    {
      "inputs": [],
      "name": "HugeDivider",
      "type": "error"
    },
    {
      "inputs": [],
      "name": "HugeMultiplier",
      "type": "error"
    },
    {
      "inputs": [
        {
          "internalType": "uint256",
          "name": "balance",
          "type": "uint256"
        },
        {
          "internalType": "uint256",
          "name": "needed",
          "type": "uint256"
        }
      ],
      "name": "InsufficientBalance",
      "type": "error"
    },
    {
      "inputs": [
        {
          "internalType": "address",
          "name": "account",
          "type": "address"
        },
        {
          "internalType": "uint256",
          "name": "currentNonce",
          "type": "uint256"
        }
      ],
      "name": "InvalidAccountNonce",
      "type": "error"
    },
    {
      "inputs": [],
      "name": "InvalidHeartbeat",
      "type": "error"
    },
    {
      "inputs": [],
      "name": "MultiplierAndDividerZero",
      "type": "error"
    },
    {
      "inputs": [],
      "name": "TokensAreTheSame",
      "type": "error"
    }
  ],
  "bytecode": "0x60a0604052348015600e575f5ffd5b506040516019906089565b604051809103905ff0801580156031573d5f5f3e3d5ffd5b506001600160a01b03811660795760405162461bcd60e51b815260206004820152600b60248201526a5a65726f4164647265737360a81b604482015260640160405180910390fd5b6001600160a01b03166080526096565b610ea68061130583390190565b6080516112506100b55f395f8181610144015261022801526112505ff3fe608060405234801561000f575f5ffd5b5060043610610085575f3560e01c8063a678ffe411610058578063a678ffe41461012c578063a8f39f661461013f578063d40c754f14610166578063f896503a1461016e575f5ffd5b8063123aabe8146100895780632d2f017e146100b957806354482173146100ce5780637ecebe00146100f6575b5f5ffd5b61009c61009736600461070d565b610196565b6040516001600160a01b0390911681526020015b60405180910390f35b6100cc6100c736600461074f565b6102e2565b005b61009c6100dc36600461079d565b60026020525f90815260409020546001600160a01b031681565b61011e61010436600461079d565b6001600160a01b03165f9081526020819052604090205490565b6040519081526020016100b0565b61011e61013a36600461098f565b6104fb565b61009c7f000000000000000000000000000000000000000000000000000000000000000081565b61011e600881565b61009c61017c3660046109c1565b60016020525f90815260409020546001600160a01b031681565b5f806101a461013a856109d8565b5f818152600160205260409020549091506001600160a01b031680156101e7576001600160a01b039081165f908152600260205260409020541691506102dc9050565b6101f0856102e2565b846040516101fd906106e9565b6102079190610a54565b604051809103905ff080158015610220573d5f5f3e3d5ffd5b5090506102557f00000000000000000000000000000000000000000000000000000000000000006102508661052a565b610575565b9250610262838284610588565b6001600160a01b03831663906571478261027f6080890189610b50565b61028c60a08b018b610b50565b6040518663ffffffff1660e01b81526004016102ac959493929190610b93565b5f604051808303815f87803b1580156102c3575f5ffd5b505af11580156102d5573d5f5f3e3d5ffd5b5050505050505b92915050565b5f6102f0602083018361079d565b6001600160a01b03160361031757604051639fabe1c160e01b815260040160405180910390fd5b5f610328606083016040840161079d565b6001600160a01b03160361034f57604051639fabe1c160e01b815260040160405180910390fd5b5f610360604083016020840161079d565b6001600160a01b03160361038757604051639fabe1c160e01b815260040160405180910390fd5b610397604082016020830161079d565b6001600160a01b03166103b0606083016040840161079d565b6001600160a01b0316036103d757604051633d4cfcc560e11b815260040160405180910390fd5b6103e46080820182610b50565b90505f036104055760405163b036333f60e01b815260040160405180910390fd5b603c6104176080830160608401610bd6565b63ffffffff16108061044057506202a3006104386080830160608401610bd6565b63ffffffff16115b1561045e57604051638f1825c960e01b815260040160405180910390fd5b6ec097ce7bc90715b34b9f10000000008160c00135111561049257604051631fe0fdf560e11b815260040160405180910390fd5b6ec097ce7bc90715b34b9f10000000008160e0013511156104c657604051631f604a8560e21b815260040160405180910390fd5b60c08101351580156104da575060e0810135155b156104f85760405163d156ee7f60e01b815260040160405180910390fd5b50565b5f8160405160200161050d9190610c1d565b604051602081830303815290604052805190602001209050919050565b335f81815260208190526040812080546001810190915590919060405160609290921b6bffffffffffffffffffffffff1916602083015260348201526054810183905260740161050d565b5f61058183835f610658565b9392505050565b5f818152600160205260409020546001600160a01b0316156105e65760405162461bcd60e51b815260206004820152601260248201527110dbdb999a59d05b1c9958591e515e1a5cdd60721b60448201526064015b60405180910390fd5b5f81815260016020908152604080832080546001600160a01b038088166001600160a01b03199283168117909355918552600290935281842080549188169190931681179092555190917fb3eacd0e351fafdfefdec84e1cd19679b38dbcd63ea7c2c24da17fd2bc3b3c0e91a2505050565b5f814710156106835760405163cf47918160e01b8152476004820152602481018390526044016105dd565b6e5af43d82803e903d91602b57fd5bf360205283601152763d602d80600a3d3981f3363d3d373d3d3d363d730000008460881c175f52826037600984f590506001600160a01b0381166105815760405163b06ebf3d60e01b815260040160405180910390fd5b61053b80610ce083390190565b5f6101208284031215610707575f5ffd5b50919050565b5f5f6040838503121561071e575f5ffd5b823567ffffffffffffffff811115610734575f5ffd5b610740858286016106f6565b95602094909401359450505050565b5f6020828403121561075f575f5ffd5b813567ffffffffffffffff811115610775575f5ffd5b610781848285016106f6565b949350505050565b6001600160a01b03811681146104f8575f5ffd5b5f602082840312156107ad575f5ffd5b813561058181610789565b634e487b7160e01b5f52604160045260245ffd5b604051610120810167ffffffffffffffff811182821017156107f0576107f06107b8565b60405290565b803561080181610789565b919050565b803563ffffffff81168114610801575f5ffd5b5f82601f830112610828575f5ffd5b813567ffffffffffffffff811115610842576108426107b8565b604051601f8201601f19908116603f0116810167ffffffffffffffff81118282101715610871576108716107b8565b604052818152838201602001851015610888575f5ffd5b816020850160208301375f918101602001919091529392505050565b80358015158114610801575f5ffd5b5f61012082840312156108c4575f5ffd5b6108cc6107cc565b90506108d7826107f6565b81526108e5602083016107f6565b60208201526108f6604083016107f6565b604082015261090760608301610806565b6060820152608082013567ffffffffffffffff811115610925575f5ffd5b61093184828501610819565b60808301525060a082013567ffffffffffffffff811115610950575f5ffd5b61095c84828501610819565b60a08301525060c0828101359082015260e0808301359082015261098361010083016108a4565b61010082015292915050565b5f6020828403121561099f575f5ffd5b813567ffffffffffffffff8111156109b5575f5ffd5b610781848285016108b3565b5f602082840312156109d1575f5ffd5b5035919050565b5f6102dc36836108b3565b5f5f8335601e198436030181126109f8575f5ffd5b830160208101925035905067ffffffffffffffff811115610a17575f5ffd5b803603821315610a25575f5ffd5b9250929050565b81835281816020850137505f828201602090810191909152601f909101601f19169091010190565b60208152610a7560208201610a68846107f6565b6001600160a01b03169052565b5f610a82602084016107f6565b6001600160a01b038116604084015250610a9e604084016107f6565b6001600160a01b038116606084015250610aba60608401610806565b63ffffffff8116608084015250610ad460808401846109e3565b61012060a0850152610aeb61014085018284610a2c565b915050610afb60a08501856109e3565b848303601f190160c0860152610b12838284610a2c565b60c087013560e08781019190915287013561010080880191909152909350610b3e9250860190506108a4565b8015156101208501525b509392505050565b5f5f8335601e19843603018112610b65575f5ffd5b83018035915067ffffffffffffffff821115610b7f575f5ffd5b602001915036819003821315610a25575f5ffd5b6001600160a01b03861681526060602082018190525f90610bb79083018688610a2c565b8281036040840152610bca818587610a2c565b98975050505050505050565b5f60208284031215610be6575f5ffd5b61058182610806565b5f81518084528060208401602086015e5f602082860101526020601f19601f83011685010191505092915050565b60208152610c376020820183516001600160a01b03169052565b5f6020830151610c5260408401826001600160a01b03169052565b5060408301516001600160a01b038116606084015250606083015163ffffffff8116608084015250608083015161012060a0840152610c95610140840182610bef565b905060a0840151601f198483030160c0850152610cb28282610bef565b91505060c084015160e084015260e0840151610100840152610100840151610b486101208501821515905256fe610180604052348015610010575f5ffd5b5060405161053b38038061053b83398101604081905261002f91610197565b60208101516040820151606083015160c08085015160e08087015160a09283529092526001600160a01b0394851690915291831661010090815263ffffffff909116608052835190921661012052820151511515610140520151151561016052610297565b634e487b7160e01b5f52604160045260245ffd5b60405161012081016001600160401b03811182821017156100cb576100cb610094565b60405290565b80516001600160a01b03811681146100e7575f5ffd5b919050565b805163ffffffff811681146100e7575f5ffd5b5f82601f83011261010e575f5ffd5b81516001600160401b0381111561012757610127610094565b604051601f8201601f19908116603f011681016001600160401b038111828210171561015557610155610094565b60405281815283820160200185101561016c575f5ffd5b8160208501602083015e5f918101602001919091529392505050565b805180151581146100e7575f5ffd5b5f602082840312156101a7575f5ffd5b81516001600160401b038111156101bc575f5ffd5b820161012081850312156101ce575f5ffd5b6101d66100a8565b6101df826100d1565b81526101ed602083016100d1565b60208201526101fe604083016100d1565b604082015261020f606083016100ec565b606082015260808201516001600160401b0381111561022c575f5ffd5b610238868285016100ff565b60808301525060a08201516001600160401b03811115610256575f5ffd5b610262868285016100ff565b60a08301525060c0828101519082015260e080830151908201526102896101008301610188565b610100820152949350505050565b60805160a05160c05160e0516101005161012051610140516101605161024e6102ed5f395f61015501525f60e101525f604201525f608f01525f606701525f61012f01525f61010901525f60ba015261024e5ff3fe608060405234801561000f575f5ffd5b5060043610610029575f3560e01c8063c3f909d41461002d575b5f5ffd5b60408051610100810182526001600160a01b037f0000000000000000000000000000000000000000000000000000000000000000811682527f0000000000000000000000000000000000000000000000000000000000000000811660208301527f0000000000000000000000000000000000000000000000000000000000000000168183015263ffffffff7f00000000000000000000000000000000000000000000000000000000000000001660608201527f0000000000000000000000000000000000000000000000000000000000000000151560808201527f000000000000000000000000000000000000000000000000000000000000000060a08201527f000000000000000000000000000000000000000000000000000000000000000060c08201527f0000000000000000000000000000000000000000000000000000000000000000151560e082015290516101879190610190565b60405180910390f35b81516001600160a01b039081168252602080840151821690830152604080840151909116908201526060808301516101008301916101d59084018263ffffffff169052565b5060808301516101e9608084018215159052565b5060a083015160a083015260c083015160c083015260e083015161021160e084018215159052565b509291505056fea26469706673582212201cd9d6c6e6b28ed0d50ea9b3ac7cbe933db772df81fb4ed79d58dfa7ebf0784764736f6c634300081c0033a2646970667358221220861382bc7be750afe701afe409ea1b723f0862797f25942185ef84e670e29c6664736f6c634300081c00336080604052348015600e575f5ffd5b5060156019565b60c9565b7ff0c57e16840df040f15088dc2f81fe391c3923bec73e23a9662efc9c229c6a00805468010000000000000000900460ff161560685760405163f92ee8a960e01b815260040160405180910390fd5b80546001600160401b039081161460c65780546001600160401b0319166001600160401b0390811782556040519081527fc7f505b2f371ae2175ee4913f4499e1f2633a7b5936321eed1cdaeb6115181d29060200160405180910390a15b50565b610dd0806100d65f395ff3fe608060405234801561000f575f5ffd5b5060043610610085575f3560e01c80634163f2be116100585780634163f2be1461010157806346898455146101145780639065714714610146578063f9fa619a1461015b575f5ffd5b806313b0be3314610089578063210f70d6146100af578063217a4b70146100cf578063324b8d6e146100ef575b5f5ffd5b61009c6100973660046108da565b61016c565b6040519081526020015b60405180910390f35b6100c26100bd366004610908565b61049e565b6040516100a6919061092a565b6100d7610535565b6040516001600160a01b0390911681526020016100a6565b5f546100d7906001600160a01b031681565b6100c261010f366004610908565b6105ab565b610127610122366004610a28565b6105c3565b604080516001600160801b0390931683529015156020830152016100a6565b610159610154366004610a7e565b61067c565b005b610159610169366004610908565b50565b5f8054604080516330fe427560e21b815290516001600160a01b03909216918391839163c3f909d491600480820192610100929091908290030181865afa1580156101b9573d5f5f3e3d5ffd5b505050506040513d601f19601f820116820180604052508101906101dd9190610b26565b905080602001516001600160a01b0316846001600160a01b0316146102155760405163981a2a2b60e01b815260040160405180910390fd5b6001600160801b0385111561023d57604051631df5999960e21b815260040160405180910390fd5b80516001600160a01b0383165f9081526001602052604081208054919283926102f6929061026a90610bbe565b80601f016020809104026020016040519081016040528092919081815260200182805461029690610bbe565b80156102e15780601f106102b8576101008083540402835291602001916102e1565b820191905f5260205f20905b8154815290600101906020018083116102c457829003601f168201915b5050505050856060015163ffffffff166105c3565b91509150806103185760405163045b830b60e31b815260040160405180910390fd5b82608001516103695761033e87836001600160801b03168560a001518660c00151610813565b9450845f03610360576040516301a7e28b60e61b815260040160405180910390fd5b50505050610498565b82516001600160a01b0385165f908152600260205260408120805491928392610422929061039690610bbe565b80601f01602080910402602001604051908101604052809291908181526020018280546103c290610bbe565b801561040d5780601f106103e45761010080835404028352916020019161040d565b820191905f5260205f20905b8154815290600101906020018083116103f057829003601f168201915b5050505050876060015163ffffffff166105c3565b91509150806104435760405162b2f49d60e21b815260040160405180910390fd5b61046f89856001600160801b0316846001600160801b03168860a001518960c001518a60e0015161084d565b9650865f03610491576040516301a7e28b60e61b815260040160405180910390fd5b5050505050505b92915050565b60016020525f9081526040902080546104b690610bbe565b80601f01602080910402602001604051908101604052809291908181526020018280546104e290610bbe565b801561052d5780601f106105045761010080835404028352916020019161052d565b820191905f5260205f20905b81548152906001019060200180831161051057829003601f168201915b505050505081565b5f8054604080516330fe427560e21b8152905183926001600160a01b03169163c3f909d4916004808301926101009291908290030181865afa15801561057d573d5f5f3e3d5ffd5b505050506040513d601f19601f820116820180604052508101906105a19190610b26565b6040015192915050565b60026020525f9081526040902080546104b690610bbe565b5f5f5f856001600160a01b031663960384a0866040518263ffffffff1660e01b81526004016105f2919061092a565b6040805180830381865afa15801561060c573d5f5f3e3d5ffd5b505050506040513d601f19601f820116820180604052508101906106309190610c0c565b90935090506001600160801b0381165f0361065e57604051630eda9c3d60e31b815260040160405180910390fd5b5f844203905080826001600160801b03161192505050935093915050565b7ff0c57e16840df040f15088dc2f81fe391c3923bec73e23a9662efc9c229c6a008054600160401b810460ff16159067ffffffffffffffff165f811580156106c15750825b90505f8267ffffffffffffffff1660011480156106dd5750303b155b9050811580156106eb575080155b156107095760405163f92ee8a960e01b815260040160405180910390fd5b845467ffffffffffffffff19166001178555831561073357845460ff60401b1916600160401b1785555b5f80546001600160a01b0319166001600160a01b038a16908117825581526001602052604090206107648882610c89565b506001600160a01b0388165f9081526002602052604090206107868782610c89565b506040516001600160a01b03891681527f5a651441bdafde3075a9c7e808d14a04ff56554649472572fa3ce6c349f31e739060200160405180910390a1831561080957845460ff60401b19168555604051600181527fc7f505b2f371ae2175ee4913f4499e1f2633a7b5936321eed1cdaeb6115181d29060200160405180910390a15b5050505050505050565b5f815f0361083457828486028161082c5761082c610d44565b049050610845565b8484026108418382610d58565b9150505b949350505050565b8585025f83900361088f578161086c576108678582610d58565b610876565b6108768582610d7b565b905083818161088757610887610d44565b0490506108bc565b6108998382610d58565b9050816108af576108aa8582610d58565b6108b9565b6108b98582610d7b565b90505b9695505050505050565b6001600160a01b0381168114610169575f5ffd5b5f5f604083850312156108eb575f5ffd5b8235915060208301356108fd816108c6565b809150509250929050565b5f60208284031215610918575f5ffd5b8135610923816108c6565b9392505050565b602081525f82518060208401528060208501604085015e5f604082850101526040601f19601f83011684010191505092915050565b634e487b7160e01b5f52604160045260245ffd5b604051610100810167ffffffffffffffff811182821017156109975761099761095f565b60405290565b5f82601f8301126109ac575f5ffd5b813567ffffffffffffffff8111156109c6576109c661095f565b604051601f8201601f19908116603f0116810167ffffffffffffffff811182821017156109f5576109f561095f565b604052818152838201602001851015610a0c575f5ffd5b816020850160208301375f918101602001919091529392505050565b5f5f5f60608486031215610a3a575f5ffd5b8335610a45816108c6565b9250602084013567ffffffffffffffff811115610a60575f5ffd5b610a6c8682870161099d565b93969395505050506040919091013590565b5f5f5f60608486031215610a90575f5ffd5b8335610a9b816108c6565b9250602084013567ffffffffffffffff811115610ab6575f5ffd5b610ac28682870161099d565b925050604084013567ffffffffffffffff811115610ade575f5ffd5b610aea8682870161099d565b9150509250925092565b8051610aff816108c6565b919050565b805163ffffffff81168114610aff575f5ffd5b80518015158114610aff575f5ffd5b5f610100828403128015610b38575f5ffd5b50610b41610973565b8251610b4c816108c6565b8152610b5a60208401610af4565b6020820152610b6b60408401610af4565b6040820152610b7c60608401610b04565b6060820152610b8d60808401610b17565b608082015260a0838101519082015260c08084015190820152610bb260e08401610b17565b60e08201529392505050565b600181811c90821680610bd257607f821691505b602082108103610bf057634e487b7160e01b5f52602260045260245ffd5b50919050565b80516001600160801b0381168114610aff575f5ffd5b5f5f60408385031215610c1d575f5ffd5b610c2683610bf6565b9150610c3460208401610bf6565b90509250929050565b601f821115610c8457805f5260205f20601f840160051c81016020851015610c625750805b601f840160051c820191505b81811015610c81575f8155600101610c6e565b50505b505050565b815167ffffffffffffffff811115610ca357610ca361095f565b610cb781610cb18454610bbe565b84610c3d565b6020601f821160018114610ce9575f8315610cd25750848201515b5f19600385901b1c1916600184901b178455610c81565b5f84815260208120601f198516915b82811015610d185787850151825560209485019460019092019101610cf8565b5084821015610d3557868401515f19600387901b60f8161c191681555b50505050600190811b01905550565b634e487b7160e01b5f52601260045260245ffd5b808202811582820484141761049857634e487b7160e01b5f52601160045260245ffd5b5f82610d9557634e487b7160e01b5f52601260045260245ffd5b50049056fea264697066735822122017634e5dfd9b87d86b14a6b97b2e076f8f279c46b16a0b3e6d7aed6d84c81df064736f6c634300081c0033",
  "language": "Solidity",
  "compiler": "0.8.28+commit.7893614a"
}