{
  "address": "0x79339E63534aC0ee46Df1036E5bCd905CAd3DE08",
  "abi": [
    {
      "type": "constructor",
      "inputs": [
        {
          "name": "_pendleLinearOracleFactory",
          "type": "address",
          "internalType": "address"
        }
      ],
      "stateMutability": "nonpayable"
    },
    {
      "type": "function",
      "name": "ORACLE_IMPLEMENTATION",
      "inputs": [],
      "outputs": [
        {
          "name": "",
          "type": "address",
          "internalType": "address"
        }
      ],
      "stateMutability": "view"
    },
    {
      "type": "function",
      "name": "PENDLE_LINEAR_ORACLE_FACTORY",
      "inputs": [],
      "outputs": [
        {
          "name": "",
          "type": "address",
          "internalType": "contract ISparkLinearDiscountOracleFactory"
        }
      ],
      "stateMutability": "view"
    },
    {
      "type": "function",
      "name": "create",
      "inputs": [
        {
          "name": "_config",
          "type": "tuple",
          "internalType": "struct IPTLinearOracleFactory.DeploymentConfig",
          "components": [
            {
              "name": "ptMarket",
              "type": "address",
              "internalType": "address"
            },
            {
              "name": "expectedUnderlyingToken",
              "type": "address",
              "internalType": "address"
            },
            {
              "name": "maxYield",
              "type": "uint256",
              "internalType": "uint256"
            },
            {
              "name": "hardcodedQuoteToken",
              "type": "address",
              "internalType": "address"
            },
            {
              "name": "syRateMethod",
              "type": "string",
              "internalType": "string"
            }
          ]
        },
        {
          "name": "_externalSalt",
          "type": "bytes32",
          "internalType": "bytes32"
        }
      ],
      "outputs": [
        {
          "name": "oracle",
          "type": "address",
          "internalType": "contract IPTLinearOracle"
        }
      ],
      "stateMutability": "nonpayable"
    },
    {
      "type": "function",
      "name": "createAndVerifyConfig",
      "inputs": [
        {
          "name": "_config",
          "type": "tuple",
          "internalType": "struct IPTLinearOracleFactory.DeploymentConfig",
          "components": [
            {
              "name": "ptMarket",
              "type": "address",
              "internalType": "address"
            },
            {
              "name": "expectedUnderlyingToken",
              "type": "address",
              "internalType": "address"
            },
            {
              "name": "maxYield",
              "type": "uint256",
              "internalType": "uint256"
            },
            {
              "name": "hardcodedQuoteToken",
              "type": "address",
              "internalType": "address"
            },
            {
              "name": "syRateMethod",
              "type": "string",
              "internalType": "string"
            }
          ]
        }
      ],
      "outputs": [
        {
          "name": "oracleConfig",
          "type": "tuple",
          "internalType": "struct IPTLinearOracleConfig.OracleConfig",
          "components": [
            {
              "name": "linearOracle",
              "type": "address",
              "internalType": "address"
            },
            {
              "name": "ptToken",
              "type": "address",
              "internalType": "address"
            },
            {
              "name": "syToken",
              "type": "address",
              "internalType": "address"
            },
            {
              "name": "expectedUnderlyingToken",
              "type": "address",
              "internalType": "address"
            },
            {
              "name": "hardcodedQuoteToken",
              "type": "address",
              "internalType": "address"
            },
            {
              "name": "syRateMethodSelector",
              "type": "bytes4",
              "internalType": "bytes4"
            }
          ]
        }
      ],
      "stateMutability": "view"
    },
    {
      "type": "function",
      "name": "getConfigAddress",
      "inputs": [
        {
          "name": "",
          "type": "bytes32",
          "internalType": "bytes32"
        }
      ],
      "outputs": [
        {
          "name": "",
          "type": "address",
          "internalType": "address"
        }
      ],
      "stateMutability": "view"
    },
    {
      "type": "function",
      "name": "getOracleAddress",
      "inputs": [
        {
          "name": "",
          "type": "address",
          "internalType": "address"
        }
      ],
      "outputs": [
        {
          "name": "",
          "type": "address",
          "internalType": "address"
        }
      ],
      "stateMutability": "view"
    },
    {
      "type": "function",
      "name": "hashConfig",
      "inputs": [
        {
          "name": "_config",
          "type": "tuple",
          "internalType": "struct IPTLinearOracleConfig.OracleConfig",
          "components": [
            {
              "name": "linearOracle",
              "type": "address",
              "internalType": "address"
            },
            {
              "name": "ptToken",
              "type": "address",
              "internalType": "address"
            },
            {
              "name": "syToken",
              "type": "address",
              "internalType": "address"
            },
            {
              "name": "expectedUnderlyingToken",
              "type": "address",
              "internalType": "address"
            },
            {
              "name": "hardcodedQuoteToken",
              "type": "address",
              "internalType": "address"
            },
            {
              "name": "syRateMethodSelector",
              "type": "bytes4",
              "internalType": "bytes4"
            }
          ]
        }
      ],
      "outputs": [
        {
          "name": "configId",
          "type": "bytes32",
          "internalType": "bytes32"
        }
      ],
      "stateMutability": "view"
    },
    {
      "type": "function",
      "name": "nonces",
      "inputs": [
        {
          "name": "owner",
          "type": "address",
          "internalType": "address"
        }
      ],
      "outputs": [
        {
          "name": "",
          "type": "uint256",
          "internalType": "uint256"
        }
      ],
      "stateMutability": "view"
    },
    {
      "type": "function",
      "name": "predictAddress",
      "inputs": [
        {
          "name": "_config",
          "type": "tuple",
          "internalType": "struct IPTLinearOracleFactory.DeploymentConfig",
          "components": [
            {
              "name": "ptMarket",
              "type": "address",
              "internalType": "address"
            },
            {
              "name": "expectedUnderlyingToken",
              "type": "address",
              "internalType": "address"
            },
            {
              "name": "maxYield",
              "type": "uint256",
              "internalType": "uint256"
            },
            {
              "name": "hardcodedQuoteToken",
              "type": "address",
              "internalType": "address"
            },
            {
              "name": "syRateMethod",
              "type": "string",
              "internalType": "string"
            }
          ]
        },
        {
          "name": "_deployer",
          "type": "address",
          "internalType": "address"
        },
        {
          "name": "_externalSalt",
          "type": "bytes32",
          "internalType": "bytes32"
        }
      ],
      "outputs": [
        {
          "name": "predictedAddress",
          "type": "address",
          "internalType": "address"
        }
      ],
      "stateMutability": "view"
    },
    {
      "type": "function",
      "name": "resolveExistingOracle",
      "inputs": [
        {
          "name": "_configId",
          "type": "bytes32",
          "internalType": "bytes32"
        }
      ],
      "outputs": [
        {
          "name": "oracle",
          "type": "address",
          "internalType": "address"
        }
      ],
      "stateMutability": "view"
    },
    {
      "type": "event",
      "name": "NewOracle",
      "inputs": [
        {
          "name": "oracle",
          "type": "address",
          "indexed": true,
          "internalType": "address"
        }
      ],
      "anonymous": false
    },
    {
      "type": "error",
      "name": "AddressZero",
      "inputs": []
    },
    {
      "type": "error",
      "name": "AssetAddressMustBeOurUnderlyingToken",
      "inputs": []
    },
    {
      "type": "error",
      "name": "DeployerCannotBeZero",
      "inputs": []
    },
    {
      "type": "error",
      "name": "FailedDeployment",
      "inputs": []
    },
    {
      "type": "error",
      "name": "FailedToCallSyRateMethod",
      "inputs": []
    },
    {
      "type": "error",
      "name": "InsufficientBalance",
      "inputs": [
        {
          "name": "balance",
          "type": "uint256",
          "internalType": "uint256"
        },
        {
          "name": "needed",
          "type": "uint256",
          "internalType": "uint256"
        }
      ]
    },
    {
      "type": "error",
      "name": "InvalidAccountNonce",
      "inputs": [
        {
          "name": "account",
          "type": "address",
          "internalType": "address"
        },
        {
          "name": "currentNonce",
          "type": "uint256",
          "internalType": "uint256"
        }
      ]
    },
    {
      "type": "error",
      "name": "InvalidExchangeFactor",
      "inputs": []
    },
    {
      "type": "error",
      "name": "InvalidMaxYield",
      "inputs": []
    },
    {
      "type": "error",
      "name": "InvalidSyRateMethod",
      "inputs": []
    },
    {
      "type": "error",
      "name": "MaturityDateInvalid",
      "inputs": []
    },
    {
      "type": "error",
      "name": "MaturityDateIsInThePast",
      "inputs": []
    },
    {
      "type": "error",
      "name": "PTTokenDoesNotMatchMarket",
      "inputs": []
    }
  ],
  "bytecode": "0x60c060405234801561000f575f5ffd5b5060405161294f38038061294f83398101604081905261002e916100e7565b60405161003a906100da565b604051809103905ff080158015610053573d5f5f3e3d5ffd5b506001600160a01b03811661009c5760405162461bcd60e51b815260206004820152600b60248201526a5a65726f4164647265737360a81b604482015260640160405180910390fd5b6001600160a01b0390811660805281166100c957604051639fabe1c160e01b815260040160405180910390fd5b6001600160a01b031660a052610114565b611464806114eb83390190565b5f602082840312156100f7575f5ffd5b81516001600160a01b038116811461010d575f5ffd5b9392505050565b60805160a05161139a6101515f395f818161019f01526102f601525f8181610158015281816103c3015281816106f40152610885015261139a5ff3fe608060405234801561000f575f5ffd5b506004361061009b575f3560e01c8063a8f39f6611610063578063a8f39f6614610153578063e869eef91461017a578063f063953c1461019a578063f166b9cd146101c1578063f896503a146101d4575f5ffd5b80633b6709c71461009f57806354482173146100c55780635f4ec941146101055780636fa6041e146101185780637ecebe001461012b575b5f5ffd5b6100b26100ad366004610bae565b6101fc565b6040519081526020015b60405180910390f35b6100ed6100d3366004610c47565b60026020525f90815260409020546001600160a01b031681565b6040516001600160a01b0390911681526020016100bc565b6100ed610113366004610c62565b610255565b6100ed610126366004610daa565b61029a565b6100b2610139366004610c47565b6001600160a01b03165f9081526020819052604090205490565b6100ed7f000000000000000000000000000000000000000000000000000000000000000081565b61018d610188366004610dec565b610466565b6040516100bc9190610e26565b6100ed7f000000000000000000000000000000000000000000000000000000000000000081565b6100ed6101cf366004610e83565b61062e565b6100ed6101e2366004610c62565b60016020525f90815260409020546001600160a01b031681565b80515f906001600160a01b03161561022757604051639fabe1c160e01b815260040160405180910390fd5b816040516020016102389190610e26565b604051602081830303815290604052805190602001209050919050565b5f818152600160205260408120546001600160a01b03168015610291576001600160a01b038082165f9081526002602052604090205416610293565b5f5b9392505050565b5f5f6102a584610466565b90505f6102b1826101fc565b90505f6102bd82610255565b90506001600160a01b038116156102d8579250610460915050565b855160408088015190516380245dad60e01b81526001600160a01b037f000000000000000000000000000000000000000000000000000000000000000016926380245dad9261033d926004016001600160a01b03929092168252602082015260400190565b6020604051808303815f875af1158015610359573d5f5f3e3d5ffd5b505050506040513d601f19601f8201168201806040525081019061037d9190610ed9565b6001600160a01b031683526040515f90849061039890610b3d565b6103a29190610e26565b604051809103905ff0801580156103bb573d5f5f3e3d5ffd5b5090506103f07f00000000000000000000000000000000000000000000000000000000000000006103eb88610724565b61076f565b94506103fd85828561077b565b60808701516040516379ccf11760e11b81526001600160a01b0387169163f399e22e9161042e918591600401610ef4565b5f604051808303815f87803b158015610445575f5ffd5b505af1158015610457573d5f5f3e3d5ffd5b50505050505050505b92915050565b6040805160c0810182525f80825260208201819052818301819052606082018190526080820181905260a082015290820151670de0b6b3a7640000116104bf5760405163342c103960e11b815260040160405180910390fd5b60208201516001600160a01b03166104ea57604051639fabe1c160e01b815260040160405180910390fd5b60608201516001600160a01b031661051557604051639fabe1c160e01b815260040160405180910390fd5b60028260800151511161053b5760405163bdb4c1e960e01b815260040160405180910390fd5b5f5f835f01516001600160a01b0316632c8ce6bc6040518163ffffffff1660e01b8152600401606060405180830381865afa15801561057c573d5f5f3e3d5ffd5b505050506040513d601f19601f820116820180604052508101906105a09190610f38565b50915091506040518060c001604052805f6001600160a01b03168152602001826001600160a01b03168152602001836001600160a01b0316815260200185602001516001600160a01b0316815260200185606001516001600160a01b031681526020018560800151805190602001206001600160e01b03191681525092506106278361084b565b5050919050565b5f5f61063985610466565b90505f610645826101fc565b90505f61065182610255565b90506001600160a01b0381161561066c579250610293915050565b6001600160a01b0386166106935760405163e4452e2b60e01b815260040160405180910390fd5b6001600160a01b0386165f90815260208181526040918290205482516bffffffffffffffffffffffff1960608b901b1681840152603481019190915260548082018990528351808303909101815260749091019092528151910120610719907f000000000000000000000000000000000000000000000000000000000000000090610a4d565b979650505050505050565b335f81815260208190526040812080546001810190915590919060405160609290921b6bffffffffffffffffffffffff19166020830152603482015260548101839052607401610238565b5f61029383835f610aac565b5f818152600160205260409020546001600160a01b0316156107d95760405162461bcd60e51b815260206004820152601260248201527110dbdb999a59d05b1c9958591e515e1a5cdd60721b60448201526064015b60405180910390fd5b5f81815260016020908152604080832080546001600160a01b038088166001600160a01b03199283168117909355918552600290935281842080549188169190931681179092555190917fb3eacd0e351fafdfefdec84e1cd19679b38dbcd63ea7c2c24da17fd2bc3b3c0e91a2505050565b60408082015160a08301519151634bbfc8ed60e11b81526001600160a01b0391821660048201526001600160e01b031990921660248301527f0000000000000000000000000000000000000000000000000000000000000000169063977f91da90604401602060405180830381865afa1580156108ca573d5f5f3e3d5ffd5b505050506040513d601f19601f820116820180604052508101906108ee9190610f82565b505f81604001516001600160a01b031663a40bee506040518163ffffffff1660e01b8152600401606060405180830381865afa158015610930573d5f5f3e3d5ffd5b505050506040513d601f19601f820116820180604052508101906109549190610f99565b5091505081606001516001600160a01b0316816001600160a01b03161461098e5760405163d25cb77760e01b815260040160405180910390fd5b5f82602001516001600160a01b031663e184c9be6040518163ffffffff1660e01b8152600401602060405180830381865afa1580156109cf573d5f5f3e3d5ffd5b505050506040513d601f19601f820116820180604052508101906109f39190610f82565b90508015801590610a0b575067ffffffffffffffff81105b610a2857604051633b2e410960e21b815260040160405180910390fd5b428111610a48576040516370ae21ad60e11b815260040160405180910390fd5b505050565b6040513060388201526f5af43d82803e903d91602b57fd5bf3ff602482015260148101839052733d602d80600a3d3981f3363d3d373d3d3d363d738152605881018290526037600c820120607882015260556043909101205f90610293565b5f81471015610ad75760405163cf47918160e01b8152476004820152602481018390526044016107d0565b6e5af43d82803e903d91602b57fd5bf360205283601152763d602d80600a3d3981f3363d3d373d3d3d363d730000008460881c175f52826037600984f590506001600160a01b0381166102935760405163b06ebf3d60e01b815260040160405180910390fd5b61038480610fe183390190565b634e487b7160e01b5f52604160045260245ffd5b60405160c0810167ffffffffffffffff81118282101715610b8157610b81610b4a565b60405290565b6001600160a01b0381168114610b9b575f5ffd5b50565b8035610ba981610b87565b919050565b5f60c0828403128015610bbf575f5ffd5b50610bc8610b5e565b8235610bd381610b87565b81526020830135610be381610b87565b60208201526040830135610bf681610b87565b60408201526060830135610c0981610b87565b60608201526080830135610c1c81610b87565b608082015260a08301356001600160e01b031981168114610c3b575f5ffd5b60a08201529392505050565b5f60208284031215610c57575f5ffd5b813561029381610b87565b5f60208284031215610c72575f5ffd5b5035919050565b5f82601f830112610c88575f5ffd5b813567ffffffffffffffff811115610ca257610ca2610b4a565b604051601f8201601f19908116603f0116810167ffffffffffffffff81118282101715610cd157610cd1610b4a565b604052818152838201602001851015610ce8575f5ffd5b816020850160208301375f918101602001919091529392505050565b5f60a08284031215610d14575f5ffd5b60405160a0810167ffffffffffffffff81118282101715610d3757610d37610b4a565b6040529050808235610d4881610b87565b81526020830135610d5881610b87565b602082015260408381013590820152610d7360608401610b9e565b6060820152608083013567ffffffffffffffff811115610d91575f5ffd5b610d9d85828601610c79565b6080830152505092915050565b5f5f60408385031215610dbb575f5ffd5b823567ffffffffffffffff811115610dd1575f5ffd5b610ddd85828601610d04565b95602094909401359450505050565b5f60208284031215610dfc575f5ffd5b813567ffffffffffffffff811115610e12575f5ffd5b610e1e84828501610d04565b949350505050565b81516001600160a01b0390811682526020808401518216908301526040808401518216908301526060808401518216908301526080808401519091169082015260a0918201516001600160e01b0319169181019190915260c00190565b5f5f5f60608486031215610e95575f5ffd5b833567ffffffffffffffff811115610eab575f5ffd5b610eb786828701610d04565b9350506020840135610ec881610b87565b929592945050506040919091013590565b5f60208284031215610ee9575f5ffd5b815161029381610b87565b60018060a01b0383168152604060208201525f82518060408401528060208501606085015e5f606082850101526060601f19601f8301168401019150509392505050565b5f5f5f60608486031215610f4a575f5ffd5b8351610f5581610b87565b6020850151909350610f6681610b87565b6040850151909250610f7781610b87565b809150509250925092565b5f60208284031215610f92575f5ffd5b5051919050565b5f5f5f60608486031215610fab575f5ffd5b835160028110610fb9575f5ffd5b6020850151909350610fca81610b87565b604085015190925060ff81168114610f77575f5ffdfe610140604052348015610010575f5ffd5b5060405161038438038061038483398101604081905261002f916100db565b80516001600160a01b031661005757604051630d4f8ca960e01b815260040160405180910390fd5b80516001600160a01b0390811660809081526020830151821660a09081526040840151831660c0526060840151831660e052908301519091166101005201516001600160e01b03191661012052610185565b80516001600160a01b03811681146100bf575f5ffd5b919050565b80516001600160e01b0319811681146100bf575f5ffd5b5f60c08284031280156100ec575f5ffd5b5060405160c081016001600160401b038111828210171561011b57634e487b7160e01b5f52604160045260245ffd5b604052610127836100a9565b8152610135602084016100a9565b6020820152610146604084016100a9565b6040820152610157606084016100a9565b6060820152610168608084016100a9565b608082015261017960a084016100c4565b60a08201529392505050565b60805160a05160c05160e05161010051610120516101bd6101c75f395f61011b01525f60e701525f60bc01525f609301525f606801525f604201526101bd5ff3fe608060405234801561000f575f5ffd5b5060043610610029575f3560e01c8063c3f909d41461002d575b5f5ffd5b6040805160c080820183526001600160a01b037f000000000000000000000000000000000000000000000000000000000000000081168084527f0000000000000000000000000000000000000000000000000000000000000000821660208086019182527f000000000000000000000000000000000000000000000000000000000000000084168688019081527f0000000000000000000000000000000000000000000000000000000000000000851660608089019182527f000000000000000000000000000000000000000000000000000000000000000087166080808b019182526001600160e01b03197f0000000000000000000000000000000000000000000000000000000000000000811660a09c8d019081528d51998a5297518a1696890196909652935188169a87019a909a529051861690850152965190931695820195909552935116918301919091520160405180910390f3fea2646970667358221220d86e6b506db7969f2f28c8e97c523d588ffba74ee59156a684bffcbcdc32026564736f6c634300081c0033a2646970667358221220b0c50346b39964e8457300483b5efd83d8c76b9a2d9b1e534d38f5d3b4413f6664736f6c634300081c00336080604052348015600e575f5ffd5b5060156019565b60c9565b7ff0c57e16840df040f15088dc2f81fe391c3923bec73e23a9662efc9c229c6a00805468010000000000000000900460ff161560685760405163f92ee8a960e01b815260040160405180910390fd5b80546001600160401b039081161460c65780546001600160401b0319166001600160401b0390811782556040519081527fc7f505b2f371ae2175ee4913f4499e1f2633a7b5936321eed1cdaeb6115181d29060200160405180910390a15b50565b61138e806100d65f395ff3fe608060405234801561000f575f5ffd5b50600436106100cb575f3560e01c80637284e41611610088578063c4bebf2811610063578063c4bebf28146101bf578063f399e22e146101c7578063f9fa619a146101dc578063feaf968c146101ed575f5ffd5b80637284e41614610145578063977f91da1461015a5780639a6fc8f51461016d575f5ffd5b806313b0be33146100cf5780631b3ed722146100f5578063217a4b70146100fd578063313ce5671461011d578063324b8d6e1461012c57806354fd4d501461013e575b5f5ffd5b6100e26100dd366004610c9f565b6101f5565b6040519081526020015b60405180910390f35b6100e26103c3565b6101056104a3565b6040516001600160a01b0390911681526020016100ec565b604051601281526020016100ec565b5f54610105906001600160a01b031681565b60016100e2565b61014d610520565b6040516100ec9190610ccd565b6100e2610168366004610d17565b61064f565b61018861017b366004610d5a565b505f908190819081908190565b6040805169ffffffffffffffffffff968716815260208101959095528401929092526060830152909116608082015260a0016100ec565b61014d610741565b6101da6101d5366004610de8565b6107cd565b005b6101da6101ea366004610e75565b50565b610188610957565b5f80546001600160a01b03168061021f576040516321c4e35760e21b815260040160405180910390fd5b5f816001600160a01b031663c3f909d46040518163ffffffff1660e01b815260040160c060405180830381865afa15801561025c573d5f5f3e3d5ffd5b505050506040513d601f19601f820116820180604052508101906102809190610e90565b905080602001516001600160a01b0316846001600160a01b0316146102b85760405163981a2a2b60e01b815260040160405180910390fd5b6fffffffffffffffffffffffffffffffff8511156102e957604051631df5999960e21b815260040160405180910390fd5b5f815f01516001600160a01b031663feaf968c6040518163ffffffff1660e01b815260040160a060405180830381865afa158015610329573d5f5f3e3d5ffd5b505050506040513d601f19601f8201168201806040525081019061034d9190610f3b565b5050509150505f61036683604001518460a0015161064f565b90506ec097ce7bc90715b34b9f100000000082610383838a610fa3565b61038d9190610fa3565b6103979190610fc0565b9450845f036103b9576040516301a7e28b60e61b815260040160405180910390fd5b5050505092915050565b5f5f5f9054906101000a90046001600160a01b03166001600160a01b031663c3f909d46040518163ffffffff1660e01b815260040160c060405180830381865afa158015610413573d5f5f3e3d5ffd5b505050506040513d601f19601f820116820180604052508101906104379190610e90565b5f01516001600160a01b031663feaf968c6040518163ffffffff1660e01b815260040160a060405180830381865afa158015610475573d5f5f3e3d5ffd5b505050506040513d601f19601f820116820180604052508101906104999190610f3b565b5091949350505050565b5f5f5f9054906101000a90046001600160a01b03166001600160a01b031663c3f909d46040518163ffffffff1660e01b815260040160c060405180830381865afa1580156104f3573d5f5f3e3d5ffd5b505050506040513d601f19601f820116820180604052508101906105179190610e90565b60800151905090565b60605f6105a25f5f9054906101000a90046001600160a01b03166001600160a01b031663c3f909d46040518163ffffffff1660e01b815260040160c060405180830381865afa158015610575573d5f5f3e3d5ffd5b505050506040513d601f19601f820116820180604052508101906105999190610e90565b60200151610a13565b90505f6106245f5f9054906101000a90046001600160a01b03166001600160a01b031663c3f909d46040518163ffffffff1660e01b815260040160c060405180830381865afa1580156105f7573d5f5f3e3d5ffd5b505050506040513d601f19601f8201168201806040525081019061061b9190610e90565b60800151610a13565b90508181604051602001610639929190610ff6565b6040516020818303038152906040529250505090565b60408051600481526024810182526020810180516001600160e01b03166001600160e01b0319851617905290515f91829182916001600160a01b03871691610697919061103c565b5f60405180830381855afa9150503d805f81146106cf576040519150601f19603f3d011682016040523d82523d5f602084013e6106d4565b606091505b50915091508180156106e65750805115155b61070357604051635865b0b160e11b815260040160405180910390fd5b808060200190518101906107179190611047565b9250825f0361073957604051635f96ce5f60e01b815260040160405180910390fd5b505092915050565b6001805461074e9061105e565b80601f016020809104026020016040519081016040528092919081815260200182805461077a9061105e565b80156107c55780601f1061079c576101008083540402835291602001916107c5565b820191905f5260205f20905b8154815290600101906020018083116107a857829003601f168201915b505050505081565b7ff0c57e16840df040f15088dc2f81fe391c3923bec73e23a9662efc9c229c6a008054600160401b810460ff16159067ffffffffffffffff165f811580156108125750825b90505f8267ffffffffffffffff16600114801561082e5750303b155b90508115801561083c575080155b1561085a5760405163f92ee8a960e01b815260040160405180910390fd5b845467ffffffffffffffff19166001178555831561088457845460ff60401b1916600160401b1785555b6001600160a01b0387166108ae57604051600162089b9d60e21b0319815260040160405180910390fd5b5f80546001600160a01b0319166001600160a01b03891617905560016108d487826110e2565b506040516001600160a01b038816907ff8498d9c590d981ffb722123b267ee9ee723623d2406332ab6d713b7c7e30cec905f90a2831561094e57845460ff60401b19168555604051600181527fc7f505b2f371ae2175ee4913f4499e1f2633a7b5936321eed1cdaeb6115181d29060200160405180910390a15b50505050505050565b5f5f5f5f5f5f5f5f9054906101000a90046001600160a01b03166001600160a01b031663c3f909d46040518163ffffffff1660e01b815260040160c060405180830381865afa1580156109ac573d5f5f3e3d5ffd5b505050506040513d601f19601f820116820180604052508101906109d09190610e90565b6020015190505f6109e082610ab8565b6109eb90600a611280565b90506109ff6109fa82846101f5565b610b23565b5f9890975088965086955085945092505050565b6040805160048152602481019091526020810180516001600160e01b03166395d89b4160e01b1790526060905f908190610a4e908590610b57565b91509150811580610a5e57508051155b15610a835750506040805180820190915260018152603f60f81b602082015292915050565b6020815103610a9d57610a9581610c0d565b949350505050565b80806020019051810190610a95919061128b565b5050919050565b6040805160048152602481019091526020810180516001600160e01b031663313ce56760e01b1790525f9081908190610af2908590610b57565b9150915081610b0457505f9392505050565b80806020019051810190610b189190611300565b60ff16949350505050565b5f6001600160ff1b03821115610b535760405163123baf0360e11b81526004810183905260240160405180910390fd5b5090565b5f60606001600160a01b0384163b610b82576040516373d39f9d60e01b815260040160405180910390fd5b5f5f856001600160a01b031685604051610b9c919061103c565b5f60405180830381855afa9150503d805f8114610bd4576040519150601f19603f3d011682016040523d82523d5f602084013e610bd9565b606091505b509150915081610bfe575f60405180602001604052805f815250935093505050610c06565b600193509150505b9250929050565b80516060905f5b81811015610ab157838181518110610c2e57610c2e611320565b01602001516001600160f81b03191615610c835782848281518110610c5557610c55611320565b602001015160f81c60f81b604051602001610c71929190611334565b60405160208183030381529060405292505b600101610c14565b6001600160a01b03811681146101ea575f5ffd5b5f5f60408385031215610cb0575f5ffd5b823591506020830135610cc281610c8b565b809150509250929050565b602081525f82518060208401528060208501604085015e5f604082850101526040601f19601f83011684010191505092915050565b6001600160e01b0319811681146101ea575f5ffd5b5f5f60408385031215610d28575f5ffd5b8235610d3381610c8b565b91506020830135610cc281610d02565b69ffffffffffffffffffff811681146101ea575f5ffd5b5f60208284031215610d6a575f5ffd5b8135610d7581610d43565b9392505050565b634e487b7160e01b5f52604160045260245ffd5b604051601f8201601f1916810167ffffffffffffffff81118282101715610db957610db9610d7c565b604052919050565b5f67ffffffffffffffff821115610dda57610dda610d7c565b50601f01601f191660200190565b5f5f60408385031215610df9575f5ffd5b8235610e0481610c8b565b9150602083013567ffffffffffffffff811115610e1f575f5ffd5b8301601f81018513610e2f575f5ffd5b8035610e42610e3d82610dc1565b610d90565b818152866020838501011115610e56575f5ffd5b816020840160208301375f602083830101528093505050509250929050565b5f60208284031215610e85575f5ffd5b8135610d7581610c8b565b5f60c0828403128015610ea1575f5ffd5b5060405160c0810167ffffffffffffffff81118282101715610ec557610ec5610d7c565b6040528251610ed381610c8b565b81526020830151610ee381610c8b565b60208201526040830151610ef681610c8b565b60408201526060830151610f0981610c8b565b60608201526080830151610f1c81610c8b565b608082015260a0830151610f2f81610d02565b60a08201529392505050565b5f5f5f5f5f60a08688031215610f4f575f5ffd5b8551610f5a81610d43565b60208701516040880151606089015160808a015193985091965094509250610f8181610d43565b809150509295509295909350565b634e487b7160e01b5f52601160045260245ffd5b8082028115828204841417610fba57610fba610f8f565b92915050565b5f82610fda57634e487b7160e01b5f52601260045260245ffd5b500490565b5f81518060208401855e5f93019283525090919050565b720282a2634b732b0b927b930b1b632903337b91606d1b81525f61101d6013830185610fdf565b6201017960ed1b81526110336003820185610fdf565b95945050505050565b5f610d758284610fdf565b5f60208284031215611057575f5ffd5b5051919050565b600181811c9082168061107257607f821691505b60208210810361109057634e487b7160e01b5f52602260045260245ffd5b50919050565b601f8211156110dd57805f5260205f20601f840160051c810160208510156110bb5750805b601f840160051c820191505b818110156110da575f81556001016110c7565b50505b505050565b815167ffffffffffffffff8111156110fc576110fc610d7c565b6111108161110a845461105e565b84611096565b6020601f821160018114611142575f831561112b5750848201515b5f19600385901b1c1916600184901b1784556110da565b5f84815260208120601f198516915b828110156111715787850151825560209485019460019092019101611151565b508482101561118e57868401515f19600387901b60f8161c191681555b50505050600190811b01905550565b6001815b60018411156111d8578085048111156111bc576111bc610f8f565b60018416156111ca57908102905b60019390931c9280026111a1565b935093915050565b5f826111ee57506001610fba565b816111fa57505f610fba565b8160018114611210576002811461121a57611236565b6001915050610fba565b60ff84111561122b5761122b610f8f565b50506001821b610fba565b5060208310610133831016604e8410600b8410161715611259575081810a610fba565b6112655f19848461119d565b805f190482111561127857611278610f8f565b029392505050565b5f610d7583836111e0565b5f6020828403121561129b575f5ffd5b815167ffffffffffffffff8111156112b1575f5ffd5b8201601f810184136112c1575f5ffd5b80516112cf610e3d82610dc1565b8181528560208385010111156112e3575f5ffd5b8160208401602083015e5f91810160200191909152949350505050565b5f60208284031215611310575f5ffd5b815160ff81168114610d75575f5ffd5b634e487b7160e01b5f52603260045260245ffd5b5f61133f8285610fdf565b6001600160f81b0319939093168352505060010191905056fea2646970667358221220eceac08465b48685cf3ea61abb72a6ea8f907026f50b9bc308650f0f510bc02a64736f6c634300081c0033",
  "language": "Solidity",
  "compiler": "0.8.28+commit.7893614a"
}