{
  "address": "0x0B8b3dfc1Ae2742e0b0b6f328d03ce06D1210FAc",
  "abi": [
    {
      "type": "function",
      "name": "create",
      "inputs": [
        {
          "name": "_oracle",
          "type": "address",
          "internalType": "contract ISiloOracle"
        },
        {
          "name": "_vault",
          "type": "address",
          "internalType": "contract IERC4626"
        },
        {
          "name": "_externalSalt",
          "type": "bytes32",
          "internalType": "bytes32"
        }
      ],
      "outputs": [
        {
          "name": "oracle",
          "type": "address",
          "internalType": "contract WrappedVaultOracle"
        }
      ],
      "stateMutability": "nonpayable"
    },
    {
      "type": "function",
      "name": "madeByFactory",
      "inputs": [
        {
          "name": "deployedOracle",
          "type": "address",
          "internalType": "address"
        }
      ],
      "outputs": [
        {
          "name": "isMade",
          "type": "bool",
          "internalType": "bool"
        }
      ],
      "stateMutability": "view"
    },
    {
      "type": "function",
      "name": "nonces",
      "inputs": [
        {
          "name": "owner",
          "type": "address",
          "internalType": "address"
        }
      ],
      "outputs": [
        {
          "name": "",
          "type": "uint256",
          "internalType": "uint256"
        }
      ],
      "stateMutability": "view"
    },
    {
      "type": "function",
      "name": "verifyConfig",
      "inputs": [
        {
          "name": "_oracle",
          "type": "address",
          "internalType": "contract ISiloOracle"
        },
        {
          "name": "_vault",
          "type": "address",
          "internalType": "contract IERC4626"
        }
      ],
      "outputs": [],
      "stateMutability": "view"
    },
    {
      "type": "event",
      "name": "NewOracle",
      "inputs": [
        {
          "name": "oracle",
          "type": "address",
          "indexed": true,
          "internalType": "address"
        }
      ],
      "anonymous": false
    },
    {
      "type": "error",
      "name": "AssetZero",
      "inputs": []
    },
    {
      "type": "error",
      "name": "ExistingAddress",
      "inputs": []
    },
    {
      "type": "error",
      "name": "InvalidAccountNonce",
      "inputs": [
        {
          "name": "account",
          "type": "address",
          "internalType": "address"
        },
        {
          "name": "currentNonce",
          "type": "uint256",
          "internalType": "uint256"
        }
      ]
    },
    {
      "type": "error",
      "name": "NewOracleZero",
      "inputs": []
    },
    {
      "type": "error",
      "name": "QuoteTokenZero",
      "inputs": []
    }
  ],
  "bytecode": "0x6080604052348015600e575f5ffd5b50610d8c8061001c5f395ff3fe608060405234801561000f575f5ffd5b506004361061004a575f3560e01c80637ecebe001461004e578063c0d530a014610089578063d1692f56146100bb578063ff9e3187146100e6575b5f5ffd5b61007661005c3660046104ec565b6001600160a01b03165f9081526020819052604090205490565b6040519081526020015b60405180910390f35b6100ab6100973660046104ec565b60016020525f908152604090205460ff1681565b6040519015158152602001610080565b6100ce6100c9366004610507565b6100fb565b6040516001600160a01b039091168152602001610080565b6100f96100f4366004610545565b6101b3565b005b5f61010684846101b3565b335f8181526020818152604091829020805460018101909155825160609490941b6bffffffffffffffffffffffff191684830152603484015260548084018690528251808503909101815260749093019091528151910120848460405161016c906104c8565b6001600160a01b039283168152911660208201526040018190604051809103905ff59050801580156101a0573d5f5f3e3d5ffd5b5090506101ac8161041a565b9392505050565b5f816001600160a01b03166338d52e0f6040518163ffffffff1660e01b8152600401602060405180830381865afa1580156101f0573d5f5f3e3d5ffd5b505050506040513d601f19601f82011682018060405250810190610214919061057c565b90506001600160a01b03811661023d5760405163945841a560e01b815260040160405180910390fd5b5f6001600160a01b0316836001600160a01b031663217a4b706040518163ffffffff1660e01b8152600401602060405180830381865afa158015610283573d5f5f3e3d5ffd5b505050506040513d601f19601f820116820180604052508101906102a7919061057c565b6001600160a01b0316036102ce576040516305235ce760e51b815260040160405180910390fd5b826001600160a01b03166313b0be33836001600160a01b03166338d52e0f6040518163ffffffff1660e01b8152600401602060405180830381865afa158015610319573d5f5f3e3d5ffd5b505050506040513d601f19601f8201168201806040525081019061033d919061057c565b6001600160a01b031663313ce5676040518163ffffffff1660e01b8152600401602060405180830381865afa158015610378573d5f5f3e3d5ffd5b505050506040513d601f19601f8201168201806040525081019061039c9190610597565b6103a790600a6106b0565b6040516001600160e01b031960e084901b16815260048101919091526001600160a01b0384166024820152604401602060405180830381865afa1580156103f0573d5f5f3e3d5ffd5b505050506040513d601f19601f8201168201806040525081019061041491906106be565b50505050565b6001600160a01b038116610441576040516314ea113360e01b815260040160405180910390fd5b6001600160a01b0381165f9081526001602052604090205460ff161561047a576040516306de2c2b60e31b815260040160405180910390fd5b6001600160a01b0381165f818152600160208190526040808320805460ff1916909217909155517fb3eacd0e351fafdfefdec84e1cd19679b38dbcd63ea7c2c24da17fd2bc3b3c0e9190a250565b610681806106d683390190565b6001600160a01b03811681146104e9575f5ffd5b50565b5f602082840312156104fc575f5ffd5b81356101ac816104d5565b5f5f5f60608486031215610519575f5ffd5b8335610524816104d5565b92506020840135610534816104d5565b929592945050506040919091013590565b5f5f60408385031215610556575f5ffd5b8235610561816104d5565b91506020830135610571816104d5565b809150509250929050565b5f6020828403121561058c575f5ffd5b81516101ac816104d5565b5f602082840312156105a7575f5ffd5b815160ff811681146101ac575f5ffd5b634e487b7160e01b5f52601160045260245ffd5b6001815b6001841115610606578085048111156105ea576105ea6105b7565b60018416156105f857908102905b60019390931c9280026105cf565b935093915050565b5f8261061c575060016106aa565b8161062857505f6106aa565b816001811461063e576002811461064857610664565b60019150506106aa565b60ff841115610659576106596105b7565b50506001821b6106aa565b5060208310610133831016604e8410600b8410161715610687575081810a6106aa565b6106935f1984846105cb565b805f19048211156106a6576106a66105b7565b0290505b92915050565b5f6101ac60ff84168361060e565b5f602082840312156106ce575f5ffd5b505191905056fe610100604052348015610010575f5ffd5b5060405161068138038061068183398101604081905261002f91610146565b6001600160a01b03808216608081905290831660e052604080516338d52e0f60e01b815290516338d52e0f916004808201926020929091908290030181865afa15801561007e573d5f5f3e3d5ffd5b505050506040513d601f19601f820116820180604052508101906100a2919061017e565b6001600160a01b031660c0816001600160a01b031681525050816001600160a01b031663217a4b706040518163ffffffff1660e01b8152600401602060405180830381865afa1580156100f7573d5f5f3e3d5ffd5b505050506040513d601f19601f8201168201806040525081019061011b919061017e565b6001600160a01b031660a052506101a09050565b6001600160a01b0381168114610143575f5ffd5b50565b5f5f60408385031215610157575f5ffd5b82516101628161012f565b60208401519092506101738161012f565b809150509250929050565b5f6020828403121561018e575f5ffd5b81516101998161012f565b9392505050565b60805160a05160c05160e05161048d6101f45f395f818161016b015261034701525f818161013c015261031c01525f81816081015261010d01525f818160de01528181610225015261028d015261048d5ff3fe608060405234801561000f575f5ffd5b506004361061004a575f3560e01c806313b0be331461004e578063217a4b7014610074578063c3f909d4146100ab578063f9fa619a146101de575b5f5ffd5b61006161005c3660046103f6565b6101f1565b6040519081526020015b60405180910390f35b6040516001600160a01b037f000000000000000000000000000000000000000000000000000000000000000016815260200161006b565b61019b604080516080810182525f80825260208201819052918101829052606081019190915260405180608001604052807f00000000000000000000000000000000000000000000000000000000000000006001600160a01b031681526020017f00000000000000000000000000000000000000000000000000000000000000006001600160a01b031681526020017f00000000000000000000000000000000000000000000000000000000000000006001600160a01b031681526020017f00000000000000000000000000000000000000000000000000000000000000006001600160a01b0316815250905090565b60405161006b919081516001600160a01b039081168252602080840151821690830152604080840151821690830152606092830151169181019190915260800190565b6101ef6101ec366004610420565b50565b005b5f6fffffffffffffffffffffffffffffffff83111561022357604051631df5999960e21b815260040160405180910390fd5b7f00000000000000000000000000000000000000000000000000000000000000006001600160a01b0316826001600160a01b0316146102755760405163981a2a2b60e01b815260040160405180910390fd5b6040516303d1689d60e11b8152600481018490525f907f00000000000000000000000000000000000000000000000000000000000000006001600160a01b0316906307a2d13a90602401602060405180830381865afa1580156102da573d5f5f3e3d5ffd5b505050506040513d601f19601f820116820180604052508101906102fe9190610440565b6040516313b0be3360e01b8152600481018290526001600160a01b037f0000000000000000000000000000000000000000000000000000000000000000811660248301529192507f0000000000000000000000000000000000000000000000000000000000000000909116906313b0be3390604401602060405180830381865afa15801561038e573d5f5f3e3d5ffd5b505050506040513d601f19601f820116820180604052508101906103b29190610440565b9150815f036103d4576040516301a7e28b60e61b815260040160405180910390fd5b5092915050565b80356001600160a01b03811681146103f1575f5ffd5b919050565b5f5f60408385031215610407575f5ffd5b82359150610417602084016103db565b90509250929050565b5f60208284031215610430575f5ffd5b610439826103db565b9392505050565b5f60208284031215610450575f5ffd5b505191905056fea264697066735822122056d25f2281a381b0ee488ab74e4d7f942525128cc5eb3ad368a693566d61304f64736f6c634300081c0033a2646970667358221220e350afc25cf6d9e0f156425abfff573cb9a644b87d78b51fd5e698d8118982e864736f6c634300081c0033",
  "language": "Solidity",
  "compiler": "0.8.28+commit.7893614a"
}