{
  "address": "0x8509b92145Bb2645F47c6847Bb61A46bE61AE3F2",
  "abi": [
    {
      "type": "constructor",
      "inputs": [],
      "stateMutability": "nonpayable"
    },
    {
      "type": "function",
      "name": "ORACLE_IMPLEMENTATION",
      "inputs": [],
      "outputs": [
        {
          "name": "",
          "type": "address",
          "internalType": "address"
        }
      ],
      "stateMutability": "view"
    },
    {
      "type": "function",
      "name": "create",
      "inputs": [
        {
          "name": "_cfg",
          "type": "tuple",
          "internalType": "struct IWrappedVaultOracle.WrappedVaultDeploymentConfig",
          "components": [
            {
              "name": "oracle",
              "type": "address",
              "internalType": "contract ISiloOracle"
            },
            {
              "name": "vault",
              "type": "address",
              "internalType": "contract IERC4626"
            }
          ]
        },
        {
          "name": "_externalSalt",
          "type": "bytes32",
          "internalType": "bytes32"
        }
      ],
      "outputs": [
        {
          "name": "oracle",
          "type": "address",
          "internalType": "contract WrappedVaultOracle"
        }
      ],
      "stateMutability": "nonpayable"
    },
    {
      "type": "function",
      "name": "getConfigAddress",
      "inputs": [
        {
          "name": "",
          "type": "bytes32",
          "internalType": "bytes32"
        }
      ],
      "outputs": [
        {
          "name": "",
          "type": "address",
          "internalType": "address"
        }
      ],
      "stateMutability": "view"
    },
    {
      "type": "function",
      "name": "getOracleAddress",
      "inputs": [
        {
          "name": "",
          "type": "address",
          "internalType": "address"
        }
      ],
      "outputs": [
        {
          "name": "",
          "type": "address",
          "internalType": "address"
        }
      ],
      "stateMutability": "view"
    },
    {
      "type": "function",
      "name": "hashConfig",
      "inputs": [
        {
          "name": "_cfg",
          "type": "tuple",
          "internalType": "struct IWrappedVaultOracle.WrappedVaultDeploymentConfig",
          "components": [
            {
              "name": "oracle",
              "type": "address",
              "internalType": "contract ISiloOracle"
            },
            {
              "name": "vault",
              "type": "address",
              "internalType": "contract IERC4626"
            }
          ]
        }
      ],
      "outputs": [
        {
          "name": "configId",
          "type": "bytes32",
          "internalType": "bytes32"
        }
      ],
      "stateMutability": "view"
    },
    {
      "type": "function",
      "name": "nonces",
      "inputs": [
        {
          "name": "owner",
          "type": "address",
          "internalType": "address"
        }
      ],
      "outputs": [
        {
          "name": "",
          "type": "uint256",
          "internalType": "uint256"
        }
      ],
      "stateMutability": "view"
    },
    {
      "type": "function",
      "name": "verifyConfig",
      "inputs": [
        {
          "name": "_cfg",
          "type": "tuple",
          "internalType": "struct IWrappedVaultOracle.WrappedVaultDeploymentConfig",
          "components": [
            {
              "name": "oracle",
              "type": "address",
              "internalType": "contract ISiloOracle"
            },
            {
              "name": "vault",
              "type": "address",
              "internalType": "contract IERC4626"
            }
          ]
        }
      ],
      "outputs": [],
      "stateMutability": "view"
    },
    {
      "type": "event",
      "name": "NewOracle",
      "inputs": [
        {
          "name": "oracle",
          "type": "address",
          "indexed": true,
          "internalType": "address"
        }
      ],
      "anonymous": false
    },
    {
      "type": "error",
      "name": "AssetZero",
      "inputs": []
    },
    {
      "type": "error",
      "name": "FailedDeployment",
      "inputs": []
    },
    {
      "type": "error",
      "name": "InsufficientBalance",
      "inputs": [
        {
          "name": "balance",
          "type": "uint256",
          "internalType": "uint256"
        },
        {
          "name": "needed",
          "type": "uint256",
          "internalType": "uint256"
        }
      ]
    },
    {
      "type": "error",
      "name": "InvalidAccountNonce",
      "inputs": [
        {
          "name": "account",
          "type": "address",
          "internalType": "address"
        },
        {
          "name": "currentNonce",
          "type": "uint256",
          "internalType": "uint256"
        }
      ]
    },
    {
      "type": "error",
      "name": "QuoteTokenZero",
      "inputs": []
    }
  ],
  "bytecode": "0x60a0604052348015600e575f5ffd5b506040516019906089565b604051809103905ff0801580156031573d5f5f3e3d5ffd5b506001600160a01b03811660795760405162461bcd60e51b815260206004820152600b60248201526a5a65726f4164647265737360a81b604482015260640160405180910390fd5b6001600160a01b03166080526096565b6106af80610b5083390190565b608051610a9b6100b55f395f8181610111015261023b0152610a9b5ff3fe608060405234801561000f575f5ffd5b506004361061007a575f3560e01c8063a8f39f6611610058578063a8f39f661461010c578063c7b4822614610133578063cbeb33e514610148578063f896503a1461015b575f5ffd5b80633aac456b1461007e57806354482173146100ae5780637ecebe00146100d6575b5f5ffd5b61009161008c366004610613565b610183565b6040516001600160a01b0390911681526020015b60405180910390f35b6100916100bc366004610650565b60026020525f90815260409020546001600160a01b031681565b6100fe6100e4366004610650565b6001600160a01b03165f9081526020819052604090205490565b6040519081526020016100a5565b6100917f000000000000000000000000000000000000000000000000000000000000000081565b61014661014136600461066b565b6102d4565b005b6100fe61015636600461066b565b610402565b610091610169366004610685565b60016020525f90815260409020546001600160a01b031681565b5f5f61018e84610402565b5f818152600160205260409020549091506001600160a01b031680156101d1576001600160a01b039081165f908152600260205260409020541691506102ce9050565b6101da856102d4565b6101e76020860186610650565b6101f76040870160208801610650565b604051610203906105f0565b6001600160a01b03928316815291166020820152604001604051809103905ff080158015610233573d5f5f3e3d5ffd5b5090506102687f000000000000000000000000000000000000000000000000000000000000000061026386610431565b61047c565b925061027583828461048f565b60405163189acdbd60e31b81526001600160a01b03828116600483015284169063c4d66de8906024015f604051808303815f87803b1580156102b5575f5ffd5b505af11580156102c7573d5f5f3e3d5ffd5b5050505050505b92915050565b5f6102e56040830160208401610650565b6001600160a01b03166338d52e0f6040518163ffffffff1660e01b8152600401602060405180830381865afa158015610320573d5f5f3e3d5ffd5b505050506040513d601f19601f82011682018060405250810190610344919061069c565b6001600160a01b03160361036b5760405163945841a560e01b815260040160405180910390fd5b5f6103796020830183610650565b6001600160a01b031663217a4b706040518163ffffffff1660e01b8152600401602060405180830381865afa1580156103b4573d5f5f3e3d5ffd5b505050506040513d601f19601f820116820180604052508101906103d8919061069c565b6001600160a01b0316036103ff576040516305235ce760e51b815260040160405180910390fd5b50565b5f8160405160200161041491906106b7565b604051602081830303815290604052805190602001209050919050565b335f81815260208190526040812080546001810190915590919060405160609290921b6bffffffffffffffffffffffff19166020830152603482015260548101839052607401610414565b5f61048883835f61055f565b9392505050565b5f818152600160205260409020546001600160a01b0316156104ed5760405162461bcd60e51b815260206004820152601260248201527110dbdb999a59d05b1c9958591e515e1a5cdd60721b60448201526064015b60405180910390fd5b5f81815260016020908152604080832080546001600160a01b038088166001600160a01b03199283168117909355918552600290935281842080549188169190931681179092555190917fb3eacd0e351fafdfefdec84e1cd19679b38dbcd63ea7c2c24da17fd2bc3b3c0e91a2505050565b5f8147101561058a5760405163cf47918160e01b8152476004820152602481018390526044016104e4565b6e5af43d82803e903d91602b57fd5bf360205283601152763d602d80600a3d3981f3363d3d373d3d3d363d730000008460881c175f52826037600984f590506001600160a01b0381166104885760405163b06ebf3d60e01b815260040160405180910390fd5b61036e806106f883390190565b5f6040828403121561060d575f5ffd5b50919050565b5f5f60608385031215610624575f5ffd5b61062e84846105fd565b946040939093013593505050565b6001600160a01b03811681146103ff575f5ffd5b5f60208284031215610660575f5ffd5b81356104888161063c565b5f6040828403121561067b575f5ffd5b61048883836105fd565b5f60208284031215610695575f5ffd5b5035919050565b5f602082840312156106ac575f5ffd5b81516104888161063c565b6040810182356106c68161063c565b6001600160a01b0316825260208301356106df8161063c565b6001600160a01b03166020929092019190915291905056fe610100604052348015610010575f5ffd5b5060405161036e38038061036e83398101604081905261002f91610146565b6001600160a01b03808216608081905290831660e052604080516338d52e0f60e01b815290516338d52e0f916004808201926020929091908290030181865afa15801561007e573d5f5f3e3d5ffd5b505050506040513d601f19601f820116820180604052508101906100a2919061017e565b6001600160a01b031660c0816001600160a01b031681525050816001600160a01b031663217a4b706040518163ffffffff1660e01b8152600401602060405180830381865afa1580156100f7573d5f5f3e3d5ffd5b505050506040513d601f19601f8201168201806040525081019061011b919061017e565b6001600160a01b031660a052506101a09050565b6001600160a01b0381168114610143575f5ffd5b50565b5f5f60408385031215610157575f5ffd5b82516101628161012f565b60208401519092506101738161012f565b809150509250929050565b5f6020828403121561018e575f5ffd5b81516101998161012f565b9392505050565b60805160a05160c05160e05161019f6101cf5f395f60ed01525f60be01525f608f01525f6060015261019f5ff3fe608060405234801561000f575f5ffd5b5060043610610029575f3560e01c8063c3f909d41461002d575b5f5ffd5b61011d604080516080810182525f80825260208201819052918101829052606081019190915260405180608001604052807f00000000000000000000000000000000000000000000000000000000000000006001600160a01b031681526020017f00000000000000000000000000000000000000000000000000000000000000006001600160a01b031681526020017f00000000000000000000000000000000000000000000000000000000000000006001600160a01b031681526020017f00000000000000000000000000000000000000000000000000000000000000006001600160a01b0316815250905090565b604051610160919081516001600160a01b039081168252602080840151821690830152604080840151821690830152606092830151169181019190915260800190565b60405180910390f3fea2646970667358221220b0a2be11ec3d5a2880fafb3ee413c0109a09938bee767d46d83fc12fcdf6fb3864736f6c634300081c0033a2646970667358221220dbf9bebe7c6cb157693b796b249bbb7a51c9bf9877f62f6a41dea6cd983393ab64736f6c634300081c00336080604052348015600e575f5ffd5b5060156019565b60c9565b7ff0c57e16840df040f15088dc2f81fe391c3923bec73e23a9662efc9c229c6a00805468010000000000000000900460ff161560685760405163f92ee8a960e01b815260040160405180910390fd5b80546001600160401b039081161460c65780546001600160401b0319166001600160401b0390811782556040519081527fc7f505b2f371ae2175ee4913f4499e1f2633a7b5936321eed1cdaeb6115181d29060200160405180910390a15b50565b6105d9806100d65f395ff3fe608060405234801561000f575f5ffd5b5060043610610055575f3560e01c806313b0be3314610059578063217a4b701461007f578063324b8d6e1461009f578063c4d66de8146100b1578063f9fa619a146100c6575b5f5ffd5b61006c6100673660046104a1565b6100d7565b6040519081526020015b60405180910390f35b6100876102c3565b6040516001600160a01b039091168152602001610076565b5f54610087906001600160a01b031681565b6100c46100bf3660046104cf565b610338565b005b6100c46100d43660046104cf565b50565b5f6fffffffffffffffffffffffffffffffff83111561010957604051631df5999960e21b815260040160405180910390fd5b5f5f5f9054906101000a90046001600160a01b03166001600160a01b031663c3f909d46040518163ffffffff1660e01b8152600401608060405180830381865afa158015610159573d5f5f3e3d5ffd5b505050506040513d601f19601f8201168201806040525081019061017d9190610501565b9050805f01516001600160a01b0316836001600160a01b0316146101b45760405163981a2a2b60e01b815260040160405180910390fd5b80516040516303d1689d60e11b8152600481018690525f916001600160a01b0316906307a2d13a90602401602060405180830381865afa1580156101fa573d5f5f3e3d5ffd5b505050506040513d601f19601f8201168201806040525081019061021e919061058c565b606083015160408085015190516313b0be3360e01b8152600481018490526001600160a01b03918216602482015292935016906313b0be3390604401602060405180830381865afa158015610275573d5f5f3e3d5ffd5b505050506040513d601f19601f82011682018060405250810190610299919061058c565b9250825f036102bb576040516301a7e28b60e61b815260040160405180910390fd5b505092915050565b5f8054604080516330fe427560e21b8152905183926001600160a01b03169163c3f909d49160048083019260809291908290030181865afa15801561030a573d5f5f3e3d5ffd5b505050506040513d601f19601f8201168201806040525081019061032e9190610501565b6020015192915050565b7ff0c57e16840df040f15088dc2f81fe391c3923bec73e23a9662efc9c229c6a008054600160401b810460ff16159067ffffffffffffffff165f8115801561037d5750825b90505f8267ffffffffffffffff1660011480156103995750303b155b9050811580156103a7575080155b156103c55760405163f92ee8a960e01b815260040160405180910390fd5b845467ffffffffffffffff1916600117855583156103ef57845460ff60401b1916600160401b1785555b5f80546001600160a01b0319166001600160a01b0388169081179091556040519081527f135aeb930c40f8510b67ed47537902f5e7105b9767e7a5567959a5933d3071849060200160405180910390a1831561048557845460ff60401b19168555604051600181527fc7f505b2f371ae2175ee4913f4499e1f2633a7b5936321eed1cdaeb6115181d29060200160405180910390a15b505050505050565b6001600160a01b03811681146100d4575f5ffd5b5f5f604083850312156104b2575f5ffd5b8235915060208301356104c48161048d565b809150509250929050565b5f602082840312156104df575f5ffd5b81356104ea8161048d565b9392505050565b80516104fc8161048d565b919050565b5f6080828403128015610512575f5ffd5b506040516080810167ffffffffffffffff8111828210171561054257634e487b7160e01b5f52604160045260245ffd5b60405282516105508161048d565b815261055e602084016104f1565b602082015261056f604084016104f1565b6040820152610580606084016104f1565b60608201529392505050565b5f6020828403121561059c575f5ffd5b505191905056fea2646970667358221220b7a8728ff51594fb19d98b0c20c0491407d0b450b135ac1c5a173269bc13331264736f6c634300081c0033",
  "language": "Solidity",
  "compiler": "0.8.28+commit.7893614a"
}