{
  "address": "0x87e3851737A0D7c3632915c37377D60AADe88C50",
  "abi": [
    {
      "inputs": [
        {
          "internalType": "contract IInterestRateModelV2Factory",
          "name": "_irmConfigFactory",
          "type": "address"
        },
        {
          "internalType": "contract ISiloFactory",
          "name": "_siloFactory",
          "type": "address"
        },
        {
          "internalType": "address",
          "name": "_siloImpl",
          "type": "address"
        },
        {
          "internalType": "address",
          "name": "_shareProtectedCollateralTokenImpl",
          "type": "address"
        },
        {
          "internalType": "address",
          "name": "_shareDebtTokenImpl",
          "type": "address"
        }
      ],
      "stateMutability": "nonpayable",
      "type": "constructor"
    },
    {
      "inputs": [],
      "name": "IRM_CONFIG_FACTORY",
      "outputs": [
        {
          "internalType": "contract IInterestRateModelV2Factory",
          "name": "",
          "type": "address"
        }
      ],
      "stateMutability": "view",
      "type": "function"
    },
    {
      "inputs": [],
      "name": "SHARE_DEBT_TOKEN_IMPL",
      "outputs": [
        {
          "internalType": "address",
          "name": "",
          "type": "address"
        }
      ],
      "stateMutability": "view",
      "type": "function"
    },
    {
      "inputs": [],
      "name": "SHARE_PROTECTED_COLLATERAL_TOKEN_IMPL",
      "outputs": [
        {
          "internalType": "address",
          "name": "",
          "type": "address"
        }
      ],
      "stateMutability": "view",
      "type": "function"
    },
    {
      "inputs": [],
      "name": "SILO_FACTORY",
      "outputs": [
        {
          "internalType": "contract ISiloFactory",
          "name": "",
          "type": "address"
        }
      ],
      "stateMutability": "view",
      "type": "function"
    },
    {
      "inputs": [],
      "name": "SILO_IMPL",
      "outputs": [
        {
          "internalType": "address",
          "name": "",
          "type": "address"
        }
      ],
      "stateMutability": "view",
      "type": "function"
    },
    {
      "inputs": [
        {
          "components": [
            {
              "components": [
                {
                  "internalType": "address",
                  "name": "deployed",
                  "type": "address"
                },
                {
                  "internalType": "address",
                  "name": "factory",
                  "type": "address"
                },
                {
                  "internalType": "bytes",
                  "name": "txInput",
                  "type": "bytes"
                }
              ],
              "internalType": "struct ISiloDeployer.OracleCreationTxData",
              "name": "solvencyOracle0",
              "type": "tuple"
            },
            {
              "components": [
                {
                  "internalType": "address",
                  "name": "deployed",
                  "type": "address"
                },
                {
                  "internalType": "address",
                  "name": "factory",
                  "type": "address"
                },
                {
                  "internalType": "bytes",
                  "name": "txInput",
                  "type": "bytes"
                }
              ],
              "internalType": "struct ISiloDeployer.OracleCreationTxData",
              "name": "maxLtvOracle0",
              "type": "tuple"
            },
            {
              "components": [
                {
                  "internalType": "address",
                  "name": "deployed",
                  "type": "address"
                },
                {
                  "internalType": "address",
                  "name": "factory",
                  "type": "address"
                },
                {
                  "internalType": "bytes",
                  "name": "txInput",
                  "type": "bytes"
                }
              ],
              "internalType": "struct ISiloDeployer.OracleCreationTxData",
              "name": "solvencyOracle1",
              "type": "tuple"
            },
            {
              "components": [
                {
                  "internalType": "address",
                  "name": "deployed",
                  "type": "address"
                },
                {
                  "internalType": "address",
                  "name": "factory",
                  "type": "address"
                },
                {
                  "internalType": "bytes",
                  "name": "txInput",
                  "type": "bytes"
                }
              ],
              "internalType": "struct ISiloDeployer.OracleCreationTxData",
              "name": "maxLtvOracle1",
              "type": "tuple"
            }
          ],
          "internalType": "struct ISiloDeployer.Oracles",
          "name": "_oracles",
          "type": "tuple"
        },
        {
          "components": [
            {
              "internalType": "int256",
              "name": "uopt",
              "type": "int256"
            },
            {
              "internalType": "int256",
              "name": "ucrit",
              "type": "int256"
            },
            {
              "internalType": "int256",
              "name": "ulow",
              "type": "int256"
            },
            {
              "internalType": "int256",
              "name": "ki",
              "type": "int256"
            },
            {
              "internalType": "int256",
              "name": "kcrit",
              "type": "int256"
            },
            {
              "internalType": "int256",
              "name": "klow",
              "type": "int256"
            },
            {
              "internalType": "int256",
              "name": "klin",
              "type": "int256"
            },
            {
              "internalType": "int256",
              "name": "beta",
              "type": "int256"
            },
            {
              "internalType": "int128",
              "name": "ri",
              "type": "int128"
            },
            {
              "internalType": "int128",
              "name": "Tcrit",
              "type": "int128"
            }
          ],
          "internalType": "struct IInterestRateModelV2.Config",
          "name": "_irmConfigData0",
          "type": "tuple"
        },
        {
          "components": [
            {
              "internalType": "int256",
              "name": "uopt",
              "type": "int256"
            },
            {
              "internalType": "int256",
              "name": "ucrit",
              "type": "int256"
            },
            {
              "internalType": "int256",
              "name": "ulow",
              "type": "int256"
            },
            {
              "internalType": "int256",
              "name": "ki",
              "type": "int256"
            },
            {
              "internalType": "int256",
              "name": "kcrit",
              "type": "int256"
            },
            {
              "internalType": "int256",
              "name": "klow",
              "type": "int256"
            },
            {
              "internalType": "int256",
              "name": "klin",
              "type": "int256"
            },
            {
              "internalType": "int256",
              "name": "beta",
              "type": "int256"
            },
            {
              "internalType": "int128",
              "name": "ri",
              "type": "int128"
            },
            {
              "internalType": "int128",
              "name": "Tcrit",
              "type": "int128"
            }
          ],
          "internalType": "struct IInterestRateModelV2.Config",
          "name": "_irmConfigData1",
          "type": "tuple"
        },
        {
          "components": [
            {
              "internalType": "address",
              "name": "implementation",
              "type": "address"
            },
            {
              "internalType": "bytes",
              "name": "initializationData",
              "type": "bytes"
            }
          ],
          "internalType": "struct ISiloDeployer.ClonableHookReceiver",
          "name": "_clonableHookReceiver",
          "type": "tuple"
        },
        {
          "components": [
            {
              "internalType": "address",
              "name": "deployer",
              "type": "address"
            },
            {
              "internalType": "address",
              "name": "hookReceiver",
              "type": "address"
            },
            {
              "internalType": "uint256",
              "name": "deployerFee",
              "type": "uint256"
            },
            {
              "internalType": "uint256",
              "name": "daoFee",
              "type": "uint256"
            },
            {
              "internalType": "address",
              "name": "token0",
              "type": "address"
            },
            {
              "internalType": "address",
              "name": "solvencyOracle0",
              "type": "address"
            },
            {
              "internalType": "address",
              "name": "maxLtvOracle0",
              "type": "address"
            },
            {
              "internalType": "address",
              "name": "interestRateModel0",
              "type": "address"
            },
            {
              "internalType": "uint256",
              "name": "maxLtv0",
              "type": "uint256"
            },
            {
              "internalType": "uint256",
              "name": "lt0",
              "type": "uint256"
            },
            {
              "internalType": "uint256",
              "name": "liquidationTargetLtv0",
              "type": "uint256"
            },
            {
              "internalType": "uint256",
              "name": "liquidationFee0",
              "type": "uint256"
            },
            {
              "internalType": "uint256",
              "name": "flashloanFee0",
              "type": "uint256"
            },
            {
              "internalType": "bool",
              "name": "callBeforeQuote0",
              "type": "bool"
            },
            {
              "internalType": "address",
              "name": "token1",
              "type": "address"
            },
            {
              "internalType": "address",
              "name": "solvencyOracle1",
              "type": "address"
            },
            {
              "internalType": "address",
              "name": "maxLtvOracle1",
              "type": "address"
            },
            {
              "internalType": "address",
              "name": "interestRateModel1",
              "type": "address"
            },
            {
              "internalType": "uint256",
              "name": "maxLtv1",
              "type": "uint256"
            },
            {
              "internalType": "uint256",
              "name": "lt1",
              "type": "uint256"
            },
            {
              "internalType": "uint256",
              "name": "liquidationTargetLtv1",
              "type": "uint256"
            },
            {
              "internalType": "uint256",
              "name": "liquidationFee1",
              "type": "uint256"
            },
            {
              "internalType": "uint256",
              "name": "flashloanFee1",
              "type": "uint256"
            },
            {
              "internalType": "bool",
              "name": "callBeforeQuote1",
              "type": "bool"
            }
          ],
          "internalType": "struct ISiloConfig.InitData",
          "name": "_siloInitData",
          "type": "tuple"
        }
      ],
      "name": "deploy",
      "outputs": [
        {
          "internalType": "contract ISiloConfig",
          "name": "siloConfig",
          "type": "address"
        }
      ],
      "stateMutability": "nonpayable",
      "type": "function"
    },
    {
      "anonymous": false,
      "inputs": [
        {
          "indexed": false,
          "internalType": "contract ISiloConfig",
          "name": "siloConfig",
          "type": "address"
        }
      ],
      "name": "SiloCreated",
      "type": "event"
    },
    {
      "inputs": [],
      "name": "DaoMaxRangeExceeded",
      "type": "error"
    },
    {
      "inputs": [],
      "name": "DaoMinRangeExceeded",
      "type": "error"
    },
    {
      "inputs": [],
      "name": "EmptyToken0",
      "type": "error"
    },
    {
      "inputs": [],
      "name": "EmptyToken1",
      "type": "error"
    },
    {
      "inputs": [],
      "name": "FailedDeployment",
      "type": "error"
    },
    {
      "inputs": [
        {
          "internalType": "address",
          "name": "_factory",
          "type": "address"
        }
      ],
      "name": "FailedToCreateAnOracle",
      "type": "error"
    },
    {
      "inputs": [],
      "name": "HookReceiverMisconfigured",
      "type": "error"
    },
    {
      "inputs": [
        {
          "internalType": "uint256",
          "name": "balance",
          "type": "uint256"
        },
        {
          "internalType": "uint256",
          "name": "needed",
          "type": "uint256"
        }
      ],
      "name": "InsufficientBalance",
      "type": "error"
    },
    {
      "inputs": [],
      "name": "InvalidCallBeforeQuote",
      "type": "error"
    },
    {
      "inputs": [],
      "name": "InvalidDeployer",
      "type": "error"
    },
    {
      "inputs": [],
      "name": "InvalidIrm",
      "type": "error"
    },
    {
      "inputs": [],
      "name": "InvalidLt",
      "type": "error"
    },
    {
      "inputs": [],
      "name": "InvalidMaxLtv",
      "type": "error"
    },
    {
      "inputs": [],
      "name": "InvalidQuoteToken",
      "type": "error"
    },
    {
      "inputs": [],
      "name": "LiquidationTargetLtvTooHigh",
      "type": "error"
    },
    {
      "inputs": [],
      "name": "MaxDeployerFeeExceeded",
      "type": "error"
    },
    {
      "inputs": [],
      "name": "MaxFlashloanFeeExceeded",
      "type": "error"
    },
    {
      "inputs": [],
      "name": "MaxLiquidationFeeExceeded",
      "type": "error"
    },
    {
      "inputs": [],
      "name": "MissingHookReceiver",
      "type": "error"
    },
    {
      "inputs": [],
      "name": "OracleMisconfiguration",
      "type": "error"
    },
    {
      "inputs": [],
      "name": "SameAsset",
      "type": "error"
    }
  ],
  "bytecode": "0x610120604052348015610010575f5ffd5b5060405161503c38038061503c83398101604081905261002f9161006f565b6001600160a01b0394851660805292841660a05290831660c052821660e05216610100526100e0565b6001600160a01b038116811461006c575f5ffd5b50565b5f5f5f5f5f60a08688031215610083575f5ffd5b855161008e81610058565b602087015190955061009f81610058565b60408701519094506100b081610058565b60608701519093506100c181610058565b60808701519092506100d281610058565b809150509295509295909350565b60805160a05160c05160e05161010051614e816101bb5f395f818160d3015281816102220152818161096e01526109c701525f818161010d01528181610200015281816108bc015261091501525f8181610134015281816101de015281816107ee015261084701525f818160ac015281816101ad0152818161054c015281816105e201528181610661015281816106e1015281816107610152818161081001528181610869015281816108de015281816109370152818161099001526109e901525f81816069015281816102e0015261035a0152614e815ff3fe608060405234801561000f575f5ffd5b5060043610610060575f3560e01c806328cdfde0146100645780635956617c146100a7578063654ec411146100ce5780636649b16e146100f5578063c2bcfc5114610108578063db35c4031461012f575b5f5ffd5b61008b7f000000000000000000000000000000000000000000000000000000000000000081565b6040516001600160a01b03909116815260200160405180910390f35b61008b7f000000000000000000000000000000000000000000000000000000000000000081565b61008b7f000000000000000000000000000000000000000000000000000000000000000081565b61008b6101033660046117c7565b610156565b61008b7f000000000000000000000000000000000000000000000000000000000000000081565b61008b7f000000000000000000000000000000000000000000000000000000000000000081565b5f6101628585846102c7565b6101748261016f88611aa6565b610406565b61018a826101856020860186611b66565b6104df565b61019382610548565b604051630a8066a560e01b81529091506001600160a01b037f00000000000000000000000000000000000000000000000000000000000000001690630a8066a59061024a90859085907f0000000000000000000000000000000000000000000000000000000000000000907f0000000000000000000000000000000000000000000000000000000000000000907f000000000000000000000000000000000000000000000000000000000000000090600401611b88565b5f604051808303815f87803b158015610261575f5ffd5b505af1158015610273573d5f5f3e3d5ffd5b50505050610282828285610a5c565b6040516001600160a01b03821681527f520b4351811464729581037d20341082d8883f518612cfb0d3c2f75c12b0c29d9060200160405180910390a195945050505050565b604051633442100560e01b81525f906001600160a01b037f00000000000000000000000000000000000000000000000000000000000000001690633442100590610315908790600401611da8565b60408051808303815f875af1158015610330573d5f5f3e3d5ffd5b505050506040513d601f19601f820116820180604052508101906103549190611e39565b9150505f7f00000000000000000000000000000000000000000000000000000000000000006001600160a01b03166334421005856040518263ffffffff1660e01b81526004016103a49190611da8565b60408051808303815f875af11580156103bf573d5f5f3e3d5ffd5b505050506040513d601f19601f820116820180604052508101906103e39190611e39565b6001600160a01b0393841660e08601529092166102209093019290925250505050565b60a08201516001600160a01b031661042857805161042390610aed565b61042e565b8160a001515b6001600160a01b0390811660a084015260c08301511661045a576104558160200151610aed565b610460565b8160c001515b6001600160a01b0390811660c08401526101e08301511661048d576104888160400151610aed565b610494565b816101e001515b6001600160a01b039081166101e0840152610200830151166104c2576104bd8160600151610aed565b6104c9565b8161020001515b6001600160a01b03166102009092019190915250565b6001600160a01b0381161580610500575060208201516001600160a01b0316155b61051d576040516332c5e96160e01b815260040160405180910390fd5b6001600160a01b038116156105445761053581610bd1565b6001600160a01b031660208301525b5050565b5f5f7f00000000000000000000000000000000000000000000000000000000000000006001600160a01b03166349f33f2e6040518163ffffffff1660e01b8152600401602060405180830381865afa1580156105a6573d5f5f3e3d5ffd5b505050506040513d601f19601f820116820180604052508101906105ca9190611e67565b90506105d4611631565b6105dc611631565b6107e4857f00000000000000000000000000000000000000000000000000000000000000006001600160a01b031663e20d71706040518163ffffffff1660e01b81526004016040805180830381865afa15801561063b573d5f5f3e3d5ffd5b505050506040513d601f19601f8201168201806040525081019061065f9190611e94565b7f00000000000000000000000000000000000000000000000000000000000000006001600160a01b031663a4c3e2726040518163ffffffff1660e01b8152600401602060405180830381865afa1580156106bb573d5f5f3e3d5ffd5b505050506040513d601f19601f820116820180604052508101906106df9190611e67565b7f00000000000000000000000000000000000000000000000000000000000000006001600160a01b03166363fcc73f6040518163ffffffff1660e01b8152600401602060405180830381865afa15801561073b573d5f5f3e3d5ffd5b505050506040513d601f19601f8201168201806040525081019061075f9190611e67565b7f00000000000000000000000000000000000000000000000000000000000000006001600160a01b031663eeb016f26040518163ffffffff1660e01b8152600401602060405180830381865afa1580156107bb573d5f5f3e3d5ffd5b505050506040513d601f19601f820116820180604052508101906107df9190611e67565b610be2565b90925090506108347f0000000000000000000000000000000000000000000000000000000000000000847f0000000000000000000000000000000000000000000000000000000000000000610d9f565b6001600160a01b0316604083015261088d7f0000000000000000000000000000000000000000000000000000000000000000847f0000000000000000000000000000000000000000000000000000000000000000610e10565b6001600160a01b039081166040808401918252840151821660a0808601919091529051909116908201526109027f0000000000000000000000000000000000000000000000000000000000000000847f0000000000000000000000000000000000000000000000000000000000000000610e1e565b6001600160a01b0316608083015261095b7f0000000000000000000000000000000000000000000000000000000000000000847f0000000000000000000000000000000000000000000000000000000000000000610e2c565b6001600160a01b031660808201526109b47f0000000000000000000000000000000000000000000000000000000000000000847f0000000000000000000000000000000000000000000000000000000000000000610e3a565b6001600160a01b031660c0830152610a0d7f0000000000000000000000000000000000000000000000000000000000000000847f0000000000000000000000000000000000000000000000000000000000000000610e48565b6001600160a01b031660c0820152604051839083908390610a2d906116bc565b610a3993929190612046565b604051809103905ff080158015610a52573d5f5f3e3d5ffd5b5095945050505050565b5f610a6a6020830183611b66565b6001600160a01b031614610ae85782602001516001600160a01b031663d1f5789483838060200190610a9c9190612069565b6040518463ffffffff1660e01b8152600401610aba939291906120b2565b5f604051808303815f87803b158015610ad1575f5ffd5b505af1158015610ae3573d5f5f3e3d5ffd5b505050505b505050565b80515f906001600160a01b031615610b0457505190565b60208201516001600160a01b038116610b1f57505f92915050565b5f5f826001600160a01b03168560400151604051610b3d91906120f1565b5f604051808303815f865af19150503d805f8114610b76576040519150601f19603f3d011682016040523d82523d5f602084013e610b7b565b606091505b5091509150818015610b8e575080516020145b8390610bbe57604051630557304160e31b81526001600160a01b0390911660048201526024015b60405180910390fd5b50610bc881612107565b95945050505050565b5f610bdc825f610e56565b92915050565b610bea611631565b610bf2611631565b610bff8787878787610ee6565b5060208701516001600160a01b039081166101e084015260808801518116606084015260a0880151811660e084015260c08801511615610c43578660c00151610c49565b8660a001515b6001600160a01b039081166101008085019190915260e0808a0151831661012080870191909152918a015161014080870191909152918a015161016080870191909152918a01516101808087019190915260408b01516020808801919091526060808d01518852938c01516101a080890191909152918c01516101c080890191909152918c0151151561020080890191909152908c015185166101e080880191909152918c01518516938601939093528a01518316908401528801511615610d1657866102000151610d1d565b866101e001515b6001600160a01b039081166101008301526102208801511661012082015261024087015161014082015261026087015161016082015261028087015161018082015260408701516020820152606087015181526102a08701516101a08201526102c08701516101c08201526102e0909601511515610200870152959350505050565b5f610e0884610dad856113b0565b604051603881018690526f5af43d82803e903d91602b57fd5bf3ff60248201526014810192909252733d602d80600a3d3981f3363d3d373d3d3d363d73825260588201526037600c8201206078820152605560439091012090565b949350505050565b5f610e0884610dad8561140a565b5f610e0884610dad85611447565b5f610e0884610dad85611484565b5f610e0884610dad856114c1565b5f610e0884610dad856114fe565b5f81471015610e815760405163cf47918160e01b815247600482015260248101839052604401610bb5565b6e5af43d82803e903d91602b57fd5bf360205282601152763d602d80600a3d3981f3363d3d373d3d3d363d730000008360881c175f526037600983f090506001600160a01b038116610bdc5760405163b06ebf3d60e01b815260040160405180910390fd5b60208501515f906001600160a01b0316610f135760405163d83793a160e01b815260040160405180910390fd5b60808601516001600160a01b0316610f3e57604051636bb1aa5360e11b815260040160405180910390fd5b6101c08601516001600160a01b0316610f6a57604051634eaf414f60e11b815260040160405180910390fd5b856101c001516001600160a01b031686608001516001600160a01b031603610fa55760405163534c524d60e11b815260040160405180910390fd5b610100860151151580610fbc575061024086015115155b610fd9576040516375fcbb8960e01b815260040160405180910390fd5b8561012001518661010001511115611004576040516375fcbb8960e01b815260040160405180910390fd5b856102600151866102400151111561102f576040516375fcbb8960e01b815260040160405180910390fd5b8186610160015111156110555760405163f817842b60e01b815260040160405180910390fd5b81866102a00151111561107b5760405163f817842b60e01b815260040160405180910390fd5b670de0b6b3a764000086610160015187610120015161109a919061212a565b11156110b9576040516313fd16a560e11b815260040160405180910390fd5b670de0b6b3a7640000866102a001518761026001516110d8919061212a565b11156110f7576040516313fd16a560e11b815260040160405180910390fd5b60c08601516001600160a01b0316158061111d575060a08601516001600160a01b031615155b61113a5760405163952268d360e01b815260040160405180910390fd5b856101a001511580611158575060a08601516001600160a01b031615155b611175576040516349cc353360e01b815260040160405180910390fd5b6102008601516001600160a01b0316158061119d57506101e08601516001600160a01b031615155b6111ba5760405163952268d360e01b815260040160405180910390fd5b856102e0015115806111d957506101e08601516001600160a01b031615155b6111f6576040516349cc353360e01b815260040160405180910390fd5b6111ff8661153b565b60408601511580611219575085516001600160a01b031615155b6112365760405163043c669f60e01b815260040160405180910390fd5b838660400151111561125b57604051632b01a30160e01b815260040160405180910390fd5b606086015185516001600160801b0316111561128a5760405163722a3f8560e01b815260040160405180910390fd5b84602001516001600160801b0316866060015111156112bc57604051636adeb10960e11b815260040160405180910390fd5b8286610180015111156112e25760405163923f853d60e01b815260040160405180910390fd5b82866102c0015111156113085760405163923f853d60e01b815260040160405180910390fd5b85610120015186610140015111156113335760405163250a504d60e11b815260040160405180910390fd5b856102600151866102800151111561135e5760405163250a504d60e11b815260040160405180910390fd5b60e08601516001600160a01b03161580159061138757506102208601516001600160a01b031615155b6113a457604051632e4e395f60e01b815260040160405180910390fd5b50600195945050505050565b5f817f1d056e62b182fd7d4dada6cf9079a3ba83adb009746718f4f8751cbe6b93da616040516020016113ed929190918252602082015260400190565b604051602081830303815290604052805190602001209050919050565b5f817fccf028ea8322db4ac7e226915bfb048583cd927e584ca9a1865904fbc439f6636040516020016113ed929190918252602082015260400190565b5f817f4245b46a55891445529f9a01161a9f64cdec348f693a26b07e5f0aa22b486b7d6040516020016113ed929190918252602082015260400190565b5f817f700bad9da2e1385ef7139f09887b5c24cdbc6e2d1b8562842d95da2e68c340cd6040516020016113ed929190918252602082015260400190565b5f817fbe4a9bb64c254c9ac164216a73a2afa86df28fb3a0204a98a311293dcd5f35fc6040516020016113ed929190918252602082015260400190565b5f817ff36c517579d731f207a45998256dee21125b3bb93f46a3a5d2a4caff5251ca746040516020016113ed929190918252602082015260400190565b5f61154a818360a00151611578565b905061155a818360c00151611578565b905061156b81836101e00151611578565b9050610ae8818361020001515b5f6001600160a01b03821661158e575081610bdc565b816001600160a01b031663217a4b706040518163ffffffff1660e01b8152600401602060405180830381865afa1580156115ca573d5f5f3e3d5ffd5b505050506040513d601f19601f820116820180604052508101906115ee9190612149565b90506001600160a01b03831615610bdc57806001600160a01b0316836001600160a01b031614610bdc576040516368ada7f160e11b815260040160405180910390fd5b60408051610220810182525f80825260208201819052918101829052606081018290526080810182905260a0810182905260c0810182905260e08101829052610100810182905261012081018290526101408101829052610160810182905261018081018290526101a081018290526101c081018290526101e0810182905261020081019190915290565b612ce78061216583390190565b5f61014082840312156116da575f5ffd5b50919050565b634e487b7160e01b5f52604160045260245ffd5b60405161030081016001600160401b0381118282101715611717576117176116e0565b60405290565b604051606081016001600160401b0381118282101715611717576117176116e0565b604051608081016001600160401b0381118282101715611717576117176116e0565b604051601f8201601f191681016001600160401b0381118282101715611789576117896116e0565b604052919050565b6001600160a01b03811681146117a5575f5ffd5b50565b80356117b381611791565b919050565b803580151581146117b3575f5ffd5b5f5f5f5f5f8587036105c08112156117dd575f5ffd5b86356001600160401b038111156117f2575f5ffd5b87016080818a031215611803575f5ffd5b955061181288602089016116c9565b94506118228861016089016116c9565b93506102a08701356001600160401b0381111561183d575f5ffd5b87016040818a03121561184e575f5ffd5b92506103006102bf1982011215611863575f5ffd5b5061186c6116f4565b6118796102c088016117a8565b81526118886102e088016117a8565b6020820152610300870135604082015261032087013560608201526118b061034088016117a8565b60808201526118c261036088016117a8565b60a08201526118d461038088016117a8565b60c08201526118e66103a088016117a8565b60e08201526103c08701356101008201526103e087013561012082015261040087013561014082015261042087013561016082015261044087013561018082015261193461046088016117b8565b6101a082015261194761048088016117a8565b6101c082015261195a6104a088016117a8565b6101e082015261196d6104c088016117a8565b6102008201526119806104e088016117a8565b6102208201526105008701356102408201526105208701356102608201526105408701356102808201526105608701356102a08201526105808701356102c08201526119cf6105a088016117b8565b6102e0820152809150509295509295909350565b5f606082840312156119f3575f5ffd5b6119fb61171d565b90508135611a0881611791565b81526020820135611a1881611791565b602082015260408201356001600160401b03811115611a35575f5ffd5b8201601f81018413611a45575f5ffd5b80356001600160401b03811115611a5e57611a5e6116e0565b611a71601f8201601f1916602001611761565b818152856020838501011115611a85575f5ffd5b816020840160208301375f6020838301015280604085015250505092915050565b5f60808236031215611ab6575f5ffd5b611abe61173f565b82356001600160401b03811115611ad3575f5ffd5b611adf368286016119e3565b82525060208301356001600160401b03811115611afa575f5ffd5b611b06368286016119e3565b60208301525060408301356001600160401b03811115611b24575f5ffd5b611b30368286016119e3565b60408301525060608301356001600160401b03811115611b4e575f5ffd5b611b5a368286016119e3565b60608301525092915050565b5f60208284031215611b76575f5ffd5b8135611b8181611791565b9392505050565b85516001600160a01b0316815261038081016020870151611bb460208401826001600160a01b03169052565b5060408701516040830152606087015160608301526080870151611be360808401826001600160a01b03169052565b5060a0870151611bfe60a08401826001600160a01b03169052565b5060c0870151611c1960c08401826001600160a01b03169052565b5060e0870151611c3460e08401826001600160a01b03169052565b506101008701516101008301526101208701516101208301526101408701516101408301526101608701516101608301526101808701516101808301526101a0870151611c866101a084018215159052565b506101c0870151611ca36101c08401826001600160a01b03169052565b506101e0870151611cc06101e08401826001600160a01b03169052565b50610200870151611cdd6102008401826001600160a01b03169052565b50610220870151611cfa6102208401826001600160a01b03169052565b506102408701516102408301526102608701516102608301526102808701516102808301526102a08701516102a08301526102c08701516102c08301526102e0870151611d4c6102e084018215159052565b506001600160a01b0386166103008301526001600160a01b0385166103208301526001600160a01b0384166103408301526001600160a01b0383166103608301529695505050505050565b8035600f81900b81146117b3575f5ffd5b813581526020808301359082015260408083013590820152606080830135908201526080808301359082015260a0808301359082015260c0808301359082015260e080830135908201526101408101611e046101008401611d97565b611e14610100840182600f0b9052565b50611e226101208401611d97565b611e32610120840182600f0b9052565b5092915050565b5f5f60408385031215611e4a575f5ffd5b825191506020830151611e5c81611791565b809150509250929050565b5f60208284031215611e77575f5ffd5b5051919050565b80516001600160801b03811681146117b3575f5ffd5b5f6040828403128015611ea5575f5ffd5b50604080519081016001600160401b0381118282101715611ec857611ec86116e0565b604052611ed483611e7e565b8152611ee260208401611e7e565b60208201529392505050565b80518252602081015160208301526040810151611f1660408401826001600160a01b03169052565b506060810151611f3160608401826001600160a01b03169052565b506080810151611f4c60808401826001600160a01b03169052565b5060a0810151611f6760a08401826001600160a01b03169052565b5060c0810151611f8260c08401826001600160a01b03169052565b5060e0810151611f9d60e08401826001600160a01b03169052565b50610100810151611fba6101008401826001600160a01b03169052565b50610120810151611fd76101208401826001600160a01b03169052565b506101408101516101408301526101608101516101608301526101808101516101808301526101a08101516101a08301526101c08101516101c08301526101e08101516120306101e08401826001600160a01b03169052565b50610200810151610ae861020084018215159052565b838152610460810161205b6020830185611eee565b610e08610240830184611eee565b5f5f8335601e1984360301811261207e575f5ffd5b8301803591506001600160401b03821115612097575f5ffd5b6020019150368190038213156120ab575f5ffd5b9250929050565b6001600160a01b03841681526040602082018190528101829052818360608301375f818301606090810191909152601f909201601f1916010192915050565b5f82518060208501845e5f920191825250919050565b805160208083015191908110156116da575f1960209190910360031b1b16919050565b80820180821115610bdc57634e487b7160e01b5f52601160045260245ffd5b5f60208284031215612159575f5ffd5b8151611b818161179156fe610480604052348015610010575f5ffd5b50604051612ce7380380612ce783398101604081905261002f916104c5565b608083905260208201518251670de0b6b3a76400009161004e91610502565b1061006c5760405163cd4e616760e01b815260040160405180910390fd5b815f015160a08181525050816020015160c08181525050816101e001516001600160a01b031660e0816001600160a01b03168152505081604001516001600160a01b0316610100816001600160a01b03168152505081606001516001600160a01b0316610120816001600160a01b03168152505081608001516001600160a01b0316610140816001600160a01b03168152505081604001516001600160a01b0316610160816001600160a01b0316815250508160c001516001600160a01b0316610180816001600160a01b0316815250508160e001516001600160a01b03166101a0816001600160a01b0316815250508161010001516001600160a01b03166101c0816001600160a01b0316815250508161012001516001600160a01b03166101e0816001600160a01b031681525050816101400151610200818152505081610160015161022081815250508161018001516102408181525050816101a001516102608181525050816101c00151610280818152505081610200015115156102a08115158152505080604001516001600160a01b03166102c0816001600160a01b03168152505080606001516001600160a01b03166102e0816001600160a01b03168152505080608001516001600160a01b0316610300816001600160a01b03168152505080604001516001600160a01b0316610320816001600160a01b0316815250508060c001516001600160a01b0316610340816001600160a01b0316815250508060e001516001600160a01b0316610360816001600160a01b0316815250508061010001516001600160a01b0316610380816001600160a01b0316815250508061012001516001600160a01b03166103a0816001600160a01b0316815250508061014001516103c081815250508061016001516103e081815250508061018001516104008181525050806101a001516104208181525050806101c001516104408181525050806102000151151561046081151581525050505050610527565b60405161022081016001600160401b038111828210171561037d57634e487b7160e01b5f52604160045260245ffd5b60405290565b80516001600160a01b0381168114610399575f5ffd5b919050565b80518015158114610399575f5ffd5b5f61022082840312156103be575f5ffd5b6103c661034e565b825181526020808401519082015290506103e260408301610383565b60408201526103f360608301610383565b606082015261040460808301610383565b608082015261041560a08301610383565b60a082015261042660c08301610383565b60c082015261043760e08301610383565b60e08201526104496101008301610383565b61010082015261045c6101208301610383565b6101208201526101408281015190820152610160808301519082015261018080830151908201526101a080830151908201526101c080830151908201526104a66101e08301610383565b6101e08201526104b9610200830161039e565b61020082015292915050565b5f5f5f61046084860312156104d8575f5ffd5b835192506104e985602086016103ad565b91506104f98561024086016103ad565b90509250925092565b8082018082111561052157634e487b7160e01b5f52601160045260245ffd5b92915050565b60805160a05160c05160e05161010051610120516101405161016051610180516101a0516101c0516101e05161020051610220516102405161026051610280516102a0516102c0516102e05161030051610320516103405161036051610380516103a0516103c0516103e0516104005161042051610440516104605161239d61094a5f395f611ff801525f81816112a50152611fa301525f611f7d01525f611f5701525f611f3101525f611f0b01525f818161079e015281816110400152818161179e0152611edc01525f611ead01525f611e7e01525f818161042f015281816105d901528181610a0e01528181610bb001528181610e0f01528181611a000152611e4f01525f8181610b8d01528181610d5a015281816116f40152818161192c0152611e2001525f8181610b6a01528181610d1201528181611723015281816119960152611df101525f818161057c01528181610a3001528181610d3301528181610d7d015281816112c8015281816116c50152611dc201525f818161038f0152818161045f015281816105420152818161064b01528181610764015281816108b1015281816108d7015281816109d401528181610b3001528181610cc001528181610e81015281816110b40152818161126b0152818161133a015281816113d901528181611652015281816116960152818161180d0152818161188d0152611d9301525f611d0801525f81816112220152611cb301525f611c8d01525f611c6701525f611c4101525f611c1b01525f818161073e01528181610f600152818161161e0152611bec01525f611bbd01525f611b8e01525f818161049b015281816105ac0152818161098b01528181610b0a01528181610ddd01528181610e5a015281816119cb0152611b5f01525f8181610ae701528181610c7401528181611574015281816118f70152611b3001525f8181610ac401528181610c2d015281816115a3015281816119610152611b0101525f818161051c015281816109ad01528181610c4e01528181610c9501528181611245015281816115450152611ad201525f818161036e015281816103f3015281816104e2015281816106710152818161070401528181610877015281816109110152818161095101528181610a8a01528181610bdb01528181610ea701528181610fd4015281816111f6015281816112f90152818161138c015281816113b3015281816114d201528181611516015281816117db015281816118590152611aa301525f81816118c201528181611cd90152611fc901525f818161080301528181610fae0152818161108e015281816111cb015281816115f80152818161177801528181611a7d0152611d6d01525f81816107dd01528181610f8801528181611068015281816111aa015281816115d20152818161175201528181611a570152611d4701525f6101ce015261239d5ff3fe608060405234801561000f575f5ffd5b506004361061013d575f3560e01c806362402b04116100b4578063a135e0a011610079578063a135e0a014610308578063a5abc68a14610344578063aecc90cb1461036c578063d2c725e0146103b3578063e48a5f7b146103bd578063f6f8174f146103dd575f5ffd5b806362402b04146102ca57806372db6559146102d25780637d16b1f5146102e557806394c0527d146102ed5780639dd4133014610300575f5ffd5b8063255d70c811610105578063255d70c8146101fe5780632e6da205146102135780633c3eac121461023457806340c755e114610267578063483b24f01461027a5780634b82d63d146102b7575f5ffd5b8063038c0a5e1461014157806307439b49146101695780630b1d67c6146101945780631544a6db146101a7578063189e17e4146101c9575b5f5ffd5b61015461014f3660046120c2565b6103f0565b60405190151581526020015b60405180910390f35b61017c6101773660046120f3565b6104df565b6040516001600160a01b039091168152602001610160565b61017c6101a23660046120f3565b6105a5565b6101ba6101b53660046120c2565b610699565b60405161016093929190612264565b6101f07f000000000000000000000000000000000000000000000000000000000000000081565b604051908152602001610160565b61021161020c3660046120f3565b610701565b005b6102266102213660046120f3565b610864565b6040516101609291906122d8565b6102476102423660046120f3565b61094d565b604080516001600160a01b03938416815292909116602083015201610160565b6102116102753660046120f3565b610a55565b61028d6102883660046120f3565b610a85565b604080516001600160a01b0394851681529284166020840152921691810191909152606001610160565b6102476102c53660046122f5565b610bd7565b610211610da4565b6102116102e03660046120c2565b610dd2565b610211610f49565b6102266102fb3660046120f3565b61110f565b610211611176565b61031b6103163660046120f3565b6111a8565b604080519485526020850193909352918301526001600160a01b03166060820152608001610160565b61017c6103523660046120f3565b5f602081905290815260409020546001600160a01b031681565b7f00000000000000000000000000000000000000000000000000000000000000007f0000000000000000000000000000000000000000000000000000000000000000610247565b60015f5c14610154565b6103d06103cb3660046120f3565b6112ef565b604051610160919061232d565b6102116103eb3660046120f3565b611379565b5f7f00000000000000000000000000000000000000000000000000000000000000006001600160a01b0316836001600160a01b03160361045d576104547f000000000000000000000000000000000000000000000000000000000000000083611426565b151590506104d9565b7f00000000000000000000000000000000000000000000000000000000000000006001600160a01b0316836001600160a01b0316036104c0576104547f000000000000000000000000000000000000000000000000000000000000000083611426565b6040516349d73a2760e01b815260040160405180910390fd5b92915050565b5f7f00000000000000000000000000000000000000000000000000000000000000006001600160a01b0316826001600160a01b03160361054057507f0000000000000000000000000000000000000000000000000000000000000000919050565b7f00000000000000000000000000000000000000000000000000000000000000006001600160a01b0316826001600160a01b0316036104c057507f0000000000000000000000000000000000000000000000000000000000000000919050565b919050565b5f5f6105d17f000000000000000000000000000000000000000000000000000000000000000084611426565b90505f6105fe7f000000000000000000000000000000000000000000000000000000000000000085611426565b905081158061060b575080155b6106285760405163fc6ba97d60e01b815260040160405180910390fd5b81158015610634575080155b1561064257505f9392505050565b815f0361066f577f0000000000000000000000000000000000000000000000000000000000000000610691565b7f00000000000000000000000000000000000000000000000000000000000000005b949350505050565b6040805160e0810182525f80825260208201819052918101829052606081018290526080810182905260a0810182905260c08101919091526106d9612021565b6106e1612021565b6106ea85611498565b92506106f58461110f565b93969095509293505050565b5f7f00000000000000000000000000000000000000000000000000000000000000006001600160a01b0316826001600160a01b03160361076257507f00000000000000000000000000000000000000000000000000000000000000006107be565b7f00000000000000000000000000000000000000000000000000000000000000006001600160a01b0316826001600160a01b0316036104c057507f00000000000000000000000000000000000000000000000000000000000000005b604051631b88d98560e21b81526001600160a01b0382811660048301527f000000000000000000000000000000000000000000000000000000000000000060248301527f00000000000000000000000000000000000000000000000000000000000000006044830152831690636e236614906064015f604051808303815f87803b15801561084a575f5ffd5b505af115801561085c573d5f5f3e3d5ffd5b505050505050565b61086c612021565b610874612021565b5f7f00000000000000000000000000000000000000000000000000000000000000006001600160a01b0316846001600160a01b0316036108d557507f0000000000000000000000000000000000000000000000000000000000000000610931565b7f00000000000000000000000000000000000000000000000000000000000000006001600160a01b0316846001600160a01b0316036104c057507f00000000000000000000000000000000000000000000000000000000000000005b61093a816112ef565b9250610945846112ef565b915050915091565b5f5f7f00000000000000000000000000000000000000000000000000000000000000006001600160a01b0316836001600160a01b0316036109d257507f0000000000000000000000000000000000000000000000000000000000000000927f000000000000000000000000000000000000000000000000000000000000000092509050565b7f00000000000000000000000000000000000000000000000000000000000000006001600160a01b0316836001600160a01b0316036104c057507f0000000000000000000000000000000000000000000000000000000000000000927f000000000000000000000000000000000000000000000000000000000000000092509050565b610a5d6117d0565b6001600160a01b03165f90815260208190526040902080546001600160a01b03191633179055565b5f5f5f7f00000000000000000000000000000000000000000000000000000000000000006001600160a01b0316846001600160a01b031603610b2e57507f000000000000000000000000000000000000000000000000000000000000000091507f000000000000000000000000000000000000000000000000000000000000000090507f0000000000000000000000000000000000000000000000000000000000000000610bd0565b7f00000000000000000000000000000000000000000000000000000000000000006001600160a01b0316846001600160a01b0316036104c057507f000000000000000000000000000000000000000000000000000000000000000091507f000000000000000000000000000000000000000000000000000000000000000090507f00000000000000000000000000000000000000000000000000000000000000005b9193909250565b5f5f7f00000000000000000000000000000000000000000000000000000000000000006001600160a01b0316846001600160a01b031603610cbe576001836001811115610c2657610c2661233c565b14610c72577f00000000000000000000000000000000000000000000000000000000000000007f0000000000000000000000000000000000000000000000000000000000000000610cb5565b7f00000000000000000000000000000000000000000000000000000000000000007f00000000000000000000000000000000000000000000000000000000000000005b91509150610d9d565b7f00000000000000000000000000000000000000000000000000000000000000006001600160a01b0316846001600160a01b0316036104c0576001836001811115610d0b57610d0b61233c565b14610d57577f00000000000000000000000000000000000000000000000000000000000000007f0000000000000000000000000000000000000000000000000000000000000000610cb5565b507f000000000000000000000000000000000000000000000000000000000000000090507f00000000000000000000000000000000000000000000000000000000000000005b9250929050565b610dac61184e565b5f5c610dcb5760405163f874d85960e01b815260040160405180910390fd5b5f80805d50565b336001600160a01b037f0000000000000000000000000000000000000000000000000000000000000000161480610e315750336001600160a01b037f000000000000000000000000000000000000000000000000000000000000000016145b610e4e576040516336ed4fb960e01b815260040160405180910390fd5b5f336001600160a01b037f00000000000000000000000000000000000000000000000000000000000000001614610ea5577f0000000000000000000000000000000000000000000000000000000000000000610ec7565b7f00000000000000000000000000000000000000000000000000000000000000005b9050610ed381836103f0565b15610ef15760405163fc6ba97d60e01b815260040160405180910390fd5b6001600160a01b038281165f9081526020819052604090205416610f44576001600160a01b038084165f90815260208190526040808220548584168352912080546001600160a01b031916919092161790555b505050565b604051631b88d98560e21b81526001600160a01b037f0000000000000000000000000000000000000000000000000000000000000000811660048301527f000000000000000000000000000000000000000000000000000000000000000060248301527f000000000000000000000000000000000000000000000000000000000000000060448301527f00000000000000000000000000000000000000000000000000000000000000001690636e236614906064015f604051808303815f87803b158015611015575f5ffd5b505af1158015611027573d5f5f3e3d5ffd5b5050604051631b88d98560e21b81526001600160a01b037f0000000000000000000000000000000000000000000000000000000000000000811660048301527f000000000000000000000000000000000000000000000000000000000000000060248301527f000000000000000000000000000000000000000000000000000000000000000060448301527f0000000000000000000000000000000000000000000000000000000000000000169250636e23661491506064015f604051808303815f87803b1580156110f7575f5ffd5b505af1158015611109573d5f5f3e3d5ffd5b50505050565b611117612021565b61111f612021565b5f611129846105a5565b90506001600160a01b03811661113f5750915091565b6001600160a01b038085165f9081526020819052604090205416611162816112ef565b935061116d826112ef565b92505050915091565b61117e61184e565b60015f5c036111a05760405163e17fbf8960e01b815260040160405180910390fd5b6001805f5d50565b7f00000000000000000000000000000000000000000000000000000000000000007f00000000000000000000000000000000000000000000000000000000000000005f806001600160a01b037f000000000000000000000000000000000000000000000000000000000000000081169086160361126957507f000000000000000000000000000000000000000000000000000000000000000090507f00000000000000000000000000000000000000000000000000000000000000006112e8565b7f00000000000000000000000000000000000000000000000000000000000000006001600160a01b0316856001600160a01b0316036104c057507f000000000000000000000000000000000000000000000000000000000000000090507f00000000000000000000000000000000000000000000000000000000000000005b9193509193565b6112f7612021565b7f00000000000000000000000000000000000000000000000000000000000000006001600160a01b0316826001600160a01b031603611338576104d9611a41565b7f00000000000000000000000000000000000000000000000000000000000000006001600160a01b0316826001600160a01b0316036104c0576104d9611d31565b6113816117d0565b336001600160a01b037f000000000000000000000000000000000000000000000000000000000000000016146113d7577f00000000000000000000000000000000000000000000000000000000000000006113f9565b7f00000000000000000000000000000000000000000000000000000000000000005b6001600160a01b039182165f90815260208190526040902080546001600160a01b03191691909216179055565b6040516370a0823160e01b81526001600160a01b0382811660048301525f91908416906370a0823190602401602060405180830381865afa15801561146d573d5f5f3e3d5ffd5b505050506040513d601f19601f820116820180604052508101906114919190612350565b9392505050565b6040805160e0810182525f80825260208201819052918101829052606081018290526080810182905260a0810182905260c08101919091527f00000000000000000000000000000000000000000000000000000000000000006001600160a01b0316826001600160a01b031603611650576040518060e001604052807f00000000000000000000000000000000000000000000000000000000000000006001600160a01b031681526020017f00000000000000000000000000000000000000000000000000000000000000006001600160a01b031681526020017f00000000000000000000000000000000000000000000000000000000000000006001600160a01b031681526020017f00000000000000000000000000000000000000000000000000000000000000006001600160a01b031681526020017f000000000000000000000000000000000000000000000000000000000000000081526020017f000000000000000000000000000000000000000000000000000000000000000081526020017f00000000000000000000000000000000000000000000000000000000000000006001600160a01b03168152509050919050565b7f00000000000000000000000000000000000000000000000000000000000000006001600160a01b0316826001600160a01b0316036104c0576040518060e001604052807f00000000000000000000000000000000000000000000000000000000000000006001600160a01b031681526020017f00000000000000000000000000000000000000000000000000000000000000006001600160a01b031681526020017f00000000000000000000000000000000000000000000000000000000000000006001600160a01b031681526020017f00000000000000000000000000000000000000000000000000000000000000006001600160a01b031681526020017f000000000000000000000000000000000000000000000000000000000000000081526020017f000000000000000000000000000000000000000000000000000000000000000081526020017f00000000000000000000000000000000000000000000000000000000000000006001600160a01b03168152509050919050565b336001600160a01b037f000000000000000000000000000000000000000000000000000000000000000016148061182f5750336001600160a01b037f000000000000000000000000000000000000000000000000000000000000000016145b61184c576040516310528c6d60e11b815260040160405180910390fd5b565b336001600160a01b037f000000000000000000000000000000000000000000000000000000000000000016148015906118b05750336001600160a01b037f00000000000000000000000000000000000000000000000000000000000000001614155b80156118e55750336001600160a01b037f00000000000000000000000000000000000000000000000000000000000000001614155b801561191a5750336001600160a01b037f00000000000000000000000000000000000000000000000000000000000000001614155b801561194f5750336001600160a01b037f00000000000000000000000000000000000000000000000000000000000000001614155b80156119845750336001600160a01b037f00000000000000000000000000000000000000000000000000000000000000001614155b80156119b95750336001600160a01b037f00000000000000000000000000000000000000000000000000000000000000001614155b80156119ee5750336001600160a01b037f00000000000000000000000000000000000000000000000000000000000000001614155b8015611a235750336001600160a01b037f00000000000000000000000000000000000000000000000000000000000000001614155b1561184c5760405163329409fd60e01b815260040160405180910390fd5b611a49612021565b6040518061022001604052807f000000000000000000000000000000000000000000000000000000000000000081526020017f000000000000000000000000000000000000000000000000000000000000000081526020017f00000000000000000000000000000000000000000000000000000000000000006001600160a01b031681526020017f00000000000000000000000000000000000000000000000000000000000000006001600160a01b031681526020017f00000000000000000000000000000000000000000000000000000000000000006001600160a01b031681526020017f00000000000000000000000000000000000000000000000000000000000000006001600160a01b031681526020017f00000000000000000000000000000000000000000000000000000000000000006001600160a01b031681526020017f00000000000000000000000000000000000000000000000000000000000000006001600160a01b031681526020017f00000000000000000000000000000000000000000000000000000000000000006001600160a01b031681526020017f00000000000000000000000000000000000000000000000000000000000000006001600160a01b031681526020017f000000000000000000000000000000000000000000000000000000000000000081526020017f000000000000000000000000000000000000000000000000000000000000000081526020017f000000000000000000000000000000000000000000000000000000000000000081526020017f000000000000000000000000000000000000000000000000000000000000000081526020017f000000000000000000000000000000000000000000000000000000000000000081526020017f00000000000000000000000000000000000000000000000000000000000000006001600160a01b031681526020017f00000000000000000000000000000000000000000000000000000000000000001515815250905090565b611d39612021565b6040518061022001604052807f000000000000000000000000000000000000000000000000000000000000000081526020017f000000000000000000000000000000000000000000000000000000000000000081526020017f00000000000000000000000000000000000000000000000000000000000000006001600160a01b031681526020017f00000000000000000000000000000000000000000000000000000000000000006001600160a01b031681526020017f00000000000000000000000000000000000000000000000000000000000000006001600160a01b031681526020017f00000000000000000000000000000000000000000000000000000000000000006001600160a01b031681526020017f00000000000000000000000000000000000000000000000000000000000000006001600160a01b031681526020017f00000000000000000000000000000000000000000000000000000000000000006001600160a01b031681526020017f00000000000000000000000000000000000000000000000000000000000000006001600160a01b031681526020017f00000000000000000000000000000000000000000000000000000000000000006001600160a01b031681526020017f000000000000000000000000000000000000000000000000000000000000000081526020017f000000000000000000000000000000000000000000000000000000000000000081526020017f000000000000000000000000000000000000000000000000000000000000000081526020017f000000000000000000000000000000000000000000000000000000000000000081526020017f000000000000000000000000000000000000000000000000000000000000000081526020017f00000000000000000000000000000000000000000000000000000000000000006001600160a01b031681526020017f00000000000000000000000000000000000000000000000000000000000000001515815250905090565b60408051610220810182525f80825260208201819052918101829052606081018290526080810182905260a0810182905260c0810182905260e08101829052610100810182905261012081018290526101408101829052610160810182905261018081018290526101a081018290526101c081018290526101e0810182905261020081019190915290565b80356001600160a01b03811681146105a0575f5ffd5b5f5f604083850312156120d3575f5ffd5b6120dc836120ac565b91506120ea602084016120ac565b90509250929050565b5f60208284031215612103575f5ffd5b611491826120ac565b8051825260208101516020830152604081015161213460408401826001600160a01b03169052565b50606081015161214f60608401826001600160a01b03169052565b50608081015161216a60808401826001600160a01b03169052565b5060a081015161218560a08401826001600160a01b03169052565b5060c08101516121a060c08401826001600160a01b03169052565b5060e08101516121bb60e08401826001600160a01b03169052565b506101008101516121d86101008401826001600160a01b03169052565b506101208101516121f56101208401826001600160a01b03169052565b506101408101516101408301526101608101516101608301526101808101516101808301526101a08101516101a08301526101c08101516101c08301526101e081015161224e6101e08401826001600160a01b03169052565b50610200810151610f4461020084018215159052565b83516001600160a01b0390811682526020808601518216908301526040808601518216908301526060808601518216908301526080808601519083015260a0858101519083015260c0808601519091169082015261052081016122ca60e083018561210c565b61069161030083018461210c565b61044081016122e7828561210c565b61149161022083018461210c565b5f5f60408385031215612306575f5ffd5b61230f836120ac565b9150602083013560028110612322575f5ffd5b809150509250929050565b61022081016104d9828461210c565b634e487b7160e01b5f52602160045260245ffd5b5f60208284031215612360575f5ffd5b505191905056fea26469706673582212208fe94f548fdc1ae9e3468368f40c2b67d1dcc2032fb125febd406d36cb6d8cfb64736f6c634300081c0033a2646970667358221220ab79a15a5ede2e17bdd926898382f554bc99b34ed933d567ac46a06185110f3664736f6c634300081c0033",
  "language": "Solidity",
  "compiler": "0.8.28+commit.7893614a"
}