{
  "address": "0x815Bb87898CC764cC883BD279B4B993589Febd23",
  "abi": [
    {
      "inputs": [],
      "name": "acceptOwnership",
      "outputs": [],
      "stateMutability": "nonpayable",
      "type": "function"
    },
    {
      "inputs": [
        {
          "internalType": "address",
          "name": "_silo",
          "type": "address"
        },
        {
          "internalType": "uint256",
          "name": "_action",
          "type": "uint256"
        },
        {
          "internalType": "bytes",
          "name": "_inputAndOutput",
          "type": "bytes"
        }
      ],
      "name": "afterAction",
      "outputs": [],
      "stateMutability": "nonpayable",
      "type": "function"
    },
    {
      "inputs": [
        {
          "internalType": "address",
          "name": "_silo",
          "type": "address"
        },
        {
          "internalType": "uint256",
          "name": "_action",
          "type": "uint256"
        },
        {
          "internalType": "bytes",
          "name": "_inputAndOutput",
          "type": "bytes"
        }
      ],
      "name": "beforeAction",
      "outputs": [],
      "stateMutability": "nonpayable",
      "type": "function"
    },
    {
      "inputs": [
        {
          "internalType": "contract IShareToken",
          "name": "",
          "type": "address"
        }
      ],
      "name": "configuredGauges",
      "outputs": [
        {
          "internalType": "contract IGaugeLike",
          "name": "",
          "type": "address"
        }
      ],
      "stateMutability": "view",
      "type": "function"
    },
    {
      "inputs": [
        {
          "internalType": "address",
          "name": "_silo",
          "type": "address"
        }
      ],
      "name": "hookReceiverConfig",
      "outputs": [
        {
          "internalType": "uint24",
          "name": "hooksBefore",
          "type": "uint24"
        },
        {
          "internalType": "uint24",
          "name": "hooksAfter",
          "type": "uint24"
        }
      ],
      "stateMutability": "view",
      "type": "function"
    },
    {
      "inputs": [
        {
          "internalType": "contract ISiloConfig",
          "name": "_config",
          "type": "address"
        },
        {
          "internalType": "bytes",
          "name": "_data",
          "type": "bytes"
        }
      ],
      "name": "initialize",
      "outputs": [],
      "stateMutability": "nonpayable",
      "type": "function"
    },
    {
      "inputs": [
        {
          "internalType": "address",
          "name": "_collateralAsset",
          "type": "address"
        },
        {
          "internalType": "address",
          "name": "_debtAsset",
          "type": "address"
        },
        {
          "internalType": "address",
          "name": "_borrower",
          "type": "address"
        },
        {
          "internalType": "uint256",
          "name": "_maxDebtToCover",
          "type": "uint256"
        },
        {
          "internalType": "bool",
          "name": "_receiveSToken",
          "type": "bool"
        }
      ],
      "name": "liquidationCall",
      "outputs": [
        {
          "internalType": "uint256",
          "name": "withdrawCollateral",
          "type": "uint256"
        },
        {
          "internalType": "uint256",
          "name": "repayDebtAssets",
          "type": "uint256"
        }
      ],
      "stateMutability": "nonpayable",
      "type": "function"
    },
    {
      "inputs": [
        {
          "internalType": "address",
          "name": "_borrower",
          "type": "address"
        }
      ],
      "name": "maxLiquidation",
      "outputs": [
        {
          "internalType": "uint256",
          "name": "collateralToLiquidate",
          "type": "uint256"
        },
        {
          "internalType": "uint256",
          "name": "debtToRepay",
          "type": "uint256"
        },
        {
          "internalType": "bool",
          "name": "sTokenRequired",
          "type": "bool"
        }
      ],
      "stateMutability": "view",
      "type": "function"
    },
    {
      "inputs": [],
      "name": "owner",
      "outputs": [
        {
          "internalType": "address",
          "name": "",
          "type": "address"
        }
      ],
      "stateMutability": "view",
      "type": "function"
    },
    {
      "inputs": [],
      "name": "pendingOwner",
      "outputs": [
        {
          "internalType": "address",
          "name": "",
          "type": "address"
        }
      ],
      "stateMutability": "view",
      "type": "function"
    },
    {
      "inputs": [],
      "name": "pendleMarket",
      "outputs": [
        {
          "internalType": "contract IPendleMarketLike",
          "name": "",
          "type": "address"
        }
      ],
      "stateMutability": "view",
      "type": "function"
    },
    {
      "inputs": [],
      "name": "pendleMarketSilo",
      "outputs": [
        {
          "internalType": "contract ISilo",
          "name": "",
          "type": "address"
        }
      ],
      "stateMutability": "view",
      "type": "function"
    },
    {
      "inputs": [],
      "name": "protectedShareToken",
      "outputs": [
        {
          "internalType": "contract IShareToken",
          "name": "",
          "type": "address"
        }
      ],
      "stateMutability": "view",
      "type": "function"
    },
    {
      "inputs": [],
      "name": "redeemRewards",
      "outputs": [
        {
          "internalType": "address[]",
          "name": "rewardTokens",
          "type": "address[]"
        },
        {
          "internalType": "uint256[]",
          "name": "rewards",
          "type": "uint256[]"
        }
      ],
      "stateMutability": "nonpayable",
      "type": "function"
    },
    {
      "inputs": [
        {
          "internalType": "contract IPendleMarketLike",
          "name": "_market",
          "type": "address"
        },
        {
          "internalType": "contract ISiloIncentivesController",
          "name": "_incentivesController",
          "type": "address"
        }
      ],
      "name": "redeemRewardsFromPendle",
      "outputs": [
        {
          "internalType": "address[]",
          "name": "rewardTokens",
          "type": "address[]"
        },
        {
          "internalType": "uint256[]",
          "name": "rewards",
          "type": "uint256[]"
        }
      ],
      "stateMutability": "nonpayable",
      "type": "function"
    },
    {
      "inputs": [
        {
          "internalType": "contract IShareToken",
          "name": "_shareToken",
          "type": "address"
        }
      ],
      "name": "removeGauge",
      "outputs": [],
      "stateMutability": "nonpayable",
      "type": "function"
    },
    {
      "inputs": [],
      "name": "renounceOwnership",
      "outputs": [],
      "stateMutability": "nonpayable",
      "type": "function"
    },
    {
      "inputs": [
        {
          "internalType": "contract IGaugeLike",
          "name": "_gauge",
          "type": "address"
        },
        {
          "internalType": "contract IShareToken",
          "name": "_shareToken",
          "type": "address"
        }
      ],
      "name": "setGauge",
      "outputs": [],
      "stateMutability": "nonpayable",
      "type": "function"
    },
    {
      "inputs": [],
      "name": "siloConfig",
      "outputs": [
        {
          "internalType": "contract ISiloConfig",
          "name": "",
          "type": "address"
        }
      ],
      "stateMutability": "view",
      "type": "function"
    },
    {
      "inputs": [
        {
          "internalType": "address",
          "name": "newOwner",
          "type": "address"
        }
      ],
      "name": "transferOwnership",
      "outputs": [],
      "stateMutability": "nonpayable",
      "type": "function"
    },
    {
      "anonymous": false,
      "inputs": [
        {
          "indexed": false,
          "internalType": "contract ISilo",
          "name": "_silo",
          "type": "address"
        }
      ],
      "name": "FailedToClaimIncentives",
      "type": "event"
    },
    {
      "anonymous": false,
      "inputs": [
        {
          "indexed": false,
          "internalType": "address",
          "name": "gauge",
          "type": "address"
        },
        {
          "indexed": false,
          "internalType": "address",
          "name": "shareToken",
          "type": "address"
        }
      ],
      "name": "GaugeConfigured",
      "type": "event"
    },
    {
      "anonymous": false,
      "inputs": [
        {
          "indexed": false,
          "internalType": "address",
          "name": "shareToken",
          "type": "address"
        }
      ],
      "name": "GaugeRemoved",
      "type": "event"
    },
    {
      "anonymous": false,
      "inputs": [
        {
          "indexed": false,
          "internalType": "address",
          "name": "silo",
          "type": "address"
        },
        {
          "indexed": false,
          "internalType": "uint24",
          "name": "hooksBefore",
          "type": "uint24"
        },
        {
          "indexed": false,
          "internalType": "uint24",
          "name": "hooksAfter",
          "type": "uint24"
        }
      ],
      "name": "HookConfigured",
      "type": "event"
    },
    {
      "anonymous": false,
      "inputs": [
        {
          "indexed": false,
          "internalType": "uint64",
          "name": "version",
          "type": "uint64"
        }
      ],
      "name": "Initialized",
      "type": "event"
    },
    {
      "anonymous": false,
      "inputs": [
        {
          "indexed": true,
          "internalType": "address",
          "name": "liquidator",
          "type": "address"
        },
        {
          "indexed": true,
          "internalType": "address",
          "name": "silo",
          "type": "address"
        },
        {
          "indexed": true,
          "internalType": "address",
          "name": "borrower",
          "type": "address"
        },
        {
          "indexed": false,
          "internalType": "uint256",
          "name": "repayDebtAssets",
          "type": "uint256"
        },
        {
          "indexed": false,
          "internalType": "uint256",
          "name": "withdrawCollateral",
          "type": "uint256"
        },
        {
          "indexed": false,
          "internalType": "bool",
          "name": "receiveSToken",
          "type": "bool"
        }
      ],
      "name": "LiquidationCall",
      "type": "event"
    },
    {
      "anonymous": false,
      "inputs": [
        {
          "indexed": true,
          "internalType": "address",
          "name": "previousOwner",
          "type": "address"
        },
        {
          "indexed": true,
          "internalType": "address",
          "name": "newOwner",
          "type": "address"
        }
      ],
      "name": "OwnershipTransferStarted",
      "type": "event"
    },
    {
      "anonymous": false,
      "inputs": [
        {
          "indexed": true,
          "internalType": "address",
          "name": "previousOwner",
          "type": "address"
        },
        {
          "indexed": true,
          "internalType": "address",
          "name": "newOwner",
          "type": "address"
        }
      ],
      "name": "OwnershipTransferred",
      "type": "event"
    },
    {
      "inputs": [
        {
          "internalType": "address",
          "name": "target",
          "type": "address"
        }
      ],
      "name": "AddressEmptyCode",
      "type": "error"
    },
    {
      "inputs": [],
      "name": "AlreadyConfigured",
      "type": "error"
    },
    {
      "inputs": [],
      "name": "CantRemoveActiveGauge",
      "type": "error"
    },
    {
      "inputs": [],
      "name": "CollateralDepositNotAllowed",
      "type": "error"
    },
    {
      "inputs": [],
      "name": "EmptyGaugeAddress",
      "type": "error"
    },
    {
      "inputs": [],
      "name": "EmptySiloConfig",
      "type": "error"
    },
    {
      "inputs": [],
      "name": "FailedCall",
      "type": "error"
    },
    {
      "inputs": [],
      "name": "FullLiquidationRequired",
      "type": "error"
    },
    {
      "inputs": [],
      "name": "GaugeAlreadyConfigured",
      "type": "error"
    },
    {
      "inputs": [],
      "name": "GaugeIsNotConfigured",
      "type": "error"
    },
    {
      "inputs": [],
      "name": "IncentivesControllerRequired",
      "type": "error"
    },
    {
      "inputs": [
        {
          "internalType": "uint256",
          "name": "balance",
          "type": "uint256"
        },
        {
          "internalType": "uint256",
          "name": "needed",
          "type": "uint256"
        }
      ],
      "name": "InsufficientBalance",
      "type": "error"
    },
    {
      "inputs": [],
      "name": "InvalidInitialization",
      "type": "error"
    },
    {
      "inputs": [],
      "name": "InvalidShareToken",
      "type": "error"
    },
    {
      "inputs": [],
      "name": "InvalidTokenType",
      "type": "error"
    },
    {
      "inputs": [],
      "name": "NoDebtToCover",
      "type": "error"
    },
    {
      "inputs": [],
      "name": "NoRepayAssets",
      "type": "error"
    },
    {
      "inputs": [],
      "name": "NotInitializing",
      "type": "error"
    },
    {
      "inputs": [],
      "name": "OnlySilo",
      "type": "error"
    },
    {
      "inputs": [],
      "name": "OnlySiloOrShareToken",
      "type": "error"
    },
    {
      "inputs": [
        {
          "internalType": "address",
          "name": "owner",
          "type": "address"
        }
      ],
      "name": "OwnableInvalidOwner",
      "type": "error"
    },
    {
      "inputs": [
        {
          "internalType": "address",
          "name": "account",
          "type": "address"
        }
      ],
      "name": "OwnableUnauthorizedAccount",
      "type": "error"
    },
    {
      "inputs": [],
      "name": "OwnerIsZeroAddress",
      "type": "error"
    },
    {
      "inputs": [],
      "name": "ReentrancyGuardReentrantCall",
      "type": "error"
    },
    {
      "inputs": [],
      "name": "RequestNotSupported",
      "type": "error"
    },
    {
      "inputs": [
        {
          "internalType": "address",
          "name": "token",
          "type": "address"
        }
      ],
      "name": "SafeERC20FailedOperation",
      "type": "error"
    },
    {
      "inputs": [],
      "name": "TransitionProtectedCollateralNotAllowed",
      "type": "error"
    },
    {
      "inputs": [],
      "name": "UnexpectedCollateralToken",
      "type": "error"
    },
    {
      "inputs": [],
      "name": "UnexpectedDebtToken",
      "type": "error"
    },
    {
      "inputs": [],
      "name": "UnknownRatio",
      "type": "error"
    },
    {
      "inputs": [],
      "name": "UserIsSolvent",
      "type": "error"
    },
    {
      "inputs": [],
      "name": "WrongGaugeShareToken",
      "type": "error"
    },
    {
      "inputs": [],
      "name": "WrongSiloConfig",
      "type": "error"
    }
  ],
  "bytecode": "0x608060405234801561000f575f5ffd5b503361001961005e565b6001600160a01b03811661004657604051631e4fbdf760e01b81525f600482015260240160405180910390fd5b61004f81610110565b506100595f610110565b610175565b7ff0c57e16840df040f15088dc2f81fe391c3923bec73e23a9662efc9c229c6a00805468010000000000000000900460ff16156100ae5760405163f92ee8a960e01b815260040160405180910390fd5b80546001600160401b039081161461010d5780546001600160401b0319166001600160401b0390811782556040519081527fc7f505b2f371ae2175ee4913f4499e1f2633a7b5936321eed1cdaeb6115181d29060200160405180910390a15b50565b600380546001600160a01b031916905561010d81600280546001600160a01b038381166001600160a01b0319831681179093556040519116919082907f8be0079c531659141344cd1fd0a4f28419497f9722a3daafe3b4186f6b6457e0905f90a35050565b61367d806101825f395ff3fe608060405234801561000f575f5ffd5b5060043610610126575f3560e01c806399d9a71f116100a9578063d714fd191161006e578063d714fd19146102a3578063e30c3978146102b5578063e4784fa9146102c6578063f0fc4ec114610330578063f2fde38b14610338575f5ffd5b806399d9a71f14610212578063a37d941114610225578063aef282351461024d578063bd02d84814610260578063d1f5789414610290575f5ffd5b80633a045145116100ef5780633a045145146101cb578063715018a6146101de57806379ba5097146101e657806383de6fbf146101ee5780638da5cb5b14610201575f5ffd5b8062a718a91461012a57806315b92b2014610157578063175678da14610182578063237e6d64146101a357806335cb1099146101b8575b5f5ffd5b61013d610138366004612aa6565b61034b565b604080519283526020830191909152015b60405180910390f35b60075461016a906001600160a01b031681565b6040516001600160a01b03909116815260200161014e565b610195610190366004612b0a565b610915565b60405161014e929190612b41565b6101b66101b1366004612b0a565b610b31565b005b6101b66101c6366004612c0e565b610d52565b6101b66101d9366004612c65565b610de7565b6101b6610f01565b6101b6610f14565b60065461016a906001600160a01b031681565b6002546001600160a01b031661016a565b60055461016a906001600160a01b031681565b61016a610233366004612c65565b60046020525f90815260409020546001600160a01b031681565b6101b661025b366004612c0e565b610f5d565b61027361026e366004612c65565b610fb8565b60408051938452602084019290925215159082015260600161014e565b6101b661029e366004612c80565b61104f565b5f5461016a906001600160a01b031681565b6003546001600160a01b031661016a565b6103146102d4366004612c65565b6001600160a01b03165f9081526001602090815260409182902082518084019093525462ffffff8082168085526301000000909204169290910182905291565b6040805162ffffff93841681529290911660208301520161014e565b61019561117d565b6101b6610346366004612c65565b6113e6565b5f8060ff815c161561037057604051633ee5aeb560e01b815260040160405180910390fd5b60015f805c60ff19168217905d505f546001600160a01b0316806103a7576040516379c39cf960e01b815260040160405180910390fd5b845f036103c7576040516317ff0e0960e11b815260040160405180910390fd5b806001600160a01b0316639dd413306040518163ffffffff1660e01b81526004015f604051808303815f87803b1580156103ff575f5ffd5b505af1158015610411573d5f5f3e3d5ffd5b505050505f5f610423838b8b8b611457565b9150915061045e6040518060a001604052805f81526020015f81526020015f81526020015f81526020015f6001600160e01b03191681525090565b6101a0830151604051636da707db60e01b815273__$13ae51f56eab8417585cbbba140ac4e457$__91636da707db916104a291879187918f918f9190600401612e28565b608060405180830381865af41580156104bd573d5f5f3e3d5ffd5b505050506040513d601f19601f820116820180604052508101906104e19190612e6d565b6001600160e01b031916608085018190526060850192909252604084019290925290955061050e90611674565b8785111561052f5760405163d65db62d60e01b815260040160405180910390fd5b6060820151610549906001600160a01b03163330886116b9565b61056f82604001518684606001516001600160a01b03166117269092919063ffffffff16565b5f8761057b573061057d565b335b905061059a84604001518b8385604001518860a0015160016117ad565b82526040840151606083015160808601516105bb92918d918591905f6117ad565b826020018181525050846001600160a01b03166362402b046040518163ffffffff1660e01b81526004015f604051808303815f87803b1580156105fc575f5ffd5b505af115801561060e573d5f5f3e3d5ffd5b505050604080850151905163acb7081560e01b8152600481018990526001600160a01b038d81166024830152909116915063acb70815906044016020604051808303815f875af1158015610664573d5f5f3e3d5ffd5b505050506040513d601f19601f820116820180604052508101906106889190612eb9565b5087156107975781511561070e576040808501518351915163a7d6e44b60e01b81526001600160a01b039091169163a7d6e44b916106cc9190600190600401612ef4565b602060405180830381865afa1580156106e7573d5f5f3e3d5ffd5b505050506040513d601f19601f8201168201806040525081019061070b9190612eb9565b96505b6020820151156107925783604001516001600160a01b031663a7d6e44b83602001515f6040518363ffffffff1660e01b815260040161074e929190612ef4565b602060405180830381865afa158015610769573d5f5f3e3d5ffd5b505050506040513d601f19601f8201168201806040525081019061078d9190612eb9565b870196505b6108a4565b81511561081b57604080850151835191516306d29bb360e51b81526001600160a01b039091169163da537660916107d8919033903090600190600401612f11565b6020604051808303815f875af11580156107f4573d5f5f3e3d5ffd5b505050506040513d601f19601f820116820180604052508101906108189190612eb9565b96505b6020820151156108a45783604001516001600160a01b031663da537660836020015133305f6040518563ffffffff1660e01b815260040161085f9493929190612f11565b6020604051808303815f875af115801561087b573d5f5f3e3d5ffd5b505050506040513d601f19601f8201168201806040525081019061089f9190612eb9565b870196505b6040838101518151888152602081018a90528a15158184015291516001600160a01b038d81169392169133917f3a84f64446e8eada995aa9da2ddbfcd9b5d5d650503b19f024096d04c05ef2a99181900360600190a4505f93505050815c60ff19169050815d509550959350505050565b606080836001600160a01b031663c4f59f9b6040518163ffffffff1660e01b81526004015f60405180830381865afa158015610953573d5f5f3e3d5ffd5b505050506040513d5f823e601f3d908101601f1916820160405261097a9190810190613059565b604051639262187b60e01b81523060048201529092506001600160a01b03851690639262187b906024015f604051808303815f875af11580156109bf573d5f5f3e3d5ffd5b505050506040513d5f823e601f3d908101601f191682016040526109e691908101906130e5565b5081516001600160401b03811115610a0057610a00612f47565b604051908082528060200260200182016040528015610a29578160200160208202803683370190505b5090505f5b8251811015610b29575f838281518110610a4a57610a4a613116565b60200260200101519050856001600160a01b0316816001600160a01b031603610a735750610b21565b6040516370a0823160e01b81523060048201525f906001600160a01b038316906370a0823190602401602060405180830381865afa158015610ab7573d5f5f3e3d5ffd5b505050506040513d601f19601f82011682018060405250810190610adb9190612eb9565b9050805f03610aeb575050610b21565b610aff6001600160a01b0383168783611912565b80848481518110610b1257610b12613116565b60200260200101818152505050505b600101610a2e565b509250929050565b610b39611948565b6001600160a01b038216610b605760405163d1af83ef60e01b815260040160405180910390fd5b806001600160a01b0316826001600160a01b0316632ad87c6f6040518163ffffffff1660e01b8152600401602060405180830381865afa158015610ba6573d5f5f3e3d5ffd5b505050506040513d601f19601f82011682018060405250810190610bca919061312a565b6001600160a01b031614610bf15760405163060a0aaf60e41b815260040160405180910390fd5b6001600160a01b038082165f90815260046020526040902054168015610c2a5760405163d0c7225560e01b815260040160405180910390fd5b5f826001600160a01b031663eb3beb296040518163ffffffff1660e01b8152600401602060405180830381865afa158015610c67573d5f5f3e3d5ffd5b505050506040513d601f19601f82011682018060405250810190610c8b919061312a565b90505f610c988285611975565b90505f610ca483611a7e565b90506104008217610cb482821790565b9150610ce384610cdd866001600160a01b03165f9081526001602052604090205462ffffff1690565b84611aa4565b6001600160a01b038681165f8181526004602090815260409182902080546001600160a01b031916948c16948517905581519384528301919091527f213d54ca7d6adb897962b4f78f6c2424aa527ee584f57a6000f961c507e0ec27910160405180910390a150505050505050565b610d5b33611b87565b610d78576040516310528c6d60e11b815260040160405180910390fd5b5f610d836001611c2f565b90505f610d8f5f611c5e565b90508185168203610db357604051630cdabce360e31b815260040160405180910390fd5b8085168103610dd5576040516303b14e6760e21b815260040160405180910390fd5b610ddd61117d565b5050505050505050565b610def611948565b6001600160a01b038082165f908152600460205260409020541680610e2757604051632e77844760e21b815260040160405180910390fd5b806001600160a01b0316639c868ac06040518163ffffffff1660e01b8152600401602060405180830381865afa158015610e63573d5f5f3e3d5ffd5b505050506040513d601f19601f82011682018060405250810190610e879190613150565b610ea457604051630d0ab16560e01b815260040160405180910390fd5b6001600160a01b0382165f8181526004602090815260409182902080546001600160a01b031916905590519182527f94ac12f5301759f065db9de7f23677e50bef009f062b028d4d4612f620f0f5fb910160405180910390a15050565b610f09611948565b610f125f611c8d565b565b60035433906001600160a01b03168114610f515760405163118cdaa760e01b81526001600160a01b03821660048201526024015b60405180910390fd5b610f5a81611c8d565b50565b610f6633611ca6565b610f83576040516358ec9b7760e11b815260040160405180910390fd5b5f610f8f611000611ebd565b90508381168403610fa557610fa261117d565b50505b610fb185858585611f00565b5050505050565b5f8054604051631c2b1ded60e01b81526001600160a01b03918216600482015290831660248201528190819073__$13ae51f56eab8417585cbbba140ac4e457$__90631c2b1ded90604401606060405180830381865af415801561101e573d5f5f3e3d5ffd5b505050506040513d601f19601f82011682018060405250810190611042919061316b565b9250925092509193909250565b7ff0c57e16840df040f15088dc2f81fe391c3923bec73e23a9662efc9c229c6a008054600160401b810460ff1615906001600160401b03165f811580156110935750825b90505f826001600160401b031660011480156110ae5750303b155b9050811580156110bc575080155b156110da5760405163f92ee8a960e01b815260040160405180910390fd5b845467ffffffffffffffff19166001178555831561110457845460ff60401b1916600160401b1785555b5f61111187890189612c65565b905061111c8961201d565b61112581612096565b61112d6120c5565b508315610ddd57845460ff60401b19168555604051600181527fc7f505b2f371ae2175ee4913f4499e1f2633a7b5936321eed1cdaeb6115181d29060200160405180910390a15050505050505050565b60608060ff6101005f5c041615611192579091565b6006546001600160a01b03165f6111a7612193565b600554604080516001600160a01b03928316602482015283831660448083019190915282518083039091018152606490910182526020810180516001600160e01b0316630bab3c6d60e11b1790529051634624c6a760e01b8152929350915f91829190861690634624c6a790624c4b409061122d90309086906001908a906004016131a2565b5f604051808303815f8887f1158015611248573d5f5f3e3d5ffd5b50505050506040513d5f823e601f3d908101601f1916820160405261127091908101906131ff565b91509150816112be576040516001600160a01b03861681527fa5cbace425ed2c99d6ae37bfb840bd585c64adb02bb88032cd430fd8de03e27c9060200160405180910390a150505050509091565b808060200190518101906112d291906132a5565b90975095505f5b87518110156113c8575f8782815181106112f5576112f5613116565b60200260200101519050805f0361130c57506113c0565b5f611324826cffffffffffffffffffffffffff6121d1565b9050866001600160a01b0316632e953c218b858151811061134757611347613116565b6020026020010151836040518363ffffffff1660e01b81526004016113909291906001600160a01b039290921682526cffffffffffffffffffffffffff16602082015260400190565b5f604051808303815f87803b1580156113a7575f5ffd5b505af11580156113b9573d5f5f3e3d5ffd5b5050505050505b6001016112d9565b50600161ff00195f805c9190911661010017905d5050505050509091565b6113ee611948565b600380546001600160a01b0383166001600160a01b0319909116811790915561141f6002546001600160a01b031690565b6001600160a01b03167f38d16b8cac22d99fc7c124b9cd0de2d3fa1faef420bfe791d8c362d765e2270060405160405180910390a350565b61145f6129fa565b6114676129fa565b6040516394c0527d60e01b81526001600160a01b0384811660048301528716906394c0527d9060240161044060405180830381865afa1580156114ac573d5f5f3e3d5ffd5b505050506040513d601f19601f820116820180604052508101906114d09190613420565b604081015191935091506001600160a01b031661150057604051632f13551560e11b815260040160405180910390fd5b81606001516001600160a01b0316856001600160a01b0316146115365760405163055692d760e21b815260040160405180910390fd5b80606001516001600160a01b0316846001600160a01b03161461156c5760405163129e080d60e21b815260040160405180910390fd5b80604001516001600160a01b031663a6afed956040518163ffffffff1660e01b81526004016020604051808303815f875af11580156115ad573d5f5f3e3d5ffd5b505050506040513d601f19601f820116820180604052508101906115d19190612eb9565b5080604001516001600160a01b031682604001516001600160a01b03161461166b5781604001516001600160a01b031663a6afed956040518163ffffffff1660e01b81526004016020604051808303815f875af1158015611634573d5f5f3e3d5ffd5b505050506040513d601f19601f820116820180604052508101906116589190612eb9565b50611662826121e8565b61166b816121e8565b94509492505050565b6001600160e01b031981165f036116885750565b6040805160048152602481019091526020810180516001600160e01b03166001600160e01b03198416178152815190fd5b6040516001600160a01b0384811660248301528381166044830152606482018390526117209186918216906323b872dd906084015b604051602081830303815290604052915060e01b6020820180516001600160e01b038381831617835250505050612267565b50505050565b604051636eb1769f60e11b81523060048201526001600160a01b0383811660248301525f919085169063dd62ed3e90604401602060405180830381865afa158015611773573d5f5f3e3d5ffd5b505050506040513d601f19601f820116820180604052508101906117979190612eb9565b905061172084846117a88585613469565b6122c8565b5f835f036117bc57505f611908565b61189284886001600160a01b031663b6d821c7856040518263ffffffff1660e01b81526004016117ec919061347c565b602060405180830381865afa158015611807573d5f5f3e3d5ffd5b505050506040513d601f19601f8201168201806040525081019061182b9190612eb9565b856001600160a01b03166318160ddd6040518163ffffffff1660e01b8152600401602060405180830381865afa158015611867573d5f5f3e3d5ffd5b505050506040513d601f19601f8201168201806040525081019061188b9190612eb9565b5f86612357565b9050805f036118a257505f611908565b604051633661585b60e21b81526001600160a01b03878116600483015286811660248301526044820183905284169063d985616c906064015f604051808303815f87803b1580156118f1575f5ffd5b505af1158015611903573d5f5f3e3d5ffd5b505050505b9695505050505050565b6040516001600160a01b0383811660248301526044820183905261194391859182169063a9059cbb906064016116ee565b505050565b6002546001600160a01b03163314610f125760405163118cdaa760e01b8152336004820152602401610f48565b5f8054604051630483b24f60e41b81526001600160a01b0385811660048301528392839283929091169063483b24f090602401606060405180830381865afa1580156119c3573d5f5f3e3d5ffd5b505050506040513d601f19601f820116820180604052508101906119e79190613496565b925092509250816001600160a01b0316856001600160a01b031603611a13576108009350505050611a78565b826001600160a01b0316856001600160a01b031603611a39576110009350505050611a78565b806001600160a01b0316856001600160a01b031603611a5f576120009350505050611a78565b60405163d938fa3760e01b815260040160405180910390fd5b92915050565b6001600160a01b03165f908152600160205260409020546301000000900462ffffff1690565b60408051808201825262ffffff84811680835284821660208085018281526001600160a01b038a165f81815260018452889020965187549251871663010000000265ffffffffffff1990931696169590951717909455845192835292820152918201527f1c26a8451bc890d476a0e7bb8310f00750604879bb30d4813a7718a1ee089fa69060600160405180910390a1826001600160a01b031663cad1aacf6040518163ffffffff1660e01b81526004015f604051808303815f87803b158015611b6c575f5ffd5b505af1158015611b7e573d5f5f3e3d5ffd5b50505050505050565b5f80546040805163aecc90cb60e01b81528151849384936001600160a01b039091169263aecc90cb92600480830193928290030181865afa158015611bce573d5f5f3e3d5ffd5b505050506040513d601f19601f82011682018060405250810190611bf291906134d5565b91509150816001600160a01b0316846001600160a01b03161480611c275750806001600160a01b0316846001600160a01b0316145b949350505050565b5f6001826001811115611c4457611c44612ed0565b14611c5157611000611c55565b6108005b60021792915050565b5f6001826001811115611c7357611c73612ed0565b14611c8057611000611c84565b6108005b60801792915050565b600380546001600160a01b0319169055610f5a81612394565b5f80546040805163aecc90cb60e01b81528151849384936001600160a01b039091169263aecc90cb92600480830193928290030181865afa158015611ced573d5f5f3e3d5ffd5b505050506040513d601f19601f82011682018060405250810190611d1191906134d5565b91509150816001600160a01b0316846001600160a01b03161480611d465750806001600160a01b0316846001600160a01b0316145b15611d55575060019392505050565b5f8054604051630483b24f60e41b81526001600160a01b0385811660048301528392169063483b24f090602401606060405180830381865afa158015611d9d573d5f5f3e3d5ffd5b505050506040513d601f19601f82011682018060405250810190611dc19190613496565b919350909150506001600160a01b038681169083161480611df35750806001600160a01b0316866001600160a01b0316145b15611e045750600195945050505050565b5f54604051630483b24f60e41b81526001600160a01b0385811660048301529091169063483b24f090602401606060405180830381865afa158015611e4b573d5f5f3e3d5ffd5b505050506040513d601f19601f82011682018060405250810190611e6f9190613496565b919350909150506001600160a01b038681169083161480611ea15750806001600160a01b0316866001600160a01b0316145b15611eb25750600195945050505050565b505f95945050505050565b5f610800821480611ecf575061100082145b80611edb575061200082145b611ef85760405163a1e9dd9d60e01b815260040160405180910390fd5b506104001790565b335f908152600460205260409020546001600160a01b031680611f235750611720565b611f3684611f3087611a7e565b81161490565b611f405750611720565b5f611f7f84848080601f0160208091040260200160405190810160405280939291908181526020018383808284375f920191909152506123e592505050565b805160608201516020830151608084015160a0850151604080870151905163bbdc013b60e01b81526001600160a01b039687166004820152602481019590955292851660448501526064840191909152608483015260a482015291925083169063bbdc013b9060c4015f604051808303815f87803b158015611fff575f5ffd5b505af1158015612011573d5f5f3e3d5ffd5b50505050505050505050565b612025612489565b6001600160a01b03811661204c576040516379c39cf960e01b815260040160405180910390fd5b5f546001600160a01b031615612075576040516308db0db560e11b815260040160405180910390fd5b5f80546001600160a01b0319166001600160a01b0392909216919091179055565b61209e612489565b6001600160a01b038116610f51576040516354a4010f60e01b815260040160405180910390fd5b6120cd612489565b5f5f6120d76124d2565b915091506120e482612671565b5f8054604051630483b24f60e41b81526001600160a01b0385811660048301529091169063483b24f090602401606060405180830381865afa15801561212c573d5f5f3e3d5ffd5b505050506040513d601f19601f820116820180604052508101906121509190613496565b5050600680546001600160a01b03199081166001600160a01b03968716179091556005805482169486169490941790935560078054909316931692909217905550565b6007546001600160a01b039081165f9081526004602052604090205416806121ce57604051630f69a37160e31b815260040160405180910390fd5b90565b5f8183106121df57816121e1565b825b9392505050565b8061020001518015612206575060e08101516001600160a01b031615155b15610f5a5760e08101516060820151604051637cfd30cd60e11b81526001600160a01b03918216600482015291169063f9fa619a906024015f604051808303815f87803b158015612255575f5ffd5b505af1158015610fb1573d5f5f3e3d5ffd5b5f61227b6001600160a01b0384168361269e565b905080515f1415801561229f57508080602001905181019061229d9190613150565b155b1561194357604051635274afe760e01b81526001600160a01b0384166004820152602401610f48565b604080516001600160a01b038416602482015260448082018490528251808303909101815260649091019091526020810180516001600160e01b031663095ea7b360e01b17905261231984826126ab565b611720576040516001600160a01b0384811660248301525f604483015261234d91869182169063095ea7b3906064016116ee565b6117208482612267565b5f5f5f612365878786612748565b91509150815f0361237a57879250505061238b565b612386888383886127a3565b925050505b95945050505050565b600280546001600160a01b038381166001600160a01b0319831681179093556040519116919082907f8be0079c531659141344cd1fd0a4f28419497f9722a3daafe3b4186f6b6457e0905f90a35050565b61242a6040518060c001604052805f6001600160a01b031681526020015f6001600160a01b031681526020015f81526020015f81526020015f81526020015f81525090565b506014810151602882015160488301516068840151608885015160a8909501516040805160c0810182526001600160a01b039687168152959094166020860152928401919091526060830152608082019290925260a081019190915290565b7ff0c57e16840df040f15088dc2f81fe391c3923bec73e23a9662efc9c229c6a0054600160401b900460ff16610f1257604051631afcd79f60e31b815260040160405180910390fd5b5f80546040805163aecc90cb60e01b8152815184936001600160a01b03169263aecc90cb92600480820193918290030181865afa158015612515573d5f5f3e3d5ffd5b505050506040513d601f19601f8201168201806040525081019061253991906134d5565b5080925050816001600160a01b03166338d52e0f6040518163ffffffff1660e01b8152600401602060405180830381865afa15801561257a573d5f5f3e3d5ffd5b505050506040513d601f19601f8201168201806040525081019061259e919061312a565b9050806001600160a01b031663c4f59f9b6040518163ffffffff1660e01b81526004015f60405180830381865afa1580156125db573d5f5f3e3d5ffd5b505050506040513d5f823e601f3d908101601f191682016040526126029190810190613059565b50604051639262187b60e01b81523060048201526001600160a01b03821690639262187b906024015f604051808303815f875af1158015612645573d5f5f3e3d5ffd5b505050506040513d5f823e601f3d908101601f1916820160405261266c91908101906130e5565b509091565b62ffffff5f61267f83611a7e565b90505f61268d611000611ebd565b918217919050611720848484611aa4565b60606121e183835f6127e5565b5f5f5f846001600160a01b0316846040516126c69190613502565b5f604051808303815f865af19150503d805f81146126ff576040519150601f19603f3d011682016040523d82523d5f602084013e612704565b606091505b509150915081801561272e57508051158061272e57508080602001905181019061272e9190613150565b801561238b5750505050506001600160a01b03163b151590565b5f5f835f03612755575f94505b600283600281111561276957612769612ed0565b146127945761277a6003600a6135fb565b6127849085613469565b61278f866001613469565b612797565b83855b90969095509350505050565b5f6127d06127b08361287b565b80156127cb57505f84806127c6576127c6613606565b868809115b151590565b6127db8686866128a7565b61238b9190613469565b6060814710156128115760405163cf47918160e01b815247600482015260248101839052604401610f48565b5f5f856001600160a01b0316848660405161282c9190613502565b5f6040518083038185875af1925050503d805f8114612866576040519150601f19603f3d011682016040523d82523d5f602084013e61286b565b606091505b5091509150611908868383612964565b5f600282600381111561289057612890612ed0565b61289a919061361a565b60ff166001149050919050565b5f838302815f1985870982811083820303915050805f036128db578382816128d1576128d1613606565b04925050506121e1565b8084116128f9576128f984156128f25760116129c0565b60126129c0565b5f848688095f868103871696879004966002600389028118808a02820302808a02820302808a02820302808a02820302808a02820302808a02909103029181900381900460010186841190950394909402919094039290920491909117919091029150509392505050565b60608261297957612974826129d1565b6121e1565b815115801561299057506001600160a01b0384163b155b156129b957604051639996b31560e01b81526001600160a01b0385166004820152602401610f48565b50806121e1565b634e487b715f52806020526024601cfd5b8051156129e15780518082602001fd5b60405163d6bda27560e01b815260040160405180910390fd5b60408051610220810182525f80825260208201819052918101829052606081018290526080810182905260a0810182905260c0810182905260e08101829052610100810182905261012081018290526101408101829052610160810182905261018081018290526101a081018290526101c081018290526101e0810182905261020081019190915290565b6001600160a01b0381168114610f5a575f5ffd5b8015158114610f5a575f5ffd5b5f5f5f5f5f60a08688031215612aba575f5ffd5b8535612ac581612a85565b94506020860135612ad581612a85565b93506040860135612ae581612a85565b9250606086013591506080860135612afc81612a99565b809150509295509295909350565b5f5f60408385031215612b1b575f5ffd5b8235612b2681612a85565b91506020830135612b3681612a85565b809150509250929050565b604080825283519082018190525f9060208501906060840190835b81811015612b835783516001600160a01b0316835260209384019390920191600101612b5c565b5050838103602080860191909152855180835291810192508501905f5b81811015612bbe578251845260209384019390920191600101612ba0565b50919695505050505050565b5f5f83601f840112612bda575f5ffd5b5081356001600160401b03811115612bf0575f5ffd5b602083019150836020828501011115612c07575f5ffd5b9250929050565b5f5f5f5f60608587031215612c21575f5ffd5b8435612c2c81612a85565b93506020850135925060408501356001600160401b03811115612c4d575f5ffd5b612c5987828801612bca565b95989497509550505050565b5f60208284031215612c75575f5ffd5b81356121e181612a85565b5f5f5f60408486031215612c92575f5ffd5b8335612c9d81612a85565b925060208401356001600160401b03811115612cb7575f5ffd5b612cc386828701612bca565b9497909650939450505050565b80518252602081015160208301526040810151612cf860408401826001600160a01b03169052565b506060810151612d1360608401826001600160a01b03169052565b506080810151612d2e60808401826001600160a01b03169052565b5060a0810151612d4960a08401826001600160a01b03169052565b5060c0810151612d6460c08401826001600160a01b03169052565b5060e0810151612d7f60e08401826001600160a01b03169052565b50610100810151612d9c6101008401826001600160a01b03169052565b50610120810151612db96101208401826001600160a01b03169052565b506101408101516101408301526101608101516101608301526101808101516101808301526101a08101516101a08301526101c08101516101c08301526101e0810151612e126101e08401826001600160a01b03169052565b5061020081015161194361020084018215159052565b6104a08101612e378288612cd0565b612e45610220830187612cd0565b6001600160a01b03949094166104408201526104608101929092526104809091015292915050565b5f5f5f5f60808587031215612e80575f5ffd5b845160208601516040870151606088015192965090945092506001600160e01b031981168114612eae575f5ffd5b939692955090935050565b5f60208284031215612ec9575f5ffd5b5051919050565b634e487b7160e01b5f52602160045260245ffd5b60028110610f5a57610f5a612ed0565b82815260408101612f0483612ee4565b8260208301529392505050565b8481526001600160a01b0384811660208301528316604082015260808101612f3883612ee4565b82606083015295945050505050565b634e487b7160e01b5f52604160045260245ffd5b60405161022081016001600160401b0381118282101715612f7e57612f7e612f47565b60405290565b604051601f8201601f191681016001600160401b0381118282101715612fac57612fac612f47565b604052919050565b5f6001600160401b03821115612fcc57612fcc612f47565b5060051b60200190565b8051612fe181612a85565b919050565b5f82601f830112612ff5575f5ffd5b815161300861300382612fb4565b612f84565b8082825260208201915060208360051b860101925085831115613029575f5ffd5b602085015b8381101561304f57805161304181612a85565b83526020928301920161302e565b5095945050505050565b5f60208284031215613069575f5ffd5b81516001600160401b0381111561307e575f5ffd5b611c2784828501612fe6565b5f82601f830112613099575f5ffd5b81516130a761300382612fb4565b8082825260208201915060208360051b8601019250858311156130c8575f5ffd5b602085015b8381101561304f5780518352602092830192016130cd565b5f602082840312156130f5575f5ffd5b81516001600160401b0381111561310a575f5ffd5b611c278482850161308a565b634e487b7160e01b5f52603260045260245ffd5b5f6020828403121561313a575f5ffd5b81516121e181612a85565b8051612fe181612a99565b5f60208284031215613160575f5ffd5b81516121e181612a99565b5f5f5f6060848603121561317d575f5ffd5b835160208501516040860151919450925061319781612a99565b809150509250925092565b6001600160a01b0385168152602081018490526131be83612ee4565b826040820152608060608201525f8251806080840152806020850160a085015e5f60a0828501015260a0601f19601f83011684010191505095945050505050565b5f5f60408385031215613210575f5ffd5b825161321b81612a99565b60208401519092506001600160401b03811115613236575f5ffd5b8301601f81018513613246575f5ffd5b80516001600160401b0381111561325f5761325f612f47565b613272601f8201601f1916602001612f84565b818152866020838501011115613286575f5ffd5b8160208401602083015e5f602083830101528093505050509250929050565b5f5f604083850312156132b6575f5ffd5b82516001600160401b038111156132cb575f5ffd5b6132d785828601612fe6565b92505060208301516001600160401b038111156132f2575f5ffd5b6132fe8582860161308a565b9150509250929050565b5f6102208284031215613319575f5ffd5b613321612f5b565b8251815260208084015190820152905061333d60408301612fd6565b604082015261334e60608301612fd6565b606082015261335f60808301612fd6565b608082015261337060a08301612fd6565b60a082015261338160c08301612fd6565b60c082015261339260e08301612fd6565b60e08201526133a46101008301612fd6565b6101008201526133b76101208301612fd6565b6101208201526101408281015190820152610160808301519082015261018080830151908201526101a080830151908201526101c080830151908201526134016101e08301612fd6565b6101e08201526134146102008301613145565b61020082015292915050565b5f5f6104408385031215613432575f5ffd5b61343c8484613308565b915061344c846102208501613308565b90509250929050565b634e487b7160e01b5f52601160045260245ffd5b80820180821115611a7857611a78613455565b602081016003831061349057613490612ed0565b91905290565b5f5f5f606084860312156134a8575f5ffd5b83516134b381612a85565b60208501519093506134c481612a85565b604085015190925061319781612a85565b5f5f604083850312156134e6575f5ffd5b82516134f181612a85565b6020840151909250612b3681612a85565b5f82518060208501845e5f920191825250919050565b6001815b60018411156135535780850481111561353757613537613455565b600184161561354557908102905b60019390931c92800261351c565b935093915050565b5f8261356957506001611a78565b8161357557505f611a78565b816001811461358b5760028114613595576135b1565b6001915050611a78565b60ff8411156135a6576135a6613455565b50506001821b611a78565b5060208310610133831016604e8410600b84101617156135d4575081810a611a78565b6135e05f198484613518565b805f19048211156135f3576135f3613455565b029392505050565b5f6121e1838361355b565b634e487b7160e01b5f52601260045260245ffd5b5f60ff83168061363857634e487b7160e01b5f52601260045260245ffd5b8060ff8416069150509291505056fea264697066735822122050bda61a7922d73203dd60c60a387dfb80ec6655224077ce06d4fb722ab2fec264736f6c634300081c0033",
  "language": "Solidity",
  "compiler": "0.8.28+commit.7893614a"
}