{
  "address": "0x5a6694216A0D3249E95f74eE51A47753482488A6",
  "abi": [
    {
      "inputs": [
        {
          "internalType": "contract ISilo",
          "name": "_silo",
          "type": "address"
        },
        {
          "internalType": "address",
          "name": "_borrower",
          "type": "address"
        }
      ],
      "name": "borrowShare",
      "outputs": [
        {
          "internalType": "uint256",
          "name": "",
          "type": "uint256"
        }
      ],
      "stateMutability": "view",
      "type": "function"
    },
    {
      "inputs": [
        {
          "internalType": "contract ISiloConfig",
          "name": "_siloConfig",
          "type": "address"
        },
        {
          "internalType": "address",
          "name": "_borrower",
          "type": "address"
        }
      ],
      "name": "calculateBorrowValue",
      "outputs": [
        {
          "internalType": "uint256",
          "name": "borrowValue",
          "type": "uint256"
        }
      ],
      "stateMutability": "view",
      "type": "function"
    },
    {
      "inputs": [
        {
          "internalType": "contract ISiloConfig",
          "name": "_siloConfig",
          "type": "address"
        },
        {
          "internalType": "address",
          "name": "_borrower",
          "type": "address"
        }
      ],
      "name": "calculateCollateralValue",
      "outputs": [
        {
          "internalType": "uint256",
          "name": "collateralValue",
          "type": "uint256"
        }
      ],
      "stateMutability": "view",
      "type": "function"
    },
    {
      "inputs": [
        {
          "internalType": "contract ISilo",
          "name": "_silo",
          "type": "address"
        },
        {
          "internalType": "address",
          "name": "_borrower",
          "type": "address"
        }
      ],
      "name": "collateralBalanceOfUnderlying",
      "outputs": [
        {
          "internalType": "uint256",
          "name": "borrowerCollateral",
          "type": "uint256"
        }
      ],
      "stateMutability": "view",
      "type": "function"
    },
    {
      "inputs": [
        {
          "internalType": "contract ISilo",
          "name": "_silo",
          "type": "address"
        }
      ],
      "name": "collateralOnlyDeposits",
      "outputs": [
        {
          "internalType": "uint256",
          "name": "",
          "type": "uint256"
        }
      ],
      "stateMutability": "view",
      "type": "function"
    },
    {
      "inputs": [
        {
          "internalType": "contract ISilo",
          "name": "_silo",
          "type": "address"
        },
        {
          "internalType": "address",
          "name": "_borrower",
          "type": "address"
        }
      ],
      "name": "debtBalanceOfUnderlying",
      "outputs": [
        {
          "internalType": "uint256",
          "name": "",
          "type": "uint256"
        }
      ],
      "stateMutability": "view",
      "type": "function"
    },
    {
      "inputs": [
        {
          "internalType": "contract ISilo[]",
          "name": "_silos",
          "type": "address[]"
        }
      ],
      "name": "getAPRs",
      "outputs": [
        {
          "components": [
            {
              "internalType": "uint256",
              "name": "depositAPR",
              "type": "uint256"
            },
            {
              "internalType": "uint256",
              "name": "borrowAPR",
              "type": "uint256"
            }
          ],
          "internalType": "struct ISiloLens.APR[]",
          "name": "aprs",
          "type": "tuple[]"
        }
      ],
      "stateMutability": "view",
      "type": "function"
    },
    {
      "inputs": [
        {
          "internalType": "contract ISilo",
          "name": "_silo",
          "type": "address"
        }
      ],
      "name": "getBorrowAPR",
      "outputs": [
        {
          "internalType": "uint256",
          "name": "borrowAPR",
          "type": "uint256"
        }
      ],
      "stateMutability": "view",
      "type": "function"
    },
    {
      "inputs": [
        {
          "internalType": "contract ISilo",
          "name": "_silo",
          "type": "address"
        },
        {
          "internalType": "address",
          "name": "_borrower",
          "type": "address"
        }
      ],
      "name": "getBorrowAmount",
      "outputs": [
        {
          "internalType": "uint256",
          "name": "maxRepay",
          "type": "uint256"
        }
      ],
      "stateMutability": "view",
      "type": "function"
    },
    {
      "inputs": [
        {
          "internalType": "contract ISilo",
          "name": "_silo",
          "type": "address"
        }
      ],
      "name": "getDepositAPR",
      "outputs": [
        {
          "internalType": "uint256",
          "name": "depositAPR",
          "type": "uint256"
        }
      ],
      "stateMutability": "view",
      "type": "function"
    },
    {
      "inputs": [
        {
          "internalType": "contract ISilo",
          "name": "_silo",
          "type": "address"
        },
        {
          "internalType": "address",
          "name": "_borrower",
          "type": "address"
        }
      ],
      "name": "getDepositAmount",
      "outputs": [
        {
          "internalType": "uint256",
          "name": "borrowerDeposits",
          "type": "uint256"
        }
      ],
      "stateMutability": "view",
      "type": "function"
    },
    {
      "inputs": [
        {
          "internalType": "contract ISilo",
          "name": "_silo",
          "type": "address"
        }
      ],
      "name": "getFeesAndFeeReceivers",
      "outputs": [
        {
          "internalType": "address",
          "name": "daoFeeReceiver",
          "type": "address"
        },
        {
          "internalType": "address",
          "name": "deployerFeeReceiver",
          "type": "address"
        },
        {
          "internalType": "uint256",
          "name": "daoFee",
          "type": "uint256"
        },
        {
          "internalType": "uint256",
          "name": "deployerFee",
          "type": "uint256"
        }
      ],
      "stateMutability": "view",
      "type": "function"
    },
    {
      "inputs": [
        {
          "internalType": "contract ISilo",
          "name": "_silo",
          "type": "address"
        }
      ],
      "name": "getInterestRateModel",
      "outputs": [
        {
          "internalType": "address",
          "name": "irm",
          "type": "address"
        }
      ],
      "stateMutability": "view",
      "type": "function"
    },
    {
      "inputs": [
        {
          "internalType": "contract ISilo",
          "name": "_silo",
          "type": "address"
        }
      ],
      "name": "getLt",
      "outputs": [
        {
          "internalType": "uint256",
          "name": "lt",
          "type": "uint256"
        }
      ],
      "stateMutability": "view",
      "type": "function"
    },
    {
      "inputs": [
        {
          "internalType": "contract ISilo",
          "name": "_silo",
          "type": "address"
        },
        {
          "internalType": "address",
          "name": "_borrower",
          "type": "address"
        }
      ],
      "name": "getLtv",
      "outputs": [
        {
          "internalType": "uint256",
          "name": "ltv",
          "type": "uint256"
        }
      ],
      "stateMutability": "view",
      "type": "function"
    },
    {
      "inputs": [
        {
          "internalType": "contract ISilo",
          "name": "_silo",
          "type": "address"
        }
      ],
      "name": "getMaxLtv",
      "outputs": [
        {
          "internalType": "uint256",
          "name": "maxLtv",
          "type": "uint256"
        }
      ],
      "stateMutability": "view",
      "type": "function"
    },
    {
      "inputs": [
        {
          "internalType": "contract ISilo",
          "name": "_silo",
          "type": "address"
        }
      ],
      "name": "getModel",
      "outputs": [
        {
          "internalType": "contract IInterestRateModel",
          "name": "irm",
          "type": "address"
        }
      ],
      "stateMutability": "view",
      "type": "function"
    },
    {
      "inputs": [
        {
          "internalType": "contract ISilo",
          "name": "_silo",
          "type": "address"
        }
      ],
      "name": "getRawLiquidity",
      "outputs": [
        {
          "internalType": "uint256",
          "name": "liquidity",
          "type": "uint256"
        }
      ],
      "stateMutability": "view",
      "type": "function"
    },
    {
      "inputs": [
        {
          "internalType": "address",
          "name": "_siloIncentivesController",
          "type": "address"
        }
      ],
      "name": "getSiloIncentivesControllerProgramsNames",
      "outputs": [
        {
          "internalType": "string[]",
          "name": "programsNames",
          "type": "string[]"
        }
      ],
      "stateMutability": "view",
      "type": "function"
    },
    {
      "inputs": [
        {
          "internalType": "contract ISilo",
          "name": "_silo",
          "type": "address"
        },
        {
          "internalType": "address",
          "name": "_borrower",
          "type": "address"
        }
      ],
      "name": "getUserLT",
      "outputs": [
        {
          "internalType": "uint256",
          "name": "userLT",
          "type": "uint256"
        }
      ],
      "stateMutability": "view",
      "type": "function"
    },
    {
      "inputs": [
        {
          "internalType": "contract ISilo",
          "name": "_silo",
          "type": "address"
        },
        {
          "internalType": "address",
          "name": "_borrower",
          "type": "address"
        }
      ],
      "name": "getUserLTV",
      "outputs": [
        {
          "internalType": "uint256",
          "name": "userLTV",
          "type": "uint256"
        }
      ],
      "stateMutability": "view",
      "type": "function"
    },
    {
      "inputs": [
        {
          "components": [
            {
              "internalType": "contract ISilo",
              "name": "silo",
              "type": "address"
            },
            {
              "internalType": "address",
              "name": "wallet",
              "type": "address"
            }
          ],
          "internalType": "struct ISiloLens.Borrower[]",
          "name": "_borrowers",
          "type": "tuple[]"
        }
      ],
      "name": "getUsersHealth",
      "outputs": [
        {
          "components": [
            {
              "internalType": "uint256",
              "name": "lt",
              "type": "uint256"
            },
            {
              "internalType": "uint256",
              "name": "ltv",
              "type": "uint256"
            }
          ],
          "internalType": "struct ISiloLens.BorrowerHealth[]",
          "name": "healths",
          "type": "tuple[]"
        }
      ],
      "stateMutability": "view",
      "type": "function"
    },
    {
      "inputs": [
        {
          "components": [
            {
              "internalType": "contract ISilo",
              "name": "silo",
              "type": "address"
            },
            {
              "internalType": "address",
              "name": "wallet",
              "type": "address"
            }
          ],
          "internalType": "struct ISiloLens.Borrower[]",
          "name": "_borrowers",
          "type": "tuple[]"
        }
      ],
      "name": "getUsersLT",
      "outputs": [
        {
          "internalType": "uint256[]",
          "name": "usersLTs",
          "type": "uint256[]"
        }
      ],
      "stateMutability": "view",
      "type": "function"
    },
    {
      "inputs": [
        {
          "internalType": "contract ISilo",
          "name": "_silo",
          "type": "address"
        }
      ],
      "name": "getUtilization",
      "outputs": [
        {
          "internalType": "uint256",
          "name": "",
          "type": "uint256"
        }
      ],
      "stateMutability": "view",
      "type": "function"
    },
    {
      "inputs": [
        {
          "internalType": "contract ISiloConfig",
          "name": "_siloConfig",
          "type": "address"
        },
        {
          "internalType": "address",
          "name": "_borrower",
          "type": "address"
        }
      ],
      "name": "hasPosition",
      "outputs": [
        {
          "internalType": "bool",
          "name": "has",
          "type": "bool"
        }
      ],
      "stateMutability": "view",
      "type": "function"
    },
    {
      "inputs": [
        {
          "internalType": "contract ISiloConfig",
          "name": "_siloConfig",
          "type": "address"
        },
        {
          "internalType": "address",
          "name": "_borrower",
          "type": "address"
        }
      ],
      "name": "inDebt",
      "outputs": [
        {
          "internalType": "bool",
          "name": "hasDebt",
          "type": "bool"
        }
      ],
      "stateMutability": "view",
      "type": "function"
    },
    {
      "inputs": [
        {
          "internalType": "contract ISilo",
          "name": "_silo",
          "type": "address"
        },
        {
          "internalType": "address",
          "name": "_borrower",
          "type": "address"
        }
      ],
      "name": "isSolvent",
      "outputs": [
        {
          "internalType": "bool",
          "name": "",
          "type": "bool"
        }
      ],
      "stateMutability": "view",
      "type": "function"
    },
    {
      "inputs": [
        {
          "internalType": "contract ISilo",
          "name": "_silo",
          "type": "address"
        }
      ],
      "name": "liquidity",
      "outputs": [
        {
          "internalType": "uint256",
          "name": "",
          "type": "uint256"
        }
      ],
      "stateMutability": "view",
      "type": "function"
    },
    {
      "inputs": [
        {
          "internalType": "contract ISilo",
          "name": "_silo",
          "type": "address"
        },
        {
          "internalType": "contract IPartialLiquidation",
          "name": "_hook",
          "type": "address"
        },
        {
          "internalType": "address",
          "name": "_borrower",
          "type": "address"
        }
      ],
      "name": "maxLiquidation",
      "outputs": [
        {
          "internalType": "uint256",
          "name": "collateralToLiquidate",
          "type": "uint256"
        },
        {
          "internalType": "uint256",
          "name": "debtToRepay",
          "type": "uint256"
        },
        {
          "internalType": "bool",
          "name": "sTokenRequired",
          "type": "bool"
        },
        {
          "internalType": "bool",
          "name": "fullLiquidation",
          "type": "bool"
        }
      ],
      "stateMutability": "view",
      "type": "function"
    },
    {
      "inputs": [
        {
          "internalType": "contract ISilo",
          "name": "_silo",
          "type": "address"
        }
      ],
      "name": "protocolFees",
      "outputs": [
        {
          "internalType": "uint256",
          "name": "daoAndDeployerRevenue",
          "type": "uint256"
        }
      ],
      "stateMutability": "view",
      "type": "function"
    },
    {
      "inputs": [
        {
          "internalType": "contract ISilo",
          "name": "_silo",
          "type": "address"
        }
      ],
      "name": "totalBorrowAmount",
      "outputs": [
        {
          "internalType": "uint256",
          "name": "",
          "type": "uint256"
        }
      ],
      "stateMutability": "view",
      "type": "function"
    },
    {
      "inputs": [
        {
          "internalType": "contract ISilo",
          "name": "_silo",
          "type": "address"
        }
      ],
      "name": "totalBorrowAmountWithInterest",
      "outputs": [
        {
          "internalType": "uint256",
          "name": "amount",
          "type": "uint256"
        }
      ],
      "stateMutability": "view",
      "type": "function"
    },
    {
      "inputs": [
        {
          "internalType": "contract ISilo",
          "name": "_silo",
          "type": "address"
        }
      ],
      "name": "totalBorrowShare",
      "outputs": [
        {
          "internalType": "uint256",
          "name": "",
          "type": "uint256"
        }
      ],
      "stateMutability": "view",
      "type": "function"
    },
    {
      "inputs": [
        {
          "internalType": "contract ISilo",
          "name": "_silo",
          "type": "address"
        }
      ],
      "name": "totalDeposits",
      "outputs": [
        {
          "internalType": "uint256",
          "name": "totalDeposits",
          "type": "uint256"
        }
      ],
      "stateMutability": "view",
      "type": "function"
    },
    {
      "inputs": [
        {
          "internalType": "contract ISilo",
          "name": "_silo",
          "type": "address"
        }
      ],
      "name": "totalDepositsWithInterest",
      "outputs": [
        {
          "internalType": "uint256",
          "name": "amount",
          "type": "uint256"
        }
      ],
      "stateMutability": "view",
      "type": "function"
    },
    {
      "inputs": [],
      "name": "InvalidAsset",
      "type": "error"
    },
    {
      "inputs": [
        {
          "internalType": "uint256",
          "name": "value",
          "type": "uint256"
        },
        {
          "internalType": "uint256",
          "name": "length",
          "type": "uint256"
        }
      ],
      "name": "StringsInsufficientHexLength",
      "type": "error"
    }
  ],
  "bytecode": "0x6080604052348015600e575f5ffd5b50613bd38061001c5f395ff3fe608060405234801561000f575f5ffd5b5060043610610207575f3560e01c8063868682cb1161011f578063d9bd0ea2116100a9578063e940325611610079578063e9403256146104f4578063f2a07bc914610507578063f45b1b3a1461051a578063f5125d3f146102f1578063fdce86431461052d575f5ffd5b8063d9bd0ea2146102de578063dcf844a7146104bb578063dd718ab4146104ce578063e2187218146104e1575f5ffd5b80639bbafd53116100ef5780639bbafd5314610427578063aab2353a1461043a578063b1696c6e14610475578063b1ff4d6c14610495578063b8c876b1146104a8575f5ffd5b8063868682cb146103ce5780638705c359146103e15780638ec109da146103f45780639848b19c14610407575f5ffd5b806343afdad2116101a0578063590630f011610170578063590630f0146103625780635d1e7c2f14610375578063647e0c20146103955780636c15c9ba146103a857806374cd15f3146103bb575f5ffd5b806343afdad2146102f1578063480defa9146103045780634f6a57b61461032457806354a0577114610337575f5ffd5b806324bc00b0116101db57806324bc00b01461029557806336e49658146102b857806337febff4146102cb57806338bad5e5146102de575f5ffd5b8062e0f7a01461020b57806306b39a77146102315780631fe0226914610244578063249a649614610257575b5f5ffd5b61021e61021936600461312d565b610540565b6040519081526020015b60405180910390f35b61021e61023f36600461312d565b610550565b61021e610252366004613148565b6105b1565b61026a61026536600461312d565b6105c3565b604080516001600160a01b039586168152949093166020850152918301526060820152608001610228565b6102a86102a3366004613148565b6105e0565b6040519015158152602001610228565b61021e6102c636600461312d565b6105eb565b61021e6102d936600461312d565b610635565b61021e6102ec366004613148565b61063f565b61021e6102ff366004613148565b6106ab565b61031761031236600461317f565b6106b6565b60405161022891906131ee565b61021e61033236600461312d565b610792565b61034a61034536600461312d565b61079c565b6040516001600160a01b039091168152602001610228565b6102a8610370366004613148565b6107a6565b610388610383366004613245565b610811565b60405161022891906132a4565b61021e6103a336600461312d565b6108f1565b61021e6103b6366004613148565b6108fb565b61021e6103c936600461312d565b610906565b61021e6103dc366004613148565b610943565b6102a86103ef366004613148565b6109a3565b61021e610402366004613148565b6109ae565b61041a61041536600461317f565b6109c1565b60405161022891906132f0565b61021e61043536600461312d565b610a73565b61044d610448366004613327565b610aa1565b6040805194855260208501939093529015159183019190915215156060820152608001610228565b61048861048336600461312d565b610b94565b604051610228919061336f565b61021e6104a336600461312d565b610d06565b61021e6104b636600461312d565b610d10565b61021e6104c936600461312d565b610d4d565b61021e6104dc366004613148565b610dc3565b61034a6104ef36600461312d565b610dd6565b61021e61050236600461312d565b610ead565b61021e61051536600461312d565b610edc565b61021e610528366004613148565b610ee6565b61021e61053b36600461312d565b610f77565b5f61054a8261100d565b92915050565b5f816001600160a01b03166301e1d1146040518163ffffffff1660e01b8152600401602060405180830381865afa15801561058d573d5f5f3e3d5ffd5b505050506040513d601f19601f8201168201806040525081019061054a91906133f3565b5f6105bc838361112d565b9392505050565b5f5f5f5f6105d085611224565b5092989197509550909350915050565b5f6105bc83836113d8565b60405163b6d821c760e01b81525f906001600160a01b0383169063b6d821c79061061a9060029060040161341e565b602060405180830381865afa15801561058d573d5f5f3e3d5ffd5b5f61054a82611827565b604051635f30114960e01b81526001600160a01b0382811660048301525f9190841690635f301149906024015b602060405180830381865afa158015610687573d5f5f3e3d5ffd5b505050506040513d601f19601f820116820180604052508101906105bc91906133f3565b5f6105bc83836118fe565b6060816001600160401b038111156106d0576106d0613438565b60405190808252806020026020018201604052801561071457816020015b604080518082019091525f80825260208201528152602001906001900390816106ee5790505b5090505f5b8281101561078b575f8484838181106107345761073461344c565b90506040020180360381019061074a91906134b9565b90505f83838151811061075f5761075f61344c565b6020026020010151905061077a825f01518360200151611a79565b825260209091015250600101610719565b5092915050565b5f61054a82611bbc565b5f61054a82610dd6565b6040516338b51ce160e01b81526001600160a01b0382811660048301525f91908416906338b51ce190602401602060405180830381865afa1580156107ed573d5f5f3e3d5ffd5b505050506040513d601f19601f820116820180604052508101906105bc919061352b565b6060816001600160401b0381111561082b5761082b613438565b60405190808252806020026020018201604052801561086f57816020015b604080518082019091525f80825260208201528152602001906001900390816108495790505b5090505f5b8281101561078b575f84848381811061088f5761088f61344c565b90506020020160208101906108a4919061312d565b905060405180604001604052806108ba83611bbc565b81526020016108c88361100d565b8152508383815181106108dd576108dd61344c565b602090810291909101015250600101610874565b5f61054a82611db7565b5f6105bc8383611e8e565b5f816001600160a01b031663ecd658b46040518163ffffffff1660e01b8152600401602060405180830381865afa15801561058d573d5f5f3e3d5ffd5b60405163c99ee7b760e01b81526001600160a01b038084166004830152821660248201525f9073__$89d37a64e3ccc21ed0741d2ae8390c2e12$__9063c99ee7b790604401602060405180830381865af4158015610687573d5f5f3e3d5ffd5b5f6105bc838361213c565b5f6109b9838361223c565b949350505050565b6060816001600160401b038111156109db576109db613438565b604051908082528060200260200182016040528015610a04578160200160208202803683370190505b5090505f5b8281101561078b575f848483818110610a2457610a2461344c565b905060400201803603810190610a3a91906134b9565b9050610a4d815f0151826020015161112d565b838381518110610a5f57610a5f61344c565b602090810291909101015250600101610a09565b60405163b6d821c760e01b81525f906001600160a01b0383169063b6d821c79061061a90849060040161341e565b6040516317a05b0960e31b81526001600160a01b0382811660048301525f9182918291829187169063bd02d84890602401606060405180830381865afa158015610aed573d5f5f3e3d5ffd5b505050506040513d601f19601f82011682018060405250810190610b119190613544565b604051635f30114960e01b81526001600160a01b03898116600483015293975091955093505f91891690635f30114990602401602060405180830381865afa158015610b5f573d5f5f3e3d5ffd5b505050506040513d601f19601f82011682018060405250810190610b8391906133f3565b905083811491505093509350935093565b60605f8290505f816001600160a01b031663fb71aec56040518163ffffffff1660e01b81526004015f60405180830381865afa158015610bd6573d5f5f3e3d5ffd5b505050506040513d5f823e601f3d908101601f19168201604052610bfd9190810190613577565b905080516001600160401b03811115610c1857610c18613438565b604051908082528060200260200182016040528015610c4b57816020015b6060815260200190600190039081610c365790505b5092505f5b8151811015610cfe575f828281518110610c6c57610c6c61344c565b602002602001015190508051601403610cbd575f6060610c8b8361369b565b901c9050610c9a816014612379565b868481518110610cac57610cac61344c565b602002602001018190525050610cf5565b828281518110610ccf57610ccf61344c565b6020026020010151858381518110610ce957610ce961344c565b60200260200101819052505b50600101610c50565b505050919050565b5f61054a826124ee565b5f816001600160a01b0316630910a5106040518163ffffffff1660e01b8152600401602060405180830381865afa15801561058d573d5f5f3e3d5ffd5b5f816001600160a01b0316639d35abaf6040518163ffffffff1660e01b815260040160a060405180830381865afa158015610d8a573d5f5f3e3d5ffd5b505050506040513d601f19601f82011682018060405250810190610dae91906136d4565b50506001600160c01b03909216949350505050565b5f610dce838361223c565b509392505050565b5f816001600160a01b03166379502c556040518163ffffffff1660e01b8152600401602060405180830381865afa158015610e13573d5f5f3e3d5ffd5b505050506040513d601f19601f82011682018060405250810190610e37919061372b565b60405163e48a5f7b60e01b81526001600160a01b038481166004830152919091169063e48a5f7b9060240161022060405180830381865afa158015610e7e573d5f5f3e3d5ffd5b505050506040513d601f19601f82011682018060405250810190610ea29190613869565b610120015192915050565b60405163b6d821c760e01b81525f906001600160a01b0383169063b6d821c79061061a9060019060040161341e565b5f61054a826125fa565b6040516370a0823160e01b81526001600160a01b0382811660048301525f9190841690634cdad5069082906370a0823190602401602060405180830381865afa158015610f35573d5f5f3e3d5ffd5b505050506040513d601f19601f82011682018060405250810190610f5991906133f3565b6040518263ffffffff1660e01b815260040161066c91815260200190565b5f5f826001600160a01b0316639ef2fda06040518163ffffffff1660e01b8152600401606060405180830381865afa158015610fb5573d5f5f3e3d5ffd5b505050506040513d601f19601f82011682018060405250810190610fd99190613884565b8051909150156110075780516020820151610ffd90670de0b6b3a7640000906138f6565b6105bc9190613921565b50919050565b5f5f826001600160a01b03166379502c556040518163ffffffff1660e01b8152600401602060405180830381865afa15801561104b573d5f5f3e3d5ffd5b505050506040513d601f19601f8201168201806040525081019061106f919061372b565b60405163e48a5f7b60e01b81526001600160a01b038581166004830152919091169063e48a5f7b9060240161022060405180830381865afa1580156110b6573d5f5f3e3d5ffd5b505050506040513d601f19601f820116820180604052508101906110da9190613869565b61012001516040516364efe17760e01b81526001600160a01b038581166004830152426024830152919250908216906364efe17790604401602060405180830381865afa158015610687573d5f5f3e3d5ffd5b5f5f5f846001600160a01b03166379502c556040518163ffffffff1660e01b8152600401602060405180830381865afa15801561116c573d5f5f3e3d5ffd5b505050506040513d601f19601f82011682018060405250810190611190919061372b565b6040516394c0527d60e01b81526001600160a01b03868116600483015291909116906394c0527d9060240161044060405180830381865afa1580156111d7573d5f5f3e3d5ffd5b505050506040513d601f19601f820116820180604052508101906111fb9190613934565b604081015191935091506001600160a01b03161561121c5781610160015192505b505092915050565b5f5f5f5f5f856001600160a01b03166379502c556040518163ffffffff1660e01b8152600401602060405180830381865afa158015611265573d5f5f3e3d5ffd5b505050506040513d601f19601f82011682018060405250810190611289919061372b565b604051630509af0560e51b81526001600160a01b038881166004830152919091169063a135e0a090602401608060405180830381865afa1580156112cf573d5f5f3e3d5ffd5b505050506040513d601f19601f820116820180604052508101906112f39190613969565b9050809350819450829550505050856001600160a01b031663c45a01556040518163ffffffff1660e01b8152600401602060405180830381865afa15801561133d573d5f5f3e3d5ffd5b505050506040513d601f19601f82011682018060405250810190611361919061372b565b604051630c0d053960e11b81526001600160a01b038881166004830152919091169063181a0a72906024016040805180830381865afa1580156113a6573d5f5f3e3d5ffd5b505050506040513d601f19601f820116820180604052508101906113ca91906139a9565b909790965092945090925090565b5f5f5f846001600160a01b031663aecc90cb6040518163ffffffff1660e01b81526004016040805180830381865afa158015611416573d5f5f3e3d5ffd5b505050506040513d601f19601f8201168201806040525081019061143a91906139a9565b60405163e48a5f7b60e01b81526001600160a01b0380841660048301529294509092505f9187169063e48a5f7b9060240161022060405180830381865afa158015611487573d5f5f3e3d5ffd5b505050506040513d601f19601f820116820180604052508101906114ab9190613869565b60405163e48a5f7b60e01b81526001600160a01b0384811660048301529192505f9188169063e48a5f7b9060240161022060405180830381865afa1580156114f5573d5f5f3e3d5ffd5b505050506040513d601f19601f820116820180604052508101906115199190613869565b60a08301516040516370a0823160e01b81526001600160a01b0389811660048301529293509116906370a0823190602401602060405180830381865afa158015611565573d5f5f3e3d5ffd5b505050506040513d601f19601f8201168201806040525081019061158991906133f3565b1561159b57600194505050505061054a565b60808201516040516370a0823160e01b81526001600160a01b038881166004830152909116906370a0823190602401602060405180830381865afa1580156115e5573d5f5f3e3d5ffd5b505050506040513d601f19601f8201168201806040525081019061160991906133f3565b1561161b57600194505050505061054a565b60a08101516040516370a0823160e01b81526001600160a01b038881166004830152909116906370a0823190602401602060405180830381865afa158015611665573d5f5f3e3d5ffd5b505050506040513d601f19601f8201168201806040525081019061168991906133f3565b1561169b57600194505050505061054a565b60808101516040516370a0823160e01b81526001600160a01b038881166004830152909116906370a0823190602401602060405180830381865afa1580156116e5573d5f5f3e3d5ffd5b505050506040513d601f19601f8201168201806040525081019061170991906133f3565b1561171b57600194505050505061054a565b60c08201516040516370a0823160e01b81526001600160a01b038881166004830152909116906370a0823190602401602060405180830381865afa158015611765573d5f5f3e3d5ffd5b505050506040513d601f19601f8201168201806040525081019061178991906133f3565b1561179b57600194505050505061054a565b60c08101516040516370a0823160e01b81526001600160a01b038881166004830152909116906370a0823190602401602060405180830381865afa1580156117e5573d5f5f3e3d5ffd5b505050506040513d601f19601f8201168201806040525081019061180991906133f3565b1561181b57600194505050505061054a565b505f9695505050505050565b5f816001600160a01b03166379502c556040518163ffffffff1660e01b8152600401602060405180830381865afa158015611864573d5f5f3e3d5ffd5b505050506040513d601f19601f82011682018060405250810190611888919061372b565b60405163e48a5f7b60e01b81526001600160a01b038481166004830152919091169063e48a5f7b9060240161022060405180830381865afa1580156118cf573d5f5f3e3d5ffd5b505050506040513d601f19601f820116820180604052508101906118f39190613869565b610160015192915050565b5f5f5f846001600160a01b03166379502c556040518163ffffffff1660e01b8152600401602060405180830381865afa15801561193d573d5f5f3e3d5ffd5b505050506040513d601f19601f82011682018060405250810190611961919061372b565b6040516394c0527d60e01b81526001600160a01b03868116600483015291909116906394c0527d9060240161044060405180830381865afa1580156119a8573d5f5f3e3d5ffd5b505050506040513d601f19601f820116820180604052508101906119cc9190613934565b604081015191935091506001600160a01b03161561121c57611a708282865f60018660c001516001600160a01b03166370a082318b6040518263ffffffff1660e01b8152600401611a2c91906001600160a01b0391909116815260200190565b602060405180830381865afa158015611a47573d5f5f3e3d5ffd5b505050506040513d601f19601f82011682018060405250810190611a6b91906133f3565b6126db565b95945050505050565b5f5f5f5f856001600160a01b03166379502c556040518163ffffffff1660e01b8152600401602060405180830381865afa158015611ab9573d5f5f3e3d5ffd5b505050506040513d601f19601f82011682018060405250810190611add919061372b565b6040516394c0527d60e01b81526001600160a01b03878116600483015291909116906394c0527d9060240161044060405180830381865afa158015611b24573d5f5f3e3d5ffd5b505050506040513d601f19601f82011682018060405250810190611b489190613934565b604081015191935091506001600160a01b031615611bb357611ba88282875f60018660c001516001600160a01b03166370a082318c6040518263ffffffff1660e01b8152600401611a2c91906001600160a01b0391909116815260200190565b935081610160015192505b50509250929050565b5f5f826001600160a01b031663a1ff9bee6040518163ffffffff1660e01b8152600401602060405180830381865afa158015611bfa573d5f5f3e3d5ffd5b505050506040513d601f19601f82011682018060405250810190611c1e91906133f3565b9050805f03611c2f57505f92915050565b5f836001600160a01b03166379502c556040518163ffffffff1660e01b8152600401602060405180830381865afa158015611c6c573d5f5f3e3d5ffd5b505050506040513d601f19601f82011682018060405250810190611c90919061372b565b60405163e48a5f7b60e01b81526001600160a01b038681166004830152919091169063e48a5f7b9060240161022060405180830381865afa158015611cd7573d5f5f3e3d5ffd5b505050506040513d601f19601f82011682018060405250810190611cfb9190613869565b905081846001600160a01b031663ecd658b46040518163ffffffff1660e01b8152600401602060405180830381865afa158015611d3a573d5f5f3e3d5ffd5b505050506040513d601f19601f82011682018060405250810190611d5e91906133f3565b611d678661100d565b611d7191906138f6565b611d7b9190613921565b60208201518251919450670de0b6b3a764000091611d9990836139d6565b611da391906139d6565b611dad90856138f6565b6109b99190613921565b5f816001600160a01b03166379502c556040518163ffffffff1660e01b8152600401602060405180830381865afa158015611df4573d5f5f3e3d5ffd5b505050506040513d601f19601f82011682018060405250810190611e18919061372b565b60405163e48a5f7b60e01b81526001600160a01b038481166004830152919091169063e48a5f7b9060240161022060405180830381865afa158015611e5f573d5f5f3e3d5ffd5b505050506040513d601f19601f82011682018060405250810190611e839190613869565b610140015192915050565b5f5f5f846001600160a01b03166379502c556040518163ffffffff1660e01b8152600401602060405180830381865afa158015611ecd573d5f5f3e3d5ffd5b505050506040513d601f19601f82011682018060405250810190611ef1919061372b565b604051630483b24f60e41b81526001600160a01b038781166004830152919091169063483b24f090602401606060405180830381865afa158015611f37573d5f5f3e3d5ffd5b505050506040513d601f19601f82011682018060405250810190611f5b91906139e9565b506040516370a0823160e01b81526001600160a01b0387811660048301529294509092505f918416906370a0823190602401602060405180830381865afa158015611fa8573d5f5f3e3d5ffd5b505050506040513d601f19601f82011682018060405250810190611fcc91906133f3565b6040516370a0823160e01b81526001600160a01b0387811660048301529192505f918416906370a0823190602401602060405180830381865afa158015612015573d5f5f3e3d5ffd5b505050506040513d601f19601f8201168201806040525081019061203991906133f3565b905081156120b15760405163a7d6e44b60e01b81526001600160a01b0388169063a7d6e44b9061206f9085905f90600401613a28565b602060405180830381865afa15801561208a573d5f5f3e3d5ffd5b505050506040513d601f19601f820116820180604052508101906120ae91906133f3565b94505b80156121325760405163a7d6e44b60e01b81526001600160a01b0388169063a7d6e44b906120e6908490600190600401613a28565b602060405180830381865afa158015612101573d5f5f3e3d5ffd5b505050506040513d601f19601f8201168201806040525081019061212591906133f3565b61212f9086613a4c565b94505b5050505092915050565b6040516394c0527d60e01b81526001600160a01b0382811660048301525f9182918516906394c0527d9060240161044060405180830381865afa158015612185573d5f5f3e3d5ffd5b505050506040513d601f19601f820116820180604052508101906121a99190613934565b60c08101519092506001600160a01b031615801591506109b9575060c08101516040516370a0823160e01b81526001600160a01b038581166004830152909116906370a0823190602401602060405180830381865afa15801561220e573d5f5f3e3d5ffd5b505050506040513d601f19601f8201168201806040525081019061223291906133f3565b1515949350505050565b6040516394c0527d60e01b81526001600160a01b0382811660048301525f918291829182918716906394c0527d9060240161044060405180830381865afa158015612289573d5f5f3e3d5ffd5b505050506040513d601f19601f820116820180604052508101906122ad9190613934565b606082015191935091506001600160a01b03166122d1575f5f935093505050612372565b60c08101516040516370a0823160e01b81526001600160a01b0380881660048301525f9261235392869286928b92879260019216906370a0823190602401602060405180830381865afa15801561232a573d5f5f3e3d5ffd5b505050506040513d601f19601f8201168201806040525081019061234e91906133f3565b612732565b905061236881846060015184606001516129af565b5090955093505050505b9250929050565b6060825f6123888460026138f6565b612393906002613a4c565b6001600160401b038111156123aa576123aa613438565b6040519080825280601f01601f1916602001820160405280156123d4576020820181803683370190505b509050600360fc1b815f815181106123ee576123ee61344c565b60200101906001600160f81b03191690815f1a905350600f60fb1b8160018151811061241c5761241c61344c565b60200101906001600160f81b03191690815f1a9053505f61243e8560026138f6565b612449906001613a4c565b90505b60018111156124c0576f181899199a1a9b1b9c1cb0b131b232b360811b83600f166010811061247d5761247d61344c565b1a60f81b8282815181106124935761249361344c565b60200101906001600160f81b03191690815f1a90535060049290921c916124b981613a5f565b905061244c565b5081156109b95760405163e22e27eb60e01b8152600481018690526024810185905260440160405180910390fd5b5f5f826001600160a01b03166379502c556040518163ffffffff1660e01b8152600401602060405180830381865afa15801561252c573d5f5f3e3d5ffd5b505050506040513d601f19601f82011682018060405250810190612550919061372b565b604051630483b24f60e41b81526001600160a01b038581166004830152919091169063483b24f090602401606060405180830381865afa158015612596573d5f5f3e3d5ffd5b505050506040513d601f19601f820116820180604052508101906125ba91906139e9565b92505050806001600160a01b03166318160ddd6040518163ffffffff1660e01b8152600401602060405180830381865afa158015610687573d5f5f3e3d5ffd5b5f61054a826001600160a01b031663b6d821c760016040518263ffffffff1660e01b815260040161262b919061341e565b602060405180830381865afa158015612646573d5f5f3e3d5ffd5b505050506040513d601f19601f8201168201806040525081019061266a91906133f3565b60405163b6d821c760e01b81526001600160a01b0385169063b6d821c7906126979060029060040161341e565b602060405180830381865afa1580156126b2573d5f5f3e3d5ffd5b505050506040513d601f19601f820116820180604052508101906126d691906133f3565b612a05565b5f815f036126ea57505f612728565b5f6126f9888888888888612732565b905080608001515f0361270f575f915050612728565b61272281896060015189606001516129af565b93505050505b9695505050505050565b6127716040518060a001604052805f6001600160a01b031681526020015f6001600160a01b031681526020015f81526020015f81526020015f81525090565b85606001516001600160a01b031687606001516001600160a01b0316146127db5760018460018111156127a6576127a661340a565b146127ba578660e001518660e001516127c7565b8661010001518661010001515b6001600160a01b0390811660208401521681525b5f5f6127ec8960800151885f612a1d565b80935081925050505f5f8a604001516001600160a01b031663ffbaaf7a6040518163ffffffff1660e01b81526004016040805180830381865afa158015612835573d5f5f3e3d5ffd5b505050506040513d601f19601f820116820180604052508101906128599190613a74565b9150915061286a8382865f5f612b05565b604086015260a08b015161287f908a5f612a1d565b9450925060018760018111156128975761289761340a565b146128a257816128be565b6128be8b604001518c61012001518d5f01518e60200151612b40565b91506128ce8383865f6001612b05565b606086015260c08a01516128e3908a88612a1d565b945092505f60018860018111156128fc576128fc61340a565b14612976578a604001516001600160a01b031663b6d821c760026040518263ffffffff1660e01b8152600401612932919061341e565b602060405180830381865afa15801561294d573d5f5f3e3d5ffd5b505050506040513d601f19601f8201168201806040525081019061297191906133f3565b612989565b6129898b604001518c6101200151612c36565b905061299a84828760016002612b05565b608087015250939a9950505050505050505050565b5f5f5f6129bd868686612d29565b9093509150821580156129ce575081155b156129e057505f9150819050806129fc565b825f036129ef57505f196129fc565b6129f98284612e7f565b90505b93509350939050565b5f828211612a15578183036105bc565b5f9392505050565b5f5f825f03612a975760405163dce5c2db60e01b81526001600160a01b03858116600483015286169063dce5c2db906024016040805180830381865afa158015612a69573d5f5f3e3d5ffd5b505050506040513d601f19601f82011682018060405250810190612a8d9190613a74565b9092509050612afd565b829150846001600160a01b03166318160ddd6040518163ffffffff1660e01b8152600401602060405180830381865afa158015612ad6573d5f5f3e3d5ffd5b505050506040513d601f19601f82011682018060405250810190612afa91906133f3565b90505b935093915050565b5f5f5f612b13878786612e95565b91509150815f03612b28578792505050611a70565b612b3488828488612ef0565b98975050505050505050565b6040516367efe7fd60e11b81526001600160a01b0385811660048301524260248301525f91829186169063cfdfcffa90604401602060405180830381865afa925050508015612bac575060408051601f3d908101601f19168201909252612ba9918101906133f3565b60015b15612bb45790505b5f5f876001600160a01b03166339c5c5056040518163ffffffff1660e01b81526004016040805180830381865afa158015612bf1573d5f5f3e3d5ffd5b505050506040513d601f19601f82011682018060405250810190612c159190613a74565b91509150612c268282858989612f32565b50919a9950505050505050505050565b6040516367efe7fd60e11b81526001600160a01b0383811660048301524260248301525f91829184169063cfdfcffa90604401602060405180830381865afa925050508015612ca2575060408051601f3d908101601f19168201909252612c9f918101906133f3565b60015b15612caa5790505b60405163b6d821c760e01b8152612d20906001600160a01b0386169063b6d821c790612cdb9060029060040161341e565b602060405180830381865afa158015612cf6573d5f5f3e3d5ffd5b505050506040513d601f19601f82011682018060405250810190612d1a91906133f3565b82612f8c565b50949350505050565b5f5f5f85606001518660400151612d409190613a4c565b90508015612dd25785516001600160a01b0316612d5d5780612dcf565b85516040516313b0be3360e01b8152600481018390526001600160a01b038781166024830152909116906313b0be3390604401602060405180830381865afa158015612dab573d5f5f3e3d5ffd5b505050506040513d601f19601f82011682018060405250810190612dcf91906133f3565b92505b608086015115612e765760208601516001600160a01b0316612df8578560800151612e73565b602086015160808701516040516313b0be3360e01b815260048101919091526001600160a01b038681166024830152909116906313b0be3390604401602060405180830381865afa158015612e4f573d5f5f3e3d5ffd5b505050506040513d601f19601f82011682018060405250810190612e7391906133f3565b91505b50935093915050565b5f6105bc83670de0b6b3a7640000846001612ef0565b5f5f835f03612ea2575f94505b6002836002811115612eb657612eb661340a565b14612ee157612ec76003600a613b71565b612ed19085613a4c565b612edc866001613a4c565b612ee4565b83855b90969095509350505050565b5f612f1d612efd83612fd4565b8015612f1857505f8480612f1357612f1361390d565b868809115b151590565b612f28868686613000565b611a709190613a4c565b5f5f5f5f612f408888612f8c565b9093509050858501612f5b8282670de0b6b3a76400006130bd565b92505f612f6884846139d6565b90508a1981811015612f78578091505b818c01965050505095509550955095915050565b5f80831580612f99575082155b15612fa857508290505f612372565b612fbb8484670de0b6b3a76400006130bd565b9050808401915083821015612372575091925f92509050565b5f6002826003811115612fe957612fe961340a565b612ff39190613b7c565b60ff166001149050919050565b5f838302815f1985870982811083820303915050805f036130345783828161302a5761302a61390d565b04925050506105bc565b80841161305257613052841561304b576011613105565b6012613105565b5f848688095f868103871696879004966002600389028118808a02820302808a02820302808a02820302808a02820302808a02820302808a02909103029181900381900460010186841190950394909402919094039290920491909117919091029150509392505050565b5f835f036130cc57505f6105bc565b50828202828482816130e0576130e061390d565b04146130ed57505f6105bc565b8181816130fc576130fc61390d565b04949350505050565b634e487b715f52806020526024601cfd5b6001600160a01b038116811461312a575f5ffd5b50565b5f6020828403121561313d575f5ffd5b81356105bc81613116565b5f5f60408385031215613159575f5ffd5b823561316481613116565b9150602083013561317481613116565b809150509250929050565b5f5f60208385031215613190575f5ffd5b82356001600160401b038111156131a5575f5ffd5b8301601f810185136131b5575f5ffd5b80356001600160401b038111156131ca575f5ffd5b8560208260061b84010111156131de575f5ffd5b6020919091019590945092505050565b602080825282518282018190525f918401906040840190835b8181101561323a5761322483855180518252602090810151910152565b6020939093019260409290920191600101613207565b509095945050505050565b5f5f60208385031215613256575f5ffd5b82356001600160401b0381111561326b575f5ffd5b8301601f8101851361327b575f5ffd5b80356001600160401b03811115613290575f5ffd5b8560208260051b84010111156131de575f5ffd5b602080825282518282018190525f918401906040840190835b8181101561323a576132da83855180518252602090810151910152565b60209390930192604092909201916001016132bd565b602080825282518282018190525f918401906040840190835b8181101561323a578351835260209384019390920191600101613309565b5f5f5f60608486031215613339575f5ffd5b833561334481613116565b9250602084013561335481613116565b9150604084013561336481613116565b809150509250925092565b5f602082016020835280845180835260408501915060408160051b8601019250602086015f5b828110156133e757603f19878603018452815180518087528060208301602089015e5f602082890101526020601f19601f83011688010196505050602082019150602084019350600181019050613395565b50929695505050505050565b5f60208284031215613403575f5ffd5b5051919050565b634e487b7160e01b5f52602160045260245ffd5b60208101600383106134325761343261340a565b91905290565b634e487b7160e01b5f52604160045260245ffd5b634e487b7160e01b5f52603260045260245ffd5b60405161022081016001600160401b038111828210171561348357613483613438565b60405290565b604051601f8201601f191681016001600160401b03811182821017156134b1576134b1613438565b604052919050565b5f60408284031280156134ca575f5ffd5b50604080519081016001600160401b03811182821017156134ed576134ed613438565b60405282356134fb81613116565b8152602083013561350b81613116565b60208201529392505050565b80518015158114613526575f5ffd5b919050565b5f6020828403121561353b575f5ffd5b6105bc82613517565b5f5f5f60608486031215613556575f5ffd5b83516020850151909350915061356e60408501613517565b90509250925092565b5f60208284031215613587575f5ffd5b81516001600160401b0381111561359c575f5ffd5b8201601f810184136135ac575f5ffd5b80516001600160401b038111156135c5576135c5613438565b8060051b6135d560208201613489565b918252602081840181019290810190878411156135f0575f5ffd5b6020850192505b838310156136905782516001600160401b03811115613614575f5ffd5b8501603f81018913613624575f5ffd5b60208101516001600160401b0381111561364057613640613438565b613653601f8201601f1916602001613489565b8181526040838301018b1015613667575f5ffd5b8160408401602083015e5f602083830101528085525050506020820191506020830192506135f7565b979650505050505050565b80516020808301519190811015611007575f1960209190910360031b1b16919050565b80516001600160401b0381168114613526575f5ffd5b5f5f5f5f5f60a086880312156136e8575f5ffd5b85516001600160c01b03811681146136fe575f5ffd5b945061370c602087016136be565b6040870151606088015160809098015196999198509695945092505050565b5f6020828403121561373b575f5ffd5b81516105bc81613116565b805161352681613116565b5f6102208284031215613762575f5ffd5b61376a613460565b8251815260208084015190820152905061378660408301613746565b604082015261379760608301613746565b60608201526137a860808301613746565b60808201526137b960a08301613746565b60a08201526137ca60c08301613746565b60c08201526137db60e08301613746565b60e08201526137ed6101008301613746565b6101008201526138006101208301613746565b6101208201526101408281015190820152610160808301519082015261018080830151908201526101a080830151908201526101c0808301519082015261384a6101e08301613746565b6101e082015261385d6102008301613517565b61020082015292915050565b5f610220828403121561387a575f5ffd5b6105bc8383613751565b5f6060828403128015613895575f5ffd5b50604051606081016001600160401b03811182821017156138b8576138b8613438565b604090815283518252602080850151908301526138d69084016136be565b60408201529392505050565b634e487b7160e01b5f52601160045260245ffd5b808202811582820484141761054a5761054a6138e2565b634e487b7160e01b5f52601260045260245ffd5b5f8261392f5761392f61390d565b500490565b5f5f6104408385031215613946575f5ffd5b6139508484613751565b9150613960846102208501613751565b90509250929050565b5f5f5f5f6080858703121561397c575f5ffd5b8451602086015160408701516060880151929650909450925061399e81613116565b939692955090935050565b5f5f604083850312156139ba575f5ffd5b82516139c581613116565b602084015190925061317481613116565b8181038181111561054a5761054a6138e2565b5f5f5f606084860312156139fb575f5ffd5b8351613a0681613116565b6020850151909350613a1781613116565b604085015190925061336481613116565b8281526040810160028310613a3f57613a3f61340a565b8260208301529392505050565b8082018082111561054a5761054a6138e2565b5f81613a6d57613a6d6138e2565b505f190190565b5f5f60408385031215613a85575f5ffd5b505080516020909101519092909150565b6001815b6001841115612afd57808504811115613ab557613ab56138e2565b6001841615613ac357908102905b60019390931c928002613a9a565b5f82613adf5750600161054a565b81613aeb57505f61054a565b8160018114613b015760028114613b0b57613b27565b600191505061054a565b60ff841115613b1c57613b1c6138e2565b50506001821b61054a565b5060208310610133831016604e8410600b8410161715613b4a575081810a61054a565b613b565f198484613a96565b805f1904821115613b6957613b696138e2565b029392505050565b5f6105bc8383613ad1565b5f60ff831680613b8e57613b8e61390d565b8060ff8416069150509291505056fea26469706673582212208eb32ea363620a550f96592bf61ef685096dc9efbc3da7d8be3e7ada4770c73e64736f6c634300081c0033",
  "language": "Solidity",
  "compiler": "0.8.28+commit.7893614a"
}