{
  "address": "0x205E95fCCFa7A0684BF7E41A4d11b4BF41E88516",
  "abi": [
    {
      "inputs": [
        {
          "internalType": "contract ISilo",
          "name": "_silo",
          "type": "address"
        },
        {
          "internalType": "address",
          "name": "_borrower",
          "type": "address"
        }
      ],
      "name": "borrowShare",
      "outputs": [
        {
          "internalType": "uint256",
          "name": "",
          "type": "uint256"
        }
      ],
      "stateMutability": "view",
      "type": "function"
    },
    {
      "inputs": [
        {
          "internalType": "contract ISiloConfig",
          "name": "_siloConfig",
          "type": "address"
        },
        {
          "internalType": "address",
          "name": "_borrower",
          "type": "address"
        }
      ],
      "name": "calculateBorrowValue",
      "outputs": [
        {
          "internalType": "uint256",
          "name": "borrowValue",
          "type": "uint256"
        }
      ],
      "stateMutability": "view",
      "type": "function"
    },
    {
      "inputs": [
        {
          "internalType": "contract ISiloConfig",
          "name": "_siloConfig",
          "type": "address"
        },
        {
          "internalType": "address",
          "name": "_borrower",
          "type": "address"
        }
      ],
      "name": "calculateCollateralValue",
      "outputs": [
        {
          "internalType": "uint256",
          "name": "collateralValue",
          "type": "uint256"
        }
      ],
      "stateMutability": "view",
      "type": "function"
    },
    {
      "inputs": [
        {
          "internalType": "contract ISilo",
          "name": "_silo",
          "type": "address"
        },
        {
          "internalType": "address",
          "name": "_borrower",
          "type": "address"
        }
      ],
      "name": "collateralBalanceOfUnderlying",
      "outputs": [
        {
          "internalType": "uint256",
          "name": "borrowerCollateral",
          "type": "uint256"
        }
      ],
      "stateMutability": "view",
      "type": "function"
    },
    {
      "inputs": [
        {
          "internalType": "contract ISilo",
          "name": "_silo",
          "type": "address"
        }
      ],
      "name": "collateralOnlyDeposits",
      "outputs": [
        {
          "internalType": "uint256",
          "name": "",
          "type": "uint256"
        }
      ],
      "stateMutability": "view",
      "type": "function"
    },
    {
      "inputs": [
        {
          "internalType": "contract ISilo",
          "name": "_silo",
          "type": "address"
        },
        {
          "internalType": "address",
          "name": "_borrower",
          "type": "address"
        }
      ],
      "name": "debtBalanceOfUnderlying",
      "outputs": [
        {
          "internalType": "uint256",
          "name": "",
          "type": "uint256"
        }
      ],
      "stateMutability": "view",
      "type": "function"
    },
    {
      "inputs": [
        {
          "internalType": "contract ISilo",
          "name": "_silo",
          "type": "address"
        }
      ],
      "name": "getBorrowAPR",
      "outputs": [
        {
          "internalType": "uint256",
          "name": "borrowAPR",
          "type": "uint256"
        }
      ],
      "stateMutability": "view",
      "type": "function"
    },
    {
      "inputs": [
        {
          "internalType": "contract ISilo",
          "name": "_silo",
          "type": "address"
        },
        {
          "internalType": "address",
          "name": "_borrower",
          "type": "address"
        }
      ],
      "name": "getBorrowAmount",
      "outputs": [
        {
          "internalType": "uint256",
          "name": "maxRepay",
          "type": "uint256"
        }
      ],
      "stateMutability": "view",
      "type": "function"
    },
    {
      "inputs": [
        {
          "internalType": "contract ISilo",
          "name": "_silo",
          "type": "address"
        }
      ],
      "name": "getDepositAPR",
      "outputs": [
        {
          "internalType": "uint256",
          "name": "depositAPR",
          "type": "uint256"
        }
      ],
      "stateMutability": "view",
      "type": "function"
    },
    {
      "inputs": [
        {
          "internalType": "contract ISilo",
          "name": "_silo",
          "type": "address"
        },
        {
          "internalType": "address",
          "name": "_borrower",
          "type": "address"
        }
      ],
      "name": "getDepositAmount",
      "outputs": [
        {
          "internalType": "uint256",
          "name": "borrowerDeposits",
          "type": "uint256"
        }
      ],
      "stateMutability": "view",
      "type": "function"
    },
    {
      "inputs": [
        {
          "internalType": "contract ISilo",
          "name": "_silo",
          "type": "address"
        }
      ],
      "name": "getFeesAndFeeReceivers",
      "outputs": [
        {
          "internalType": "address",
          "name": "daoFeeReceiver",
          "type": "address"
        },
        {
          "internalType": "address",
          "name": "deployerFeeReceiver",
          "type": "address"
        },
        {
          "internalType": "uint256",
          "name": "daoFee",
          "type": "uint256"
        },
        {
          "internalType": "uint256",
          "name": "deployerFee",
          "type": "uint256"
        }
      ],
      "stateMutability": "view",
      "type": "function"
    },
    {
      "inputs": [
        {
          "internalType": "contract ISilo",
          "name": "_silo",
          "type": "address"
        }
      ],
      "name": "getInterestRateModel",
      "outputs": [
        {
          "internalType": "address",
          "name": "irm",
          "type": "address"
        }
      ],
      "stateMutability": "view",
      "type": "function"
    },
    {
      "inputs": [
        {
          "internalType": "contract ISilo",
          "name": "_silo",
          "type": "address"
        }
      ],
      "name": "getLt",
      "outputs": [
        {
          "internalType": "uint256",
          "name": "lt",
          "type": "uint256"
        }
      ],
      "stateMutability": "view",
      "type": "function"
    },
    {
      "inputs": [
        {
          "internalType": "contract ISilo",
          "name": "_silo",
          "type": "address"
        },
        {
          "internalType": "address",
          "name": "_borrower",
          "type": "address"
        }
      ],
      "name": "getLtv",
      "outputs": [
        {
          "internalType": "uint256",
          "name": "ltv",
          "type": "uint256"
        }
      ],
      "stateMutability": "view",
      "type": "function"
    },
    {
      "inputs": [
        {
          "internalType": "contract ISilo",
          "name": "_silo",
          "type": "address"
        }
      ],
      "name": "getMaxLtv",
      "outputs": [
        {
          "internalType": "uint256",
          "name": "maxLtv",
          "type": "uint256"
        }
      ],
      "stateMutability": "view",
      "type": "function"
    },
    {
      "inputs": [
        {
          "internalType": "contract ISilo",
          "name": "_silo",
          "type": "address"
        }
      ],
      "name": "getModel",
      "outputs": [
        {
          "internalType": "contract IInterestRateModel",
          "name": "irm",
          "type": "address"
        }
      ],
      "stateMutability": "view",
      "type": "function"
    },
    {
      "inputs": [
        {
          "internalType": "contract ISilo",
          "name": "_silo",
          "type": "address"
        }
      ],
      "name": "getRawLiquidity",
      "outputs": [
        {
          "internalType": "uint256",
          "name": "liquidity",
          "type": "uint256"
        }
      ],
      "stateMutability": "view",
      "type": "function"
    },
    {
      "inputs": [
        {
          "internalType": "contract ISilo",
          "name": "_silo",
          "type": "address"
        },
        {
          "internalType": "address",
          "name": "_borrower",
          "type": "address"
        }
      ],
      "name": "getUserLT",
      "outputs": [
        {
          "internalType": "uint256",
          "name": "userLT",
          "type": "uint256"
        }
      ],
      "stateMutability": "view",
      "type": "function"
    },
    {
      "inputs": [
        {
          "internalType": "contract ISilo",
          "name": "_silo",
          "type": "address"
        },
        {
          "internalType": "address",
          "name": "_borrower",
          "type": "address"
        }
      ],
      "name": "getUserLTV",
      "outputs": [
        {
          "internalType": "uint256",
          "name": "userLTV",
          "type": "uint256"
        }
      ],
      "stateMutability": "view",
      "type": "function"
    },
    {
      "inputs": [
        {
          "components": [
            {
              "internalType": "contract ISilo",
              "name": "silo",
              "type": "address"
            },
            {
              "internalType": "address",
              "name": "wallet",
              "type": "address"
            }
          ],
          "internalType": "struct ISiloLens.Borrower[]",
          "name": "_borrowers",
          "type": "tuple[]"
        }
      ],
      "name": "getUsersLT",
      "outputs": [
        {
          "internalType": "uint256[]",
          "name": "usersLTs",
          "type": "uint256[]"
        }
      ],
      "stateMutability": "view",
      "type": "function"
    },
    {
      "inputs": [
        {
          "internalType": "contract ISilo",
          "name": "_silo",
          "type": "address"
        }
      ],
      "name": "getUtilization",
      "outputs": [
        {
          "internalType": "uint256",
          "name": "",
          "type": "uint256"
        }
      ],
      "stateMutability": "view",
      "type": "function"
    },
    {
      "inputs": [
        {
          "internalType": "contract ISiloConfig",
          "name": "_siloConfig",
          "type": "address"
        },
        {
          "internalType": "address",
          "name": "_borrower",
          "type": "address"
        }
      ],
      "name": "hasPosition",
      "outputs": [
        {
          "internalType": "bool",
          "name": "has",
          "type": "bool"
        }
      ],
      "stateMutability": "view",
      "type": "function"
    },
    {
      "inputs": [
        {
          "internalType": "contract ISiloConfig",
          "name": "_siloConfig",
          "type": "address"
        },
        {
          "internalType": "address",
          "name": "_borrower",
          "type": "address"
        }
      ],
      "name": "inDebt",
      "outputs": [
        {
          "internalType": "bool",
          "name": "hasDebt",
          "type": "bool"
        }
      ],
      "stateMutability": "view",
      "type": "function"
    },
    {
      "inputs": [
        {
          "internalType": "contract ISilo",
          "name": "_silo",
          "type": "address"
        },
        {
          "internalType": "address",
          "name": "_borrower",
          "type": "address"
        }
      ],
      "name": "isSolvent",
      "outputs": [
        {
          "internalType": "bool",
          "name": "",
          "type": "bool"
        }
      ],
      "stateMutability": "view",
      "type": "function"
    },
    {
      "inputs": [
        {
          "internalType": "contract ISilo",
          "name": "_silo",
          "type": "address"
        }
      ],
      "name": "liquidity",
      "outputs": [
        {
          "internalType": "uint256",
          "name": "",
          "type": "uint256"
        }
      ],
      "stateMutability": "view",
      "type": "function"
    },
    {
      "inputs": [
        {
          "internalType": "contract ISilo",
          "name": "_silo",
          "type": "address"
        },
        {
          "internalType": "contract IPartialLiquidation",
          "name": "_hook",
          "type": "address"
        },
        {
          "internalType": "address",
          "name": "_borrower",
          "type": "address"
        }
      ],
      "name": "maxLiquidation",
      "outputs": [
        {
          "internalType": "uint256",
          "name": "collateralToLiquidate",
          "type": "uint256"
        },
        {
          "internalType": "uint256",
          "name": "debtToRepay",
          "type": "uint256"
        },
        {
          "internalType": "bool",
          "name": "sTokenRequired",
          "type": "bool"
        },
        {
          "internalType": "bool",
          "name": "fullLiquidation",
          "type": "bool"
        }
      ],
      "stateMutability": "view",
      "type": "function"
    },
    {
      "inputs": [
        {
          "internalType": "contract ISilo",
          "name": "_silo",
          "type": "address"
        }
      ],
      "name": "protocolFees",
      "outputs": [
        {
          "internalType": "uint256",
          "name": "daoAndDeployerRevenue",
          "type": "uint256"
        }
      ],
      "stateMutability": "view",
      "type": "function"
    },
    {
      "inputs": [
        {
          "internalType": "contract ISilo",
          "name": "_silo",
          "type": "address"
        }
      ],
      "name": "totalBorrowAmount",
      "outputs": [
        {
          "internalType": "uint256",
          "name": "",
          "type": "uint256"
        }
      ],
      "stateMutability": "view",
      "type": "function"
    },
    {
      "inputs": [
        {
          "internalType": "contract ISilo",
          "name": "_silo",
          "type": "address"
        }
      ],
      "name": "totalBorrowAmountWithInterest",
      "outputs": [
        {
          "internalType": "uint256",
          "name": "totalBorrowAmount",
          "type": "uint256"
        }
      ],
      "stateMutability": "view",
      "type": "function"
    },
    {
      "inputs": [
        {
          "internalType": "contract ISilo",
          "name": "_silo",
          "type": "address"
        }
      ],
      "name": "totalBorrowShare",
      "outputs": [
        {
          "internalType": "uint256",
          "name": "",
          "type": "uint256"
        }
      ],
      "stateMutability": "view",
      "type": "function"
    },
    {
      "inputs": [
        {
          "internalType": "contract ISilo",
          "name": "_silo",
          "type": "address"
        }
      ],
      "name": "totalDeposits",
      "outputs": [
        {
          "internalType": "uint256",
          "name": "totalDeposits",
          "type": "uint256"
        }
      ],
      "stateMutability": "view",
      "type": "function"
    },
    {
      "inputs": [
        {
          "internalType": "contract ISilo",
          "name": "_silo",
          "type": "address"
        }
      ],
      "name": "totalDepositsWithInterest",
      "outputs": [
        {
          "internalType": "uint256",
          "name": "totalDeposits",
          "type": "uint256"
        }
      ],
      "stateMutability": "view",
      "type": "function"
    },
    {
      "inputs": [],
      "name": "InvalidAsset",
      "type": "error"
    }
  ],
  "bytecode": "0x6080604052348015600e575f5ffd5b506132888061001c5f395ff3fe608060405234801561000f575f5ffd5b50600436106101e6575f3560e01c80638705c35911610109578063dcf844a71161009e578063f2a07bc91161006e578063f2a07bc914610486578063f45b1b3a14610499578063f5125d3f146102d0578063fdce8643146104ac575f5ffd5b8063dcf844a71461043a578063dd718ab41461044d578063e218721814610460578063e940325614610473575f5ffd5b8063aab2353a116100d9578063aab2353a146103d9578063b1ff4d6c14610414578063b8c876b114610427578063d9bd0ea2146102bd575f5ffd5b80638705c359146103805780638ec109da146103935780639848b19c146103a65780639bbafd53146103c6575f5ffd5b806343afdad21161017f578063647e0c201161014f578063647e0c20146103345780636c15c9ba1461034757806374cd15f31461035a578063868682cb1461036d575f5ffd5b806343afdad2146102d05780634f6a57b6146102e357806354a05771146102f6578063590630f014610321575f5ffd5b806324bc00b0116101ba57806324bc00b01461027457806336e496581461029757806337febff4146102aa57806338bad5e5146102bd575f5ffd5b8062e0f7a0146101ea57806306b39a77146102105780631fe0226914610223578063249a649614610236575b5f5ffd5b6101fd6101f8366004612abf565b6104bf565b6040519081526020015b60405180910390f35b6101fd61021e366004612abf565b6104cf565b6101fd610231366004612ada565b610530565b610249610244366004612abf565b610542565b604080516001600160a01b039586168152949093166020850152918301526060820152608001610207565b610287610282366004612ada565b61055f565b6040519015158152602001610207565b6101fd6102a5366004612abf565b61056a565b6101fd6102b8366004612abf565b6105b4565b6101fd6102cb366004612ada565b6105be565b6101fd6102de366004612ada565b61062a565b6101fd6102f1366004612abf565b610635565b610309610304366004612abf565b61063f565b6040516001600160a01b039091168152602001610207565b61028761032f366004612ada565b610649565b6101fd610342366004612abf565b6106b4565b6101fd610355366004612ada565b6106be565b6101fd610368366004612abf565b6106c9565b6101fd61037b366004612ada565b610706565b61028761038e366004612ada565b610766565b6101fd6103a1366004612ada565b610771565b6103b96103b4366004612b11565b610784565b6040516102079190612b82565b6101fd6103d4366004612abf565b61083e565b6103ec6103e7366004612bc4565b61086c565b6040805194855260208501939093529015159183019190915215156060820152608001610207565b6101fd610422366004612abf565b61095f565b6101fd610435366004612abf565b610969565b6101fd610448366004612abf565b6109a6565b6101fd61045b366004612ada565b610a1c565b61030961046e366004612abf565b610a2f565b6101fd610481366004612abf565b610b06565b6101fd610494366004612abf565b610b35565b6101fd6104a7366004612ada565b610b3f565b6101fd6104ba366004612abf565b610bd0565b5f6104c982610c5a565b92915050565b5f816001600160a01b03166301e1d1146040518163ffffffff1660e01b8152600401602060405180830381865afa15801561050c573d5f5f3e3d5ffd5b505050506040513d601f19601f820116820180604052508101906104c99190612c0c565b5f61053b8383610d7a565b9392505050565b5f5f5f5f61054f85610e71565b5092989197509550909350915050565b5f61053b8383611025565b60405163b6d821c760e01b81525f906001600160a01b0383169063b6d821c79061059990600290600401612c37565b602060405180830381865afa15801561050c573d5f5f3e3d5ffd5b5f6104c982611474565b604051635f30114960e01b81526001600160a01b0382811660048301525f9190841690635f301149906024015b602060405180830381865afa158015610606573d5f5f3e3d5ffd5b505050506040513d601f19601f8201168201806040525081019061053b9190612c0c565b5f61053b838361154b565b5f6104c9826116c6565b5f6104c982610a2f565b6040516338b51ce160e01b81526001600160a01b0382811660048301525f91908416906338b51ce190602401602060405180830381865afa158015610690573d5f5f3e3d5ffd5b505050506040513d601f19601f8201168201806040525081019061053b9190612c65565b5f6104c9826118c1565b5f61053b8383611998565b5f816001600160a01b031663ecd658b46040518163ffffffff1660e01b8152600401602060405180830381865afa15801561050c573d5f5f3e3d5ffd5b60405163c99ee7b760e01b81526001600160a01b038084166004830152821660248201525f9073__$89d37a64e3ccc21ed0741d2ae8390c2e12$__9063c99ee7b790604401602060405180830381865af4158015610606573d5f5f3e3d5ffd5b5f61053b8383611c46565b5f61077c8383611d4b565b949350505050565b60608167ffffffffffffffff81111561079f5761079f612c7e565b6040519080825280602002602001820160405280156107c8578160200160208202803683370190505b5090505f5b82811015610837575f8484838181106107e8576107e8612c92565b9050604002018036038101906107fe9190612cdc565b9050610811815f01518260200151610d7a565b83838151811061082357610823612c92565b6020908102919091010152506001016107cd565b5092915050565b60405163b6d821c760e01b81525f906001600160a01b0383169063b6d821c790610599908490600401612c37565b6040516317a05b0960e31b81526001600160a01b0382811660048301525f9182918291829187169063bd02d84890602401606060405180830381865afa1580156108b8573d5f5f3e3d5ffd5b505050506040513d601f19601f820116820180604052508101906108dc9190612d47565b604051635f30114960e01b81526001600160a01b03898116600483015293975091955093505f91891690635f30114990602401602060405180830381865afa15801561092a573d5f5f3e3d5ffd5b505050506040513d601f19601f8201168201806040525081019061094e9190612c0c565b905083811491505093509350935093565b5f6104c982611e71565b5f816001600160a01b0316630910a5106040518163ffffffff1660e01b8152600401602060405180830381865afa15801561050c573d5f5f3e3d5ffd5b5f816001600160a01b0316639d35abaf6040518163ffffffff1660e01b815260040160a060405180830381865afa1580156109e3573d5f5f3e3d5ffd5b505050506040513d601f19601f82011682018060405250810190610a079190612d91565b50506001600160c01b03909216949350505050565b5f610a278383611d4b565b509392505050565b5f816001600160a01b03166379502c556040518163ffffffff1660e01b8152600401602060405180830381865afa158015610a6c573d5f5f3e3d5ffd5b505050506040513d601f19601f82011682018060405250810190610a909190612de8565b60405163e48a5f7b60e01b81526001600160a01b038481166004830152919091169063e48a5f7b9060240161022060405180830381865afa158015610ad7573d5f5f3e3d5ffd5b505050506040513d601f19601f82011682018060405250810190610afb9190612f26565b610120015192915050565b60405163b6d821c760e01b81525f906001600160a01b0383169063b6d821c79061059990600190600401612c37565b5f6104c982611f7d565b6040516370a0823160e01b81526001600160a01b0382811660048301525f9190841690634cdad5069082906370a0823190602401602060405180830381865afa158015610b8e573d5f5f3e3d5ffd5b505050506040513d601f19601f82011682018060405250810190610bb29190612c0c565b6040518263ffffffff1660e01b81526004016105eb91815260200190565b5f5f826001600160a01b0316639ef2fda06040518163ffffffff1660e01b8152600401606060405180830381865afa158015610c0e573d5f5f3e3d5ffd5b505050506040513d601f19601f82011682018060405250810190610c329190612f41565b9050805f0151670de0b6b3a76400008260200151610c509190612fc0565b61053b9190612feb565b5f5f826001600160a01b03166379502c556040518163ffffffff1660e01b8152600401602060405180830381865afa158015610c98573d5f5f3e3d5ffd5b505050506040513d601f19601f82011682018060405250810190610cbc9190612de8565b60405163e48a5f7b60e01b81526001600160a01b038581166004830152919091169063e48a5f7b9060240161022060405180830381865afa158015610d03573d5f5f3e3d5ffd5b505050506040513d601f19601f82011682018060405250810190610d279190612f26565b61012001516040516364efe17760e01b81526001600160a01b038581166004830152426024830152919250908216906364efe17790604401602060405180830381865afa158015610606573d5f5f3e3d5ffd5b5f5f5f846001600160a01b03166379502c556040518163ffffffff1660e01b8152600401602060405180830381865afa158015610db9573d5f5f3e3d5ffd5b505050506040513d601f19601f82011682018060405250810190610ddd9190612de8565b6040516394c0527d60e01b81526001600160a01b03868116600483015291909116906394c0527d9060240161044060405180830381865afa158015610e24573d5f5f3e3d5ffd5b505050506040513d601f19601f82011682018060405250810190610e489190612ffe565b604081015191935091506001600160a01b031615610e695781610160015192505b505092915050565b5f5f5f5f5f856001600160a01b03166379502c556040518163ffffffff1660e01b8152600401602060405180830381865afa158015610eb2573d5f5f3e3d5ffd5b505050506040513d601f19601f82011682018060405250810190610ed69190612de8565b604051630509af0560e51b81526001600160a01b038881166004830152919091169063a135e0a090602401608060405180830381865afa158015610f1c573d5f5f3e3d5ffd5b505050506040513d601f19601f82011682018060405250810190610f409190613033565b9050809350819450829550505050856001600160a01b031663c45a01556040518163ffffffff1660e01b8152600401602060405180830381865afa158015610f8a573d5f5f3e3d5ffd5b505050506040513d601f19601f82011682018060405250810190610fae9190612de8565b604051630c0d053960e11b81526001600160a01b038881166004830152919091169063181a0a72906024016040805180830381865afa158015610ff3573d5f5f3e3d5ffd5b505050506040513d601f19601f820116820180604052508101906110179190613073565b909790965092945090925090565b5f5f5f846001600160a01b031663aecc90cb6040518163ffffffff1660e01b81526004016040805180830381865afa158015611063573d5f5f3e3d5ffd5b505050506040513d601f19601f820116820180604052508101906110879190613073565b60405163e48a5f7b60e01b81526001600160a01b0380841660048301529294509092505f9187169063e48a5f7b9060240161022060405180830381865afa1580156110d4573d5f5f3e3d5ffd5b505050506040513d601f19601f820116820180604052508101906110f89190612f26565b60405163e48a5f7b60e01b81526001600160a01b0384811660048301529192505f9188169063e48a5f7b9060240161022060405180830381865afa158015611142573d5f5f3e3d5ffd5b505050506040513d601f19601f820116820180604052508101906111669190612f26565b60a08301516040516370a0823160e01b81526001600160a01b0389811660048301529293509116906370a0823190602401602060405180830381865afa1580156111b2573d5f5f3e3d5ffd5b505050506040513d601f19601f820116820180604052508101906111d69190612c0c565b156111e85760019450505050506104c9565b60808201516040516370a0823160e01b81526001600160a01b038881166004830152909116906370a0823190602401602060405180830381865afa158015611232573d5f5f3e3d5ffd5b505050506040513d601f19601f820116820180604052508101906112569190612c0c565b156112685760019450505050506104c9565b60a08101516040516370a0823160e01b81526001600160a01b038881166004830152909116906370a0823190602401602060405180830381865afa1580156112b2573d5f5f3e3d5ffd5b505050506040513d601f19601f820116820180604052508101906112d69190612c0c565b156112e85760019450505050506104c9565b60808101516040516370a0823160e01b81526001600160a01b038881166004830152909116906370a0823190602401602060405180830381865afa158015611332573d5f5f3e3d5ffd5b505050506040513d601f19601f820116820180604052508101906113569190612c0c565b156113685760019450505050506104c9565b60c08201516040516370a0823160e01b81526001600160a01b038881166004830152909116906370a0823190602401602060405180830381865afa1580156113b2573d5f5f3e3d5ffd5b505050506040513d601f19601f820116820180604052508101906113d69190612c0c565b156113e85760019450505050506104c9565b60c08101516040516370a0823160e01b81526001600160a01b038881166004830152909116906370a0823190602401602060405180830381865afa158015611432573d5f5f3e3d5ffd5b505050506040513d601f19601f820116820180604052508101906114569190612c0c565b156114685760019450505050506104c9565b505f9695505050505050565b5f816001600160a01b03166379502c556040518163ffffffff1660e01b8152600401602060405180830381865afa1580156114b1573d5f5f3e3d5ffd5b505050506040513d601f19601f820116820180604052508101906114d59190612de8565b60405163e48a5f7b60e01b81526001600160a01b038481166004830152919091169063e48a5f7b9060240161022060405180830381865afa15801561151c573d5f5f3e3d5ffd5b505050506040513d601f19601f820116820180604052508101906115409190612f26565b610160015192915050565b5f5f5f846001600160a01b03166379502c556040518163ffffffff1660e01b8152600401602060405180830381865afa15801561158a573d5f5f3e3d5ffd5b505050506040513d601f19601f820116820180604052508101906115ae9190612de8565b6040516394c0527d60e01b81526001600160a01b03868116600483015291909116906394c0527d9060240161044060405180830381865afa1580156115f5573d5f5f3e3d5ffd5b505050506040513d601f19601f820116820180604052508101906116199190612ffe565b604081015191935091506001600160a01b031615610e69576116bd8282865f60018660c001516001600160a01b03166370a082318b6040518263ffffffff1660e01b815260040161167991906001600160a01b0391909116815260200190565b602060405180830381865afa158015611694573d5f5f3e3d5ffd5b505050506040513d601f19601f820116820180604052508101906116b89190612c0c565b61205e565b95945050505050565b5f5f826001600160a01b031663a1ff9bee6040518163ffffffff1660e01b8152600401602060405180830381865afa158015611704573d5f5f3e3d5ffd5b505050506040513d601f19601f820116820180604052508101906117289190612c0c565b9050805f0361173957505f92915050565b5f836001600160a01b03166379502c556040518163ffffffff1660e01b8152600401602060405180830381865afa158015611776573d5f5f3e3d5ffd5b505050506040513d601f19601f8201168201806040525081019061179a9190612de8565b60405163e48a5f7b60e01b81526001600160a01b038681166004830152919091169063e48a5f7b9060240161022060405180830381865afa1580156117e1573d5f5f3e3d5ffd5b505050506040513d601f19601f820116820180604052508101906118059190612f26565b905081846001600160a01b031663ecd658b46040518163ffffffff1660e01b8152600401602060405180830381865afa158015611844573d5f5f3e3d5ffd5b505050506040513d601f19601f820116820180604052508101906118689190612c0c565b61187186610c5a565b61187b9190612fc0565b6118859190612feb565b60208201518251919450670de0b6b3a7640000916118a390836130a0565b6118ad91906130a0565b6118b79085612fc0565b61077c9190612feb565b5f816001600160a01b03166379502c556040518163ffffffff1660e01b8152600401602060405180830381865afa1580156118fe573d5f5f3e3d5ffd5b505050506040513d601f19601f820116820180604052508101906119229190612de8565b60405163e48a5f7b60e01b81526001600160a01b038481166004830152919091169063e48a5f7b9060240161022060405180830381865afa158015611969573d5f5f3e3d5ffd5b505050506040513d601f19601f8201168201806040525081019061198d9190612f26565b610140015192915050565b5f5f5f846001600160a01b03166379502c556040518163ffffffff1660e01b8152600401602060405180830381865afa1580156119d7573d5f5f3e3d5ffd5b505050506040513d601f19601f820116820180604052508101906119fb9190612de8565b604051630483b24f60e41b81526001600160a01b038781166004830152919091169063483b24f090602401606060405180830381865afa158015611a41573d5f5f3e3d5ffd5b505050506040513d601f19601f82011682018060405250810190611a6591906130b3565b506040516370a0823160e01b81526001600160a01b0387811660048301529294509092505f918416906370a0823190602401602060405180830381865afa158015611ab2573d5f5f3e3d5ffd5b505050506040513d601f19601f82011682018060405250810190611ad69190612c0c565b6040516370a0823160e01b81526001600160a01b0387811660048301529192505f918416906370a0823190602401602060405180830381865afa158015611b1f573d5f5f3e3d5ffd5b505050506040513d601f19601f82011682018060405250810190611b439190612c0c565b90508115611bbb5760405163a7d6e44b60e01b81526001600160a01b0388169063a7d6e44b90611b799085905f906004016130f2565b602060405180830381865afa158015611b94573d5f5f3e3d5ffd5b505050506040513d601f19601f82011682018060405250810190611bb89190612c0c565b94505b8015611c3c5760405163a7d6e44b60e01b81526001600160a01b0388169063a7d6e44b90611bf09084906001906004016130f2565b602060405180830381865afa158015611c0b573d5f5f3e3d5ffd5b505050506040513d601f19601f82011682018060405250810190611c2f9190612c0c565b611c399086613116565b94505b5050505092915050565b6040516394c0527d60e01b81526001600160a01b0382811660048301525f9182918291908616906394c0527d9060240161044060405180830381865afa158015611c92573d5f5f3e3d5ffd5b505050506040513d601f19601f82011682018060405250810190611cb69190612ffe565b60c081015191935091506001600160a01b0316158015906116bd575060c08101516040516370a0823160e01b81526001600160a01b038681166004830152909116906370a0823190602401602060405180830381865afa158015611d1c573d5f5f3e3d5ffd5b505050506040513d601f19601f82011682018060405250810190611d409190612c0c565b151595945050505050565b6040516394c0527d60e01b81526001600160a01b0382811660048301525f918291829182918716906394c0527d9060240161044060405180830381865afa158015611d98573d5f5f3e3d5ffd5b505050506040513d601f19601f82011682018060405250810190611dbc9190612ffe565b915091505f611e4d8383885f60018760c001516001600160a01b03166370a082318d6040518263ffffffff1660e01b8152600401611e0991906001600160a01b0391909116815260200190565b602060405180830381865afa158015611e24573d5f5f3e3d5ffd5b505050506040513d601f19601f82011682018060405250810190611e489190612c0c565b6120b5565b9050611e628184606001518460600151612332565b50909890975095505050505050565b5f5f826001600160a01b03166379502c556040518163ffffffff1660e01b8152600401602060405180830381865afa158015611eaf573d5f5f3e3d5ffd5b505050506040513d601f19601f82011682018060405250810190611ed39190612de8565b604051630483b24f60e41b81526001600160a01b038581166004830152919091169063483b24f090602401606060405180830381865afa158015611f19573d5f5f3e3d5ffd5b505050506040513d601f19601f82011682018060405250810190611f3d91906130b3565b92505050806001600160a01b03166318160ddd6040518163ffffffff1660e01b8152600401602060405180830381865afa158015610606573d5f5f3e3d5ffd5b5f6104c9826001600160a01b031663b6d821c760016040518263ffffffff1660e01b8152600401611fae9190612c37565b602060405180830381865afa158015611fc9573d5f5f3e3d5ffd5b505050506040513d601f19601f82011682018060405250810190611fed9190612c0c565b60405163b6d821c760e01b81526001600160a01b0385169063b6d821c79061201a90600290600401612c37565b602060405180830381865afa158015612035573d5f5f3e3d5ffd5b505050506040513d601f19601f820116820180604052508101906120599190612c0c565b612388565b5f815f0361206d57505f6120ab565b5f61207c8888888888886120b5565b905080608001515f03612092575f9150506120ab565b6120a58189606001518960600151612332565b93505050505b9695505050505050565b6120f46040518060a001604052805f6001600160a01b031681526020015f6001600160a01b031681526020015f81526020015f81526020015f81525090565b85606001516001600160a01b031687606001516001600160a01b03161461215e57600184600181111561212957612129612c23565b1461213d578660e001518660e0015161214a565b8661010001518661010001515b6001600160a01b0390811660208401521681525b5f5f61216f8960800151885f6123a0565b80935081925050505f5f8a604001516001600160a01b031663ffbaaf7a6040518163ffffffff1660e01b81526004016040805180830381865afa1580156121b8573d5f5f3e3d5ffd5b505050506040513d601f19601f820116820180604052508101906121dc9190613129565b915091506121ed8382865f5f612488565b604086015260a08b0151612202908a5f6123a0565b94509250600187600181111561221a5761221a612c23565b146122255781612241565b6122418b604001518c61012001518d5f01518e602001516124c3565b91506122518383865f6001612488565b606086015260c08a0151612266908a886123a0565b945092505f600188600181111561227f5761227f612c23565b146122f9578a604001516001600160a01b031663b6d821c760026040518263ffffffff1660e01b81526004016122b59190612c37565b602060405180830381865afa1580156122d0573d5f5f3e3d5ffd5b505050506040513d601f19601f820116820180604052508101906122f49190612c0c565b61230c565b61230c8b604001518c61012001516125b9565b905061231d84828760016002612488565b608087015250939a9950505050505050505050565b5f5f5f6123408686866126ac565b909350915082158015612351575081155b1561236357505f91508190508061237f565b825f0361237257505f1961237f565b61237c8284612802565b90505b93509350939050565b5f8282116123985781830361053b565b5f9392505050565b5f5f825f0361241a5760405163dce5c2db60e01b81526001600160a01b03858116600483015286169063dce5c2db906024016040805180830381865afa1580156123ec573d5f5f3e3d5ffd5b505050506040513d601f19601f820116820180604052508101906124109190613129565b9092509050612480565b829150846001600160a01b03166318160ddd6040518163ffffffff1660e01b8152600401602060405180830381865afa158015612459573d5f5f3e3d5ffd5b505050506040513d601f19601f8201168201806040525081019061247d9190612c0c565b90505b935093915050565b5f5f5f612496878786612818565b91509150815f036124ab5787925050506116bd565b6124b788828488612873565b98975050505050505050565b6040516367efe7fd60e11b81526001600160a01b0385811660048301524260248301525f91829186169063cfdfcffa90604401602060405180830381865afa92505050801561252f575060408051601f3d908101601f1916820190925261252c91810190612c0c565b60015b156125375790505b5f5f876001600160a01b03166339c5c5056040518163ffffffff1660e01b81526004016040805180830381865afa158015612574573d5f5f3e3d5ffd5b505050506040513d601f19601f820116820180604052508101906125989190613129565b915091506125a982828589896128b5565b50919a9950505050505050505050565b6040516367efe7fd60e11b81526001600160a01b0383811660048301524260248301525f91829184169063cfdfcffa90604401602060405180830381865afa925050508015612625575060408051601f3d908101601f1916820190925261262291810190612c0c565b60015b1561262d5790505b60405163b6d821c760e01b81526126a3906001600160a01b0386169063b6d821c79061265e90600290600401612c37565b602060405180830381865afa158015612679573d5f5f3e3d5ffd5b505050506040513d601f19601f8201168201806040525081019061269d9190612c0c565b8261291b565b50949350505050565b5f5f5f856060015186604001516126c39190613116565b905080156127555785516001600160a01b03166126e05780612752565b85516040516313b0be3360e01b8152600481018390526001600160a01b038781166024830152909116906313b0be3390604401602060405180830381865afa15801561272e573d5f5f3e3d5ffd5b505050506040513d601f19601f820116820180604052508101906127529190612c0c565b92505b6080860151156127f95760208601516001600160a01b031661277b5785608001516127f6565b602086015160808701516040516313b0be3360e01b815260048101919091526001600160a01b038681166024830152909116906313b0be3390604401602060405180830381865afa1580156127d2573d5f5f3e3d5ffd5b505050506040513d601f19601f820116820180604052508101906127f69190612c0c565b91505b50935093915050565b5f61053b83670de0b6b3a7640000846001612873565b5f5f835f03612825575f94505b600283600281111561283957612839612c23565b146128645761284a6003600a613226565b6128549085613116565b61285f866001613116565b612867565b83855b90969095509350505050565b5f6128a061288083612966565b801561289b57505f848061289657612896612fd7565b868809115b151590565b6128ab868686612992565b6116bd9190613116565b5f5f5f5f6128c3888861291b565b90935090508585016128de8282670de0b6b3a7640000612a4f565b92505f6128eb84846130a0565b90505f6128f98c5f196130a0565b905081811015612907578091505b818c01965050505095509550955095915050565b5f80831580612928575082155b1561293757508290505f61295f565b61294a8484670de0b6b3a7640000612a4f565b905080840191508382101561295f57508290505f5b9250929050565b5f600282600381111561297b5761297b612c23565b6129859190613231565b60ff166001149050919050565b5f838302815f1985870982811083820303915050805f036129c6578382816129bc576129bc612fd7565b049250505061053b565b8084116129e4576129e484156129dd576011612a97565b6012612a97565b5f848688095f868103871696879004966002600389028118808a02820302808a02820302808a02820302808a02820302808a02820302808a02909103029181900381900460010186841190950394909402919094039290920491909117919091029150509392505050565b5f835f03612a5e57505f61053b565b5082820282848281612a7257612a72612fd7565b0414612a7f57505f61053b565b818181612a8e57612a8e612fd7565b04949350505050565b634e487b715f52806020526024601cfd5b6001600160a01b0381168114612abc575f5ffd5b50565b5f60208284031215612acf575f5ffd5b813561053b81612aa8565b5f5f60408385031215612aeb575f5ffd5b8235612af681612aa8565b91506020830135612b0681612aa8565b809150509250929050565b5f5f60208385031215612b22575f5ffd5b823567ffffffffffffffff811115612b38575f5ffd5b8301601f81018513612b48575f5ffd5b803567ffffffffffffffff811115612b5e575f5ffd5b8560208260061b8401011115612b72575f5ffd5b6020919091019590945092505050565b602080825282518282018190525f918401906040840190835b81811015612bb9578351835260209384019390920191600101612b9b565b509095945050505050565b5f5f5f60608486031215612bd6575f5ffd5b8335612be181612aa8565b92506020840135612bf181612aa8565b91506040840135612c0181612aa8565b809150509250925092565b5f60208284031215612c1c575f5ffd5b5051919050565b634e487b7160e01b5f52602160045260245ffd5b6020810160038310612c4b57612c4b612c23565b91905290565b80518015158114612c60575f5ffd5b919050565b5f60208284031215612c75575f5ffd5b61053b82612c51565b634e487b7160e01b5f52604160045260245ffd5b634e487b7160e01b5f52603260045260245ffd5b604051610220810167ffffffffffffffff81118282101715612cd657634e487b7160e01b5f52604160045260245ffd5b60405290565b5f6040828403128015612ced575f5ffd5b506040805190810167ffffffffffffffff81118282101715612d1d57634e487b7160e01b5f52604160045260245ffd5b6040528235612d2b81612aa8565b81526020830135612d3b81612aa8565b60208201529392505050565b5f5f5f60608486031215612d59575f5ffd5b835160208501519093509150612d7160408501612c51565b90509250925092565b805167ffffffffffffffff81168114612c60575f5ffd5b5f5f5f5f5f60a08688031215612da5575f5ffd5b85516001600160c01b0381168114612dbb575f5ffd5b9450612dc960208701612d7a565b6040870151606088015160809098015196999198509695945092505050565b5f60208284031215612df8575f5ffd5b815161053b81612aa8565b8051612c6081612aa8565b5f6102208284031215612e1f575f5ffd5b612e27612ca6565b82518152602080840151908201529050612e4360408301612e03565b6040820152612e5460608301612e03565b6060820152612e6560808301612e03565b6080820152612e7660a08301612e03565b60a0820152612e8760c08301612e03565b60c0820152612e9860e08301612e03565b60e0820152612eaa6101008301612e03565b610100820152612ebd6101208301612e03565b6101208201526101408281015190820152610160808301519082015261018080830151908201526101a080830151908201526101c08083015190820152612f076101e08301612e03565b6101e0820152612f1a6102008301612c51565b61020082015292915050565b5f6102208284031215612f37575f5ffd5b61053b8383612e0e565b5f6060828403128015612f52575f5ffd5b506040516060810167ffffffffffffffff81118282101715612f8257634e487b7160e01b5f52604160045260245ffd5b60409081528351825260208085015190830152612fa0908401612d7a565b60408201529392505050565b634e487b7160e01b5f52601160045260245ffd5b80820281158282048414176104c9576104c9612fac565b634e487b7160e01b5f52601260045260245ffd5b5f82612ff957612ff9612fd7565b500490565b5f5f6104408385031215613010575f5ffd5b61301a8484612e0e565b915061302a846102208501612e0e565b90509250929050565b5f5f5f5f60808587031215613046575f5ffd5b8451602086015160408701516060880151929650909450925061306881612aa8565b939692955090935050565b5f5f60408385031215613084575f5ffd5b825161308f81612aa8565b6020840151909250612b0681612aa8565b818103818111156104c9576104c9612fac565b5f5f5f606084860312156130c5575f5ffd5b83516130d081612aa8565b60208501519093506130e181612aa8565b6040850151909250612c0181612aa8565b828152604081016002831061310957613109612c23565b8260208301529392505050565b808201808211156104c9576104c9612fac565b5f5f6040838503121561313a575f5ffd5b505080516020909101519092909150565b6001815b60018411156124805780850481111561316a5761316a612fac565b600184161561317857908102905b60019390931c92800261314f565b5f82613194575060016104c9565b816131a057505f6104c9565b81600181146131b657600281146131c0576131dc565b60019150506104c9565b60ff8411156131d1576131d1612fac565b50506001821b6104c9565b5060208310610133831016604e8410600b84101617156131ff575081810a6104c9565b61320b5f19848461314b565b805f190482111561321e5761321e612fac565b029392505050565b5f61053b8383613186565b5f60ff83168061324357613243612fd7565b8060ff8416069150509291505056fea2646970667358221220e5aca616158b141eb4407a4638c45db9e1e3bec975c8d68affa45d1a3fc3bacc64736f6c634300081c0033",
  "language": "Solidity",
  "compiler": "0.8.28+commit.7893614a"
}