{
  "address": "0x50967dC1beB0DDCc9d5a2a911f7A0c288340B687",
  "abi": [
    {
      "inputs": [
        {
          "internalType": "contract ISilo",
          "name": "_silo",
          "type": "address"
        },
        {
          "internalType": "address",
          "name": "_borrower",
          "type": "address"
        }
      ],
      "name": "borrowShare",
      "outputs": [
        {
          "internalType": "uint256",
          "name": "",
          "type": "uint256"
        }
      ],
      "stateMutability": "view",
      "type": "function"
    },
    {
      "inputs": [
        {
          "internalType": "contract ISiloConfig",
          "name": "_siloConfig",
          "type": "address"
        },
        {
          "internalType": "address",
          "name": "_borrower",
          "type": "address"
        }
      ],
      "name": "calculateBorrowValue",
      "outputs": [
        {
          "internalType": "uint256",
          "name": "borrowValue",
          "type": "uint256"
        }
      ],
      "stateMutability": "view",
      "type": "function"
    },
    {
      "inputs": [
        {
          "internalType": "contract ISiloConfig",
          "name": "_siloConfig",
          "type": "address"
        },
        {
          "internalType": "address",
          "name": "_borrower",
          "type": "address"
        }
      ],
      "name": "calculateCollateralValue",
      "outputs": [
        {
          "internalType": "uint256",
          "name": "collateralValue",
          "type": "uint256"
        }
      ],
      "stateMutability": "view",
      "type": "function"
    },
    {
      "inputs": [
        {
          "internalType": "contract ISilo",
          "name": "_silo",
          "type": "address"
        },
        {
          "internalType": "address",
          "name": "_borrower",
          "type": "address"
        }
      ],
      "name": "collateralBalanceOfUnderlying",
      "outputs": [
        {
          "internalType": "uint256",
          "name": "borrowerCollateral",
          "type": "uint256"
        }
      ],
      "stateMutability": "view",
      "type": "function"
    },
    {
      "inputs": [
        {
          "internalType": "contract ISilo",
          "name": "_silo",
          "type": "address"
        }
      ],
      "name": "collateralOnlyDeposits",
      "outputs": [
        {
          "internalType": "uint256",
          "name": "",
          "type": "uint256"
        }
      ],
      "stateMutability": "view",
      "type": "function"
    },
    {
      "inputs": [
        {
          "internalType": "contract ISilo",
          "name": "_silo",
          "type": "address"
        },
        {
          "internalType": "address",
          "name": "_borrower",
          "type": "address"
        }
      ],
      "name": "debtBalanceOfUnderlying",
      "outputs": [
        {
          "internalType": "uint256",
          "name": "",
          "type": "uint256"
        }
      ],
      "stateMutability": "view",
      "type": "function"
    },
    {
      "inputs": [
        {
          "internalType": "contract ISilo[]",
          "name": "_silos",
          "type": "address[]"
        }
      ],
      "name": "getAPRs",
      "outputs": [
        {
          "components": [
            {
              "internalType": "uint256",
              "name": "depositAPR",
              "type": "uint256"
            },
            {
              "internalType": "uint256",
              "name": "borrowAPR",
              "type": "uint256"
            }
          ],
          "internalType": "struct ISiloLens.APR[]",
          "name": "aprs",
          "type": "tuple[]"
        }
      ],
      "stateMutability": "view",
      "type": "function"
    },
    {
      "inputs": [
        {
          "internalType": "contract ISilo",
          "name": "_silo",
          "type": "address"
        }
      ],
      "name": "getBorrowAPR",
      "outputs": [
        {
          "internalType": "uint256",
          "name": "borrowAPR",
          "type": "uint256"
        }
      ],
      "stateMutability": "view",
      "type": "function"
    },
    {
      "inputs": [
        {
          "internalType": "contract ISilo",
          "name": "_silo",
          "type": "address"
        },
        {
          "internalType": "address",
          "name": "_borrower",
          "type": "address"
        }
      ],
      "name": "getBorrowAmount",
      "outputs": [
        {
          "internalType": "uint256",
          "name": "maxRepay",
          "type": "uint256"
        }
      ],
      "stateMutability": "view",
      "type": "function"
    },
    {
      "inputs": [
        {
          "internalType": "contract ISilo",
          "name": "_silo",
          "type": "address"
        }
      ],
      "name": "getDepositAPR",
      "outputs": [
        {
          "internalType": "uint256",
          "name": "depositAPR",
          "type": "uint256"
        }
      ],
      "stateMutability": "view",
      "type": "function"
    },
    {
      "inputs": [
        {
          "internalType": "contract ISilo",
          "name": "_silo",
          "type": "address"
        },
        {
          "internalType": "address",
          "name": "_borrower",
          "type": "address"
        }
      ],
      "name": "getDepositAmount",
      "outputs": [
        {
          "internalType": "uint256",
          "name": "borrowerDeposits",
          "type": "uint256"
        }
      ],
      "stateMutability": "view",
      "type": "function"
    },
    {
      "inputs": [
        {
          "internalType": "contract ISilo",
          "name": "_silo",
          "type": "address"
        }
      ],
      "name": "getFeesAndFeeReceivers",
      "outputs": [
        {
          "internalType": "address",
          "name": "daoFeeReceiver",
          "type": "address"
        },
        {
          "internalType": "address",
          "name": "deployerFeeReceiver",
          "type": "address"
        },
        {
          "internalType": "uint256",
          "name": "daoFee",
          "type": "uint256"
        },
        {
          "internalType": "uint256",
          "name": "deployerFee",
          "type": "uint256"
        }
      ],
      "stateMutability": "view",
      "type": "function"
    },
    {
      "inputs": [
        {
          "internalType": "contract ISilo",
          "name": "_silo",
          "type": "address"
        }
      ],
      "name": "getInterestRateModel",
      "outputs": [
        {
          "internalType": "address",
          "name": "irm",
          "type": "address"
        }
      ],
      "stateMutability": "view",
      "type": "function"
    },
    {
      "inputs": [
        {
          "internalType": "contract ISilo",
          "name": "_silo",
          "type": "address"
        }
      ],
      "name": "getLt",
      "outputs": [
        {
          "internalType": "uint256",
          "name": "lt",
          "type": "uint256"
        }
      ],
      "stateMutability": "view",
      "type": "function"
    },
    {
      "inputs": [
        {
          "internalType": "contract ISilo",
          "name": "_silo",
          "type": "address"
        },
        {
          "internalType": "address",
          "name": "_borrower",
          "type": "address"
        }
      ],
      "name": "getLtv",
      "outputs": [
        {
          "internalType": "uint256",
          "name": "ltv",
          "type": "uint256"
        }
      ],
      "stateMutability": "view",
      "type": "function"
    },
    {
      "inputs": [
        {
          "internalType": "contract ISilo",
          "name": "_silo",
          "type": "address"
        }
      ],
      "name": "getMaxLtv",
      "outputs": [
        {
          "internalType": "uint256",
          "name": "maxLtv",
          "type": "uint256"
        }
      ],
      "stateMutability": "view",
      "type": "function"
    },
    {
      "inputs": [
        {
          "internalType": "contract ISilo",
          "name": "_silo",
          "type": "address"
        }
      ],
      "name": "getModel",
      "outputs": [
        {
          "internalType": "contract IInterestRateModel",
          "name": "irm",
          "type": "address"
        }
      ],
      "stateMutability": "view",
      "type": "function"
    },
    {
      "inputs": [
        {
          "internalType": "contract ISilo",
          "name": "_silo",
          "type": "address"
        }
      ],
      "name": "getRawLiquidity",
      "outputs": [
        {
          "internalType": "uint256",
          "name": "liquidity",
          "type": "uint256"
        }
      ],
      "stateMutability": "view",
      "type": "function"
    },
    {
      "inputs": [
        {
          "internalType": "contract ISilo",
          "name": "_silo",
          "type": "address"
        },
        {
          "internalType": "address",
          "name": "_borrower",
          "type": "address"
        }
      ],
      "name": "getUserLT",
      "outputs": [
        {
          "internalType": "uint256",
          "name": "userLT",
          "type": "uint256"
        }
      ],
      "stateMutability": "view",
      "type": "function"
    },
    {
      "inputs": [
        {
          "internalType": "contract ISilo",
          "name": "_silo",
          "type": "address"
        },
        {
          "internalType": "address",
          "name": "_borrower",
          "type": "address"
        }
      ],
      "name": "getUserLTV",
      "outputs": [
        {
          "internalType": "uint256",
          "name": "userLTV",
          "type": "uint256"
        }
      ],
      "stateMutability": "view",
      "type": "function"
    },
    {
      "inputs": [
        {
          "components": [
            {
              "internalType": "contract ISilo",
              "name": "silo",
              "type": "address"
            },
            {
              "internalType": "address",
              "name": "wallet",
              "type": "address"
            }
          ],
          "internalType": "struct ISiloLens.Borrower[]",
          "name": "_borrowers",
          "type": "tuple[]"
        }
      ],
      "name": "getUsersHealth",
      "outputs": [
        {
          "components": [
            {
              "internalType": "uint256",
              "name": "lt",
              "type": "uint256"
            },
            {
              "internalType": "uint256",
              "name": "ltv",
              "type": "uint256"
            }
          ],
          "internalType": "struct ISiloLens.BorrowerHealth[]",
          "name": "healths",
          "type": "tuple[]"
        }
      ],
      "stateMutability": "view",
      "type": "function"
    },
    {
      "inputs": [
        {
          "components": [
            {
              "internalType": "contract ISilo",
              "name": "silo",
              "type": "address"
            },
            {
              "internalType": "address",
              "name": "wallet",
              "type": "address"
            }
          ],
          "internalType": "struct ISiloLens.Borrower[]",
          "name": "_borrowers",
          "type": "tuple[]"
        }
      ],
      "name": "getUsersLT",
      "outputs": [
        {
          "internalType": "uint256[]",
          "name": "usersLTs",
          "type": "uint256[]"
        }
      ],
      "stateMutability": "view",
      "type": "function"
    },
    {
      "inputs": [
        {
          "internalType": "contract ISilo",
          "name": "_silo",
          "type": "address"
        }
      ],
      "name": "getUtilization",
      "outputs": [
        {
          "internalType": "uint256",
          "name": "",
          "type": "uint256"
        }
      ],
      "stateMutability": "view",
      "type": "function"
    },
    {
      "inputs": [
        {
          "internalType": "contract ISiloConfig",
          "name": "_siloConfig",
          "type": "address"
        },
        {
          "internalType": "address",
          "name": "_borrower",
          "type": "address"
        }
      ],
      "name": "hasPosition",
      "outputs": [
        {
          "internalType": "bool",
          "name": "has",
          "type": "bool"
        }
      ],
      "stateMutability": "view",
      "type": "function"
    },
    {
      "inputs": [
        {
          "internalType": "contract ISiloConfig",
          "name": "_siloConfig",
          "type": "address"
        },
        {
          "internalType": "address",
          "name": "_borrower",
          "type": "address"
        }
      ],
      "name": "inDebt",
      "outputs": [
        {
          "internalType": "bool",
          "name": "hasDebt",
          "type": "bool"
        }
      ],
      "stateMutability": "view",
      "type": "function"
    },
    {
      "inputs": [
        {
          "internalType": "contract ISilo",
          "name": "_silo",
          "type": "address"
        },
        {
          "internalType": "address",
          "name": "_borrower",
          "type": "address"
        }
      ],
      "name": "isSolvent",
      "outputs": [
        {
          "internalType": "bool",
          "name": "",
          "type": "bool"
        }
      ],
      "stateMutability": "view",
      "type": "function"
    },
    {
      "inputs": [
        {
          "internalType": "contract ISilo",
          "name": "_silo",
          "type": "address"
        }
      ],
      "name": "liquidity",
      "outputs": [
        {
          "internalType": "uint256",
          "name": "",
          "type": "uint256"
        }
      ],
      "stateMutability": "view",
      "type": "function"
    },
    {
      "inputs": [
        {
          "internalType": "contract ISilo",
          "name": "_silo",
          "type": "address"
        },
        {
          "internalType": "contract IPartialLiquidation",
          "name": "_hook",
          "type": "address"
        },
        {
          "internalType": "address",
          "name": "_borrower",
          "type": "address"
        }
      ],
      "name": "maxLiquidation",
      "outputs": [
        {
          "internalType": "uint256",
          "name": "collateralToLiquidate",
          "type": "uint256"
        },
        {
          "internalType": "uint256",
          "name": "debtToRepay",
          "type": "uint256"
        },
        {
          "internalType": "bool",
          "name": "sTokenRequired",
          "type": "bool"
        },
        {
          "internalType": "bool",
          "name": "fullLiquidation",
          "type": "bool"
        }
      ],
      "stateMutability": "view",
      "type": "function"
    },
    {
      "inputs": [
        {
          "internalType": "contract ISilo",
          "name": "_silo",
          "type": "address"
        }
      ],
      "name": "protocolFees",
      "outputs": [
        {
          "internalType": "uint256",
          "name": "daoAndDeployerRevenue",
          "type": "uint256"
        }
      ],
      "stateMutability": "view",
      "type": "function"
    },
    {
      "inputs": [
        {
          "internalType": "contract ISilo",
          "name": "_silo",
          "type": "address"
        }
      ],
      "name": "totalBorrowAmount",
      "outputs": [
        {
          "internalType": "uint256",
          "name": "",
          "type": "uint256"
        }
      ],
      "stateMutability": "view",
      "type": "function"
    },
    {
      "inputs": [
        {
          "internalType": "contract ISilo",
          "name": "_silo",
          "type": "address"
        }
      ],
      "name": "totalBorrowAmountWithInterest",
      "outputs": [
        {
          "internalType": "uint256",
          "name": "amount",
          "type": "uint256"
        }
      ],
      "stateMutability": "view",
      "type": "function"
    },
    {
      "inputs": [
        {
          "internalType": "contract ISilo",
          "name": "_silo",
          "type": "address"
        }
      ],
      "name": "totalBorrowShare",
      "outputs": [
        {
          "internalType": "uint256",
          "name": "",
          "type": "uint256"
        }
      ],
      "stateMutability": "view",
      "type": "function"
    },
    {
      "inputs": [
        {
          "internalType": "contract ISilo",
          "name": "_silo",
          "type": "address"
        }
      ],
      "name": "totalDeposits",
      "outputs": [
        {
          "internalType": "uint256",
          "name": "totalDeposits",
          "type": "uint256"
        }
      ],
      "stateMutability": "view",
      "type": "function"
    },
    {
      "inputs": [
        {
          "internalType": "contract ISilo",
          "name": "_silo",
          "type": "address"
        }
      ],
      "name": "totalDepositsWithInterest",
      "outputs": [
        {
          "internalType": "uint256",
          "name": "amount",
          "type": "uint256"
        }
      ],
      "stateMutability": "view",
      "type": "function"
    },
    {
      "inputs": [],
      "name": "InvalidAsset",
      "type": "error"
    }
  ],
  "bytecode": "0x6080604052348015600e575f5ffd5b506136e38061001c5f395ff3fe608060405234801561000f575f5ffd5b50600436106101fc575f3560e01c8063868682cb11610114578063d9bd0ea2116100a9578063e940325611610079578063e9403256146104c9578063f2a07bc9146104dc578063f45b1b3a146104ef578063f5125d3f146102e6578063fdce864314610502575f5ffd5b8063d9bd0ea2146102d3578063dcf844a714610490578063dd718ab4146104a3578063e2187218146104b6575f5ffd5b80639bbafd53116100e45780639bbafd531461041c578063aab2353a1461042f578063b1ff4d6c1461046a578063b8c876b11461047d575f5ffd5b8063868682cb146103c35780638705c359146103d65780638ec109da146103e95780639848b19c146103fc575f5ffd5b806343afdad211610195578063590630f011610165578063590630f0146103575780635d1e7c2f1461036a578063647e0c201461038a5780636c15c9ba1461039d57806374cd15f3146103b0575f5ffd5b806343afdad2146102e6578063480defa9146102f95780634f6a57b61461031957806354a057711461032c575f5ffd5b806324bc00b0116101d057806324bc00b01461028a57806336e49658146102ad57806337febff4146102c057806338bad5e5146102d3575f5ffd5b8062e0f7a01461020057806306b39a77146102265780631fe0226914610239578063249a64961461024c575b5f5ffd5b61021361020e366004612e21565b610515565b6040519081526020015b60405180910390f35b610213610234366004612e21565b610525565b610213610247366004612e3c565b610586565b61025f61025a366004612e21565b610598565b604080516001600160a01b03958616815294909316602085015291830152606082015260800161021d565b61029d610298366004612e3c565b6105b5565b604051901515815260200161021d565b6102136102bb366004612e21565b6105c0565b6102136102ce366004612e21565b61060a565b6102136102e1366004612e3c565b610614565b6102136102f4366004612e3c565b610680565b61030c610307366004612e73565b61068b565b60405161021d9190612ee4565b610213610327366004612e21565b610768565b61033f61033a366004612e21565b610772565b6040516001600160a01b03909116815260200161021d565b61029d610365366004612e3c565b61077c565b61037d610378366004612f3b565b6107e7565b60405161021d9190612f9c565b610213610398366004612e21565b6108c8565b6102136103ab366004612e3c565b6108d2565b6102136103be366004612e21565b6108dd565b6102136103d1366004612e3c565b61091a565b61029d6103e4366004612e3c565b61097a565b6102136103f7366004612e3c565b610985565b61040f61040a366004612e73565b610998565b60405161021d9190612fe8565b61021361042a366004612e21565b610a4b565b61044261043d36600461301f565b610a79565b604080519485526020850193909352901515918301919091521515606082015260800161021d565b610213610478366004612e21565b610b6c565b61021361048b366004612e21565b610b76565b61021361049e366004612e21565b610bb3565b6102136104b1366004612e3c565b610c29565b61033f6104c4366004612e21565b610c3c565b6102136104d7366004612e21565b610d13565b6102136104ea366004612e21565b610d42565b6102136104fd366004612e3c565b610d4c565b610213610510366004612e21565b610ddd565b5f61051f82610e73565b92915050565b5f816001600160a01b03166301e1d1146040518163ffffffff1660e01b8152600401602060405180830381865afa158015610562573d5f5f3e3d5ffd5b505050506040513d601f19601f8201168201806040525081019061051f9190613067565b5f6105918383610f93565b9392505050565b5f5f5f5f6105a58561108a565b5092989197509550909350915050565b5f610591838361123e565b60405163b6d821c760e01b81525f906001600160a01b0383169063b6d821c7906105ef90600290600401613092565b602060405180830381865afa158015610562573d5f5f3e3d5ffd5b5f61051f8261168d565b604051635f30114960e01b81526001600160a01b0382811660048301525f9190841690635f301149906024015b602060405180830381865afa15801561065c573d5f5f3e3d5ffd5b505050506040513d601f19601f820116820180604052508101906105919190613067565b5f6105918383611764565b60608167ffffffffffffffff8111156106a6576106a66130ac565b6040519080825280602002602001820160405280156106ea57816020015b604080518082019091525f80825260208201528152602001906001900390816106c45790505b5090505f5b82811015610761575f84848381811061070a5761070a6130c0565b905060400201803603810190610720919061310a565b90505f838381518110610735576107356130c0565b60200260200101519050610750825f015183602001516118df565b8252602090910152506001016106ef565b5092915050565b5f61051f82611a22565b5f61051f82610c3c565b6040516338b51ce160e01b81526001600160a01b0382811660048301525f91908416906338b51ce190602401602060405180830381865afa1580156107c3573d5f5f3e3d5ffd5b505050506040513d601f19601f820116820180604052508101906105919190613189565b60608167ffffffffffffffff811115610802576108026130ac565b60405190808252806020026020018201604052801561084657816020015b604080518082019091525f80825260208201528152602001906001900390816108205790505b5090505f5b82811015610761575f848483818110610866576108666130c0565b905060200201602081019061087b9190612e21565b9050604051806040016040528061089183611a22565b815260200161089f83610e73565b8152508383815181106108b4576108b46130c0565b60209081029190910101525060010161084b565b5f61051f82611c1d565b5f6105918383611cf4565b5f816001600160a01b031663ecd658b46040518163ffffffff1660e01b8152600401602060405180830381865afa158015610562573d5f5f3e3d5ffd5b60405163c99ee7b760e01b81526001600160a01b038084166004830152821660248201525f9073__$89d37a64e3ccc21ed0741d2ae8390c2e12$__9063c99ee7b790604401602060405180830381865af415801561065c573d5f5f3e3d5ffd5b5f6105918383611fa2565b5f61099083836120a2565b949350505050565b60608167ffffffffffffffff8111156109b3576109b36130ac565b6040519080825280602002602001820160405280156109dc578160200160208202803683370190505b5090505f5b82811015610761575f8484838181106109fc576109fc6130c0565b905060400201803603810190610a12919061310a565b9050610a25815f01518260200151610f93565b838381518110610a3757610a376130c0565b6020908102919091010152506001016109e1565b60405163b6d821c760e01b81525f906001600160a01b0383169063b6d821c7906105ef908490600401613092565b6040516317a05b0960e31b81526001600160a01b0382811660048301525f9182918291829187169063bd02d84890602401606060405180830381865afa158015610ac5573d5f5f3e3d5ffd5b505050506040513d601f19601f82011682018060405250810190610ae991906131a2565b604051635f30114960e01b81526001600160a01b03898116600483015293975091955093505f91891690635f30114990602401602060405180830381865afa158015610b37573d5f5f3e3d5ffd5b505050506040513d601f19601f82011682018060405250810190610b5b9190613067565b905083811491505093509350935093565b5f61051f826121df565b5f816001600160a01b0316630910a5106040518163ffffffff1660e01b8152600401602060405180830381865afa158015610562573d5f5f3e3d5ffd5b5f816001600160a01b0316639d35abaf6040518163ffffffff1660e01b815260040160a060405180830381865afa158015610bf0573d5f5f3e3d5ffd5b505050506040513d601f19601f82011682018060405250810190610c1491906131ec565b50506001600160c01b03909216949350505050565b5f610c3483836120a2565b509392505050565b5f816001600160a01b03166379502c556040518163ffffffff1660e01b8152600401602060405180830381865afa158015610c79573d5f5f3e3d5ffd5b505050506040513d601f19601f82011682018060405250810190610c9d9190613243565b60405163e48a5f7b60e01b81526001600160a01b038481166004830152919091169063e48a5f7b9060240161022060405180830381865afa158015610ce4573d5f5f3e3d5ffd5b505050506040513d601f19601f82011682018060405250810190610d089190613381565b610120015192915050565b60405163b6d821c760e01b81525f906001600160a01b0383169063b6d821c7906105ef90600190600401613092565b5f61051f826122eb565b6040516370a0823160e01b81526001600160a01b0382811660048301525f9190841690634cdad5069082906370a0823190602401602060405180830381865afa158015610d9b573d5f5f3e3d5ffd5b505050506040513d601f19601f82011682018060405250810190610dbf9190613067565b6040518263ffffffff1660e01b815260040161064191815260200190565b5f5f826001600160a01b0316639ef2fda06040518163ffffffff1660e01b8152600401606060405180830381865afa158015610e1b573d5f5f3e3d5ffd5b505050506040513d601f19601f82011682018060405250810190610e3f919061339c565b805190915015610e6d5780516020820151610e6390670de0b6b3a76400009061341b565b6105919190613446565b50919050565b5f5f826001600160a01b03166379502c556040518163ffffffff1660e01b8152600401602060405180830381865afa158015610eb1573d5f5f3e3d5ffd5b505050506040513d601f19601f82011682018060405250810190610ed59190613243565b60405163e48a5f7b60e01b81526001600160a01b038581166004830152919091169063e48a5f7b9060240161022060405180830381865afa158015610f1c573d5f5f3e3d5ffd5b505050506040513d601f19601f82011682018060405250810190610f409190613381565b61012001516040516364efe17760e01b81526001600160a01b038581166004830152426024830152919250908216906364efe17790604401602060405180830381865afa15801561065c573d5f5f3e3d5ffd5b5f5f5f846001600160a01b03166379502c556040518163ffffffff1660e01b8152600401602060405180830381865afa158015610fd2573d5f5f3e3d5ffd5b505050506040513d601f19601f82011682018060405250810190610ff69190613243565b6040516394c0527d60e01b81526001600160a01b03868116600483015291909116906394c0527d9060240161044060405180830381865afa15801561103d573d5f5f3e3d5ffd5b505050506040513d601f19601f820116820180604052508101906110619190613459565b604081015191935091506001600160a01b0316156110825781610160015192505b505092915050565b5f5f5f5f5f856001600160a01b03166379502c556040518163ffffffff1660e01b8152600401602060405180830381865afa1580156110cb573d5f5f3e3d5ffd5b505050506040513d601f19601f820116820180604052508101906110ef9190613243565b604051630509af0560e51b81526001600160a01b038881166004830152919091169063a135e0a090602401608060405180830381865afa158015611135573d5f5f3e3d5ffd5b505050506040513d601f19601f82011682018060405250810190611159919061348e565b9050809350819450829550505050856001600160a01b031663c45a01556040518163ffffffff1660e01b8152600401602060405180830381865afa1580156111a3573d5f5f3e3d5ffd5b505050506040513d601f19601f820116820180604052508101906111c79190613243565b604051630c0d053960e11b81526001600160a01b038881166004830152919091169063181a0a72906024016040805180830381865afa15801561120c573d5f5f3e3d5ffd5b505050506040513d601f19601f8201168201806040525081019061123091906134ce565b909790965092945090925090565b5f5f5f846001600160a01b031663aecc90cb6040518163ffffffff1660e01b81526004016040805180830381865afa15801561127c573d5f5f3e3d5ffd5b505050506040513d601f19601f820116820180604052508101906112a091906134ce565b60405163e48a5f7b60e01b81526001600160a01b0380841660048301529294509092505f9187169063e48a5f7b9060240161022060405180830381865afa1580156112ed573d5f5f3e3d5ffd5b505050506040513d601f19601f820116820180604052508101906113119190613381565b60405163e48a5f7b60e01b81526001600160a01b0384811660048301529192505f9188169063e48a5f7b9060240161022060405180830381865afa15801561135b573d5f5f3e3d5ffd5b505050506040513d601f19601f8201168201806040525081019061137f9190613381565b60a08301516040516370a0823160e01b81526001600160a01b0389811660048301529293509116906370a0823190602401602060405180830381865afa1580156113cb573d5f5f3e3d5ffd5b505050506040513d601f19601f820116820180604052508101906113ef9190613067565b1561140157600194505050505061051f565b60808201516040516370a0823160e01b81526001600160a01b038881166004830152909116906370a0823190602401602060405180830381865afa15801561144b573d5f5f3e3d5ffd5b505050506040513d601f19601f8201168201806040525081019061146f9190613067565b1561148157600194505050505061051f565b60a08101516040516370a0823160e01b81526001600160a01b038881166004830152909116906370a0823190602401602060405180830381865afa1580156114cb573d5f5f3e3d5ffd5b505050506040513d601f19601f820116820180604052508101906114ef9190613067565b1561150157600194505050505061051f565b60808101516040516370a0823160e01b81526001600160a01b038881166004830152909116906370a0823190602401602060405180830381865afa15801561154b573d5f5f3e3d5ffd5b505050506040513d601f19601f8201168201806040525081019061156f9190613067565b1561158157600194505050505061051f565b60c08201516040516370a0823160e01b81526001600160a01b038881166004830152909116906370a0823190602401602060405180830381865afa1580156115cb573d5f5f3e3d5ffd5b505050506040513d601f19601f820116820180604052508101906115ef9190613067565b1561160157600194505050505061051f565b60c08101516040516370a0823160e01b81526001600160a01b038881166004830152909116906370a0823190602401602060405180830381865afa15801561164b573d5f5f3e3d5ffd5b505050506040513d601f19601f8201168201806040525081019061166f9190613067565b1561168157600194505050505061051f565b505f9695505050505050565b5f816001600160a01b03166379502c556040518163ffffffff1660e01b8152600401602060405180830381865afa1580156116ca573d5f5f3e3d5ffd5b505050506040513d601f19601f820116820180604052508101906116ee9190613243565b60405163e48a5f7b60e01b81526001600160a01b038481166004830152919091169063e48a5f7b9060240161022060405180830381865afa158015611735573d5f5f3e3d5ffd5b505050506040513d601f19601f820116820180604052508101906117599190613381565b610160015192915050565b5f5f5f846001600160a01b03166379502c556040518163ffffffff1660e01b8152600401602060405180830381865afa1580156117a3573d5f5f3e3d5ffd5b505050506040513d601f19601f820116820180604052508101906117c79190613243565b6040516394c0527d60e01b81526001600160a01b03868116600483015291909116906394c0527d9060240161044060405180830381865afa15801561180e573d5f5f3e3d5ffd5b505050506040513d601f19601f820116820180604052508101906118329190613459565b604081015191935091506001600160a01b031615611082576118d68282865f60018660c001516001600160a01b03166370a082318b6040518263ffffffff1660e01b815260040161189291906001600160a01b0391909116815260200190565b602060405180830381865afa1580156118ad573d5f5f3e3d5ffd5b505050506040513d601f19601f820116820180604052508101906118d19190613067565b6123cc565b95945050505050565b5f5f5f5f856001600160a01b03166379502c556040518163ffffffff1660e01b8152600401602060405180830381865afa15801561191f573d5f5f3e3d5ffd5b505050506040513d601f19601f820116820180604052508101906119439190613243565b6040516394c0527d60e01b81526001600160a01b03878116600483015291909116906394c0527d9060240161044060405180830381865afa15801561198a573d5f5f3e3d5ffd5b505050506040513d601f19601f820116820180604052508101906119ae9190613459565b604081015191935091506001600160a01b031615611a1957611a0e8282875f60018660c001516001600160a01b03166370a082318c6040518263ffffffff1660e01b815260040161189291906001600160a01b0391909116815260200190565b935081610160015192505b50509250929050565b5f5f826001600160a01b031663a1ff9bee6040518163ffffffff1660e01b8152600401602060405180830381865afa158015611a60573d5f5f3e3d5ffd5b505050506040513d601f19601f82011682018060405250810190611a849190613067565b9050805f03611a9557505f92915050565b5f836001600160a01b03166379502c556040518163ffffffff1660e01b8152600401602060405180830381865afa158015611ad2573d5f5f3e3d5ffd5b505050506040513d601f19601f82011682018060405250810190611af69190613243565b60405163e48a5f7b60e01b81526001600160a01b038681166004830152919091169063e48a5f7b9060240161022060405180830381865afa158015611b3d573d5f5f3e3d5ffd5b505050506040513d601f19601f82011682018060405250810190611b619190613381565b905081846001600160a01b031663ecd658b46040518163ffffffff1660e01b8152600401602060405180830381865afa158015611ba0573d5f5f3e3d5ffd5b505050506040513d601f19601f82011682018060405250810190611bc49190613067565b611bcd86610e73565b611bd7919061341b565b611be19190613446565b60208201518251919450670de0b6b3a764000091611bff90836134fb565b611c0991906134fb565b611c13908561341b565b6109909190613446565b5f816001600160a01b03166379502c556040518163ffffffff1660e01b8152600401602060405180830381865afa158015611c5a573d5f5f3e3d5ffd5b505050506040513d601f19601f82011682018060405250810190611c7e9190613243565b60405163e48a5f7b60e01b81526001600160a01b038481166004830152919091169063e48a5f7b9060240161022060405180830381865afa158015611cc5573d5f5f3e3d5ffd5b505050506040513d601f19601f82011682018060405250810190611ce99190613381565b610140015192915050565b5f5f5f846001600160a01b03166379502c556040518163ffffffff1660e01b8152600401602060405180830381865afa158015611d33573d5f5f3e3d5ffd5b505050506040513d601f19601f82011682018060405250810190611d579190613243565b604051630483b24f60e41b81526001600160a01b038781166004830152919091169063483b24f090602401606060405180830381865afa158015611d9d573d5f5f3e3d5ffd5b505050506040513d601f19601f82011682018060405250810190611dc1919061350e565b506040516370a0823160e01b81526001600160a01b0387811660048301529294509092505f918416906370a0823190602401602060405180830381865afa158015611e0e573d5f5f3e3d5ffd5b505050506040513d601f19601f82011682018060405250810190611e329190613067565b6040516370a0823160e01b81526001600160a01b0387811660048301529192505f918416906370a0823190602401602060405180830381865afa158015611e7b573d5f5f3e3d5ffd5b505050506040513d601f19601f82011682018060405250810190611e9f9190613067565b90508115611f175760405163a7d6e44b60e01b81526001600160a01b0388169063a7d6e44b90611ed59085905f9060040161354d565b602060405180830381865afa158015611ef0573d5f5f3e3d5ffd5b505050506040513d601f19601f82011682018060405250810190611f149190613067565b94505b8015611f985760405163a7d6e44b60e01b81526001600160a01b0388169063a7d6e44b90611f4c90849060019060040161354d565b602060405180830381865afa158015611f67573d5f5f3e3d5ffd5b505050506040513d601f19601f82011682018060405250810190611f8b9190613067565b611f959086613571565b94505b5050505092915050565b6040516394c0527d60e01b81526001600160a01b0382811660048301525f9182918516906394c0527d9060240161044060405180830381865afa158015611feb573d5f5f3e3d5ffd5b505050506040513d601f19601f8201168201806040525081019061200f9190613459565b60c08101519092506001600160a01b03161580159150610990575060c08101516040516370a0823160e01b81526001600160a01b038581166004830152909116906370a0823190602401602060405180830381865afa158015612074573d5f5f3e3d5ffd5b505050506040513d601f19601f820116820180604052508101906120989190613067565b1515949350505050565b6040516394c0527d60e01b81526001600160a01b0382811660048301525f918291829182918716906394c0527d9060240161044060405180830381865afa1580156120ef573d5f5f3e3d5ffd5b505050506040513d601f19601f820116820180604052508101906121139190613459565b606082015191935091506001600160a01b0316612137575f5f9350935050506121d8565b60c08101516040516370a0823160e01b81526001600160a01b0380881660048301525f926121b992869286928b92879260019216906370a0823190602401602060405180830381865afa158015612190573d5f5f3e3d5ffd5b505050506040513d601f19601f820116820180604052508101906121b49190613067565b612423565b90506121ce81846060015184606001516126a0565b5090955093505050505b9250929050565b5f5f826001600160a01b03166379502c556040518163ffffffff1660e01b8152600401602060405180830381865afa15801561221d573d5f5f3e3d5ffd5b505050506040513d601f19601f820116820180604052508101906122419190613243565b604051630483b24f60e41b81526001600160a01b038581166004830152919091169063483b24f090602401606060405180830381865afa158015612287573d5f5f3e3d5ffd5b505050506040513d601f19601f820116820180604052508101906122ab919061350e565b92505050806001600160a01b03166318160ddd6040518163ffffffff1660e01b8152600401602060405180830381865afa15801561065c573d5f5f3e3d5ffd5b5f61051f826001600160a01b031663b6d821c760016040518263ffffffff1660e01b815260040161231c9190613092565b602060405180830381865afa158015612337573d5f5f3e3d5ffd5b505050506040513d601f19601f8201168201806040525081019061235b9190613067565b60405163b6d821c760e01b81526001600160a01b0385169063b6d821c79061238890600290600401613092565b602060405180830381865afa1580156123a3573d5f5f3e3d5ffd5b505050506040513d601f19601f820116820180604052508101906123c79190613067565b6126f6565b5f815f036123db57505f612419565b5f6123ea888888888888612423565b905080608001515f03612400575f915050612419565b61241381896060015189606001516126a0565b93505050505b9695505050505050565b6124626040518060a001604052805f6001600160a01b031681526020015f6001600160a01b031681526020015f81526020015f81526020015f81525090565b85606001516001600160a01b031687606001516001600160a01b0316146124cc5760018460018111156124975761249761307e565b146124ab578660e001518660e001516124b8565b8661010001518661010001515b6001600160a01b0390811660208401521681525b5f5f6124dd8960800151885f61270e565b80935081925050505f5f8a604001516001600160a01b031663ffbaaf7a6040518163ffffffff1660e01b81526004016040805180830381865afa158015612526573d5f5f3e3d5ffd5b505050506040513d601f19601f8201168201806040525081019061254a9190613584565b9150915061255b8382865f5f6127f6565b604086015260a08b0151612570908a5f61270e565b9450925060018760018111156125885761258861307e565b1461259357816125af565b6125af8b604001518c61012001518d5f01518e60200151612831565b91506125bf8383865f60016127f6565b606086015260c08a01516125d4908a8861270e565b945092505f60018860018111156125ed576125ed61307e565b14612667578a604001516001600160a01b031663b6d821c760026040518263ffffffff1660e01b81526004016126239190613092565b602060405180830381865afa15801561263e573d5f5f3e3d5ffd5b505050506040513d601f19601f820116820180604052508101906126629190613067565b61267a565b61267a8b604001518c6101200151612927565b905061268b848287600160026127f6565b608087015250939a9950505050505050505050565b5f5f5f6126ae868686612a1a565b9093509150821580156126bf575081155b156126d157505f9150819050806126ed565b825f036126e057505f196126ed565b6126ea8284612b70565b90505b93509350939050565b5f82821161270657818303610591565b5f9392505050565b5f5f825f036127885760405163dce5c2db60e01b81526001600160a01b03858116600483015286169063dce5c2db906024016040805180830381865afa15801561275a573d5f5f3e3d5ffd5b505050506040513d601f19601f8201168201806040525081019061277e9190613584565b90925090506127ee565b829150846001600160a01b03166318160ddd6040518163ffffffff1660e01b8152600401602060405180830381865afa1580156127c7573d5f5f3e3d5ffd5b505050506040513d601f19601f820116820180604052508101906127eb9190613067565b90505b935093915050565b5f5f5f612804878786612b86565b91509150815f036128195787925050506118d6565b61282588828488612be1565b98975050505050505050565b6040516367efe7fd60e11b81526001600160a01b0385811660048301524260248301525f91829186169063cfdfcffa90604401602060405180830381865afa92505050801561289d575060408051601f3d908101601f1916820190925261289a91810190613067565b60015b156128a55790505b5f5f876001600160a01b03166339c5c5056040518163ffffffff1660e01b81526004016040805180830381865afa1580156128e2573d5f5f3e3d5ffd5b505050506040513d601f19601f820116820180604052508101906129069190613584565b915091506129178282858989612c23565b50919a9950505050505050505050565b6040516367efe7fd60e11b81526001600160a01b0383811660048301524260248301525f91829184169063cfdfcffa90604401602060405180830381865afa925050508015612993575060408051601f3d908101601f1916820190925261299091810190613067565b60015b1561299b5790505b60405163b6d821c760e01b8152612a11906001600160a01b0386169063b6d821c7906129cc90600290600401613092565b602060405180830381865afa1580156129e7573d5f5f3e3d5ffd5b505050506040513d601f19601f82011682018060405250810190612a0b9190613067565b82612c80565b50949350505050565b5f5f5f85606001518660400151612a319190613571565b90508015612ac35785516001600160a01b0316612a4e5780612ac0565b85516040516313b0be3360e01b8152600481018390526001600160a01b038781166024830152909116906313b0be3390604401602060405180830381865afa158015612a9c573d5f5f3e3d5ffd5b505050506040513d601f19601f82011682018060405250810190612ac09190613067565b92505b608086015115612b675760208601516001600160a01b0316612ae9578560800151612b64565b602086015160808701516040516313b0be3360e01b815260048101919091526001600160a01b038681166024830152909116906313b0be3390604401602060405180830381865afa158015612b40573d5f5f3e3d5ffd5b505050506040513d601f19601f82011682018060405250810190612b649190613067565b91505b50935093915050565b5f61059183670de0b6b3a7640000846001612be1565b5f5f835f03612b93575f94505b6002836002811115612ba757612ba761307e565b14612bd257612bb86003600a613681565b612bc29085613571565b612bcd866001613571565b612bd5565b83855b90969095509350505050565b5f612c0e612bee83612cc8565b8015612c0957505f8480612c0457612c04613432565b868809115b151590565b612c19868686612cf4565b6118d69190613571565b5f5f5f5f612c318888612c80565b9093509050858501612c4c8282670de0b6b3a7640000612db1565b92505f612c5984846134fb565b90508a195f190181811015612c6c578091505b818c01965050505095509550955095915050565b5f80831580612c8d575082155b15612c9c57508290505f6121d8565b612caf8484670de0b6b3a7640000612db1565b90508084019150838210156121d8575091925f92509050565b5f6002826003811115612cdd57612cdd61307e565b612ce7919061368c565b60ff166001149050919050565b5f838302815f1985870982811083820303915050805f03612d2857838281612d1e57612d1e613432565b0492505050610591565b808411612d4657612d468415612d3f576011612df9565b6012612df9565b5f848688095f868103871696879004966002600389028118808a02820302808a02820302808a02820302808a02820302808a02820302808a02909103029181900381900460010186841190950394909402919094039290920491909117919091029150509392505050565b5f835f03612dc057505f610591565b5082820282848281612dd457612dd4613432565b0414612de157505f610591565b818181612df057612df0613432565b04949350505050565b634e487b715f52806020526024601cfd5b6001600160a01b0381168114612e1e575f5ffd5b50565b5f60208284031215612e31575f5ffd5b813561059181612e0a565b5f5f60408385031215612e4d575f5ffd5b8235612e5881612e0a565b91506020830135612e6881612e0a565b809150509250929050565b5f5f60208385031215612e84575f5ffd5b823567ffffffffffffffff811115612e9a575f5ffd5b8301601f81018513612eaa575f5ffd5b803567ffffffffffffffff811115612ec0575f5ffd5b8560208260061b8401011115612ed4575f5ffd5b6020919091019590945092505050565b602080825282518282018190525f918401906040840190835b81811015612f3057612f1a83855180518252602090810151910152565b6020939093019260409290920191600101612efd565b509095945050505050565b5f5f60208385031215612f4c575f5ffd5b823567ffffffffffffffff811115612f62575f5ffd5b8301601f81018513612f72575f5ffd5b803567ffffffffffffffff811115612f88575f5ffd5b8560208260051b8401011115612ed4575f5ffd5b602080825282518282018190525f918401906040840190835b81811015612f3057612fd283855180518252602090810151910152565b6020939093019260409290920191600101612fb5565b602080825282518282018190525f918401906040840190835b81811015612f30578351835260209384019390920191600101613001565b5f5f5f60608486031215613031575f5ffd5b833561303c81612e0a565b9250602084013561304c81612e0a565b9150604084013561305c81612e0a565b809150509250925092565b5f60208284031215613077575f5ffd5b5051919050565b634e487b7160e01b5f52602160045260245ffd5b60208101600383106130a6576130a661307e565b91905290565b634e487b7160e01b5f52604160045260245ffd5b634e487b7160e01b5f52603260045260245ffd5b604051610220810167ffffffffffffffff8111828210171561310457634e487b7160e01b5f52604160045260245ffd5b60405290565b5f604082840312801561311b575f5ffd5b506040805190810167ffffffffffffffff8111828210171561314b57634e487b7160e01b5f52604160045260245ffd5b604052823561315981612e0a565b8152602083013561316981612e0a565b60208201529392505050565b80518015158114613184575f5ffd5b919050565b5f60208284031215613199575f5ffd5b61059182613175565b5f5f5f606084860312156131b4575f5ffd5b8351602085015190935091506131cc60408501613175565b90509250925092565b805167ffffffffffffffff81168114613184575f5ffd5b5f5f5f5f5f60a08688031215613200575f5ffd5b85516001600160c01b0381168114613216575f5ffd5b9450613224602087016131d5565b6040870151606088015160809098015196999198509695945092505050565b5f60208284031215613253575f5ffd5b815161059181612e0a565b805161318481612e0a565b5f610220828403121561327a575f5ffd5b6132826130d4565b8251815260208084015190820152905061329e6040830161325e565b60408201526132af6060830161325e565b60608201526132c06080830161325e565b60808201526132d160a0830161325e565b60a08201526132e260c0830161325e565b60c08201526132f360e0830161325e565b60e0820152613305610100830161325e565b610100820152613318610120830161325e565b6101208201526101408281015190820152610160808301519082015261018080830151908201526101a080830151908201526101c080830151908201526133626101e0830161325e565b6101e08201526133756102008301613175565b61020082015292915050565b5f6102208284031215613392575f5ffd5b6105918383613269565b5f60608284031280156133ad575f5ffd5b506040516060810167ffffffffffffffff811182821017156133dd57634e487b7160e01b5f52604160045260245ffd5b604090815283518252602080850151908301526133fb9084016131d5565b60408201529392505050565b634e487b7160e01b5f52601160045260245ffd5b808202811582820484141761051f5761051f613407565b634e487b7160e01b5f52601260045260245ffd5b5f8261345457613454613432565b500490565b5f5f610440838503121561346b575f5ffd5b6134758484613269565b9150613485846102208501613269565b90509250929050565b5f5f5f5f608085870312156134a1575f5ffd5b845160208601516040870151606088015192965090945092506134c381612e0a565b939692955090935050565b5f5f604083850312156134df575f5ffd5b82516134ea81612e0a565b6020840151909250612e6881612e0a565b8181038181111561051f5761051f613407565b5f5f5f60608486031215613520575f5ffd5b835161352b81612e0a565b602085015190935061353c81612e0a565b604085015190925061305c81612e0a565b82815260408101600283106135645761356461307e565b8260208301529392505050565b8082018082111561051f5761051f613407565b5f5f60408385031215613595575f5ffd5b505080516020909101519092909150565b6001815b60018411156127ee578085048111156135c5576135c5613407565b60018416156135d357908102905b60019390931c9280026135aa565b5f826135ef5750600161051f565b816135fb57505f61051f565b8160018114613611576002811461361b57613637565b600191505061051f565b60ff84111561362c5761362c613407565b50506001821b61051f565b5060208310610133831016604e8410600b841016171561365a575081810a61051f565b6136665f1984846135a6565b805f190482111561367957613679613407565b029392505050565b5f61059183836135e1565b5f60ff83168061369e5761369e613432565b8060ff8416069150509291505056fea26469706673582212200ebb9e840df207b211cb56f4fc73b7894d2c5a0daf502810d4077d6e4b73428164736f6c634300081c0033",
  "language": "Solidity",
  "compiler": "0.8.29+commit.7893614a"
}