{
  "address": "0x9e286a90Dcb47cA24d6dC50842839a1a61B8Dc38",
  "abi": [
    {
      "inputs": [
        {
          "internalType": "contract ISilo",
          "name": "_silo",
          "type": "address"
        },
        {
          "internalType": "address",
          "name": "_borrower",
          "type": "address"
        }
      ],
      "name": "borrowShare",
      "outputs": [
        {
          "internalType": "uint256",
          "name": "",
          "type": "uint256"
        }
      ],
      "stateMutability": "view",
      "type": "function"
    },
    {
      "inputs": [
        {
          "internalType": "contract ISiloConfig",
          "name": "_siloConfig",
          "type": "address"
        },
        {
          "internalType": "address",
          "name": "_borrower",
          "type": "address"
        }
      ],
      "name": "calculateBorrowValue",
      "outputs": [
        {
          "internalType": "uint256",
          "name": "borrowValue",
          "type": "uint256"
        }
      ],
      "stateMutability": "view",
      "type": "function"
    },
    {
      "inputs": [
        {
          "internalType": "contract ISiloConfig",
          "name": "_siloConfig",
          "type": "address"
        },
        {
          "internalType": "address",
          "name": "_borrower",
          "type": "address"
        }
      ],
      "name": "calculateCollateralValue",
      "outputs": [
        {
          "internalType": "uint256",
          "name": "collateralValue",
          "type": "uint256"
        }
      ],
      "stateMutability": "view",
      "type": "function"
    },
    {
      "inputs": [
        {
          "internalType": "contract ISilo",
          "name": "_silo",
          "type": "address"
        },
        {
          "internalType": "address",
          "name": "_borrower",
          "type": "address"
        }
      ],
      "name": "collateralBalanceOfUnderlying",
      "outputs": [
        {
          "internalType": "uint256",
          "name": "borrowerCollateral",
          "type": "uint256"
        }
      ],
      "stateMutability": "view",
      "type": "function"
    },
    {
      "inputs": [
        {
          "internalType": "contract ISilo",
          "name": "_silo",
          "type": "address"
        }
      ],
      "name": "collateralOnlyDeposits",
      "outputs": [
        {
          "internalType": "uint256",
          "name": "",
          "type": "uint256"
        }
      ],
      "stateMutability": "view",
      "type": "function"
    },
    {
      "inputs": [
        {
          "internalType": "contract ISilo",
          "name": "_silo",
          "type": "address"
        },
        {
          "internalType": "address",
          "name": "_borrower",
          "type": "address"
        }
      ],
      "name": "debtBalanceOfUnderlying",
      "outputs": [
        {
          "internalType": "uint256",
          "name": "",
          "type": "uint256"
        }
      ],
      "stateMutability": "view",
      "type": "function"
    },
    {
      "inputs": [
        {
          "internalType": "contract ISilo",
          "name": "_silo",
          "type": "address"
        }
      ],
      "name": "getBorrowAPR",
      "outputs": [
        {
          "internalType": "uint256",
          "name": "borrowAPR",
          "type": "uint256"
        }
      ],
      "stateMutability": "view",
      "type": "function"
    },
    {
      "inputs": [
        {
          "internalType": "contract ISilo",
          "name": "_silo",
          "type": "address"
        },
        {
          "internalType": "address",
          "name": "_borrower",
          "type": "address"
        }
      ],
      "name": "getBorrowAmount",
      "outputs": [
        {
          "internalType": "uint256",
          "name": "maxRepay",
          "type": "uint256"
        }
      ],
      "stateMutability": "view",
      "type": "function"
    },
    {
      "inputs": [
        {
          "internalType": "contract ISilo",
          "name": "_silo",
          "type": "address"
        }
      ],
      "name": "getDepositAPR",
      "outputs": [
        {
          "internalType": "uint256",
          "name": "depositAPR",
          "type": "uint256"
        }
      ],
      "stateMutability": "view",
      "type": "function"
    },
    {
      "inputs": [
        {
          "internalType": "contract ISilo",
          "name": "_silo",
          "type": "address"
        },
        {
          "internalType": "address",
          "name": "_borrower",
          "type": "address"
        }
      ],
      "name": "getDepositAmount",
      "outputs": [
        {
          "internalType": "uint256",
          "name": "borrowerDeposits",
          "type": "uint256"
        }
      ],
      "stateMutability": "view",
      "type": "function"
    },
    {
      "inputs": [
        {
          "internalType": "contract ISilo",
          "name": "_silo",
          "type": "address"
        }
      ],
      "name": "getFeesAndFeeReceivers",
      "outputs": [
        {
          "internalType": "address",
          "name": "daoFeeReceiver",
          "type": "address"
        },
        {
          "internalType": "address",
          "name": "deployerFeeReceiver",
          "type": "address"
        },
        {
          "internalType": "uint256",
          "name": "daoFee",
          "type": "uint256"
        },
        {
          "internalType": "uint256",
          "name": "deployerFee",
          "type": "uint256"
        }
      ],
      "stateMutability": "view",
      "type": "function"
    },
    {
      "inputs": [
        {
          "internalType": "contract ISilo",
          "name": "_silo",
          "type": "address"
        }
      ],
      "name": "getInterestRateModel",
      "outputs": [
        {
          "internalType": "address",
          "name": "irm",
          "type": "address"
        }
      ],
      "stateMutability": "view",
      "type": "function"
    },
    {
      "inputs": [
        {
          "internalType": "contract ISilo",
          "name": "_silo",
          "type": "address"
        }
      ],
      "name": "getLt",
      "outputs": [
        {
          "internalType": "uint256",
          "name": "lt",
          "type": "uint256"
        }
      ],
      "stateMutability": "view",
      "type": "function"
    },
    {
      "inputs": [
        {
          "internalType": "contract ISilo",
          "name": "_silo",
          "type": "address"
        },
        {
          "internalType": "address",
          "name": "_borrower",
          "type": "address"
        }
      ],
      "name": "getLtv",
      "outputs": [
        {
          "internalType": "uint256",
          "name": "ltv",
          "type": "uint256"
        }
      ],
      "stateMutability": "view",
      "type": "function"
    },
    {
      "inputs": [
        {
          "internalType": "contract ISilo",
          "name": "_silo",
          "type": "address"
        }
      ],
      "name": "getMaxLtv",
      "outputs": [
        {
          "internalType": "uint256",
          "name": "maxLtv",
          "type": "uint256"
        }
      ],
      "stateMutability": "view",
      "type": "function"
    },
    {
      "inputs": [
        {
          "internalType": "contract ISilo",
          "name": "_silo",
          "type": "address"
        }
      ],
      "name": "getModel",
      "outputs": [
        {
          "internalType": "contract IInterestRateModel",
          "name": "irm",
          "type": "address"
        }
      ],
      "stateMutability": "view",
      "type": "function"
    },
    {
      "inputs": [
        {
          "internalType": "contract ISilo",
          "name": "_silo",
          "type": "address"
        }
      ],
      "name": "getRawLiquidity",
      "outputs": [
        {
          "internalType": "uint256",
          "name": "liquidity",
          "type": "uint256"
        }
      ],
      "stateMutability": "view",
      "type": "function"
    },
    {
      "inputs": [
        {
          "internalType": "contract ISilo",
          "name": "_silo",
          "type": "address"
        },
        {
          "internalType": "address",
          "name": "_borrower",
          "type": "address"
        }
      ],
      "name": "getUserLT",
      "outputs": [
        {
          "internalType": "uint256",
          "name": "userLT",
          "type": "uint256"
        }
      ],
      "stateMutability": "view",
      "type": "function"
    },
    {
      "inputs": [
        {
          "internalType": "contract ISilo",
          "name": "_silo",
          "type": "address"
        },
        {
          "internalType": "address",
          "name": "_borrower",
          "type": "address"
        }
      ],
      "name": "getUserLTV",
      "outputs": [
        {
          "internalType": "uint256",
          "name": "userLTV",
          "type": "uint256"
        }
      ],
      "stateMutability": "view",
      "type": "function"
    },
    {
      "inputs": [
        {
          "components": [
            {
              "internalType": "contract ISilo",
              "name": "silo",
              "type": "address"
            },
            {
              "internalType": "address",
              "name": "wallet",
              "type": "address"
            }
          ],
          "internalType": "struct ISiloLens.Borrower[]",
          "name": "_borrowers",
          "type": "tuple[]"
        }
      ],
      "name": "getUsersHealth",
      "outputs": [
        {
          "components": [
            {
              "internalType": "uint256",
              "name": "lt",
              "type": "uint256"
            },
            {
              "internalType": "uint256",
              "name": "ltv",
              "type": "uint256"
            }
          ],
          "internalType": "struct ISiloLens.BorrowerHealth[]",
          "name": "healths",
          "type": "tuple[]"
        }
      ],
      "stateMutability": "view",
      "type": "function"
    },
    {
      "inputs": [
        {
          "components": [
            {
              "internalType": "contract ISilo",
              "name": "silo",
              "type": "address"
            },
            {
              "internalType": "address",
              "name": "wallet",
              "type": "address"
            }
          ],
          "internalType": "struct ISiloLens.Borrower[]",
          "name": "_borrowers",
          "type": "tuple[]"
        }
      ],
      "name": "getUsersLT",
      "outputs": [
        {
          "internalType": "uint256[]",
          "name": "usersLTs",
          "type": "uint256[]"
        }
      ],
      "stateMutability": "view",
      "type": "function"
    },
    {
      "inputs": [
        {
          "internalType": "contract ISilo",
          "name": "_silo",
          "type": "address"
        }
      ],
      "name": "getUtilization",
      "outputs": [
        {
          "internalType": "uint256",
          "name": "",
          "type": "uint256"
        }
      ],
      "stateMutability": "view",
      "type": "function"
    },
    {
      "inputs": [
        {
          "internalType": "contract ISiloConfig",
          "name": "_siloConfig",
          "type": "address"
        },
        {
          "internalType": "address",
          "name": "_borrower",
          "type": "address"
        }
      ],
      "name": "hasPosition",
      "outputs": [
        {
          "internalType": "bool",
          "name": "has",
          "type": "bool"
        }
      ],
      "stateMutability": "view",
      "type": "function"
    },
    {
      "inputs": [
        {
          "internalType": "contract ISiloConfig",
          "name": "_siloConfig",
          "type": "address"
        },
        {
          "internalType": "address",
          "name": "_borrower",
          "type": "address"
        }
      ],
      "name": "inDebt",
      "outputs": [
        {
          "internalType": "bool",
          "name": "hasDebt",
          "type": "bool"
        }
      ],
      "stateMutability": "view",
      "type": "function"
    },
    {
      "inputs": [
        {
          "internalType": "contract ISilo",
          "name": "_silo",
          "type": "address"
        },
        {
          "internalType": "address",
          "name": "_borrower",
          "type": "address"
        }
      ],
      "name": "isSolvent",
      "outputs": [
        {
          "internalType": "bool",
          "name": "",
          "type": "bool"
        }
      ],
      "stateMutability": "view",
      "type": "function"
    },
    {
      "inputs": [
        {
          "internalType": "contract ISilo",
          "name": "_silo",
          "type": "address"
        }
      ],
      "name": "liquidity",
      "outputs": [
        {
          "internalType": "uint256",
          "name": "",
          "type": "uint256"
        }
      ],
      "stateMutability": "view",
      "type": "function"
    },
    {
      "inputs": [
        {
          "internalType": "contract ISilo",
          "name": "_silo",
          "type": "address"
        },
        {
          "internalType": "contract IPartialLiquidation",
          "name": "_hook",
          "type": "address"
        },
        {
          "internalType": "address",
          "name": "_borrower",
          "type": "address"
        }
      ],
      "name": "maxLiquidation",
      "outputs": [
        {
          "internalType": "uint256",
          "name": "collateralToLiquidate",
          "type": "uint256"
        },
        {
          "internalType": "uint256",
          "name": "debtToRepay",
          "type": "uint256"
        },
        {
          "internalType": "bool",
          "name": "sTokenRequired",
          "type": "bool"
        },
        {
          "internalType": "bool",
          "name": "fullLiquidation",
          "type": "bool"
        }
      ],
      "stateMutability": "view",
      "type": "function"
    },
    {
      "inputs": [
        {
          "internalType": "contract ISilo",
          "name": "_silo",
          "type": "address"
        }
      ],
      "name": "protocolFees",
      "outputs": [
        {
          "internalType": "uint256",
          "name": "daoAndDeployerRevenue",
          "type": "uint256"
        }
      ],
      "stateMutability": "view",
      "type": "function"
    },
    {
      "inputs": [
        {
          "internalType": "contract ISilo",
          "name": "_silo",
          "type": "address"
        }
      ],
      "name": "totalBorrowAmount",
      "outputs": [
        {
          "internalType": "uint256",
          "name": "",
          "type": "uint256"
        }
      ],
      "stateMutability": "view",
      "type": "function"
    },
    {
      "inputs": [
        {
          "internalType": "contract ISilo",
          "name": "_silo",
          "type": "address"
        }
      ],
      "name": "totalBorrowAmountWithInterest",
      "outputs": [
        {
          "internalType": "uint256",
          "name": "totalBorrowAmount",
          "type": "uint256"
        }
      ],
      "stateMutability": "view",
      "type": "function"
    },
    {
      "inputs": [
        {
          "internalType": "contract ISilo",
          "name": "_silo",
          "type": "address"
        }
      ],
      "name": "totalBorrowShare",
      "outputs": [
        {
          "internalType": "uint256",
          "name": "",
          "type": "uint256"
        }
      ],
      "stateMutability": "view",
      "type": "function"
    },
    {
      "inputs": [
        {
          "internalType": "contract ISilo",
          "name": "_silo",
          "type": "address"
        }
      ],
      "name": "totalDeposits",
      "outputs": [
        {
          "internalType": "uint256",
          "name": "totalDeposits",
          "type": "uint256"
        }
      ],
      "stateMutability": "view",
      "type": "function"
    },
    {
      "inputs": [
        {
          "internalType": "contract ISilo",
          "name": "_silo",
          "type": "address"
        }
      ],
      "name": "totalDepositsWithInterest",
      "outputs": [
        {
          "internalType": "uint256",
          "name": "totalDeposits",
          "type": "uint256"
        }
      ],
      "stateMutability": "view",
      "type": "function"
    },
    {
      "inputs": [],
      "name": "InvalidAsset",
      "type": "error"
    }
  ],
  "bytecode": "0x6080604052348015600e575f5ffd5b5061350f8061001c5f395ff3fe608060405234801561000f575f5ffd5b50600436106101f1575f3560e01c8063868682cb11610114578063d9bd0ea2116100a9578063e940325611610079578063e94032561461049e578063f2a07bc9146104b1578063f45b1b3a146104c4578063f5125d3f146102db578063fdce8643146104d7575f5ffd5b8063d9bd0ea2146102c8578063dcf844a714610465578063dd718ab414610478578063e21872181461048b575f5ffd5b80639bbafd53116100e45780639bbafd53146103f1578063aab2353a14610404578063b1ff4d6c1461043f578063b8c876b114610452575f5ffd5b8063868682cb146103985780638705c359146103ab5780638ec109da146103be5780639848b19c146103d1575f5ffd5b806343afdad21161018a578063590630f01161015a578063590630f01461034c578063647e0c201461035f5780636c15c9ba1461037257806374cd15f314610385575f5ffd5b806343afdad2146102db578063480defa9146102ee5780634f6a57b61461030e57806354a0577114610321575f5ffd5b806324bc00b0116101c557806324bc00b01461027f57806336e49658146102a257806337febff4146102b557806338bad5e5146102c8575f5ffd5b8062e0f7a0146101f557806306b39a771461021b5780631fe022691461022e578063249a649614610241575b5f5ffd5b610208610203366004612d03565b6104ea565b6040519081526020015b60405180910390f35b610208610229366004612d03565b6104fa565b61020861023c366004612d1e565b61055b565b61025461024f366004612d03565b61056d565b604080516001600160a01b039586168152949093166020850152918301526060820152608001610212565b61029261028d366004612d1e565b61058a565b6040519015158152602001610212565b6102086102b0366004612d03565b610595565b6102086102c3366004612d03565b6105df565b6102086102d6366004612d1e565b6105e9565b6102086102e9366004612d1e565b610655565b6103016102fc366004612d55565b610660565b6040516102129190612dc6565b61020861031c366004612d03565b61073d565b61033461032f366004612d03565b610747565b6040516001600160a01b039091168152602001610212565b61029261035a366004612d1e565b610751565b61020861036d366004612d03565b6107bc565b610208610380366004612d1e565b6107c6565b610208610393366004612d03565b6107d1565b6102086103a6366004612d1e565b61080e565b6102926103b9366004612d1e565b61086e565b6102086103cc366004612d1e565b610879565b6103e46103df366004612d55565b61088c565b6040516102129190612e14565b6102086103ff366004612d03565b61093f565b610417610412366004612e4b565b61096d565b6040805194855260208501939093529015159183019190915215156060820152608001610212565b61020861044d366004612d03565b610a60565b610208610460366004612d03565b610a6a565b610208610473366004612d03565b610aa7565b610208610486366004612d1e565b610b1d565b610334610499366004612d03565b610b30565b6102086104ac366004612d03565b610c07565b6102086104bf366004612d03565b610c36565b6102086104d2366004612d1e565b610c40565b6102086104e5366004612d03565b610cd1565b5f6104f482610d5b565b92915050565b5f816001600160a01b03166301e1d1146040518163ffffffff1660e01b8152600401602060405180830381865afa158015610537573d5f5f3e3d5ffd5b505050506040513d601f19601f820116820180604052508101906104f49190612e93565b5f6105668383610e7b565b9392505050565b5f5f5f5f61057a85610f72565b5092989197509550909350915050565b5f6105668383611126565b60405163b6d821c760e01b81525f906001600160a01b0383169063b6d821c7906105c490600290600401612ebe565b602060405180830381865afa158015610537573d5f5f3e3d5ffd5b5f6104f482611575565b604051635f30114960e01b81526001600160a01b0382811660048301525f9190841690635f301149906024015b602060405180830381865afa158015610631573d5f5f3e3d5ffd5b505050506040513d601f19601f820116820180604052508101906105669190612e93565b5f610566838361164c565b60608167ffffffffffffffff81111561067b5761067b612ed8565b6040519080825280602002602001820160405280156106bf57816020015b604080518082019091525f80825260208201528152602001906001900390816106995790505b5090505f5b82811015610736575f8484838181106106df576106df612eec565b9050604002018036038101906106f59190612f36565b90505f83838151811061070a5761070a612eec565b60200260200101519050610725825f015183602001516117c7565b8252602090910152506001016106c4565b5092915050565b5f6104f48261190a565b5f6104f482610b30565b6040516338b51ce160e01b81526001600160a01b0382811660048301525f91908416906338b51ce190602401602060405180830381865afa158015610798573d5f5f3e3d5ffd5b505050506040513d601f19601f820116820180604052508101906105669190612fb5565b5f6104f482611b05565b5f6105668383611bdc565b5f816001600160a01b031663ecd658b46040518163ffffffff1660e01b8152600401602060405180830381865afa158015610537573d5f5f3e3d5ffd5b60405163c99ee7b760e01b81526001600160a01b038084166004830152821660248201525f9073__$89d37a64e3ccc21ed0741d2ae8390c2e12$__9063c99ee7b790604401602060405180830381865af4158015610631573d5f5f3e3d5ffd5b5f6105668383611e8a565b5f6108848383611f8f565b949350505050565b60608167ffffffffffffffff8111156108a7576108a7612ed8565b6040519080825280602002602001820160405280156108d0578160200160208202803683370190505b5090505f5b82811015610736575f8484838181106108f0576108f0612eec565b9050604002018036038101906109069190612f36565b9050610919815f01518260200151610e7b565b83838151811061092b5761092b612eec565b6020908102919091010152506001016108d5565b60405163b6d821c760e01b81525f906001600160a01b0383169063b6d821c7906105c4908490600401612ebe565b6040516317a05b0960e31b81526001600160a01b0382811660048301525f9182918291829187169063bd02d84890602401606060405180830381865afa1580156109b9573d5f5f3e3d5ffd5b505050506040513d601f19601f820116820180604052508101906109dd9190612fce565b604051635f30114960e01b81526001600160a01b03898116600483015293975091955093505f91891690635f30114990602401602060405180830381865afa158015610a2b573d5f5f3e3d5ffd5b505050506040513d601f19601f82011682018060405250810190610a4f9190612e93565b905083811491505093509350935093565b5f6104f4826120b5565b5f816001600160a01b0316630910a5106040518163ffffffff1660e01b8152600401602060405180830381865afa158015610537573d5f5f3e3d5ffd5b5f816001600160a01b0316639d35abaf6040518163ffffffff1660e01b815260040160a060405180830381865afa158015610ae4573d5f5f3e3d5ffd5b505050506040513d601f19601f82011682018060405250810190610b089190613018565b50506001600160c01b03909216949350505050565b5f610b288383611f8f565b509392505050565b5f816001600160a01b03166379502c556040518163ffffffff1660e01b8152600401602060405180830381865afa158015610b6d573d5f5f3e3d5ffd5b505050506040513d601f19601f82011682018060405250810190610b91919061306f565b60405163e48a5f7b60e01b81526001600160a01b038481166004830152919091169063e48a5f7b9060240161022060405180830381865afa158015610bd8573d5f5f3e3d5ffd5b505050506040513d601f19601f82011682018060405250810190610bfc91906131ad565b610120015192915050565b60405163b6d821c760e01b81525f906001600160a01b0383169063b6d821c7906105c490600190600401612ebe565b5f6104f4826121c1565b6040516370a0823160e01b81526001600160a01b0382811660048301525f9190841690634cdad5069082906370a0823190602401602060405180830381865afa158015610c8f573d5f5f3e3d5ffd5b505050506040513d601f19601f82011682018060405250810190610cb39190612e93565b6040518263ffffffff1660e01b815260040161061691815260200190565b5f5f826001600160a01b0316639ef2fda06040518163ffffffff1660e01b8152600401606060405180830381865afa158015610d0f573d5f5f3e3d5ffd5b505050506040513d601f19601f82011682018060405250810190610d3391906131c8565b9050805f0151670de0b6b3a76400008260200151610d519190613247565b6105669190613272565b5f5f826001600160a01b03166379502c556040518163ffffffff1660e01b8152600401602060405180830381865afa158015610d99573d5f5f3e3d5ffd5b505050506040513d601f19601f82011682018060405250810190610dbd919061306f565b60405163e48a5f7b60e01b81526001600160a01b038581166004830152919091169063e48a5f7b9060240161022060405180830381865afa158015610e04573d5f5f3e3d5ffd5b505050506040513d601f19601f82011682018060405250810190610e2891906131ad565b61012001516040516364efe17760e01b81526001600160a01b038581166004830152426024830152919250908216906364efe17790604401602060405180830381865afa158015610631573d5f5f3e3d5ffd5b5f5f5f846001600160a01b03166379502c556040518163ffffffff1660e01b8152600401602060405180830381865afa158015610eba573d5f5f3e3d5ffd5b505050506040513d601f19601f82011682018060405250810190610ede919061306f565b6040516394c0527d60e01b81526001600160a01b03868116600483015291909116906394c0527d9060240161044060405180830381865afa158015610f25573d5f5f3e3d5ffd5b505050506040513d601f19601f82011682018060405250810190610f499190613285565b604081015191935091506001600160a01b031615610f6a5781610160015192505b505092915050565b5f5f5f5f5f856001600160a01b03166379502c556040518163ffffffff1660e01b8152600401602060405180830381865afa158015610fb3573d5f5f3e3d5ffd5b505050506040513d601f19601f82011682018060405250810190610fd7919061306f565b604051630509af0560e51b81526001600160a01b038881166004830152919091169063a135e0a090602401608060405180830381865afa15801561101d573d5f5f3e3d5ffd5b505050506040513d601f19601f8201168201806040525081019061104191906132ba565b9050809350819450829550505050856001600160a01b031663c45a01556040518163ffffffff1660e01b8152600401602060405180830381865afa15801561108b573d5f5f3e3d5ffd5b505050506040513d601f19601f820116820180604052508101906110af919061306f565b604051630c0d053960e11b81526001600160a01b038881166004830152919091169063181a0a72906024016040805180830381865afa1580156110f4573d5f5f3e3d5ffd5b505050506040513d601f19601f8201168201806040525081019061111891906132fa565b909790965092945090925090565b5f5f5f846001600160a01b031663aecc90cb6040518163ffffffff1660e01b81526004016040805180830381865afa158015611164573d5f5f3e3d5ffd5b505050506040513d601f19601f8201168201806040525081019061118891906132fa565b60405163e48a5f7b60e01b81526001600160a01b0380841660048301529294509092505f9187169063e48a5f7b9060240161022060405180830381865afa1580156111d5573d5f5f3e3d5ffd5b505050506040513d601f19601f820116820180604052508101906111f991906131ad565b60405163e48a5f7b60e01b81526001600160a01b0384811660048301529192505f9188169063e48a5f7b9060240161022060405180830381865afa158015611243573d5f5f3e3d5ffd5b505050506040513d601f19601f8201168201806040525081019061126791906131ad565b60a08301516040516370a0823160e01b81526001600160a01b0389811660048301529293509116906370a0823190602401602060405180830381865afa1580156112b3573d5f5f3e3d5ffd5b505050506040513d601f19601f820116820180604052508101906112d79190612e93565b156112e95760019450505050506104f4565b60808201516040516370a0823160e01b81526001600160a01b038881166004830152909116906370a0823190602401602060405180830381865afa158015611333573d5f5f3e3d5ffd5b505050506040513d601f19601f820116820180604052508101906113579190612e93565b156113695760019450505050506104f4565b60a08101516040516370a0823160e01b81526001600160a01b038881166004830152909116906370a0823190602401602060405180830381865afa1580156113b3573d5f5f3e3d5ffd5b505050506040513d601f19601f820116820180604052508101906113d79190612e93565b156113e95760019450505050506104f4565b60808101516040516370a0823160e01b81526001600160a01b038881166004830152909116906370a0823190602401602060405180830381865afa158015611433573d5f5f3e3d5ffd5b505050506040513d601f19601f820116820180604052508101906114579190612e93565b156114695760019450505050506104f4565b60c08201516040516370a0823160e01b81526001600160a01b038881166004830152909116906370a0823190602401602060405180830381865afa1580156114b3573d5f5f3e3d5ffd5b505050506040513d601f19601f820116820180604052508101906114d79190612e93565b156114e95760019450505050506104f4565b60c08101516040516370a0823160e01b81526001600160a01b038881166004830152909116906370a0823190602401602060405180830381865afa158015611533573d5f5f3e3d5ffd5b505050506040513d601f19601f820116820180604052508101906115579190612e93565b156115695760019450505050506104f4565b505f9695505050505050565b5f816001600160a01b03166379502c556040518163ffffffff1660e01b8152600401602060405180830381865afa1580156115b2573d5f5f3e3d5ffd5b505050506040513d601f19601f820116820180604052508101906115d6919061306f565b60405163e48a5f7b60e01b81526001600160a01b038481166004830152919091169063e48a5f7b9060240161022060405180830381865afa15801561161d573d5f5f3e3d5ffd5b505050506040513d601f19601f8201168201806040525081019061164191906131ad565b610160015192915050565b5f5f5f846001600160a01b03166379502c556040518163ffffffff1660e01b8152600401602060405180830381865afa15801561168b573d5f5f3e3d5ffd5b505050506040513d601f19601f820116820180604052508101906116af919061306f565b6040516394c0527d60e01b81526001600160a01b03868116600483015291909116906394c0527d9060240161044060405180830381865afa1580156116f6573d5f5f3e3d5ffd5b505050506040513d601f19601f8201168201806040525081019061171a9190613285565b604081015191935091506001600160a01b031615610f6a576117be8282865f60018660c001516001600160a01b03166370a082318b6040518263ffffffff1660e01b815260040161177a91906001600160a01b0391909116815260200190565b602060405180830381865afa158015611795573d5f5f3e3d5ffd5b505050506040513d601f19601f820116820180604052508101906117b99190612e93565b6122a2565b95945050505050565b5f5f5f5f856001600160a01b03166379502c556040518163ffffffff1660e01b8152600401602060405180830381865afa158015611807573d5f5f3e3d5ffd5b505050506040513d601f19601f8201168201806040525081019061182b919061306f565b6040516394c0527d60e01b81526001600160a01b03878116600483015291909116906394c0527d9060240161044060405180830381865afa158015611872573d5f5f3e3d5ffd5b505050506040513d601f19601f820116820180604052508101906118969190613285565b604081015191935091506001600160a01b031615611901576118f68282875f60018660c001516001600160a01b03166370a082318c6040518263ffffffff1660e01b815260040161177a91906001600160a01b0391909116815260200190565b935081610160015192505b50509250929050565b5f5f826001600160a01b031663a1ff9bee6040518163ffffffff1660e01b8152600401602060405180830381865afa158015611948573d5f5f3e3d5ffd5b505050506040513d601f19601f8201168201806040525081019061196c9190612e93565b9050805f0361197d57505f92915050565b5f836001600160a01b03166379502c556040518163ffffffff1660e01b8152600401602060405180830381865afa1580156119ba573d5f5f3e3d5ffd5b505050506040513d601f19601f820116820180604052508101906119de919061306f565b60405163e48a5f7b60e01b81526001600160a01b038681166004830152919091169063e48a5f7b9060240161022060405180830381865afa158015611a25573d5f5f3e3d5ffd5b505050506040513d601f19601f82011682018060405250810190611a4991906131ad565b905081846001600160a01b031663ecd658b46040518163ffffffff1660e01b8152600401602060405180830381865afa158015611a88573d5f5f3e3d5ffd5b505050506040513d601f19601f82011682018060405250810190611aac9190612e93565b611ab586610d5b565b611abf9190613247565b611ac99190613272565b60208201518251919450670de0b6b3a764000091611ae79083613327565b611af19190613327565b611afb9085613247565b6108849190613272565b5f816001600160a01b03166379502c556040518163ffffffff1660e01b8152600401602060405180830381865afa158015611b42573d5f5f3e3d5ffd5b505050506040513d601f19601f82011682018060405250810190611b66919061306f565b60405163e48a5f7b60e01b81526001600160a01b038481166004830152919091169063e48a5f7b9060240161022060405180830381865afa158015611bad573d5f5f3e3d5ffd5b505050506040513d601f19601f82011682018060405250810190611bd191906131ad565b610140015192915050565b5f5f5f846001600160a01b03166379502c556040518163ffffffff1660e01b8152600401602060405180830381865afa158015611c1b573d5f5f3e3d5ffd5b505050506040513d601f19601f82011682018060405250810190611c3f919061306f565b604051630483b24f60e41b81526001600160a01b038781166004830152919091169063483b24f090602401606060405180830381865afa158015611c85573d5f5f3e3d5ffd5b505050506040513d601f19601f82011682018060405250810190611ca9919061333a565b506040516370a0823160e01b81526001600160a01b0387811660048301529294509092505f918416906370a0823190602401602060405180830381865afa158015611cf6573d5f5f3e3d5ffd5b505050506040513d601f19601f82011682018060405250810190611d1a9190612e93565b6040516370a0823160e01b81526001600160a01b0387811660048301529192505f918416906370a0823190602401602060405180830381865afa158015611d63573d5f5f3e3d5ffd5b505050506040513d601f19601f82011682018060405250810190611d879190612e93565b90508115611dff5760405163a7d6e44b60e01b81526001600160a01b0388169063a7d6e44b90611dbd9085905f90600401613379565b602060405180830381865afa158015611dd8573d5f5f3e3d5ffd5b505050506040513d601f19601f82011682018060405250810190611dfc9190612e93565b94505b8015611e805760405163a7d6e44b60e01b81526001600160a01b0388169063a7d6e44b90611e34908490600190600401613379565b602060405180830381865afa158015611e4f573d5f5f3e3d5ffd5b505050506040513d601f19601f82011682018060405250810190611e739190612e93565b611e7d908661339d565b94505b5050505092915050565b6040516394c0527d60e01b81526001600160a01b0382811660048301525f9182918291908616906394c0527d9060240161044060405180830381865afa158015611ed6573d5f5f3e3d5ffd5b505050506040513d601f19601f82011682018060405250810190611efa9190613285565b60c081015191935091506001600160a01b0316158015906117be575060c08101516040516370a0823160e01b81526001600160a01b038681166004830152909116906370a0823190602401602060405180830381865afa158015611f60573d5f5f3e3d5ffd5b505050506040513d601f19601f82011682018060405250810190611f849190612e93565b151595945050505050565b6040516394c0527d60e01b81526001600160a01b0382811660048301525f918291829182918716906394c0527d9060240161044060405180830381865afa158015611fdc573d5f5f3e3d5ffd5b505050506040513d601f19601f820116820180604052508101906120009190613285565b915091505f6120918383885f60018760c001516001600160a01b03166370a082318d6040518263ffffffff1660e01b815260040161204d91906001600160a01b0391909116815260200190565b602060405180830381865afa158015612068573d5f5f3e3d5ffd5b505050506040513d601f19601f8201168201806040525081019061208c9190612e93565b6122f9565b90506120a68184606001518460600151612576565b50909890975095505050505050565b5f5f826001600160a01b03166379502c556040518163ffffffff1660e01b8152600401602060405180830381865afa1580156120f3573d5f5f3e3d5ffd5b505050506040513d601f19601f82011682018060405250810190612117919061306f565b604051630483b24f60e41b81526001600160a01b038581166004830152919091169063483b24f090602401606060405180830381865afa15801561215d573d5f5f3e3d5ffd5b505050506040513d601f19601f82011682018060405250810190612181919061333a565b92505050806001600160a01b03166318160ddd6040518163ffffffff1660e01b8152600401602060405180830381865afa158015610631573d5f5f3e3d5ffd5b5f6104f4826001600160a01b031663b6d821c760016040518263ffffffff1660e01b81526004016121f29190612ebe565b602060405180830381865afa15801561220d573d5f5f3e3d5ffd5b505050506040513d601f19601f820116820180604052508101906122319190612e93565b60405163b6d821c760e01b81526001600160a01b0385169063b6d821c79061225e90600290600401612ebe565b602060405180830381865afa158015612279573d5f5f3e3d5ffd5b505050506040513d601f19601f8201168201806040525081019061229d9190612e93565b6125cc565b5f815f036122b157505f6122ef565b5f6122c08888888888886122f9565b905080608001515f036122d6575f9150506122ef565b6122e98189606001518960600151612576565b93505050505b9695505050505050565b6123386040518060a001604052805f6001600160a01b031681526020015f6001600160a01b031681526020015f81526020015f81526020015f81525090565b85606001516001600160a01b031687606001516001600160a01b0316146123a257600184600181111561236d5761236d612eaa565b14612381578660e001518660e0015161238e565b8661010001518661010001515b6001600160a01b0390811660208401521681525b5f5f6123b38960800151885f6125e4565b80935081925050505f5f8a604001516001600160a01b031663ffbaaf7a6040518163ffffffff1660e01b81526004016040805180830381865afa1580156123fc573d5f5f3e3d5ffd5b505050506040513d601f19601f8201168201806040525081019061242091906133b0565b915091506124318382865f5f6126cc565b604086015260a08b0151612446908a5f6125e4565b94509250600187600181111561245e5761245e612eaa565b146124695781612485565b6124858b604001518c61012001518d5f01518e60200151612707565b91506124958383865f60016126cc565b606086015260c08a01516124aa908a886125e4565b945092505f60018860018111156124c3576124c3612eaa565b1461253d578a604001516001600160a01b031663b6d821c760026040518263ffffffff1660e01b81526004016124f99190612ebe565b602060405180830381865afa158015612514573d5f5f3e3d5ffd5b505050506040513d601f19601f820116820180604052508101906125389190612e93565b612550565b6125508b604001518c61012001516127fd565b9050612561848287600160026126cc565b608087015250939a9950505050505050505050565b5f5f5f6125848686866128f0565b909350915082158015612595575081155b156125a757505f9150819050806125c3565b825f036125b657505f196125c3565b6125c08284612a46565b90505b93509350939050565b5f8282116125dc57818303610566565b5f9392505050565b5f5f825f0361265e5760405163dce5c2db60e01b81526001600160a01b03858116600483015286169063dce5c2db906024016040805180830381865afa158015612630573d5f5f3e3d5ffd5b505050506040513d601f19601f8201168201806040525081019061265491906133b0565b90925090506126c4565b829150846001600160a01b03166318160ddd6040518163ffffffff1660e01b8152600401602060405180830381865afa15801561269d573d5f5f3e3d5ffd5b505050506040513d601f19601f820116820180604052508101906126c19190612e93565b90505b935093915050565b5f5f5f6126da878786612a5c565b91509150815f036126ef5787925050506117be565b6126fb88828488612ab7565b98975050505050505050565b6040516367efe7fd60e11b81526001600160a01b0385811660048301524260248301525f91829186169063cfdfcffa90604401602060405180830381865afa925050508015612773575060408051601f3d908101601f1916820190925261277091810190612e93565b60015b1561277b5790505b5f5f876001600160a01b03166339c5c5056040518163ffffffff1660e01b81526004016040805180830381865afa1580156127b8573d5f5f3e3d5ffd5b505050506040513d601f19601f820116820180604052508101906127dc91906133b0565b915091506127ed8282858989612af9565b50919a9950505050505050505050565b6040516367efe7fd60e11b81526001600160a01b0383811660048301524260248301525f91829184169063cfdfcffa90604401602060405180830381865afa925050508015612869575060408051601f3d908101601f1916820190925261286691810190612e93565b60015b156128715790505b60405163b6d821c760e01b81526128e7906001600160a01b0386169063b6d821c7906128a290600290600401612ebe565b602060405180830381865afa1580156128bd573d5f5f3e3d5ffd5b505050506040513d601f19601f820116820180604052508101906128e19190612e93565b82612b5f565b50949350505050565b5f5f5f85606001518660400151612907919061339d565b905080156129995785516001600160a01b03166129245780612996565b85516040516313b0be3360e01b8152600481018390526001600160a01b038781166024830152909116906313b0be3390604401602060405180830381865afa158015612972573d5f5f3e3d5ffd5b505050506040513d601f19601f820116820180604052508101906129969190612e93565b92505b608086015115612a3d5760208601516001600160a01b03166129bf578560800151612a3a565b602086015160808701516040516313b0be3360e01b815260048101919091526001600160a01b038681166024830152909116906313b0be3390604401602060405180830381865afa158015612a16573d5f5f3e3d5ffd5b505050506040513d601f19601f82011682018060405250810190612a3a9190612e93565b91505b50935093915050565b5f61056683670de0b6b3a7640000846001612ab7565b5f5f835f03612a69575f94505b6002836002811115612a7d57612a7d612eaa565b14612aa857612a8e6003600a6134ad565b612a98908561339d565b612aa386600161339d565b612aab565b83855b90969095509350505050565b5f612ae4612ac483612baa565b8015612adf57505f8480612ada57612ada61325e565b868809115b151590565b612aef868686612bd6565b6117be919061339d565b5f5f5f5f612b078888612b5f565b9093509050858501612b228282670de0b6b3a7640000612c93565b92505f612b2f8484613327565b90505f612b3d8c5f19613327565b905081811015612b4b578091505b818c01965050505095509550955095915050565b5f80831580612b6c575082155b15612b7b57508290505f612ba3565b612b8e8484670de0b6b3a7640000612c93565b9050808401915083821015612ba357508290505f5b9250929050565b5f6002826003811115612bbf57612bbf612eaa565b612bc991906134b8565b60ff166001149050919050565b5f838302815f1985870982811083820303915050805f03612c0a57838281612c0057612c0061325e565b0492505050610566565b808411612c2857612c288415612c21576011612cdb565b6012612cdb565b5f848688095f868103871696879004966002600389028118808a02820302808a02820302808a02820302808a02820302808a02820302808a02909103029181900381900460010186841190950394909402919094039290920491909117919091029150509392505050565b5f835f03612ca257505f610566565b5082820282848281612cb657612cb661325e565b0414612cc357505f610566565b818181612cd257612cd261325e565b04949350505050565b634e487b715f52806020526024601cfd5b6001600160a01b0381168114612d00575f5ffd5b50565b5f60208284031215612d13575f5ffd5b813561056681612cec565b5f5f60408385031215612d2f575f5ffd5b8235612d3a81612cec565b91506020830135612d4a81612cec565b809150509250929050565b5f5f60208385031215612d66575f5ffd5b823567ffffffffffffffff811115612d7c575f5ffd5b8301601f81018513612d8c575f5ffd5b803567ffffffffffffffff811115612da2575f5ffd5b8560208260061b8401011115612db6575f5ffd5b6020919091019590945092505050565b602080825282518282018190525f918401906040840190835b81811015612e09578351805184526020908101518185015290930192604090920191600101612ddf565b509095945050505050565b602080825282518282018190525f918401906040840190835b81811015612e09578351835260209384019390920191600101612e2d565b5f5f5f60608486031215612e5d575f5ffd5b8335612e6881612cec565b92506020840135612e7881612cec565b91506040840135612e8881612cec565b809150509250925092565b5f60208284031215612ea3575f5ffd5b5051919050565b634e487b7160e01b5f52602160045260245ffd5b6020810160038310612ed257612ed2612eaa565b91905290565b634e487b7160e01b5f52604160045260245ffd5b634e487b7160e01b5f52603260045260245ffd5b604051610220810167ffffffffffffffff81118282101715612f3057634e487b7160e01b5f52604160045260245ffd5b60405290565b5f6040828403128015612f47575f5ffd5b506040805190810167ffffffffffffffff81118282101715612f7757634e487b7160e01b5f52604160045260245ffd5b6040528235612f8581612cec565b81526020830135612f9581612cec565b60208201529392505050565b80518015158114612fb0575f5ffd5b919050565b5f60208284031215612fc5575f5ffd5b61056682612fa1565b5f5f5f60608486031215612fe0575f5ffd5b835160208501519093509150612ff860408501612fa1565b90509250925092565b805167ffffffffffffffff81168114612fb0575f5ffd5b5f5f5f5f5f60a0868803121561302c575f5ffd5b85516001600160c01b0381168114613042575f5ffd5b945061305060208701613001565b6040870151606088015160809098015196999198509695945092505050565b5f6020828403121561307f575f5ffd5b815161056681612cec565b8051612fb081612cec565b5f61022082840312156130a6575f5ffd5b6130ae612f00565b825181526020808401519082015290506130ca6040830161308a565b60408201526130db6060830161308a565b60608201526130ec6080830161308a565b60808201526130fd60a0830161308a565b60a082015261310e60c0830161308a565b60c082015261311f60e0830161308a565b60e0820152613131610100830161308a565b610100820152613144610120830161308a565b6101208201526101408281015190820152610160808301519082015261018080830151908201526101a080830151908201526101c0808301519082015261318e6101e0830161308a565b6101e08201526131a16102008301612fa1565b61020082015292915050565b5f61022082840312156131be575f5ffd5b6105668383613095565b5f60608284031280156131d9575f5ffd5b506040516060810167ffffffffffffffff8111828210171561320957634e487b7160e01b5f52604160045260245ffd5b60409081528351825260208085015190830152613227908401613001565b60408201529392505050565b634e487b7160e01b5f52601160045260245ffd5b80820281158282048414176104f4576104f4613233565b634e487b7160e01b5f52601260045260245ffd5b5f826132805761328061325e565b500490565b5f5f6104408385031215613297575f5ffd5b6132a18484613095565b91506132b1846102208501613095565b90509250929050565b5f5f5f5f608085870312156132cd575f5ffd5b845160208601516040870151606088015192965090945092506132ef81612cec565b939692955090935050565b5f5f6040838503121561330b575f5ffd5b825161331681612cec565b6020840151909250612d4a81612cec565b818103818111156104f4576104f4613233565b5f5f5f6060848603121561334c575f5ffd5b835161335781612cec565b602085015190935061336881612cec565b6040850151909250612e8881612cec565b828152604081016002831061339057613390612eaa565b8260208301529392505050565b808201808211156104f4576104f4613233565b5f5f604083850312156133c1575f5ffd5b505080516020909101519092909150565b6001815b60018411156126c4578085048111156133f1576133f1613233565b60018416156133ff57908102905b60019390931c9280026133d6565b5f8261341b575060016104f4565b8161342757505f6104f4565b816001811461343d576002811461344757613463565b60019150506104f4565b60ff84111561345857613458613233565b50506001821b6104f4565b5060208310610133831016604e8410600b8410161715613486575081810a6104f4565b6134925f1984846133d2565b805f19048211156134a5576134a5613233565b029392505050565b5f610566838361340d565b5f60ff8316806134ca576134ca61325e565b8060ff8416069150509291505056fea2646970667358221220b565cfd944ef56456ac618184bb7ac2e25f667bcba7b5b00ce1deea91ae31bd064736f6c634300081c0033",
  "language": "Solidity",
  "compiler": "0.8.28+commit.7893614a"
}