{
  "address": "0x1D9289efd4424F50c9155cf8b591944B0fba0fD0",
  "abi": [
    {
      "inputs": [],
      "name": "acceptOwnership",
      "outputs": [],
      "stateMutability": "nonpayable",
      "type": "function"
    },
    {
      "inputs": [
        {
          "internalType": "address",
          "name": "_silo",
          "type": "address"
        },
        {
          "internalType": "uint256",
          "name": "_action",
          "type": "uint256"
        },
        {
          "internalType": "bytes",
          "name": "_inputAndOutput",
          "type": "bytes"
        }
      ],
      "name": "afterAction",
      "outputs": [],
      "stateMutability": "nonpayable",
      "type": "function"
    },
    {
      "inputs": [
        {
          "internalType": "address",
          "name": "",
          "type": "address"
        },
        {
          "internalType": "uint256",
          "name": "",
          "type": "uint256"
        },
        {
          "internalType": "bytes",
          "name": "",
          "type": "bytes"
        }
      ],
      "name": "beforeAction",
      "outputs": [],
      "stateMutability": "nonpayable",
      "type": "function"
    },
    {
      "inputs": [
        {
          "internalType": "contract IShareToken",
          "name": "",
          "type": "address"
        }
      ],
      "name": "configuredGauges",
      "outputs": [
        {
          "internalType": "contract IGaugeLike",
          "name": "",
          "type": "address"
        }
      ],
      "stateMutability": "view",
      "type": "function"
    },
    {
      "inputs": [
        {
          "internalType": "address",
          "name": "_silo",
          "type": "address"
        }
      ],
      "name": "hookReceiverConfig",
      "outputs": [
        {
          "internalType": "uint24",
          "name": "hooksBefore",
          "type": "uint24"
        },
        {
          "internalType": "uint24",
          "name": "hooksAfter",
          "type": "uint24"
        }
      ],
      "stateMutability": "view",
      "type": "function"
    },
    {
      "inputs": [
        {
          "internalType": "contract ISiloConfig",
          "name": "_config",
          "type": "address"
        },
        {
          "internalType": "bytes",
          "name": "_data",
          "type": "bytes"
        }
      ],
      "name": "initialize",
      "outputs": [],
      "stateMutability": "nonpayable",
      "type": "function"
    },
    {
      "inputs": [
        {
          "internalType": "address",
          "name": "_collateralAsset",
          "type": "address"
        },
        {
          "internalType": "address",
          "name": "_debtAsset",
          "type": "address"
        },
        {
          "internalType": "address",
          "name": "_borrower",
          "type": "address"
        },
        {
          "internalType": "uint256",
          "name": "_maxDebtToCover",
          "type": "uint256"
        },
        {
          "internalType": "bool",
          "name": "_receiveSToken",
          "type": "bool"
        }
      ],
      "name": "liquidationCall",
      "outputs": [
        {
          "internalType": "uint256",
          "name": "withdrawCollateral",
          "type": "uint256"
        },
        {
          "internalType": "uint256",
          "name": "repayDebtAssets",
          "type": "uint256"
        }
      ],
      "stateMutability": "nonpayable",
      "type": "function"
    },
    {
      "inputs": [
        {
          "internalType": "address",
          "name": "_borrower",
          "type": "address"
        }
      ],
      "name": "maxLiquidation",
      "outputs": [
        {
          "internalType": "uint256",
          "name": "collateralToLiquidate",
          "type": "uint256"
        },
        {
          "internalType": "uint256",
          "name": "debtToRepay",
          "type": "uint256"
        },
        {
          "internalType": "bool",
          "name": "sTokenRequired",
          "type": "bool"
        }
      ],
      "stateMutability": "view",
      "type": "function"
    },
    {
      "inputs": [],
      "name": "owner",
      "outputs": [
        {
          "internalType": "address",
          "name": "",
          "type": "address"
        }
      ],
      "stateMutability": "view",
      "type": "function"
    },
    {
      "inputs": [],
      "name": "pendingOwner",
      "outputs": [
        {
          "internalType": "address",
          "name": "",
          "type": "address"
        }
      ],
      "stateMutability": "view",
      "type": "function"
    },
    {
      "inputs": [
        {
          "internalType": "contract IShareToken",
          "name": "_shareToken",
          "type": "address"
        }
      ],
      "name": "removeGauge",
      "outputs": [],
      "stateMutability": "nonpayable",
      "type": "function"
    },
    {
      "inputs": [],
      "name": "renounceOwnership",
      "outputs": [],
      "stateMutability": "nonpayable",
      "type": "function"
    },
    {
      "inputs": [
        {
          "internalType": "contract IGaugeLike",
          "name": "_gauge",
          "type": "address"
        },
        {
          "internalType": "contract IShareToken",
          "name": "_shareToken",
          "type": "address"
        }
      ],
      "name": "setGauge",
      "outputs": [],
      "stateMutability": "nonpayable",
      "type": "function"
    },
    {
      "inputs": [],
      "name": "siloConfig",
      "outputs": [
        {
          "internalType": "contract ISiloConfig",
          "name": "",
          "type": "address"
        }
      ],
      "stateMutability": "view",
      "type": "function"
    },
    {
      "inputs": [
        {
          "internalType": "address",
          "name": "newOwner",
          "type": "address"
        }
      ],
      "name": "transferOwnership",
      "outputs": [],
      "stateMutability": "nonpayable",
      "type": "function"
    },
    {
      "anonymous": false,
      "inputs": [
        {
          "indexed": false,
          "internalType": "address",
          "name": "gauge",
          "type": "address"
        },
        {
          "indexed": false,
          "internalType": "address",
          "name": "shareToken",
          "type": "address"
        }
      ],
      "name": "GaugeConfigured",
      "type": "event"
    },
    {
      "anonymous": false,
      "inputs": [
        {
          "indexed": false,
          "internalType": "address",
          "name": "shareToken",
          "type": "address"
        }
      ],
      "name": "GaugeRemoved",
      "type": "event"
    },
    {
      "anonymous": false,
      "inputs": [
        {
          "indexed": false,
          "internalType": "address",
          "name": "silo",
          "type": "address"
        },
        {
          "indexed": false,
          "internalType": "uint24",
          "name": "hooksBefore",
          "type": "uint24"
        },
        {
          "indexed": false,
          "internalType": "uint24",
          "name": "hooksAfter",
          "type": "uint24"
        }
      ],
      "name": "HookConfigured",
      "type": "event"
    },
    {
      "anonymous": false,
      "inputs": [
        {
          "indexed": false,
          "internalType": "uint64",
          "name": "version",
          "type": "uint64"
        }
      ],
      "name": "Initialized",
      "type": "event"
    },
    {
      "anonymous": false,
      "inputs": [
        {
          "indexed": true,
          "internalType": "address",
          "name": "liquidator",
          "type": "address"
        },
        {
          "indexed": true,
          "internalType": "address",
          "name": "silo",
          "type": "address"
        },
        {
          "indexed": true,
          "internalType": "address",
          "name": "borrower",
          "type": "address"
        },
        {
          "indexed": false,
          "internalType": "uint256",
          "name": "repayDebtAssets",
          "type": "uint256"
        },
        {
          "indexed": false,
          "internalType": "uint256",
          "name": "withdrawCollateral",
          "type": "uint256"
        },
        {
          "indexed": false,
          "internalType": "bool",
          "name": "receiveSToken",
          "type": "bool"
        }
      ],
      "name": "LiquidationCall",
      "type": "event"
    },
    {
      "anonymous": false,
      "inputs": [
        {
          "indexed": true,
          "internalType": "address",
          "name": "previousOwner",
          "type": "address"
        },
        {
          "indexed": true,
          "internalType": "address",
          "name": "newOwner",
          "type": "address"
        }
      ],
      "name": "OwnershipTransferStarted",
      "type": "event"
    },
    {
      "anonymous": false,
      "inputs": [
        {
          "indexed": true,
          "internalType": "address",
          "name": "previousOwner",
          "type": "address"
        },
        {
          "indexed": true,
          "internalType": "address",
          "name": "newOwner",
          "type": "address"
        }
      ],
      "name": "OwnershipTransferred",
      "type": "event"
    },
    {
      "inputs": [
        {
          "internalType": "address",
          "name": "target",
          "type": "address"
        }
      ],
      "name": "AddressEmptyCode",
      "type": "error"
    },
    {
      "inputs": [],
      "name": "AlreadyConfigured",
      "type": "error"
    },
    {
      "inputs": [],
      "name": "CantRemoveActiveGauge",
      "type": "error"
    },
    {
      "inputs": [],
      "name": "EmptyGaugeAddress",
      "type": "error"
    },
    {
      "inputs": [],
      "name": "EmptySiloConfig",
      "type": "error"
    },
    {
      "inputs": [],
      "name": "FailedCall",
      "type": "error"
    },
    {
      "inputs": [],
      "name": "FullLiquidationRequired",
      "type": "error"
    },
    {
      "inputs": [],
      "name": "GaugeAlreadyConfigured",
      "type": "error"
    },
    {
      "inputs": [],
      "name": "GaugeIsNotConfigured",
      "type": "error"
    },
    {
      "inputs": [
        {
          "internalType": "uint256",
          "name": "balance",
          "type": "uint256"
        },
        {
          "internalType": "uint256",
          "name": "needed",
          "type": "uint256"
        }
      ],
      "name": "InsufficientBalance",
      "type": "error"
    },
    {
      "inputs": [],
      "name": "InvalidInitialization",
      "type": "error"
    },
    {
      "inputs": [],
      "name": "InvalidShareToken",
      "type": "error"
    },
    {
      "inputs": [],
      "name": "NoDebtToCover",
      "type": "error"
    },
    {
      "inputs": [],
      "name": "NoRepayAssets",
      "type": "error"
    },
    {
      "inputs": [],
      "name": "NotInitializing",
      "type": "error"
    },
    {
      "inputs": [
        {
          "internalType": "address",
          "name": "owner",
          "type": "address"
        }
      ],
      "name": "OwnableInvalidOwner",
      "type": "error"
    },
    {
      "inputs": [
        {
          "internalType": "address",
          "name": "account",
          "type": "address"
        }
      ],
      "name": "OwnableUnauthorizedAccount",
      "type": "error"
    },
    {
      "inputs": [],
      "name": "OwnerIsZeroAddress",
      "type": "error"
    },
    {
      "inputs": [],
      "name": "ReentrancyGuardReentrantCall",
      "type": "error"
    },
    {
      "inputs": [],
      "name": "RequestNotSupported",
      "type": "error"
    },
    {
      "inputs": [
        {
          "internalType": "address",
          "name": "token",
          "type": "address"
        }
      ],
      "name": "SafeERC20FailedOperation",
      "type": "error"
    },
    {
      "inputs": [],
      "name": "UnexpectedCollateralToken",
      "type": "error"
    },
    {
      "inputs": [],
      "name": "UnexpectedDebtToken",
      "type": "error"
    },
    {
      "inputs": [],
      "name": "UnknownRatio",
      "type": "error"
    },
    {
      "inputs": [],
      "name": "UserIsSolvent",
      "type": "error"
    },
    {
      "inputs": [],
      "name": "WrongGaugeShareToken",
      "type": "error"
    }
  ],
  "bytecode": "0x608060405234801561000f575f5ffd5b503361001961005e565b6001600160a01b03811661004657604051631e4fbdf760e01b81525f600482015260240160405180910390fd5b61004f81610110565b506100595f610110565b610175565b7ff0c57e16840df040f15088dc2f81fe391c3923bec73e23a9662efc9c229c6a00805468010000000000000000900460ff16156100ae5760405163f92ee8a960e01b815260040160405180910390fd5b80546001600160401b039081161461010d5780546001600160401b0319166001600160401b0390811782556040519081527fc7f505b2f371ae2175ee4913f4499e1f2633a7b5936321eed1cdaeb6115181d29060200160405180910390a15b50565b600380546001600160a01b031916905561010d81600280546001600160a01b038381166001600160a01b0319831681179093556040519116919082907f8be0079c531659141344cd1fd0a4f28419497f9722a3daafe3b4186f6b6457e0905f90a35050565b612718806101825f395ff3fe608060405234801561000f575f5ffd5b50600436106100ef575f3560e01c8063a37d941111610093578063d714fd1911610063578063d714fd191461020e578063e30c397814610220578063e4784fa914610231578063f2fde38b1461029b575f5ffd5b8063a37d941114610190578063aef28235146101b8578063bd02d848146101cb578063d1f57894146101fb575f5ffd5b80633a045145116100ce5780633a04514514610148578063715018a61461015b57806379ba5097146101635780638da5cb5b1461016b575f5ffd5b8062a718a9146100f3578063237e6d641461012057806335cb109914610135575b5f5ffd5b610106610101366004611f07565b6102ae565b604080519283526020830191909152015b60405180910390f35b61013361012e366004611f6b565b610878565b005b610133610143366004611fe7565b610a99565b61013361015636600461203f565b610ab2565b610133610c7e565b610133610c91565b6002546001600160a01b03165b6040516001600160a01b039091168152602001610117565b61017861019e36600461203f565b60046020525f90815260409020546001600160a01b031681565b6101336101c6366004611fe7565b610cda565b6101de6101d936600461203f565b610cec565b604080519384526020840192909252151590820152606001610117565b61013361020936600461205a565b610d83565b5f54610178906001600160a01b031681565b6003546001600160a01b0316610178565b61027f61023f36600461203f565b6001600160a01b03165f9081526001602090815260409182902082518084019093525462ffffff8082168085526301000000909204169290910182905291565b6040805162ffffff938416815292909116602083015201610117565b6101336102a936600461203f565b610eac565b5f8060ff815c16156102d357604051633ee5aeb560e01b815260040160405180910390fd5b60015f805c60ff19168217905d505f546001600160a01b03168061030a576040516379c39cf960e01b815260040160405180910390fd5b845f0361032a576040516317ff0e0960e11b815260040160405180910390fd5b806001600160a01b0316639dd413306040518163ffffffff1660e01b81526004015f604051808303815f87803b158015610362575f5ffd5b505af1158015610374573d5f5f3e3d5ffd5b505050505f5f610386838b8b8b610f1d565b915091506103c16040518060a001604052805f81526020015f81526020015f81526020015f81526020015f6001600160e01b03191681525090565b6101a0830151604051636da707db60e01b815273__$13ae51f56eab8417585cbbba140ac4e457$__91636da707db9161040591879187918f918f9190600401612203565b608060405180830381865af4158015610420573d5f5f3e3d5ffd5b505050506040513d601f19601f820116820180604052508101906104449190612248565b6001600160e01b03191660808501819052606085019290925260408401929092529095506104719061113a565b878511156104925760405163d65db62d60e01b815260040160405180910390fd5b60608201516104ac906001600160a01b031633308861117f565b6104d282604001518684606001516001600160a01b03166111e69092919063ffffffff16565b5f876104de57306104e0565b335b90506104fd84604001518b8385604001518860a00151600161126d565b825260408401516060830151608086015161051e92918d918591905f61126d565b826020018181525050846001600160a01b03166362402b046040518163ffffffff1660e01b81526004015f604051808303815f87803b15801561055f575f5ffd5b505af1158015610571573d5f5f3e3d5ffd5b505050604080850151905163acb7081560e01b8152600481018990526001600160a01b038d81166024830152909116915063acb70815906044016020604051808303815f875af11580156105c7573d5f5f3e3d5ffd5b505050506040513d601f19601f820116820180604052508101906105eb9190612294565b5087156106fa57815115610671576040808501518351915163a7d6e44b60e01b81526001600160a01b039091169163a7d6e44b9161062f91906001906004016122d3565b602060405180830381865afa15801561064a573d5f5f3e3d5ffd5b505050506040513d601f19601f8201168201806040525081019061066e9190612294565b96505b6020820151156106f55783604001516001600160a01b031663a7d6e44b83602001515f6040518363ffffffff1660e01b81526004016106b19291906122d3565b602060405180830381865afa1580156106cc573d5f5f3e3d5ffd5b505050506040513d601f19601f820116820180604052508101906106f09190612294565b870196505b610807565b81511561077e57604080850151835191516306d29bb360e51b81526001600160a01b039091169163da5376609161073b9190339030906001906004016122e7565b6020604051808303815f875af1158015610757573d5f5f3e3d5ffd5b505050506040513d601f19601f8201168201806040525081019061077b9190612294565b96505b6020820151156108075783604001516001600160a01b031663da537660836020015133305f6040518563ffffffff1660e01b81526004016107c294939291906122e7565b6020604051808303815f875af11580156107de573d5f5f3e3d5ffd5b505050506040513d601f19601f820116820180604052508101906108029190612294565b870196505b6040838101518151888152602081018a90528a15158184015291516001600160a01b038d81169392169133917f3a84f64446e8eada995aa9da2ddbfcd9b5d5d650503b19f024096d04c05ef2a99181900360600190a4505f93505050815c60ff19169050815d509550959350505050565b6108806113d2565b6001600160a01b0382166108a75760405163d1af83ef60e01b815260040160405180910390fd5b806001600160a01b0316826001600160a01b0316632ad87c6f6040518163ffffffff1660e01b8152600401602060405180830381865afa1580156108ed573d5f5f3e3d5ffd5b505050506040513d601f19601f820116820180604052508101906109119190612322565b6001600160a01b0316146109385760405163060a0aaf60e41b815260040160405180910390fd5b6001600160a01b038082165f908152600460205260409020541680156109715760405163d0c7225560e01b815260040160405180910390fd5b5f826001600160a01b031663eb3beb296040518163ffffffff1660e01b8152600401602060405180830381865afa1580156109ae573d5f5f3e3d5ffd5b505050506040513d601f19601f820116820180604052508101906109d29190612322565b90505f6109df82856113ff565b90505f6109eb83611508565b905061040082176109fb82821790565b9150610a2a84610a24866001600160a01b03165f9081526001602052604090205462ffffff1690565b8461152e565b6001600160a01b038681165f8181526004602090815260409182902080546001600160a01b031916948c16948517905581519384528301919091527f213d54ca7d6adb897962b4f78f6c2424aa527ee584f57a6000f961c507e0ec27910160405180910390a150505050505050565b604051632a188cb160e21b815260040160405180910390fd5b610aba6113d2565b6001600160a01b038082165f908152600460205260409020541680610af257604051632e77844760e21b815260040160405180910390fd5b806001600160a01b0316639c868ac06040518163ffffffff1660e01b8152600401602060405180830381865afa158015610b2e573d5f5f3e3d5ffd5b505050506040513d601f19601f82011682018060405250810190610b529190612348565b610b6f57604051630d0ab16560e01b815260040160405180910390fd5b5f826001600160a01b031663eb3beb296040518163ffffffff1660e01b8152600401602060405180830381865afa158015610bac573d5f5f3e3d5ffd5b505050506040513d601f19601f82011682018060405250810190610bd09190612322565b90505f610bdd82856113ff565b90505f610be983611508565b9050811981169050610c1e83610c18856001600160a01b03165f9081526001602052604090205462ffffff1690565b8361152e565b6001600160a01b0385165f8181526004602090815260409182902080546001600160a01b031916905590519182527f94ac12f5301759f065db9de7f23677e50bef009f062b028d4d4612f620f0f5fb910160405180910390a15050505050565b610c866113d2565b610c8f5f611611565b565b60035433906001600160a01b03168114610cce5760405163118cdaa760e01b81526001600160a01b03821660048201526024015b60405180910390fd5b610cd781611611565b50565b610ce68484848461162a565b50505050565b5f8054604051631c2b1ded60e01b81526001600160a01b03918216600482015290831660248201528190819073__$13ae51f56eab8417585cbbba140ac4e457$__90631c2b1ded90604401606060405180830381865af4158015610d52573d5f5f3e3d5ffd5b505050506040513d601f19601f82011682018060405250810190610d769190612363565b9250925092509193909250565b7ff0c57e16840df040f15088dc2f81fe391c3923bec73e23a9662efc9c229c6a008054600160401b810460ff16159067ffffffffffffffff165f81158015610dc85750825b90505f8267ffffffffffffffff166001148015610de45750303b155b905081158015610df2575080155b15610e105760405163f92ee8a960e01b815260040160405180910390fd5b845467ffffffffffffffff191660011785558315610e3a57845460ff60401b1916600160401b1785555b5f610e478789018961203f565b9050610e528961175a565b610e5b816117d3565b508315610ea257845460ff60401b19168555604051600181527fc7f505b2f371ae2175ee4913f4499e1f2633a7b5936321eed1cdaeb6115181d29060200160405180910390a15b5050505050505050565b610eb46113d2565b600380546001600160a01b0383166001600160a01b03199091168117909155610ee56002546001600160a01b031690565b6001600160a01b03167f38d16b8cac22d99fc7c124b9cd0de2d3fa1faef420bfe791d8c362d765e2270060405160405180910390a350565b610f25611e5b565b610f2d611e5b565b6040516394c0527d60e01b81526001600160a01b0384811660048301528716906394c0527d9060240161044060405180830381865afa158015610f72573d5f5f3e3d5ffd5b505050506040513d601f19601f82011682018060405250810190610f9691906124e8565b604081015191935091506001600160a01b0316610fc657604051632f13551560e11b815260040160405180910390fd5b81606001516001600160a01b0316856001600160a01b031614610ffc5760405163055692d760e21b815260040160405180910390fd5b80606001516001600160a01b0316846001600160a01b0316146110325760405163129e080d60e21b815260040160405180910390fd5b80604001516001600160a01b031663a6afed956040518163ffffffff1660e01b81526004016020604051808303815f875af1158015611073573d5f5f3e3d5ffd5b505050506040513d601f19601f820116820180604052508101906110979190612294565b5080604001516001600160a01b031682604001516001600160a01b0316146111315781604001516001600160a01b031663a6afed956040518163ffffffff1660e01b81526004016020604051808303815f875af11580156110fa573d5f5f3e3d5ffd5b505050506040513d601f19601f8201168201806040525081019061111e9190612294565b5061112882611802565b61113181611802565b94509492505050565b6001600160e01b031981165f0361114e5750565b6040805160048152602481019091526020810180516001600160e01b03166001600160e01b03198416178152815190fd5b6040516001600160a01b038481166024830152838116604483015260648201839052610ce69186918216906323b872dd906084015b604051602081830303815290604052915060e01b6020820180516001600160e01b038381831617835250505050611888565b604051636eb1769f60e11b81523060048201526001600160a01b0383811660248301525f919085169063dd62ed3e90604401602060405180830381865afa158015611233573d5f5f3e3d5ffd5b505050506040513d601f19601f820116820180604052508101906112579190612294565b9050610ce684846112688585612531565b6118ee565b5f835f0361127c57505f6113c8565b61135284886001600160a01b031663b6d821c7856040518263ffffffff1660e01b81526004016112ac9190612544565b602060405180830381865afa1580156112c7573d5f5f3e3d5ffd5b505050506040513d601f19601f820116820180604052508101906112eb9190612294565b856001600160a01b03166318160ddd6040518163ffffffff1660e01b8152600401602060405180830381865afa158015611327573d5f5f3e3d5ffd5b505050506040513d601f19601f8201168201806040525081019061134b9190612294565b5f8661197d565b9050805f0361136257505f6113c8565b604051633661585b60e21b81526001600160a01b03878116600483015286811660248301526044820183905284169063d985616c906064015f604051808303815f87803b1580156113b1575f5ffd5b505af11580156113c3573d5f5f3e3d5ffd5b505050505b9695505050505050565b6002546001600160a01b03163314610c8f5760405163118cdaa760e01b8152336004820152602401610cc5565b5f8054604051630483b24f60e41b81526001600160a01b0385811660048301528392839283929091169063483b24f090602401606060405180830381865afa15801561144d573d5f5f3e3d5ffd5b505050506040513d601f19601f82011682018060405250810190611471919061255e565b925092509250816001600160a01b0316856001600160a01b03160361149d576108009350505050611502565b826001600160a01b0316856001600160a01b0316036114c3576110009350505050611502565b806001600160a01b0316856001600160a01b0316036114e9576120009350505050611502565b60405163d938fa3760e01b815260040160405180910390fd5b92915050565b6001600160a01b03165f908152600160205260409020546301000000900462ffffff1690565b60408051808201825262ffffff84811680835284821660208085018281526001600160a01b038a165f81815260018452889020965187549251871663010000000265ffffffffffff1990931696169590951717909455845192835292820152918201527f1c26a8451bc890d476a0e7bb8310f00750604879bb30d4813a7718a1ee089fa69060600160405180910390a1826001600160a01b031663cad1aacf6040518163ffffffff1660e01b81526004015f604051808303815f87803b1580156115f6575f5ffd5b505af1158015611608573d5f5f3e3d5ffd5b50505050505050565b600380546001600160a01b0319169055610cd7816119ba565b335f908152600460205260409020546001600160a01b03168061166057604051632e77844760e21b815260040160405180910390fd5b6116738461166d87611508565b81161490565b61167d5750610ce6565b5f6116bc84848080601f0160208091040260200160405190810160405280939291908181526020018383808284375f92019190915250611a0b92505050565b805160608201516020830151608084015160a0850151604080870151905163bbdc013b60e01b81526001600160a01b039687166004820152602481019590955292851660448501526064840191909152608483015260a482015291925083169063bbdc013b9060c4015f604051808303815f87803b15801561173c575f5ffd5b505af115801561174e573d5f5f3e3d5ffd5b50505050505050505050565b611762611aaf565b6001600160a01b038116611789576040516379c39cf960e01b815260040160405180910390fd5b5f546001600160a01b0316156117b2576040516308db0db560e11b815260040160405180910390fd5b5f80546001600160a01b0319166001600160a01b0392909216919091179055565b6117db611aaf565b6001600160a01b038116610cce576040516354a4010f60e01b815260040160405180910390fd5b8061020001518015611820575060e08101516001600160a01b031615155b15610cd75760e08101516060820151604051637cfd30cd60e11b81526001600160a01b03918216600482015291169063f9fa619a906024015f604051808303815f87803b15801561186f575f5ffd5b505af1158015611881573d5f5f3e3d5ffd5b5050505050565b5f61189c6001600160a01b03841683611af8565b905080515f141580156118c05750808060200190518101906118be9190612348565b155b156118e957604051635274afe760e01b81526001600160a01b0384166004820152602401610cc5565b505050565b604080516001600160a01b038416602482015260448082018490528251808303909101815260649091019091526020810180516001600160e01b031663095ea7b360e01b17905261193f8482611b0c565b610ce6576040516001600160a01b0384811660248301525f604483015261197391869182169063095ea7b3906064016111b4565b610ce68482611888565b5f5f5f61198b878786611ba9565b91509150815f036119a05787925050506119b1565b6119ac88838388611c04565b925050505b95945050505050565b600280546001600160a01b038381166001600160a01b0319831681179093556040519116919082907f8be0079c531659141344cd1fd0a4f28419497f9722a3daafe3b4186f6b6457e0905f90a35050565b611a506040518060c001604052805f6001600160a01b031681526020015f6001600160a01b031681526020015f81526020015f81526020015f81526020015f81525090565b506014810151602882015160488301516068840151608885015160a8909501516040805160c0810182526001600160a01b039687168152959094166020860152928401919091526060830152608082019290925260a081019190915290565b7ff0c57e16840df040f15088dc2f81fe391c3923bec73e23a9662efc9c229c6a0054600160401b900460ff16610c8f57604051631afcd79f60e31b815260040160405180910390fd5b6060611b0583835f611c46565b9392505050565b5f5f5f846001600160a01b031684604051611b27919061259d565b5f604051808303815f865af19150503d805f8114611b60576040519150601f19603f3d011682016040523d82523d5f602084013e611b65565b606091505b5091509150818015611b8f575080511580611b8f575080806020019051810190611b8f9190612348565b80156119b15750505050506001600160a01b03163b151590565b5f5f835f03611bb6575f94505b6002836002811115611bca57611bca6122ab565b14611bf557611bdb6003600a612696565b611be59085612531565b611bf0866001612531565b611bf8565b83855b90969095509350505050565b5f611c31611c1183611cdc565b8015611c2c57505f8480611c2757611c276126a1565b868809115b151590565b611c3c868686611d08565b6119b19190612531565b606081471015611c725760405163cf47918160e01b815247600482015260248101839052604401610cc5565b5f5f856001600160a01b03168486604051611c8d919061259d565b5f6040518083038185875af1925050503d805f8114611cc7576040519150601f19603f3d011682016040523d82523d5f602084013e611ccc565b606091505b50915091506113c8868383611dc5565b5f6002826003811115611cf157611cf16122ab565b611cfb91906126b5565b60ff166001149050919050565b5f838302815f1985870982811083820303915050805f03611d3c57838281611d3257611d326126a1565b0492505050611b05565b808411611d5a57611d5a8415611d53576011611e21565b6012611e21565b5f848688095f868103871696879004966002600389028118808a02820302808a02820302808a02820302808a02820302808a02820302808a02909103029181900381900460010186841190950394909402919094039290920491909117919091029150509392505050565b606082611dda57611dd582611e32565b611b05565b8151158015611df157506001600160a01b0384163b155b15611e1a57604051639996b31560e01b81526001600160a01b0385166004820152602401610cc5565b5080611b05565b634e487b715f52806020526024601cfd5b805115611e425780518082602001fd5b60405163d6bda27560e01b815260040160405180910390fd5b60408051610220810182525f80825260208201819052918101829052606081018290526080810182905260a0810182905260c0810182905260e08101829052610100810182905261012081018290526101408101829052610160810182905261018081018290526101a081018290526101c081018290526101e0810182905261020081019190915290565b6001600160a01b0381168114610cd7575f5ffd5b8015158114610cd7575f5ffd5b5f5f5f5f5f60a08688031215611f1b575f5ffd5b8535611f2681611ee6565b94506020860135611f3681611ee6565b93506040860135611f4681611ee6565b9250606086013591506080860135611f5d81611efa565b809150509295509295909350565b5f5f60408385031215611f7c575f5ffd5b8235611f8781611ee6565b91506020830135611f9781611ee6565b809150509250929050565b5f5f83601f840112611fb2575f5ffd5b50813567ffffffffffffffff811115611fc9575f5ffd5b602083019150836020828501011115611fe0575f5ffd5b9250929050565b5f5f5f5f60608587031215611ffa575f5ffd5b843561200581611ee6565b935060208501359250604085013567ffffffffffffffff811115612027575f5ffd5b61203387828801611fa2565b95989497509550505050565b5f6020828403121561204f575f5ffd5b8135611b0581611ee6565b5f5f5f6040848603121561206c575f5ffd5b833561207781611ee6565b9250602084013567ffffffffffffffff811115612092575f5ffd5b61209e86828701611fa2565b9497909650939450505050565b805182526020810151602083015260408101516120d360408401826001600160a01b03169052565b5060608101516120ee60608401826001600160a01b03169052565b50608081015161210960808401826001600160a01b03169052565b5060a081015161212460a08401826001600160a01b03169052565b5060c081015161213f60c08401826001600160a01b03169052565b5060e081015161215a60e08401826001600160a01b03169052565b506101008101516121776101008401826001600160a01b03169052565b506101208101516121946101208401826001600160a01b03169052565b506101408101516101408301526101608101516101608301526101808101516101808301526101a08101516101a08301526101c08101516101c08301526101e08101516121ed6101e08401826001600160a01b03169052565b506102008101516118e961020084018215159052565b6104a0810161221282886120ab565b6122206102208301876120ab565b6001600160a01b03949094166104408201526104608101929092526104809091015292915050565b5f5f5f5f6080858703121561225b575f5ffd5b845160208601516040870151606088015192965090945092506001600160e01b031981168114612289575f5ffd5b939692955090935050565b5f602082840312156122a4575f5ffd5b5051919050565b634e487b7160e01b5f52602160045260245ffd5b600281106122cf576122cf6122ab565b9052565b82815260408101611b0560208301846122bf565b8481526001600160a01b03848116602083015283166040820152608081016119b160608301846122bf565b805161231d81611ee6565b919050565b5f60208284031215612332575f5ffd5b8151611b0581611ee6565b805161231d81611efa565b5f60208284031215612358575f5ffd5b8151611b0581611efa565b5f5f5f60608486031215612375575f5ffd5b835160208501516040860151919450925061238f81611efa565b809150509250925092565b604051610220810167ffffffffffffffff811182821017156123ca57634e487b7160e01b5f52604160045260245ffd5b60405290565b5f61022082840312156123e1575f5ffd5b6123e961239a565b8251815260208084015190820152905061240560408301612312565b604082015261241660608301612312565b606082015261242760808301612312565b608082015261243860a08301612312565b60a082015261244960c08301612312565b60c082015261245a60e08301612312565b60e082015261246c6101008301612312565b61010082015261247f6101208301612312565b6101208201526101408281015190820152610160808301519082015261018080830151908201526101a080830151908201526101c080830151908201526124c96101e08301612312565b6101e08201526124dc610200830161233d565b61020082015292915050565b5f5f61044083850312156124fa575f5ffd5b61250484846123d0565b91506125148461022085016123d0565b90509250929050565b634e487b7160e01b5f52601160045260245ffd5b808201808211156115025761150261251d565b6020810160038310612558576125586122ab565b91905290565b5f5f5f60608486031215612570575f5ffd5b835161257b81611ee6565b602085015190935061258c81611ee6565b604085015190925061238f81611ee6565b5f82518060208501845e5f920191825250919050565b6001815b60018411156125ee578085048111156125d2576125d261251d565b60018416156125e057908102905b60019390931c9280026125b7565b935093915050565b5f8261260457506001611502565b8161261057505f611502565b816001811461262657600281146126305761264c565b6001915050611502565b60ff8411156126415761264161251d565b50506001821b611502565b5060208310610133831016604e8410600b841016171561266f575081810a611502565b61267b5f1984846125b3565b805f190482111561268e5761268e61251d565b029392505050565b5f611b0583836125f6565b634e487b7160e01b5f52601260045260245ffd5b5f60ff8316806126d357634e487b7160e01b5f52601260045260245ffd5b8060ff8416069150509291505056fea264697066735822122097166e49e3befebb02687ef4e62aaa6e1973c23535089d8002684cfb8db907b564736f6c634300081c0033",
  "language": "Solidity",
  "compiler": "0.8.28+commit.7893614a"
}