{
  "address": "0x5f351a26b8179362018009a3643BCa097661D6EA",
  "abi": [
    {
      "inputs": [],
      "name": "PRECISION",
      "outputs": [
        {
          "internalType": "uint256",
          "name": "",
          "type": "uint256"
        }
      ],
      "stateMutability": "view",
      "type": "function"
    },
    {
      "inputs": [
        {
          "internalType": "contract ISilo",
          "name": "_silo",
          "type": "address"
        },
        {
          "internalType": "address",
          "name": "_borrower",
          "type": "address"
        }
      ],
      "name": "borrowShare",
      "outputs": [
        {
          "internalType": "uint256",
          "name": "",
          "type": "uint256"
        }
      ],
      "stateMutability": "view",
      "type": "function"
    },
    {
      "inputs": [
        {
          "internalType": "contract ISiloConfig",
          "name": "_siloConfig",
          "type": "address"
        },
        {
          "internalType": "address",
          "name": "_borrower",
          "type": "address"
        }
      ],
      "name": "calculateBorrowValue",
      "outputs": [
        {
          "internalType": "uint256",
          "name": "borrowValue",
          "type": "uint256"
        }
      ],
      "stateMutability": "view",
      "type": "function"
    },
    {
      "inputs": [
        {
          "internalType": "contract ISiloConfig",
          "name": "_siloConfig",
          "type": "address"
        },
        {
          "internalType": "address",
          "name": "_borrower",
          "type": "address"
        }
      ],
      "name": "calculateCollateralValue",
      "outputs": [
        {
          "internalType": "uint256",
          "name": "collateralValue",
          "type": "uint256"
        }
      ],
      "stateMutability": "view",
      "type": "function"
    },
    {
      "inputs": [
        {
          "internalType": "contract ISilo",
          "name": "_silo",
          "type": "address"
        },
        {
          "internalType": "address",
          "name": "_borrower",
          "type": "address"
        }
      ],
      "name": "collateralBalanceOfUnderlying",
      "outputs": [
        {
          "internalType": "uint256",
          "name": "borrowerCollateral",
          "type": "uint256"
        }
      ],
      "stateMutability": "view",
      "type": "function"
    },
    {
      "inputs": [
        {
          "internalType": "contract ISilo",
          "name": "_silo",
          "type": "address"
        }
      ],
      "name": "collateralOnlyDeposits",
      "outputs": [
        {
          "internalType": "uint256",
          "name": "",
          "type": "uint256"
        }
      ],
      "stateMutability": "view",
      "type": "function"
    },
    {
      "inputs": [
        {
          "internalType": "contract ISilo",
          "name": "_silo",
          "type": "address"
        },
        {
          "internalType": "address",
          "name": "_borrower",
          "type": "address"
        }
      ],
      "name": "debtBalanceOfUnderlying",
      "outputs": [
        {
          "internalType": "uint256",
          "name": "",
          "type": "uint256"
        }
      ],
      "stateMutability": "view",
      "type": "function"
    },
    {
      "inputs": [
        {
          "internalType": "contract ISilo",
          "name": "_silo",
          "type": "address"
        }
      ],
      "name": "getBorrowAPR",
      "outputs": [
        {
          "internalType": "uint256",
          "name": "borrowAPR",
          "type": "uint256"
        }
      ],
      "stateMutability": "view",
      "type": "function"
    },
    {
      "inputs": [
        {
          "internalType": "contract ISilo",
          "name": "_silo",
          "type": "address"
        },
        {
          "internalType": "address",
          "name": "_borrower",
          "type": "address"
        }
      ],
      "name": "getBorrowAmount",
      "outputs": [
        {
          "internalType": "uint256",
          "name": "maxRepay",
          "type": "uint256"
        }
      ],
      "stateMutability": "view",
      "type": "function"
    },
    {
      "inputs": [
        {
          "internalType": "contract ISilo",
          "name": "_silo",
          "type": "address"
        }
      ],
      "name": "getDepositAPR",
      "outputs": [
        {
          "internalType": "uint256",
          "name": "depositAPR",
          "type": "uint256"
        }
      ],
      "stateMutability": "view",
      "type": "function"
    },
    {
      "inputs": [
        {
          "internalType": "contract ISilo",
          "name": "_silo",
          "type": "address"
        },
        {
          "internalType": "address",
          "name": "_borrower",
          "type": "address"
        }
      ],
      "name": "getDepositAmount",
      "outputs": [
        {
          "internalType": "uint256",
          "name": "borrowerDeposits",
          "type": "uint256"
        }
      ],
      "stateMutability": "view",
      "type": "function"
    },
    {
      "inputs": [
        {
          "internalType": "contract ISilo",
          "name": "_silo",
          "type": "address"
        }
      ],
      "name": "getFeesAndFeeReceivers",
      "outputs": [
        {
          "internalType": "address",
          "name": "daoFeeReceiver",
          "type": "address"
        },
        {
          "internalType": "address",
          "name": "deployerFeeReceiver",
          "type": "address"
        },
        {
          "internalType": "uint256",
          "name": "daoFee",
          "type": "uint256"
        },
        {
          "internalType": "uint256",
          "name": "deployerFee",
          "type": "uint256"
        }
      ],
      "stateMutability": "view",
      "type": "function"
    },
    {
      "inputs": [
        {
          "internalType": "contract ISilo",
          "name": "_silo",
          "type": "address"
        }
      ],
      "name": "getInterestRateModel",
      "outputs": [
        {
          "internalType": "address",
          "name": "irm",
          "type": "address"
        }
      ],
      "stateMutability": "view",
      "type": "function"
    },
    {
      "inputs": [
        {
          "internalType": "contract ISilo",
          "name": "_silo",
          "type": "address"
        }
      ],
      "name": "getLt",
      "outputs": [
        {
          "internalType": "uint256",
          "name": "lt",
          "type": "uint256"
        }
      ],
      "stateMutability": "view",
      "type": "function"
    },
    {
      "inputs": [
        {
          "internalType": "contract ISilo",
          "name": "_silo",
          "type": "address"
        },
        {
          "internalType": "address",
          "name": "_borrower",
          "type": "address"
        }
      ],
      "name": "getLtv",
      "outputs": [
        {
          "internalType": "uint256",
          "name": "ltv",
          "type": "uint256"
        }
      ],
      "stateMutability": "view",
      "type": "function"
    },
    {
      "inputs": [
        {
          "internalType": "contract ISilo",
          "name": "_silo",
          "type": "address"
        }
      ],
      "name": "getMaxLtv",
      "outputs": [
        {
          "internalType": "uint256",
          "name": "maxLtv",
          "type": "uint256"
        }
      ],
      "stateMutability": "view",
      "type": "function"
    },
    {
      "inputs": [
        {
          "internalType": "contract ISilo",
          "name": "_silo",
          "type": "address"
        }
      ],
      "name": "getModel",
      "outputs": [
        {
          "internalType": "contract IInterestRateModel",
          "name": "irm",
          "type": "address"
        }
      ],
      "stateMutability": "view",
      "type": "function"
    },
    {
      "inputs": [
        {
          "internalType": "contract ISilo",
          "name": "_silo",
          "type": "address"
        }
      ],
      "name": "getRawLiquidity",
      "outputs": [
        {
          "internalType": "uint256",
          "name": "liquidity",
          "type": "uint256"
        }
      ],
      "stateMutability": "view",
      "type": "function"
    },
    {
      "inputs": [
        {
          "internalType": "contract ISilo",
          "name": "_silo",
          "type": "address"
        },
        {
          "internalType": "address",
          "name": "_borrower",
          "type": "address"
        }
      ],
      "name": "getUserLTV",
      "outputs": [
        {
          "internalType": "uint256",
          "name": "userLTV",
          "type": "uint256"
        }
      ],
      "stateMutability": "view",
      "type": "function"
    },
    {
      "inputs": [
        {
          "internalType": "contract ISilo",
          "name": "_silo",
          "type": "address"
        }
      ],
      "name": "getUtilization",
      "outputs": [
        {
          "internalType": "uint256",
          "name": "",
          "type": "uint256"
        }
      ],
      "stateMutability": "view",
      "type": "function"
    },
    {
      "inputs": [
        {
          "internalType": "contract ISiloConfig",
          "name": "_siloConfig",
          "type": "address"
        },
        {
          "internalType": "address",
          "name": "_borrower",
          "type": "address"
        }
      ],
      "name": "hasPosition",
      "outputs": [
        {
          "internalType": "bool",
          "name": "has",
          "type": "bool"
        }
      ],
      "stateMutability": "view",
      "type": "function"
    },
    {
      "inputs": [
        {
          "internalType": "contract ISiloConfig",
          "name": "_siloConfig",
          "type": "address"
        },
        {
          "internalType": "address",
          "name": "_borrower",
          "type": "address"
        }
      ],
      "name": "inDebt",
      "outputs": [
        {
          "internalType": "bool",
          "name": "hasDebt",
          "type": "bool"
        }
      ],
      "stateMutability": "view",
      "type": "function"
    },
    {
      "inputs": [
        {
          "internalType": "contract ISilo",
          "name": "_silo",
          "type": "address"
        },
        {
          "internalType": "address",
          "name": "_borrower",
          "type": "address"
        }
      ],
      "name": "isSolvent",
      "outputs": [
        {
          "internalType": "bool",
          "name": "",
          "type": "bool"
        }
      ],
      "stateMutability": "view",
      "type": "function"
    },
    {
      "inputs": [
        {
          "internalType": "contract ISilo",
          "name": "_silo",
          "type": "address"
        }
      ],
      "name": "liquidity",
      "outputs": [
        {
          "internalType": "uint256",
          "name": "",
          "type": "uint256"
        }
      ],
      "stateMutability": "view",
      "type": "function"
    },
    {
      "inputs": [
        {
          "internalType": "contract ISilo",
          "name": "_silo",
          "type": "address"
        },
        {
          "internalType": "contract IPartialLiquidation",
          "name": "_hook",
          "type": "address"
        },
        {
          "internalType": "address",
          "name": "_borrower",
          "type": "address"
        }
      ],
      "name": "maxLiquidation",
      "outputs": [
        {
          "internalType": "uint256",
          "name": "collateralToLiquidate",
          "type": "uint256"
        },
        {
          "internalType": "uint256",
          "name": "debtToRepay",
          "type": "uint256"
        },
        {
          "internalType": "bool",
          "name": "sTokenRequired",
          "type": "bool"
        },
        {
          "internalType": "bool",
          "name": "fullLiquidation",
          "type": "bool"
        }
      ],
      "stateMutability": "view",
      "type": "function"
    },
    {
      "inputs": [
        {
          "internalType": "contract ISilo",
          "name": "_silo",
          "type": "address"
        }
      ],
      "name": "protocolFees",
      "outputs": [
        {
          "internalType": "uint256",
          "name": "daoAndDeployerRevenue",
          "type": "uint256"
        }
      ],
      "stateMutability": "view",
      "type": "function"
    },
    {
      "inputs": [
        {
          "internalType": "contract ISilo",
          "name": "_silo",
          "type": "address"
        }
      ],
      "name": "totalBorrowAmount",
      "outputs": [
        {
          "internalType": "uint256",
          "name": "",
          "type": "uint256"
        }
      ],
      "stateMutability": "view",
      "type": "function"
    },
    {
      "inputs": [
        {
          "internalType": "contract ISilo",
          "name": "_silo",
          "type": "address"
        }
      ],
      "name": "totalBorrowAmountWithInterest",
      "outputs": [
        {
          "internalType": "uint256",
          "name": "totalBorrowAmount",
          "type": "uint256"
        }
      ],
      "stateMutability": "view",
      "type": "function"
    },
    {
      "inputs": [
        {
          "internalType": "contract ISilo",
          "name": "_silo",
          "type": "address"
        }
      ],
      "name": "totalBorrowShare",
      "outputs": [
        {
          "internalType": "uint256",
          "name": "",
          "type": "uint256"
        }
      ],
      "stateMutability": "view",
      "type": "function"
    },
    {
      "inputs": [
        {
          "internalType": "contract ISilo",
          "name": "_silo",
          "type": "address"
        }
      ],
      "name": "totalDeposits",
      "outputs": [
        {
          "internalType": "uint256",
          "name": "totalDeposits",
          "type": "uint256"
        }
      ],
      "stateMutability": "view",
      "type": "function"
    },
    {
      "inputs": [
        {
          "internalType": "contract ISilo",
          "name": "_silo",
          "type": "address"
        }
      ],
      "name": "totalDepositsWithInterest",
      "outputs": [
        {
          "internalType": "uint256",
          "name": "totalDeposits",
          "type": "uint256"
        }
      ],
      "stateMutability": "view",
      "type": "function"
    },
    {
      "inputs": [],
      "name": "InvalidAsset",
      "type": "error"
    }
  ],
  "bytecode": "0x6080604052348015600e575f5ffd5b50612f458061001c5f395ff3fe608060405234801561000f575f5ffd5b50600436106101db575f3560e01c80638705c35911610109578063dcf844a71161009e578063f2a07bc91161006e578063f2a07bc914610457578063f45b1b3a1461046a578063f5125d3f146102b2578063fdce86431461047d575f5ffd5b8063dcf844a71461040b578063dd718ab41461041e578063e218721814610431578063e940325614610444575f5ffd5b8063aaf5eb68116100d9578063aaf5eb68146103d6578063b1ff4d6c146103e5578063b8c876b1146103f8578063d9bd0ea21461029f575f5ffd5b80638705c359146103625780638ec109da146103755780639bbafd5314610388578063aab2353a1461039b575f5ffd5b806343afdad21161017f578063647e0c201161014f578063647e0c20146103165780636c15c9ba1461032957806374cd15f31461033c578063868682cb1461034f575f5ffd5b806343afdad2146102b25780634f6a57b6146102c557806354a05771146102d8578063590630f014610303575f5ffd5b806324bc00b0116101ba57806324bc00b01461025657806336e496581461027957806337febff41461028c57806338bad5e51461029f575f5ffd5b8062e0f7a0146101df57806306b39a7714610205578063249a649614610218575b5f5ffd5b6101f26101ed3660046128c2565b610490565b6040519081526020015b60405180910390f35b6101f26102133660046128c2565b6104a0565b61022b6102263660046128c2565b610501565b604080516001600160a01b0395861681529490931660208501529183015260608201526080016101fc565b6102696102643660046128dd565b61051e565b60405190151581526020016101fc565b6101f26102873660046128c2565b610530565b6101f261029a3660046128c2565b61057a565b6101f26102ad3660046128dd565b610584565b6101f26102c03660046128dd565b6105f0565b6101f26102d33660046128c2565b6105fb565b6102eb6102e63660046128c2565b610605565b6040516001600160a01b0390911681526020016101fc565b6102696103113660046128dd565b61060f565b6101f26103243660046128c2565b61067a565b6101f26103373660046128dd565b610684565b6101f261034a3660046128c2565b61068f565b6101f261035d3660046128dd565b6106cc565b6102696103703660046128dd565b61072c565b6101f26103833660046128dd565b610737565b6101f26103963660046128c2565b61074a565b6103ae6103a9366004612914565b610778565b60408051948552602085019390935290151591830191909152151560608201526080016101fc565b6101f2670de0b6b3a764000081565b6101f26103f33660046128c2565b61086b565b6101f26104063660046128c2565b610875565b6101f26104193660046128c2565b6108b2565b6101f261042c3660046128dd565b610928565b6102eb61043f3660046128c2565b61093b565b6101f26104523660046128c2565b610a12565b6101f26104653660046128c2565b610a41565b6101f26104783660046128dd565b610a4b565b6101f261048b3660046128c2565b610adc565b5f61049a82610b66565b92915050565b5f816001600160a01b03166301e1d1146040518163ffffffff1660e01b8152600401602060405180830381865afa1580156104dd573d5f5f3e3d5ffd5b505050506040513d601f19601f8201168201806040525081019061049a919061295c565b5f5f5f5f61050e85610c70565b5092989197509550909350915050565b5f6105298383610e24565b9392505050565b60405163b6d821c760e01b81525f906001600160a01b0383169063b6d821c79061055f90600290600401612987565b602060405180830381865afa1580156104dd573d5f5f3e3d5ffd5b5f61049a82611273565b604051635f30114960e01b81526001600160a01b0382811660048301525f9190841690635f301149906024015b602060405180830381865afa1580156105cc573d5f5f3e3d5ffd5b505050506040513d601f19601f82011682018060405250810190610529919061295c565b5f610529838361134a565b5f61049a826114c7565b5f61049a8261093b565b6040516338b51ce160e01b81526001600160a01b0382811660048301525f91908416906338b51ce190602401602060405180830381865afa158015610656573d5f5f3e3d5ffd5b505050506040513d601f19601f8201168201806040525081019061052991906129b5565b5f61049a826116c2565b5f6105298383611799565b5f816001600160a01b031663ecd658b46040518163ffffffff1660e01b8152600401602060405180830381865afa1580156104dd573d5f5f3e3d5ffd5b60405163c99ee7b760e01b81526001600160a01b038084166004830152821660248201525f9073__$89d37a64e3ccc21ed0741d2ae8390c2e12$__9063c99ee7b790604401602060405180830381865af41580156105cc573d5f5f3e3d5ffd5b5f6105298383611a47565b5f6107428383611b4c565b949350505050565b60405163b6d821c760e01b81525f906001600160a01b0383169063b6d821c79061055f908490600401612987565b6040516317a05b0960e31b81526001600160a01b0382811660048301525f9182918291829187169063bd02d84890602401606060405180830381865afa1580156107c4573d5f5f3e3d5ffd5b505050506040513d601f19601f820116820180604052508101906107e891906129ce565b604051635f30114960e01b81526001600160a01b03898116600483015293975091955093505f91891690635f30114990602401602060405180830381865afa158015610836573d5f5f3e3d5ffd5b505050506040513d601f19601f8201168201806040525081019061085a919061295c565b905083811491505093509350935093565b5f61049a82611c72565b5f816001600160a01b0316630910a5106040518163ffffffff1660e01b8152600401602060405180830381865afa1580156104dd573d5f5f3e3d5ffd5b5f816001600160a01b0316639d35abaf6040518163ffffffff1660e01b815260040160a060405180830381865afa1580156108ef573d5f5f3e3d5ffd5b505050506040513d601f19601f820116820180604052508101906109139190612a18565b50506001600160c01b03909216949350505050565b5f6109338383611b4c565b509392505050565b5f816001600160a01b03166379502c556040518163ffffffff1660e01b8152600401602060405180830381865afa158015610978573d5f5f3e3d5ffd5b505050506040513d601f19601f8201168201806040525081019061099c9190612a6f565b60405163e48a5f7b60e01b81526001600160a01b038481166004830152919091169063e48a5f7b9060240161022060405180830381865afa1580156109e3573d5f5f3e3d5ffd5b505050506040513d601f19601f82011682018060405250810190610a079190612be3565b610120015192915050565b60405163b6d821c760e01b81525f906001600160a01b0383169063b6d821c79061055f90600190600401612987565b5f61049a82611d7e565b6040516370a0823160e01b81526001600160a01b0382811660048301525f9190841690634cdad5069082906370a0823190602401602060405180830381865afa158015610a9a573d5f5f3e3d5ffd5b505050506040513d601f19601f82011682018060405250810190610abe919061295c565b6040518263ffffffff1660e01b81526004016105b191815260200190565b5f5f826001600160a01b0316639ef2fda06040518163ffffffff1660e01b8152600401606060405180830381865afa158015610b1a573d5f5f3e3d5ffd5b505050506040513d601f19601f82011682018060405250810190610b3e9190612bfe565b9050805f0151670de0b6b3a76400008260200151610b5c9190612c7d565b6105299190612ca8565b5f5f826001600160a01b03166379502c556040518163ffffffff1660e01b8152600401602060405180830381865afa158015610ba4573d5f5f3e3d5ffd5b505050506040513d601f19601f82011682018060405250810190610bc89190612a6f565b60405163e48a5f7b60e01b81526001600160a01b038581166004830152919091169063e48a5f7b9060240161022060405180830381865afa158015610c0f573d5f5f3e3d5ffd5b505050506040513d601f19601f82011682018060405250810190610c339190612be3565b61012001516040516364efe17760e01b81526001600160a01b038581166004830152426024830152919250908216906364efe177906044016105b1565b5f5f5f5f5f856001600160a01b03166379502c556040518163ffffffff1660e01b8152600401602060405180830381865afa158015610cb1573d5f5f3e3d5ffd5b505050506040513d601f19601f82011682018060405250810190610cd59190612a6f565b604051630509af0560e51b81526001600160a01b038881166004830152919091169063a135e0a090602401608060405180830381865afa158015610d1b573d5f5f3e3d5ffd5b505050506040513d601f19601f82011682018060405250810190610d3f9190612cbb565b9050809350819450829550505050856001600160a01b031663c45a01556040518163ffffffff1660e01b8152600401602060405180830381865afa158015610d89573d5f5f3e3d5ffd5b505050506040513d601f19601f82011682018060405250810190610dad9190612a6f565b604051630c0d053960e11b81526001600160a01b038881166004830152919091169063181a0a72906024016040805180830381865afa158015610df2573d5f5f3e3d5ffd5b505050506040513d601f19601f82011682018060405250810190610e169190612cfb565b909790965092945090925090565b5f5f5f846001600160a01b031663aecc90cb6040518163ffffffff1660e01b81526004016040805180830381865afa158015610e62573d5f5f3e3d5ffd5b505050506040513d601f19601f82011682018060405250810190610e869190612cfb565b60405163e48a5f7b60e01b81526001600160a01b0380841660048301529294509092505f9187169063e48a5f7b9060240161022060405180830381865afa158015610ed3573d5f5f3e3d5ffd5b505050506040513d601f19601f82011682018060405250810190610ef79190612be3565b60405163e48a5f7b60e01b81526001600160a01b0384811660048301529192505f9188169063e48a5f7b9060240161022060405180830381865afa158015610f41573d5f5f3e3d5ffd5b505050506040513d601f19601f82011682018060405250810190610f659190612be3565b60a08301516040516370a0823160e01b81526001600160a01b0389811660048301529293509116906370a0823190602401602060405180830381865afa158015610fb1573d5f5f3e3d5ffd5b505050506040513d601f19601f82011682018060405250810190610fd5919061295c565b15610fe757600194505050505061049a565b60808201516040516370a0823160e01b81526001600160a01b038881166004830152909116906370a0823190602401602060405180830381865afa158015611031573d5f5f3e3d5ffd5b505050506040513d601f19601f82011682018060405250810190611055919061295c565b1561106757600194505050505061049a565b60a08101516040516370a0823160e01b81526001600160a01b038881166004830152909116906370a0823190602401602060405180830381865afa1580156110b1573d5f5f3e3d5ffd5b505050506040513d601f19601f820116820180604052508101906110d5919061295c565b156110e757600194505050505061049a565b60808101516040516370a0823160e01b81526001600160a01b038881166004830152909116906370a0823190602401602060405180830381865afa158015611131573d5f5f3e3d5ffd5b505050506040513d601f19601f82011682018060405250810190611155919061295c565b1561116757600194505050505061049a565b60c08201516040516370a0823160e01b81526001600160a01b038881166004830152909116906370a0823190602401602060405180830381865afa1580156111b1573d5f5f3e3d5ffd5b505050506040513d601f19601f820116820180604052508101906111d5919061295c565b156111e757600194505050505061049a565b60c08101516040516370a0823160e01b81526001600160a01b038881166004830152909116906370a0823190602401602060405180830381865afa158015611231573d5f5f3e3d5ffd5b505050506040513d601f19601f82011682018060405250810190611255919061295c565b1561126757600194505050505061049a565b505f9695505050505050565b5f816001600160a01b03166379502c556040518163ffffffff1660e01b8152600401602060405180830381865afa1580156112b0573d5f5f3e3d5ffd5b505050506040513d601f19601f820116820180604052508101906112d49190612a6f565b60405163e48a5f7b60e01b81526001600160a01b038481166004830152919091169063e48a5f7b9060240161022060405180830381865afa15801561131b573d5f5f3e3d5ffd5b505050506040513d601f19601f8201168201806040525081019061133f9190612be3565b610160015192915050565b5f5f5f846001600160a01b03166379502c556040518163ffffffff1660e01b8152600401602060405180830381865afa158015611389573d5f5f3e3d5ffd5b505050506040513d601f19601f820116820180604052508101906113ad9190612a6f565b6040516394c0527d60e01b81526001600160a01b03868116600483015291909116906394c0527d9060240161044060405180830381865afa1580156113f4573d5f5f3e3d5ffd5b505050506040513d601f19601f820116820180604052508101906114189190612d28565b604081015191935091506001600160a01b0316156114bf576114bc8282865f60018660c001516001600160a01b03166370a082318b6040518263ffffffff1660e01b815260040161147891906001600160a01b0391909116815260200190565b602060405180830381865afa158015611493573d5f5f3e3d5ffd5b505050506040513d601f19601f820116820180604052508101906114b7919061295c565b611e5f565b92505b505092915050565b5f5f826001600160a01b031663a1ff9bee6040518163ffffffff1660e01b8152600401602060405180830381865afa158015611505573d5f5f3e3d5ffd5b505050506040513d601f19601f82011682018060405250810190611529919061295c565b9050805f0361153a57505f92915050565b5f836001600160a01b03166379502c556040518163ffffffff1660e01b8152600401602060405180830381865afa158015611577573d5f5f3e3d5ffd5b505050506040513d601f19601f8201168201806040525081019061159b9190612a6f565b60405163e48a5f7b60e01b81526001600160a01b038681166004830152919091169063e48a5f7b9060240161022060405180830381865afa1580156115e2573d5f5f3e3d5ffd5b505050506040513d601f19601f820116820180604052508101906116069190612be3565b905081846001600160a01b031663ecd658b46040518163ffffffff1660e01b8152600401602060405180830381865afa158015611645573d5f5f3e3d5ffd5b505050506040513d601f19601f82011682018060405250810190611669919061295c565b61167286610b66565b61167c9190612c7d565b6116869190612ca8565b60208201518251919450670de0b6b3a7640000916116a49083612d5d565b6116ae9190612d5d565b6116b89085612c7d565b6107429190612ca8565b5f816001600160a01b03166379502c556040518163ffffffff1660e01b8152600401602060405180830381865afa1580156116ff573d5f5f3e3d5ffd5b505050506040513d601f19601f820116820180604052508101906117239190612a6f565b60405163e48a5f7b60e01b81526001600160a01b038481166004830152919091169063e48a5f7b9060240161022060405180830381865afa15801561176a573d5f5f3e3d5ffd5b505050506040513d601f19601f8201168201806040525081019061178e9190612be3565b610140015192915050565b5f5f5f846001600160a01b03166379502c556040518163ffffffff1660e01b8152600401602060405180830381865afa1580156117d8573d5f5f3e3d5ffd5b505050506040513d601f19601f820116820180604052508101906117fc9190612a6f565b604051630483b24f60e41b81526001600160a01b038781166004830152919091169063483b24f090602401606060405180830381865afa158015611842573d5f5f3e3d5ffd5b505050506040513d601f19601f820116820180604052508101906118669190612d70565b506040516370a0823160e01b81526001600160a01b0387811660048301529294509092505f918416906370a0823190602401602060405180830381865afa1580156118b3573d5f5f3e3d5ffd5b505050506040513d601f19601f820116820180604052508101906118d7919061295c565b6040516370a0823160e01b81526001600160a01b0387811660048301529192505f918416906370a0823190602401602060405180830381865afa158015611920573d5f5f3e3d5ffd5b505050506040513d601f19601f82011682018060405250810190611944919061295c565b905081156119bc5760405163a7d6e44b60e01b81526001600160a01b0388169063a7d6e44b9061197a9085905f90600401612daf565b602060405180830381865afa158015611995573d5f5f3e3d5ffd5b505050506040513d601f19601f820116820180604052508101906119b9919061295c565b94505b8015611a3d5760405163a7d6e44b60e01b81526001600160a01b0388169063a7d6e44b906119f1908490600190600401612daf565b602060405180830381865afa158015611a0c573d5f5f3e3d5ffd5b505050506040513d601f19601f82011682018060405250810190611a30919061295c565b611a3a9086612dd3565b94505b5050505092915050565b6040516394c0527d60e01b81526001600160a01b0382811660048301525f9182918291908616906394c0527d9060240161044060405180830381865afa158015611a93573d5f5f3e3d5ffd5b505050506040513d601f19601f82011682018060405250810190611ab79190612d28565b60c081015191935091506001600160a01b0316158015906114bc575060c08101516040516370a0823160e01b81526001600160a01b038681166004830152909116906370a0823190602401602060405180830381865afa158015611b1d573d5f5f3e3d5ffd5b505050506040513d601f19601f82011682018060405250810190611b41919061295c565b151595945050505050565b6040516394c0527d60e01b81526001600160a01b0382811660048301525f918291829182918716906394c0527d9060240161044060405180830381865afa158015611b99573d5f5f3e3d5ffd5b505050506040513d601f19601f82011682018060405250810190611bbd9190612d28565b915091505f611c4e8383885f60018760c001516001600160a01b03166370a082318d6040518263ffffffff1660e01b8152600401611c0a91906001600160a01b0391909116815260200190565b602060405180830381865afa158015611c25573d5f5f3e3d5ffd5b505050506040513d601f19601f82011682018060405250810190611c49919061295c565b611eb6565b9050611c638184606001518460600151612133565b50909890975095505050505050565b5f5f826001600160a01b03166379502c556040518163ffffffff1660e01b8152600401602060405180830381865afa158015611cb0573d5f5f3e3d5ffd5b505050506040513d601f19601f82011682018060405250810190611cd49190612a6f565b604051630483b24f60e41b81526001600160a01b038581166004830152919091169063483b24f090602401606060405180830381865afa158015611d1a573d5f5f3e3d5ffd5b505050506040513d601f19601f82011682018060405250810190611d3e9190612d70565b92505050806001600160a01b03166318160ddd6040518163ffffffff1660e01b8152600401602060405180830381865afa1580156105cc573d5f5f3e3d5ffd5b5f61049a826001600160a01b031663b6d821c760016040518263ffffffff1660e01b8152600401611daf9190612987565b602060405180830381865afa158015611dca573d5f5f3e3d5ffd5b505050506040513d601f19601f82011682018060405250810190611dee919061295c565b60405163b6d821c760e01b81526001600160a01b0385169063b6d821c790611e1b90600290600401612987565b602060405180830381865afa158015611e36573d5f5f3e3d5ffd5b505050506040513d601f19601f82011682018060405250810190611e5a919061295c565b612189565b5f815f03611e6e57505f611eac565b5f611e7d888888888888611eb6565b905080608001515f03611e93575f915050611eac565b611ea68189606001518960600151612133565b93505050505b9695505050505050565b611ef56040518060a001604052805f6001600160a01b031681526020015f6001600160a01b031681526020015f81526020015f81526020015f81525090565b85606001516001600160a01b031687606001516001600160a01b031614611f5f576001846001811115611f2a57611f2a612973565b14611f3e578660e001518660e00151611f4b565b8661010001518661010001515b6001600160a01b0390811660208401521681525b5f5f611f708960800151885f6121a1565b80935081925050505f5f8a604001516001600160a01b031663ffbaaf7a6040518163ffffffff1660e01b81526004016040805180830381865afa158015611fb9573d5f5f3e3d5ffd5b505050506040513d601f19601f82011682018060405250810190611fdd9190612de6565b91509150611fee8382865f5f612289565b604086015260a08b0151612003908a5f6121a1565b94509250600187600181111561201b5761201b612973565b146120265781612042565b6120428b604001518c61012001518d5f01518e602001516122c6565b91506120528383865f6001612289565b606086015260c08a0151612067908a886121a1565b945092505f600188600181111561208057612080612973565b146120fa578a604001516001600160a01b031663b6d821c760026040518263ffffffff1660e01b81526004016120b69190612987565b602060405180830381865afa1580156120d1573d5f5f3e3d5ffd5b505050506040513d601f19601f820116820180604052508101906120f5919061295c565b61210d565b61210d8b604001518c61012001516123bc565b905061211e84828760016002612289565b608087015250939a9950505050505050505050565b5f5f5f6121418686866124af565b909350915082158015612152575081155b1561216457505f915081905080612180565b825f0361217357505f19612180565b61217d8284612605565b90505b93509350939050565b5f82821161219957818303610529565b5f9392505050565b5f5f825f0361221b5760405163dce5c2db60e01b81526001600160a01b03858116600483015286169063dce5c2db906024016040805180830381865afa1580156121ed573d5f5f3e3d5ffd5b505050506040513d601f19601f820116820180604052508101906122119190612de6565b9092509050612281565b829150846001600160a01b03166318160ddd6040518163ffffffff1660e01b8152600401602060405180830381865afa15801561225a573d5f5f3e3d5ffd5b505050506040513d601f19601f8201168201806040525081019061227e919061295c565b90505b935093915050565b5f5f5f61229787878661261b565b91509150815f036122ac5787925050506122bd565b6122b888828488612676565b925050505b95945050505050565b6040516367efe7fd60e11b81526001600160a01b0385811660048301524260248301525f91829186169063cfdfcffa90604401602060405180830381865afa925050508015612332575060408051601f3d908101601f1916820190925261232f9181019061295c565b60015b1561233a5790505b5f5f876001600160a01b03166339c5c5056040518163ffffffff1660e01b81526004016040805180830381865afa158015612377573d5f5f3e3d5ffd5b505050506040513d601f19601f8201168201806040525081019061239b9190612de6565b915091506123ac82828589896126b8565b50919a9950505050505050505050565b6040516367efe7fd60e11b81526001600160a01b0383811660048301524260248301525f91829184169063cfdfcffa90604401602060405180830381865afa925050508015612428575060408051601f3d908101601f191682019092526124259181019061295c565b60015b156124305790505b60405163b6d821c760e01b81526124a6906001600160a01b0386169063b6d821c79061246190600290600401612987565b602060405180830381865afa15801561247c573d5f5f3e3d5ffd5b505050506040513d601f19601f820116820180604052508101906124a0919061295c565b8261271e565b50949350505050565b5f5f5f856060015186604001516124c69190612dd3565b905080156125585785516001600160a01b03166124e35780612555565b85516040516313b0be3360e01b8152600481018390526001600160a01b038781166024830152909116906313b0be3390604401602060405180830381865afa158015612531573d5f5f3e3d5ffd5b505050506040513d601f19601f82011682018060405250810190612555919061295c565b92505b6080860151156125fc5760208601516001600160a01b031661257e5785608001516125f9565b602086015160808701516040516313b0be3360e01b815260048101919091526001600160a01b038681166024830152909116906313b0be3390604401602060405180830381865afa1580156125d5573d5f5f3e3d5ffd5b505050506040513d601f19601f820116820180604052508101906125f9919061295c565b91505b50935093915050565b5f61052983670de0b6b3a7640000846001612676565b5f5f835f03612628575f94505b600283600281111561263c5761263c612973565b146126675761264d6003600a612ee3565b6126579085612dd3565b612662866001612dd3565b61266a565b83855b90969095509350505050565b5f6126a361268383612769565b801561269e57505f848061269957612699612c94565b868809115b151590565b6126ae868686612795565b6122bd9190612dd3565b5f5f5f5f6126c6888861271e565b90935090508585016126e18282670de0b6b3a7640000612852565b92505f6126ee8484612d5d565b90505f6126fc8c5f19612d5d565b90508181101561270a578091505b818c01965050505095509550955095915050565b5f8083158061272b575082155b1561273a57508290505f612762565b61274d8484670de0b6b3a7640000612852565b905080840191508382101561276257508290505f5b9250929050565b5f600282600381111561277e5761277e612973565b6127889190612eee565b60ff166001149050919050565b5f838302815f1985870982811083820303915050805f036127c9578382816127bf576127bf612c94565b0492505050610529565b8084116127e7576127e784156127e057601161289a565b601261289a565b5f848688095f868103871696879004966002600389028118808a02820302808a02820302808a02820302808a02820302808a02820302808a02909103029181900381900460010186841190950394909402919094039290920491909117919091029150509392505050565b5f835f0361286157505f610529565b508282028284828161287557612875612c94565b041461288257505f610529565b81818161289157612891612c94565b04949350505050565b634e487b715f52806020526024601cfd5b6001600160a01b03811681146128bf575f5ffd5b50565b5f602082840312156128d2575f5ffd5b8135610529816128ab565b5f5f604083850312156128ee575f5ffd5b82356128f9816128ab565b91506020830135612909816128ab565b809150509250929050565b5f5f5f60608486031215612926575f5ffd5b8335612931816128ab565b92506020840135612941816128ab565b91506040840135612951816128ab565b809150509250925092565b5f6020828403121561296c575f5ffd5b5051919050565b634e487b7160e01b5f52602160045260245ffd5b602081016003831061299b5761299b612973565b91905290565b805180151581146129b0575f5ffd5b919050565b5f602082840312156129c5575f5ffd5b610529826129a1565b5f5f5f606084860312156129e0575f5ffd5b8351602085015190935091506129f8604085016129a1565b90509250925092565b805167ffffffffffffffff811681146129b0575f5ffd5b5f5f5f5f5f60a08688031215612a2c575f5ffd5b85516001600160c01b0381168114612a42575f5ffd5b9450612a5060208701612a01565b6040870151606088015160809098015196999198509695945092505050565b5f60208284031215612a7f575f5ffd5b8151610529816128ab565b604051610220810167ffffffffffffffff81118282101715612aba57634e487b7160e01b5f52604160045260245ffd5b60405290565b80516129b0816128ab565b5f6102208284031215612adc575f5ffd5b612ae4612a8a565b82518152602080840151908201529050612b0060408301612ac0565b6040820152612b1160608301612ac0565b6060820152612b2260808301612ac0565b6080820152612b3360a08301612ac0565b60a0820152612b4460c08301612ac0565b60c0820152612b5560e08301612ac0565b60e0820152612b676101008301612ac0565b610100820152612b7a6101208301612ac0565b6101208201526101408281015190820152610160808301519082015261018080830151908201526101a080830151908201526101c08083015190820152612bc46101e08301612ac0565b6101e0820152612bd761020083016129a1565b61020082015292915050565b5f6102208284031215612bf4575f5ffd5b6105298383612acb565b5f6060828403128015612c0f575f5ffd5b506040516060810167ffffffffffffffff81118282101715612c3f57634e487b7160e01b5f52604160045260245ffd5b60409081528351825260208085015190830152612c5d908401612a01565b60408201529392505050565b634e487b7160e01b5f52601160045260245ffd5b808202811582820484141761049a5761049a612c69565b634e487b7160e01b5f52601260045260245ffd5b5f82612cb657612cb6612c94565b500490565b5f5f5f5f60808587031215612cce575f5ffd5b84516020860151604087015160608801519296509094509250612cf0816128ab565b939692955090935050565b5f5f60408385031215612d0c575f5ffd5b8251612d17816128ab565b6020840151909250612909816128ab565b5f5f6104408385031215612d3a575f5ffd5b612d448484612acb565b9150612d54846102208501612acb565b90509250929050565b8181038181111561049a5761049a612c69565b5f5f5f60608486031215612d82575f5ffd5b8351612d8d816128ab565b6020850151909350612d9e816128ab565b6040850151909250612951816128ab565b8281526040810160028310612dc657612dc6612973565b8260208301529392505050565b8082018082111561049a5761049a612c69565b5f5f60408385031215612df7575f5ffd5b505080516020909101519092909150565b6001815b600184111561228157808504811115612e2757612e27612c69565b6001841615612e3557908102905b60019390931c928002612e0c565b5f82612e515750600161049a565b81612e5d57505f61049a565b8160018114612e735760028114612e7d57612e99565b600191505061049a565b60ff841115612e8e57612e8e612c69565b50506001821b61049a565b5060208310610133831016604e8410600b8410161715612ebc575081810a61049a565b612ec85f198484612e08565b805f1904821115612edb57612edb612c69565b029392505050565b5f6105298383612e43565b5f60ff831680612f0057612f00612c94565b8060ff8416069150509291505056fea264697066735822122010ab0ef0748fe8d1440658c6f19704a3baba4816898f3a04c2970392a43741c264736f6c634300081c0033",
  "language": "Solidity",
  "compiler": "0.8.28+commit.7893614a"
}