{
  "address": "0x5EA25a8E52729a81FA53c91cF56051b495265C46",
  "abi": [
    {
      "type": "constructor",
      "inputs": [
        {
          "name": "_siloFactory",
          "type": "address",
          "internalType": "contract ISiloFactory"
        }
      ],
      "stateMutability": "nonpayable"
    },
    {
      "type": "receive",
      "stateMutability": "payable"
    },
    {
      "type": "function",
      "name": "DOMAIN_SEPARATOR",
      "inputs": [],
      "outputs": [
        {
          "name": "",
          "type": "bytes32",
          "internalType": "bytes32"
        }
      ],
      "stateMutability": "view"
    },
    {
      "type": "function",
      "name": "accrueInterest",
      "inputs": [],
      "outputs": [
        {
          "name": "accruedInterest",
          "type": "uint256",
          "internalType": "uint256"
        }
      ],
      "stateMutability": "nonpayable"
    },
    {
      "type": "function",
      "name": "accrueInterestForConfig",
      "inputs": [
        {
          "name": "_interestRateModel",
          "type": "address",
          "internalType": "address"
        },
        {
          "name": "_daoFee",
          "type": "uint256",
          "internalType": "uint256"
        },
        {
          "name": "_deployerFee",
          "type": "uint256",
          "internalType": "uint256"
        }
      ],
      "outputs": [],
      "stateMutability": "nonpayable"
    },
    {
      "type": "function",
      "name": "allowance",
      "inputs": [
        {
          "name": "owner",
          "type": "address",
          "internalType": "address"
        },
        {
          "name": "spender",
          "type": "address",
          "internalType": "address"
        }
      ],
      "outputs": [
        {
          "name": "",
          "type": "uint256",
          "internalType": "uint256"
        }
      ],
      "stateMutability": "view"
    },
    {
      "type": "function",
      "name": "approve",
      "inputs": [
        {
          "name": "spender",
          "type": "address",
          "internalType": "address"
        },
        {
          "name": "value",
          "type": "uint256",
          "internalType": "uint256"
        }
      ],
      "outputs": [
        {
          "name": "result",
          "type": "bool",
          "internalType": "bool"
        }
      ],
      "stateMutability": "nonpayable"
    },
    {
      "type": "function",
      "name": "asset",
      "inputs": [],
      "outputs": [
        {
          "name": "assetTokenAddress",
          "type": "address",
          "internalType": "address"
        }
      ],
      "stateMutability": "view"
    },
    {
      "type": "function",
      "name": "balanceOf",
      "inputs": [
        {
          "name": "account",
          "type": "address",
          "internalType": "address"
        }
      ],
      "outputs": [
        {
          "name": "",
          "type": "uint256",
          "internalType": "uint256"
        }
      ],
      "stateMutability": "view"
    },
    {
      "type": "function",
      "name": "balanceOfAndTotalSupply",
      "inputs": [
        {
          "name": "_account",
          "type": "address",
          "internalType": "address"
        }
      ],
      "outputs": [
        {
          "name": "",
          "type": "uint256",
          "internalType": "uint256"
        },
        {
          "name": "",
          "type": "uint256",
          "internalType": "uint256"
        }
      ],
      "stateMutability": "view"
    },
    {
      "type": "function",
      "name": "borrow",
      "inputs": [
        {
          "name": "_assets",
          "type": "uint256",
          "internalType": "uint256"
        },
        {
          "name": "_receiver",
          "type": "address",
          "internalType": "address"
        },
        {
          "name": "_borrower",
          "type": "address",
          "internalType": "address"
        }
      ],
      "outputs": [
        {
          "name": "shares",
          "type": "uint256",
          "internalType": "uint256"
        }
      ],
      "stateMutability": "nonpayable"
    },
    {
      "type": "function",
      "name": "borrowSameAsset",
      "inputs": [
        {
          "name": "",
          "type": "uint256",
          "internalType": "uint256"
        },
        {
          "name": "",
          "type": "address",
          "internalType": "address"
        },
        {
          "name": "",
          "type": "address",
          "internalType": "address"
        }
      ],
      "outputs": [
        {
          "name": "",
          "type": "uint256",
          "internalType": "uint256"
        }
      ],
      "stateMutability": "nonpayable"
    },
    {
      "type": "function",
      "name": "borrowShares",
      "inputs": [
        {
          "name": "_shares",
          "type": "uint256",
          "internalType": "uint256"
        },
        {
          "name": "_receiver",
          "type": "address",
          "internalType": "address"
        },
        {
          "name": "_borrower",
          "type": "address",
          "internalType": "address"
        }
      ],
      "outputs": [
        {
          "name": "assets",
          "type": "uint256",
          "internalType": "uint256"
        }
      ],
      "stateMutability": "nonpayable"
    },
    {
      "type": "function",
      "name": "burn",
      "inputs": [
        {
          "name": "_owner",
          "type": "address",
          "internalType": "address"
        },
        {
          "name": "_spender",
          "type": "address",
          "internalType": "address"
        },
        {
          "name": "_amount",
          "type": "uint256",
          "internalType": "uint256"
        }
      ],
      "outputs": [],
      "stateMutability": "nonpayable"
    },
    {
      "type": "function",
      "name": "callOnBehalfOfSilo",
      "inputs": [
        {
          "name": "_target",
          "type": "address",
          "internalType": "address"
        },
        {
          "name": "_value",
          "type": "uint256",
          "internalType": "uint256"
        },
        {
          "name": "_callType",
          "type": "uint8",
          "internalType": "enum ISilo.CallType"
        },
        {
          "name": "_input",
          "type": "bytes",
          "internalType": "bytes"
        }
      ],
      "outputs": [
        {
          "name": "success",
          "type": "bool",
          "internalType": "bool"
        },
        {
          "name": "result",
          "type": "bytes",
          "internalType": "bytes"
        }
      ],
      "stateMutability": "payable"
    },
    {
      "type": "function",
      "name": "config",
      "inputs": [],
      "outputs": [
        {
          "name": "siloConfig",
          "type": "address",
          "internalType": "contract ISiloConfig"
        }
      ],
      "stateMutability": "view"
    },
    {
      "type": "function",
      "name": "convertToAssets",
      "inputs": [
        {
          "name": "_shares",
          "type": "uint256",
          "internalType": "uint256"
        }
      ],
      "outputs": [
        {
          "name": "assets",
          "type": "uint256",
          "internalType": "uint256"
        }
      ],
      "stateMutability": "view"
    },
    {
      "type": "function",
      "name": "convertToAssets",
      "inputs": [
        {
          "name": "_shares",
          "type": "uint256",
          "internalType": "uint256"
        },
        {
          "name": "_assetType",
          "type": "uint8",
          "internalType": "enum ISilo.AssetType"
        }
      ],
      "outputs": [
        {
          "name": "assets",
          "type": "uint256",
          "internalType": "uint256"
        }
      ],
      "stateMutability": "view"
    },
    {
      "type": "function",
      "name": "convertToShares",
      "inputs": [
        {
          "name": "_assets",
          "type": "uint256",
          "internalType": "uint256"
        },
        {
          "name": "_assetType",
          "type": "uint8",
          "internalType": "enum ISilo.AssetType"
        }
      ],
      "outputs": [
        {
          "name": "shares",
          "type": "uint256",
          "internalType": "uint256"
        }
      ],
      "stateMutability": "view"
    },
    {
      "type": "function",
      "name": "convertToShares",
      "inputs": [
        {
          "name": "_assets",
          "type": "uint256",
          "internalType": "uint256"
        }
      ],
      "outputs": [
        {
          "name": "shares",
          "type": "uint256",
          "internalType": "uint256"
        }
      ],
      "stateMutability": "view"
    },
    {
      "type": "function",
      "name": "decimals",
      "inputs": [],
      "outputs": [
        {
          "name": "",
          "type": "uint8",
          "internalType": "uint8"
        }
      ],
      "stateMutability": "view"
    },
    {
      "type": "function",
      "name": "deposit",
      "inputs": [
        {
          "name": "_assets",
          "type": "uint256",
          "internalType": "uint256"
        },
        {
          "name": "_receiver",
          "type": "address",
          "internalType": "address"
        }
      ],
      "outputs": [
        {
          "name": "shares",
          "type": "uint256",
          "internalType": "uint256"
        }
      ],
      "stateMutability": "nonpayable"
    },
    {
      "type": "function",
      "name": "deposit",
      "inputs": [
        {
          "name": "_assets",
          "type": "uint256",
          "internalType": "uint256"
        },
        {
          "name": "_receiver",
          "type": "address",
          "internalType": "address"
        },
        {
          "name": "_collateralType",
          "type": "uint8",
          "internalType": "enum ISilo.CollateralType"
        }
      ],
      "outputs": [
        {
          "name": "shares",
          "type": "uint256",
          "internalType": "uint256"
        }
      ],
      "stateMutability": "nonpayable"
    },
    {
      "type": "function",
      "name": "eip712Domain",
      "inputs": [],
      "outputs": [
        {
          "name": "fields",
          "type": "bytes1",
          "internalType": "bytes1"
        },
        {
          "name": "name",
          "type": "string",
          "internalType": "string"
        },
        {
          "name": "version",
          "type": "string",
          "internalType": "string"
        },
        {
          "name": "chainId",
          "type": "uint256",
          "internalType": "uint256"
        },
        {
          "name": "verifyingContract",
          "type": "address",
          "internalType": "address"
        },
        {
          "name": "salt",
          "type": "bytes32",
          "internalType": "bytes32"
        },
        {
          "name": "extensions",
          "type": "uint256[]",
          "internalType": "uint256[]"
        }
      ],
      "stateMutability": "view"
    },
    {
      "type": "function",
      "name": "factory",
      "inputs": [],
      "outputs": [
        {
          "name": "",
          "type": "address",
          "internalType": "contract ISiloFactory"
        }
      ],
      "stateMutability": "view"
    },
    {
      "type": "function",
      "name": "flashFee",
      "inputs": [
        {
          "name": "_token",
          "type": "address",
          "internalType": "address"
        },
        {
          "name": "_amount",
          "type": "uint256",
          "internalType": "uint256"
        }
      ],
      "outputs": [
        {
          "name": "fee",
          "type": "uint256",
          "internalType": "uint256"
        }
      ],
      "stateMutability": "view"
    },
    {
      "type": "function",
      "name": "flashLoan",
      "inputs": [
        {
          "name": "_receiver",
          "type": "address",
          "internalType": "contract IERC3156FlashBorrower"
        },
        {
          "name": "_token",
          "type": "address",
          "internalType": "address"
        },
        {
          "name": "_amount",
          "type": "uint256",
          "internalType": "uint256"
        },
        {
          "name": "_data",
          "type": "bytes",
          "internalType": "bytes"
        }
      ],
      "outputs": [
        {
          "name": "success",
          "type": "bool",
          "internalType": "bool"
        }
      ],
      "stateMutability": "nonpayable"
    },
    {
      "type": "function",
      "name": "forwardTransferFromNoChecks",
      "inputs": [
        {
          "name": "_from",
          "type": "address",
          "internalType": "address"
        },
        {
          "name": "_to",
          "type": "address",
          "internalType": "address"
        },
        {
          "name": "_amount",
          "type": "uint256",
          "internalType": "uint256"
        }
      ],
      "outputs": [],
      "stateMutability": "nonpayable"
    },
    {
      "type": "function",
      "name": "getCollateralAndDebtTotalsStorage",
      "inputs": [],
      "outputs": [
        {
          "name": "totalCollateralAssets",
          "type": "uint256",
          "internalType": "uint256"
        },
        {
          "name": "totalDebtAssets",
          "type": "uint256",
          "internalType": "uint256"
        }
      ],
      "stateMutability": "view"
    },
    {
      "type": "function",
      "name": "getCollateralAndProtectedTotalsStorage",
      "inputs": [],
      "outputs": [
        {
          "name": "totalCollateralAssets",
          "type": "uint256",
          "internalType": "uint256"
        },
        {
          "name": "totalProtectedAssets",
          "type": "uint256",
          "internalType": "uint256"
        }
      ],
      "stateMutability": "view"
    },
    {
      "type": "function",
      "name": "getCollateralAssets",
      "inputs": [],
      "outputs": [
        {
          "name": "totalCollateralAssets",
          "type": "uint256",
          "internalType": "uint256"
        }
      ],
      "stateMutability": "view"
    },
    {
      "type": "function",
      "name": "getDebtAssets",
      "inputs": [],
      "outputs": [
        {
          "name": "totalDebtAssets",
          "type": "uint256",
          "internalType": "uint256"
        }
      ],
      "stateMutability": "view"
    },
    {
      "type": "function",
      "name": "getFractionsStorage",
      "inputs": [],
      "outputs": [
        {
          "name": "fractions",
          "type": "tuple",
          "internalType": "struct ISilo.Fractions",
          "components": [
            {
              "name": "interest",
              "type": "uint64",
              "internalType": "uint64"
            },
            {
              "name": "revenue",
              "type": "uint64",
              "internalType": "uint64"
            }
          ]
        }
      ],
      "stateMutability": "view"
    },
    {
      "type": "function",
      "name": "getLiquidity",
      "inputs": [],
      "outputs": [
        {
          "name": "liquidity",
          "type": "uint256",
          "internalType": "uint256"
        }
      ],
      "stateMutability": "view"
    },
    {
      "type": "function",
      "name": "getSiloStorage",
      "inputs": [],
      "outputs": [
        {
          "name": "daoAndDeployerRevenue",
          "type": "uint192",
          "internalType": "uint192"
        },
        {
          "name": "interestRateTimestamp",
          "type": "uint64",
          "internalType": "uint64"
        },
        {
          "name": "protectedAssets",
          "type": "uint256",
          "internalType": "uint256"
        },
        {
          "name": "collateralAssets",
          "type": "uint256",
          "internalType": "uint256"
        },
        {
          "name": "debtAssets",
          "type": "uint256",
          "internalType": "uint256"
        }
      ],
      "stateMutability": "view"
    },
    {
      "type": "function",
      "name": "getTotalAssetsStorage",
      "inputs": [
        {
          "name": "_assetType",
          "type": "uint8",
          "internalType": "enum ISilo.AssetType"
        }
      ],
      "outputs": [
        {
          "name": "totalAssetsByType",
          "type": "uint256",
          "internalType": "uint256"
        }
      ],
      "stateMutability": "view"
    },
    {
      "type": "function",
      "name": "hookReceiver",
      "inputs": [],
      "outputs": [
        {
          "name": "",
          "type": "address",
          "internalType": "address"
        }
      ],
      "stateMutability": "view"
    },
    {
      "type": "function",
      "name": "hookSetup",
      "inputs": [],
      "outputs": [
        {
          "name": "",
          "type": "tuple",
          "internalType": "struct IShareToken.HookSetup",
          "components": [
            {
              "name": "hookReceiver",
              "type": "address",
              "internalType": "address"
            },
            {
              "name": "hooksBefore",
              "type": "uint24",
              "internalType": "uint24"
            },
            {
              "name": "hooksAfter",
              "type": "uint24",
              "internalType": "uint24"
            },
            {
              "name": "tokenType",
              "type": "uint24",
              "internalType": "uint24"
            }
          ]
        }
      ],
      "stateMutability": "view"
    },
    {
      "type": "function",
      "name": "initialize",
      "inputs": [
        {
          "name": "_config",
          "type": "address",
          "internalType": "contract ISiloConfig"
        }
      ],
      "outputs": [],
      "stateMutability": "nonpayable"
    },
    {
      "type": "function",
      "name": "isSolvent",
      "inputs": [
        {
          "name": "_borrower",
          "type": "address",
          "internalType": "address"
        }
      ],
      "outputs": [
        {
          "name": "",
          "type": "bool",
          "internalType": "bool"
        }
      ],
      "stateMutability": "view"
    },
    {
      "type": "function",
      "name": "maxBorrow",
      "inputs": [
        {
          "name": "_borrower",
          "type": "address",
          "internalType": "address"
        }
      ],
      "outputs": [
        {
          "name": "maxAssets",
          "type": "uint256",
          "internalType": "uint256"
        }
      ],
      "stateMutability": "view"
    },
    {
      "type": "function",
      "name": "maxBorrowSameAsset",
      "inputs": [
        {
          "name": "",
          "type": "address",
          "internalType": "address"
        }
      ],
      "outputs": [
        {
          "name": "",
          "type": "uint256",
          "internalType": "uint256"
        }
      ],
      "stateMutability": "pure"
    },
    {
      "type": "function",
      "name": "maxBorrowShares",
      "inputs": [
        {
          "name": "_borrower",
          "type": "address",
          "internalType": "address"
        }
      ],
      "outputs": [
        {
          "name": "maxShares",
          "type": "uint256",
          "internalType": "uint256"
        }
      ],
      "stateMutability": "view"
    },
    {
      "type": "function",
      "name": "maxDeposit",
      "inputs": [
        {
          "name": "",
          "type": "address",
          "internalType": "address"
        }
      ],
      "outputs": [
        {
          "name": "maxAssets",
          "type": "uint256",
          "internalType": "uint256"
        }
      ],
      "stateMutability": "pure"
    },
    {
      "type": "function",
      "name": "maxFlashLoan",
      "inputs": [
        {
          "name": "_token",
          "type": "address",
          "internalType": "address"
        }
      ],
      "outputs": [
        {
          "name": "maxLoan",
          "type": "uint256",
          "internalType": "uint256"
        }
      ],
      "stateMutability": "view"
    },
    {
      "type": "function",
      "name": "maxMint",
      "inputs": [
        {
          "name": "",
          "type": "address",
          "internalType": "address"
        }
      ],
      "outputs": [
        {
          "name": "maxShares",
          "type": "uint256",
          "internalType": "uint256"
        }
      ],
      "stateMutability": "view"
    },
    {
      "type": "function",
      "name": "maxRedeem",
      "inputs": [
        {
          "name": "_owner",
          "type": "address",
          "internalType": "address"
        },
        {
          "name": "_collateralType",
          "type": "uint8",
          "internalType": "enum ISilo.CollateralType"
        }
      ],
      "outputs": [
        {
          "name": "maxShares",
          "type": "uint256",
          "internalType": "uint256"
        }
      ],
      "stateMutability": "view"
    },
    {
      "type": "function",
      "name": "maxRedeem",
      "inputs": [
        {
          "name": "_owner",
          "type": "address",
          "internalType": "address"
        }
      ],
      "outputs": [
        {
          "name": "maxShares",
          "type": "uint256",
          "internalType": "uint256"
        }
      ],
      "stateMutability": "view"
    },
    {
      "type": "function",
      "name": "maxRepay",
      "inputs": [
        {
          "name": "_borrower",
          "type": "address",
          "internalType": "address"
        }
      ],
      "outputs": [
        {
          "name": "assets",
          "type": "uint256",
          "internalType": "uint256"
        }
      ],
      "stateMutability": "view"
    },
    {
      "type": "function",
      "name": "maxRepayShares",
      "inputs": [
        {
          "name": "_borrower",
          "type": "address",
          "internalType": "address"
        }
      ],
      "outputs": [
        {
          "name": "shares",
          "type": "uint256",
          "internalType": "uint256"
        }
      ],
      "stateMutability": "view"
    },
    {
      "type": "function",
      "name": "maxWithdraw",
      "inputs": [
        {
          "name": "_owner",
          "type": "address",
          "internalType": "address"
        },
        {
          "name": "_collateralType",
          "type": "uint8",
          "internalType": "enum ISilo.CollateralType"
        }
      ],
      "outputs": [
        {
          "name": "maxAssets",
          "type": "uint256",
          "internalType": "uint256"
        }
      ],
      "stateMutability": "view"
    },
    {
      "type": "function",
      "name": "maxWithdraw",
      "inputs": [
        {
          "name": "_owner",
          "type": "address",
          "internalType": "address"
        }
      ],
      "outputs": [
        {
          "name": "maxAssets",
          "type": "uint256",
          "internalType": "uint256"
        }
      ],
      "stateMutability": "view"
    },
    {
      "type": "function",
      "name": "mint",
      "inputs": [
        {
          "name": "_shares",
          "type": "uint256",
          "internalType": "uint256"
        },
        {
          "name": "_receiver",
          "type": "address",
          "internalType": "address"
        }
      ],
      "outputs": [
        {
          "name": "assets",
          "type": "uint256",
          "internalType": "uint256"
        }
      ],
      "stateMutability": "nonpayable"
    },
    {
      "type": "function",
      "name": "mint",
      "inputs": [
        {
          "name": "_shares",
          "type": "uint256",
          "internalType": "uint256"
        },
        {
          "name": "_receiver",
          "type": "address",
          "internalType": "address"
        },
        {
          "name": "_collateralType",
          "type": "uint8",
          "internalType": "enum ISilo.CollateralType"
        }
      ],
      "outputs": [
        {
          "name": "assets",
          "type": "uint256",
          "internalType": "uint256"
        }
      ],
      "stateMutability": "nonpayable"
    },
    {
      "type": "function",
      "name": "mint",
      "inputs": [
        {
          "name": "_owner",
          "type": "address",
          "internalType": "address"
        },
        {
          "name": "",
          "type": "address",
          "internalType": "address"
        },
        {
          "name": "_amount",
          "type": "uint256",
          "internalType": "uint256"
        }
      ],
      "outputs": [],
      "stateMutability": "nonpayable"
    },
    {
      "type": "function",
      "name": "name",
      "inputs": [],
      "outputs": [
        {
          "name": "",
          "type": "string",
          "internalType": "string"
        }
      ],
      "stateMutability": "view"
    },
    {
      "type": "function",
      "name": "nonces",
      "inputs": [
        {
          "name": "owner",
          "type": "address",
          "internalType": "address"
        }
      ],
      "outputs": [
        {
          "name": "",
          "type": "uint256",
          "internalType": "uint256"
        }
      ],
      "stateMutability": "view"
    },
    {
      "type": "function",
      "name": "permit",
      "inputs": [
        {
          "name": "owner",
          "type": "address",
          "internalType": "address"
        },
        {
          "name": "spender",
          "type": "address",
          "internalType": "address"
        },
        {
          "name": "value",
          "type": "uint256",
          "internalType": "uint256"
        },
        {
          "name": "deadline",
          "type": "uint256",
          "internalType": "uint256"
        },
        {
          "name": "v",
          "type": "uint8",
          "internalType": "uint8"
        },
        {
          "name": "r",
          "type": "bytes32",
          "internalType": "bytes32"
        },
        {
          "name": "s",
          "type": "bytes32",
          "internalType": "bytes32"
        }
      ],
      "outputs": [],
      "stateMutability": "nonpayable"
    },
    {
      "type": "function",
      "name": "previewBorrow",
      "inputs": [
        {
          "name": "_assets",
          "type": "uint256",
          "internalType": "uint256"
        }
      ],
      "outputs": [
        {
          "name": "shares",
          "type": "uint256",
          "internalType": "uint256"
        }
      ],
      "stateMutability": "view"
    },
    {
      "type": "function",
      "name": "previewBorrowShares",
      "inputs": [
        {
          "name": "_shares",
          "type": "uint256",
          "internalType": "uint256"
        }
      ],
      "outputs": [
        {
          "name": "assets",
          "type": "uint256",
          "internalType": "uint256"
        }
      ],
      "stateMutability": "view"
    },
    {
      "type": "function",
      "name": "previewDeposit",
      "inputs": [
        {
          "name": "_assets",
          "type": "uint256",
          "internalType": "uint256"
        },
        {
          "name": "_collateralType",
          "type": "uint8",
          "internalType": "enum ISilo.CollateralType"
        }
      ],
      "outputs": [
        {
          "name": "shares",
          "type": "uint256",
          "internalType": "uint256"
        }
      ],
      "stateMutability": "view"
    },
    {
      "type": "function",
      "name": "previewDeposit",
      "inputs": [
        {
          "name": "_assets",
          "type": "uint256",
          "internalType": "uint256"
        }
      ],
      "outputs": [
        {
          "name": "shares",
          "type": "uint256",
          "internalType": "uint256"
        }
      ],
      "stateMutability": "view"
    },
    {
      "type": "function",
      "name": "previewMint",
      "inputs": [
        {
          "name": "_shares",
          "type": "uint256",
          "internalType": "uint256"
        },
        {
          "name": "_collateralType",
          "type": "uint8",
          "internalType": "enum ISilo.CollateralType"
        }
      ],
      "outputs": [
        {
          "name": "assets",
          "type": "uint256",
          "internalType": "uint256"
        }
      ],
      "stateMutability": "view"
    },
    {
      "type": "function",
      "name": "previewMint",
      "inputs": [
        {
          "name": "_shares",
          "type": "uint256",
          "internalType": "uint256"
        }
      ],
      "outputs": [
        {
          "name": "assets",
          "type": "uint256",
          "internalType": "uint256"
        }
      ],
      "stateMutability": "view"
    },
    {
      "type": "function",
      "name": "previewRedeem",
      "inputs": [
        {
          "name": "_shares",
          "type": "uint256",
          "internalType": "uint256"
        }
      ],
      "outputs": [
        {
          "name": "assets",
          "type": "uint256",
          "internalType": "uint256"
        }
      ],
      "stateMutability": "view"
    },
    {
      "type": "function",
      "name": "previewRedeem",
      "inputs": [
        {
          "name": "_shares",
          "type": "uint256",
          "internalType": "uint256"
        },
        {
          "name": "_collateralType",
          "type": "uint8",
          "internalType": "enum ISilo.CollateralType"
        }
      ],
      "outputs": [
        {
          "name": "assets",
          "type": "uint256",
          "internalType": "uint256"
        }
      ],
      "stateMutability": "view"
    },
    {
      "type": "function",
      "name": "previewRepay",
      "inputs": [
        {
          "name": "_assets",
          "type": "uint256",
          "internalType": "uint256"
        }
      ],
      "outputs": [
        {
          "name": "shares",
          "type": "uint256",
          "internalType": "uint256"
        }
      ],
      "stateMutability": "view"
    },
    {
      "type": "function",
      "name": "previewRepayShares",
      "inputs": [
        {
          "name": "_shares",
          "type": "uint256",
          "internalType": "uint256"
        }
      ],
      "outputs": [
        {
          "name": "assets",
          "type": "uint256",
          "internalType": "uint256"
        }
      ],
      "stateMutability": "view"
    },
    {
      "type": "function",
      "name": "previewWithdraw",
      "inputs": [
        {
          "name": "_assets",
          "type": "uint256",
          "internalType": "uint256"
        }
      ],
      "outputs": [
        {
          "name": "shares",
          "type": "uint256",
          "internalType": "uint256"
        }
      ],
      "stateMutability": "view"
    },
    {
      "type": "function",
      "name": "previewWithdraw",
      "inputs": [
        {
          "name": "_assets",
          "type": "uint256",
          "internalType": "uint256"
        },
        {
          "name": "_collateralType",
          "type": "uint8",
          "internalType": "enum ISilo.CollateralType"
        }
      ],
      "outputs": [
        {
          "name": "shares",
          "type": "uint256",
          "internalType": "uint256"
        }
      ],
      "stateMutability": "view"
    },
    {
      "type": "function",
      "name": "redeem",
      "inputs": [
        {
          "name": "_shares",
          "type": "uint256",
          "internalType": "uint256"
        },
        {
          "name": "_receiver",
          "type": "address",
          "internalType": "address"
        },
        {
          "name": "_owner",
          "type": "address",
          "internalType": "address"
        }
      ],
      "outputs": [
        {
          "name": "assets",
          "type": "uint256",
          "internalType": "uint256"
        }
      ],
      "stateMutability": "nonpayable"
    },
    {
      "type": "function",
      "name": "redeem",
      "inputs": [
        {
          "name": "_shares",
          "type": "uint256",
          "internalType": "uint256"
        },
        {
          "name": "_receiver",
          "type": "address",
          "internalType": "address"
        },
        {
          "name": "_owner",
          "type": "address",
          "internalType": "address"
        },
        {
          "name": "_collateralType",
          "type": "uint8",
          "internalType": "enum ISilo.CollateralType"
        }
      ],
      "outputs": [
        {
          "name": "assets",
          "type": "uint256",
          "internalType": "uint256"
        }
      ],
      "stateMutability": "nonpayable"
    },
    {
      "type": "function",
      "name": "repay",
      "inputs": [
        {
          "name": "_assets",
          "type": "uint256",
          "internalType": "uint256"
        },
        {
          "name": "_borrower",
          "type": "address",
          "internalType": "address"
        }
      ],
      "outputs": [
        {
          "name": "shares",
          "type": "uint256",
          "internalType": "uint256"
        }
      ],
      "stateMutability": "nonpayable"
    },
    {
      "type": "function",
      "name": "repayShares",
      "inputs": [
        {
          "name": "_shares",
          "type": "uint256",
          "internalType": "uint256"
        },
        {
          "name": "_borrower",
          "type": "address",
          "internalType": "address"
        }
      ],
      "outputs": [
        {
          "name": "assets",
          "type": "uint256",
          "internalType": "uint256"
        }
      ],
      "stateMutability": "nonpayable"
    },
    {
      "type": "function",
      "name": "silo",
      "inputs": [],
      "outputs": [
        {
          "name": "",
          "type": "address",
          "internalType": "contract ISilo"
        }
      ],
      "stateMutability": "view"
    },
    {
      "type": "function",
      "name": "siloConfig",
      "inputs": [],
      "outputs": [
        {
          "name": "",
          "type": "address",
          "internalType": "contract ISiloConfig"
        }
      ],
      "stateMutability": "view"
    },
    {
      "type": "function",
      "name": "switchCollateralToThisSilo",
      "inputs": [],
      "outputs": [],
      "stateMutability": "nonpayable"
    },
    {
      "type": "function",
      "name": "symbol",
      "inputs": [],
      "outputs": [
        {
          "name": "",
          "type": "string",
          "internalType": "string"
        }
      ],
      "stateMutability": "view"
    },
    {
      "type": "function",
      "name": "synchronizeHooks",
      "inputs": [
        {
          "name": "_hooksBefore",
          "type": "uint24",
          "internalType": "uint24"
        },
        {
          "name": "_hooksAfter",
          "type": "uint24",
          "internalType": "uint24"
        }
      ],
      "outputs": [],
      "stateMutability": "nonpayable"
    },
    {
      "type": "function",
      "name": "totalAssets",
      "inputs": [],
      "outputs": [
        {
          "name": "totalManagedAssets",
          "type": "uint256",
          "internalType": "uint256"
        }
      ],
      "stateMutability": "view"
    },
    {
      "type": "function",
      "name": "totalSupply",
      "inputs": [],
      "outputs": [
        {
          "name": "",
          "type": "uint256",
          "internalType": "uint256"
        }
      ],
      "stateMutability": "view"
    },
    {
      "type": "function",
      "name": "transfer",
      "inputs": [
        {
          "name": "_to",
          "type": "address",
          "internalType": "address"
        },
        {
          "name": "_amount",
          "type": "uint256",
          "internalType": "uint256"
        }
      ],
      "outputs": [
        {
          "name": "result",
          "type": "bool",
          "internalType": "bool"
        }
      ],
      "stateMutability": "nonpayable"
    },
    {
      "type": "function",
      "name": "transferFrom",
      "inputs": [
        {
          "name": "_from",
          "type": "address",
          "internalType": "address"
        },
        {
          "name": "_to",
          "type": "address",
          "internalType": "address"
        },
        {
          "name": "_amount",
          "type": "uint256",
          "internalType": "uint256"
        }
      ],
      "outputs": [
        {
          "name": "result",
          "type": "bool",
          "internalType": "bool"
        }
      ],
      "stateMutability": "nonpayable"
    },
    {
      "type": "function",
      "name": "transitionCollateral",
      "inputs": [
        {
          "name": "_shares",
          "type": "uint256",
          "internalType": "uint256"
        },
        {
          "name": "_owner",
          "type": "address",
          "internalType": "address"
        },
        {
          "name": "_transitionFrom",
          "type": "uint8",
          "internalType": "enum ISilo.CollateralType"
        }
      ],
      "outputs": [
        {
          "name": "assets",
          "type": "uint256",
          "internalType": "uint256"
        }
      ],
      "stateMutability": "nonpayable"
    },
    {
      "type": "function",
      "name": "updateHooks",
      "inputs": [],
      "outputs": [],
      "stateMutability": "nonpayable"
    },
    {
      "type": "function",
      "name": "utilizationData",
      "inputs": [],
      "outputs": [
        {
          "name": "",
          "type": "tuple",
          "internalType": "struct ISilo.UtilizationData",
          "components": [
            {
              "name": "collateralAssets",
              "type": "uint256",
              "internalType": "uint256"
            },
            {
              "name": "debtAssets",
              "type": "uint256",
              "internalType": "uint256"
            },
            {
              "name": "interestRateTimestamp",
              "type": "uint64",
              "internalType": "uint64"
            }
          ]
        }
      ],
      "stateMutability": "view"
    },
    {
      "type": "function",
      "name": "withdraw",
      "inputs": [
        {
          "name": "_assets",
          "type": "uint256",
          "internalType": "uint256"
        },
        {
          "name": "_receiver",
          "type": "address",
          "internalType": "address"
        },
        {
          "name": "_owner",
          "type": "address",
          "internalType": "address"
        }
      ],
      "outputs": [
        {
          "name": "shares",
          "type": "uint256",
          "internalType": "uint256"
        }
      ],
      "stateMutability": "nonpayable"
    },
    {
      "type": "function",
      "name": "withdraw",
      "inputs": [
        {
          "name": "_assets",
          "type": "uint256",
          "internalType": "uint256"
        },
        {
          "name": "_receiver",
          "type": "address",
          "internalType": "address"
        },
        {
          "name": "_owner",
          "type": "address",
          "internalType": "address"
        },
        {
          "name": "_collateralType",
          "type": "uint8",
          "internalType": "enum ISilo.CollateralType"
        }
      ],
      "outputs": [
        {
          "name": "shares",
          "type": "uint256",
          "internalType": "uint256"
        }
      ],
      "stateMutability": "nonpayable"
    },
    {
      "type": "function",
      "name": "withdrawFees",
      "inputs": [],
      "outputs": [],
      "stateMutability": "nonpayable"
    },
    {
      "type": "event",
      "name": "AccruedInterest",
      "inputs": [
        {
          "name": "hooksBefore",
          "type": "uint256",
          "indexed": false,
          "internalType": "uint256"
        }
      ],
      "anonymous": false
    },
    {
      "type": "event",
      "name": "Approval",
      "inputs": [
        {
          "name": "owner",
          "type": "address",
          "indexed": true,
          "internalType": "address"
        },
        {
          "name": "spender",
          "type": "address",
          "indexed": true,
          "internalType": "address"
        },
        {
          "name": "value",
          "type": "uint256",
          "indexed": false,
          "internalType": "uint256"
        }
      ],
      "anonymous": false
    },
    {
      "type": "event",
      "name": "Borrow",
      "inputs": [
        {
          "name": "sender",
          "type": "address",
          "indexed": true,
          "internalType": "address"
        },
        {
          "name": "receiver",
          "type": "address",
          "indexed": true,
          "internalType": "address"
        },
        {
          "name": "owner",
          "type": "address",
          "indexed": true,
          "internalType": "address"
        },
        {
          "name": "assets",
          "type": "uint256",
          "indexed": false,
          "internalType": "uint256"
        },
        {
          "name": "shares",
          "type": "uint256",
          "indexed": false,
          "internalType": "uint256"
        }
      ],
      "anonymous": false
    },
    {
      "type": "event",
      "name": "CollateralTypeChanged",
      "inputs": [
        {
          "name": "borrower",
          "type": "address",
          "indexed": true,
          "internalType": "address"
        }
      ],
      "anonymous": false
    },
    {
      "type": "event",
      "name": "DeployerFeesRedirected",
      "inputs": [
        {
          "name": "deployerFees",
          "type": "uint256",
          "indexed": false,
          "internalType": "uint256"
        }
      ],
      "anonymous": false
    },
    {
      "type": "event",
      "name": "Deposit",
      "inputs": [
        {
          "name": "sender",
          "type": "address",
          "indexed": true,
          "internalType": "address"
        },
        {
          "name": "owner",
          "type": "address",
          "indexed": true,
          "internalType": "address"
        },
        {
          "name": "assets",
          "type": "uint256",
          "indexed": false,
          "internalType": "uint256"
        },
        {
          "name": "shares",
          "type": "uint256",
          "indexed": false,
          "internalType": "uint256"
        }
      ],
      "anonymous": false
    },
    {
      "type": "event",
      "name": "DepositProtected",
      "inputs": [
        {
          "name": "sender",
          "type": "address",
          "indexed": true,
          "internalType": "address"
        },
        {
          "name": "owner",
          "type": "address",
          "indexed": true,
          "internalType": "address"
        },
        {
          "name": "assets",
          "type": "uint256",
          "indexed": false,
          "internalType": "uint256"
        },
        {
          "name": "shares",
          "type": "uint256",
          "indexed": false,
          "internalType": "uint256"
        }
      ],
      "anonymous": false
    },
    {
      "type": "event",
      "name": "EIP712DomainChanged",
      "inputs": [],
      "anonymous": false
    },
    {
      "type": "event",
      "name": "FlashLoan",
      "inputs": [
        {
          "name": "amount",
          "type": "uint256",
          "indexed": false,
          "internalType": "uint256"
        }
      ],
      "anonymous": false
    },
    {
      "type": "event",
      "name": "HooksUpdated",
      "inputs": [
        {
          "name": "hooksBefore",
          "type": "uint24",
          "indexed": false,
          "internalType": "uint24"
        },
        {
          "name": "hooksAfter",
          "type": "uint24",
          "indexed": false,
          "internalType": "uint24"
        }
      ],
      "anonymous": false
    },
    {
      "type": "event",
      "name": "Initialized",
      "inputs": [
        {
          "name": "version",
          "type": "uint64",
          "indexed": false,
          "internalType": "uint64"
        }
      ],
      "anonymous": false
    },
    {
      "type": "event",
      "name": "NotificationSent",
      "inputs": [
        {
          "name": "notificationReceiver",
          "type": "address",
          "indexed": true,
          "internalType": "address"
        },
        {
          "name": "success",
          "type": "bool",
          "indexed": false,
          "internalType": "bool"
        }
      ],
      "anonymous": false
    },
    {
      "type": "event",
      "name": "Repay",
      "inputs": [
        {
          "name": "sender",
          "type": "address",
          "indexed": true,
          "internalType": "address"
        },
        {
          "name": "owner",
          "type": "address",
          "indexed": true,
          "internalType": "address"
        },
        {
          "name": "assets",
          "type": "uint256",
          "indexed": false,
          "internalType": "uint256"
        },
        {
          "name": "shares",
          "type": "uint256",
          "indexed": false,
          "internalType": "uint256"
        }
      ],
      "anonymous": false
    },
    {
      "type": "event",
      "name": "Transfer",
      "inputs": [
        {
          "name": "from",
          "type": "address",
          "indexed": true,
          "internalType": "address"
        },
        {
          "name": "to",
          "type": "address",
          "indexed": true,
          "internalType": "address"
        },
        {
          "name": "value",
          "type": "uint256",
          "indexed": false,
          "internalType": "uint256"
        }
      ],
      "anonymous": false
    },
    {
      "type": "event",
      "name": "Withdraw",
      "inputs": [
        {
          "name": "sender",
          "type": "address",
          "indexed": true,
          "internalType": "address"
        },
        {
          "name": "receiver",
          "type": "address",
          "indexed": true,
          "internalType": "address"
        },
        {
          "name": "owner",
          "type": "address",
          "indexed": true,
          "internalType": "address"
        },
        {
          "name": "assets",
          "type": "uint256",
          "indexed": false,
          "internalType": "uint256"
        },
        {
          "name": "shares",
          "type": "uint256",
          "indexed": false,
          "internalType": "uint256"
        }
      ],
      "anonymous": false
    },
    {
      "type": "event",
      "name": "WithdrawProtected",
      "inputs": [
        {
          "name": "sender",
          "type": "address",
          "indexed": true,
          "internalType": "address"
        },
        {
          "name": "receiver",
          "type": "address",
          "indexed": true,
          "internalType": "address"
        },
        {
          "name": "owner",
          "type": "address",
          "indexed": true,
          "internalType": "address"
        },
        {
          "name": "assets",
          "type": "uint256",
          "indexed": false,
          "internalType": "uint256"
        },
        {
          "name": "shares",
          "type": "uint256",
          "indexed": false,
          "internalType": "uint256"
        }
      ],
      "anonymous": false
    },
    {
      "type": "event",
      "name": "WithdrawnFees",
      "inputs": [
        {
          "name": "daoFees",
          "type": "uint256",
          "indexed": false,
          "internalType": "uint256"
        },
        {
          "name": "deployerFees",
          "type": "uint256",
          "indexed": false,
          "internalType": "uint256"
        },
        {
          "name": "redirectedDeployerFees",
          "type": "bool",
          "indexed": false,
          "internalType": "bool"
        }
      ],
      "anonymous": false
    },
    {
      "type": "error",
      "name": "AboveMaxLtv",
      "inputs": []
    },
    {
      "type": "error",
      "name": "AmountExceedsAllowance",
      "inputs": []
    },
    {
      "type": "error",
      "name": "BorrowNotPossible",
      "inputs": []
    },
    {
      "type": "error",
      "name": "CollateralSiloAlreadySet",
      "inputs": []
    },
    {
      "type": "error",
      "name": "CrossReentrantCall",
      "inputs": []
    },
    {
      "type": "error",
      "name": "Deprecated",
      "inputs": []
    },
    {
      "type": "error",
      "name": "ECDSAInvalidSignature",
      "inputs": []
    },
    {
      "type": "error",
      "name": "ECDSAInvalidSignatureLength",
      "inputs": [
        {
          "name": "length",
          "type": "uint256",
          "internalType": "uint256"
        }
      ]
    },
    {
      "type": "error",
      "name": "ECDSAInvalidSignatureS",
      "inputs": [
        {
          "name": "s",
          "type": "bytes32",
          "internalType": "bytes32"
        }
      ]
    },
    {
      "type": "error",
      "name": "ERC20InsufficientAllowance",
      "inputs": [
        {
          "name": "spender",
          "type": "address",
          "internalType": "address"
        },
        {
          "name": "allowance",
          "type": "uint256",
          "internalType": "uint256"
        },
        {
          "name": "needed",
          "type": "uint256",
          "internalType": "uint256"
        }
      ]
    },
    {
      "type": "error",
      "name": "ERC20InsufficientBalance",
      "inputs": [
        {
          "name": "sender",
          "type": "address",
          "internalType": "address"
        },
        {
          "name": "balance",
          "type": "uint256",
          "internalType": "uint256"
        },
        {
          "name": "needed",
          "type": "uint256",
          "internalType": "uint256"
        }
      ]
    },
    {
      "type": "error",
      "name": "ERC20InvalidApprover",
      "inputs": [
        {
          "name": "approver",
          "type": "address",
          "internalType": "address"
        }
      ]
    },
    {
      "type": "error",
      "name": "ERC20InvalidReceiver",
      "inputs": [
        {
          "name": "receiver",
          "type": "address",
          "internalType": "address"
        }
      ]
    },
    {
      "type": "error",
      "name": "ERC20InvalidSender",
      "inputs": [
        {
          "name": "sender",
          "type": "address",
          "internalType": "address"
        }
      ]
    },
    {
      "type": "error",
      "name": "ERC20InvalidSpender",
      "inputs": [
        {
          "name": "spender",
          "type": "address",
          "internalType": "address"
        }
      ]
    },
    {
      "type": "error",
      "name": "ERC2612ExpiredSignature",
      "inputs": [
        {
          "name": "deadline",
          "type": "uint256",
          "internalType": "uint256"
        }
      ]
    },
    {
      "type": "error",
      "name": "ERC2612InvalidSigner",
      "inputs": [
        {
          "name": "signer",
          "type": "address",
          "internalType": "address"
        },
        {
          "name": "owner",
          "type": "address",
          "internalType": "address"
        }
      ]
    },
    {
      "type": "error",
      "name": "EarnedZero",
      "inputs": []
    },
    {
      "type": "error",
      "name": "FlashloanAmountTooBig",
      "inputs": []
    },
    {
      "type": "error",
      "name": "FlashloanFailed",
      "inputs": []
    },
    {
      "type": "error",
      "name": "InputCanBeAssetsOrShares",
      "inputs": []
    },
    {
      "type": "error",
      "name": "InputZeroShares",
      "inputs": []
    },
    {
      "type": "error",
      "name": "InvalidAccountNonce",
      "inputs": [
        {
          "name": "account",
          "type": "address",
          "internalType": "address"
        },
        {
          "name": "currentNonce",
          "type": "uint256",
          "internalType": "uint256"
        }
      ]
    },
    {
      "type": "error",
      "name": "InvalidInitialization",
      "inputs": []
    },
    {
      "type": "error",
      "name": "InvalidTokenType",
      "inputs": []
    },
    {
      "type": "error",
      "name": "NoLiquidity",
      "inputs": []
    },
    {
      "type": "error",
      "name": "NotEnoughLiquidity",
      "inputs": []
    },
    {
      "type": "error",
      "name": "NotInitializing",
      "inputs": []
    },
    {
      "type": "error",
      "name": "NotSolvent",
      "inputs": []
    },
    {
      "type": "error",
      "name": "NothingToWithdraw",
      "inputs": []
    },
    {
      "type": "error",
      "name": "OnlyHookReceiver",
      "inputs": []
    },
    {
      "type": "error",
      "name": "OnlySilo",
      "inputs": []
    },
    {
      "type": "error",
      "name": "OnlySiloConfig",
      "inputs": []
    },
    {
      "type": "error",
      "name": "OwnerIsZero",
      "inputs": []
    },
    {
      "type": "error",
      "name": "ProtectedProtection",
      "inputs": []
    },
    {
      "type": "error",
      "name": "RecipientIsZero",
      "inputs": []
    },
    {
      "type": "error",
      "name": "RecipientNotSolventAfterTransfer",
      "inputs": []
    },
    {
      "type": "error",
      "name": "RepayTooHigh",
      "inputs": []
    },
    {
      "type": "error",
      "name": "ReturnZeroAssets",
      "inputs": []
    },
    {
      "type": "error",
      "name": "ReturnZeroShares",
      "inputs": []
    },
    {
      "type": "error",
      "name": "SenderNotSolventAfterTransfer",
      "inputs": []
    },
    {
      "type": "error",
      "name": "SiloInitialized",
      "inputs": []
    },
    {
      "type": "error",
      "name": "UnsupportedFlashloanToken",
      "inputs": []
    },
    {
      "type": "error",
      "name": "ZeroAmount",
      "inputs": []
    },
    {
      "type": "error",
      "name": "ZeroTransfer",
      "inputs": []
    }
  ],
  "bytecode": "0x60a060405234801561000f575f5ffd5b5060405161580638038061580683398101604081905261002e916100f9565b610036610047565b6001600160a01b0316608052610126565b7ff0c57e16840df040f15088dc2f81fe391c3923bec73e23a9662efc9c229c6a00805468010000000000000000900460ff16156100975760405163f92ee8a960e01b815260040160405180910390fd5b80546001600160401b03908116146100f65780546001600160401b0319166001600160401b0390811782556040519081527fc7f505b2f371ae2175ee4913f4499e1f2633a7b5936321eed1cdaeb6115181d29060200160405180910390a15b50565b5f60208284031215610109575f5ffd5b81516001600160a01b038116811461011f575f5ffd5b9392505050565b6080516156c861013e5f395f610da001526156c85ff3fe6080604052600436106104b3575f3560e01c806394bf804d1161026d578063c63d75b61161014a578063da537660116100be578063eb3beb2911610083578063eb3beb2914610f88578063ecd658b414610f9a578063ef8b30f714610fae578063f6b911bc14610fcd578063fa9b1c6a14610fec578063ffbaaf7a1461100b575f5ffd5b8063da53766014610eed578063dce5c2db14610f0c578063dd62ed3e14610f2b578063e36754eb14610f4a578063e72bec5714610f69575f5ffd5b8063d505accf1161010f578063d505accf14610e52578063d516418414610e71578063d714fd1914610a21578063d905777e14610e90578063d985616c14610eaf578063d9d98ce414610ece575f5ffd5b8063c63d75b614610837578063c6c3bbe614610de1578063c6e6f59214610e00578063cad1aacf14610e1f578063ce96cb7714610e33575f5ffd5b8063b3d7f6b9116101e1578063ba087652116101a6578063ba08765214610d13578063ba8ffe6514610d32578063bf722ca214610d51578063c061ddc714610d70578063c45a015514610d8f578063c4d66de814610dc2575f5ffd5b8063b3d7f6b914610c78578063b460af9414610c97578063b6d821c714610cb6578063b7ec8d4b14610cd5578063b8337c2a14610cf4575f5ffd5b8063a1ecef5c11610232578063a1ecef5c14610bf3578063a1ff9bee146104be578063a6afed9514610c07578063a7d6e44b14610c1b578063a9059cbb14610c3a578063acb7081514610c59575f5ffd5b806394bf804d14610b1457806395d89b4114610b3357806397a9d45714610b475780639d35abaf14610b665780639ef2fda014610bb4575f5ffd5b8063421a1aee1161039b5780636e2366141161030f5780637ecebe00116102d45780637ecebe0014610a355780637fe2c8b714610a545780637ff0007714610a7357806384b0196e14610a92578063889576f714610ab95780638fea806214610ad8575f5ffd5b80636e236614146109a55780636e553f65146109c457806370a08231146109e357806378007e2314610a0257806379502c5514610a21575f5ffd5b8063571b954411610360578063571b9544146108eb5780635cffe9de1461090a5780635d4086af146109295780635f30114914610948578063613255ab146109675780636e1f8f7e14610986575f5ffd5b8063421a1aee146108575780634624c6a714610876578063476343ee146108975780634c7b0f3c146108ad5780634cdad506146108cc575f5ffd5b806318160ddd116104325780633644e515116103f75780633644e51514610774578063372246261461078857806338b51ce1146107c357806338d52e0f146107e257806339c5c5051461080e578063402d267d14610837575f5ffd5b806318160ddd146106be57806323b872dd146106f1578063267e54a71461071057806329d6509a1461072f578063313ce5671461074e575f5ffd5b8063095ea7b311610478578063095ea7b3146105585780630a28a477146105875780630ed4fe31146105a657806311b5e6821461068057806312d4c5741461069f575f5ffd5b806301e1d114146104be57806306fdde03146104e5578063071bf3ff1461050657806307a2d13a146105255780630910a51014610544575f5ffd5b366104ba57005b5f5ffd5b3480156104c9575f5ffd5b506104d261101f565b6040519081526020015b60405180910390f35b3480156104f0575f5ffd5b506104f961102d565b6040516104dc919061492f565b348015610511575f5ffd5b506104d2610520366004614961565b61109c565b348015610530575f5ffd5b506104d261053f366004614998565b6110af565b34801561054f575f5ffd5b506104d26110c1565b348015610563575f5ffd5b506105776105723660046149af565b6110d2565b60405190151581526020016104dc565b348015610592575f5ffd5b506104d26105a1366004614998565b6110f4565b3480156105b1575f5ffd5b50610637604080516080810182525f8082526020820181905291810182905260608101919091525f5160206155f35f395f51905f5260408051608081018252600292909201546001600160a01b038116835262ffffff600160a01b820481166020850152600160b81b8204811692840192909252600160d01b9004166060820152919050565b6040516104dc919081516001600160a01b0316815260208083015162ffffff90811691830191909152604080840151821690830152606092830151169181019190915260800190565b34801561068b575f5ffd5b506104d261069a3660046149d9565b611100565b3480156106aa575f5ffd5b506104d26106b9366004614961565b61110b565b3480156106c9575f5ffd5b507f52c63247e1f47db19d5ce0460030c497f067ca4cebf71ba98eeadabe20bace02546104d2565b3480156106fc575f5ffd5b5061057761070b3660046149fc565b61111e565b34801561071b575f5ffd5b506104d261072a3660046149d9565b61118d565b34801561073a575f5ffd5b506104d2610749366004614a3a565b611198565b348015610759575f5ffd5b50610762611276565b60405160ff90911681526020016104dc565b34801561077f575f5ffd5b506104d26112e2565b348015610793575f5ffd5b5061079c6112eb565b6040805182516001600160401b0390811682526020938401511692810192909252016104dc565b3480156107ce575f5ffd5b506105776107dd366004614a3a565b61135b565b3480156107ed575f5ffd5b506107f66113d7565b6040516001600160a01b0390911681526020016104dc565b348015610819575f5ffd5b50610822611448565b604080519283526020830191909152016104dc565b348015610842575f5ffd5b506104d2610851366004614a3a565b505f1990565b348015610862575f5ffd5b506104d2610871366004614a3a565b61145b565b610889610884366004614a92565b6114d6565b6040516104dc929190614aff565b3480156108a2575f5ffd5b506108ab6114f4565b005b3480156108b8575f5ffd5b506108ab6108c7366004614b29565b6115c3565b3480156108d7575f5ffd5b506104d26108e6366004614998565b611657565b3480156108f6575f5ffd5b506104d2610905366004614a3a565b505f90565b348015610915575f5ffd5b50610577610924366004614b55565b611663565b348015610934575f5ffd5b506104d2610943366004614bb8565b611728565b348015610953575f5ffd5b506104d2610962366004614a3a565b611733565b348015610972575f5ffd5b506104d2610981366004614a3a565b6117af565b348015610991575f5ffd5b506104d26109a03660046149d9565b6117b9565b3480156109b0575f5ffd5b506108ab6109bf366004614bd9565b6117c4565b3480156109cf575f5ffd5b506104d26109de366004614c0b565b61180e565b3480156109ee575f5ffd5b506104d26109fd366004614a3a565b61181c565b348015610a0d575f5ffd5b506104d2610a1c366004614998565b61185f565b348015610a2c575f5ffd5b506107f6611887565b348015610a40575f5ffd5b506104d2610a4f366004614a3a565b611890565b348015610a5f575f5ffd5b506104d2610a6e366004614c2e565b61189a565b348015610a7e575f5ffd5b506104d2610a8d366004614bb8565b6118b4565b348015610a9d575f5ffd5b50610aa66118bf565b6040516104dc9796959493929190614c6d565b348015610ac4575f5ffd5b506104d2610ad3366004614c2e565b61196d565b348015610ae3575f5ffd5b507f01b0b3f9d6e360167e522fa2b18ba597ad7b2b35841fec7e1ca4dbb0adea1202546001600160a01b03166107f6565b348015610b1f575f5ffd5b506104d2610b2e366004614c0b565b611aa6565b348015610b3e575f5ffd5b506104f9611ab4565b348015610b52575f5ffd5b506104d2610b61366004614a3a565b611afc565b348015610b71575f5ffd5b50610b7a611b7e565b604080516001600160c01b0390961686526001600160401b039094166020860152928401919091526060830152608082015260a0016104dc565b348015610bbf575f5ffd5b50610bc8611c30565b604080518251815260208084015190820152918101516001600160401b0316908201526060016104dc565b348015610bfe575f5ffd5b506108ab611c62565b348015610c12575f5ffd5b506104d2611c7b565b348015610c26575f5ffd5b506104d2610c353660046149d9565b611c84565b348015610c45575f5ffd5b50610577610c543660046149af565b611c8f565b348015610c64575f5ffd5b506104d2610c73366004614c0b565b611cfc565b348015610c83575f5ffd5b506104d2610c92366004614998565b611de1565b348015610ca2575f5ffd5b506104d2610cb1366004614c2e565b611ded565b348015610cc1575f5ffd5b506104d2610cd0366004614d03565b611dfd565b348015610ce0575f5ffd5b506104d2610cef366004614d1c565b611e45565b348015610cff575f5ffd5b506104d2610d0e366004614d50565b611e52565b348015610d1e575f5ffd5b506104d2610d2d366004614c2e565b611e6b565b348015610d3d575f5ffd5b506104d2610d4c366004614998565b611e84565b348015610d5c575f5ffd5b506104d2610d6b366004614998565b611ea4565b348015610d7b575f5ffd5b506104d2610d8a366004614d1c565b611ec4565b348015610d9a575f5ffd5b506107f67f000000000000000000000000000000000000000000000000000000000000000081565b348015610dcd575f5ffd5b506108ab610ddc366004614a3a565b611ed1565b348015610dec575f5ffd5b506108ab610dfb3660046149fc565b611f60565b348015610e0b575f5ffd5b506104d2610e1a366004614998565b611fa8565b348015610e2a575f5ffd5b506108ab611fb4565b348015610e3e575f5ffd5b506104d2610e4d366004614a3a565b612069565b348015610e5d575f5ffd5b506108ab610e6c366004614dae565b612075565b348015610e7c575f5ffd5b506104d2610e8b366004614c2e565b612098565b348015610e9b575f5ffd5b506104d2610eaa366004614a3a565b612193565b348015610eba575f5ffd5b506108ab610ec93660046149fc565b61219f565b348015610ed9575f5ffd5b506104d2610ee83660046149af565b61222e565b348015610ef8575f5ffd5b506104d2610f07366004614d50565b61228d565b348015610f17575f5ffd5b50610822610f26366004614a3a565b6122a6565b348015610f36575f5ffd5b506104d2610f45366004614e1a565b6122dc565b348015610f55575f5ffd5b506104d2610f64366004614c0b565b612325565b348015610f74575f5ffd5b506104d2610f83366004614998565b6123ff565b348015610f93575f5ffd5b50306107f6565b348015610fa5575f5ffd5b506104d2612420565b348015610fb9575f5ffd5b506104d2610fc8366004614998565b612429565b348015610fd8575f5ffd5b506108ab610fe73660046149fc565b612435565b348015610ff7575f5ffd5b506104d2611006366004614d1c565b61249c565b348015611016575f5ffd5b5061082261268e565b5f611028612698565b905090565b606073__$e36323ec861de5853ea34405a6a6c240f5$__6306fdde036040518163ffffffff1660e01b81526004015f60405180830381865af4158015611075573d5f5f3e3d5ffd5b505050506040513d5f823e601f3d908101601f191682016040526110289190810190614eb3565b5f6110a783836126b1565b949350505050565b5f6110bb826001612736565b92915050565b5f6110286110cd61277d565b6127ab565b5f6110e36110de61277d565b612839565b6110ed83836128ba565b9392505050565b5f6110bb8260016128d1565b5f6110ed838361291d565b5f61111683836126b1565b509392505050565b5f5f611128612963565b90506111358585856129bf565b9150806001600160a01b03166362402b046040518163ffffffff1660e01b81526004015f604051808303815f87803b15801561116f575f5ffd5b505af1158015611181573d5f5f3e3d5ffd5b50505050509392505050565b5f6110ed83836128d1565b5f5f6111a261277d565b604051631e1f560960e11b81523060048201526001600160a01b039190911690633c3eac12906024016040805180830381865afa1580156111e5573d5f5f3e3d5ffd5b505050506040513d601f19601f820116820180604052508101906112099190614f50565b506040516370a0823160e01b81526001600160a01b038581166004830152919250908216906370a0823190602401602060405180830381865afa158015611252573d5f5f3e3d5ffd5b505050506040513d601f19601f820116820180604052508101906110ed9190614f7d565b5f73__$e36323ec861de5853ea34405a6a6c240f5$__63313ce5676040518163ffffffff1660e01b8152600401602060405180830381865af41580156112be573d5f5f3e3d5ffd5b505050506040513d601f19601f820116820180604052508101906110289190614f94565b5f6110286129e2565b604080518082019091525f80825260208201526110286040805180820182525f80825260209182015281518083019092527fd7513ffe3a01a9f6606089d1b67011bca35bec018ac0faa914e1c529408f8301546001600160401b038082168452600160401b909104169082015290565b6040516338b51ce160e01b81526001600160a01b03821660048201525f9073__$882f5dc3094afdd9d0e814b3c0cd9c4ee7$__906338b51ce190602401602060405180830381865af41580156113b3573d5f5f3e3d5ffd5b505050506040513d601f19601f820116820180604052508101906110bb9190614fbe565b5f6113e061277d565b6040516307439b4960e01b81523060048201526001600160a01b0391909116906307439b4990602401602060405180830381865afa158015611424573d5f5f3e3d5ffd5b505050506040513d601f19601f820116820180604052508101906110289190614fd7565b5f5f6114526129eb565b90939092509050565b6040516397a9d45760e01b81526001600160a01b03821660048201525f9073__$882f5dc3094afdd9d0e814b3c0cd9c4ee7$__906397a9d457906024016040805180830381865af41580156114b2573d5f5f3e3d5ffd5b505050506040513d601f19601f820116820180604052508101906110ed9190614ff2565b5f60606114e68787878787612a4e565b909890975095505050505050565b6114fc612b71565b50604051631123456160e31b81523060048201525f908190819073__$1c8c6ee4f595ff59af83bdc8e432701c1d$__9063891a2b0890602401606060405180830381865af4158015611550573d5f5f3e3d5ffd5b505050506040513d601f19601f820116820180604052508101906115749190615014565b604080518481526020810184905282151581830152905193965091945092507f58ce9a502017c1e4e0084fcfd7067e2642dfe9e11757d8017b9cf16d729967c7919081900360600190a1505050565b6115cb612b9a565b6001600160a01b0316336001600160a01b0316146115fc576040516310528c6d60e11b815260040160405180910390fd5b7f01b0b3f9d6e360167e522fa2b18ba597ad7b2b35841fec7e1ca4dbb0adea1202805465ffffffffffff60a01b1916600160a01b62ffffff9485160262ffffff60b81b191617600160b81b9290931691909102919091179055565b5f6110bb826001612bb5565b6040516369f958a560e11b81525f9073__$1c8c6ee4f595ff59af83bdc8e432701c1d$__9063d3f2b14a906116a49089908990899089908990600401615047565b602060405180830381865af41580156116bf573d5f5f3e3d5ffd5b505050506040513d601f19601f820116820180604052508101906116e39190614fbe565b9050801561171f576040518481527f97bf554031869ec4edcf72b0dcdc2234dd406afe091f3631be088f348e1795749060200160405180910390a15b95945050505050565b5f6110ed8383612bfa565b604051635f30114960e01b81526001600160a01b03821660048201525f9073__$882f5dc3094afdd9d0e814b3c0cd9c4ee7$__90635f30114990602401602060405180830381865af415801561178b573d5f5f3e3d5ffd5b505050506040513d601f19601f820116820180604052508101906110bb9190614f7d565b5f6110bb82612c3b565b5f6110ed8383612d95565b6117cc61277d565b6001600160a01b0316336001600160a01b0316146117fd576040516359d74a4160e01b815260040160405180910390fd5b611808838383612dda565b50505050565b5f6110a7835f846001612ea6565b5f807f52c63247e1f47db19d5ce0460030c497f067ca4cebf71ba98eeadabe20bace005b6001600160a01b039093165f9081526020939093525050604090205490565b5f5f5f61187461186d612fdc565b60026130de565b915091506110a7848383600160026132cd565b5f61102861277d565b5f6110bb82613308565b5f6040516331cee75f60e21b815260040160405180910390fd5b5f6110ed8383612736565b5f60608082808083815f5160206156535f395f51905f5280549091501580156118ea57506001810154155b6119335760405162461bcd60e51b81526020600482015260156024820152741152540dcc4c8e88155b9a5b9a5d1a585b1a5e9959605a1b60448201526064015b60405180910390fd5b61193b613330565b6119436133f0565b604080515f80825260208201909252600f60f81b9c939b5091995046985030975095509350915050565b5f5f5f73__$1c8c6ee4f595ff59af83bdc8e432701c1d$__635937128b60405180608001604052805f8152602001898152602001886001600160a01b03168152602001876001600160a01b03168152506040518263ffffffff1660e01b81526004016119d99190615097565b606060405180830381865af41580156119f4573d5f5f3e3d5ffd5b505050506040513d601f19601f82011682018060405250810190611a189190615014565b604080518481526020810184905293965091945092506001600160a01b03868116929088169133917f96558a334f4759f0e7c423d68c84721860bd8fbf94ddc4e55158ecb125ad04b591015b60405180910390a48015611a9d5760405133907f4aa7ec2e9d912271d4af0f59b2735f825ef583f4d6ee04f0242be6f58febc0fc905f90a25b50509392505050565b5f6111165f84846001612ea6565b606073__$e36323ec861de5853ea34405a6a6c240f5$__6395d89b416040518163ffffffff1660e01b81526004015f60405180830381865af4158015611075573d5f5f3e3d5ffd5b6040516397a9d45760e01b81526001600160a01b03821660048201525f9073__$882f5dc3094afdd9d0e814b3c0cd9c4ee7$__906397a9d457906024016040805180830381865af4158015611b53573d5f5f3e3d5ffd5b505050506040513d601f19601f82011682018060405250810190611b779190614ff2565b5092915050565b5f5f5f5f5f611c1f5f5160206156335f395f51905f52545f5160206156135f395f51905f526020527f1d6b5be70a9f383ca45b06b91c80fedc4b8206aae15f8f5652c9213b796e9a02545f5160206156735f395f51905f525460025f527f9b40389f0c625a77401470835767c77e909c039c8fc3275d3c2d2a048f8d5757546001600160c01b038416946001600160401b03600160c01b9095049490941693565b945094509450945094509091929394565b611c5a60405180606001604052805f81526020015f81526020015f6001600160401b031681525090565b61102861342e565b6040516331cee75f60e21b815260040160405180910390fd5b5f611028612b71565b5f6110ed8383612bb5565b5f5f611c99612963565b9050611ca584846134da565b9150806001600160a01b03166362402b046040518163ffffffff1660e01b81526004015f604051808303815f87803b158015611cdf575f5ffd5b505af1158015611cf1573d5f5f3e3d5ffd5b505050505092915050565b60405163b006213960e01b8152600481018390525f602482018190526001600160a01b038316604483015233606483015290819073__$1c8c6ee4f595ff59af83bdc8e432701c1d$__9063b0062139906084016040805180830381865af4158015611d69573d5f5f3e3d5ffd5b505050506040513d601f19601f82011682018060405250810190611d8d9190614ff2565b60408051838152602081018390529194509192506001600160a01b0385169133917fe4a1ae657f49cb1fb1c7d3a94ae6093565c4c8c0e03de488f79c377c3c3a24e091015b60405180910390a35092915050565b5f6110bb82600161291d565b5f61171f845f85853360016134e7565b5f5f5160206156135f395f51905f5281836002811115611e1f57611e1f6150d1565b6002811115611e3057611e306150d1565b81526020019081526020015f20549050919050565b5f61171f845f8585612ea6565b5f611e61855f868633876134e7565b9695505050505050565b5f611e7b5f8585853360016134e7565b50949350505050565b5f5f5f611e9261186d612fdc565b915091506110a78483835f600261367b565b5f5f5f611eb261186d612fdc565b915091506110a78483835f60026132cd565b5f611e7b5f858585612ea6565b604051630f5cbacf60e21b81526001600160a01b03821660048201525f9073__$1c8c6ee4f595ff59af83bdc8e432701c1d$__90633d72eb3c90602401602060405180830381865af4158015611f29573d5f5f3e3d5ffd5b505050506040513d601f19601f82011682018060405250810190611f4d9190614fd7565b9050611f5c30826108006136aa565b5050565b611f68612b9a565b6001600160a01b0316336001600160a01b031614611f99576040516310528c6d60e11b815260040160405180910390fd5b611fa38382613867565b505050565b5f6110bb826001612bfa565b5f5f73__$1c8c6ee4f595ff59af83bdc8e432701c1d$__63cad1aacf6040518163ffffffff1660e01b81526004016040805180830381865af4158015611ffc573d5f5f3e3d5ffd5b505050506040513d601f19601f8201168201806040525081019061202091906150e5565b6040805162ffffff8085168252831660208201529294509092507f2b7ec2cd1f9292c7a9ae800c2479f6be4217beacb0c01ef2d7e4e84fced3d75b910160405180910390a15050565b5f611b778260016126b1565b6120806110de61277d565b61208f8787878787878761389b565b50505050505050565b5f5f5f73__$1c8c6ee4f595ff59af83bdc8e432701c1d$__635937128b60405180608001604052808981526020015f8152602001886001600160a01b03168152602001876001600160a01b03168152506040518263ffffffff1660e01b81526004016121049190615097565b606060405180830381865af415801561211f573d5f5f3e3d5ffd5b505050506040513d601f19601f820116820180604052508101906121439190615014565b604080518481526020810184905292965092945092506001600160a01b03808716929088169133917f96558a334f4759f0e7c423d68c84721860bd8fbf94ddc4e55158ecb125ad04b59101611a64565b5f6110ed8260016126b1565b5f5160206155f35f395f51905f52600201546001600160a01b031633146121d9576040516380897acb60e01b815260040160405180910390fd5b7f01b0b3f9d6e360167e522fa2b18ba597ad7b2b35841fec7e1ca4dbb0adea1203805460ff191690555f5160206155f35f395f51905f5261221b8484846139f0565b600301805460ff19166001179055505050565b604051633676633960e21b81526001600160a01b0383166004820152602481018290525f9073__$882f5dc3094afdd9d0e814b3c0cd9c4ee7$__9063d9d98ce490604401602060405180830381865af4158015611252573d5f5f3e3d5ffd5b5f61229c5f86868633876134e7565b5095945050505050565b5f5f6122b18361181c565b7f52c63247e1f47db19d5ce0460030c497f067ca4cebf71ba98eeadabe20bace025491509150915091565b6001600160a01b039182165f9081527f52c63247e1f47db19d5ce0460030c497f067ca4cebf71ba98eeadabe20bace016020908152604080832093909416825291909152205490565b60405163b006213960e01b81525f60048201819052602482018490526001600160a01b038316604483015233606483015290819073__$1c8c6ee4f595ff59af83bdc8e432701c1d$__9063b0062139906084016040805180830381865af4158015612392573d5f5f3e3d5ffd5b505050506040513d601f19601f820116820180604052508101906123b69190614ff2565b60408051838152602081018390529294509092506001600160a01b0385169133917fe4a1ae657f49cb1fb1c7d3a94ae6093565c4c8c0e03de488f79c377c3c3a24e09101611dd2565b5f5f5f61240d61186d612fdc565b915091506110a78483836001600261367b565b5f611028613a4d565b5f6110bb826001612d95565b61243d612b9a565b6001600160a01b0316336001600160a01b03161461246e576040516310528c6d60e11b815260040160405180910390fd5b816001600160a01b0316836001600160a01b03161461249257612492838383613a6c565b611fa38382613ac9565b5f5f73__$1c8c6ee4f595ff59af83bdc8e432701c1d$__635ca5797b6040518060600160405280888152602001876001600160a01b031681526020018660018111156124ea576124ea6150d1565b8152506040518263ffffffff1660e01b81526004016125099190615126565b6040805180830381865af4158015612523573d5f5f3e3d5ffd5b505050506040513d601f19601f820116820180604052508101906125479190614ff2565b90925090506001836001811115612560576125606150d1565b036125f85760408051838152602081018790526001600160a01b03861691829133917ffbde797d201c681b91056529119e0b02407c7bb96a4a2c75c01fc9667232c8db910160405180910390a460408051838152602081018390526001600160a01b0386169133917f1ad348f5de3e19e23d88e34248ceb6ab09804a35a3abc0e7758045b7b9036acd910160405180910390a3611116565b60408051838152602081018790526001600160a01b03861691829133917f2dac01ea07cfa812db5881eaad96ba201c018c042b8f9ea7278cdf6f29e65f24910160405180910390a460408051838152602081018390526001600160a01b0386169133917fdcbc1c05240f31ff3ad067ef1ee35ce4997762752e3a095284754544f4c709d7910160405180910390a3509392505050565b5f5f611452613afd565b5f6126ab6126a4612fdc565b60016130de565b50919050565b5f5f73__$882f5dc3094afdd9d0e814b3c0cd9c4ee7$__6367df3cb485856040518363ffffffff1660e01b81526004016126ec929190615154565b6040805180830381865af4158015612706573d5f5f3e3d5ffd5b505050506040513d601f19601f8201168201806040525081019061272a9190614ff2565b915091505b9250929050565b5f5f5f61274a612744612fdc565b856130de565b909250905061171f8583836002886002811115612769576127696150d1565b14612775576001612777565b5f5b8861367b565b7f01b0b3f9d6e360167e522fa2b18ba597ad7b2b35841fec7e1ca4dbb0adea1201546001600160a01b031690565b60405163e48a5f7b60e01b81523060048201525f9081906001600160a01b0384169063e48a5f7b9060240161022060405180830381865afa1580156127f2573d5f5f3e3d5ffd5b505050506040513d601f19601f820116820180604052508101906128169190615171565b905061282f816101200151825f01518360200151613b3d565b5090949350505050565b806001600160a01b031663d2c725e06040518163ffffffff1660e01b8152600401602060405180830381865afa158015612875573d5f5f3e3d5ffd5b505050506040513d601f19601f820116820180604052508101906128999190614fbe565b156128b75760405163e17fbf8960e01b815260040160405180910390fd5b50565b5f336128c7818585613b6f565b5060019392505050565b5f5f8260018111156128e5576128e56150d1565b60028111156128f6576128f66150d1565b90505f5f61290b612905612fdc565b846130de565b91509150611e618683836001876132cd565b5f5f826001811115612931576129316150d1565b6002811115612942576129426150d1565b90505f5f612951612905612fdc565b91509150611e6186838360018761367b565b5f61296c61277d565b9050806001600160a01b0316639dd413306040518163ffffffff1660e01b81526004015f604051808303815f87803b1580156129a6575f5ffd5b505af11580156129b8573d5f5f3e3d5ffd5b5050505090565b5f336129cc858285613a6c565b6129d78585856139f0565b506001949350505050565b5f611028613b7c565b60015f9081525f5160206156135f395f51905f5260208190525f5160206156735f395f51905f525491905f5160206156335f395f51905f52908260025b6002811115612a3957612a396150d1565b81526020019081526020015f20549150509091565b5f60605f5160206155f35f395f51905f52600201546001600160a01b03163314612a8b576040516380897acb60e01b815260040160405180910390fd5b6001856001811115612a9f57612a9f6150d1565b03612b0657866001600160a01b03168484604051612abe92919061528a565b5f60405180830381855af49150503d805f8114612af6576040519150601f19603f3d011682016040523d82523d5f602084013e612afb565b606091505b509092509050612b67565b866001600160a01b0316868585604051612b2192919061528a565b5f6040518083038185875af1925050503d805f8114612b5b576040519150601f19603f3d011682016040523d82523d5f602084013e612b60565b606091505b5090925090505b9550959350505050565b5f5f612b7b612fdc565b9050612b94816101200151825f01518360200151612dda565b91505090565b5f5160206155f35f395f51905f52546001600160a01b031690565b5f5f826001811115612bc957612bc96150d1565b6002811115612bda57612bda6150d1565b90505f5f612be9612905612fdc565b91509150611e618683835f8761367b565b5f5f5f612c08612744612fdc565b909250905061171f8583836002886002811115612c2757612c276150d1565b14612c32575f612c35565b60015b886132cd565b5f612c4461277d565b6040516307439b4960e01b81523060048201526001600160a01b0391909116906307439b4990602401602060405180830381865afa158015612c88573d5f5f3e3d5ffd5b505050506040513d601f19601f82011682018060405250810190612cac9190614fd7565b6001600160a01b0316826001600160a01b031614612ccb57505f919050565b5f8080525f5160206156135f395f51905f5260209081527f1d6b5be70a9f383ca45b06b91c80fedc4b8206aae15f8f5652c9213b796e9a0254604080516370a0823160e01b815230600482015290515f5160206156335f395f51905f529492936001600160a01b038816926370a0823192602480830193928290030181865afa158015612d5a573d5f5f3e3d5ffd5b505050506040513d601f19601f82011682018060405250810190612d7e9190614f7d565b9050818111612d8d575f61171f565b039392505050565b5f5f826001811115612da957612da96150d1565b6002811115612dba57612dba6150d1565b90505f5f612dc9612905612fdc565b91509150611e618683835f876132cd565b60405163e9c1bd6160e01b81526001600160a01b038416600482015260248101839052604481018290525f9073__$2cb88bc423f502b07e13ce75aaf4711c2a$__9063e9c1bd6190606401602060405180830381865af4158015612e40573d5f5f3e3d5ffd5b505050506040513d601f19601f82011682018060405250810190612e649190614f7d565b905080156110ed576040518181527fd1fe0093c54116fe147366ec7de3cfa98e1e02e91d7ccb124241f6beae255b4c9060200160405180910390a19392505050565b5f5f73__$1c8c6ee4f595ff59af83bdc8e432701c1d$__637ca0c3c5878787876040518563ffffffff1660e01b8152600401612ee59493929190615299565b6040805180830381865af4158015612eff573d5f5f3e3d5ffd5b505050506040513d601f19601f82011682018060405250810190612f239190614ff2565b90925090506001836001811115612f3c57612f3c6150d1565b03612f8c5760408051838152602081018390526001600160a01b0386169133917fdcbc1c05240f31ff3ad067ef1ee35ce4997762752e3a095284754544f4c709d7910160405180910390a3612fd3565b60408051838152602081018390526001600160a01b0386169133917f1ad348f5de3e19e23d88e34248ceb6ab09804a35a3abc0e7758045b7b9036acd910160405180910390a35b94509492505050565b60408051610220810182525f80825260208201819052918101829052606081018290526080810182905260a0810182905260c0810182905260e08101829052610100810182905261012081018290526101408101829052610160810182905261018081018290526101a081018290526101c081018290526101e081018290526102008101919091525f5160206155f35f395f51905f526001015460405163e48a5f7b60e01b81523060048201526001600160a01b039091169063e48a5f7b9060240161022060405180830381865afa1580156130ba573d5f5f3e3d5ffd5b505050506040513d601f19601f820116820180604052508101906110289190615171565b5f80808360028111156130f3576130f36150d1565b036131d45783604001516001600160a01b031663b6d821c75f6040518263ffffffff1660e01b815260040161312891906152c3565b602060405180830381865afa158015613143573d5f5f3e3d5ffd5b505050506040513d601f19601f820116820180604052508101906131679190614f7d565b915083608001516001600160a01b03166318160ddd6040518163ffffffff1660e01b8152600401602060405180830381865afa1580156131a9573d5f5f3e3d5ffd5b505050506040513d601f19601f820116820180604052508101906131cd9190614f7d565b905061272f565b60018360028111156131e8576131e86150d1565b0361324b576132098460400151856101200151865f01518760200151613bef565b91508360a001516001600160a01b03166318160ddd6040518163ffffffff1660e01b8152600401602060405180830381865afa1580156131a9573d5f5f3e3d5ffd5b61325e8460400151856101200151613ce5565b91508360c001516001600160a01b03166318160ddd6040518163ffffffff1660e01b8152600401602060405180830381865afa1580156132a0573d5f5f3e3d5ffd5b505050506040513d601f19601f820116820180604052508101906132c49190614f7d565b90509250929050565b5f5f5f6132db878786613dcf565b91509150815f036132f057879250505061171f565b6132fc88838388613e2a565b98975050505050505050565b5f807f5ab42ced628888259c08ac98db1eb0cf702fc1501344311d8b100cd1bfe4bb00611840565b7fa16a46d94261c7517cc8ff89f61c0ce93598e3c849801011dee649a6a557d10280546060915f5160206156535f395f51905f529161336e906152dd565b80601f016020809104026020016040519081016040528092919081815260200182805461339a906152dd565b80156133e55780601f106133bc576101008083540402835291602001916133e5565b820191905f5260205f20905b8154815290600101906020018083116133c857829003601f168201915b505050505091505090565b7fa16a46d94261c7517cc8ff89f61c0ce93598e3c849801011dee649a6a557d10380546060915f5160206156535f395f51905f529161336e906152dd565b61345860405180606001604052805f81526020015f81526020015f6001600160401b031681525090565b50604080516060810182525f5160206156735f395f51905f5254815260025f525f5160206156135f395f51905f5260209081527f9b40389f0c625a77401470835767c77e909c039c8fc3275d3c2d2a048f8d575754908201525f5160206156335f395f51905f5254600160c01b90046001600160401b03169181019190915290565b5f336128c78185856139f0565b5f5f73__$1c8c6ee4f595ff59af83bdc8e432701c1d$__635af0d5b86040518060c001604052808b81526020018a8152602001896001600160a01b03168152602001886001600160a01b03168152602001876001600160a01b03168152602001866001811115613559576135596150d1565b8152506040518263ffffffff1660e01b8152600401613578919061530f565b6040805180830381865af4158015613592573d5f5f3e3d5ffd5b505050506040513d601f19601f820116820180604052508101906135b69190614ff2565b909250905060018360018111156135cf576135cf6150d1565b036136245760408051838152602081018390526001600160a01b03808816929089169133917ffbde797d201c681b91056529119e0b02407c7bb96a4a2c75c01fc9667232c8db910160405180910390a4613670565b60408051838152602081018390526001600160a01b03808816929089169133917f2dac01ea07cfa812db5881eaad96ba201c018c042b8f9ea7278cdf6f29e65f24910160405180910390a45b965096945050505050565b5f5f5f613689878786613dcf565b91509150815f0361369e57879250505061171f565b6132fc88828488613e2a565b7ff0c57e16840df040f15088dc2f81fe391c3923bec73e23a9662efc9c229c6a008054600160401b810460ff1615906001600160401b03165f811580156136ee5750825b90505f826001600160401b031660011480156137095750303b155b905081158015613717575080155b156137355760405163f92ee8a960e01b815260040160405180910390fd5b845467ffffffffffffffff19166001178555831561375f57845460ff60401b1916600160401b1785555b61379d6040518060400160405280601881526020017f53696c6f5368617265546f6b656e4549503731324e616d650000000000000000815250613e6c565b604051631983f68f60e21b81526001600160a01b03808a1660048301528816602482015262ffffff8716604482015273__$e36323ec861de5853ea34405a6a6c240f5$__9063660fda3c906064015f6040518083038186803b158015613801575f5ffd5b505af4158015613813573d5f5f3e3d5ffd5b50505050831561385d57845460ff60401b19168555604051600181527fc7f505b2f371ae2175ee4913f4499e1f2633a7b5936321eed1cdaeb6115181d29060200160405180910390a15b5050505050505050565b6001600160a01b0382166138905760405163ec442f0560e01b81525f600482015260240161192a565b611f5c5f8383613e97565b834211156138bf5760405163313c898160e11b81526004810185905260240161192a565b5f7f6e71edae12b1b97f4d1f60370fef10105fa2faae0126114a169c64845d6126c98888886139298c6001600160a01b03165f9081527f5ab42ced628888259c08ac98db1eb0cf702fc1501344311d8b100cd1bfe4bb006020526040902080546001810190915590565b6040805160208101969096526001600160a01b0394851690860152929091166060840152608083015260a082015260c0810186905260e0016040516020818303038152906040528051906020012090505f61398382613ecd565b90505f61399282878787613ef9565b9050896001600160a01b0316816001600160a01b0316146139d9576040516325c0072360e11b81526001600160a01b0380831660048301528b16602482015260440161192a565b6139e48a8a8a613b6f565b50505050505050505050565b6001600160a01b038316613a1957604051634b637e8f60e11b81525f600482015260240161192a565b6001600160a01b038216613a425760405163ec442f0560e01b81525f600482015260240161192a565b611fa3838383613e97565b5f5f613a57612fdc565b9050612b948160400151826101200151613ce5565b5f613a7784846122dc565b90505f1981146118085781811015613abb57604051637dc7a0d960e11b81526001600160a01b0384166004820152602481018290526044810183905260640161192a565b61180884848484035f613f25565b6001600160a01b038216613af257604051634b637e8f60e11b81525f600482015260240161192a565b611f5c825f83613e97565b60015f9081525f5160206156135f395f51905f5260208190525f5160206156735f395f51905f525491905f5160206156335f395f51905f52908280612a28565b5f5f5f613b4c30878787613bef565b9150613b583087613ce5565b9050613b64828261401c565b925093509350939050565b611fa38383836001613f25565b5f7f8b73c3c69bb8fe3d512ecc4cf759cc79239f7b179b0ffacaa9a75d522b39400f613ba6614034565b613bae61409c565b60408051602081019490945283019190915260608201524660808201523060a082015260c00160405160208183030381529060405280519060200120905090565b6040516367efe7fd60e11b81526001600160a01b0385811660048301524260248301525f91829186169063cfdfcffa90604401602060405180830381865afa925050508015613c5b575060408051601f3d908101601f19168201909252613c5891810190614f7d565b60015b15613c635790505b5f5f876001600160a01b03166339c5c5056040518163ffffffff1660e01b81526004016040805180830381865afa158015613ca0573d5f5f3e3d5ffd5b505050506040513d601f19601f82011682018060405250810190613cc49190614ff2565b91509150613cd582828589896140de565b50919a9950505050505050505050565b6040516367efe7fd60e11b81526001600160a01b0383811660048301524260248301525f91829184169063cfdfcffa90604401602060405180830381865afa925050508015613d51575060408051601f3d908101601f19168201909252613d4e91810190614f7d565b60015b15613d595790505b60405163b6d821c760e01b8152611e7b906001600160a01b0386169063b6d821c790613d8a906002906004016152c3565b602060405180830381865afa158015613da5573d5f5f3e3d5ffd5b505050506040513d601f19601f82011682018060405250810190613dc99190614f7d565b82614138565b5f5f835f03613ddc575f94505b6002836002811115613df057613df06150d1565b14613e1b57613e016003600a61545c565b613e0b9085615467565b613e16866001615467565b613e1e565b83855b90969095509350505050565b5f613e57613e3783614180565b8015613e5257505f8480613e4d57613e4d61547a565b868809115b151590565b613e628686866141ac565b61171f9190615467565b613e74614269565b6128b781604051806040016040528060018152602001603160f81b8152506142b4565b805f03613eb7576040516310cadee360e01b815260040160405180910390fd5b613ec2838383614313565b611fa383838361445f565b5f6110bb613ed96129e2565b8360405161190160f01b8152600281019290925260228201526042902090565b5f5f5f5f613f0988888888614535565b925092509250613f1982826145fd565b50909695505050505050565b7f52c63247e1f47db19d5ce0460030c497f067ca4cebf71ba98eeadabe20bace006001600160a01b038516613f6f5760405163e602df0560e01b81525f600482015260240161192a565b6001600160a01b038416613f9857604051634a1406b160e11b81525f600482015260240161192a565b6001600160a01b038086165f9081526001830160209081526040808320938816835292905220839055811561401557836001600160a01b0316856001600160a01b03167f8c5be1e5ebec7d5bd14f71427d1e84f3dd0314c0f7b2291e5b200ac8c7c3b9258560405161400c91815260200190565b60405180910390a35b5050505050565b5f82821161402c578183036110ed565b5f9392505050565b5f5f5160206156535f395f51905f528161404c613330565b80519091501561406457805160209091012092915050565b81548015614073579392505050565b7fc5d2460186f7233c927e7db2dcc703c0e500b653ca82273b7bfad8045d85a470935050505090565b5f5f5160206156535f395f51905f52816140b46133f0565b8051909150156140cc57805160209091012092915050565b60018201548015614073579392505050565b5f5f5f5f6140ec8888614138565b90935090508585016141078282670de0b6b3a76400006146b5565b92505f614114848461548e565b90508a1981811015614124578091505b818c01965050505095509550955095915050565b5f80831580614145575082155b1561415457508290505f61272f565b6141678484670de0b6b3a76400006146b5565b905080840191508382101561272f575091925f92509050565b5f6002826003811115614195576141956150d1565b61419f91906154a1565b60ff166001149050919050565b5f838302815f1985870982811083820303915050805f036141e0578382816141d6576141d661547a565b04925050506110ed565b8084116141fe576141fe84156141f75760116146fd565b60126146fd565b5f848688095f868103871696879004966002600389028118808a02820302808a02820302808a02820302808a02820302808a02820302808a02909103029181900381900460010186841190950394909402919094039290920491909117919091029150509392505050565b7ff0c57e16840df040f15088dc2f81fe391c3923bec73e23a9662efc9c229c6a0054600160401b900460ff166142b257604051631afcd79f60e31b815260040160405180910390fd5b565b6142bc614269565b5f5160206156535f395f51905f527fa16a46d94261c7517cc8ff89f61c0ce93598e3c849801011dee649a6a557d1026142f58482615512565b50600381016143048382615512565b505f8082556001909101555050565b7f52c63247e1f47db19d5ce0460030c497f067ca4cebf71ba98eeadabe20bace006001600160a01b0384166143605781816002015f8282546143559190615467565b909155506143d09050565b6001600160a01b0384165f90815260208290526040902054828110156143b25760405163391434e360e21b81526001600160a01b0386166004820152602481018290526044810184905260640161192a565b6001600160a01b0385165f9081526020839052604090209083900390555b6001600160a01b0383166143ee57600281018054839003905561440c565b6001600160a01b0383165f9081526020829052604090208054830190555b826001600160a01b0316846001600160a01b03167fddf252ad1be2c89b69c2b068fc378daa952ba7f163c4a11628f55a4df523b3ef8460405161445191815260200190565b60405180910390a350505050565b5f5160206155f35f395f51905f52614477848461470e565b80156144875750600381015460ff165b1561452a57604051636f15550f60e11b81526001600160a01b03851660048201525f9073__$0c603b63fef61d2abd9717344845f11cca$__9063de2aaa1e90602401602060405180830381865af41580156144e4573d5f5f3e3d5ffd5b505050506040513d601f19601f820116820180604052508101906145089190614fbe565b90508061452857604051633c3b8e1b60e21b815260040160405180910390fd5b505b611808848484614733565b5f80807f7fffffffffffffffffffffffffffffff5d576e7357a4501ddfe92f46681b20a084111561456e57505f915060039050826145f3565b604080515f808252602082018084528a905260ff891692820192909252606081018790526080810186905260019060a0016020604051602081039080840390855afa1580156145bf573d5f5f3e3d5ffd5b5050604051601f1901519150506001600160a01b0381166145ea57505f9250600191508290506145f3565b92505f91508190505b9450945094915050565b5f826003811115614610576146106150d1565b03614619575050565b600182600381111561462d5761462d6150d1565b0361464b5760405163f645eedf60e01b815260040160405180910390fd5b600282600381111561465f5761465f6150d1565b036146805760405163fce698f760e01b81526004810182905260240161192a565b6003826003811115614694576146946150d1565b03611f5c576040516335e2f38360e21b81526004810182905260240161192a565b5f835f036146c457505f6110ed565b50828202828482816146d8576146d861547a565b04146146e557505f6110ed565b8181816146f4576146f461547a565b04949350505050565b634e487b715f52806020526024601cfd5b5f6001600160a01b038316158015906110ed5750506001600160a01b03161515919050565b604080516080810182527f01b0b3f9d6e360167e522fa2b18ba597ad7b2b35841fec7e1ca4dbb0adea1202546001600160a01b038116825262ffffff600160a01b820481166020840152600160b81b8204811693830193909352600160d01b9004909116606082018190525f5160206155f35f395f51905f5291905f906147b9906148be565b6040830151909150811662ffffff1681146147d657505050505050565b815183546001600160a01b039182169163aef282359116838989896147fa8361181c565b6148038d61181c565b7f52c63247e1f47db19d5ce0460030c497f067ca4cebf71ba98eeadabe20bace02546040516bffffffffffffffffffffffff19606097881b811660208301529590961b909416603486015260488501929092526068840152608883015260a882015260c8016040516020818303038152906040526040518463ffffffff1660e01b8152600401614895939291906155cc565b5f604051808303815f87803b1580156148ac575f5ffd5b505af11580156139e4573d5f5f3e3d5ffd5b5f6108008214806148d0575061100082145b806148dc575061200082145b6148f95760405163a1e9dd9d60e01b815260040160405180910390fd5b506104001790565b5f81518084528060208401602086015e5f602082860101526020601f19601f83011685010191505092915050565b602081525f6110ed6020830184614901565b6001600160a01b03811681146128b7575f5ffd5b600281106128b7575f5ffd5b5f5f60408385031215614972575f5ffd5b823561497d81614941565b9150602083013561498d81614955565b809150509250929050565b5f602082840312156149a8575f5ffd5b5035919050565b5f5f604083850312156149c0575f5ffd5b82356149cb81614941565b946020939093013593505050565b5f5f604083850312156149ea575f5ffd5b82359150602083013561498d81614955565b5f5f5f60608486031215614a0e575f5ffd5b8335614a1981614941565b92506020840135614a2981614941565b929592945050506040919091013590565b5f60208284031215614a4a575f5ffd5b81356110ed81614941565b5f5f83601f840112614a65575f5ffd5b5081356001600160401b03811115614a7b575f5ffd5b60208301915083602082850101111561272f575f5ffd5b5f5f5f5f5f60808688031215614aa6575f5ffd5b8535614ab181614941565b9450602086013593506040860135614ac881614955565b925060608601356001600160401b03811115614ae2575f5ffd5b614aee88828901614a55565b969995985093965092949392505050565b8215158152604060208201525f6110a76040830184614901565b62ffffff811681146128b7575f5ffd5b5f5f60408385031215614b3a575f5ffd5b8235614b4581614b19565b9150602083013561498d81614b19565b5f5f5f5f5f60808688031215614b69575f5ffd5b8535614b7481614941565b94506020860135614b8481614941565b93506040860135925060608601356001600160401b03811115614ae2575f5ffd5b803560038110614bb3575f5ffd5b919050565b5f5f60408385031215614bc9575f5ffd5b823591506132c460208401614ba5565b5f5f5f60608486031215614beb575f5ffd5b8335614bf681614941565b95602085013595506040909401359392505050565b5f5f60408385031215614c1c575f5ffd5b82359150602083013561498d81614941565b5f5f5f60608486031215614c40575f5ffd5b833592506020840135614c5281614941565b91506040840135614c6281614941565b809150509250925092565b60ff60f81b8816815260e060208201525f614c8b60e0830189614901565b8281036040840152614c9d8189614901565b606084018890526001600160a01b038716608085015260a0840186905283810360c0850152845180825260208087019350909101905f5b81811015614cf2578351835260209384019390920191600101614cd4565b50909b9a5050505050505050505050565b5f60208284031215614d13575f5ffd5b6110ed82614ba5565b5f5f5f60608486031215614d2e575f5ffd5b833592506020840135614d4081614941565b91506040840135614c6281614955565b5f5f5f5f60808587031215614d63575f5ffd5b843593506020850135614d7581614941565b92506040850135614d8581614941565b91506060850135614d9581614955565b939692955090935050565b60ff811681146128b7575f5ffd5b5f5f5f5f5f5f5f60e0888a031215614dc4575f5ffd5b8735614dcf81614941565b96506020880135614ddf81614941565b955060408801359450606088013593506080880135614dfd81614da0565b9699959850939692959460a0840135945060c09093013592915050565b5f5f60408385031215614e2b575f5ffd5b8235614e3681614941565b9150602083013561498d81614941565b634e487b7160e01b5f52604160045260245ffd5b60405161022081016001600160401b0381118282101715614e7d57614e7d614e46565b60405290565b604051601f8201601f191681016001600160401b0381118282101715614eab57614eab614e46565b604052919050565b5f60208284031215614ec3575f5ffd5b81516001600160401b03811115614ed8575f5ffd5b8201601f81018413614ee8575f5ffd5b80516001600160401b03811115614f0157614f01614e46565b614f14601f8201601f1916602001614e83565b818152856020838501011115614f28575f5ffd5b8160208401602083015e5f91810160200191909152949350505050565b8051614bb381614941565b5f5f60408385031215614f61575f5ffd5b8251614f6c81614941565b602084015190925061498d81614941565b5f60208284031215614f8d575f5ffd5b5051919050565b5f60208284031215614fa4575f5ffd5b81516110ed81614da0565b80518015158114614bb3575f5ffd5b5f60208284031215614fce575f5ffd5b6110ed82614faf565b5f60208284031215614fe7575f5ffd5b81516110ed81614941565b5f5f60408385031215615003575f5ffd5b505080516020909101519092909150565b5f5f5f60608486031215615026575f5ffd5b83516020850151909350915061503e60408501614faf565b90509250925092565b6001600160a01b03868116825285166020820152604081018490526080606082018190528101829052818360a08301375f81830160a090810191909152601f909201601f19160101949350505050565b81518152602080830151908201526040808301516001600160a01b0390811691830191909152606092830151169181019190915260800190565b634e487b7160e01b5f52602160045260245ffd5b5f5f604083850312156150f6575f5ffd5b825161510181614b19565b602084015190925061498d81614b19565b60028110615122576151226150d1565b9052565b815181526020808301516001600160a01b0316908201526040808301516060830191611b7790840182615112565b6001600160a01b0383168152604081016110ed6020830184615112565b5f610220828403128015615183575f5ffd5b5061518c614e5a565b82518152602080840151908201526151a660408401614f45565b60408201526151b760608401614f45565b60608201526151c860808401614f45565b60808201526151d960a08401614f45565b60a08201526151ea60c08401614f45565b60c08201526151fb60e08401614f45565b60e082015261520d6101008401614f45565b6101008201526152206101208401614f45565b6101208201526101408381015190820152610160808401519082015261018080840151908201526101a080840151908201526101c0808401519082015261526a6101e08401614f45565b6101e082015261527d6102008401614faf565b6102008201529392505050565b818382375f9101908152919050565b848152602081018490526001600160a01b03831660408201526080810161171f6060830184615112565b60208101600383106152d7576152d76150d1565b91905290565b600181811c908216806152f157607f821691505b6020821081036126ab57634e487b7160e01b5f52602260045260245ffd5b81518152602080830151908201526040808301516001600160a01b03908116918301919091526060808401518216908301526080808401519091169082015260a08083015160c0830191611b7790840182615112565b634e487b7160e01b5f52601160045260245ffd5b6001815b60018411156153b45780850481111561539857615398615365565b60018416156153a657908102905b60019390931c92800261537d565b935093915050565b5f826153ca575060016110bb565b816153d657505f6110bb565b81600181146153ec57600281146153f657615412565b60019150506110bb565b60ff84111561540757615407615365565b50506001821b6110bb565b5060208310610133831016604e8410600b8410161715615435575081810a6110bb565b6154415f198484615379565b805f190482111561545457615454615365565b029392505050565b5f6110ed83836153bc565b808201808211156110bb576110bb615365565b634e487b7160e01b5f52601260045260245ffd5b818103818111156110bb576110bb615365565b5f60ff8316806154bf57634e487b7160e01b5f52601260045260245ffd5b8060ff84160691505092915050565b601f821115611fa357805f5260205f20601f840160051c810160208510156154f35750805b601f840160051c820191505b81811015614015575f81556001016154ff565b81516001600160401b0381111561552b5761552b614e46565b61553f8161553984546152dd565b846154ce565b6020601f821160018114615571575f831561555a5750848201515b5f19600385901b1c1916600184901b178455614015565b5f84815260208120601f198516915b828110156155a05787850151825560209485019460019092019101615580565b50848210156155bd57868401515f19600387901b60f8161c191681555b50505050600190811b01905550565b60018060a01b0384168152826020820152606060408201525f61171f606083018461490156fe01b0b3f9d6e360167e522fa2b18ba597ad7b2b35841fec7e1ca4dbb0adea1200d7513ffe3a01a9f6606089d1b67011bca35bec018ac0faa914e1c529408f8302d7513ffe3a01a9f6606089d1b67011bca35bec018ac0faa914e1c529408f8300a16a46d94261c7517cc8ff89f61c0ce93598e3c849801011dee649a6a557d1009f4c9b90b8375e1a1c51483b3ca447c3cef6557c7e1ddcfb2935a045af6b0ec7a2646970667358221220e30f4cc7819423cdc3eb65dd1ec6ece2d9d5422d987d07ba277785e8c2a92e0a64736f6c634300081c0033",
  "language": "Solidity",
  "compiler": "0.8.28+commit.7893614a"
}