{
  "address": "0x31dFC9b88cb4C1C4ac0f4A11F21A330620E520ed",
  "abi": [
    {
      "type": "constructor",
      "inputs": [
        {
          "name": "_nativeToken",
          "type": "address",
          "internalType": "address"
        },
        {
          "name": "_tokensReceiver",
          "type": "address",
          "internalType": "address payable"
        }
      ],
      "stateMutability": "nonpayable"
    },
    {
      "type": "function",
      "name": "NATIVE_TOKEN",
      "inputs": [],
      "outputs": [
        {
          "name": "",
          "type": "address",
          "internalType": "address"
        }
      ],
      "stateMutability": "view"
    },
    {
      "type": "function",
      "name": "TOKENS_RECEIVER",
      "inputs": [],
      "outputs": [
        {
          "name": "",
          "type": "address",
          "internalType": "address payable"
        }
      ],
      "stateMutability": "view"
    },
    {
      "type": "function",
      "name": "executeLiquidation",
      "inputs": [
        {
          "name": "_siloWithDebt",
          "type": "address",
          "internalType": "contract ISilo"
        },
        {
          "name": "_borrower",
          "type": "address",
          "internalType": "address"
        },
        {
          "name": "_maxDebtToCover",
          "type": "uint256",
          "internalType": "uint256"
        },
        {
          "name": "_receiveSToken",
          "type": "bool",
          "internalType": "bool"
        },
        {
          "name": "_receiver",
          "type": "address",
          "internalType": "address payable"
        }
      ],
      "outputs": [],
      "stateMutability": "nonpayable"
    },
    {
      "type": "function",
      "name": "executeLiquidation",
      "inputs": [
        {
          "name": "_siloWithDebt",
          "type": "address",
          "internalType": "contract ISilo"
        },
        {
          "name": "_borrower",
          "type": "address",
          "internalType": "address"
        },
        {
          "name": "_maxDebtToCover",
          "type": "uint256",
          "internalType": "uint256"
        },
        {
          "name": "_receiveSToken",
          "type": "bool",
          "internalType": "bool"
        }
      ],
      "outputs": [],
      "stateMutability": "nonpayable"
    },
    {
      "type": "function",
      "name": "executeLiquidation",
      "inputs": [
        {
          "name": "_siloWithDebt",
          "type": "address",
          "internalType": "contract ISilo"
        },
        {
          "name": "_borrower",
          "type": "address",
          "internalType": "address"
        }
      ],
      "outputs": [],
      "stateMutability": "nonpayable"
    },
    {
      "type": "function",
      "name": "rescueTokens",
      "inputs": [
        {
          "name": "_token",
          "type": "address",
          "internalType": "contract IERC20"
        }
      ],
      "outputs": [],
      "stateMutability": "nonpayable"
    },
    {
      "type": "event",
      "name": "TokensRescued",
      "inputs": [
        {
          "name": "executor",
          "type": "address",
          "indexed": true,
          "internalType": "address"
        },
        {
          "name": "token",
          "type": "address",
          "indexed": true,
          "internalType": "address"
        },
        {
          "name": "amount",
          "type": "uint256",
          "indexed": false,
          "internalType": "uint256"
        }
      ],
      "anonymous": false
    },
    {
      "type": "error",
      "name": "AddressEmptyCode",
      "inputs": [
        {
          "name": "target",
          "type": "address",
          "internalType": "address"
        }
      ]
    },
    {
      "type": "error",
      "name": "EmptyRecipient",
      "inputs": []
    },
    {
      "type": "error",
      "name": "FailedCall",
      "inputs": []
    },
    {
      "type": "error",
      "name": "InsufficientBalance",
      "inputs": [
        {
          "name": "balance",
          "type": "uint256",
          "internalType": "uint256"
        },
        {
          "name": "needed",
          "type": "uint256",
          "internalType": "uint256"
        }
      ]
    },
    {
      "type": "error",
      "name": "MaxDebtToCoverZero",
      "inputs": []
    },
    {
      "type": "error",
      "name": "SafeERC20FailedOperation",
      "inputs": [
        {
          "name": "token",
          "type": "address",
          "internalType": "address"
        }
      ]
    },
    {
      "type": "error",
      "name": "UserSolvent",
      "inputs": []
    }
  ],
  "bytecode": "0x60c060405234801561000f575f5ffd5b50604051610fbb380380610fbb83398101604081905261002e9161005c565b6001600160a01b0391821660a05216608052610094565b6001600160a01b0381168114610059575f5ffd5b50565b5f5f6040838503121561006d575f5ffd5b825161007881610045565b602084015190925061008981610045565b809150509250929050565b60805160a051610ee56100d65f395f818160900152818161077d01526108ef01525f818160e6015281816101200152818161016501526101990152610ee55ff3fe608060405234801561000f575f5ffd5b506004361061005f575f3560e01c8062ae3bf81461006357806303c1eeac1461007857806331f7d9641461008b57806389c0880f146100ce578063b34cbaf7146100e1578063bcebb1d714610108575b5f5ffd5b610076610071366004610b42565b61011b565b005b610076610086366004610b6a565b610148565b6100b27f000000000000000000000000000000000000000000000000000000000000000081565b6040516001600160a01b03909116815260200160405180910390f35b6100766100dc366004610bce565b61015c565b6100b27f000000000000000000000000000000000000000000000000000000000000000081565b610076610116366004610c1e565b61018f565b6101457f0000000000000000000000000000000000000000000000000000000000000000826101c1565b50565b61015585858585856102ab565b5050505050565b610189848484847f00000000000000000000000000000000000000000000000000000000000000006102ab565b50505050565b6101bd82825f195f7f00000000000000000000000000000000000000000000000000000000000000006102ab565b5050565b6001600160a01b0382166101e857604051635834d75360e11b815260040160405180910390fd5b6040516370a0823160e01b81523060048201525f906001600160a01b038316906370a0823190602401602060405180830381865afa15801561022c573d5f5f3e3d5ffd5b505050506040513d601f19601f820116820180604052508101906102509190610c55565b90506102666001600160a01b038316848361062c565b6040518181526001600160a01b0383169033907f77023e19c7343ad491fd706c36335ca0e738340a91f29b1fd81e2673d44896c49060200160405180910390a3505050565b825f036102cb5760405163f33790cd60e01b815260040160405180910390fd5b5f5f866001600160a01b03166379502c556040518163ffffffff1660e01b8152600401602060405180830381865afa158015610309573d5f5f3e3d5ffd5b505050506040513d601f19601f8201168201806040525081019061032d9190610c6c565b6040516394c0527d60e01b81526001600160a01b03888116600483015291909116906394c0527d9060240161044060405180830381865afa158015610374573d5f5f3e3d5ffd5b505050506040513d601f19601f820116820180604052508101906103989190610df0565b6101e081015160608201516040516317a05b0960e31b81526001600160a01b038b81166004830152949650929450909290915f9184169063bd02d84890602401606060405180830381865afa1580156103f3573d5f5f3e3d5ffd5b505050506040513d601f19601f820116820180604052508101906104179190610e25565b50915050805f0361043b576040516355f4767160e11b815260040160405180910390fd5b6104506001600160a01b038316333084610690565b6101e084015161046b906001600160a01b03841690836106c9565b826001600160a01b031662a718a9866060015186606001518c61048e868e610758565b6040516001600160e01b031960e087901b1681526001600160a01b0394851660048201529284166024840152921660448201526064810191909152891515608482015260a40160408051808303815f875af11580156104ef573d5f5f3e3d5ffd5b505050506040513d601f19601f820116820180604052508101906105139190610e5c565b50506101e0840151610530906001600160a01b038416905f6106c9565b86156105e95760808501516040516370a0823160e01b81523060048201526105ad9188916001600160a01b038216906370a08231906024015b602060405180830381865afa158015610584573d5f5f3e3d5ffd5b505050506040513d601f19601f820116820180604052508101906105a89190610c55565b61076f565b60a08501516040516370a0823160e01b81523060048201526105e49188916001600160a01b038216906370a0823190602401610569565b610620565b60608501516040516370a0823160e01b81523060048201526106209188916001600160a01b038216906370a0823190602401610569565b50505050505050505050565b6040516001600160a01b0383811660248301526044820183905261068b91859182169063a9059cbb906064015b604051602081830303815290604052915060e01b6020820180516001600160e01b0383818316178352505050506107d2565b505050565b6040516001600160a01b0384811660248301528381166044830152606482018390526101899186918216906323b872dd90608401610659565b604080516001600160a01b038416602482015260448082018490528251808303909101815260649091019091526020810180516001600160e01b031663095ea7b360e01b17905261071a8482610838565b610189576040516001600160a01b0384811660248301525f604483015261074e91869182169063095ea7b390606401610659565b61018984826107d2565b5f8183106107665781610768565b825b9392505050565b805f0361077b57505050565b7f00000000000000000000000000000000000000000000000000000000000000006001600160a01b0316826001600160a01b0316036107be5761068b83826108d9565b61068b6001600160a01b038316848361062c565b5f6107e66001600160a01b03841683610962565b905080515f1415801561080a5750808060200190518101906108089190610e7e565b155b1561068b57604051635274afe760e01b81526001600160a01b03841660048201526024015b60405180910390fd5b5f5f5f846001600160a01b0316846040516108539190610e99565b5f604051808303815f865af19150503d805f811461088c576040519150601f19603f3d011682016040523d82523d5f602084013e610891565b606091505b50915091508180156108bb5750805115806108bb5750808060200190518101906108bb9190610e7e565b80156108d057505f856001600160a01b03163b115b95945050505050565b604051632e1a7d4d60e01b8152600481018290527f00000000000000000000000000000000000000000000000000000000000000006001600160a01b031690632e1a7d4d906024015f604051808303815f87803b158015610938575f5ffd5b505af115801561094a573d5f5f3e3d5ffd5b506101bd925050506001600160a01b0383168261096f565b606061076883835f610a09565b804710156109995760405163cf47918160e01b81524760048201526024810182905260440161082f565b5f826001600160a01b0316826040515f6040518083038185875af1925050503d805f81146109e2576040519150601f19603f3d011682016040523d82523d5f602084013e6109e7565b606091505b505090508061068b5760405163d6bda27560e01b815260040160405180910390fd5b606081471015610a355760405163cf47918160e01b81524760048201526024810183905260440161082f565b5f5f856001600160a01b03168486604051610a509190610e99565b5f6040518083038185875af1925050503d805f8114610a8a576040519150601f19603f3d011682016040523d82523d5f602084013e610a8f565b606091505b5091509150610a9f868383610aa9565b9695505050505050565b606082610abe57610ab982610b05565b610768565b8151158015610ad557506001600160a01b0384163b155b15610afe57604051639996b31560e01b81526001600160a01b038516600482015260240161082f565b5080610768565b805115610b155780518082602001fd5b60405163d6bda27560e01b815260040160405180910390fd5b6001600160a01b0381168114610145575f5ffd5b5f60208284031215610b52575f5ffd5b813561076881610b2e565b8015158114610145575f5ffd5b5f5f5f5f5f60a08688031215610b7e575f5ffd5b8535610b8981610b2e565b94506020860135610b9981610b2e565b9350604086013592506060860135610bb081610b5d565b91506080860135610bc081610b2e565b809150509295509295909350565b5f5f5f5f60808587031215610be1575f5ffd5b8435610bec81610b2e565b93506020850135610bfc81610b2e565b9250604085013591506060850135610c1381610b5d565b939692955090935050565b5f5f60408385031215610c2f575f5ffd5b8235610c3a81610b2e565b91506020830135610c4a81610b2e565b809150509250929050565b5f60208284031215610c65575f5ffd5b5051919050565b5f60208284031215610c7c575f5ffd5b815161076881610b2e565b604051610220810167ffffffffffffffff81118282101715610cb757634e487b7160e01b5f52604160045260245ffd5b60405290565b8051610cc881610b2e565b919050565b8051610cc881610b5d565b5f6102208284031215610ce9575f5ffd5b610cf1610c87565b82518152602080840151908201529050610d0d60408301610cbd565b6040820152610d1e60608301610cbd565b6060820152610d2f60808301610cbd565b6080820152610d4060a08301610cbd565b60a0820152610d5160c08301610cbd565b60c0820152610d6260e08301610cbd565b60e0820152610d746101008301610cbd565b610100820152610d876101208301610cbd565b6101208201526101408281015190820152610160808301519082015261018080830151908201526101a080830151908201526101c08083015190820152610dd16101e08301610cbd565b6101e0820152610de46102008301610ccd565b61020082015292915050565b5f5f6104408385031215610e02575f5ffd5b610e0c8484610cd8565b9150610e1c846102208501610cd8565b90509250929050565b5f5f5f60608486031215610e37575f5ffd5b8351602085015160408601519194509250610e5181610b5d565b809150509250925092565b5f5f60408385031215610e6d575f5ffd5b505080516020909101519092909150565b5f60208284031215610e8e575f5ffd5b815161076881610b5d565b5f82518060208501845e5f92019182525091905056fea26469706673582212201571ec64baea43ad3ee90a6729092d5629aabcc9b3c131aa6c5481d304549a5a64736f6c634300081c0033",
  "language": "Solidity",
  "compiler": "0.8.28+commit.7893614a"
}