{
  "address": "0x1279f96161d6d3298cAE228b4B3c033F425Cad12",
  "abi": [
    {
      "type": "constructor",
      "inputs": [
        {
          "name": "_oracle",
          "type": "address",
          "internalType": "contract IYInjPriceOracle"
        }
      ],
      "stateMutability": "nonpayable"
    },
    {
      "type": "function",
      "name": "ORACLE",
      "inputs": [],
      "outputs": [
        {
          "name": "",
          "type": "address",
          "internalType": "contract IYInjPriceOracle"
        }
      ],
      "stateMutability": "view"
    },
    {
      "type": "function",
      "name": "ORACLE_DECIMALS",
      "inputs": [],
      "outputs": [
        {
          "name": "",
          "type": "uint8",
          "internalType": "uint8"
        }
      ],
      "stateMutability": "view"
    },
    {
      "type": "function",
      "name": "decimals",
      "inputs": [],
      "outputs": [
        {
          "name": "",
          "type": "uint8",
          "internalType": "uint8"
        }
      ],
      "stateMutability": "view"
    },
    {
      "type": "function",
      "name": "description",
      "inputs": [],
      "outputs": [
        {
          "name": "",
          "type": "string",
          "internalType": "string"
        }
      ],
      "stateMutability": "pure"
    },
    {
      "type": "function",
      "name": "getRoundData",
      "inputs": [
        {
          "name": "",
          "type": "uint80",
          "internalType": "uint80"
        }
      ],
      "outputs": [
        {
          "name": "",
          "type": "uint80",
          "internalType": "uint80"
        },
        {
          "name": "",
          "type": "int256",
          "internalType": "int256"
        },
        {
          "name": "",
          "type": "uint256",
          "internalType": "uint256"
        },
        {
          "name": "",
          "type": "uint256",
          "internalType": "uint256"
        },
        {
          "name": "",
          "type": "uint80",
          "internalType": "uint80"
        }
      ],
      "stateMutability": "pure"
    },
    {
      "type": "function",
      "name": "latestRoundData",
      "inputs": [],
      "outputs": [
        {
          "name": "roundId",
          "type": "uint80",
          "internalType": "uint80"
        },
        {
          "name": "answer",
          "type": "int256",
          "internalType": "int256"
        },
        {
          "name": "startedAt",
          "type": "uint256",
          "internalType": "uint256"
        },
        {
          "name": "updatedAt",
          "type": "uint256",
          "internalType": "uint256"
        },
        {
          "name": "answeredInRound",
          "type": "uint80",
          "internalType": "uint80"
        }
      ],
      "stateMutability": "view"
    },
    {
      "type": "function",
      "name": "version",
      "inputs": [],
      "outputs": [
        {
          "name": "",
          "type": "uint256",
          "internalType": "uint256"
        }
      ],
      "stateMutability": "pure"
    },
    {
      "type": "error",
      "name": "InvalidOracleAddress",
      "inputs": []
    },
    {
      "type": "error",
      "name": "NotImplemented",
      "inputs": []
    },
    {
      "type": "error",
      "name": "SafeCastOverflowedUintToInt",
      "inputs": [
        {
          "name": "value",
          "type": "uint256",
          "internalType": "uint256"
        }
      ]
    }
  ],
  "bytecode": "0x60a060405234801561000f575f5ffd5b5060405161047538038061047583398101604081905261002e916100d0565b6001600160a01b03811615806100a15750806001600160a01b031663e6aa216c6040518163ffffffff1660e01b8152600401602060405180830381865afa15801561007b573d5f5f3e3d5ffd5b505050506040513d601f19601f8201168201806040525081019061009f91906100fd565b155b156100bf57604051635521068160e01b815260040160405180910390fd5b6001600160a01b0316608052610114565b5f602082840312156100e0575f5ffd5b81516001600160a01b03811681146100f6575f5ffd5b9392505050565b5f6020828403121561010d575f5ffd5b5051919050565b6080516103436101325f395f818160a901526101a501526103435ff3fe608060405234801561000f575f5ffd5b506004361061007a575f3560e01c806354fd4d501161005857806354fd4d50146100e35780637284e416146100f25780639a6fc8f514610107578063feaf968c14610151575f5ffd5b80631ea155021461007e578063313ce5671461009d57806338013f02146100a4575b5f5ffd5b610086601281565b60405160ff90911681526020015b60405180910390f35b6012610086565b6100cb7f000000000000000000000000000000000000000000000000000000000000000081565b6040516001600160a01b039091168152602001610094565b60405160018152602001610094565b6100fa610159565b604051610094919061026b565b61011a6101153660046102a0565b610179565b6040805169ffffffffffffffffffff968716815260208101959095528401929092526060830152909116608082015260a001610094565b61011a610197565b60606040518060600160405280602681526020016102e860269139905090565b5f5f5f5f5f60405163d623472560e01b815260040160405180910390fd5b5f5f5f5f5f600194506102287f00000000000000000000000000000000000000000000000000000000000000006001600160a01b031663e6aa216c6040518163ffffffff1660e01b8152600401602060405180830381865afa1580156101ff573d5f5f3e3d5ffd5b505050506040513d601f19601f8201168201806040525081019061022391906102d0565b610237565b94954294508493508692509050565b5f6001600160ff1b038211156102675760405163123baf0360e11b81526004810183905260240160405180910390fd5b5090565b602081525f82518060208401528060208501604085015e5f604082850101526040601f19601f83011684010191505092915050565b5f602082840312156102b0575f5ffd5b813569ffffffffffffffffffff811681146102c9575f5ffd5b9392505050565b5f602082840312156102e0575f5ffd5b505191905056fe79494e4a202f20494e4a206164617074657220666f722059496e6a50726963654f7261636c65a2646970667358221220bc2e14d6afbe7821a3b8c39a4bf717a15f5d0ddcbd8f889d6de745d4972743c564736f6c634300081c0033",
  "language": "Solidity",
  "compiler": "0.8.28+commit.7893614a"
}